{
	"class_7 (18.3.26)/struct.sol": {
		"StudentDetails": {
			"abi": [
				{
					"inputs": [],
					"name": "getStudentDetail",
					"outputs": [
						{
							"internalType": "string",
							"name": "",
							"type": "string"
						},
						{
							"internalType": "uint256",
							"name": "",
							"type": "uint256"
						},
						{
							"internalType": "uint256",
							"name": "",
							"type": "uint256"
						}
					],
					"stateMutability": "view",
					"type": "function"
				},
				{
					"inputs": [
						{
							"internalType": "string",
							"name": "_name",
							"type": "string"
						},
						{
							"internalType": "uint256",
							"name": "_id",
							"type": "uint256"
						},
						{
							"internalType": "uint256",
							"name": "_age",
							"type": "uint256"
						}
					],
					"name": "setStudentDetail",
					"outputs": [],
					"stateMutability": "nonpayable",
					"type": "function"
				},
				{
					"inputs": [],
					"name": "student1",
					"outputs": [
						{
							"internalType": "string",
							"name": "name",
							"type": "string"
						},
						{
							"internalType": "uint256",
							"name": "id",
							"type": "uint256"
						},
						{
							"internalType": "uint256",
							"name": "age",
							"type": "uint256"
						}
					],
					"stateMutability": "view",
					"type": "function"
				}
			],
			"devdoc": {
				"kind": "dev",
				"methods": {},
				"version": 1
			},
			"evm": {
				"assembly": "    /* \"class_7 (18.3.26)/struct.sol\":60:520  contract StudentDetails{... */\n  mstore(0x40, 0x80)\n  callvalue\n  dup1\n  iszero\n  tag_1\n  jumpi\n  revert(0x00, 0x00)\ntag_1:\n  pop\n  dataSize(sub_0)\n  dup1\n  dataOffset(sub_0)\n  0x00\n  codecopy\n  0x00\n  return\nstop\n\nsub_0: assembly {\n        /* \"class_7 (18.3.26)/struct.sol\":60:520  contract StudentDetails{... */\n      mstore(0x40, 0x80)\n      callvalue\n      dup1\n      iszero\n      tag_1\n      jumpi\n      revert(0x00, 0x00)\n    tag_1:\n      pop\n      jumpi(tag_2, lt(calldatasize, 0x04))\n      shr(0xe0, calldataload(0x00))\n      dup1\n      0x294f2eee\n      eq\n      tag_3\n      jumpi\n      dup1\n      0x361a80e6\n      eq\n      tag_4\n      jumpi\n      dup1\n      0xa0f1209c\n      eq\n      tag_5\n      jumpi\n    tag_2:\n      revert(0x00, 0x00)\n        /* \"class_7 (18.3.26)/struct.sol\":374:517  function getStudentDetail() public view returns( string memory, uint, uint){... */\n    tag_3:\n      tag_6\n      tag_7\n      jump\t// in\n    tag_6:\n      mload(0x40)\n      tag_8\n      swap4\n      swap3\n      swap2\n      swap1\n      tag_9\n      jump\t// in\n    tag_8:\n      mload(0x40)\n      dup1\n      swap2\n      sub\n      swap1\n      return\n        /* \"class_7 (18.3.26)/struct.sol\":206:229  Student public student1 */\n    tag_4:\n      tag_10\n      tag_11\n      jump\t// in\n    tag_10:\n      mload(0x40)\n      tag_12\n      swap4\n      swap3\n      swap2\n      swap1\n      tag_9\n      jump\t// in\n    tag_12:\n      mload(0x40)\n      dup1\n      swap2\n      sub\n      swap1\n      return\n        /* \"class_7 (18.3.26)/struct.sol\":238:368  function setStudentDetail( string memory _name, uint _id, uint _age) public{... */\n    tag_5:\n      tag_13\n      0x04\n      dup1\n      calldatasize\n      sub\n      dup2\n      add\n      swap1\n      tag_14\n      swap2\n      swap1\n      tag_15\n      jump\t// in\n    tag_14:\n      tag_16\n      jump\t// in\n    tag_13:\n      stop\n        /* \"class_7 (18.3.26)/struct.sol\":374:517  function getStudentDetail() public view returns( string memory, uint, uint){... */\n    tag_7:\n        /* \"class_7 (18.3.26)/struct.sol\":423:436  string memory */\n      0x60\n        /* \"class_7 (18.3.26)/struct.sol\":438:442  uint */\n      0x00\n        /* \"class_7 (18.3.26)/struct.sol\":444:448  uint */\n      0x00\n        /* \"class_7 (18.3.26)/struct.sol\":468:476  student1 */\n      0x00\n        /* \"class_7 (18.3.26)/struct.sol\":468:481  student1.name */\n      0x00\n      add\n        /* \"class_7 (18.3.26)/struct.sol\":483:491  student1 */\n      0x00\n        /* \"class_7 (18.3.26)/struct.sol\":483:494  student1.id */\n      0x01\n      add\n      sload\n        /* \"class_7 (18.3.26)/struct.sol\":496:504  student1 */\n      0x00\n        /* \"class_7 (18.3.26)/struct.sol\":496:508  student1.age */\n      0x02\n      add\n      sload\n        /* \"class_7 (18.3.26)/struct.sol\":460:509  return (student1.name, student1.id, student1.age) */\n      dup3\n      dup1\n      sload\n      tag_18\n      swap1\n      tag_19\n      jump\t// in\n    tag_18:\n      dup1\n      0x1f\n      add\n      0x20\n      dup1\n      swap2\n      div\n      mul\n      0x20\n      add\n      mload(0x40)\n      swap1\n      dup2\n      add\n      0x40\n      mstore\n      dup1\n      swap3\n      swap2\n      swap1\n      dup2\n      dup2\n      mstore\n      0x20\n      add\n      dup3\n      dup1\n      sload\n      tag_20\n      swap1\n      tag_19\n      jump\t// in\n    tag_20:\n      dup1\n      iszero\n      tag_21\n      jumpi\n      dup1\n      0x1f\n      lt\n      tag_22\n      jumpi\n      0x0100\n      dup1\n      dup4\n      sload\n      div\n      mul\n      dup4\n      mstore\n      swap2\n      0x20\n      add\n      swap2\n      jump(tag_21)\n    tag_22:\n      dup3\n      add\n      swap2\n      swap1\n      0x00\n      mstore\n      keccak256(0x00, 0x20)\n      swap1\n    tag_23:\n      dup2\n      sload\n      dup2\n      mstore\n      swap1\n      0x01\n      add\n      swap1\n      0x20\n      add\n      dup1\n      dup4\n      gt\n      tag_23\n      jumpi\n      dup3\n      swap1\n      sub\n      0x1f\n      and\n      dup3\n      add\n      swap2\n    tag_21:\n      pop\n      pop\n      pop\n      pop\n      pop\n      swap3\n      pop\n      swap3\n      pop\n      swap3\n      pop\n      swap3\n      pop\n        /* \"class_7 (18.3.26)/struct.sol\":374:517  function getStudentDetail() public view returns( string memory, uint, uint){... */\n      swap1\n      swap2\n      swap3\n      jump\t// out\n        /* \"class_7 (18.3.26)/struct.sol\":206:229  Student public student1 */\n    tag_11:\n      0x00\n      dup1\n      0x00\n      add\n      dup1\n      sload\n      tag_24\n      swap1\n      tag_19\n      jump\t// in\n    tag_24:\n      dup1\n      0x1f\n      add\n      0x20\n      dup1\n      swap2\n      div\n      mul\n      0x20\n      add\n      mload(0x40)\n      swap1\n      dup2\n      add\n      0x40\n      mstore\n      dup1\n      swap3\n      swap2\n      swap1\n      dup2\n      dup2\n      mstore\n      0x20\n      add\n      dup3\n      dup1\n      sload\n      tag_25\n      swap1\n      tag_19\n      jump\t// in\n    tag_25:\n      dup1\n      iszero\n      tag_26\n      jumpi\n      dup1\n      0x1f\n      lt\n      tag_27\n      jumpi\n      0x0100\n      dup1\n      dup4\n      sload\n      div\n      mul\n      dup4\n      mstore\n      swap2\n      0x20\n      add\n      swap2\n      jump(tag_26)\n    tag_27:\n      dup3\n      add\n      swap2\n      swap1\n      0x00\n      mstore\n      keccak256(0x00, 0x20)\n      swap1\n    tag_28:\n      dup2\n      sload\n      dup2\n      mstore\n      swap1\n      0x01\n      add\n      swap1\n      0x20\n      add\n      dup1\n      dup4\n      gt\n      tag_28\n      jumpi\n      dup3\n      swap1\n      sub\n      0x1f\n      and\n      dup3\n      add\n      swap2\n    tag_26:\n      pop\n      pop\n      pop\n      pop\n      pop\n      swap1\n      dup1\n      0x01\n      add\n      sload\n      swap1\n      dup1\n      0x02\n      add\n      sload\n      swap1\n      pop\n      dup4\n      jump\t// out\n        /* \"class_7 (18.3.26)/struct.sol\":238:368  function setStudentDetail( string memory _name, uint _id, uint _age) public{... */\n    tag_16:\n        /* \"class_7 (18.3.26)/struct.sol\":335:360  Student(_name, _id, _age) */\n      mload(0x40)\n      dup1\n      0x60\n      add\n      0x40\n      mstore\n      dup1\n        /* \"class_7 (18.3.26)/struct.sol\":343:348  _name */\n      dup5\n        /* \"class_7 (18.3.26)/struct.sol\":335:360  Student(_name, _id, _age) */\n      dup2\n      mstore\n      0x20\n      add\n        /* \"class_7 (18.3.26)/struct.sol\":350:353  _id */\n      dup4\n        /* \"class_7 (18.3.26)/struct.sol\":335:360  Student(_name, _id, _age) */\n      dup2\n      mstore\n      0x20\n      add\n        /* \"class_7 (18.3.26)/struct.sol\":355:359  _age */\n      dup3\n        /* \"class_7 (18.3.26)/struct.sol\":335:360  Student(_name, _id, _age) */\n      dup2\n      mstore\n      pop\n        /* \"class_7 (18.3.26)/struct.sol\":324:332  student1 */\n      0x00\n        /* \"class_7 (18.3.26)/struct.sol\":324:360  student1 = Student(_name, _id, _age) */\n      0x00\n      dup3\n      add\n      mload\n      dup2\n      0x00\n      add\n      swap1\n      dup2\n      tag_30\n      swap2\n      swap1\n      tag_31\n      jump\t// in\n    tag_30:\n      pop\n      0x20\n      dup3\n      add\n      mload\n      dup2\n      0x01\n      add\n      sstore\n      0x40\n      dup3\n      add\n      mload\n      dup2\n      0x02\n      add\n      sstore\n      swap1\n      pop\n      pop\n        /* \"class_7 (18.3.26)/struct.sol\":238:368  function setStudentDetail( string memory _name, uint _id, uint _age) public{... */\n      pop\n      pop\n      pop\n      jump\t// out\n        /* \"#utility.yul\":7:106   */\n    tag_32:\n        /* \"#utility.yul\":59:65   */\n      0x00\n        /* \"#utility.yul\":93:98   */\n      dup2\n        /* \"#utility.yul\":87:99   */\n      mload\n        /* \"#utility.yul\":77:99   */\n      swap1\n      pop\n        /* \"#utility.yul\":7:106   */\n      swap2\n      swap1\n      pop\n      jump\t// out\n        /* \"#utility.yul\":112:281   */\n    tag_33:\n        /* \"#utility.yul\":196:207   */\n      0x00\n        /* \"#utility.yul\":230:236   */\n      dup3\n        /* \"#utility.yul\":225:228   */\n      dup3\n        /* \"#utility.yul\":218:237   */\n      mstore\n        /* \"#utility.yul\":270:274   */\n      0x20\n        /* \"#utility.yul\":265:268   */\n      dup3\n        /* \"#utility.yul\":261:275   */\n      add\n        /* \"#utility.yul\":246:275   */\n      swap1\n      pop\n        /* \"#utility.yul\":112:281   */\n      swap3\n      swap2\n      pop\n      pop\n      jump\t// out\n        /* \"#utility.yul\":287:426   */\n    tag_34:\n        /* \"#utility.yul\":376:382   */\n      dup3\n        /* \"#utility.yul\":371:374   */\n      dup2\n        /* \"#utility.yul\":366:369   */\n      dup4\n        /* \"#utility.yul\":360:383   */\n      mcopy\n        /* \"#utility.yul\":417:418   */\n      0x00\n        /* \"#utility.yul\":408:414   */\n      dup4\n        /* \"#utility.yul\":403:406   */\n      dup4\n        /* \"#utility.yul\":399:415   */\n      add\n        /* \"#utility.yul\":392:419   */\n      mstore\n        /* \"#utility.yul\":287:426   */\n      pop\n      pop\n      pop\n      jump\t// out\n        /* \"#utility.yul\":432:534   */\n    tag_35:\n        /* \"#utility.yul\":473:479   */\n      0x00\n        /* \"#utility.yul\":524:526   */\n      0x1f\n        /* \"#utility.yul\":520:527   */\n      not\n        /* \"#utility.yul\":515:517   */\n      0x1f\n        /* \"#utility.yul\":508:513   */\n      dup4\n        /* \"#utility.yul\":504:518   */\n      add\n        /* \"#utility.yul\":500:528   */\n      and\n        /* \"#utility.yul\":490:528   */\n      swap1\n      pop\n        /* \"#utility.yul\":432:534   */\n      swap2\n      swap1\n      pop\n      jump\t// out\n        /* \"#utility.yul\":540:917   */\n    tag_36:\n        /* \"#utility.yul\":628:631   */\n      0x00\n        /* \"#utility.yul\":656:695   */\n      tag_75\n        /* \"#utility.yul\":689:694   */\n      dup3\n        /* \"#utility.yul\":656:695   */\n      tag_32\n      jump\t// in\n    tag_75:\n        /* \"#utility.yul\":711:782   */\n      tag_76\n        /* \"#utility.yul\":775:781   */\n      dup2\n        /* \"#utility.yul\":770:773   */\n      dup6\n        /* \"#utility.yul\":711:782   */\n      tag_33\n      jump\t// in\n    tag_76:\n        /* \"#utility.yul\":704:782   */\n      swap4\n      pop\n        /* \"#utility.yul\":791:856   */\n      tag_77\n        /* \"#utility.yul\":849:855   */\n      dup2\n        /* \"#utility.yul\":844:847   */\n      dup6\n        /* \"#utility.yul\":837:841   */\n      0x20\n        /* \"#utility.yul\":830:835   */\n      dup7\n        /* \"#utility.yul\":826:842   */\n      add\n        /* \"#utility.yul\":791:856   */\n      tag_34\n      jump\t// in\n    tag_77:\n        /* \"#utility.yul\":881:910   */\n      tag_78\n        /* \"#utility.yul\":903:909   */\n      dup2\n        /* \"#utility.yul\":881:910   */\n      tag_35\n      jump\t// in\n    tag_78:\n        /* \"#utility.yul\":876:879   */\n      dup5\n        /* \"#utility.yul\":872:911   */\n      add\n        /* \"#utility.yul\":865:911   */\n      swap2\n      pop\n        /* \"#utility.yul\":632:917   */\n      pop\n        /* \"#utility.yul\":540:917   */\n      swap3\n      swap2\n      pop\n      pop\n      jump\t// out\n        /* \"#utility.yul\":923:1000   */\n    tag_37:\n        /* \"#utility.yul\":960:967   */\n      0x00\n        /* \"#utility.yul\":989:994   */\n      dup2\n        /* \"#utility.yul\":978:994   */\n      swap1\n      pop\n        /* \"#utility.yul\":923:1000   */\n      swap2\n      swap1\n      pop\n      jump\t// out\n        /* \"#utility.yul\":1006:1124   */\n    tag_38:\n        /* \"#utility.yul\":1093:1117   */\n      tag_81\n        /* \"#utility.yul\":1111:1116   */\n      dup2\n        /* \"#utility.yul\":1093:1117   */\n      tag_37\n      jump\t// in\n    tag_81:\n        /* \"#utility.yul\":1088:1091   */\n      dup3\n        /* \"#utility.yul\":1081:1118   */\n      mstore\n        /* \"#utility.yul\":1006:1124   */\n      pop\n      pop\n      jump\t// out\n        /* \"#utility.yul\":1130:1663   */\n    tag_9:\n        /* \"#utility.yul\":1299:1303   */\n      0x00\n        /* \"#utility.yul\":1337:1339   */\n      0x60\n        /* \"#utility.yul\":1326:1335   */\n      dup3\n        /* \"#utility.yul\":1322:1340   */\n      add\n        /* \"#utility.yul\":1314:1340   */\n      swap1\n      pop\n        /* \"#utility.yul\":1386:1395   */\n      dup2\n        /* \"#utility.yul\":1380:1384   */\n      dup2\n        /* \"#utility.yul\":1376:1396   */\n      sub\n        /* \"#utility.yul\":1372:1373   */\n      0x00\n        /* \"#utility.yul\":1361:1370   */\n      dup4\n        /* \"#utility.yul\":1357:1374   */\n      add\n        /* \"#utility.yul\":1350:1397   */\n      mstore\n        /* \"#utility.yul\":1414:1492   */\n      tag_83\n        /* \"#utility.yul\":1487:1491   */\n      dup2\n        /* \"#utility.yul\":1478:1484   */\n      dup7\n        /* \"#utility.yul\":1414:1492   */\n      tag_36\n      jump\t// in\n    tag_83:\n        /* \"#utility.yul\":1406:1492   */\n      swap1\n      pop\n        /* \"#utility.yul\":1502:1574   */\n      tag_84\n        /* \"#utility.yul\":1570:1572   */\n      0x20\n        /* \"#utility.yul\":1559:1568   */\n      dup4\n        /* \"#utility.yul\":1555:1573   */\n      add\n        /* \"#utility.yul\":1546:1552   */\n      dup6\n        /* \"#utility.yul\":1502:1574   */\n      tag_38\n      jump\t// in\n    tag_84:\n        /* \"#utility.yul\":1584:1656   */\n      tag_85\n        /* \"#utility.yul\":1652:1654   */\n      0x40\n        /* \"#utility.yul\":1641:1650   */\n      dup4\n        /* \"#utility.yul\":1637:1655   */\n      add\n        /* \"#utility.yul\":1628:1634   */\n      dup5\n        /* \"#utility.yul\":1584:1656   */\n      tag_38\n      jump\t// in\n    tag_85:\n        /* \"#utility.yul\":1130:1663   */\n      swap5\n      swap4\n      pop\n      pop\n      pop\n      pop\n      jump\t// out\n        /* \"#utility.yul\":1669:1744   */\n    tag_39:\n        /* \"#utility.yul\":1702:1708   */\n      0x00\n        /* \"#utility.yul\":1735:1737   */\n      0x40\n        /* \"#utility.yul\":1729:1738   */\n      mload\n        /* \"#utility.yul\":1719:1738   */\n      swap1\n      pop\n        /* \"#utility.yul\":1669:1744   */\n      swap1\n      jump\t// out\n        /* \"#utility.yul\":1750:1867   */\n    tag_40:\n        /* \"#utility.yul\":1859:1860   */\n      0x00\n        /* \"#utility.yul\":1856:1857   */\n      0x00\n        /* \"#utility.yul\":1849:1861   */\n      revert\n        /* \"#utility.yul\":1873:1990   */\n    tag_41:\n        /* \"#utility.yul\":1982:1983   */\n      0x00\n        /* \"#utility.yul\":1979:1980   */\n      0x00\n        /* \"#utility.yul\":1972:1984   */\n      revert\n        /* \"#utility.yul\":1996:2113   */\n    tag_42:\n        /* \"#utility.yul\":2105:2106   */\n      0x00\n        /* \"#utility.yul\":2102:2103   */\n      0x00\n        /* \"#utility.yul\":2095:2107   */\n      revert\n        /* \"#utility.yul\":2119:2236   */\n    tag_43:\n        /* \"#utility.yul\":2228:2229   */\n      0x00\n        /* \"#utility.yul\":2225:2226   */\n      0x00\n        /* \"#utility.yul\":2218:2230   */\n      revert\n        /* \"#utility.yul\":2242:2422   */\n    tag_44:\n        /* \"#utility.yul\":2290:2367   */\n      0x4e487b7100000000000000000000000000000000000000000000000000000000\n        /* \"#utility.yul\":2287:2288   */\n      0x00\n        /* \"#utility.yul\":2280:2368   */\n      mstore\n        /* \"#utility.yul\":2387:2391   */\n      0x41\n        /* \"#utility.yul\":2384:2385   */\n      0x04\n        /* \"#utility.yul\":2377:2392   */\n      mstore\n        /* \"#utility.yul\":2411:2415   */\n      0x24\n        /* \"#utility.yul\":2408:2409   */\n      0x00\n        /* \"#utility.yul\":2401:2416   */\n      revert\n        /* \"#utility.yul\":2428:2709   */\n    tag_45:\n        /* \"#utility.yul\":2511:2538   */\n      tag_93\n        /* \"#utility.yul\":2533:2537   */\n      dup3\n        /* \"#utility.yul\":2511:2538   */\n      tag_35\n      jump\t// in\n    tag_93:\n        /* \"#utility.yul\":2503:2509   */\n      dup2\n        /* \"#utility.yul\":2499:2539   */\n      add\n        /* \"#utility.yul\":2641:2647   */\n      dup2\n        /* \"#utility.yul\":2629:2639   */\n      dup2\n        /* \"#utility.yul\":2626:2648   */\n      lt\n        /* \"#utility.yul\":2605:2623   */\n      0xffffffffffffffff\n        /* \"#utility.yul\":2593:2603   */\n      dup3\n        /* \"#utility.yul\":2590:2624   */\n      gt\n        /* \"#utility.yul\":2587:2649   */\n      or\n        /* \"#utility.yul\":2584:2672   */\n      iszero\n      tag_94\n      jumpi\n        /* \"#utility.yul\":2652:2670   */\n      tag_95\n      tag_44\n      jump\t// in\n    tag_95:\n        /* \"#utility.yul\":2584:2672   */\n    tag_94:\n        /* \"#utility.yul\":2692:2702   */\n      dup1\n        /* \"#utility.yul\":2688:2690   */\n      0x40\n        /* \"#utility.yul\":2681:2703   */\n      mstore\n        /* \"#utility.yul\":2471:2709   */\n      pop\n        /* \"#utility.yul\":2428:2709   */\n      pop\n      pop\n      jump\t// out\n        /* \"#utility.yul\":2715:2844   */\n    tag_46:\n        /* \"#utility.yul\":2749:2755   */\n      0x00\n        /* \"#utility.yul\":2776:2796   */\n      tag_97\n      tag_39\n      jump\t// in\n    tag_97:\n        /* \"#utility.yul\":2766:2796   */\n      swap1\n      pop\n        /* \"#utility.yul\":2805:2838   */\n      tag_98\n        /* \"#utility.yul\":2833:2837   */\n      dup3\n        /* \"#utility.yul\":2825:2831   */\n      dup3\n        /* \"#utility.yul\":2805:2838   */\n      tag_45\n      jump\t// in\n    tag_98:\n        /* \"#utility.yul\":2715:2844   */\n      swap2\n      swap1\n      pop\n      jump\t// out\n        /* \"#utility.yul\":2850:3158   */\n    tag_47:\n        /* \"#utility.yul\":2912:2916   */\n      0x00\n        /* \"#utility.yul\":3002:3020   */\n      0xffffffffffffffff\n        /* \"#utility.yul\":2994:3000   */\n      dup3\n        /* \"#utility.yul\":2991:3021   */\n      gt\n        /* \"#utility.yul\":2988:3044   */\n      iszero\n      tag_100\n      jumpi\n        /* \"#utility.yul\":3024:3042   */\n      tag_101\n      tag_44\n      jump\t// in\n    tag_101:\n        /* \"#utility.yul\":2988:3044   */\n    tag_100:\n        /* \"#utility.yul\":3062:3091   */\n      tag_102\n        /* \"#utility.yul\":3084:3090   */\n      dup3\n        /* \"#utility.yul\":3062:3091   */\n      tag_35\n      jump\t// in\n    tag_102:\n        /* \"#utility.yul\":3054:3091   */\n      swap1\n      pop\n        /* \"#utility.yul\":3146:3150   */\n      0x20\n        /* \"#utility.yul\":3140:3144   */\n      dup2\n        /* \"#utility.yul\":3136:3151   */\n      add\n        /* \"#utility.yul\":3128:3151   */\n      swap1\n      pop\n        /* \"#utility.yul\":2850:3158   */\n      swap2\n      swap1\n      pop\n      jump\t// out\n        /* \"#utility.yul\":3164:3312   */\n    tag_48:\n        /* \"#utility.yul\":3262:3268   */\n      dup3\n        /* \"#utility.yul\":3257:3260   */\n      dup2\n        /* \"#utility.yul\":3252:3255   */\n      dup4\n        /* \"#utility.yul\":3239:3269   */\n      calldatacopy\n        /* \"#utility.yul\":3303:3304   */\n      0x00\n        /* \"#utility.yul\":3294:3300   */\n      dup4\n        /* \"#utility.yul\":3289:3292   */\n      dup4\n        /* \"#utility.yul\":3285:3301   */\n      add\n        /* \"#utility.yul\":3278:3305   */\n      mstore\n        /* \"#utility.yul\":3164:3312   */\n      pop\n      pop\n      pop\n      jump\t// out\n        /* \"#utility.yul\":3318:3743   */\n    tag_49:\n        /* \"#utility.yul\":3396:3401   */\n      0x00\n        /* \"#utility.yul\":3421:3487   */\n      tag_105\n        /* \"#utility.yul\":3437:3486   */\n      tag_106\n        /* \"#utility.yul\":3479:3485   */\n      dup5\n        /* \"#utility.yul\":3437:3486   */\n      tag_47\n      jump\t// in\n    tag_106:\n        /* \"#utility.yul\":3421:3487   */\n      tag_46\n      jump\t// in\n    tag_105:\n        /* \"#utility.yul\":3412:3487   */\n      swap1\n      pop\n        /* \"#utility.yul\":3510:3516   */\n      dup3\n        /* \"#utility.yul\":3503:3508   */\n      dup2\n        /* \"#utility.yul\":3496:3517   */\n      mstore\n        /* \"#utility.yul\":3548:3552   */\n      0x20\n        /* \"#utility.yul\":3541:3546   */\n      dup2\n        /* \"#utility.yul\":3537:3553   */\n      add\n        /* \"#utility.yul\":3586:3589   */\n      dup5\n        /* \"#utility.yul\":3577:3583   */\n      dup5\n        /* \"#utility.yul\":3572:3575   */\n      dup5\n        /* \"#utility.yul\":3568:3584   */\n      add\n        /* \"#utility.yul\":3565:3590   */\n      gt\n        /* \"#utility.yul\":3562:3674   */\n      iszero\n      tag_107\n      jumpi\n        /* \"#utility.yul\":3593:3672   */\n      tag_108\n      tag_43\n      jump\t// in\n    tag_108:\n        /* \"#utility.yul\":3562:3674   */\n    tag_107:\n        /* \"#utility.yul\":3683:3737   */\n      tag_109\n        /* \"#utility.yul\":3730:3736   */\n      dup5\n        /* \"#utility.yul\":3725:3728   */\n      dup3\n        /* \"#utility.yul\":3720:3723   */\n      dup6\n        /* \"#utility.yul\":3683:3737   */\n      tag_48\n      jump\t// in\n    tag_109:\n        /* \"#utility.yul\":3402:3743   */\n      pop\n        /* \"#utility.yul\":3318:3743   */\n      swap4\n      swap3\n      pop\n      pop\n      pop\n      jump\t// out\n        /* \"#utility.yul\":3763:4103   */\n    tag_50:\n        /* \"#utility.yul\":3819:3824   */\n      0x00\n        /* \"#utility.yul\":3868:3871   */\n      dup3\n        /* \"#utility.yul\":3861:3865   */\n      0x1f\n        /* \"#utility.yul\":3853:3859   */\n      dup4\n        /* \"#utility.yul\":3849:3866   */\n      add\n        /* \"#utility.yul\":3845:3872   */\n      slt\n        /* \"#utility.yul\":3835:3957   */\n      tag_111\n      jumpi\n        /* \"#utility.yul\":3876:3955   */\n      tag_112\n      tag_42\n      jump\t// in\n    tag_112:\n        /* \"#utility.yul\":3835:3957   */\n    tag_111:\n        /* \"#utility.yul\":3993:3999   */\n      dup2\n        /* \"#utility.yul\":3980:4000   */\n      calldataload\n        /* \"#utility.yul\":4018:4097   */\n      tag_113\n        /* \"#utility.yul\":4093:4096   */\n      dup5\n        /* \"#utility.yul\":4085:4091   */\n      dup3\n        /* \"#utility.yul\":4078:4082   */\n      0x20\n        /* \"#utility.yul\":4070:4076   */\n      dup7\n        /* \"#utility.yul\":4066:4083   */\n      add\n        /* \"#utility.yul\":4018:4097   */\n      tag_49\n      jump\t// in\n    tag_113:\n        /* \"#utility.yul\":4009:4097   */\n      swap2\n      pop\n        /* \"#utility.yul\":3825:4103   */\n      pop\n        /* \"#utility.yul\":3763:4103   */\n      swap3\n      swap2\n      pop\n      pop\n      jump\t// out\n        /* \"#utility.yul\":4109:4231   */\n    tag_51:\n        /* \"#utility.yul\":4182:4206   */\n      tag_115\n        /* \"#utility.yul\":4200:4205   */\n      dup2\n        /* \"#utility.yul\":4182:4206   */\n      tag_37\n      jump\t// in\n    tag_115:\n        /* \"#utility.yul\":4175:4180   */\n      dup2\n        /* \"#utility.yul\":4172:4207   */\n      eq\n        /* \"#utility.yul\":4162:4225   */\n      tag_116\n      jumpi\n        /* \"#utility.yul\":4221:4222   */\n      0x00\n        /* \"#utility.yul\":4218:4219   */\n      0x00\n        /* \"#utility.yul\":4211:4223   */\n      revert\n        /* \"#utility.yul\":4162:4225   */\n    tag_116:\n        /* \"#utility.yul\":4109:4231   */\n      pop\n      jump\t// out\n        /* \"#utility.yul\":4237:4376   */\n    tag_52:\n        /* \"#utility.yul\":4283:4288   */\n      0x00\n        /* \"#utility.yul\":4321:4327   */\n      dup2\n        /* \"#utility.yul\":4308:4328   */\n      calldataload\n        /* \"#utility.yul\":4299:4328   */\n      swap1\n      pop\n        /* \"#utility.yul\":4337:4370   */\n      tag_118\n        /* \"#utility.yul\":4364:4369   */\n      dup2\n        /* \"#utility.yul\":4337:4370   */\n      tag_51\n      jump\t// in\n    tag_118:\n        /* \"#utility.yul\":4237:4376   */\n      swap3\n      swap2\n      pop\n      pop\n      jump\t// out\n        /* \"#utility.yul\":4382:5181   */\n    tag_15:\n        /* \"#utility.yul\":4469:4475   */\n      0x00\n        /* \"#utility.yul\":4477:4483   */\n      0x00\n        /* \"#utility.yul\":4485:4491   */\n      0x00\n        /* \"#utility.yul\":4534:4536   */\n      0x60\n        /* \"#utility.yul\":4522:4531   */\n      dup5\n        /* \"#utility.yul\":4513:4520   */\n      dup7\n        /* \"#utility.yul\":4509:4532   */\n      sub\n        /* \"#utility.yul\":4505:4537   */\n      slt\n        /* \"#utility.yul\":4502:4621   */\n      iszero\n      tag_120\n      jumpi\n        /* \"#utility.yul\":4540:4619   */\n      tag_121\n      tag_40\n      jump\t// in\n    tag_121:\n        /* \"#utility.yul\":4502:4621   */\n    tag_120:\n        /* \"#utility.yul\":4688:4689   */\n      0x00\n        /* \"#utility.yul\":4677:4686   */\n      dup5\n        /* \"#utility.yul\":4673:4690   */\n      add\n        /* \"#utility.yul\":4660:4691   */\n      calldataload\n        /* \"#utility.yul\":4718:4736   */\n      0xffffffffffffffff\n        /* \"#utility.yul\":4710:4716   */\n      dup2\n        /* \"#utility.yul\":4707:4737   */\n      gt\n        /* \"#utility.yul\":4704:4821   */\n      iszero\n      tag_122\n      jumpi\n        /* \"#utility.yul\":4740:4819   */\n      tag_123\n      tag_41\n      jump\t// in\n    tag_123:\n        /* \"#utility.yul\":4704:4821   */\n    tag_122:\n        /* \"#utility.yul\":4845:4908   */\n      tag_124\n        /* \"#utility.yul\":4900:4907   */\n      dup7\n        /* \"#utility.yul\":4891:4897   */\n      dup3\n        /* \"#utility.yul\":4880:4889   */\n      dup8\n        /* \"#utility.yul\":4876:4898   */\n      add\n        /* \"#utility.yul\":4845:4908   */\n      tag_50\n      jump\t// in\n    tag_124:\n        /* \"#utility.yul\":4835:4908   */\n      swap4\n      pop\n        /* \"#utility.yul\":4631:4918   */\n      pop\n        /* \"#utility.yul\":4957:4959   */\n      0x20\n        /* \"#utility.yul\":4983:5036   */\n      tag_125\n        /* \"#utility.yul\":5028:5035   */\n      dup7\n        /* \"#utility.yul\":5019:5025   */\n      dup3\n        /* \"#utility.yul\":5008:5017   */\n      dup8\n        /* \"#utility.yul\":5004:5026   */\n      add\n        /* \"#utility.yul\":4983:5036   */\n      tag_52\n      jump\t// in\n    tag_125:\n        /* \"#utility.yul\":4973:5036   */\n      swap3\n      pop\n        /* \"#utility.yul\":4928:5046   */\n      pop\n        /* \"#utility.yul\":5085:5087   */\n      0x40\n        /* \"#utility.yul\":5111:5164   */\n      tag_126\n        /* \"#utility.yul\":5156:5163   */\n      dup7\n        /* \"#utility.yul\":5147:5153   */\n      dup3\n        /* \"#utility.yul\":5136:5145   */\n      dup8\n        /* \"#utility.yul\":5132:5154   */\n      add\n        /* \"#utility.yul\":5111:5164   */\n      tag_52\n      jump\t// in\n    tag_126:\n        /* \"#utility.yul\":5101:5164   */\n      swap2\n      pop\n        /* \"#utility.yul\":5056:5174   */\n      pop\n        /* \"#utility.yul\":4382:5181   */\n      swap3\n      pop\n      swap3\n      pop\n      swap3\n      jump\t// out\n        /* \"#utility.yul\":5187:5367   */\n    tag_53:\n        /* \"#utility.yul\":5235:5312   */\n      0x4e487b7100000000000000000000000000000000000000000000000000000000\n        /* \"#utility.yul\":5232:5233   */\n      0x00\n        /* \"#utility.yul\":5225:5313   */\n      mstore\n        /* \"#utility.yul\":5332:5336   */\n      0x22\n        /* \"#utility.yul\":5329:5330   */\n      0x04\n        /* \"#utility.yul\":5322:5337   */\n      mstore\n        /* \"#utility.yul\":5356:5360   */\n      0x24\n        /* \"#utility.yul\":5353:5354   */\n      0x00\n        /* \"#utility.yul\":5346:5361   */\n      revert\n        /* \"#utility.yul\":5373:5693   */\n    tag_19:\n        /* \"#utility.yul\":5417:5423   */\n      0x00\n        /* \"#utility.yul\":5454:5455   */\n      0x02\n        /* \"#utility.yul\":5448:5452   */\n      dup3\n        /* \"#utility.yul\":5444:5456   */\n      div\n        /* \"#utility.yul\":5434:5456   */\n      swap1\n      pop\n        /* \"#utility.yul\":5501:5502   */\n      0x01\n        /* \"#utility.yul\":5495:5499   */\n      dup3\n        /* \"#utility.yul\":5491:5503   */\n      and\n        /* \"#utility.yul\":5522:5540   */\n      dup1\n        /* \"#utility.yul\":5512:5593   */\n      tag_129\n      jumpi\n        /* \"#utility.yul\":5578:5582   */\n      0x7f\n        /* \"#utility.yul\":5570:5576   */\n      dup3\n        /* \"#utility.yul\":5566:5583   */\n      and\n        /* \"#utility.yul\":5556:5583   */\n      swap2\n      pop\n        /* \"#utility.yul\":5512:5593   */\n    tag_129:\n        /* \"#utility.yul\":5640:5642   */\n      0x20\n        /* \"#utility.yul\":5632:5638   */\n      dup3\n        /* \"#utility.yul\":5629:5643   */\n      lt\n        /* \"#utility.yul\":5609:5627   */\n      dup2\n        /* \"#utility.yul\":5606:5644   */\n      sub\n        /* \"#utility.yul\":5603:5687   */\n      tag_130\n      jumpi\n        /* \"#utility.yul\":5659:5677   */\n      tag_131\n      tag_53\n      jump\t// in\n    tag_131:\n        /* \"#utility.yul\":5603:5687   */\n    tag_130:\n        /* \"#utility.yul\":5424:5693   */\n      pop\n        /* \"#utility.yul\":5373:5693   */\n      swap2\n      swap1\n      pop\n      jump\t// out\n        /* \"#utility.yul\":5699:5840   */\n    tag_54:\n        /* \"#utility.yul\":5748:5752   */\n      0x00\n        /* \"#utility.yul\":5771:5774   */\n      dup2\n        /* \"#utility.yul\":5763:5774   */\n      swap1\n      pop\n        /* \"#utility.yul\":5794:5797   */\n      dup2\n        /* \"#utility.yul\":5791:5792   */\n      0x00\n        /* \"#utility.yul\":5784:5798   */\n      mstore\n        /* \"#utility.yul\":5828:5832   */\n      0x20\n        /* \"#utility.yul\":5825:5826   */\n      0x00\n        /* \"#utility.yul\":5815:5833   */\n      keccak256\n        /* \"#utility.yul\":5807:5833   */\n      swap1\n      pop\n        /* \"#utility.yul\":5699:5840   */\n      swap2\n      swap1\n      pop\n      jump\t// out\n        /* \"#utility.yul\":5846:5939   */\n    tag_55:\n        /* \"#utility.yul\":5883:5889   */\n      0x00\n        /* \"#utility.yul\":5930:5932   */\n      0x20\n        /* \"#utility.yul\":5925:5927   */\n      0x1f\n        /* \"#utility.yul\":5918:5923   */\n      dup4\n        /* \"#utility.yul\":5914:5928   */\n      add\n        /* \"#utility.yul\":5910:5933   */\n      div\n        /* \"#utility.yul\":5900:5933   */\n      swap1\n      pop\n        /* \"#utility.yul\":5846:5939   */\n      swap2\n      swap1\n      pop\n      jump\t// out\n        /* \"#utility.yul\":5945:6052   */\n    tag_56:\n        /* \"#utility.yul\":5989:5997   */\n      0x00\n        /* \"#utility.yul\":6039:6044   */\n      dup3\n        /* \"#utility.yul\":6033:6037   */\n      dup3\n        /* \"#utility.yul\":6029:6045   */\n      shl\n        /* \"#utility.yul\":6008:6045   */\n      swap1\n      pop\n        /* \"#utility.yul\":5945:6052   */\n      swap3\n      swap2\n      pop\n      pop\n      jump\t// out\n        /* \"#utility.yul\":6058:6451   */\n    tag_57:\n        /* \"#utility.yul\":6127:6133   */\n      0x00\n        /* \"#utility.yul\":6177:6178   */\n      0x08\n        /* \"#utility.yul\":6165:6175   */\n      dup4\n        /* \"#utility.yul\":6161:6179   */\n      mul\n        /* \"#utility.yul\":6200:6297   */\n      tag_136\n        /* \"#utility.yul\":6230:6296   */\n      0xffffffffffffffffffffffffffffffffffffffffffffffffffffffffffffffff\n        /* \"#utility.yul\":6219:6228   */\n      dup3\n        /* \"#utility.yul\":6200:6297   */\n      tag_56\n      jump\t// in\n    tag_136:\n        /* \"#utility.yul\":6318:6357   */\n      tag_137\n        /* \"#utility.yul\":6348:6356   */\n      dup7\n        /* \"#utility.yul\":6337:6346   */\n      dup4\n        /* \"#utility.yul\":6318:6357   */\n      tag_56\n      jump\t// in\n    tag_137:\n        /* \"#utility.yul\":6306:6357   */\n      swap6\n      pop\n        /* \"#utility.yul\":6390:6394   */\n      dup1\n        /* \"#utility.yul\":6386:6395   */\n      not\n        /* \"#utility.yul\":6379:6384   */\n      dup5\n        /* \"#utility.yul\":6375:6396   */\n      and\n        /* \"#utility.yul\":6366:6396   */\n      swap4\n      pop\n        /* \"#utility.yul\":6439:6443   */\n      dup1\n        /* \"#utility.yul\":6429:6437   */\n      dup7\n        /* \"#utility.yul\":6425:6444   */\n      and\n        /* \"#utility.yul\":6418:6423   */\n      dup5\n        /* \"#utility.yul\":6415:6445   */\n      or\n        /* \"#utility.yul\":6405:6445   */\n      swap3\n      pop\n        /* \"#utility.yul\":6134:6451   */\n      pop\n      pop\n        /* \"#utility.yul\":6058:6451   */\n      swap4\n      swap3\n      pop\n      pop\n      pop\n      jump\t// out\n        /* \"#utility.yul\":6457:6517   */\n    tag_58:\n        /* \"#utility.yul\":6485:6488   */\n      0x00\n        /* \"#utility.yul\":6506:6511   */\n      dup2\n        /* \"#utility.yul\":6499:6511   */\n      swap1\n      pop\n        /* \"#utility.yul\":6457:6517   */\n      swap2\n      swap1\n      pop\n      jump\t// out\n        /* \"#utility.yul\":6523:6665   */\n    tag_59:\n        /* \"#utility.yul\":6573:6582   */\n      0x00\n        /* \"#utility.yul\":6606:6659   */\n      tag_140\n        /* \"#utility.yul\":6624:6658   */\n      tag_141\n        /* \"#utility.yul\":6633:6657   */\n      tag_142\n        /* \"#utility.yul\":6651:6656   */\n      dup5\n        /* \"#utility.yul\":6633:6657   */\n      tag_37\n      jump\t// in\n    tag_142:\n        /* \"#utility.yul\":6624:6658   */\n      tag_58\n      jump\t// in\n    tag_141:\n        /* \"#utility.yul\":6606:6659   */\n      tag_37\n      jump\t// in\n    tag_140:\n        /* \"#utility.yul\":6593:6659   */\n      swap1\n      pop\n        /* \"#utility.yul\":6523:6665   */\n      swap2\n      swap1\n      pop\n      jump\t// out\n        /* \"#utility.yul\":6671:6746   */\n    tag_60:\n        /* \"#utility.yul\":6714:6717   */\n      0x00\n        /* \"#utility.yul\":6735:6740   */\n      dup2\n        /* \"#utility.yul\":6728:6740   */\n      swap1\n      pop\n        /* \"#utility.yul\":6671:6746   */\n      swap2\n      swap1\n      pop\n      jump\t// out\n        /* \"#utility.yul\":6752:7021   */\n    tag_61:\n        /* \"#utility.yul\":6862:6901   */\n      tag_145\n        /* \"#utility.yul\":6893:6900   */\n      dup4\n        /* \"#utility.yul\":6862:6901   */\n      tag_59\n      jump\t// in\n    tag_145:\n        /* \"#utility.yul\":6923:7014   */\n      tag_146\n        /* \"#utility.yul\":6972:7013   */\n      tag_147\n        /* \"#utility.yul\":6996:7012   */\n      dup3\n        /* \"#utility.yul\":6972:7013   */\n      tag_60\n      jump\t// in\n    tag_147:\n        /* \"#utility.yul\":6964:6970   */\n      dup5\n        /* \"#utility.yul\":6957:6961   */\n      dup5\n        /* \"#utility.yul\":6951:6962   */\n      sload\n        /* \"#utility.yul\":6923:7014   */\n      tag_57\n      jump\t// in\n    tag_146:\n        /* \"#utility.yul\":6917:6921   */\n      dup3\n        /* \"#utility.yul\":6910:7015   */\n      sstore\n        /* \"#utility.yul\":6828:7021   */\n      pop\n        /* \"#utility.yul\":6752:7021   */\n      pop\n      pop\n      pop\n      jump\t// out\n        /* \"#utility.yul\":7027:7100   */\n    tag_62:\n        /* \"#utility.yul\":7072:7075   */\n      0x00\n        /* \"#utility.yul\":7093:7094   */\n      0x00\n        /* \"#utility.yul\":7086:7094   */\n      swap1\n      pop\n        /* \"#utility.yul\":7027:7100   */\n      swap1\n      jump\t// out\n        /* \"#utility.yul\":7106:7295   */\n    tag_63:\n        /* \"#utility.yul\":7183:7215   */\n      tag_150\n      tag_62\n      jump\t// in\n    tag_150:\n        /* \"#utility.yul\":7224:7289   */\n      tag_151\n        /* \"#utility.yul\":7282:7288   */\n      dup2\n        /* \"#utility.yul\":7274:7280   */\n      dup5\n        /* \"#utility.yul\":7268:7272   */\n      dup5\n        /* \"#utility.yul\":7224:7289   */\n      tag_61\n      jump\t// in\n    tag_151:\n        /* \"#utility.yul\":7159:7295   */\n      pop\n        /* \"#utility.yul\":7106:7295   */\n      pop\n      pop\n      jump\t// out\n        /* \"#utility.yul\":7301:7487   */\n    tag_64:\n        /* \"#utility.yul\":7361:7481   */\n    tag_153:\n        /* \"#utility.yul\":7378:7381   */\n      dup2\n        /* \"#utility.yul\":7371:7376   */\n      dup2\n        /* \"#utility.yul\":7368:7382   */\n      lt\n        /* \"#utility.yul\":7361:7481   */\n      iszero\n      tag_155\n      jumpi\n        /* \"#utility.yul\":7432:7471   */\n      tag_156\n        /* \"#utility.yul\":7469:7470   */\n      0x00\n        /* \"#utility.yul\":7462:7467   */\n      dup3\n        /* \"#utility.yul\":7432:7471   */\n      tag_63\n      jump\t// in\n    tag_156:\n        /* \"#utility.yul\":7405:7406   */\n      0x01\n        /* \"#utility.yul\":7398:7403   */\n      dup2\n        /* \"#utility.yul\":7394:7407   */\n      add\n        /* \"#utility.yul\":7385:7407   */\n      swap1\n      pop\n        /* \"#utility.yul\":7361:7481   */\n      jump(tag_153)\n    tag_155:\n        /* \"#utility.yul\":7301:7487   */\n      pop\n      pop\n      jump\t// out\n        /* \"#utility.yul\":7493:8036   */\n    tag_65:\n        /* \"#utility.yul\":7594:7596   */\n      0x1f\n        /* \"#utility.yul\":7589:7592   */\n      dup3\n        /* \"#utility.yul\":7586:7597   */\n      gt\n        /* \"#utility.yul\":7583:8029   */\n      iszero\n      tag_158\n      jumpi\n        /* \"#utility.yul\":7628:7666   */\n      tag_159\n        /* \"#utility.yul\":7660:7665   */\n      dup2\n        /* \"#utility.yul\":7628:7666   */\n      tag_54\n      jump\t// in\n    tag_159:\n        /* \"#utility.yul\":7712:7741   */\n      tag_160\n        /* \"#utility.yul\":7730:7740   */\n      dup5\n        /* \"#utility.yul\":7712:7741   */\n      tag_55\n      jump\t// in\n    tag_160:\n        /* \"#utility.yul\":7702:7710   */\n      dup2\n        /* \"#utility.yul\":7698:7742   */\n      add\n        /* \"#utility.yul\":7895:7897   */\n      0x20\n        /* \"#utility.yul\":7883:7893   */\n      dup6\n        /* \"#utility.yul\":7880:7898   */\n      lt\n        /* \"#utility.yul\":7877:7926   */\n      iszero\n      tag_161\n      jumpi\n        /* \"#utility.yul\":7916:7924   */\n      dup2\n        /* \"#utility.yul\":7901:7924   */\n      swap1\n      pop\n        /* \"#utility.yul\":7877:7926   */\n    tag_161:\n        /* \"#utility.yul\":7939:8019   */\n      tag_162\n        /* \"#utility.yul\":7995:8017   */\n      tag_163\n        /* \"#utility.yul\":8013:8016   */\n      dup6\n        /* \"#utility.yul\":7995:8017   */\n      tag_55\n      jump\t// in\n    tag_163:\n        /* \"#utility.yul\":7985:7993   */\n      dup4\n        /* \"#utility.yul\":7981:8018   */\n      add\n        /* \"#utility.yul\":7968:7979   */\n      dup3\n        /* \"#utility.yul\":7939:8019   */\n      tag_64\n      jump\t// in\n    tag_162:\n        /* \"#utility.yul\":7598:8029   */\n      pop\n      pop\n        /* \"#utility.yul\":7583:8029   */\n    tag_158:\n        /* \"#utility.yul\":7493:8036   */\n      pop\n      pop\n      pop\n      jump\t// out\n        /* \"#utility.yul\":8042:8159   */\n    tag_66:\n        /* \"#utility.yul\":8096:8104   */\n      0x00\n        /* \"#utility.yul\":8146:8151   */\n      dup3\n        /* \"#utility.yul\":8140:8144   */\n      dup3\n        /* \"#utility.yul\":8136:8152   */\n      shr\n        /* \"#utility.yul\":8115:8152   */\n      swap1\n      pop\n        /* \"#utility.yul\":8042:8159   */\n      swap3\n      swap2\n      pop\n      pop\n      jump\t// out\n        /* \"#utility.yul\":8165:8334   */\n    tag_67:\n        /* \"#utility.yul\":8209:8215   */\n      0x00\n        /* \"#utility.yul\":8242:8293   */\n      tag_166\n        /* \"#utility.yul\":8290:8291   */\n      0x00\n        /* \"#utility.yul\":8286:8292   */\n      not\n        /* \"#utility.yul\":8278:8283   */\n      dup5\n        /* \"#utility.yul\":8275:8276   */\n      0x08\n        /* \"#utility.yul\":8271:8284   */\n      mul\n        /* \"#utility.yul\":8242:8293   */\n      tag_66\n      jump\t// in\n    tag_166:\n        /* \"#utility.yul\":8238:8294   */\n      not\n        /* \"#utility.yul\":8323:8327   */\n      dup1\n        /* \"#utility.yul\":8317:8321   */\n      dup4\n        /* \"#utility.yul\":8313:8328   */\n      and\n        /* \"#utility.yul\":8303:8328   */\n      swap2\n      pop\n        /* \"#utility.yul\":8216:8334   */\n      pop\n        /* \"#utility.yul\":8165:8334   */\n      swap3\n      swap2\n      pop\n      pop\n      jump\t// out\n        /* \"#utility.yul\":8339:8634   */\n    tag_68:\n        /* \"#utility.yul\":8415:8419   */\n      0x00\n        /* \"#utility.yul\":8561:8590   */\n      tag_168\n        /* \"#utility.yul\":8586:8589   */\n      dup4\n        /* \"#utility.yul\":8580:8584   */\n      dup4\n        /* \"#utility.yul\":8561:8590   */\n      tag_67\n      jump\t// in\n    tag_168:\n        /* \"#utility.yul\":8553:8590   */\n      swap2\n      pop\n        /* \"#utility.yul\":8623:8626   */\n      dup3\n        /* \"#utility.yul\":8620:8621   */\n      0x02\n        /* \"#utility.yul\":8616:8627   */\n      mul\n        /* \"#utility.yul\":8610:8614   */\n      dup3\n        /* \"#utility.yul\":8607:8628   */\n      or\n        /* \"#utility.yul\":8599:8628   */\n      swap1\n      pop\n        /* \"#utility.yul\":8339:8634   */\n      swap3\n      swap2\n      pop\n      pop\n      jump\t// out\n        /* \"#utility.yul\":8639:10034   */\n    tag_31:\n        /* \"#utility.yul\":8756:8793   */\n      tag_170\n        /* \"#utility.yul\":8789:8792   */\n      dup3\n        /* \"#utility.yul\":8756:8793   */\n      tag_32\n      jump\t// in\n    tag_170:\n        /* \"#utility.yul\":8858:8876   */\n      0xffffffffffffffff\n        /* \"#utility.yul\":8850:8856   */\n      dup2\n        /* \"#utility.yul\":8847:8877   */\n      gt\n        /* \"#utility.yul\":8844:8900   */\n      iszero\n      tag_171\n      jumpi\n        /* \"#utility.yul\":8880:8898   */\n      tag_172\n      tag_44\n      jump\t// in\n    tag_172:\n        /* \"#utility.yul\":8844:8900   */\n    tag_171:\n        /* \"#utility.yul\":8924:8962   */\n      tag_173\n        /* \"#utility.yul\":8956:8960   */\n      dup3\n        /* \"#utility.yul\":8950:8961   */\n      sload\n        /* \"#utility.yul\":8924:8962   */\n      tag_19\n      jump\t// in\n    tag_173:\n        /* \"#utility.yul\":9009:9076   */\n      tag_174\n        /* \"#utility.yul\":9069:9075   */\n      dup3\n        /* \"#utility.yul\":9061:9067   */\n      dup3\n        /* \"#utility.yul\":9055:9059   */\n      dup6\n        /* \"#utility.yul\":9009:9076   */\n      tag_65\n      jump\t// in\n    tag_174:\n        /* \"#utility.yul\":9103:9104   */\n      0x00\n        /* \"#utility.yul\":9127:9131   */\n      0x20\n        /* \"#utility.yul\":9114:9131   */\n      swap1\n      pop\n        /* \"#utility.yul\":9159:9161   */\n      0x1f\n        /* \"#utility.yul\":9151:9157   */\n      dup4\n        /* \"#utility.yul\":9148:9162   */\n      gt\n        /* \"#utility.yul\":9176:9177   */\n      0x01\n        /* \"#utility.yul\":9171:9789   */\n      dup2\n      eq\n      tag_176\n      jumpi\n        /* \"#utility.yul\":9833:9834   */\n      0x00\n        /* \"#utility.yul\":9850:9856   */\n      dup5\n        /* \"#utility.yul\":9847:9924   */\n      iszero\n      tag_177\n      jumpi\n        /* \"#utility.yul\":9899:9908   */\n      dup3\n        /* \"#utility.yul\":9894:9897   */\n      dup8\n        /* \"#utility.yul\":9890:9909   */\n      add\n        /* \"#utility.yul\":9884:9910   */\n      mload\n        /* \"#utility.yul\":9875:9910   */\n      swap1\n      pop\n        /* \"#utility.yul\":9847:9924   */\n    tag_177:\n        /* \"#utility.yul\":9950:10017   */\n      tag_178\n        /* \"#utility.yul\":10010:10016   */\n      dup6\n        /* \"#utility.yul\":10003:10008   */\n      dup3\n        /* \"#utility.yul\":9950:10017   */\n      tag_68\n      jump\t// in\n    tag_178:\n        /* \"#utility.yul\":9944:9948   */\n      dup7\n        /* \"#utility.yul\":9937:10018   */\n      sstore\n        /* \"#utility.yul\":9806:10028   */\n      pop\n        /* \"#utility.yul\":9141:10028   */\n      jump(tag_175)\n        /* \"#utility.yul\":9171:9789   */\n    tag_176:\n        /* \"#utility.yul\":9223:9227   */\n      0x1f\n        /* \"#utility.yul\":9219:9228   */\n      not\n        /* \"#utility.yul\":9211:9217   */\n      dup5\n        /* \"#utility.yul\":9207:9229   */\n      and\n        /* \"#utility.yul\":9257:9294   */\n      tag_179\n        /* \"#utility.yul\":9289:9293   */\n      dup7\n        /* \"#utility.yul\":9257:9294   */\n      tag_54\n      jump\t// in\n    tag_179:\n        /* \"#utility.yul\":9316:9317   */\n      0x00\n        /* \"#utility.yul\":9330:9538   */\n    tag_180:\n        /* \"#utility.yul\":9344:9351   */\n      dup3\n        /* \"#utility.yul\":9341:9342   */\n      dup2\n        /* \"#utility.yul\":9338:9352   */\n      lt\n        /* \"#utility.yul\":9330:9538   */\n      iszero\n      tag_182\n      jumpi\n        /* \"#utility.yul\":9423:9432   */\n      dup5\n        /* \"#utility.yul\":9418:9421   */\n      dup10\n        /* \"#utility.yul\":9414:9433   */\n      add\n        /* \"#utility.yul\":9408:9434   */\n      mload\n        /* \"#utility.yul\":9400:9406   */\n      dup3\n        /* \"#utility.yul\":9393:9435   */\n      sstore\n        /* \"#utility.yul\":9474:9475   */\n      0x01\n        /* \"#utility.yul\":9466:9472   */\n      dup3\n        /* \"#utility.yul\":9462:9476   */\n      add\n        /* \"#utility.yul\":9452:9476   */\n      swap2\n      pop\n        /* \"#utility.yul\":9521:9523   */\n      0x20\n        /* \"#utility.yul\":9510:9519   */\n      dup6\n        /* \"#utility.yul\":9506:9524   */\n      add\n        /* \"#utility.yul\":9493:9524   */\n      swap5\n      pop\n        /* \"#utility.yul\":9367:9371   */\n      0x20\n        /* \"#utility.yul\":9364:9365   */\n      dup2\n        /* \"#utility.yul\":9360:9372   */\n      add\n        /* \"#utility.yul\":9355:9372   */\n      swap1\n      pop\n        /* \"#utility.yul\":9330:9538   */\n      jump(tag_180)\n    tag_182:\n        /* \"#utility.yul\":9566:9572   */\n      dup7\n        /* \"#utility.yul\":9557:9564   */\n      dup4\n        /* \"#utility.yul\":9554:9573   */\n      lt\n        /* \"#utility.yul\":9551:9730   */\n      iszero\n      tag_183\n      jumpi\n        /* \"#utility.yul\":9624:9633   */\n      dup5\n        /* \"#utility.yul\":9619:9622   */\n      dup10\n        /* \"#utility.yul\":9615:9634   */\n      add\n        /* \"#utility.yul\":9609:9635   */\n      mload\n        /* \"#utility.yul\":9667:9715   */\n      tag_184\n        /* \"#utility.yul\":9709:9713   */\n      0x1f\n        /* \"#utility.yul\":9701:9707   */\n      dup10\n        /* \"#utility.yul\":9697:9714   */\n      and\n        /* \"#utility.yul\":9686:9695   */\n      dup3\n        /* \"#utility.yul\":9667:9715   */\n      tag_67\n      jump\t// in\n    tag_184:\n        /* \"#utility.yul\":9659:9665   */\n      dup4\n        /* \"#utility.yul\":9652:9716   */\n      sstore\n        /* \"#utility.yul\":9574:9730   */\n      pop\n        /* \"#utility.yul\":9551:9730   */\n    tag_183:\n        /* \"#utility.yul\":9776:9777   */\n      0x01\n        /* \"#utility.yul\":9772:9773   */\n      0x02\n        /* \"#utility.yul\":9764:9770   */\n      dup9\n        /* \"#utility.yul\":9760:9774   */\n      mul\n        /* \"#utility.yul\":9756:9778   */\n      add\n        /* \"#utility.yul\":9750:9754   */\n      dup9\n        /* \"#utility.yul\":9743:9779   */\n      sstore\n        /* \"#utility.yul\":9178:9789   */\n      pop\n      pop\n      pop\n        /* \"#utility.yul\":9141:10028   */\n    tag_175:\n      pop\n        /* \"#utility.yul\":8731:10034   */\n      pop\n      pop\n      pop\n        /* \"#utility.yul\":8639:10034   */\n      pop\n      pop\n      jump\t// out\n\n    auxdata: 0xa26469706673582212204428eb06a6b13004af23bbdb341c82039de7349758d0f9bd633fc6b32e47dfb964736f6c634300081f0033\n}\n",
				"bytecode": {
					"linkReferences": {},
					"object": "6080604052348015600e575f5ffd5b506107c68061001c5f395ff3fe608060405234801561000f575f5ffd5b506004361061003f575f3560e01c8063294f2eee14610043578063361a80e614610063578063a0f1209c14610083575b5f5ffd5b61004b61009f565b60405161005a939291906102b5565b60405180910390f35b61006b610145565b60405161007a939291906102b5565b60405180910390f35b61009d60048036038101906100989190610458565b6101e1565b005b60605f5f5f5f015f600101545f600201548280546100bc906104f1565b80601f01602080910402602001604051908101604052809291908181526020018280546100e8906104f1565b80156101335780601f1061010a57610100808354040283529160200191610133565b820191905f5260205f20905b81548152906001019060200180831161011657829003601f168201915b50505050509250925092509250909192565b5f805f018054610154906104f1565b80601f0160208091040260200160405190810160405280929190818152602001828054610180906104f1565b80156101cb5780601f106101a2576101008083540402835291602001916101cb565b820191905f5260205f20905b8154815290600101906020018083116101ae57829003601f168201915b5050505050908060010154908060020154905083565b6040518060600160405280848152602001838152602001828152505f5f820151815f01908161021091906106c1565b506020820151816001015560408201518160020155905050505050565b5f81519050919050565b5f82825260208201905092915050565b8281835e5f83830152505050565b5f601f19601f8301169050919050565b5f61026f8261022d565b6102798185610237565b9350610289818560208601610247565b61029281610255565b840191505092915050565b5f819050919050565b6102af8161029d565b82525050565b5f6060820190508181035f8301526102cd8186610265565b90506102dc60208301856102a6565b6102e960408301846102a6565b949350505050565b5f604051905090565b5f5ffd5b5f5ffd5b5f5ffd5b5f5ffd5b7f4e487b71000000000000000000000000000000000000000000000000000000005f52604160045260245ffd5b61034082610255565b810181811067ffffffffffffffff8211171561035f5761035e61030a565b5b80604052505050565b5f6103716102f1565b905061037d8282610337565b919050565b5f67ffffffffffffffff82111561039c5761039b61030a565b5b6103a582610255565b9050602081019050919050565b828183375f83830152505050565b5f6103d26103cd84610382565b610368565b9050828152602081018484840111156103ee576103ed610306565b5b6103f98482856103b2565b509392505050565b5f82601f83011261041557610414610302565b5b81356104258482602086016103c0565b91505092915050565b6104378161029d565b8114610441575f5ffd5b50565b5f813590506104528161042e565b92915050565b5f5f5f6060848603121561046f5761046e6102fa565b5b5f84013567ffffffffffffffff81111561048c5761048b6102fe565b5b61049886828701610401565b93505060206104a986828701610444565b92505060406104ba86828701610444565b9150509250925092565b7f4e487b71000000000000000000000000000000000000000000000000000000005f52602260045260245ffd5b5f600282049050600182168061050857607f821691505b60208210810361051b5761051a6104c4565b5b50919050565b5f819050815f5260205f209050919050565b5f6020601f8301049050919050565b5f82821b905092915050565b5f6008830261057d7fffffffffffffffffffffffffffffffffffffffffffffffffffffffffffffffff82610542565b6105878683610542565b95508019841693508086168417925050509392505050565b5f819050919050565b5f6105c26105bd6105b88461029d565b61059f565b61029d565b9050919050565b5f819050919050565b6105db836105a8565b6105ef6105e7826105c9565b84845461054e565b825550505050565b5f5f905090565b6106066105f7565b6106118184846105d2565b505050565b5b81811015610634576106295f826105fe565b600181019050610617565b5050565b601f8211156106795761064a81610521565b61065384610533565b81016020851015610662578190505b61067661066e85610533565b830182610616565b50505b505050565b5f82821c905092915050565b5f6106995f198460080261067e565b1980831691505092915050565b5f6106b1838361068a565b9150826002028217905092915050565b6106ca8261022d565b67ffffffffffffffff8111156106e3576106e261030a565b5b6106ed82546104f1565b6106f8828285610638565b5f60209050601f831160018114610729575f8415610717578287015190505b61072185826106a6565b865550610788565b601f19841661073786610521565b5f5b8281101561075e57848901518255600182019150602085019450602081019050610739565b8683101561077b5784890151610777601f89168261068a565b8355505b6001600288020188555050505b50505050505056fea26469706673582212204428eb06a6b13004af23bbdb341c82039de7349758d0f9bd633fc6b32e47dfb964736f6c634300081f0033",
					"opcodes": "PUSH1 0x80 PUSH1 0x40 MSTORE CALLVALUE DUP1 ISZERO PUSH1 0xE JUMPI PUSH0 PUSH0 REVERT JUMPDEST POP PUSH2 0x7C6 DUP1 PUSH2 0x1C PUSH0 CODECOPY PUSH0 RETURN INVALID PUSH1 0x80 PUSH1 0x40 MSTORE CALLVALUE DUP1 ISZERO PUSH2 0xF JUMPI PUSH0 PUSH0 REVERT JUMPDEST POP PUSH1 0x4 CALLDATASIZE LT PUSH2 0x3F JUMPI PUSH0 CALLDATALOAD PUSH1 0xE0 SHR DUP1 PUSH4 0x294F2EEE EQ PUSH2 0x43 JUMPI DUP1 PUSH4 0x361A80E6 EQ PUSH2 0x63 JUMPI DUP1 PUSH4 0xA0F1209C EQ PUSH2 0x83 JUMPI JUMPDEST PUSH0 PUSH0 REVERT JUMPDEST PUSH2 0x4B PUSH2 0x9F JUMP JUMPDEST PUSH1 0x40 MLOAD PUSH2 0x5A SWAP4 SWAP3 SWAP2 SWAP1 PUSH2 0x2B5 JUMP JUMPDEST PUSH1 0x40 MLOAD DUP1 SWAP2 SUB SWAP1 RETURN JUMPDEST PUSH2 0x6B PUSH2 0x145 JUMP JUMPDEST PUSH1 0x40 MLOAD PUSH2 0x7A SWAP4 SWAP3 SWAP2 SWAP1 PUSH2 0x2B5 JUMP JUMPDEST PUSH1 0x40 MLOAD DUP1 SWAP2 SUB SWAP1 RETURN JUMPDEST PUSH2 0x9D PUSH1 0x4 DUP1 CALLDATASIZE SUB DUP2 ADD SWAP1 PUSH2 0x98 SWAP2 SWAP1 PUSH2 0x458 JUMP JUMPDEST PUSH2 0x1E1 JUMP JUMPDEST STOP JUMPDEST PUSH1 0x60 PUSH0 PUSH0 PUSH0 PUSH0 ADD PUSH0 PUSH1 0x1 ADD SLOAD PUSH0 PUSH1 0x2 ADD SLOAD DUP3 DUP1 SLOAD PUSH2 0xBC SWAP1 PUSH2 0x4F1 JUMP JUMPDEST DUP1 PUSH1 0x1F ADD PUSH1 0x20 DUP1 SWAP2 DIV MUL PUSH1 0x20 ADD PUSH1 0x40 MLOAD SWAP1 DUP2 ADD PUSH1 0x40 MSTORE DUP1 SWAP3 SWAP2 SWAP1 DUP2 DUP2 MSTORE PUSH1 0x20 ADD DUP3 DUP1 SLOAD PUSH2 0xE8 SWAP1 PUSH2 0x4F1 JUMP JUMPDEST DUP1 ISZERO PUSH2 0x133 JUMPI DUP1 PUSH1 0x1F LT PUSH2 0x10A JUMPI PUSH2 0x100 DUP1 DUP4 SLOAD DIV MUL DUP4 MSTORE SWAP2 PUSH1 0x20 ADD SWAP2 PUSH2 0x133 JUMP JUMPDEST DUP3 ADD SWAP2 SWAP1 PUSH0 MSTORE PUSH1 0x20 PUSH0 KECCAK256 SWAP1 JUMPDEST DUP2 SLOAD DUP2 MSTORE SWAP1 PUSH1 0x1 ADD SWAP1 PUSH1 0x20 ADD DUP1 DUP4 GT PUSH2 0x116 JUMPI DUP3 SWAP1 SUB PUSH1 0x1F AND DUP3 ADD SWAP2 JUMPDEST POP POP POP POP POP SWAP3 POP SWAP3 POP SWAP3 POP SWAP3 POP SWAP1 SWAP2 SWAP3 JUMP JUMPDEST PUSH0 DUP1 PUSH0 ADD DUP1 SLOAD PUSH2 0x154 SWAP1 PUSH2 0x4F1 JUMP JUMPDEST DUP1 PUSH1 0x1F ADD PUSH1 0x20 DUP1 SWAP2 DIV MUL PUSH1 0x20 ADD PUSH1 0x40 MLOAD SWAP1 DUP2 ADD PUSH1 0x40 MSTORE DUP1 SWAP3 SWAP2 SWAP1 DUP2 DUP2 MSTORE PUSH1 0x20 ADD DUP3 DUP1 SLOAD PUSH2 0x180 SWAP1 PUSH2 0x4F1 JUMP JUMPDEST DUP1 ISZERO PUSH2 0x1CB JUMPI DUP1 PUSH1 0x1F LT PUSH2 0x1A2 JUMPI PUSH2 0x100 DUP1 DUP4 SLOAD DIV MUL DUP4 MSTORE SWAP2 PUSH1 0x20 ADD SWAP2 PUSH2 0x1CB JUMP JUMPDEST DUP3 ADD SWAP2 SWAP1 PUSH0 MSTORE PUSH1 0x20 PUSH0 KECCAK256 SWAP1 JUMPDEST DUP2 SLOAD DUP2 MSTORE SWAP1 PUSH1 0x1 ADD SWAP1 PUSH1 0x20 ADD DUP1 DUP4 GT PUSH2 0x1AE JUMPI DUP3 SWAP1 SUB PUSH1 0x1F AND DUP3 ADD SWAP2 JUMPDEST POP POP POP POP POP SWAP1 DUP1 PUSH1 0x1 ADD SLOAD SWAP1 DUP1 PUSH1 0x2 ADD SLOAD SWAP1 POP DUP4 JUMP JUMPDEST PUSH1 0x40 MLOAD DUP1 PUSH1 0x60 ADD PUSH1 0x40 MSTORE DUP1 DUP5 DUP2 MSTORE PUSH1 0x20 ADD DUP4 DUP2 MSTORE PUSH1 0x20 ADD DUP3 DUP2 MSTORE POP PUSH0 PUSH0 DUP3 ADD MLOAD DUP2 PUSH0 ADD SWAP1 DUP2 PUSH2 0x210 SWAP2 SWAP1 PUSH2 0x6C1 JUMP JUMPDEST POP PUSH1 0x20 DUP3 ADD MLOAD DUP2 PUSH1 0x1 ADD SSTORE PUSH1 0x40 DUP3 ADD MLOAD DUP2 PUSH1 0x2 ADD SSTORE SWAP1 POP POP POP POP POP JUMP JUMPDEST PUSH0 DUP2 MLOAD SWAP1 POP SWAP2 SWAP1 POP JUMP JUMPDEST PUSH0 DUP3 DUP3 MSTORE PUSH1 0x20 DUP3 ADD SWAP1 POP SWAP3 SWAP2 POP POP JUMP JUMPDEST DUP3 DUP2 DUP4 MCOPY PUSH0 DUP4 DUP4 ADD MSTORE POP POP POP JUMP JUMPDEST PUSH0 PUSH1 0x1F NOT PUSH1 0x1F DUP4 ADD AND SWAP1 POP SWAP2 SWAP1 POP JUMP JUMPDEST PUSH0 PUSH2 0x26F DUP3 PUSH2 0x22D JUMP JUMPDEST PUSH2 0x279 DUP2 DUP6 PUSH2 0x237 JUMP JUMPDEST SWAP4 POP PUSH2 0x289 DUP2 DUP6 PUSH1 0x20 DUP7 ADD PUSH2 0x247 JUMP JUMPDEST PUSH2 0x292 DUP2 PUSH2 0x255 JUMP JUMPDEST DUP5 ADD SWAP2 POP POP SWAP3 SWAP2 POP POP JUMP JUMPDEST PUSH0 DUP2 SWAP1 POP SWAP2 SWAP1 POP JUMP JUMPDEST PUSH2 0x2AF DUP2 PUSH2 0x29D JUMP JUMPDEST DUP3 MSTORE POP POP JUMP JUMPDEST PUSH0 PUSH1 0x60 DUP3 ADD SWAP1 POP DUP2 DUP2 SUB PUSH0 DUP4 ADD MSTORE PUSH2 0x2CD DUP2 DUP7 PUSH2 0x265 JUMP JUMPDEST SWAP1 POP PUSH2 0x2DC PUSH1 0x20 DUP4 ADD DUP6 PUSH2 0x2A6 JUMP JUMPDEST PUSH2 0x2E9 PUSH1 0x40 DUP4 ADD DUP5 PUSH2 0x2A6 JUMP JUMPDEST SWAP5 SWAP4 POP POP POP POP JUMP JUMPDEST PUSH0 PUSH1 0x40 MLOAD SWAP1 POP SWAP1 JUMP JUMPDEST PUSH0 PUSH0 REVERT JUMPDEST PUSH0 PUSH0 REVERT JUMPDEST PUSH0 PUSH0 REVERT JUMPDEST PUSH0 PUSH0 REVERT JUMPDEST PUSH32 0x4E487B7100000000000000000000000000000000000000000000000000000000 PUSH0 MSTORE PUSH1 0x41 PUSH1 0x4 MSTORE PUSH1 0x24 PUSH0 REVERT JUMPDEST PUSH2 0x340 DUP3 PUSH2 0x255 JUMP JUMPDEST DUP2 ADD DUP2 DUP2 LT PUSH8 0xFFFFFFFFFFFFFFFF DUP3 GT OR ISZERO PUSH2 0x35F JUMPI PUSH2 0x35E PUSH2 0x30A JUMP JUMPDEST JUMPDEST DUP1 PUSH1 0x40 MSTORE POP POP POP JUMP JUMPDEST PUSH0 PUSH2 0x371 PUSH2 0x2F1 JUMP JUMPDEST SWAP1 POP PUSH2 0x37D DUP3 DUP3 PUSH2 0x337 JUMP JUMPDEST SWAP2 SWAP1 POP JUMP JUMPDEST PUSH0 PUSH8 0xFFFFFFFFFFFFFFFF DUP3 GT ISZERO PUSH2 0x39C JUMPI PUSH2 0x39B PUSH2 0x30A JUMP JUMPDEST JUMPDEST PUSH2 0x3A5 DUP3 PUSH2 0x255 JUMP JUMPDEST SWAP1 POP PUSH1 0x20 DUP2 ADD SWAP1 POP SWAP2 SWAP1 POP JUMP JUMPDEST DUP3 DUP2 DUP4 CALLDATACOPY PUSH0 DUP4 DUP4 ADD MSTORE POP POP POP JUMP JUMPDEST PUSH0 PUSH2 0x3D2 PUSH2 0x3CD DUP5 PUSH2 0x382 JUMP JUMPDEST PUSH2 0x368 JUMP JUMPDEST SWAP1 POP DUP3 DUP2 MSTORE PUSH1 0x20 DUP2 ADD DUP5 DUP5 DUP5 ADD GT ISZERO PUSH2 0x3EE JUMPI PUSH2 0x3ED PUSH2 0x306 JUMP JUMPDEST JUMPDEST PUSH2 0x3F9 DUP5 DUP3 DUP6 PUSH2 0x3B2 JUMP JUMPDEST POP SWAP4 SWAP3 POP POP POP JUMP JUMPDEST PUSH0 DUP3 PUSH1 0x1F DUP4 ADD SLT PUSH2 0x415 JUMPI PUSH2 0x414 PUSH2 0x302 JUMP JUMPDEST JUMPDEST DUP2 CALLDATALOAD PUSH2 0x425 DUP5 DUP3 PUSH1 0x20 DUP7 ADD PUSH2 0x3C0 JUMP JUMPDEST SWAP2 POP POP SWAP3 SWAP2 POP POP JUMP JUMPDEST PUSH2 0x437 DUP2 PUSH2 0x29D JUMP JUMPDEST DUP2 EQ PUSH2 0x441 JUMPI PUSH0 PUSH0 REVERT JUMPDEST POP JUMP JUMPDEST PUSH0 DUP2 CALLDATALOAD SWAP1 POP PUSH2 0x452 DUP2 PUSH2 0x42E JUMP JUMPDEST SWAP3 SWAP2 POP POP JUMP JUMPDEST PUSH0 PUSH0 PUSH0 PUSH1 0x60 DUP5 DUP7 SUB SLT ISZERO PUSH2 0x46F JUMPI PUSH2 0x46E PUSH2 0x2FA JUMP JUMPDEST JUMPDEST PUSH0 DUP5 ADD CALLDATALOAD PUSH8 0xFFFFFFFFFFFFFFFF DUP2 GT ISZERO PUSH2 0x48C JUMPI PUSH2 0x48B PUSH2 0x2FE JUMP JUMPDEST JUMPDEST PUSH2 0x498 DUP7 DUP3 DUP8 ADD PUSH2 0x401 JUMP JUMPDEST SWAP4 POP POP PUSH1 0x20 PUSH2 0x4A9 DUP7 DUP3 DUP8 ADD PUSH2 0x444 JUMP JUMPDEST SWAP3 POP POP PUSH1 0x40 PUSH2 0x4BA DUP7 DUP3 DUP8 ADD PUSH2 0x444 JUMP JUMPDEST SWAP2 POP POP SWAP3 POP SWAP3 POP SWAP3 JUMP JUMPDEST PUSH32 0x4E487B7100000000000000000000000000000000000000000000000000000000 PUSH0 MSTORE PUSH1 0x22 PUSH1 0x4 MSTORE PUSH1 0x24 PUSH0 REVERT JUMPDEST PUSH0 PUSH1 0x2 DUP3 DIV SWAP1 POP PUSH1 0x1 DUP3 AND DUP1 PUSH2 0x508 JUMPI PUSH1 0x7F DUP3 AND SWAP2 POP JUMPDEST PUSH1 0x20 DUP3 LT DUP2 SUB PUSH2 0x51B JUMPI PUSH2 0x51A PUSH2 0x4C4 JUMP JUMPDEST JUMPDEST POP SWAP2 SWAP1 POP JUMP JUMPDEST PUSH0 DUP2 SWAP1 POP DUP2 PUSH0 MSTORE PUSH1 0x20 PUSH0 KECCAK256 SWAP1 POP SWAP2 SWAP1 POP JUMP JUMPDEST PUSH0 PUSH1 0x20 PUSH1 0x1F DUP4 ADD DIV SWAP1 POP SWAP2 SWAP1 POP JUMP JUMPDEST PUSH0 DUP3 DUP3 SHL SWAP1 POP SWAP3 SWAP2 POP POP JUMP JUMPDEST PUSH0 PUSH1 0x8 DUP4 MUL PUSH2 0x57D PUSH32 0xFFFFFFFFFFFFFFFFFFFFFFFFFFFFFFFFFFFFFFFFFFFFFFFFFFFFFFFFFFFFFFFF DUP3 PUSH2 0x542 JUMP JUMPDEST PUSH2 0x587 DUP7 DUP4 PUSH2 0x542 JUMP JUMPDEST SWAP6 POP DUP1 NOT DUP5 AND SWAP4 POP DUP1 DUP7 AND DUP5 OR SWAP3 POP POP POP SWAP4 SWAP3 POP POP POP JUMP JUMPDEST PUSH0 DUP2 SWAP1 POP SWAP2 SWAP1 POP JUMP JUMPDEST PUSH0 PUSH2 0x5C2 PUSH2 0x5BD PUSH2 0x5B8 DUP5 PUSH2 0x29D JUMP JUMPDEST PUSH2 0x59F JUMP JUMPDEST PUSH2 0x29D JUMP JUMPDEST SWAP1 POP SWAP2 SWAP1 POP JUMP JUMPDEST PUSH0 DUP2 SWAP1 POP SWAP2 SWAP1 POP JUMP JUMPDEST PUSH2 0x5DB DUP4 PUSH2 0x5A8 JUMP JUMPDEST PUSH2 0x5EF PUSH2 0x5E7 DUP3 PUSH2 0x5C9 JUMP JUMPDEST DUP5 DUP5 SLOAD PUSH2 0x54E JUMP JUMPDEST DUP3 SSTORE POP POP POP POP JUMP JUMPDEST PUSH0 PUSH0 SWAP1 POP SWAP1 JUMP JUMPDEST PUSH2 0x606 PUSH2 0x5F7 JUMP JUMPDEST PUSH2 0x611 DUP2 DUP5 DUP5 PUSH2 0x5D2 JUMP JUMPDEST POP POP POP JUMP JUMPDEST JUMPDEST DUP2 DUP2 LT ISZERO PUSH2 0x634 JUMPI PUSH2 0x629 PUSH0 DUP3 PUSH2 0x5FE JUMP JUMPDEST PUSH1 0x1 DUP2 ADD SWAP1 POP PUSH2 0x617 JUMP JUMPDEST POP POP JUMP JUMPDEST PUSH1 0x1F DUP3 GT ISZERO PUSH2 0x679 JUMPI PUSH2 0x64A DUP2 PUSH2 0x521 JUMP JUMPDEST PUSH2 0x653 DUP5 PUSH2 0x533 JUMP JUMPDEST DUP2 ADD PUSH1 0x20 DUP6 LT ISZERO PUSH2 0x662 JUMPI DUP2 SWAP1 POP JUMPDEST PUSH2 0x676 PUSH2 0x66E DUP6 PUSH2 0x533 JUMP JUMPDEST DUP4 ADD DUP3 PUSH2 0x616 JUMP JUMPDEST POP POP JUMPDEST POP POP POP JUMP JUMPDEST PUSH0 DUP3 DUP3 SHR SWAP1 POP SWAP3 SWAP2 POP POP JUMP JUMPDEST PUSH0 PUSH2 0x699 PUSH0 NOT DUP5 PUSH1 0x8 MUL PUSH2 0x67E JUMP JUMPDEST NOT DUP1 DUP4 AND SWAP2 POP POP SWAP3 SWAP2 POP POP JUMP JUMPDEST PUSH0 PUSH2 0x6B1 DUP4 DUP4 PUSH2 0x68A JUMP JUMPDEST SWAP2 POP DUP3 PUSH1 0x2 MUL DUP3 OR SWAP1 POP SWAP3 SWAP2 POP POP JUMP JUMPDEST PUSH2 0x6CA DUP3 PUSH2 0x22D JUMP JUMPDEST PUSH8 0xFFFFFFFFFFFFFFFF DUP2 GT ISZERO PUSH2 0x6E3 JUMPI PUSH2 0x6E2 PUSH2 0x30A JUMP JUMPDEST JUMPDEST PUSH2 0x6ED DUP3 SLOAD PUSH2 0x4F1 JUMP JUMPDEST PUSH2 0x6F8 DUP3 DUP3 DUP6 PUSH2 0x638 JUMP JUMPDEST PUSH0 PUSH1 0x20 SWAP1 POP PUSH1 0x1F DUP4 GT PUSH1 0x1 DUP2 EQ PUSH2 0x729 JUMPI PUSH0 DUP5 ISZERO PUSH2 0x717 JUMPI DUP3 DUP8 ADD MLOAD SWAP1 POP JUMPDEST PUSH2 0x721 DUP6 DUP3 PUSH2 0x6A6 JUMP JUMPDEST DUP7 SSTORE POP PUSH2 0x788 JUMP JUMPDEST PUSH1 0x1F NOT DUP5 AND PUSH2 0x737 DUP7 PUSH2 0x521 JUMP JUMPDEST PUSH0 JUMPDEST DUP3 DUP2 LT ISZERO PUSH2 0x75E JUMPI DUP5 DUP10 ADD MLOAD DUP3 SSTORE PUSH1 0x1 DUP3 ADD SWAP2 POP PUSH1 0x20 DUP6 ADD SWAP5 POP PUSH1 0x20 DUP2 ADD SWAP1 POP PUSH2 0x739 JUMP JUMPDEST DUP7 DUP4 LT ISZERO PUSH2 0x77B JUMPI DUP5 DUP10 ADD MLOAD PUSH2 0x777 PUSH1 0x1F DUP10 AND DUP3 PUSH2 0x68A JUMP JUMPDEST DUP4 SSTORE POP JUMPDEST PUSH1 0x1 PUSH1 0x2 DUP9 MUL ADD DUP9 SSTORE POP POP POP JUMPDEST POP POP POP POP POP POP JUMP INVALID LOG2 PUSH5 0x6970667358 0x22 SLT KECCAK256 PREVRANDAO 0x28 0xEB MOD 0xA6 0xB1 ADDRESS DIV 0xAF 0x23 0xBB 0xDB CALLVALUE SHR DUP3 SUB SWAP14 SWAPN 0x34 SWAP8 PC 0xD0 EXTDELEGATECALL 0xBD PUSH4 0x3FC6B32E SELFBALANCE 0xDF 0xB9 PUSH5 0x736F6C6343 STOP ADDMOD 0x1F STOP CALLER "
				},
				"gasEstimates": {
					"creation": {
						"codeDepositCost": "398000",
						"executionCost": "434",
						"totalCost": "398434"
					},
					"external": {
						"getStudentDetail()": "infinite",
						"setStudentDetail(string,uint256,uint256)": "infinite",
						"student1()": "infinite"
					}
				},
				"methodIdentifiers": {
					"getStudentDetail()": "294f2eee",
					"setStudentDetail(string,uint256,uint256)": "a0f1209c",
					"student1()": "361a80e6"
				}
			},
			"storageLayout": {
				"storage": [
					{
						"astId": 11,
						"contract": "class_7 (18.3.26)/struct.sol:StudentDetails",
						"label": "student1",
						"offset": 0,
						"slot": "0",
						"type": "t_struct(Student)8_storage"
					}
				],
				"types": {
					"t_string_storage": {
						"encoding": "bytes",
						"label": "string",
						"numberOfBytes": "32"
					},
					"t_struct(Student)8_storage": {
						"encoding": "inplace",
						"label": "struct StudentDetails.Student",
						"members": [
							{
								"astId": 3,
								"contract": "class_7 (18.3.26)/struct.sol:StudentDetails",
								"label": "name",
								"offset": 0,
								"slot": "0",
								"type": "t_string_storage"
							},
							{
								"astId": 5,
								"contract": "class_7 (18.3.26)/struct.sol:StudentDetails",
								"label": "id",
								"offset": 0,
								"slot": "1",
								"type": "t_uint256"
							},
							{
								"astId": 7,
								"contract": "class_7 (18.3.26)/struct.sol:StudentDetails",
								"label": "age",
								"offset": 0,
								"slot": "2",
								"type": "t_uint256"
							}
						],
						"numberOfBytes": "96"
					},
					"t_uint256": {
						"encoding": "inplace",
						"label": "uint256",
						"numberOfBytes": "32"
					}
				}
			},
			"userdoc": {
				"kind": "user",
				"methods": {},
				"version": 1
			}
		}
	}
}