{
	"Class_5_6 (13 & 16.3.26)/mappingEg.sol": {
		"money": {
			"abi": [
				{
					"inputs": [],
					"name": "getMoney",
					"outputs": [],
					"stateMutability": "payable",
					"type": "function"
				},
				{
					"inputs": [],
					"name": "transferMoney",
					"outputs": [],
					"stateMutability": "nonpayable",
					"type": "function"
				}
			],
			"devdoc": {
				"kind": "dev",
				"methods": {},
				"version": 1
			},
			"evm": {
				"assembly": "    /* \"Class_5_6 (13 & 16.3.26)/mappingEg.sol\":1779:2108  contract money{... */\n  mstore(0x40, 0x80)\n    /* \"Class_5_6 (13 & 16.3.26)/mappingEg.sol\":1822:1864  0xAb8483F64d9C6d1EcF9b849Ae677dD3315835cb2 */\n  0xab8483f64d9c6d1ecf9b849ae677dd3315835cb2\n    /* \"Class_5_6 (13 & 16.3.26)/mappingEg.sol\":1800:1865  address MT = payable (0xAb8483F64d9C6d1EcF9b849Ae677dD3315835cb2) */\n  0x00\n  exp(0x0100, 0x00)\n  dup2\n  sload\n  dup2\n  0xffffffffffffffffffffffffffffffffffffffff\n  mul\n  not\n  and\n  swap1\n  dup4\n  0xffffffffffffffffffffffffffffffffffffffff\n  and\n  mul\n  or\n  swap1\n  sstore\n  pop\n    /* \"Class_5_6 (13 & 16.3.26)/mappingEg.sol\":1779:2108  contract money{... */\n  callvalue\n  dup1\n  iszero\n  tag_1\n  jumpi\n  revert(0x00, 0x00)\ntag_1:\n  pop\n  dataSize(sub_0)\n  dup1\n  dataOffset(sub_0)\n  0x00\n  codecopy\n  0x00\n  return\nstop\n\nsub_0: assembly {\n        /* \"Class_5_6 (13 & 16.3.26)/mappingEg.sol\":1779:2108  contract money{... */\n      mstore(0x40, 0x80)\n      jumpi(tag_1, lt(calldatasize, 0x04))\n      shr(0xe0, calldataload(0x00))\n      dup1\n      0x6cee6d77\n      eq\n      tag_2\n      jumpi\n      dup1\n      0x98e1b410\n      eq\n      tag_3\n      jumpi\n    tag_1:\n      revert(0x00, 0x00)\n        /* \"Class_5_6 (13 & 16.3.26)/mappingEg.sol\":1917:2105  function transferMoney() public{... */\n    tag_2:\n      callvalue\n      dup1\n      iszero\n      tag_4\n      jumpi\n      revert(0x00, 0x00)\n    tag_4:\n      pop\n      tag_5\n      tag_6\n      jump\t// in\n    tag_5:\n      stop\n        /* \"Class_5_6 (13 & 16.3.26)/mappingEg.sol\":1872:1909  function getMoney() public payable {} */\n    tag_3:\n      tag_7\n      tag_8\n      jump\t// in\n    tag_7:\n      stop\n        /* \"Class_5_6 (13 & 16.3.26)/mappingEg.sol\":1917:2105  function transferMoney() public{... */\n    tag_6:\n        /* \"Class_5_6 (13 & 16.3.26)/mappingEg.sol\":1959:1970  uint amount */\n      0x00\n        /* \"Class_5_6 (13 & 16.3.26)/mappingEg.sol\":1973:1994  address(this).balance */\n      selfbalance\n        /* \"Class_5_6 (13 & 16.3.26)/mappingEg.sol\":1959:1994  uint amount = address(this).balance */\n      swap1\n      pop\n        /* \"Class_5_6 (13 & 16.3.26)/mappingEg.sol\":2005:2017  bool success */\n      0x00\n        /* \"Class_5_6 (13 & 16.3.26)/mappingEg.sol\":2023:2025  MT */\n      0x00\n      0x00\n      swap1\n      sload\n      swap1\n      0x0100\n      exp\n      swap1\n      div\n      0xffffffffffffffffffffffffffffffffffffffff\n      and\n        /* \"Class_5_6 (13 & 16.3.26)/mappingEg.sol\":2023:2030  MT.call */\n      0xffffffffffffffffffffffffffffffffffffffff\n      and\n        /* \"Class_5_6 (13 & 16.3.26)/mappingEg.sol\":2038:2044  amount */\n      dup3\n        /* \"Class_5_6 (13 & 16.3.26)/mappingEg.sol\":2023:2049  MT.call{value: amount}(\"\") */\n      mload(0x40)\n      tag_10\n      swap1\n      tag_11\n      jump\t// in\n    tag_10:\n      0x00\n      mload(0x40)\n      dup1\n      dup4\n      sub\n      dup2\n      dup6\n      dup8\n      gas\n      call\n      swap3\n      pop\n      pop\n      pop\n      returndatasize\n      dup1\n      0x00\n      dup2\n      eq\n      tag_14\n      jumpi\n      mload(0x40)\n      swap2\n      pop\n      and(add(returndatasize, 0x3f), not(0x1f))\n      dup3\n      add\n      0x40\n      mstore\n      returndatasize\n      dup3\n      mstore\n      returndatasize\n      0x00\n      0x20\n      dup5\n      add\n      returndatacopy\n      jump(tag_13)\n    tag_14:\n      0x60\n      swap2\n      pop\n    tag_13:\n      pop\n        /* \"Class_5_6 (13 & 16.3.26)/mappingEg.sol\":2004:2049  (bool success, ) = MT.call{value: amount}(\"\") */\n      pop\n      swap1\n      pop\n        /* \"Class_5_6 (13 & 16.3.26)/mappingEg.sol\":2070:2077  success */\n      dup1\n        /* \"Class_5_6 (13 & 16.3.26)/mappingEg.sol\":2062:2097  require(success, \"Transfer failed\") */\n      tag_15\n      jumpi\n      mload(0x40)\n      0x08c379a000000000000000000000000000000000000000000000000000000000\n      dup2\n      mstore\n      0x04\n      add\n      tag_16\n      swap1\n      tag_17\n      jump\t// in\n    tag_16:\n      mload(0x40)\n      dup1\n      swap2\n      sub\n      swap1\n      revert\n    tag_15:\n        /* \"Class_5_6 (13 & 16.3.26)/mappingEg.sol\":1948:2105  {... */\n      pop\n      pop\n        /* \"Class_5_6 (13 & 16.3.26)/mappingEg.sol\":1917:2105  function transferMoney() public{... */\n      jump\t// out\n        /* \"Class_5_6 (13 & 16.3.26)/mappingEg.sol\":1872:1909  function getMoney() public payable {} */\n    tag_8:\n      jump\t// out\n        /* \"#utility.yul\":7:154   */\n    tag_19:\n        /* \"#utility.yul\":108:119   */\n      0x00\n        /* \"#utility.yul\":145:148   */\n      dup2\n        /* \"#utility.yul\":130:148   */\n      swap1\n      pop\n        /* \"#utility.yul\":7:154   */\n      swap3\n      swap2\n      pop\n      pop\n      jump\t// out\n        /* \"#utility.yul\":160:274   */\n    tag_20:\n      pop\n      jump\t// out\n        /* \"#utility.yul\":280:678   */\n    tag_21:\n        /* \"#utility.yul\":439:442   */\n      0x00\n        /* \"#utility.yul\":460:543   */\n      tag_29\n        /* \"#utility.yul\":541:542   */\n      0x00\n        /* \"#utility.yul\":536:539   */\n      dup4\n        /* \"#utility.yul\":460:543   */\n      tag_19\n      jump\t// in\n    tag_29:\n        /* \"#utility.yul\":453:543   */\n      swap2\n      pop\n        /* \"#utility.yul\":552:645   */\n      tag_30\n        /* \"#utility.yul\":641:644   */\n      dup3\n        /* \"#utility.yul\":552:645   */\n      tag_20\n      jump\t// in\n    tag_30:\n        /* \"#utility.yul\":670:671   */\n      0x00\n        /* \"#utility.yul\":665:668   */\n      dup3\n        /* \"#utility.yul\":661:672   */\n      add\n        /* \"#utility.yul\":654:672   */\n      swap1\n      pop\n        /* \"#utility.yul\":280:678   */\n      swap2\n      swap1\n      pop\n      jump\t// out\n        /* \"#utility.yul\":684:1063   */\n    tag_11:\n        /* \"#utility.yul\":868:871   */\n      0x00\n        /* \"#utility.yul\":890:1037   */\n      tag_32\n        /* \"#utility.yul\":1033:1036   */\n      dup3\n        /* \"#utility.yul\":890:1037   */\n      tag_21\n      jump\t// in\n    tag_32:\n        /* \"#utility.yul\":883:1037   */\n      swap2\n      pop\n        /* \"#utility.yul\":1054:1057   */\n      dup2\n        /* \"#utility.yul\":1047:1057   */\n      swap1\n      pop\n        /* \"#utility.yul\":684:1063   */\n      swap2\n      swap1\n      pop\n      jump\t// out\n        /* \"#utility.yul\":1069:1238   */\n    tag_22:\n        /* \"#utility.yul\":1153:1164   */\n      0x00\n        /* \"#utility.yul\":1187:1193   */\n      dup3\n        /* \"#utility.yul\":1182:1185   */\n      dup3\n        /* \"#utility.yul\":1175:1194   */\n      mstore\n        /* \"#utility.yul\":1227:1231   */\n      0x20\n        /* \"#utility.yul\":1222:1225   */\n      dup3\n        /* \"#utility.yul\":1218:1232   */\n      add\n        /* \"#utility.yul\":1203:1232   */\n      swap1\n      pop\n        /* \"#utility.yul\":1069:1238   */\n      swap3\n      swap2\n      pop\n      pop\n      jump\t// out\n        /* \"#utility.yul\":1244:1409   */\n    tag_23:\n        /* \"#utility.yul\":1384:1401   */\n      0x5472616e73666572206661696c65640000000000000000000000000000000000\n        /* \"#utility.yul\":1380:1381   */\n      0x00\n        /* \"#utility.yul\":1372:1378   */\n      dup3\n        /* \"#utility.yul\":1368:1382   */\n      add\n        /* \"#utility.yul\":1361:1402   */\n      mstore\n        /* \"#utility.yul\":1244:1409   */\n      pop\n      jump\t// out\n        /* \"#utility.yul\":1415:1781   */\n    tag_24:\n        /* \"#utility.yul\":1557:1560   */\n      0x00\n        /* \"#utility.yul\":1578:1645   */\n      tag_36\n        /* \"#utility.yul\":1642:1644   */\n      0x0f\n        /* \"#utility.yul\":1637:1640   */\n      dup4\n        /* \"#utility.yul\":1578:1645   */\n      tag_22\n      jump\t// in\n    tag_36:\n        /* \"#utility.yul\":1571:1645   */\n      swap2\n      pop\n        /* \"#utility.yul\":1654:1747   */\n      tag_37\n        /* \"#utility.yul\":1743:1746   */\n      dup3\n        /* \"#utility.yul\":1654:1747   */\n      tag_23\n      jump\t// in\n    tag_37:\n        /* \"#utility.yul\":1772:1774   */\n      0x20\n        /* \"#utility.yul\":1767:1770   */\n      dup3\n        /* \"#utility.yul\":1763:1775   */\n      add\n        /* \"#utility.yul\":1756:1775   */\n      swap1\n      pop\n        /* \"#utility.yul\":1415:1781   */\n      swap2\n      swap1\n      pop\n      jump\t// out\n        /* \"#utility.yul\":1787:2206   */\n    tag_17:\n        /* \"#utility.yul\":1953:1957   */\n      0x00\n        /* \"#utility.yul\":1991:1993   */\n      0x20\n        /* \"#utility.yul\":1980:1989   */\n      dup3\n        /* \"#utility.yul\":1976:1994   */\n      add\n        /* \"#utility.yul\":1968:1994   */\n      swap1\n      pop\n        /* \"#utility.yul\":2040:2049   */\n      dup2\n        /* \"#utility.yul\":2034:2038   */\n      dup2\n        /* \"#utility.yul\":2030:2050   */\n      sub\n        /* \"#utility.yul\":2026:2027   */\n      0x00\n        /* \"#utility.yul\":2015:2024   */\n      dup4\n        /* \"#utility.yul\":2011:2028   */\n      add\n        /* \"#utility.yul\":2004:2051   */\n      mstore\n        /* \"#utility.yul\":2068:2199   */\n      tag_39\n        /* \"#utility.yul\":2194:2198   */\n      dup2\n        /* \"#utility.yul\":2068:2199   */\n      tag_24\n      jump\t// in\n    tag_39:\n        /* \"#utility.yul\":2060:2199   */\n      swap1\n      pop\n        /* \"#utility.yul\":1787:2206   */\n      swap2\n      swap1\n      pop\n      jump\t// out\n\n    auxdata: 0xa2646970667358221220e494cf978da267fc7cedc7e1199e7b2cc9039209e2268b4b51f9fb9c719a5fd964736f6c634300081f0033\n}\n",
				"bytecode": {
					"linkReferences": {},
					"object": "608060405273ab8483f64d9c6d1ecf9b849ae677dd3315835cb25f5f6101000a81548173ffffffffffffffffffffffffffffffffffffffff021916908373ffffffffffffffffffffffffffffffffffffffff1602179055503480156061575f5ffd5b5061020d8061006f5f395ff3fe608060405260043610610028575f3560e01c80636cee6d771461002c57806398e1b41014610042575b5f5ffd5b348015610037575f5ffd5b5061004061004c565b005b61004a61011c565b005b5f4790505f5f5f9054906101000a900473ffffffffffffffffffffffffffffffffffffffff1673ffffffffffffffffffffffffffffffffffffffff16826040516100959061014b565b5f6040518083038185875af1925050503d805f81146100cf576040519150601f19603f3d011682016040523d82523d5f602084013e6100d4565b606091505b5050905080610118576040517f08c379a000000000000000000000000000000000000000000000000000000000815260040161010f906101b9565b60405180910390fd5b5050565b565b5f81905092915050565b50565b5f6101365f8361011e565b915061014182610128565b5f82019050919050565b5f6101558261012b565b9150819050919050565b5f82825260208201905092915050565b7f5472616e73666572206661696c656400000000000000000000000000000000005f82015250565b5f6101a3600f8361015f565b91506101ae8261016f565b602082019050919050565b5f6020820190508181035f8301526101d081610197565b905091905056fea2646970667358221220e494cf978da267fc7cedc7e1199e7b2cc9039209e2268b4b51f9fb9c719a5fd964736f6c634300081f0033",
					"opcodes": "PUSH1 0x80 PUSH1 0x40 MSTORE PUSH20 0xAB8483F64D9C6D1ECF9B849AE677DD3315835CB2 PUSH0 PUSH0 PUSH2 0x100 EXP DUP2 SLOAD DUP2 PUSH20 0xFFFFFFFFFFFFFFFFFFFFFFFFFFFFFFFFFFFFFFFF MUL NOT AND SWAP1 DUP4 PUSH20 0xFFFFFFFFFFFFFFFFFFFFFFFFFFFFFFFFFFFFFFFF AND MUL OR SWAP1 SSTORE POP CALLVALUE DUP1 ISZERO PUSH1 0x61 JUMPI PUSH0 PUSH0 REVERT JUMPDEST POP PUSH2 0x20D DUP1 PUSH2 0x6F PUSH0 CODECOPY PUSH0 RETURN INVALID PUSH1 0x80 PUSH1 0x40 MSTORE PUSH1 0x4 CALLDATASIZE LT PUSH2 0x28 JUMPI PUSH0 CALLDATALOAD PUSH1 0xE0 SHR DUP1 PUSH4 0x6CEE6D77 EQ PUSH2 0x2C JUMPI DUP1 PUSH4 0x98E1B410 EQ PUSH2 0x42 JUMPI JUMPDEST PUSH0 PUSH0 REVERT JUMPDEST CALLVALUE DUP1 ISZERO PUSH2 0x37 JUMPI PUSH0 PUSH0 REVERT JUMPDEST POP PUSH2 0x40 PUSH2 0x4C JUMP JUMPDEST STOP JUMPDEST PUSH2 0x4A PUSH2 0x11C JUMP JUMPDEST STOP JUMPDEST PUSH0 SELFBALANCE SWAP1 POP PUSH0 PUSH0 PUSH0 SWAP1 SLOAD SWAP1 PUSH2 0x100 EXP SWAP1 DIV PUSH20 0xFFFFFFFFFFFFFFFFFFFFFFFFFFFFFFFFFFFFFFFF AND PUSH20 0xFFFFFFFFFFFFFFFFFFFFFFFFFFFFFFFFFFFFFFFF AND DUP3 PUSH1 0x40 MLOAD PUSH2 0x95 SWAP1 PUSH2 0x14B JUMP JUMPDEST PUSH0 PUSH1 0x40 MLOAD DUP1 DUP4 SUB DUP2 DUP6 DUP8 GAS CALL SWAP3 POP POP POP RETURNDATASIZE DUP1 PUSH0 DUP2 EQ PUSH2 0xCF JUMPI PUSH1 0x40 MLOAD SWAP2 POP PUSH1 0x1F NOT PUSH1 0x3F RETURNDATASIZE ADD AND DUP3 ADD PUSH1 0x40 MSTORE RETURNDATASIZE DUP3 MSTORE RETURNDATASIZE PUSH0 PUSH1 0x20 DUP5 ADD RETURNDATACOPY PUSH2 0xD4 JUMP JUMPDEST PUSH1 0x60 SWAP2 POP JUMPDEST POP POP SWAP1 POP DUP1 PUSH2 0x118 JUMPI PUSH1 0x40 MLOAD PUSH32 0x8C379A000000000000000000000000000000000000000000000000000000000 DUP2 MSTORE PUSH1 0x4 ADD PUSH2 0x10F SWAP1 PUSH2 0x1B9 JUMP JUMPDEST PUSH1 0x40 MLOAD DUP1 SWAP2 SUB SWAP1 REVERT JUMPDEST POP POP JUMP JUMPDEST JUMP JUMPDEST PUSH0 DUP2 SWAP1 POP SWAP3 SWAP2 POP POP JUMP JUMPDEST POP JUMP JUMPDEST PUSH0 PUSH2 0x136 PUSH0 DUP4 PUSH2 0x11E JUMP JUMPDEST SWAP2 POP PUSH2 0x141 DUP3 PUSH2 0x128 JUMP JUMPDEST PUSH0 DUP3 ADD SWAP1 POP SWAP2 SWAP1 POP JUMP JUMPDEST PUSH0 PUSH2 0x155 DUP3 PUSH2 0x12B JUMP JUMPDEST SWAP2 POP DUP2 SWAP1 POP SWAP2 SWAP1 POP JUMP JUMPDEST PUSH0 DUP3 DUP3 MSTORE PUSH1 0x20 DUP3 ADD SWAP1 POP SWAP3 SWAP2 POP POP JUMP JUMPDEST PUSH32 0x5472616E73666572206661696C65640000000000000000000000000000000000 PUSH0 DUP3 ADD MSTORE POP JUMP JUMPDEST PUSH0 PUSH2 0x1A3 PUSH1 0xF DUP4 PUSH2 0x15F JUMP JUMPDEST SWAP2 POP PUSH2 0x1AE DUP3 PUSH2 0x16F JUMP JUMPDEST PUSH1 0x20 DUP3 ADD SWAP1 POP SWAP2 SWAP1 POP JUMP JUMPDEST PUSH0 PUSH1 0x20 DUP3 ADD SWAP1 POP DUP2 DUP2 SUB PUSH0 DUP4 ADD MSTORE PUSH2 0x1D0 DUP2 PUSH2 0x197 JUMP JUMPDEST SWAP1 POP SWAP2 SWAP1 POP JUMP INVALID LOG2 PUSH5 0x6970667358 0x22 SLT KECCAK256 RETF SWAP5 0xCF SWAP8 DUP14 LOG2 PUSH8 0xFC7CEDC7E1199E7B 0x2C 0xC9 SUB SWAP3 MULMOD 0xE2 0x26 DUP12 0x4B MLOAD EXTDELEGATECALL EXTSTATICCALL SWAP13 PUSH18 0x9A5FD964736F6C634300081F003300000000 "
				},
				"gasEstimates": {
					"creation": {
						"codeDepositCost": "105000",
						"executionCost": "24416",
						"totalCost": "129416"
					},
					"external": {
						"getMoney()": "119",
						"transferMoney()": "infinite"
					}
				},
				"methodIdentifiers": {
					"getMoney()": "98e1b410",
					"transferMoney()": "6cee6d77"
				}
			},
			"storageLayout": {
				"storage": [
					{
						"astId": 203,
						"contract": "Class_5_6 (13 & 16.3.26)/mappingEg.sol:money",
						"label": "MT",
						"offset": 0,
						"slot": "0",
						"type": "t_address"
					}
				],
				"types": {
					"t_address": {
						"encoding": "inplace",
						"label": "address",
						"numberOfBytes": "20"
					}
				}
			},
			"userdoc": {
				"kind": "user",
				"methods": {},
				"version": 1
			}
		}
	}
}