{
	"Class_5_6 (13 & 16.3.26)/mappingEg.sol": {
		"ContactDetails": {
			"abi": [
				{
					"inputs": [
						{
							"internalType": "uint256",
							"name": "",
							"type": "uint256"
						}
					],
					"name": "Contacts",
					"outputs": [
						{
							"internalType": "string",
							"name": "name",
							"type": "string"
						},
						{
							"internalType": "uint256",
							"name": "phNo",
							"type": "uint256"
						},
						{
							"internalType": "string",
							"name": "email",
							"type": "string"
						},
						{
							"internalType": "string",
							"name": "Address",
							"type": "string"
						}
					],
					"stateMutability": "view",
					"type": "function"
				},
				{
					"inputs": [
						{
							"internalType": "uint256",
							"name": "key",
							"type": "uint256"
						},
						{
							"internalType": "string",
							"name": "_name",
							"type": "string"
						},
						{
							"internalType": "uint256",
							"name": "_phNo",
							"type": "uint256"
						},
						{
							"internalType": "string",
							"name": "_email",
							"type": "string"
						},
						{
							"internalType": "string",
							"name": "_Address",
							"type": "string"
						}
					],
					"name": "addContact",
					"outputs": [],
					"stateMutability": "nonpayable",
					"type": "function"
				},
				{
					"inputs": [
						{
							"internalType": "uint256",
							"name": "key",
							"type": "uint256"
						}
					],
					"name": "getContact",
					"outputs": [
						{
							"internalType": "string",
							"name": "",
							"type": "string"
						},
						{
							"internalType": "uint256",
							"name": "",
							"type": "uint256"
						},
						{
							"internalType": "string",
							"name": "",
							"type": "string"
						},
						{
							"internalType": "string",
							"name": "",
							"type": "string"
						}
					],
					"stateMutability": "view",
					"type": "function"
				}
			],
			"devdoc": {
				"kind": "dev",
				"methods": {},
				"version": 1
			},
			"evm": {
				"assembly": "    /* \"Class_5_6 (13 & 16.3.26)/mappingEg.sol\":83:829  contract ContactDetails{... */\n  mstore(0x40, 0x80)\n  callvalue\n  dup1\n  iszero\n  tag_1\n  jumpi\n  revert(0x00, 0x00)\ntag_1:\n  pop\n  dataSize(sub_0)\n  dup1\n  dataOffset(sub_0)\n  0x00\n  codecopy\n  0x00\n  return\nstop\n\nsub_0: assembly {\n        /* \"Class_5_6 (13 & 16.3.26)/mappingEg.sol\":83:829  contract ContactDetails{... */\n      mstore(0x40, 0x80)\n      callvalue\n      dup1\n      iszero\n      tag_1\n      jumpi\n      revert(0x00, 0x00)\n    tag_1:\n      pop\n      jumpi(tag_2, lt(calldatasize, 0x04))\n      shr(0xe0, calldataload(0x00))\n      dup1\n      0xda2e6c87\n      eq\n      tag_3\n      jumpi\n      dup1\n      0xe6505e1e\n      eq\n      tag_4\n      jumpi\n      dup1\n      0xf3054b40\n      eq\n      tag_5\n      jumpi\n    tag_2:\n      revert(0x00, 0x00)\n        /* \"Class_5_6 (13 & 16.3.26)/mappingEg.sol\":281:322  mapping (uint => contact) public Contacts */\n    tag_3:\n      tag_6\n      0x04\n      dup1\n      calldatasize\n      sub\n      dup2\n      add\n      swap1\n      tag_7\n      swap2\n      swap1\n      tag_8\n      jump\t// in\n    tag_7:\n      tag_9\n      jump\t// in\n    tag_6:\n      mload(0x40)\n      tag_10\n      swap5\n      swap4\n      swap3\n      swap2\n      swap1\n      tag_11\n      jump\t// in\n    tag_10:\n      mload(0x40)\n      dup1\n      swap2\n      sub\n      swap1\n      return\n        /* \"Class_5_6 (13 & 16.3.26)/mappingEg.sol\":616:826  function getContact(uint key) public view returns(string memory, uint, string memory, string memory){... */\n    tag_4:\n      tag_12\n      0x04\n      dup1\n      calldatasize\n      sub\n      dup2\n      add\n      swap1\n      tag_13\n      swap2\n      swap1\n      tag_8\n      jump\t// in\n    tag_13:\n      tag_14\n      jump\t// in\n    tag_12:\n      mload(0x40)\n      tag_15\n      swap5\n      swap4\n      swap3\n      swap2\n      swap1\n      tag_11\n      jump\t// in\n    tag_15:\n      mload(0x40)\n      dup1\n      swap2\n      sub\n      swap1\n      return\n        /* \"Class_5_6 (13 & 16.3.26)/mappingEg.sol\":331:610  function addContact(uint key,string memory _name,uint _phNo,string memory _email,string memory _Address) public{... */\n    tag_5:\n      tag_16\n      0x04\n      dup1\n      calldatasize\n      sub\n      dup2\n      add\n      swap1\n      tag_17\n      swap2\n      swap1\n      tag_18\n      jump\t// in\n    tag_17:\n      tag_19\n      jump\t// in\n    tag_16:\n      stop\n        /* \"Class_5_6 (13 & 16.3.26)/mappingEg.sol\":281:322  mapping (uint => contact) public Contacts */\n    tag_9:\n      mstore(0x20, 0x00)\n      dup1\n      0x00\n      mstore\n      keccak256(0x00, 0x40)\n      0x00\n      swap2\n      pop\n      swap1\n      pop\n      dup1\n      0x00\n      add\n      dup1\n      sload\n      tag_20\n      swap1\n      tag_21\n      jump\t// in\n    tag_20:\n      dup1\n      0x1f\n      add\n      0x20\n      dup1\n      swap2\n      div\n      mul\n      0x20\n      add\n      mload(0x40)\n      swap1\n      dup2\n      add\n      0x40\n      mstore\n      dup1\n      swap3\n      swap2\n      swap1\n      dup2\n      dup2\n      mstore\n      0x20\n      add\n      dup3\n      dup1\n      sload\n      tag_22\n      swap1\n      tag_21\n      jump\t// in\n    tag_22:\n      dup1\n      iszero\n      tag_23\n      jumpi\n      dup1\n      0x1f\n      lt\n      tag_24\n      jumpi\n      0x0100\n      dup1\n      dup4\n      sload\n      div\n      mul\n      dup4\n      mstore\n      swap2\n      0x20\n      add\n      swap2\n      jump(tag_23)\n    tag_24:\n      dup3\n      add\n      swap2\n      swap1\n      0x00\n      mstore\n      keccak256(0x00, 0x20)\n      swap1\n    tag_25:\n      dup2\n      sload\n      dup2\n      mstore\n      swap1\n      0x01\n      add\n      swap1\n      0x20\n      add\n      dup1\n      dup4\n      gt\n      tag_25\n      jumpi\n      dup3\n      swap1\n      sub\n      0x1f\n      and\n      dup3\n      add\n      swap2\n    tag_23:\n      pop\n      pop\n      pop\n      pop\n      pop\n      swap1\n      dup1\n      0x01\n      add\n      sload\n      swap1\n      dup1\n      0x02\n      add\n      dup1\n      sload\n      tag_26\n      swap1\n      tag_21\n      jump\t// in\n    tag_26:\n      dup1\n      0x1f\n      add\n      0x20\n      dup1\n      swap2\n      div\n      mul\n      0x20\n      add\n      mload(0x40)\n      swap1\n      dup2\n      add\n      0x40\n      mstore\n      dup1\n      swap3\n      swap2\n      swap1\n      dup2\n      dup2\n      mstore\n      0x20\n      add\n      dup3\n      dup1\n      sload\n      tag_27\n      swap1\n      tag_21\n      jump\t// in\n    tag_27:\n      dup1\n      iszero\n      tag_28\n      jumpi\n      dup1\n      0x1f\n      lt\n      tag_29\n      jumpi\n      0x0100\n      dup1\n      dup4\n      sload\n      div\n      mul\n      dup4\n      mstore\n      swap2\n      0x20\n      add\n      swap2\n      jump(tag_28)\n    tag_29:\n      dup3\n      add\n      swap2\n      swap1\n      0x00\n      mstore\n      keccak256(0x00, 0x20)\n      swap1\n    tag_30:\n      dup2\n      sload\n      dup2\n      mstore\n      swap1\n      0x01\n      add\n      swap1\n      0x20\n      add\n      dup1\n      dup4\n      gt\n      tag_30\n      jumpi\n      dup3\n      swap1\n      sub\n      0x1f\n      and\n      dup3\n      add\n      swap2\n    tag_28:\n      pop\n      pop\n      pop\n      pop\n      pop\n      swap1\n      dup1\n      0x03\n      add\n      dup1\n      sload\n      tag_31\n      swap1\n      tag_21\n      jump\t// in\n    tag_31:\n      dup1\n      0x1f\n      add\n      0x20\n      dup1\n      swap2\n      div\n      mul\n      0x20\n      add\n      mload(0x40)\n      swap1\n      dup2\n      add\n      0x40\n      mstore\n      dup1\n      swap3\n      swap2\n      swap1\n      dup2\n      dup2\n      mstore\n      0x20\n      add\n      dup3\n      dup1\n      sload\n      tag_32\n      swap1\n      tag_21\n      jump\t// in\n    tag_32:\n      dup1\n      iszero\n      tag_33\n      jumpi\n      dup1\n      0x1f\n      lt\n      tag_34\n      jumpi\n      0x0100\n      dup1\n      dup4\n      sload\n      div\n      mul\n      dup4\n      mstore\n      swap2\n      0x20\n      add\n      swap2\n      jump(tag_33)\n    tag_34:\n      dup3\n      add\n      swap2\n      swap1\n      0x00\n      mstore\n      keccak256(0x00, 0x20)\n      swap1\n    tag_35:\n      dup2\n      sload\n      dup2\n      mstore\n      swap1\n      0x01\n      add\n      swap1\n      0x20\n      add\n      dup1\n      dup4\n      gt\n      tag_35\n      jumpi\n      dup3\n      swap1\n      sub\n      0x1f\n      and\n      dup3\n      add\n      swap2\n    tag_33:\n      pop\n      pop\n      pop\n      pop\n      pop\n      swap1\n      pop\n      dup5\n      jump\t// out\n        /* \"Class_5_6 (13 & 16.3.26)/mappingEg.sol\":616:826  function getContact(uint key) public view returns(string memory, uint, string memory, string memory){... */\n    tag_14:\n        /* \"Class_5_6 (13 & 16.3.26)/mappingEg.sol\":666:679  string memory */\n      0x60\n        /* \"Class_5_6 (13 & 16.3.26)/mappingEg.sol\":681:685  uint */\n      0x00\n        /* \"Class_5_6 (13 & 16.3.26)/mappingEg.sol\":687:700  string memory */\n      0x60\n        /* \"Class_5_6 (13 & 16.3.26)/mappingEg.sol\":702:715  string memory */\n      dup1\n        /* \"Class_5_6 (13 & 16.3.26)/mappingEg.sol\":735:743  Contacts */\n      0x00\n        /* \"Class_5_6 (13 & 16.3.26)/mappingEg.sol\":735:748  Contacts[key] */\n      0x00\n        /* \"Class_5_6 (13 & 16.3.26)/mappingEg.sol\":744:747  key */\n      dup7\n        /* \"Class_5_6 (13 & 16.3.26)/mappingEg.sol\":735:748  Contacts[key] */\n      dup2\n      mstore\n      0x20\n      add\n      swap1\n      dup2\n      mstore\n      0x20\n      add\n      0x00\n      keccak256\n        /* \"Class_5_6 (13 & 16.3.26)/mappingEg.sol\":735:753  Contacts[key].name */\n      0x00\n      add\n        /* \"Class_5_6 (13 & 16.3.26)/mappingEg.sol\":755:763  Contacts */\n      0x00\n        /* \"Class_5_6 (13 & 16.3.26)/mappingEg.sol\":755:768  Contacts[key] */\n      0x00\n        /* \"Class_5_6 (13 & 16.3.26)/mappingEg.sol\":764:767  key */\n      dup8\n        /* \"Class_5_6 (13 & 16.3.26)/mappingEg.sol\":755:768  Contacts[key] */\n      dup2\n      mstore\n      0x20\n      add\n      swap1\n      dup2\n      mstore\n      0x20\n      add\n      0x00\n      keccak256\n        /* \"Class_5_6 (13 & 16.3.26)/mappingEg.sol\":755:773  Contacts[key].phNo */\n      0x01\n      add\n      sload\n        /* \"Class_5_6 (13 & 16.3.26)/mappingEg.sol\":775:783  Contacts */\n      0x00\n        /* \"Class_5_6 (13 & 16.3.26)/mappingEg.sol\":775:788  Contacts[key] */\n      0x00\n        /* \"Class_5_6 (13 & 16.3.26)/mappingEg.sol\":784:787  key */\n      dup9\n        /* \"Class_5_6 (13 & 16.3.26)/mappingEg.sol\":775:788  Contacts[key] */\n      dup2\n      mstore\n      0x20\n      add\n      swap1\n      dup2\n      mstore\n      0x20\n      add\n      0x00\n      keccak256\n        /* \"Class_5_6 (13 & 16.3.26)/mappingEg.sol\":775:794  Contacts[key].email */\n      0x02\n      add\n        /* \"Class_5_6 (13 & 16.3.26)/mappingEg.sol\":796:804  Contacts */\n      0x00\n        /* \"Class_5_6 (13 & 16.3.26)/mappingEg.sol\":796:809  Contacts[key] */\n      0x00\n        /* \"Class_5_6 (13 & 16.3.26)/mappingEg.sol\":805:808  key */\n      dup10\n        /* \"Class_5_6 (13 & 16.3.26)/mappingEg.sol\":796:809  Contacts[key] */\n      dup2\n      mstore\n      0x20\n      add\n      swap1\n      dup2\n      mstore\n      0x20\n      add\n      0x00\n      keccak256\n        /* \"Class_5_6 (13 & 16.3.26)/mappingEg.sol\":796:817  Contacts[key].Address */\n      0x03\n      add\n        /* \"Class_5_6 (13 & 16.3.26)/mappingEg.sol\":727:818  return (Contacts[key].name, Contacts[key].phNo, Contacts[key].email, Contacts[key].Address) */\n      dup4\n      dup1\n      sload\n      tag_37\n      swap1\n      tag_21\n      jump\t// in\n    tag_37:\n      dup1\n      0x1f\n      add\n      0x20\n      dup1\n      swap2\n      div\n      mul\n      0x20\n      add\n      mload(0x40)\n      swap1\n      dup2\n      add\n      0x40\n      mstore\n      dup1\n      swap3\n      swap2\n      swap1\n      dup2\n      dup2\n      mstore\n      0x20\n      add\n      dup3\n      dup1\n      sload\n      tag_38\n      swap1\n      tag_21\n      jump\t// in\n    tag_38:\n      dup1\n      iszero\n      tag_39\n      jumpi\n      dup1\n      0x1f\n      lt\n      tag_40\n      jumpi\n      0x0100\n      dup1\n      dup4\n      sload\n      div\n      mul\n      dup4\n      mstore\n      swap2\n      0x20\n      add\n      swap2\n      jump(tag_39)\n    tag_40:\n      dup3\n      add\n      swap2\n      swap1\n      0x00\n      mstore\n      keccak256(0x00, 0x20)\n      swap1\n    tag_41:\n      dup2\n      sload\n      dup2\n      mstore\n      swap1\n      0x01\n      add\n      swap1\n      0x20\n      add\n      dup1\n      dup4\n      gt\n      tag_41\n      jumpi\n      dup3\n      swap1\n      sub\n      0x1f\n      and\n      dup3\n      add\n      swap2\n    tag_39:\n      pop\n      pop\n      pop\n      pop\n      pop\n      swap4\n      pop\n      dup2\n      dup1\n      sload\n      tag_42\n      swap1\n      tag_21\n      jump\t// in\n    tag_42:\n      dup1\n      0x1f\n      add\n      0x20\n      dup1\n      swap2\n      div\n      mul\n      0x20\n      add\n      mload(0x40)\n      swap1\n      dup2\n      add\n      0x40\n      mstore\n      dup1\n      swap3\n      swap2\n      swap1\n      dup2\n      dup2\n      mstore\n      0x20\n      add\n      dup3\n      dup1\n      sload\n      tag_43\n      swap1\n      tag_21\n      jump\t// in\n    tag_43:\n      dup1\n      iszero\n      tag_44\n      jumpi\n      dup1\n      0x1f\n      lt\n      tag_45\n      jumpi\n      0x0100\n      dup1\n      dup4\n      sload\n      div\n      mul\n      dup4\n      mstore\n      swap2\n      0x20\n      add\n      swap2\n      jump(tag_44)\n    tag_45:\n      dup3\n      add\n      swap2\n      swap1\n      0x00\n      mstore\n      keccak256(0x00, 0x20)\n      swap1\n    tag_46:\n      dup2\n      sload\n      dup2\n      mstore\n      swap1\n      0x01\n      add\n      swap1\n      0x20\n      add\n      dup1\n      dup4\n      gt\n      tag_46\n      jumpi\n      dup3\n      swap1\n      sub\n      0x1f\n      and\n      dup3\n      add\n      swap2\n    tag_44:\n      pop\n      pop\n      pop\n      pop\n      pop\n      swap2\n      pop\n      dup1\n      dup1\n      sload\n      tag_47\n      swap1\n      tag_21\n      jump\t// in\n    tag_47:\n      dup1\n      0x1f\n      add\n      0x20\n      dup1\n      swap2\n      div\n      mul\n      0x20\n      add\n      mload(0x40)\n      swap1\n      dup2\n      add\n      0x40\n      mstore\n      dup1\n      swap3\n      swap2\n      swap1\n      dup2\n      dup2\n      mstore\n      0x20\n      add\n      dup3\n      dup1\n      sload\n      tag_48\n      swap1\n      tag_21\n      jump\t// in\n    tag_48:\n      dup1\n      iszero\n      tag_49\n      jumpi\n      dup1\n      0x1f\n      lt\n      tag_50\n      jumpi\n      0x0100\n      dup1\n      dup4\n      sload\n      div\n      mul\n      dup4\n      mstore\n      swap2\n      0x20\n      add\n      swap2\n      jump(tag_49)\n    tag_50:\n      dup3\n      add\n      swap2\n      swap1\n      0x00\n      mstore\n      keccak256(0x00, 0x20)\n      swap1\n    tag_51:\n      dup2\n      sload\n      dup2\n      mstore\n      swap1\n      0x01\n      add\n      swap1\n      0x20\n      add\n      dup1\n      dup4\n      gt\n      tag_51\n      jumpi\n      dup3\n      swap1\n      sub\n      0x1f\n      and\n      dup3\n      add\n      swap2\n    tag_49:\n      pop\n      pop\n      pop\n      pop\n      pop\n      swap1\n      pop\n      swap4\n      pop\n      swap4\n      pop\n      swap4\n      pop\n      swap4\n      pop\n        /* \"Class_5_6 (13 & 16.3.26)/mappingEg.sol\":616:826  function getContact(uint key) public view returns(string memory, uint, string memory, string memory){... */\n      swap2\n      swap4\n      pop\n      swap2\n      swap4\n      jump\t// out\n        /* \"Class_5_6 (13 & 16.3.26)/mappingEg.sol\":331:610  function addContact(uint key,string memory _name,uint _phNo,string memory _email,string memory _Address) public{... */\n    tag_19:\n        /* \"Class_5_6 (13 & 16.3.26)/mappingEg.sol\":475:480  _name */\n      dup4\n        /* \"Class_5_6 (13 & 16.3.26)/mappingEg.sol\":453:461  Contacts */\n      0x00\n        /* \"Class_5_6 (13 & 16.3.26)/mappingEg.sol\":453:467  Contacts[ key] */\n      0x00\n        /* \"Class_5_6 (13 & 16.3.26)/mappingEg.sol\":463:466  key */\n      dup8\n        /* \"Class_5_6 (13 & 16.3.26)/mappingEg.sol\":453:467  Contacts[ key] */\n      dup2\n      mstore\n      0x20\n      add\n      swap1\n      dup2\n      mstore\n      0x20\n      add\n      0x00\n      keccak256\n        /* \"Class_5_6 (13 & 16.3.26)/mappingEg.sol\":453:472  Contacts[ key].name */\n      0x00\n      add\n        /* \"Class_5_6 (13 & 16.3.26)/mappingEg.sol\":453:480  Contacts[ key].name = _name */\n      swap1\n      dup2\n      tag_53\n      swap2\n      swap1\n      tag_54\n      jump\t// in\n    tag_53:\n      pop\n        /* \"Class_5_6 (13 & 16.3.26)/mappingEg.sol\":513:518  _phNo */\n      dup3\n        /* \"Class_5_6 (13 & 16.3.26)/mappingEg.sol\":491:499  Contacts */\n      0x00\n        /* \"Class_5_6 (13 & 16.3.26)/mappingEg.sol\":491:505  Contacts[ key] */\n      0x00\n        /* \"Class_5_6 (13 & 16.3.26)/mappingEg.sol\":501:504  key */\n      dup8\n        /* \"Class_5_6 (13 & 16.3.26)/mappingEg.sol\":491:505  Contacts[ key] */\n      dup2\n      mstore\n      0x20\n      add\n      swap1\n      dup2\n      mstore\n      0x20\n      add\n      0x00\n      keccak256\n        /* \"Class_5_6 (13 & 16.3.26)/mappingEg.sol\":491:510  Contacts[ key].phNo */\n      0x01\n      add\n        /* \"Class_5_6 (13 & 16.3.26)/mappingEg.sol\":491:518  Contacts[ key].phNo = _phNo */\n      dup2\n      swap1\n      sstore\n      pop\n        /* \"Class_5_6 (13 & 16.3.26)/mappingEg.sol\":552:558  _email */\n      dup2\n        /* \"Class_5_6 (13 & 16.3.26)/mappingEg.sol\":529:537  Contacts */\n      0x00\n        /* \"Class_5_6 (13 & 16.3.26)/mappingEg.sol\":529:543  Contacts[ key] */\n      0x00\n        /* \"Class_5_6 (13 & 16.3.26)/mappingEg.sol\":539:542  key */\n      dup8\n        /* \"Class_5_6 (13 & 16.3.26)/mappingEg.sol\":529:543  Contacts[ key] */\n      dup2\n      mstore\n      0x20\n      add\n      swap1\n      dup2\n      mstore\n      0x20\n      add\n      0x00\n      keccak256\n        /* \"Class_5_6 (13 & 16.3.26)/mappingEg.sol\":529:549  Contacts[ key].email */\n      0x02\n      add\n        /* \"Class_5_6 (13 & 16.3.26)/mappingEg.sol\":529:558  Contacts[ key].email = _email */\n      swap1\n      dup2\n      tag_55\n      swap2\n      swap1\n      tag_54\n      jump\t// in\n    tag_55:\n      pop\n        /* \"Class_5_6 (13 & 16.3.26)/mappingEg.sol\":594:602  _Address */\n      dup1\n        /* \"Class_5_6 (13 & 16.3.26)/mappingEg.sol\":569:577  Contacts */\n      0x00\n        /* \"Class_5_6 (13 & 16.3.26)/mappingEg.sol\":569:583  Contacts[ key] */\n      0x00\n        /* \"Class_5_6 (13 & 16.3.26)/mappingEg.sol\":579:582  key */\n      dup8\n        /* \"Class_5_6 (13 & 16.3.26)/mappingEg.sol\":569:583  Contacts[ key] */\n      dup2\n      mstore\n      0x20\n      add\n      swap1\n      dup2\n      mstore\n      0x20\n      add\n      0x00\n      keccak256\n        /* \"Class_5_6 (13 & 16.3.26)/mappingEg.sol\":569:591  Contacts[ key].Address */\n      0x03\n      add\n        /* \"Class_5_6 (13 & 16.3.26)/mappingEg.sol\":569:602  Contacts[ key].Address = _Address */\n      swap1\n      dup2\n      tag_56\n      swap2\n      swap1\n      tag_54\n      jump\t// in\n    tag_56:\n      pop\n        /* \"Class_5_6 (13 & 16.3.26)/mappingEg.sol\":331:610  function addContact(uint key,string memory _name,uint _phNo,string memory _email,string memory _Address) public{... */\n      pop\n      pop\n      pop\n      pop\n      pop\n      jump\t// out\n        /* \"#utility.yul\":7:82   */\n    tag_57:\n        /* \"#utility.yul\":40:46   */\n      0x00\n        /* \"#utility.yul\":73:75   */\n      0x40\n        /* \"#utility.yul\":67:76   */\n      mload\n        /* \"#utility.yul\":57:76   */\n      swap1\n      pop\n        /* \"#utility.yul\":7:82   */\n      swap1\n      jump\t// out\n        /* \"#utility.yul\":88:205   */\n    tag_58:\n        /* \"#utility.yul\":197:198   */\n      0x00\n        /* \"#utility.yul\":194:195   */\n      0x00\n        /* \"#utility.yul\":187:199   */\n      revert\n        /* \"#utility.yul\":211:328   */\n    tag_59:\n        /* \"#utility.yul\":320:321   */\n      0x00\n        /* \"#utility.yul\":317:318   */\n      0x00\n        /* \"#utility.yul\":310:322   */\n      revert\n        /* \"#utility.yul\":334:411   */\n    tag_60:\n        /* \"#utility.yul\":371:378   */\n      0x00\n        /* \"#utility.yul\":400:405   */\n      dup2\n        /* \"#utility.yul\":389:405   */\n      swap1\n      pop\n        /* \"#utility.yul\":334:411   */\n      swap2\n      swap1\n      pop\n      jump\t// out\n        /* \"#utility.yul\":417:539   */\n    tag_61:\n        /* \"#utility.yul\":490:514   */\n      tag_100\n        /* \"#utility.yul\":508:513   */\n      dup2\n        /* \"#utility.yul\":490:514   */\n      tag_60\n      jump\t// in\n    tag_100:\n        /* \"#utility.yul\":483:488   */\n      dup2\n        /* \"#utility.yul\":480:515   */\n      eq\n        /* \"#utility.yul\":470:533   */\n      tag_101\n      jumpi\n        /* \"#utility.yul\":529:530   */\n      0x00\n        /* \"#utility.yul\":526:527   */\n      0x00\n        /* \"#utility.yul\":519:531   */\n      revert\n        /* \"#utility.yul\":470:533   */\n    tag_101:\n        /* \"#utility.yul\":417:539   */\n      pop\n      jump\t// out\n        /* \"#utility.yul\":545:684   */\n    tag_62:\n        /* \"#utility.yul\":591:596   */\n      0x00\n        /* \"#utility.yul\":629:635   */\n      dup2\n        /* \"#utility.yul\":616:636   */\n      calldataload\n        /* \"#utility.yul\":607:636   */\n      swap1\n      pop\n        /* \"#utility.yul\":645:678   */\n      tag_103\n        /* \"#utility.yul\":672:677   */\n      dup2\n        /* \"#utility.yul\":645:678   */\n      tag_61\n      jump\t// in\n    tag_103:\n        /* \"#utility.yul\":545:684   */\n      swap3\n      swap2\n      pop\n      pop\n      jump\t// out\n        /* \"#utility.yul\":690:1019   */\n    tag_8:\n        /* \"#utility.yul\":749:755   */\n      0x00\n        /* \"#utility.yul\":798:800   */\n      0x20\n        /* \"#utility.yul\":786:795   */\n      dup3\n        /* \"#utility.yul\":777:784   */\n      dup5\n        /* \"#utility.yul\":773:796   */\n      sub\n        /* \"#utility.yul\":769:801   */\n      slt\n        /* \"#utility.yul\":766:885   */\n      iszero\n      tag_105\n      jumpi\n        /* \"#utility.yul\":804:883   */\n      tag_106\n      tag_58\n      jump\t// in\n    tag_106:\n        /* \"#utility.yul\":766:885   */\n    tag_105:\n        /* \"#utility.yul\":924:925   */\n      0x00\n        /* \"#utility.yul\":949:1002   */\n      tag_107\n        /* \"#utility.yul\":994:1001   */\n      dup5\n        /* \"#utility.yul\":985:991   */\n      dup3\n        /* \"#utility.yul\":974:983   */\n      dup6\n        /* \"#utility.yul\":970:992   */\n      add\n        /* \"#utility.yul\":949:1002   */\n      tag_62\n      jump\t// in\n    tag_107:\n        /* \"#utility.yul\":939:1002   */\n      swap2\n      pop\n        /* \"#utility.yul\":895:1012   */\n      pop\n        /* \"#utility.yul\":690:1019   */\n      swap3\n      swap2\n      pop\n      pop\n      jump\t// out\n        /* \"#utility.yul\":1025:1124   */\n    tag_63:\n        /* \"#utility.yul\":1077:1083   */\n      0x00\n        /* \"#utility.yul\":1111:1116   */\n      dup2\n        /* \"#utility.yul\":1105:1117   */\n      mload\n        /* \"#utility.yul\":1095:1117   */\n      swap1\n      pop\n        /* \"#utility.yul\":1025:1124   */\n      swap2\n      swap1\n      pop\n      jump\t// out\n        /* \"#utility.yul\":1130:1299   */\n    tag_64:\n        /* \"#utility.yul\":1214:1225   */\n      0x00\n        /* \"#utility.yul\":1248:1254   */\n      dup3\n        /* \"#utility.yul\":1243:1246   */\n      dup3\n        /* \"#utility.yul\":1236:1255   */\n      mstore\n        /* \"#utility.yul\":1288:1292   */\n      0x20\n        /* \"#utility.yul\":1283:1286   */\n      dup3\n        /* \"#utility.yul\":1279:1293   */\n      add\n        /* \"#utility.yul\":1264:1293   */\n      swap1\n      pop\n        /* \"#utility.yul\":1130:1299   */\n      swap3\n      swap2\n      pop\n      pop\n      jump\t// out\n        /* \"#utility.yul\":1305:1444   */\n    tag_65:\n        /* \"#utility.yul\":1394:1400   */\n      dup3\n        /* \"#utility.yul\":1389:1392   */\n      dup2\n        /* \"#utility.yul\":1384:1387   */\n      dup4\n        /* \"#utility.yul\":1378:1401   */\n      mcopy\n        /* \"#utility.yul\":1435:1436   */\n      0x00\n        /* \"#utility.yul\":1426:1432   */\n      dup4\n        /* \"#utility.yul\":1421:1424   */\n      dup4\n        /* \"#utility.yul\":1417:1433   */\n      add\n        /* \"#utility.yul\":1410:1437   */\n      mstore\n        /* \"#utility.yul\":1305:1444   */\n      pop\n      pop\n      pop\n      jump\t// out\n        /* \"#utility.yul\":1450:1552   */\n    tag_66:\n        /* \"#utility.yul\":1491:1497   */\n      0x00\n        /* \"#utility.yul\":1542:1544   */\n      0x1f\n        /* \"#utility.yul\":1538:1545   */\n      not\n        /* \"#utility.yul\":1533:1535   */\n      0x1f\n        /* \"#utility.yul\":1526:1531   */\n      dup4\n        /* \"#utility.yul\":1522:1536   */\n      add\n        /* \"#utility.yul\":1518:1546   */\n      and\n        /* \"#utility.yul\":1508:1546   */\n      swap1\n      pop\n        /* \"#utility.yul\":1450:1552   */\n      swap2\n      swap1\n      pop\n      jump\t// out\n        /* \"#utility.yul\":1558:1935   */\n    tag_67:\n        /* \"#utility.yul\":1646:1649   */\n      0x00\n        /* \"#utility.yul\":1674:1713   */\n      tag_113\n        /* \"#utility.yul\":1707:1712   */\n      dup3\n        /* \"#utility.yul\":1674:1713   */\n      tag_63\n      jump\t// in\n    tag_113:\n        /* \"#utility.yul\":1729:1800   */\n      tag_114\n        /* \"#utility.yul\":1793:1799   */\n      dup2\n        /* \"#utility.yul\":1788:1791   */\n      dup6\n        /* \"#utility.yul\":1729:1800   */\n      tag_64\n      jump\t// in\n    tag_114:\n        /* \"#utility.yul\":1722:1800   */\n      swap4\n      pop\n        /* \"#utility.yul\":1809:1874   */\n      tag_115\n        /* \"#utility.yul\":1867:1873   */\n      dup2\n        /* \"#utility.yul\":1862:1865   */\n      dup6\n        /* \"#utility.yul\":1855:1859   */\n      0x20\n        /* \"#utility.yul\":1848:1853   */\n      dup7\n        /* \"#utility.yul\":1844:1860   */\n      add\n        /* \"#utility.yul\":1809:1874   */\n      tag_65\n      jump\t// in\n    tag_115:\n        /* \"#utility.yul\":1899:1928   */\n      tag_116\n        /* \"#utility.yul\":1921:1927   */\n      dup2\n        /* \"#utility.yul\":1899:1928   */\n      tag_66\n      jump\t// in\n    tag_116:\n        /* \"#utility.yul\":1894:1897   */\n      dup5\n        /* \"#utility.yul\":1890:1929   */\n      add\n        /* \"#utility.yul\":1883:1929   */\n      swap2\n      pop\n        /* \"#utility.yul\":1650:1935   */\n      pop\n        /* \"#utility.yul\":1558:1935   */\n      swap3\n      swap2\n      pop\n      pop\n      jump\t// out\n        /* \"#utility.yul\":1941:2059   */\n    tag_68:\n        /* \"#utility.yul\":2028:2052   */\n      tag_118\n        /* \"#utility.yul\":2046:2051   */\n      dup2\n        /* \"#utility.yul\":2028:2052   */\n      tag_60\n      jump\t// in\n    tag_118:\n        /* \"#utility.yul\":2023:2026   */\n      dup3\n        /* \"#utility.yul\":2016:2053   */\n      mstore\n        /* \"#utility.yul\":1941:2059   */\n      pop\n      pop\n      jump\t// out\n        /* \"#utility.yul\":2065:2891   */\n    tag_11:\n        /* \"#utility.yul\":2302:2306   */\n      0x00\n        /* \"#utility.yul\":2340:2343   */\n      0x80\n        /* \"#utility.yul\":2329:2338   */\n      dup3\n        /* \"#utility.yul\":2325:2344   */\n      add\n        /* \"#utility.yul\":2317:2344   */\n      swap1\n      pop\n        /* \"#utility.yul\":2390:2399   */\n      dup2\n        /* \"#utility.yul\":2384:2388   */\n      dup2\n        /* \"#utility.yul\":2380:2400   */\n      sub\n        /* \"#utility.yul\":2376:2377   */\n      0x00\n        /* \"#utility.yul\":2365:2374   */\n      dup4\n        /* \"#utility.yul\":2361:2378   */\n      add\n        /* \"#utility.yul\":2354:2401   */\n      mstore\n        /* \"#utility.yul\":2418:2496   */\n      tag_120\n        /* \"#utility.yul\":2491:2495   */\n      dup2\n        /* \"#utility.yul\":2482:2488   */\n      dup8\n        /* \"#utility.yul\":2418:2496   */\n      tag_67\n      jump\t// in\n    tag_120:\n        /* \"#utility.yul\":2410:2496   */\n      swap1\n      pop\n        /* \"#utility.yul\":2506:2578   */\n      tag_121\n        /* \"#utility.yul\":2574:2576   */\n      0x20\n        /* \"#utility.yul\":2563:2572   */\n      dup4\n        /* \"#utility.yul\":2559:2577   */\n      add\n        /* \"#utility.yul\":2550:2556   */\n      dup7\n        /* \"#utility.yul\":2506:2578   */\n      tag_68\n      jump\t// in\n    tag_121:\n        /* \"#utility.yul\":2625:2634   */\n      dup2\n        /* \"#utility.yul\":2619:2623   */\n      dup2\n        /* \"#utility.yul\":2615:2635   */\n      sub\n        /* \"#utility.yul\":2610:2612   */\n      0x40\n        /* \"#utility.yul\":2599:2608   */\n      dup4\n        /* \"#utility.yul\":2595:2613   */\n      add\n        /* \"#utility.yul\":2588:2636   */\n      mstore\n        /* \"#utility.yul\":2653:2731   */\n      tag_122\n        /* \"#utility.yul\":2726:2730   */\n      dup2\n        /* \"#utility.yul\":2717:2723   */\n      dup6\n        /* \"#utility.yul\":2653:2731   */\n      tag_67\n      jump\t// in\n    tag_122:\n        /* \"#utility.yul\":2645:2731   */\n      swap1\n      pop\n        /* \"#utility.yul\":2778:2787   */\n      dup2\n        /* \"#utility.yul\":2772:2776   */\n      dup2\n        /* \"#utility.yul\":2768:2788   */\n      sub\n        /* \"#utility.yul\":2763:2765   */\n      0x60\n        /* \"#utility.yul\":2752:2761   */\n      dup4\n        /* \"#utility.yul\":2748:2766   */\n      add\n        /* \"#utility.yul\":2741:2789   */\n      mstore\n        /* \"#utility.yul\":2806:2884   */\n      tag_123\n        /* \"#utility.yul\":2879:2883   */\n      dup2\n        /* \"#utility.yul\":2870:2876   */\n      dup5\n        /* \"#utility.yul\":2806:2884   */\n      tag_67\n      jump\t// in\n    tag_123:\n        /* \"#utility.yul\":2798:2884   */\n      swap1\n      pop\n        /* \"#utility.yul\":2065:2891   */\n      swap6\n      swap5\n      pop\n      pop\n      pop\n      pop\n      pop\n      jump\t// out\n        /* \"#utility.yul\":2897:3014   */\n    tag_69:\n        /* \"#utility.yul\":3006:3007   */\n      0x00\n        /* \"#utility.yul\":3003:3004   */\n      0x00\n        /* \"#utility.yul\":2996:3008   */\n      revert\n        /* \"#utility.yul\":3020:3137   */\n    tag_70:\n        /* \"#utility.yul\":3129:3130   */\n      0x00\n        /* \"#utility.yul\":3126:3127   */\n      0x00\n        /* \"#utility.yul\":3119:3131   */\n      revert\n        /* \"#utility.yul\":3143:3323   */\n    tag_71:\n        /* \"#utility.yul\":3191:3268   */\n      0x4e487b7100000000000000000000000000000000000000000000000000000000\n        /* \"#utility.yul\":3188:3189   */\n      0x00\n        /* \"#utility.yul\":3181:3269   */\n      mstore\n        /* \"#utility.yul\":3288:3292   */\n      0x41\n        /* \"#utility.yul\":3285:3286   */\n      0x04\n        /* \"#utility.yul\":3278:3293   */\n      mstore\n        /* \"#utility.yul\":3312:3316   */\n      0x24\n        /* \"#utility.yul\":3309:3310   */\n      0x00\n        /* \"#utility.yul\":3302:3317   */\n      revert\n        /* \"#utility.yul\":3329:3610   */\n    tag_72:\n        /* \"#utility.yul\":3412:3439   */\n      tag_128\n        /* \"#utility.yul\":3434:3438   */\n      dup3\n        /* \"#utility.yul\":3412:3439   */\n      tag_66\n      jump\t// in\n    tag_128:\n        /* \"#utility.yul\":3404:3410   */\n      dup2\n        /* \"#utility.yul\":3400:3440   */\n      add\n        /* \"#utility.yul\":3542:3548   */\n      dup2\n        /* \"#utility.yul\":3530:3540   */\n      dup2\n        /* \"#utility.yul\":3527:3549   */\n      lt\n        /* \"#utility.yul\":3506:3524   */\n      0xffffffffffffffff\n        /* \"#utility.yul\":3494:3504   */\n      dup3\n        /* \"#utility.yul\":3491:3525   */\n      gt\n        /* \"#utility.yul\":3488:3550   */\n      or\n        /* \"#utility.yul\":3485:3573   */\n      iszero\n      tag_129\n      jumpi\n        /* \"#utility.yul\":3553:3571   */\n      tag_130\n      tag_71\n      jump\t// in\n    tag_130:\n        /* \"#utility.yul\":3485:3573   */\n    tag_129:\n        /* \"#utility.yul\":3593:3603   */\n      dup1\n        /* \"#utility.yul\":3589:3591   */\n      0x40\n        /* \"#utility.yul\":3582:3604   */\n      mstore\n        /* \"#utility.yul\":3372:3610   */\n      pop\n        /* \"#utility.yul\":3329:3610   */\n      pop\n      pop\n      jump\t// out\n        /* \"#utility.yul\":3616:3745   */\n    tag_73:\n        /* \"#utility.yul\":3650:3656   */\n      0x00\n        /* \"#utility.yul\":3677:3697   */\n      tag_132\n      tag_57\n      jump\t// in\n    tag_132:\n        /* \"#utility.yul\":3667:3697   */\n      swap1\n      pop\n        /* \"#utility.yul\":3706:3739   */\n      tag_133\n        /* \"#utility.yul\":3734:3738   */\n      dup3\n        /* \"#utility.yul\":3726:3732   */\n      dup3\n        /* \"#utility.yul\":3706:3739   */\n      tag_72\n      jump\t// in\n    tag_133:\n        /* \"#utility.yul\":3616:3745   */\n      swap2\n      swap1\n      pop\n      jump\t// out\n        /* \"#utility.yul\":3751:4059   */\n    tag_74:\n        /* \"#utility.yul\":3813:3817   */\n      0x00\n        /* \"#utility.yul\":3903:3921   */\n      0xffffffffffffffff\n        /* \"#utility.yul\":3895:3901   */\n      dup3\n        /* \"#utility.yul\":3892:3922   */\n      gt\n        /* \"#utility.yul\":3889:3945   */\n      iszero\n      tag_135\n      jumpi\n        /* \"#utility.yul\":3925:3943   */\n      tag_136\n      tag_71\n      jump\t// in\n    tag_136:\n        /* \"#utility.yul\":3889:3945   */\n    tag_135:\n        /* \"#utility.yul\":3963:3992   */\n      tag_137\n        /* \"#utility.yul\":3985:3991   */\n      dup3\n        /* \"#utility.yul\":3963:3992   */\n      tag_66\n      jump\t// in\n    tag_137:\n        /* \"#utility.yul\":3955:3992   */\n      swap1\n      pop\n        /* \"#utility.yul\":4047:4051   */\n      0x20\n        /* \"#utility.yul\":4041:4045   */\n      dup2\n        /* \"#utility.yul\":4037:4052   */\n      add\n        /* \"#utility.yul\":4029:4052   */\n      swap1\n      pop\n        /* \"#utility.yul\":3751:4059   */\n      swap2\n      swap1\n      pop\n      jump\t// out\n        /* \"#utility.yul\":4065:4213   */\n    tag_75:\n        /* \"#utility.yul\":4163:4169   */\n      dup3\n        /* \"#utility.yul\":4158:4161   */\n      dup2\n        /* \"#utility.yul\":4153:4156   */\n      dup4\n        /* \"#utility.yul\":4140:4170   */\n      calldatacopy\n        /* \"#utility.yul\":4204:4205   */\n      0x00\n        /* \"#utility.yul\":4195:4201   */\n      dup4\n        /* \"#utility.yul\":4190:4193   */\n      dup4\n        /* \"#utility.yul\":4186:4202   */\n      add\n        /* \"#utility.yul\":4179:4206   */\n      mstore\n        /* \"#utility.yul\":4065:4213   */\n      pop\n      pop\n      pop\n      jump\t// out\n        /* \"#utility.yul\":4219:4644   */\n    tag_76:\n        /* \"#utility.yul\":4297:4302   */\n      0x00\n        /* \"#utility.yul\":4322:4388   */\n      tag_140\n        /* \"#utility.yul\":4338:4387   */\n      tag_141\n        /* \"#utility.yul\":4380:4386   */\n      dup5\n        /* \"#utility.yul\":4338:4387   */\n      tag_74\n      jump\t// in\n    tag_141:\n        /* \"#utility.yul\":4322:4388   */\n      tag_73\n      jump\t// in\n    tag_140:\n        /* \"#utility.yul\":4313:4388   */\n      swap1\n      pop\n        /* \"#utility.yul\":4411:4417   */\n      dup3\n        /* \"#utility.yul\":4404:4409   */\n      dup2\n        /* \"#utility.yul\":4397:4418   */\n      mstore\n        /* \"#utility.yul\":4449:4453   */\n      0x20\n        /* \"#utility.yul\":4442:4447   */\n      dup2\n        /* \"#utility.yul\":4438:4454   */\n      add\n        /* \"#utility.yul\":4487:4490   */\n      dup5\n        /* \"#utility.yul\":4478:4484   */\n      dup5\n        /* \"#utility.yul\":4473:4476   */\n      dup5\n        /* \"#utility.yul\":4469:4485   */\n      add\n        /* \"#utility.yul\":4466:4491   */\n      gt\n        /* \"#utility.yul\":4463:4575   */\n      iszero\n      tag_142\n      jumpi\n        /* \"#utility.yul\":4494:4573   */\n      tag_143\n      tag_70\n      jump\t// in\n    tag_143:\n        /* \"#utility.yul\":4463:4575   */\n    tag_142:\n        /* \"#utility.yul\":4584:4638   */\n      tag_144\n        /* \"#utility.yul\":4631:4637   */\n      dup5\n        /* \"#utility.yul\":4626:4629   */\n      dup3\n        /* \"#utility.yul\":4621:4624   */\n      dup6\n        /* \"#utility.yul\":4584:4638   */\n      tag_75\n      jump\t// in\n    tag_144:\n        /* \"#utility.yul\":4303:4644   */\n      pop\n        /* \"#utility.yul\":4219:4644   */\n      swap4\n      swap3\n      pop\n      pop\n      pop\n      jump\t// out\n        /* \"#utility.yul\":4664:5004   */\n    tag_77:\n        /* \"#utility.yul\":4720:4725   */\n      0x00\n        /* \"#utility.yul\":4769:4772   */\n      dup3\n        /* \"#utility.yul\":4762:4766   */\n      0x1f\n        /* \"#utility.yul\":4754:4760   */\n      dup4\n        /* \"#utility.yul\":4750:4767   */\n      add\n        /* \"#utility.yul\":4746:4773   */\n      slt\n        /* \"#utility.yul\":4736:4858   */\n      tag_146\n      jumpi\n        /* \"#utility.yul\":4777:4856   */\n      tag_147\n      tag_69\n      jump\t// in\n    tag_147:\n        /* \"#utility.yul\":4736:4858   */\n    tag_146:\n        /* \"#utility.yul\":4894:4900   */\n      dup2\n        /* \"#utility.yul\":4881:4901   */\n      calldataload\n        /* \"#utility.yul\":4919:4998   */\n      tag_148\n        /* \"#utility.yul\":4994:4997   */\n      dup5\n        /* \"#utility.yul\":4986:4992   */\n      dup3\n        /* \"#utility.yul\":4979:4983   */\n      0x20\n        /* \"#utility.yul\":4971:4977   */\n      dup7\n        /* \"#utility.yul\":4967:4984   */\n      add\n        /* \"#utility.yul\":4919:4998   */\n      tag_76\n      jump\t// in\n    tag_148:\n        /* \"#utility.yul\":4910:4998   */\n      swap2\n      pop\n        /* \"#utility.yul\":4726:5004   */\n      pop\n        /* \"#utility.yul\":4664:5004   */\n      swap3\n      swap2\n      pop\n      pop\n      jump\t// out\n        /* \"#utility.yul\":5010:6461   */\n    tag_18:\n        /* \"#utility.yul\":5135:5141   */\n      0x00\n        /* \"#utility.yul\":5143:5149   */\n      0x00\n        /* \"#utility.yul\":5151:5157   */\n      0x00\n        /* \"#utility.yul\":5159:5165   */\n      0x00\n        /* \"#utility.yul\":5167:5173   */\n      0x00\n        /* \"#utility.yul\":5216:5219   */\n      0xa0\n        /* \"#utility.yul\":5204:5213   */\n      dup7\n        /* \"#utility.yul\":5195:5202   */\n      dup9\n        /* \"#utility.yul\":5191:5214   */\n      sub\n        /* \"#utility.yul\":5187:5220   */\n      slt\n        /* \"#utility.yul\":5184:5304   */\n      iszero\n      tag_150\n      jumpi\n        /* \"#utility.yul\":5223:5302   */\n      tag_151\n      tag_58\n      jump\t// in\n    tag_151:\n        /* \"#utility.yul\":5184:5304   */\n    tag_150:\n        /* \"#utility.yul\":5343:5344   */\n      0x00\n        /* \"#utility.yul\":5368:5421   */\n      tag_152\n        /* \"#utility.yul\":5413:5420   */\n      dup9\n        /* \"#utility.yul\":5404:5410   */\n      dup3\n        /* \"#utility.yul\":5393:5402   */\n      dup10\n        /* \"#utility.yul\":5389:5411   */\n      add\n        /* \"#utility.yul\":5368:5421   */\n      tag_62\n      jump\t// in\n    tag_152:\n        /* \"#utility.yul\":5358:5421   */\n      swap6\n      pop\n        /* \"#utility.yul\":5314:5431   */\n      pop\n        /* \"#utility.yul\":5498:5500   */\n      0x20\n        /* \"#utility.yul\":5487:5496   */\n      dup7\n        /* \"#utility.yul\":5483:5501   */\n      add\n        /* \"#utility.yul\":5470:5502   */\n      calldataload\n        /* \"#utility.yul\":5529:5547   */\n      0xffffffffffffffff\n        /* \"#utility.yul\":5521:5527   */\n      dup2\n        /* \"#utility.yul\":5518:5548   */\n      gt\n        /* \"#utility.yul\":5515:5632   */\n      iszero\n      tag_153\n      jumpi\n        /* \"#utility.yul\":5551:5630   */\n      tag_154\n      tag_59\n      jump\t// in\n    tag_154:\n        /* \"#utility.yul\":5515:5632   */\n    tag_153:\n        /* \"#utility.yul\":5656:5719   */\n      tag_155\n        /* \"#utility.yul\":5711:5718   */\n      dup9\n        /* \"#utility.yul\":5702:5708   */\n      dup3\n        /* \"#utility.yul\":5691:5700   */\n      dup10\n        /* \"#utility.yul\":5687:5709   */\n      add\n        /* \"#utility.yul\":5656:5719   */\n      tag_77\n      jump\t// in\n    tag_155:\n        /* \"#utility.yul\":5646:5719   */\n      swap5\n      pop\n        /* \"#utility.yul\":5441:5729   */\n      pop\n        /* \"#utility.yul\":5768:5770   */\n      0x40\n        /* \"#utility.yul\":5794:5847   */\n      tag_156\n        /* \"#utility.yul\":5839:5846   */\n      dup9\n        /* \"#utility.yul\":5830:5836   */\n      dup3\n        /* \"#utility.yul\":5819:5828   */\n      dup10\n        /* \"#utility.yul\":5815:5837   */\n      add\n        /* \"#utility.yul\":5794:5847   */\n      tag_62\n      jump\t// in\n    tag_156:\n        /* \"#utility.yul\":5784:5847   */\n      swap4\n      pop\n        /* \"#utility.yul\":5739:5857   */\n      pop\n        /* \"#utility.yul\":5924:5926   */\n      0x60\n        /* \"#utility.yul\":5913:5922   */\n      dup7\n        /* \"#utility.yul\":5909:5927   */\n      add\n        /* \"#utility.yul\":5896:5928   */\n      calldataload\n        /* \"#utility.yul\":5955:5973   */\n      0xffffffffffffffff\n        /* \"#utility.yul\":5947:5953   */\n      dup2\n        /* \"#utility.yul\":5944:5974   */\n      gt\n        /* \"#utility.yul\":5941:6058   */\n      iszero\n      tag_157\n      jumpi\n        /* \"#utility.yul\":5977:6056   */\n      tag_158\n      tag_59\n      jump\t// in\n    tag_158:\n        /* \"#utility.yul\":5941:6058   */\n    tag_157:\n        /* \"#utility.yul\":6082:6145   */\n      tag_159\n        /* \"#utility.yul\":6137:6144   */\n      dup9\n        /* \"#utility.yul\":6128:6134   */\n      dup3\n        /* \"#utility.yul\":6117:6126   */\n      dup10\n        /* \"#utility.yul\":6113:6135   */\n      add\n        /* \"#utility.yul\":6082:6145   */\n      tag_77\n      jump\t// in\n    tag_159:\n        /* \"#utility.yul\":6072:6145   */\n      swap3\n      pop\n        /* \"#utility.yul\":5867:6155   */\n      pop\n        /* \"#utility.yul\":6222:6225   */\n      0x80\n        /* \"#utility.yul\":6211:6220   */\n      dup7\n        /* \"#utility.yul\":6207:6226   */\n      add\n        /* \"#utility.yul\":6194:6227   */\n      calldataload\n        /* \"#utility.yul\":6254:6272   */\n      0xffffffffffffffff\n        /* \"#utility.yul\":6246:6252   */\n      dup2\n        /* \"#utility.yul\":6243:6273   */\n      gt\n        /* \"#utility.yul\":6240:6357   */\n      iszero\n      tag_160\n      jumpi\n        /* \"#utility.yul\":6276:6355   */\n      tag_161\n      tag_59\n      jump\t// in\n    tag_161:\n        /* \"#utility.yul\":6240:6357   */\n    tag_160:\n        /* \"#utility.yul\":6381:6444   */\n      tag_162\n        /* \"#utility.yul\":6436:6443   */\n      dup9\n        /* \"#utility.yul\":6427:6433   */\n      dup3\n        /* \"#utility.yul\":6416:6425   */\n      dup10\n        /* \"#utility.yul\":6412:6434   */\n      add\n        /* \"#utility.yul\":6381:6444   */\n      tag_77\n      jump\t// in\n    tag_162:\n        /* \"#utility.yul\":6371:6444   */\n      swap2\n      pop\n        /* \"#utility.yul\":6165:6454   */\n      pop\n        /* \"#utility.yul\":5010:6461   */\n      swap3\n      swap6\n      pop\n      swap3\n      swap6\n      swap1\n      swap4\n      pop\n      jump\t// out\n        /* \"#utility.yul\":6467:6647   */\n    tag_78:\n        /* \"#utility.yul\":6515:6592   */\n      0x4e487b7100000000000000000000000000000000000000000000000000000000\n        /* \"#utility.yul\":6512:6513   */\n      0x00\n        /* \"#utility.yul\":6505:6593   */\n      mstore\n        /* \"#utility.yul\":6612:6616   */\n      0x22\n        /* \"#utility.yul\":6609:6610   */\n      0x04\n        /* \"#utility.yul\":6602:6617   */\n      mstore\n        /* \"#utility.yul\":6636:6640   */\n      0x24\n        /* \"#utility.yul\":6633:6634   */\n      0x00\n        /* \"#utility.yul\":6626:6641   */\n      revert\n        /* \"#utility.yul\":6653:6973   */\n    tag_21:\n        /* \"#utility.yul\":6697:6703   */\n      0x00\n        /* \"#utility.yul\":6734:6735   */\n      0x02\n        /* \"#utility.yul\":6728:6732   */\n      dup3\n        /* \"#utility.yul\":6724:6736   */\n      div\n        /* \"#utility.yul\":6714:6736   */\n      swap1\n      pop\n        /* \"#utility.yul\":6781:6782   */\n      0x01\n        /* \"#utility.yul\":6775:6779   */\n      dup3\n        /* \"#utility.yul\":6771:6783   */\n      and\n        /* \"#utility.yul\":6802:6820   */\n      dup1\n        /* \"#utility.yul\":6792:6873   */\n      tag_165\n      jumpi\n        /* \"#utility.yul\":6858:6862   */\n      0x7f\n        /* \"#utility.yul\":6850:6856   */\n      dup3\n        /* \"#utility.yul\":6846:6863   */\n      and\n        /* \"#utility.yul\":6836:6863   */\n      swap2\n      pop\n        /* \"#utility.yul\":6792:6873   */\n    tag_165:\n        /* \"#utility.yul\":6920:6922   */\n      0x20\n        /* \"#utility.yul\":6912:6918   */\n      dup3\n        /* \"#utility.yul\":6909:6923   */\n      lt\n        /* \"#utility.yul\":6889:6907   */\n      dup2\n        /* \"#utility.yul\":6886:6924   */\n      sub\n        /* \"#utility.yul\":6883:6967   */\n      tag_166\n      jumpi\n        /* \"#utility.yul\":6939:6957   */\n      tag_167\n      tag_78\n      jump\t// in\n    tag_167:\n        /* \"#utility.yul\":6883:6967   */\n    tag_166:\n        /* \"#utility.yul\":6704:6973   */\n      pop\n        /* \"#utility.yul\":6653:6973   */\n      swap2\n      swap1\n      pop\n      jump\t// out\n        /* \"#utility.yul\":6979:7120   */\n    tag_79:\n        /* \"#utility.yul\":7028:7032   */\n      0x00\n        /* \"#utility.yul\":7051:7054   */\n      dup2\n        /* \"#utility.yul\":7043:7054   */\n      swap1\n      pop\n        /* \"#utility.yul\":7074:7077   */\n      dup2\n        /* \"#utility.yul\":7071:7072   */\n      0x00\n        /* \"#utility.yul\":7064:7078   */\n      mstore\n        /* \"#utility.yul\":7108:7112   */\n      0x20\n        /* \"#utility.yul\":7105:7106   */\n      0x00\n        /* \"#utility.yul\":7095:7113   */\n      keccak256\n        /* \"#utility.yul\":7087:7113   */\n      swap1\n      pop\n        /* \"#utility.yul\":6979:7120   */\n      swap2\n      swap1\n      pop\n      jump\t// out\n        /* \"#utility.yul\":7126:7219   */\n    tag_80:\n        /* \"#utility.yul\":7163:7169   */\n      0x00\n        /* \"#utility.yul\":7210:7212   */\n      0x20\n        /* \"#utility.yul\":7205:7207   */\n      0x1f\n        /* \"#utility.yul\":7198:7203   */\n      dup4\n        /* \"#utility.yul\":7194:7208   */\n      add\n        /* \"#utility.yul\":7190:7213   */\n      div\n        /* \"#utility.yul\":7180:7213   */\n      swap1\n      pop\n        /* \"#utility.yul\":7126:7219   */\n      swap2\n      swap1\n      pop\n      jump\t// out\n        /* \"#utility.yul\":7225:7332   */\n    tag_81:\n        /* \"#utility.yul\":7269:7277   */\n      0x00\n        /* \"#utility.yul\":7319:7324   */\n      dup3\n        /* \"#utility.yul\":7313:7317   */\n      dup3\n        /* \"#utility.yul\":7309:7325   */\n      shl\n        /* \"#utility.yul\":7288:7325   */\n      swap1\n      pop\n        /* \"#utility.yul\":7225:7332   */\n      swap3\n      swap2\n      pop\n      pop\n      jump\t// out\n        /* \"#utility.yul\":7338:7731   */\n    tag_82:\n        /* \"#utility.yul\":7407:7413   */\n      0x00\n        /* \"#utility.yul\":7457:7458   */\n      0x08\n        /* \"#utility.yul\":7445:7455   */\n      dup4\n        /* \"#utility.yul\":7441:7459   */\n      mul\n        /* \"#utility.yul\":7480:7577   */\n      tag_172\n        /* \"#utility.yul\":7510:7576   */\n      0xffffffffffffffffffffffffffffffffffffffffffffffffffffffffffffffff\n        /* \"#utility.yul\":7499:7508   */\n      dup3\n        /* \"#utility.yul\":7480:7577   */\n      tag_81\n      jump\t// in\n    tag_172:\n        /* \"#utility.yul\":7598:7637   */\n      tag_173\n        /* \"#utility.yul\":7628:7636   */\n      dup7\n        /* \"#utility.yul\":7617:7626   */\n      dup4\n        /* \"#utility.yul\":7598:7637   */\n      tag_81\n      jump\t// in\n    tag_173:\n        /* \"#utility.yul\":7586:7637   */\n      swap6\n      pop\n        /* \"#utility.yul\":7670:7674   */\n      dup1\n        /* \"#utility.yul\":7666:7675   */\n      not\n        /* \"#utility.yul\":7659:7664   */\n      dup5\n        /* \"#utility.yul\":7655:7676   */\n      and\n        /* \"#utility.yul\":7646:7676   */\n      swap4\n      pop\n        /* \"#utility.yul\":7719:7723   */\n      dup1\n        /* \"#utility.yul\":7709:7717   */\n      dup7\n        /* \"#utility.yul\":7705:7724   */\n      and\n        /* \"#utility.yul\":7698:7703   */\n      dup5\n        /* \"#utility.yul\":7695:7725   */\n      or\n        /* \"#utility.yul\":7685:7725   */\n      swap3\n      pop\n        /* \"#utility.yul\":7414:7731   */\n      pop\n      pop\n        /* \"#utility.yul\":7338:7731   */\n      swap4\n      swap3\n      pop\n      pop\n      pop\n      jump\t// out\n        /* \"#utility.yul\":7737:7797   */\n    tag_83:\n        /* \"#utility.yul\":7765:7768   */\n      0x00\n        /* \"#utility.yul\":7786:7791   */\n      dup2\n        /* \"#utility.yul\":7779:7791   */\n      swap1\n      pop\n        /* \"#utility.yul\":7737:7797   */\n      swap2\n      swap1\n      pop\n      jump\t// out\n        /* \"#utility.yul\":7803:7945   */\n    tag_84:\n        /* \"#utility.yul\":7853:7862   */\n      0x00\n        /* \"#utility.yul\":7886:7939   */\n      tag_176\n        /* \"#utility.yul\":7904:7938   */\n      tag_177\n        /* \"#utility.yul\":7913:7937   */\n      tag_178\n        /* \"#utility.yul\":7931:7936   */\n      dup5\n        /* \"#utility.yul\":7913:7937   */\n      tag_60\n      jump\t// in\n    tag_178:\n        /* \"#utility.yul\":7904:7938   */\n      tag_83\n      jump\t// in\n    tag_177:\n        /* \"#utility.yul\":7886:7939   */\n      tag_60\n      jump\t// in\n    tag_176:\n        /* \"#utility.yul\":7873:7939   */\n      swap1\n      pop\n        /* \"#utility.yul\":7803:7945   */\n      swap2\n      swap1\n      pop\n      jump\t// out\n        /* \"#utility.yul\":7951:8026   */\n    tag_85:\n        /* \"#utility.yul\":7994:7997   */\n      0x00\n        /* \"#utility.yul\":8015:8020   */\n      dup2\n        /* \"#utility.yul\":8008:8020   */\n      swap1\n      pop\n        /* \"#utility.yul\":7951:8026   */\n      swap2\n      swap1\n      pop\n      jump\t// out\n        /* \"#utility.yul\":8032:8301   */\n    tag_86:\n        /* \"#utility.yul\":8142:8181   */\n      tag_181\n        /* \"#utility.yul\":8173:8180   */\n      dup4\n        /* \"#utility.yul\":8142:8181   */\n      tag_84\n      jump\t// in\n    tag_181:\n        /* \"#utility.yul\":8203:8294   */\n      tag_182\n        /* \"#utility.yul\":8252:8293   */\n      tag_183\n        /* \"#utility.yul\":8276:8292   */\n      dup3\n        /* \"#utility.yul\":8252:8293   */\n      tag_85\n      jump\t// in\n    tag_183:\n        /* \"#utility.yul\":8244:8250   */\n      dup5\n        /* \"#utility.yul\":8237:8241   */\n      dup5\n        /* \"#utility.yul\":8231:8242   */\n      sload\n        /* \"#utility.yul\":8203:8294   */\n      tag_82\n      jump\t// in\n    tag_182:\n        /* \"#utility.yul\":8197:8201   */\n      dup3\n        /* \"#utility.yul\":8190:8295   */\n      sstore\n        /* \"#utility.yul\":8108:8301   */\n      pop\n        /* \"#utility.yul\":8032:8301   */\n      pop\n      pop\n      pop\n      jump\t// out\n        /* \"#utility.yul\":8307:8380   */\n    tag_87:\n        /* \"#utility.yul\":8352:8355   */\n      0x00\n        /* \"#utility.yul\":8373:8374   */\n      0x00\n        /* \"#utility.yul\":8366:8374   */\n      swap1\n      pop\n        /* \"#utility.yul\":8307:8380   */\n      swap1\n      jump\t// out\n        /* \"#utility.yul\":8386:8575   */\n    tag_88:\n        /* \"#utility.yul\":8463:8495   */\n      tag_186\n      tag_87\n      jump\t// in\n    tag_186:\n        /* \"#utility.yul\":8504:8569   */\n      tag_187\n        /* \"#utility.yul\":8562:8568   */\n      dup2\n        /* \"#utility.yul\":8554:8560   */\n      dup5\n        /* \"#utility.yul\":8548:8552   */\n      dup5\n        /* \"#utility.yul\":8504:8569   */\n      tag_86\n      jump\t// in\n    tag_187:\n        /* \"#utility.yul\":8439:8575   */\n      pop\n        /* \"#utility.yul\":8386:8575   */\n      pop\n      pop\n      jump\t// out\n        /* \"#utility.yul\":8581:8767   */\n    tag_89:\n        /* \"#utility.yul\":8641:8761   */\n    tag_189:\n        /* \"#utility.yul\":8658:8661   */\n      dup2\n        /* \"#utility.yul\":8651:8656   */\n      dup2\n        /* \"#utility.yul\":8648:8662   */\n      lt\n        /* \"#utility.yul\":8641:8761   */\n      iszero\n      tag_191\n      jumpi\n        /* \"#utility.yul\":8712:8751   */\n      tag_192\n        /* \"#utility.yul\":8749:8750   */\n      0x00\n        /* \"#utility.yul\":8742:8747   */\n      dup3\n        /* \"#utility.yul\":8712:8751   */\n      tag_88\n      jump\t// in\n    tag_192:\n        /* \"#utility.yul\":8685:8686   */\n      0x01\n        /* \"#utility.yul\":8678:8683   */\n      dup2\n        /* \"#utility.yul\":8674:8687   */\n      add\n        /* \"#utility.yul\":8665:8687   */\n      swap1\n      pop\n        /* \"#utility.yul\":8641:8761   */\n      jump(tag_189)\n    tag_191:\n        /* \"#utility.yul\":8581:8767   */\n      pop\n      pop\n      jump\t// out\n        /* \"#utility.yul\":8773:9316   */\n    tag_90:\n        /* \"#utility.yul\":8874:8876   */\n      0x1f\n        /* \"#utility.yul\":8869:8872   */\n      dup3\n        /* \"#utility.yul\":8866:8877   */\n      gt\n        /* \"#utility.yul\":8863:9309   */\n      iszero\n      tag_194\n      jumpi\n        /* \"#utility.yul\":8908:8946   */\n      tag_195\n        /* \"#utility.yul\":8940:8945   */\n      dup2\n        /* \"#utility.yul\":8908:8946   */\n      tag_79\n      jump\t// in\n    tag_195:\n        /* \"#utility.yul\":8992:9021   */\n      tag_196\n        /* \"#utility.yul\":9010:9020   */\n      dup5\n        /* \"#utility.yul\":8992:9021   */\n      tag_80\n      jump\t// in\n    tag_196:\n        /* \"#utility.yul\":8982:8990   */\n      dup2\n        /* \"#utility.yul\":8978:9022   */\n      add\n        /* \"#utility.yul\":9175:9177   */\n      0x20\n        /* \"#utility.yul\":9163:9173   */\n      dup6\n        /* \"#utility.yul\":9160:9178   */\n      lt\n        /* \"#utility.yul\":9157:9206   */\n      iszero\n      tag_197\n      jumpi\n        /* \"#utility.yul\":9196:9204   */\n      dup2\n        /* \"#utility.yul\":9181:9204   */\n      swap1\n      pop\n        /* \"#utility.yul\":9157:9206   */\n    tag_197:\n        /* \"#utility.yul\":9219:9299   */\n      tag_198\n        /* \"#utility.yul\":9275:9297   */\n      tag_199\n        /* \"#utility.yul\":9293:9296   */\n      dup6\n        /* \"#utility.yul\":9275:9297   */\n      tag_80\n      jump\t// in\n    tag_199:\n        /* \"#utility.yul\":9265:9273   */\n      dup4\n        /* \"#utility.yul\":9261:9298   */\n      add\n        /* \"#utility.yul\":9248:9259   */\n      dup3\n        /* \"#utility.yul\":9219:9299   */\n      tag_89\n      jump\t// in\n    tag_198:\n        /* \"#utility.yul\":8878:9309   */\n      pop\n      pop\n        /* \"#utility.yul\":8863:9309   */\n    tag_194:\n        /* \"#utility.yul\":8773:9316   */\n      pop\n      pop\n      pop\n      jump\t// out\n        /* \"#utility.yul\":9322:9439   */\n    tag_91:\n        /* \"#utility.yul\":9376:9384   */\n      0x00\n        /* \"#utility.yul\":9426:9431   */\n      dup3\n        /* \"#utility.yul\":9420:9424   */\n      dup3\n        /* \"#utility.yul\":9416:9432   */\n      shr\n        /* \"#utility.yul\":9395:9432   */\n      swap1\n      pop\n        /* \"#utility.yul\":9322:9439   */\n      swap3\n      swap2\n      pop\n      pop\n      jump\t// out\n        /* \"#utility.yul\":9445:9614   */\n    tag_92:\n        /* \"#utility.yul\":9489:9495   */\n      0x00\n        /* \"#utility.yul\":9522:9573   */\n      tag_202\n        /* \"#utility.yul\":9570:9571   */\n      0x00\n        /* \"#utility.yul\":9566:9572   */\n      not\n        /* \"#utility.yul\":9558:9563   */\n      dup5\n        /* \"#utility.yul\":9555:9556   */\n      0x08\n        /* \"#utility.yul\":9551:9564   */\n      mul\n        /* \"#utility.yul\":9522:9573   */\n      tag_91\n      jump\t// in\n    tag_202:\n        /* \"#utility.yul\":9518:9574   */\n      not\n        /* \"#utility.yul\":9603:9607   */\n      dup1\n        /* \"#utility.yul\":9597:9601   */\n      dup4\n        /* \"#utility.yul\":9593:9608   */\n      and\n        /* \"#utility.yul\":9583:9608   */\n      swap2\n      pop\n        /* \"#utility.yul\":9496:9614   */\n      pop\n        /* \"#utility.yul\":9445:9614   */\n      swap3\n      swap2\n      pop\n      pop\n      jump\t// out\n        /* \"#utility.yul\":9619:9914   */\n    tag_93:\n        /* \"#utility.yul\":9695:9699   */\n      0x00\n        /* \"#utility.yul\":9841:9870   */\n      tag_204\n        /* \"#utility.yul\":9866:9869   */\n      dup4\n        /* \"#utility.yul\":9860:9864   */\n      dup4\n        /* \"#utility.yul\":9841:9870   */\n      tag_92\n      jump\t// in\n    tag_204:\n        /* \"#utility.yul\":9833:9870   */\n      swap2\n      pop\n        /* \"#utility.yul\":9903:9906   */\n      dup3\n        /* \"#utility.yul\":9900:9901   */\n      0x02\n        /* \"#utility.yul\":9896:9907   */\n      mul\n        /* \"#utility.yul\":9890:9894   */\n      dup3\n        /* \"#utility.yul\":9887:9908   */\n      or\n        /* \"#utility.yul\":9879:9908   */\n      swap1\n      pop\n        /* \"#utility.yul\":9619:9914   */\n      swap3\n      swap2\n      pop\n      pop\n      jump\t// out\n        /* \"#utility.yul\":9919:11314   */\n    tag_54:\n        /* \"#utility.yul\":10036:10073   */\n      tag_206\n        /* \"#utility.yul\":10069:10072   */\n      dup3\n        /* \"#utility.yul\":10036:10073   */\n      tag_63\n      jump\t// in\n    tag_206:\n        /* \"#utility.yul\":10138:10156   */\n      0xffffffffffffffff\n        /* \"#utility.yul\":10130:10136   */\n      dup2\n        /* \"#utility.yul\":10127:10157   */\n      gt\n        /* \"#utility.yul\":10124:10180   */\n      iszero\n      tag_207\n      jumpi\n        /* \"#utility.yul\":10160:10178   */\n      tag_208\n      tag_71\n      jump\t// in\n    tag_208:\n        /* \"#utility.yul\":10124:10180   */\n    tag_207:\n        /* \"#utility.yul\":10204:10242   */\n      tag_209\n        /* \"#utility.yul\":10236:10240   */\n      dup3\n        /* \"#utility.yul\":10230:10241   */\n      sload\n        /* \"#utility.yul\":10204:10242   */\n      tag_21\n      jump\t// in\n    tag_209:\n        /* \"#utility.yul\":10289:10356   */\n      tag_210\n        /* \"#utility.yul\":10349:10355   */\n      dup3\n        /* \"#utility.yul\":10341:10347   */\n      dup3\n        /* \"#utility.yul\":10335:10339   */\n      dup6\n        /* \"#utility.yul\":10289:10356   */\n      tag_90\n      jump\t// in\n    tag_210:\n        /* \"#utility.yul\":10383:10384   */\n      0x00\n        /* \"#utility.yul\":10407:10411   */\n      0x20\n        /* \"#utility.yul\":10394:10411   */\n      swap1\n      pop\n        /* \"#utility.yul\":10439:10441   */\n      0x1f\n        /* \"#utility.yul\":10431:10437   */\n      dup4\n        /* \"#utility.yul\":10428:10442   */\n      gt\n        /* \"#utility.yul\":10456:10457   */\n      0x01\n        /* \"#utility.yul\":10451:11069   */\n      dup2\n      eq\n      tag_212\n      jumpi\n        /* \"#utility.yul\":11113:11114   */\n      0x00\n        /* \"#utility.yul\":11130:11136   */\n      dup5\n        /* \"#utility.yul\":11127:11204   */\n      iszero\n      tag_213\n      jumpi\n        /* \"#utility.yul\":11179:11188   */\n      dup3\n        /* \"#utility.yul\":11174:11177   */\n      dup8\n        /* \"#utility.yul\":11170:11189   */\n      add\n        /* \"#utility.yul\":11164:11190   */\n      mload\n        /* \"#utility.yul\":11155:11190   */\n      swap1\n      pop\n        /* \"#utility.yul\":11127:11204   */\n    tag_213:\n        /* \"#utility.yul\":11230:11297   */\n      tag_214\n        /* \"#utility.yul\":11290:11296   */\n      dup6\n        /* \"#utility.yul\":11283:11288   */\n      dup3\n        /* \"#utility.yul\":11230:11297   */\n      tag_93\n      jump\t// in\n    tag_214:\n        /* \"#utility.yul\":11224:11228   */\n      dup7\n        /* \"#utility.yul\":11217:11298   */\n      sstore\n        /* \"#utility.yul\":11086:11308   */\n      pop\n        /* \"#utility.yul\":10421:11308   */\n      jump(tag_211)\n        /* \"#utility.yul\":10451:11069   */\n    tag_212:\n        /* \"#utility.yul\":10503:10507   */\n      0x1f\n        /* \"#utility.yul\":10499:10508   */\n      not\n        /* \"#utility.yul\":10491:10497   */\n      dup5\n        /* \"#utility.yul\":10487:10509   */\n      and\n        /* \"#utility.yul\":10537:10574   */\n      tag_215\n        /* \"#utility.yul\":10569:10573   */\n      dup7\n        /* \"#utility.yul\":10537:10574   */\n      tag_79\n      jump\t// in\n    tag_215:\n        /* \"#utility.yul\":10596:10597   */\n      0x00\n        /* \"#utility.yul\":10610:10818   */\n    tag_216:\n        /* \"#utility.yul\":10624:10631   */\n      dup3\n        /* \"#utility.yul\":10621:10622   */\n      dup2\n        /* \"#utility.yul\":10618:10632   */\n      lt\n        /* \"#utility.yul\":10610:10818   */\n      iszero\n      tag_218\n      jumpi\n        /* \"#utility.yul\":10703:10712   */\n      dup5\n        /* \"#utility.yul\":10698:10701   */\n      dup10\n        /* \"#utility.yul\":10694:10713   */\n      add\n        /* \"#utility.yul\":10688:10714   */\n      mload\n        /* \"#utility.yul\":10680:10686   */\n      dup3\n        /* \"#utility.yul\":10673:10715   */\n      sstore\n        /* \"#utility.yul\":10754:10755   */\n      0x01\n        /* \"#utility.yul\":10746:10752   */\n      dup3\n        /* \"#utility.yul\":10742:10756   */\n      add\n        /* \"#utility.yul\":10732:10756   */\n      swap2\n      pop\n        /* \"#utility.yul\":10801:10803   */\n      0x20\n        /* \"#utility.yul\":10790:10799   */\n      dup6\n        /* \"#utility.yul\":10786:10804   */\n      add\n        /* \"#utility.yul\":10773:10804   */\n      swap5\n      pop\n        /* \"#utility.yul\":10647:10651   */\n      0x20\n        /* \"#utility.yul\":10644:10645   */\n      dup2\n        /* \"#utility.yul\":10640:10652   */\n      add\n        /* \"#utility.yul\":10635:10652   */\n      swap1\n      pop\n        /* \"#utility.yul\":10610:10818   */\n      jump(tag_216)\n    tag_218:\n        /* \"#utility.yul\":10846:10852   */\n      dup7\n        /* \"#utility.yul\":10837:10844   */\n      dup4\n        /* \"#utility.yul\":10834:10853   */\n      lt\n        /* \"#utility.yul\":10831:11010   */\n      iszero\n      tag_219\n      jumpi\n        /* \"#utility.yul\":10904:10913   */\n      dup5\n        /* \"#utility.yul\":10899:10902   */\n      dup10\n        /* \"#utility.yul\":10895:10914   */\n      add\n        /* \"#utility.yul\":10889:10915   */\n      mload\n        /* \"#utility.yul\":10947:10995   */\n      tag_220\n        /* \"#utility.yul\":10989:10993   */\n      0x1f\n        /* \"#utility.yul\":10981:10987   */\n      dup10\n        /* \"#utility.yul\":10977:10994   */\n      and\n        /* \"#utility.yul\":10966:10975   */\n      dup3\n        /* \"#utility.yul\":10947:10995   */\n      tag_92\n      jump\t// in\n    tag_220:\n        /* \"#utility.yul\":10939:10945   */\n      dup4\n        /* \"#utility.yul\":10932:10996   */\n      sstore\n        /* \"#utility.yul\":10854:11010   */\n      pop\n        /* \"#utility.yul\":10831:11010   */\n    tag_219:\n        /* \"#utility.yul\":11056:11057   */\n      0x01\n        /* \"#utility.yul\":11052:11053   */\n      0x02\n        /* \"#utility.yul\":11044:11050   */\n      dup9\n        /* \"#utility.yul\":11040:11054   */\n      mul\n        /* \"#utility.yul\":11036:11058   */\n      add\n        /* \"#utility.yul\":11030:11034   */\n      dup9\n        /* \"#utility.yul\":11023:11059   */\n      sstore\n        /* \"#utility.yul\":10458:11069   */\n      pop\n      pop\n      pop\n        /* \"#utility.yul\":10421:11308   */\n    tag_211:\n      pop\n        /* \"#utility.yul\":10011:11314   */\n      pop\n      pop\n      pop\n        /* \"#utility.yul\":9919:11314   */\n      pop\n      pop\n      jump\t// out\n\n    auxdata: 0xa2646970667358221220dbde125a2c1ede23684577f7b4eac5b94bd4ccf372a5bb59ddb6190a500a9ed664736f6c634300081f0033\n}\n",
				"bytecode": {
					"linkReferences": {},
					"object": "6080604052348015600e575f5ffd5b50610b418061001c5f395ff3fe608060405234801561000f575f5ffd5b506004361061003f575f3560e01c8063da2e6c8714610043578063e6505e1e14610076578063f3054b40146100a9575b5f5ffd5b61005d60048036038101906100589190610546565b6100c5565b60405161006d94939291906105f0565b60405180910390f35b610090600480360381019061008b9190610546565b610282565b6040516100a094939291906105f0565b60405180910390f35b6100c360048036038101906100be9190610774565b610481565b005b5f602052805f5260405f205f91509050805f0180546100e39061086c565b80601f016020809104026020016040519081016040528092919081815260200182805461010f9061086c565b801561015a5780601f106101315761010080835404028352916020019161015a565b820191905f5260205f20905b81548152906001019060200180831161013d57829003601f168201915b5050505050908060010154908060020180546101759061086c565b80601f01602080910402602001604051908101604052809291908181526020018280546101a19061086c565b80156101ec5780601f106101c3576101008083540402835291602001916101ec565b820191905f5260205f20905b8154815290600101906020018083116101cf57829003601f168201915b5050505050908060030180546102019061086c565b80601f016020809104026020016040519081016040528092919081815260200182805461022d9061086c565b80156102785780601f1061024f57610100808354040283529160200191610278565b820191905f5260205f20905b81548152906001019060200180831161025b57829003601f168201915b5050505050905084565b60605f6060805f5f8681526020019081526020015f205f015f5f8781526020019081526020015f20600101545f5f8881526020019081526020015f206002015f5f8981526020019081526020015f206003018380546102e09061086c565b80601f016020809104026020016040519081016040528092919081815260200182805461030c9061086c565b80156103575780601f1061032e57610100808354040283529160200191610357565b820191905f5260205f20905b81548152906001019060200180831161033a57829003601f168201915b5050505050935081805461036a9061086c565b80601f01602080910402602001604051908101604052809291908181526020018280546103969061086c565b80156103e15780601f106103b8576101008083540402835291602001916103e1565b820191905f5260205f20905b8154815290600101906020018083116103c457829003601f168201915b505050505091508080546103f49061086c565b80601f01602080910402602001604051908101604052809291908181526020018280546104209061086c565b801561046b5780601f106104425761010080835404028352916020019161046b565b820191905f5260205f20905b81548152906001019060200180831161044e57829003601f168201915b5050505050905093509350935093509193509193565b835f5f8781526020019081526020015f205f0190816104a09190610a3c565b50825f5f8781526020019081526020015f2060010181905550815f5f8781526020019081526020015f2060020190816104d99190610a3c565b50805f5f8781526020019081526020015f2060030190816104fa9190610a3c565b505050505050565b5f604051905090565b5f5ffd5b5f5ffd5b5f819050919050565b61052581610513565b811461052f575f5ffd5b50565b5f813590506105408161051c565b92915050565b5f6020828403121561055b5761055a61050b565b5b5f61056884828501610532565b91505092915050565b5f81519050919050565b5f82825260208201905092915050565b8281835e5f83830152505050565b5f601f19601f8301169050919050565b5f6105b382610571565b6105bd818561057b565b93506105cd81856020860161058b565b6105d681610599565b840191505092915050565b6105ea81610513565b82525050565b5f6080820190508181035f83015261060881876105a9565b905061061760208301866105e1565b818103604083015261062981856105a9565b9050818103606083015261063d81846105a9565b905095945050505050565b5f5ffd5b5f5ffd5b7f4e487b71000000000000000000000000000000000000000000000000000000005f52604160045260245ffd5b61068682610599565b810181811067ffffffffffffffff821117156106a5576106a4610650565b5b80604052505050565b5f6106b7610502565b90506106c3828261067d565b919050565b5f67ffffffffffffffff8211156106e2576106e1610650565b5b6106eb82610599565b9050602081019050919050565b828183375f83830152505050565b5f610718610713846106c8565b6106ae565b9050828152602081018484840111156107345761073361064c565b5b61073f8482856106f8565b509392505050565b5f82601f83011261075b5761075a610648565b5b813561076b848260208601610706565b91505092915050565b5f5f5f5f5f60a0868803121561078d5761078c61050b565b5b5f61079a88828901610532565b955050602086013567ffffffffffffffff8111156107bb576107ba61050f565b5b6107c788828901610747565b94505060406107d888828901610532565b935050606086013567ffffffffffffffff8111156107f9576107f861050f565b5b61080588828901610747565b925050608086013567ffffffffffffffff8111156108265761082561050f565b5b61083288828901610747565b9150509295509295909350565b7f4e487b71000000000000000000000000000000000000000000000000000000005f52602260045260245ffd5b5f600282049050600182168061088357607f821691505b6020821081036108965761089561083f565b5b50919050565b5f819050815f5260205f209050919050565b5f6020601f8301049050919050565b5f82821b905092915050565b5f600883026108f87fffffffffffffffffffffffffffffffffffffffffffffffffffffffffffffffff826108bd565b61090286836108bd565b95508019841693508086168417925050509392505050565b5f819050919050565b5f61093d61093861093384610513565b61091a565b610513565b9050919050565b5f819050919050565b61095683610923565b61096a61096282610944565b8484546108c9565b825550505050565b5f5f905090565b610981610972565b61098c81848461094d565b505050565b5b818110156109af576109a45f82610979565b600181019050610992565b5050565b601f8211156109f4576109c58161089c565b6109ce846108ae565b810160208510156109dd578190505b6109f16109e9856108ae565b830182610991565b50505b505050565b5f82821c905092915050565b5f610a145f19846008026109f9565b1980831691505092915050565b5f610a2c8383610a05565b9150826002028217905092915050565b610a4582610571565b67ffffffffffffffff811115610a5e57610a5d610650565b5b610a68825461086c565b610a738282856109b3565b5f60209050601f831160018114610aa4575f8415610a92578287015190505b610a9c8582610a21565b865550610b03565b601f198416610ab28661089c565b5f5b82811015610ad957848901518255600182019150602085019450602081019050610ab4565b86831015610af65784890151610af2601f891682610a05565b8355505b6001600288020188555050505b50505050505056fea2646970667358221220dbde125a2c1ede23684577f7b4eac5b94bd4ccf372a5bb59ddb6190a500a9ed664736f6c634300081f0033",
					"opcodes": "PUSH1 0x80 PUSH1 0x40 MSTORE CALLVALUE DUP1 ISZERO PUSH1 0xE JUMPI PUSH0 PUSH0 REVERT JUMPDEST POP PUSH2 0xB41 DUP1 PUSH2 0x1C PUSH0 CODECOPY PUSH0 RETURN INVALID PUSH1 0x80 PUSH1 0x40 MSTORE CALLVALUE DUP1 ISZERO PUSH2 0xF JUMPI PUSH0 PUSH0 REVERT JUMPDEST POP PUSH1 0x4 CALLDATASIZE LT PUSH2 0x3F JUMPI PUSH0 CALLDATALOAD PUSH1 0xE0 SHR DUP1 PUSH4 0xDA2E6C87 EQ PUSH2 0x43 JUMPI DUP1 PUSH4 0xE6505E1E EQ PUSH2 0x76 JUMPI DUP1 PUSH4 0xF3054B40 EQ PUSH2 0xA9 JUMPI JUMPDEST PUSH0 PUSH0 REVERT JUMPDEST PUSH2 0x5D PUSH1 0x4 DUP1 CALLDATASIZE SUB DUP2 ADD SWAP1 PUSH2 0x58 SWAP2 SWAP1 PUSH2 0x546 JUMP JUMPDEST PUSH2 0xC5 JUMP JUMPDEST PUSH1 0x40 MLOAD PUSH2 0x6D SWAP5 SWAP4 SWAP3 SWAP2 SWAP1 PUSH2 0x5F0 JUMP JUMPDEST PUSH1 0x40 MLOAD DUP1 SWAP2 SUB SWAP1 RETURN JUMPDEST PUSH2 0x90 PUSH1 0x4 DUP1 CALLDATASIZE SUB DUP2 ADD SWAP1 PUSH2 0x8B SWAP2 SWAP1 PUSH2 0x546 JUMP JUMPDEST PUSH2 0x282 JUMP JUMPDEST PUSH1 0x40 MLOAD PUSH2 0xA0 SWAP5 SWAP4 SWAP3 SWAP2 SWAP1 PUSH2 0x5F0 JUMP JUMPDEST PUSH1 0x40 MLOAD DUP1 SWAP2 SUB SWAP1 RETURN JUMPDEST PUSH2 0xC3 PUSH1 0x4 DUP1 CALLDATASIZE SUB DUP2 ADD SWAP1 PUSH2 0xBE SWAP2 SWAP1 PUSH2 0x774 JUMP JUMPDEST PUSH2 0x481 JUMP JUMPDEST STOP JUMPDEST PUSH0 PUSH1 0x20 MSTORE DUP1 PUSH0 MSTORE PUSH1 0x40 PUSH0 KECCAK256 PUSH0 SWAP2 POP SWAP1 POP DUP1 PUSH0 ADD DUP1 SLOAD PUSH2 0xE3 SWAP1 PUSH2 0x86C JUMP JUMPDEST DUP1 PUSH1 0x1F ADD PUSH1 0x20 DUP1 SWAP2 DIV MUL PUSH1 0x20 ADD PUSH1 0x40 MLOAD SWAP1 DUP2 ADD PUSH1 0x40 MSTORE DUP1 SWAP3 SWAP2 SWAP1 DUP2 DUP2 MSTORE PUSH1 0x20 ADD DUP3 DUP1 SLOAD PUSH2 0x10F SWAP1 PUSH2 0x86C JUMP JUMPDEST DUP1 ISZERO PUSH2 0x15A JUMPI DUP1 PUSH1 0x1F LT PUSH2 0x131 JUMPI PUSH2 0x100 DUP1 DUP4 SLOAD DIV MUL DUP4 MSTORE SWAP2 PUSH1 0x20 ADD SWAP2 PUSH2 0x15A JUMP JUMPDEST DUP3 ADD SWAP2 SWAP1 PUSH0 MSTORE PUSH1 0x20 PUSH0 KECCAK256 SWAP1 JUMPDEST DUP2 SLOAD DUP2 MSTORE SWAP1 PUSH1 0x1 ADD SWAP1 PUSH1 0x20 ADD DUP1 DUP4 GT PUSH2 0x13D JUMPI DUP3 SWAP1 SUB PUSH1 0x1F AND DUP3 ADD SWAP2 JUMPDEST POP POP POP POP POP SWAP1 DUP1 PUSH1 0x1 ADD SLOAD SWAP1 DUP1 PUSH1 0x2 ADD DUP1 SLOAD PUSH2 0x175 SWAP1 PUSH2 0x86C JUMP JUMPDEST DUP1 PUSH1 0x1F ADD PUSH1 0x20 DUP1 SWAP2 DIV MUL PUSH1 0x20 ADD PUSH1 0x40 MLOAD SWAP1 DUP2 ADD PUSH1 0x40 MSTORE DUP1 SWAP3 SWAP2 SWAP1 DUP2 DUP2 MSTORE PUSH1 0x20 ADD DUP3 DUP1 SLOAD PUSH2 0x1A1 SWAP1 PUSH2 0x86C JUMP JUMPDEST DUP1 ISZERO PUSH2 0x1EC JUMPI DUP1 PUSH1 0x1F LT PUSH2 0x1C3 JUMPI PUSH2 0x100 DUP1 DUP4 SLOAD DIV MUL DUP4 MSTORE SWAP2 PUSH1 0x20 ADD SWAP2 PUSH2 0x1EC JUMP JUMPDEST DUP3 ADD SWAP2 SWAP1 PUSH0 MSTORE PUSH1 0x20 PUSH0 KECCAK256 SWAP1 JUMPDEST DUP2 SLOAD DUP2 MSTORE SWAP1 PUSH1 0x1 ADD SWAP1 PUSH1 0x20 ADD DUP1 DUP4 GT PUSH2 0x1CF JUMPI DUP3 SWAP1 SUB PUSH1 0x1F AND DUP3 ADD SWAP2 JUMPDEST POP POP POP POP POP SWAP1 DUP1 PUSH1 0x3 ADD DUP1 SLOAD PUSH2 0x201 SWAP1 PUSH2 0x86C JUMP JUMPDEST DUP1 PUSH1 0x1F ADD PUSH1 0x20 DUP1 SWAP2 DIV MUL PUSH1 0x20 ADD PUSH1 0x40 MLOAD SWAP1 DUP2 ADD PUSH1 0x40 MSTORE DUP1 SWAP3 SWAP2 SWAP1 DUP2 DUP2 MSTORE PUSH1 0x20 ADD DUP3 DUP1 SLOAD PUSH2 0x22D SWAP1 PUSH2 0x86C JUMP JUMPDEST DUP1 ISZERO PUSH2 0x278 JUMPI DUP1 PUSH1 0x1F LT PUSH2 0x24F JUMPI PUSH2 0x100 DUP1 DUP4 SLOAD DIV MUL DUP4 MSTORE SWAP2 PUSH1 0x20 ADD SWAP2 PUSH2 0x278 JUMP JUMPDEST DUP3 ADD SWAP2 SWAP1 PUSH0 MSTORE PUSH1 0x20 PUSH0 KECCAK256 SWAP1 JUMPDEST DUP2 SLOAD DUP2 MSTORE SWAP1 PUSH1 0x1 ADD SWAP1 PUSH1 0x20 ADD DUP1 DUP4 GT PUSH2 0x25B JUMPI DUP3 SWAP1 SUB PUSH1 0x1F AND DUP3 ADD SWAP2 JUMPDEST POP POP POP POP POP SWAP1 POP DUP5 JUMP JUMPDEST PUSH1 0x60 PUSH0 PUSH1 0x60 DUP1 PUSH0 PUSH0 DUP7 DUP2 MSTORE PUSH1 0x20 ADD SWAP1 DUP2 MSTORE PUSH1 0x20 ADD PUSH0 KECCAK256 PUSH0 ADD PUSH0 PUSH0 DUP8 DUP2 MSTORE PUSH1 0x20 ADD SWAP1 DUP2 MSTORE PUSH1 0x20 ADD PUSH0 KECCAK256 PUSH1 0x1 ADD SLOAD PUSH0 PUSH0 DUP9 DUP2 MSTORE PUSH1 0x20 ADD SWAP1 DUP2 MSTORE PUSH1 0x20 ADD PUSH0 KECCAK256 PUSH1 0x2 ADD PUSH0 PUSH0 DUP10 DUP2 MSTORE PUSH1 0x20 ADD SWAP1 DUP2 MSTORE PUSH1 0x20 ADD PUSH0 KECCAK256 PUSH1 0x3 ADD DUP4 DUP1 SLOAD PUSH2 0x2E0 SWAP1 PUSH2 0x86C JUMP JUMPDEST DUP1 PUSH1 0x1F ADD PUSH1 0x20 DUP1 SWAP2 DIV MUL PUSH1 0x20 ADD PUSH1 0x40 MLOAD SWAP1 DUP2 ADD PUSH1 0x40 MSTORE DUP1 SWAP3 SWAP2 SWAP1 DUP2 DUP2 MSTORE PUSH1 0x20 ADD DUP3 DUP1 SLOAD PUSH2 0x30C SWAP1 PUSH2 0x86C JUMP JUMPDEST DUP1 ISZERO PUSH2 0x357 JUMPI DUP1 PUSH1 0x1F LT PUSH2 0x32E JUMPI PUSH2 0x100 DUP1 DUP4 SLOAD DIV MUL DUP4 MSTORE SWAP2 PUSH1 0x20 ADD SWAP2 PUSH2 0x357 JUMP JUMPDEST DUP3 ADD SWAP2 SWAP1 PUSH0 MSTORE PUSH1 0x20 PUSH0 KECCAK256 SWAP1 JUMPDEST DUP2 SLOAD DUP2 MSTORE SWAP1 PUSH1 0x1 ADD SWAP1 PUSH1 0x20 ADD DUP1 DUP4 GT PUSH2 0x33A JUMPI DUP3 SWAP1 SUB PUSH1 0x1F AND DUP3 ADD SWAP2 JUMPDEST POP POP POP POP POP SWAP4 POP DUP2 DUP1 SLOAD PUSH2 0x36A SWAP1 PUSH2 0x86C JUMP JUMPDEST DUP1 PUSH1 0x1F ADD PUSH1 0x20 DUP1 SWAP2 DIV MUL PUSH1 0x20 ADD PUSH1 0x40 MLOAD SWAP1 DUP2 ADD PUSH1 0x40 MSTORE DUP1 SWAP3 SWAP2 SWAP1 DUP2 DUP2 MSTORE PUSH1 0x20 ADD DUP3 DUP1 SLOAD PUSH2 0x396 SWAP1 PUSH2 0x86C JUMP JUMPDEST DUP1 ISZERO PUSH2 0x3E1 JUMPI DUP1 PUSH1 0x1F LT PUSH2 0x3B8 JUMPI PUSH2 0x100 DUP1 DUP4 SLOAD DIV MUL DUP4 MSTORE SWAP2 PUSH1 0x20 ADD SWAP2 PUSH2 0x3E1 JUMP JUMPDEST DUP3 ADD SWAP2 SWAP1 PUSH0 MSTORE PUSH1 0x20 PUSH0 KECCAK256 SWAP1 JUMPDEST DUP2 SLOAD DUP2 MSTORE SWAP1 PUSH1 0x1 ADD SWAP1 PUSH1 0x20 ADD DUP1 DUP4 GT PUSH2 0x3C4 JUMPI DUP3 SWAP1 SUB PUSH1 0x1F AND DUP3 ADD SWAP2 JUMPDEST POP POP POP POP POP SWAP2 POP DUP1 DUP1 SLOAD PUSH2 0x3F4 SWAP1 PUSH2 0x86C JUMP JUMPDEST DUP1 PUSH1 0x1F ADD PUSH1 0x20 DUP1 SWAP2 DIV MUL PUSH1 0x20 ADD PUSH1 0x40 MLOAD SWAP1 DUP2 ADD PUSH1 0x40 MSTORE DUP1 SWAP3 SWAP2 SWAP1 DUP2 DUP2 MSTORE PUSH1 0x20 ADD DUP3 DUP1 SLOAD PUSH2 0x420 SWAP1 PUSH2 0x86C JUMP JUMPDEST DUP1 ISZERO PUSH2 0x46B JUMPI DUP1 PUSH1 0x1F LT PUSH2 0x442 JUMPI PUSH2 0x100 DUP1 DUP4 SLOAD DIV MUL DUP4 MSTORE SWAP2 PUSH1 0x20 ADD SWAP2 PUSH2 0x46B JUMP JUMPDEST DUP3 ADD SWAP2 SWAP1 PUSH0 MSTORE PUSH1 0x20 PUSH0 KECCAK256 SWAP1 JUMPDEST DUP2 SLOAD DUP2 MSTORE SWAP1 PUSH1 0x1 ADD SWAP1 PUSH1 0x20 ADD DUP1 DUP4 GT PUSH2 0x44E JUMPI DUP3 SWAP1 SUB PUSH1 0x1F AND DUP3 ADD SWAP2 JUMPDEST POP POP POP POP POP SWAP1 POP SWAP4 POP SWAP4 POP SWAP4 POP SWAP4 POP SWAP2 SWAP4 POP SWAP2 SWAP4 JUMP JUMPDEST DUP4 PUSH0 PUSH0 DUP8 DUP2 MSTORE PUSH1 0x20 ADD SWAP1 DUP2 MSTORE PUSH1 0x20 ADD PUSH0 KECCAK256 PUSH0 ADD SWAP1 DUP2 PUSH2 0x4A0 SWAP2 SWAP1 PUSH2 0xA3C JUMP JUMPDEST POP DUP3 PUSH0 PUSH0 DUP8 DUP2 MSTORE PUSH1 0x20 ADD SWAP1 DUP2 MSTORE PUSH1 0x20 ADD PUSH0 KECCAK256 PUSH1 0x1 ADD DUP2 SWAP1 SSTORE POP DUP2 PUSH0 PUSH0 DUP8 DUP2 MSTORE PUSH1 0x20 ADD SWAP1 DUP2 MSTORE PUSH1 0x20 ADD PUSH0 KECCAK256 PUSH1 0x2 ADD SWAP1 DUP2 PUSH2 0x4D9 SWAP2 SWAP1 PUSH2 0xA3C JUMP JUMPDEST POP DUP1 PUSH0 PUSH0 DUP8 DUP2 MSTORE PUSH1 0x20 ADD SWAP1 DUP2 MSTORE PUSH1 0x20 ADD PUSH0 KECCAK256 PUSH1 0x3 ADD SWAP1 DUP2 PUSH2 0x4FA SWAP2 SWAP1 PUSH2 0xA3C JUMP JUMPDEST POP POP POP POP POP POP JUMP JUMPDEST PUSH0 PUSH1 0x40 MLOAD SWAP1 POP SWAP1 JUMP JUMPDEST PUSH0 PUSH0 REVERT JUMPDEST PUSH0 PUSH0 REVERT JUMPDEST PUSH0 DUP2 SWAP1 POP SWAP2 SWAP1 POP JUMP JUMPDEST PUSH2 0x525 DUP2 PUSH2 0x513 JUMP JUMPDEST DUP2 EQ PUSH2 0x52F JUMPI PUSH0 PUSH0 REVERT JUMPDEST POP JUMP JUMPDEST PUSH0 DUP2 CALLDATALOAD SWAP1 POP PUSH2 0x540 DUP2 PUSH2 0x51C JUMP JUMPDEST SWAP3 SWAP2 POP POP JUMP JUMPDEST PUSH0 PUSH1 0x20 DUP3 DUP5 SUB SLT ISZERO PUSH2 0x55B JUMPI PUSH2 0x55A PUSH2 0x50B JUMP JUMPDEST JUMPDEST PUSH0 PUSH2 0x568 DUP5 DUP3 DUP6 ADD PUSH2 0x532 JUMP JUMPDEST SWAP2 POP POP SWAP3 SWAP2 POP POP JUMP JUMPDEST PUSH0 DUP2 MLOAD SWAP1 POP SWAP2 SWAP1 POP JUMP JUMPDEST PUSH0 DUP3 DUP3 MSTORE PUSH1 0x20 DUP3 ADD SWAP1 POP SWAP3 SWAP2 POP POP JUMP JUMPDEST DUP3 DUP2 DUP4 MCOPY PUSH0 DUP4 DUP4 ADD MSTORE POP POP POP JUMP JUMPDEST PUSH0 PUSH1 0x1F NOT PUSH1 0x1F DUP4 ADD AND SWAP1 POP SWAP2 SWAP1 POP JUMP JUMPDEST PUSH0 PUSH2 0x5B3 DUP3 PUSH2 0x571 JUMP JUMPDEST PUSH2 0x5BD DUP2 DUP6 PUSH2 0x57B JUMP JUMPDEST SWAP4 POP PUSH2 0x5CD DUP2 DUP6 PUSH1 0x20 DUP7 ADD PUSH2 0x58B JUMP JUMPDEST PUSH2 0x5D6 DUP2 PUSH2 0x599 JUMP JUMPDEST DUP5 ADD SWAP2 POP POP SWAP3 SWAP2 POP POP JUMP JUMPDEST PUSH2 0x5EA DUP2 PUSH2 0x513 JUMP JUMPDEST DUP3 MSTORE POP POP JUMP JUMPDEST PUSH0 PUSH1 0x80 DUP3 ADD SWAP1 POP DUP2 DUP2 SUB PUSH0 DUP4 ADD MSTORE PUSH2 0x608 DUP2 DUP8 PUSH2 0x5A9 JUMP JUMPDEST SWAP1 POP PUSH2 0x617 PUSH1 0x20 DUP4 ADD DUP7 PUSH2 0x5E1 JUMP JUMPDEST DUP2 DUP2 SUB PUSH1 0x40 DUP4 ADD MSTORE PUSH2 0x629 DUP2 DUP6 PUSH2 0x5A9 JUMP JUMPDEST SWAP1 POP DUP2 DUP2 SUB PUSH1 0x60 DUP4 ADD MSTORE PUSH2 0x63D DUP2 DUP5 PUSH2 0x5A9 JUMP JUMPDEST SWAP1 POP SWAP6 SWAP5 POP POP POP POP POP JUMP JUMPDEST PUSH0 PUSH0 REVERT JUMPDEST PUSH0 PUSH0 REVERT JUMPDEST PUSH32 0x4E487B7100000000000000000000000000000000000000000000000000000000 PUSH0 MSTORE PUSH1 0x41 PUSH1 0x4 MSTORE PUSH1 0x24 PUSH0 REVERT JUMPDEST PUSH2 0x686 DUP3 PUSH2 0x599 JUMP JUMPDEST DUP2 ADD DUP2 DUP2 LT PUSH8 0xFFFFFFFFFFFFFFFF DUP3 GT OR ISZERO PUSH2 0x6A5 JUMPI PUSH2 0x6A4 PUSH2 0x650 JUMP JUMPDEST JUMPDEST DUP1 PUSH1 0x40 MSTORE POP POP POP JUMP JUMPDEST PUSH0 PUSH2 0x6B7 PUSH2 0x502 JUMP JUMPDEST SWAP1 POP PUSH2 0x6C3 DUP3 DUP3 PUSH2 0x67D JUMP JUMPDEST SWAP2 SWAP1 POP JUMP JUMPDEST PUSH0 PUSH8 0xFFFFFFFFFFFFFFFF DUP3 GT ISZERO PUSH2 0x6E2 JUMPI PUSH2 0x6E1 PUSH2 0x650 JUMP JUMPDEST JUMPDEST PUSH2 0x6EB DUP3 PUSH2 0x599 JUMP JUMPDEST SWAP1 POP PUSH1 0x20 DUP2 ADD SWAP1 POP SWAP2 SWAP1 POP JUMP JUMPDEST DUP3 DUP2 DUP4 CALLDATACOPY PUSH0 DUP4 DUP4 ADD MSTORE POP POP POP JUMP JUMPDEST PUSH0 PUSH2 0x718 PUSH2 0x713 DUP5 PUSH2 0x6C8 JUMP JUMPDEST PUSH2 0x6AE JUMP JUMPDEST SWAP1 POP DUP3 DUP2 MSTORE PUSH1 0x20 DUP2 ADD DUP5 DUP5 DUP5 ADD GT ISZERO PUSH2 0x734 JUMPI PUSH2 0x733 PUSH2 0x64C JUMP JUMPDEST JUMPDEST PUSH2 0x73F DUP5 DUP3 DUP6 PUSH2 0x6F8 JUMP JUMPDEST POP SWAP4 SWAP3 POP POP POP JUMP JUMPDEST PUSH0 DUP3 PUSH1 0x1F DUP4 ADD SLT PUSH2 0x75B JUMPI PUSH2 0x75A PUSH2 0x648 JUMP JUMPDEST JUMPDEST DUP2 CALLDATALOAD PUSH2 0x76B DUP5 DUP3 PUSH1 0x20 DUP7 ADD PUSH2 0x706 JUMP JUMPDEST SWAP2 POP POP SWAP3 SWAP2 POP POP JUMP JUMPDEST PUSH0 PUSH0 PUSH0 PUSH0 PUSH0 PUSH1 0xA0 DUP7 DUP9 SUB SLT ISZERO PUSH2 0x78D JUMPI PUSH2 0x78C PUSH2 0x50B JUMP JUMPDEST JUMPDEST PUSH0 PUSH2 0x79A DUP9 DUP3 DUP10 ADD PUSH2 0x532 JUMP JUMPDEST SWAP6 POP POP PUSH1 0x20 DUP7 ADD CALLDATALOAD PUSH8 0xFFFFFFFFFFFFFFFF DUP2 GT ISZERO PUSH2 0x7BB JUMPI PUSH2 0x7BA PUSH2 0x50F JUMP JUMPDEST JUMPDEST PUSH2 0x7C7 DUP9 DUP3 DUP10 ADD PUSH2 0x747 JUMP JUMPDEST SWAP5 POP POP PUSH1 0x40 PUSH2 0x7D8 DUP9 DUP3 DUP10 ADD PUSH2 0x532 JUMP JUMPDEST SWAP4 POP POP PUSH1 0x60 DUP7 ADD CALLDATALOAD PUSH8 0xFFFFFFFFFFFFFFFF DUP2 GT ISZERO PUSH2 0x7F9 JUMPI PUSH2 0x7F8 PUSH2 0x50F JUMP JUMPDEST JUMPDEST PUSH2 0x805 DUP9 DUP3 DUP10 ADD PUSH2 0x747 JUMP JUMPDEST SWAP3 POP POP PUSH1 0x80 DUP7 ADD CALLDATALOAD PUSH8 0xFFFFFFFFFFFFFFFF DUP2 GT ISZERO PUSH2 0x826 JUMPI PUSH2 0x825 PUSH2 0x50F JUMP JUMPDEST JUMPDEST PUSH2 0x832 DUP9 DUP3 DUP10 ADD PUSH2 0x747 JUMP JUMPDEST SWAP2 POP POP SWAP3 SWAP6 POP SWAP3 SWAP6 SWAP1 SWAP4 POP JUMP JUMPDEST PUSH32 0x4E487B7100000000000000000000000000000000000000000000000000000000 PUSH0 MSTORE PUSH1 0x22 PUSH1 0x4 MSTORE PUSH1 0x24 PUSH0 REVERT JUMPDEST PUSH0 PUSH1 0x2 DUP3 DIV SWAP1 POP PUSH1 0x1 DUP3 AND DUP1 PUSH2 0x883 JUMPI PUSH1 0x7F DUP3 AND SWAP2 POP JUMPDEST PUSH1 0x20 DUP3 LT DUP2 SUB PUSH2 0x896 JUMPI PUSH2 0x895 PUSH2 0x83F JUMP JUMPDEST JUMPDEST POP SWAP2 SWAP1 POP JUMP JUMPDEST PUSH0 DUP2 SWAP1 POP DUP2 PUSH0 MSTORE PUSH1 0x20 PUSH0 KECCAK256 SWAP1 POP SWAP2 SWAP1 POP JUMP JUMPDEST PUSH0 PUSH1 0x20 PUSH1 0x1F DUP4 ADD DIV SWAP1 POP SWAP2 SWAP1 POP JUMP JUMPDEST PUSH0 DUP3 DUP3 SHL SWAP1 POP SWAP3 SWAP2 POP POP JUMP JUMPDEST PUSH0 PUSH1 0x8 DUP4 MUL PUSH2 0x8F8 PUSH32 0xFFFFFFFFFFFFFFFFFFFFFFFFFFFFFFFFFFFFFFFFFFFFFFFFFFFFFFFFFFFFFFFF DUP3 PUSH2 0x8BD JUMP JUMPDEST PUSH2 0x902 DUP7 DUP4 PUSH2 0x8BD JUMP JUMPDEST SWAP6 POP DUP1 NOT DUP5 AND SWAP4 POP DUP1 DUP7 AND DUP5 OR SWAP3 POP POP POP SWAP4 SWAP3 POP POP POP JUMP JUMPDEST PUSH0 DUP2 SWAP1 POP SWAP2 SWAP1 POP JUMP JUMPDEST PUSH0 PUSH2 0x93D PUSH2 0x938 PUSH2 0x933 DUP5 PUSH2 0x513 JUMP JUMPDEST PUSH2 0x91A JUMP JUMPDEST PUSH2 0x513 JUMP JUMPDEST SWAP1 POP SWAP2 SWAP1 POP JUMP JUMPDEST PUSH0 DUP2 SWAP1 POP SWAP2 SWAP1 POP JUMP JUMPDEST PUSH2 0x956 DUP4 PUSH2 0x923 JUMP JUMPDEST PUSH2 0x96A PUSH2 0x962 DUP3 PUSH2 0x944 JUMP JUMPDEST DUP5 DUP5 SLOAD PUSH2 0x8C9 JUMP JUMPDEST DUP3 SSTORE POP POP POP POP JUMP JUMPDEST PUSH0 PUSH0 SWAP1 POP SWAP1 JUMP JUMPDEST PUSH2 0x981 PUSH2 0x972 JUMP JUMPDEST PUSH2 0x98C DUP2 DUP5 DUP5 PUSH2 0x94D JUMP JUMPDEST POP POP POP JUMP JUMPDEST JUMPDEST DUP2 DUP2 LT ISZERO PUSH2 0x9AF JUMPI PUSH2 0x9A4 PUSH0 DUP3 PUSH2 0x979 JUMP JUMPDEST PUSH1 0x1 DUP2 ADD SWAP1 POP PUSH2 0x992 JUMP JUMPDEST POP POP JUMP JUMPDEST PUSH1 0x1F DUP3 GT ISZERO PUSH2 0x9F4 JUMPI PUSH2 0x9C5 DUP2 PUSH2 0x89C JUMP JUMPDEST PUSH2 0x9CE DUP5 PUSH2 0x8AE JUMP JUMPDEST DUP2 ADD PUSH1 0x20 DUP6 LT ISZERO PUSH2 0x9DD JUMPI DUP2 SWAP1 POP JUMPDEST PUSH2 0x9F1 PUSH2 0x9E9 DUP6 PUSH2 0x8AE JUMP JUMPDEST DUP4 ADD DUP3 PUSH2 0x991 JUMP JUMPDEST POP POP JUMPDEST POP POP POP JUMP JUMPDEST PUSH0 DUP3 DUP3 SHR SWAP1 POP SWAP3 SWAP2 POP POP JUMP JUMPDEST PUSH0 PUSH2 0xA14 PUSH0 NOT DUP5 PUSH1 0x8 MUL PUSH2 0x9F9 JUMP JUMPDEST NOT DUP1 DUP4 AND SWAP2 POP POP SWAP3 SWAP2 POP POP JUMP JUMPDEST PUSH0 PUSH2 0xA2C DUP4 DUP4 PUSH2 0xA05 JUMP JUMPDEST SWAP2 POP DUP3 PUSH1 0x2 MUL DUP3 OR SWAP1 POP SWAP3 SWAP2 POP POP JUMP JUMPDEST PUSH2 0xA45 DUP3 PUSH2 0x571 JUMP JUMPDEST PUSH8 0xFFFFFFFFFFFFFFFF DUP2 GT ISZERO PUSH2 0xA5E JUMPI PUSH2 0xA5D PUSH2 0x650 JUMP JUMPDEST JUMPDEST PUSH2 0xA68 DUP3 SLOAD PUSH2 0x86C JUMP JUMPDEST PUSH2 0xA73 DUP3 DUP3 DUP6 PUSH2 0x9B3 JUMP JUMPDEST PUSH0 PUSH1 0x20 SWAP1 POP PUSH1 0x1F DUP4 GT PUSH1 0x1 DUP2 EQ PUSH2 0xAA4 JUMPI PUSH0 DUP5 ISZERO PUSH2 0xA92 JUMPI DUP3 DUP8 ADD MLOAD SWAP1 POP JUMPDEST PUSH2 0xA9C DUP6 DUP3 PUSH2 0xA21 JUMP JUMPDEST DUP7 SSTORE POP PUSH2 0xB03 JUMP JUMPDEST PUSH1 0x1F NOT DUP5 AND PUSH2 0xAB2 DUP7 PUSH2 0x89C JUMP JUMPDEST PUSH0 JUMPDEST DUP3 DUP2 LT ISZERO PUSH2 0xAD9 JUMPI DUP5 DUP10 ADD MLOAD DUP3 SSTORE PUSH1 0x1 DUP3 ADD SWAP2 POP PUSH1 0x20 DUP6 ADD SWAP5 POP PUSH1 0x20 DUP2 ADD SWAP1 POP PUSH2 0xAB4 JUMP JUMPDEST DUP7 DUP4 LT ISZERO PUSH2 0xAF6 JUMPI DUP5 DUP10 ADD MLOAD PUSH2 0xAF2 PUSH1 0x1F DUP10 AND DUP3 PUSH2 0xA05 JUMP JUMPDEST DUP4 SSTORE POP JUMPDEST PUSH1 0x1 PUSH1 0x2 DUP9 MUL ADD DUP9 SSTORE POP POP POP JUMPDEST POP POP POP POP POP POP JUMP INVALID LOG2 PUSH5 0x6970667358 0x22 SLT KECCAK256 0xDB 0xDE SLT GAS 0x2C CLZ 0xDE 0x23 PUSH9 0x4577F7B4EAC5B94BD4 0xCC RETURN PUSH19 0xA5BB59DDB6190A500A9ED664736F6C63430008 0x1F STOP CALLER "
				},
				"gasEstimates": {
					"creation": {
						"codeDepositCost": "576200",
						"executionCost": "611",
						"totalCost": "576811"
					},
					"external": {
						"Contacts(uint256)": "infinite",
						"addContact(uint256,string,uint256,string,string)": "infinite",
						"getContact(uint256)": "infinite"
					}
				},
				"methodIdentifiers": {
					"Contacts(uint256)": "da2e6c87",
					"addContact(uint256,string,uint256,string,string)": "f3054b40",
					"getContact(uint256)": "e6505e1e"
				}
			},
			"storageLayout": {
				"storage": [
					{
						"astId": 15,
						"contract": "Class_5_6 (13 & 16.3.26)/mappingEg.sol:ContactDetails",
						"label": "Contacts",
						"offset": 0,
						"slot": "0",
						"type": "t_mapping(t_uint256,t_struct(contact)10_storage)"
					}
				],
				"types": {
					"t_mapping(t_uint256,t_struct(contact)10_storage)": {
						"encoding": "mapping",
						"key": "t_uint256",
						"label": "mapping(uint256 => struct ContactDetails.contact)",
						"numberOfBytes": "32",
						"value": "t_struct(contact)10_storage"
					},
					"t_string_storage": {
						"encoding": "bytes",
						"label": "string",
						"numberOfBytes": "32"
					},
					"t_struct(contact)10_storage": {
						"encoding": "inplace",
						"label": "struct ContactDetails.contact",
						"members": [
							{
								"astId": 3,
								"contract": "Class_5_6 (13 & 16.3.26)/mappingEg.sol:ContactDetails",
								"label": "name",
								"offset": 0,
								"slot": "0",
								"type": "t_string_storage"
							},
							{
								"astId": 5,
								"contract": "Class_5_6 (13 & 16.3.26)/mappingEg.sol:ContactDetails",
								"label": "phNo",
								"offset": 0,
								"slot": "1",
								"type": "t_uint256"
							},
							{
								"astId": 7,
								"contract": "Class_5_6 (13 & 16.3.26)/mappingEg.sol:ContactDetails",
								"label": "email",
								"offset": 0,
								"slot": "2",
								"type": "t_string_storage"
							},
							{
								"astId": 9,
								"contract": "Class_5_6 (13 & 16.3.26)/mappingEg.sol:ContactDetails",
								"label": "Address",
								"offset": 0,
								"slot": "3",
								"type": "t_string_storage"
							}
						],
						"numberOfBytes": "128"
					},
					"t_uint256": {
						"encoding": "inplace",
						"label": "uint256",
						"numberOfBytes": "32"
					}
				}
			},
			"userdoc": {
				"kind": "user",
				"methods": {},
				"version": 1
			}
		}
	}
}