{
	"Class_5_6 (13 & 16.3.26)/StructEg.sol": {
		"StructEg": {
			"abi": [
				{
					"inputs": [
						{
							"internalType": "string",
							"name": "_name",
							"type": "string"
						},
						{
							"internalType": "uint256",
							"name": "_id",
							"type": "uint256"
						},
						{
							"internalType": "string",
							"name": "_course",
							"type": "string"
						},
						{
							"internalType": "enum StructEg.year",
							"name": "_studentYear",
							"type": "uint8"
						},
						{
							"internalType": "bool",
							"name": "_completion",
							"type": "bool"
						}
					],
					"name": "AddStudents",
					"outputs": [],
					"stateMutability": "nonpayable",
					"type": "function"
				},
				{
					"inputs": [
						{
							"internalType": "uint256",
							"name": "index",
							"type": "uint256"
						}
					],
					"name": "getStudent",
					"outputs": [
						{
							"internalType": "string",
							"name": "",
							"type": "string"
						},
						{
							"internalType": "uint256",
							"name": "",
							"type": "uint256"
						},
						{
							"internalType": "string",
							"name": "",
							"type": "string"
						},
						{
							"internalType": "enum StructEg.year",
							"name": "",
							"type": "uint8"
						},
						{
							"internalType": "bool",
							"name": "",
							"type": "bool"
						}
					],
					"stateMutability": "view",
					"type": "function"
				}
			],
			"devdoc": {
				"kind": "dev",
				"methods": {},
				"version": 1
			},
			"evm": {
				"assembly": "    /* \"Class_5_6 (13 & 16.3.26)/StructEg.sol\":60:861  contract StructEg{... */\n  mstore(0x40, 0x80)\n  callvalue\n  dup1\n  iszero\n  tag_1\n  jumpi\n  revert(0x00, 0x00)\ntag_1:\n  pop\n  dataSize(sub_0)\n  dup1\n  dataOffset(sub_0)\n  0x00\n  codecopy\n  0x00\n  return\nstop\n\nsub_0: assembly {\n        /* \"Class_5_6 (13 & 16.3.26)/StructEg.sol\":60:861  contract StructEg{... */\n      mstore(0x40, 0x80)\n      callvalue\n      dup1\n      iszero\n      tag_1\n      jumpi\n      revert(0x00, 0x00)\n    tag_1:\n      pop\n      jumpi(tag_2, lt(calldatasize, 0x04))\n      shr(0xe0, calldataload(0x00))\n      dup1\n      0x3af750c6\n      eq\n      tag_3\n      jumpi\n      dup1\n      0x642f9163\n      eq\n      tag_4\n      jumpi\n    tag_2:\n      revert(0x00, 0x00)\n        /* \"Class_5_6 (13 & 16.3.26)/StructEg.sol\":384:592  function AddStudents(string memory _name, uint _id, string memory _course , year _studentYear, bool _completion) public{... */\n    tag_3:\n      tag_5\n      0x04\n      dup1\n      calldatasize\n      sub\n      dup2\n      add\n      swap1\n      tag_6\n      swap2\n      swap1\n      tag_7\n      jump\t// in\n    tag_6:\n      tag_8\n      jump\t// in\n    tag_5:\n      stop\n        /* \"Class_5_6 (13 & 16.3.26)/StructEg.sol\":600:858  function getStudent(uint index) public view returns(string memory, uint, string memory, year, bool){... */\n    tag_4:\n      tag_9\n      0x04\n      dup1\n      calldatasize\n      sub\n      dup2\n      add\n      swap1\n      tag_10\n      swap2\n      swap1\n      tag_11\n      jump\t// in\n    tag_10:\n      tag_12\n      jump\t// in\n    tag_9:\n      mload(0x40)\n      tag_13\n      swap6\n      swap5\n      swap4\n      swap3\n      swap2\n      swap1\n      tag_14\n      jump\t// in\n    tag_13:\n      mload(0x40)\n      dup1\n      swap2\n      sub\n      swap1\n      return\n        /* \"Class_5_6 (13 & 16.3.26)/StructEg.sol\":384:592  function AddStudents(string memory _name, uint _id, string memory _course , year _studentYear, bool _completion) public{... */\n    tag_8:\n        /* \"Class_5_6 (13 & 16.3.26)/StructEg.sol\":514:522  students */\n      0x01\n        /* \"Class_5_6 (13 & 16.3.26)/StructEg.sol\":528:583  Student(_name, _id, _course, _studentYear, _completion) */\n      mload(0x40)\n      dup1\n      0xa0\n      add\n      0x40\n      mstore\n      dup1\n        /* \"Class_5_6 (13 & 16.3.26)/StructEg.sol\":536:541  _name */\n      dup8\n        /* \"Class_5_6 (13 & 16.3.26)/StructEg.sol\":528:583  Student(_name, _id, _course, _studentYear, _completion) */\n      dup2\n      mstore\n      0x20\n      add\n        /* \"Class_5_6 (13 & 16.3.26)/StructEg.sol\":543:546  _id */\n      dup7\n        /* \"Class_5_6 (13 & 16.3.26)/StructEg.sol\":528:583  Student(_name, _id, _course, _studentYear, _completion) */\n      dup2\n      mstore\n      0x20\n      add\n        /* \"Class_5_6 (13 & 16.3.26)/StructEg.sol\":548:555  _course */\n      dup6\n        /* \"Class_5_6 (13 & 16.3.26)/StructEg.sol\":528:583  Student(_name, _id, _course, _studentYear, _completion) */\n      dup2\n      mstore\n      0x20\n      add\n        /* \"Class_5_6 (13 & 16.3.26)/StructEg.sol\":557:569  _studentYear */\n      dup5\n        /* \"Class_5_6 (13 & 16.3.26)/StructEg.sol\":528:583  Student(_name, _id, _course, _studentYear, _completion) */\n      0x02\n      dup2\n      gt\n      iszero\n      tag_16\n      jumpi\n      tag_17\n      tag_18\n      jump\t// in\n    tag_17:\n    tag_16:\n      dup2\n      mstore\n      0x20\n      add\n        /* \"Class_5_6 (13 & 16.3.26)/StructEg.sol\":571:582  _completion */\n      dup4\n        /* \"Class_5_6 (13 & 16.3.26)/StructEg.sol\":528:583  Student(_name, _id, _course, _studentYear, _completion) */\n      iszero\n      iszero\n      dup2\n      mstore\n      pop\n        /* \"Class_5_6 (13 & 16.3.26)/StructEg.sol\":514:584  students.push(Student(_name, _id, _course, _studentYear, _completion)) */\n      swap1\n      dup1\n      0x01\n      dup2\n      sload\n      add\n      dup1\n      dup3\n      sstore\n      dup1\n      swap2\n      pop\n      pop\n      0x01\n      swap1\n      sub\n      swap1\n      0x00\n      mstore\n      keccak256(0x00, 0x20)\n      swap1\n      0x04\n      mul\n      add\n      0x00\n      swap1\n      swap2\n      swap1\n      swap2\n      swap1\n      swap2\n      pop\n      0x00\n      dup3\n      add\n      mload\n      dup2\n      0x00\n      add\n      swap1\n      dup2\n      tag_20\n      swap2\n      swap1\n      tag_21\n      jump\t// in\n    tag_20:\n      pop\n      0x20\n      dup3\n      add\n      mload\n      dup2\n      0x01\n      add\n      sstore\n      0x40\n      dup3\n      add\n      mload\n      dup2\n      0x02\n      add\n      swap1\n      dup2\n      tag_22\n      swap2\n      swap1\n      tag_21\n      jump\t// in\n    tag_22:\n      pop\n      0x60\n      dup3\n      add\n      mload\n      dup2\n      0x03\n      add\n      exp(0x0100, 0x00)\n      dup2\n      sload\n      dup2\n      0xff\n      mul\n      not\n      and\n      swap1\n      dup4\n      0x02\n      dup2\n      gt\n      iszero\n      tag_23\n      jumpi\n      tag_24\n      tag_18\n      jump\t// in\n    tag_24:\n    tag_23:\n      mul\n      or\n      swap1\n      sstore\n      pop\n      0x80\n      dup3\n      add\n      mload\n      dup2\n      0x03\n      add\n      exp(0x0100, 0x01)\n      dup2\n      sload\n      dup2\n      0xff\n      mul\n      not\n      and\n      swap1\n      dup4\n      iszero\n      iszero\n      mul\n      or\n      swap1\n      sstore\n      pop\n      pop\n      pop\n        /* \"Class_5_6 (13 & 16.3.26)/StructEg.sol\":384:592  function AddStudents(string memory _name, uint _id, string memory _course , year _studentYear, bool _completion) public{... */\n      pop\n      pop\n      pop\n      pop\n      pop\n      jump\t// out\n        /* \"Class_5_6 (13 & 16.3.26)/StructEg.sol\":600:858  function getStudent(uint index) public view returns(string memory, uint, string memory, year, bool){... */\n    tag_12:\n        /* \"Class_5_6 (13 & 16.3.26)/StructEg.sol\":652:665  string memory */\n      0x60\n        /* \"Class_5_6 (13 & 16.3.26)/StructEg.sol\":667:671  uint */\n      0x00\n        /* \"Class_5_6 (13 & 16.3.26)/StructEg.sol\":673:686  string memory */\n      0x60\n        /* \"Class_5_6 (13 & 16.3.26)/StructEg.sol\":688:692  year */\n      0x00\n        /* \"Class_5_6 (13 & 16.3.26)/StructEg.sol\":694:698  bool */\n      0x00\n        /* \"Class_5_6 (13 & 16.3.26)/StructEg.sol\":718:726  students */\n      0x01\n        /* \"Class_5_6 (13 & 16.3.26)/StructEg.sol\":727:732  index */\n      dup7\n        /* \"Class_5_6 (13 & 16.3.26)/StructEg.sol\":718:733  students[index] */\n      dup2\n      sload\n      dup2\n      lt\n      tag_26\n      jumpi\n      tag_27\n      tag_28\n      jump\t// in\n    tag_27:\n    tag_26:\n      swap1\n      0x00\n      mstore\n      keccak256(0x00, 0x20)\n      swap1\n      0x04\n      mul\n      add\n        /* \"Class_5_6 (13 & 16.3.26)/StructEg.sol\":718:738  students[index].name */\n      0x00\n      add\n        /* \"Class_5_6 (13 & 16.3.26)/StructEg.sol\":740:748  students */\n      0x01\n        /* \"Class_5_6 (13 & 16.3.26)/StructEg.sol\":749:754  index */\n      dup8\n        /* \"Class_5_6 (13 & 16.3.26)/StructEg.sol\":740:755  students[index] */\n      dup2\n      sload\n      dup2\n      lt\n      tag_30\n      jumpi\n      tag_31\n      tag_28\n      jump\t// in\n    tag_31:\n    tag_30:\n      swap1\n      0x00\n      mstore\n      keccak256(0x00, 0x20)\n      swap1\n      0x04\n      mul\n      add\n        /* \"Class_5_6 (13 & 16.3.26)/StructEg.sol\":740:758  students[index].id */\n      0x01\n      add\n      sload\n        /* \"Class_5_6 (13 & 16.3.26)/StructEg.sol\":760:768  students */\n      0x01\n        /* \"Class_5_6 (13 & 16.3.26)/StructEg.sol\":769:774  index */\n      dup9\n        /* \"Class_5_6 (13 & 16.3.26)/StructEg.sol\":760:775  students[index] */\n      dup2\n      sload\n      dup2\n      lt\n      tag_33\n      jumpi\n      tag_34\n      tag_28\n      jump\t// in\n    tag_34:\n    tag_33:\n      swap1\n      0x00\n      mstore\n      keccak256(0x00, 0x20)\n      swap1\n      0x04\n      mul\n      add\n        /* \"Class_5_6 (13 & 16.3.26)/StructEg.sol\":760:782  students[index].course */\n      0x02\n      add\n        /* \"Class_5_6 (13 & 16.3.26)/StructEg.sol\":784:792  students */\n      0x01\n        /* \"Class_5_6 (13 & 16.3.26)/StructEg.sol\":793:798  index */\n      dup10\n        /* \"Class_5_6 (13 & 16.3.26)/StructEg.sol\":784:799  students[index] */\n      dup2\n      sload\n      dup2\n      lt\n      tag_36\n      jumpi\n      tag_37\n      tag_28\n      jump\t// in\n    tag_37:\n    tag_36:\n      swap1\n      0x00\n      mstore\n      keccak256(0x00, 0x20)\n      swap1\n      0x04\n      mul\n      add\n        /* \"Class_5_6 (13 & 16.3.26)/StructEg.sol\":784:811  students[index].studentYear */\n      0x03\n      add\n      0x00\n      swap1\n      sload\n      swap1\n      0x0100\n      exp\n      swap1\n      div\n      0xff\n      and\n        /* \"Class_5_6 (13 & 16.3.26)/StructEg.sol\":813:821  students */\n      0x01\n        /* \"Class_5_6 (13 & 16.3.26)/StructEg.sol\":822:827  index */\n      dup11\n        /* \"Class_5_6 (13 & 16.3.26)/StructEg.sol\":813:828  students[index] */\n      dup2\n      sload\n      dup2\n      lt\n      tag_39\n      jumpi\n      tag_40\n      tag_28\n      jump\t// in\n    tag_40:\n    tag_39:\n      swap1\n      0x00\n      mstore\n      keccak256(0x00, 0x20)\n      swap1\n      0x04\n      mul\n      add\n        /* \"Class_5_6 (13 & 16.3.26)/StructEg.sol\":813:839  students[index].Completion */\n      0x03\n      add\n      0x01\n      swap1\n      sload\n      swap1\n      0x0100\n      exp\n      swap1\n      div\n      0xff\n      and\n        /* \"Class_5_6 (13 & 16.3.26)/StructEg.sol\":710:840  return (students[index].name, students[index].id, students[index].course, students[index].studentYear, students[index].Completion) */\n      dup5\n      dup1\n      sload\n      tag_42\n      swap1\n      tag_43\n      jump\t// in\n    tag_42:\n      dup1\n      0x1f\n      add\n      0x20\n      dup1\n      swap2\n      div\n      mul\n      0x20\n      add\n      mload(0x40)\n      swap1\n      dup2\n      add\n      0x40\n      mstore\n      dup1\n      swap3\n      swap2\n      swap1\n      dup2\n      dup2\n      mstore\n      0x20\n      add\n      dup3\n      dup1\n      sload\n      tag_44\n      swap1\n      tag_43\n      jump\t// in\n    tag_44:\n      dup1\n      iszero\n      tag_45\n      jumpi\n      dup1\n      0x1f\n      lt\n      tag_46\n      jumpi\n      0x0100\n      dup1\n      dup4\n      sload\n      div\n      mul\n      dup4\n      mstore\n      swap2\n      0x20\n      add\n      swap2\n      jump(tag_45)\n    tag_46:\n      dup3\n      add\n      swap2\n      swap1\n      0x00\n      mstore\n      keccak256(0x00, 0x20)\n      swap1\n    tag_47:\n      dup2\n      sload\n      dup2\n      mstore\n      swap1\n      0x01\n      add\n      swap1\n      0x20\n      add\n      dup1\n      dup4\n      gt\n      tag_47\n      jumpi\n      dup3\n      swap1\n      sub\n      0x1f\n      and\n      dup3\n      add\n      swap2\n    tag_45:\n      pop\n      pop\n      pop\n      pop\n      pop\n      swap5\n      pop\n      dup3\n      dup1\n      sload\n      tag_48\n      swap1\n      tag_43\n      jump\t// in\n    tag_48:\n      dup1\n      0x1f\n      add\n      0x20\n      dup1\n      swap2\n      div\n      mul\n      0x20\n      add\n      mload(0x40)\n      swap1\n      dup2\n      add\n      0x40\n      mstore\n      dup1\n      swap3\n      swap2\n      swap1\n      dup2\n      dup2\n      mstore\n      0x20\n      add\n      dup3\n      dup1\n      sload\n      tag_49\n      swap1\n      tag_43\n      jump\t// in\n    tag_49:\n      dup1\n      iszero\n      tag_50\n      jumpi\n      dup1\n      0x1f\n      lt\n      tag_51\n      jumpi\n      0x0100\n      dup1\n      dup4\n      sload\n      div\n      mul\n      dup4\n      mstore\n      swap2\n      0x20\n      add\n      swap2\n      jump(tag_50)\n    tag_51:\n      dup3\n      add\n      swap2\n      swap1\n      0x00\n      mstore\n      keccak256(0x00, 0x20)\n      swap1\n    tag_52:\n      dup2\n      sload\n      dup2\n      mstore\n      swap1\n      0x01\n      add\n      swap1\n      0x20\n      add\n      dup1\n      dup4\n      gt\n      tag_52\n      jumpi\n      dup3\n      swap1\n      sub\n      0x1f\n      and\n      dup3\n      add\n      swap2\n    tag_50:\n      pop\n      pop\n      pop\n      pop\n      pop\n      swap3\n      pop\n      swap5\n      pop\n      swap5\n      pop\n      swap5\n      pop\n      swap5\n      pop\n      swap5\n      pop\n        /* \"Class_5_6 (13 & 16.3.26)/StructEg.sol\":600:858  function getStudent(uint index) public view returns(string memory, uint, string memory, year, bool){... */\n      swap2\n      swap4\n      swap6\n      swap1\n      swap3\n      swap5\n      pop\n      jump\t// out\n        /* \"#utility.yul\":7:82   */\n    tag_53:\n        /* \"#utility.yul\":40:46   */\n      0x00\n        /* \"#utility.yul\":73:75   */\n      0x40\n        /* \"#utility.yul\":67:76   */\n      mload\n        /* \"#utility.yul\":57:76   */\n      swap1\n      pop\n        /* \"#utility.yul\":7:82   */\n      swap1\n      jump\t// out\n        /* \"#utility.yul\":88:205   */\n    tag_54:\n        /* \"#utility.yul\":197:198   */\n      0x00\n        /* \"#utility.yul\":194:195   */\n      0x00\n        /* \"#utility.yul\":187:199   */\n      revert\n        /* \"#utility.yul\":211:328   */\n    tag_55:\n        /* \"#utility.yul\":320:321   */\n      0x00\n        /* \"#utility.yul\":317:318   */\n      0x00\n        /* \"#utility.yul\":310:322   */\n      revert\n        /* \"#utility.yul\":334:451   */\n    tag_56:\n        /* \"#utility.yul\":443:444   */\n      0x00\n        /* \"#utility.yul\":440:441   */\n      0x00\n        /* \"#utility.yul\":433:445   */\n      revert\n        /* \"#utility.yul\":457:574   */\n    tag_57:\n        /* \"#utility.yul\":566:567   */\n      0x00\n        /* \"#utility.yul\":563:564   */\n      0x00\n        /* \"#utility.yul\":556:568   */\n      revert\n        /* \"#utility.yul\":580:682   */\n    tag_58:\n        /* \"#utility.yul\":621:627   */\n      0x00\n        /* \"#utility.yul\":672:674   */\n      0x1f\n        /* \"#utility.yul\":668:675   */\n      not\n        /* \"#utility.yul\":663:665   */\n      0x1f\n        /* \"#utility.yul\":656:661   */\n      dup4\n        /* \"#utility.yul\":652:666   */\n      add\n        /* \"#utility.yul\":648:676   */\n      and\n        /* \"#utility.yul\":638:676   */\n      swap1\n      pop\n        /* \"#utility.yul\":580:682   */\n      swap2\n      swap1\n      pop\n      jump\t// out\n        /* \"#utility.yul\":688:868   */\n    tag_59:\n        /* \"#utility.yul\":736:813   */\n      0x4e487b7100000000000000000000000000000000000000000000000000000000\n        /* \"#utility.yul\":733:734   */\n      0x00\n        /* \"#utility.yul\":726:814   */\n      mstore\n        /* \"#utility.yul\":833:837   */\n      0x41\n        /* \"#utility.yul\":830:831   */\n      0x04\n        /* \"#utility.yul\":823:838   */\n      mstore\n        /* \"#utility.yul\":857:861   */\n      0x24\n        /* \"#utility.yul\":854:855   */\n      0x00\n        /* \"#utility.yul\":847:862   */\n      revert\n        /* \"#utility.yul\":874:1155   */\n    tag_60:\n        /* \"#utility.yul\":957:984   */\n      tag_109\n        /* \"#utility.yul\":979:983   */\n      dup3\n        /* \"#utility.yul\":957:984   */\n      tag_58\n      jump\t// in\n    tag_109:\n        /* \"#utility.yul\":949:955   */\n      dup2\n        /* \"#utility.yul\":945:985   */\n      add\n        /* \"#utility.yul\":1087:1093   */\n      dup2\n        /* \"#utility.yul\":1075:1085   */\n      dup2\n        /* \"#utility.yul\":1072:1094   */\n      lt\n        /* \"#utility.yul\":1051:1069   */\n      0xffffffffffffffff\n        /* \"#utility.yul\":1039:1049   */\n      dup3\n        /* \"#utility.yul\":1036:1070   */\n      gt\n        /* \"#utility.yul\":1033:1095   */\n      or\n        /* \"#utility.yul\":1030:1118   */\n      iszero\n      tag_110\n      jumpi\n        /* \"#utility.yul\":1098:1116   */\n      tag_111\n      tag_59\n      jump\t// in\n    tag_111:\n        /* \"#utility.yul\":1030:1118   */\n    tag_110:\n        /* \"#utility.yul\":1138:1148   */\n      dup1\n        /* \"#utility.yul\":1134:1136   */\n      0x40\n        /* \"#utility.yul\":1127:1149   */\n      mstore\n        /* \"#utility.yul\":917:1155   */\n      pop\n        /* \"#utility.yul\":874:1155   */\n      pop\n      pop\n      jump\t// out\n        /* \"#utility.yul\":1161:1290   */\n    tag_61:\n        /* \"#utility.yul\":1195:1201   */\n      0x00\n        /* \"#utility.yul\":1222:1242   */\n      tag_113\n      tag_53\n      jump\t// in\n    tag_113:\n        /* \"#utility.yul\":1212:1242   */\n      swap1\n      pop\n        /* \"#utility.yul\":1251:1284   */\n      tag_114\n        /* \"#utility.yul\":1279:1283   */\n      dup3\n        /* \"#utility.yul\":1271:1277   */\n      dup3\n        /* \"#utility.yul\":1251:1284   */\n      tag_60\n      jump\t// in\n    tag_114:\n        /* \"#utility.yul\":1161:1290   */\n      swap2\n      swap1\n      pop\n      jump\t// out\n        /* \"#utility.yul\":1296:1604   */\n    tag_62:\n        /* \"#utility.yul\":1358:1362   */\n      0x00\n        /* \"#utility.yul\":1448:1466   */\n      0xffffffffffffffff\n        /* \"#utility.yul\":1440:1446   */\n      dup3\n        /* \"#utility.yul\":1437:1467   */\n      gt\n        /* \"#utility.yul\":1434:1490   */\n      iszero\n      tag_116\n      jumpi\n        /* \"#utility.yul\":1470:1488   */\n      tag_117\n      tag_59\n      jump\t// in\n    tag_117:\n        /* \"#utility.yul\":1434:1490   */\n    tag_116:\n        /* \"#utility.yul\":1508:1537   */\n      tag_118\n        /* \"#utility.yul\":1530:1536   */\n      dup3\n        /* \"#utility.yul\":1508:1537   */\n      tag_58\n      jump\t// in\n    tag_118:\n        /* \"#utility.yul\":1500:1537   */\n      swap1\n      pop\n        /* \"#utility.yul\":1592:1596   */\n      0x20\n        /* \"#utility.yul\":1586:1590   */\n      dup2\n        /* \"#utility.yul\":1582:1597   */\n      add\n        /* \"#utility.yul\":1574:1597   */\n      swap1\n      pop\n        /* \"#utility.yul\":1296:1604   */\n      swap2\n      swap1\n      pop\n      jump\t// out\n        /* \"#utility.yul\":1610:1758   */\n    tag_63:\n        /* \"#utility.yul\":1708:1714   */\n      dup3\n        /* \"#utility.yul\":1703:1706   */\n      dup2\n        /* \"#utility.yul\":1698:1701   */\n      dup4\n        /* \"#utility.yul\":1685:1715   */\n      calldatacopy\n        /* \"#utility.yul\":1749:1750   */\n      0x00\n        /* \"#utility.yul\":1740:1746   */\n      dup4\n        /* \"#utility.yul\":1735:1738   */\n      dup4\n        /* \"#utility.yul\":1731:1747   */\n      add\n        /* \"#utility.yul\":1724:1751   */\n      mstore\n        /* \"#utility.yul\":1610:1758   */\n      pop\n      pop\n      pop\n      jump\t// out\n        /* \"#utility.yul\":1764:2189   */\n    tag_64:\n        /* \"#utility.yul\":1842:1847   */\n      0x00\n        /* \"#utility.yul\":1867:1933   */\n      tag_121\n        /* \"#utility.yul\":1883:1932   */\n      tag_122\n        /* \"#utility.yul\":1925:1931   */\n      dup5\n        /* \"#utility.yul\":1883:1932   */\n      tag_62\n      jump\t// in\n    tag_122:\n        /* \"#utility.yul\":1867:1933   */\n      tag_61\n      jump\t// in\n    tag_121:\n        /* \"#utility.yul\":1858:1933   */\n      swap1\n      pop\n        /* \"#utility.yul\":1956:1962   */\n      dup3\n        /* \"#utility.yul\":1949:1954   */\n      dup2\n        /* \"#utility.yul\":1942:1963   */\n      mstore\n        /* \"#utility.yul\":1994:1998   */\n      0x20\n        /* \"#utility.yul\":1987:1992   */\n      dup2\n        /* \"#utility.yul\":1983:1999   */\n      add\n        /* \"#utility.yul\":2032:2035   */\n      dup5\n        /* \"#utility.yul\":2023:2029   */\n      dup5\n        /* \"#utility.yul\":2018:2021   */\n      dup5\n        /* \"#utility.yul\":2014:2030   */\n      add\n        /* \"#utility.yul\":2011:2036   */\n      gt\n        /* \"#utility.yul\":2008:2120   */\n      iszero\n      tag_123\n      jumpi\n        /* \"#utility.yul\":2039:2118   */\n      tag_124\n      tag_57\n      jump\t// in\n    tag_124:\n        /* \"#utility.yul\":2008:2120   */\n    tag_123:\n        /* \"#utility.yul\":2129:2183   */\n      tag_125\n        /* \"#utility.yul\":2176:2182   */\n      dup5\n        /* \"#utility.yul\":2171:2174   */\n      dup3\n        /* \"#utility.yul\":2166:2169   */\n      dup6\n        /* \"#utility.yul\":2129:2183   */\n      tag_63\n      jump\t// in\n    tag_125:\n        /* \"#utility.yul\":1848:2189   */\n      pop\n        /* \"#utility.yul\":1764:2189   */\n      swap4\n      swap3\n      pop\n      pop\n      pop\n      jump\t// out\n        /* \"#utility.yul\":2209:2549   */\n    tag_65:\n        /* \"#utility.yul\":2265:2270   */\n      0x00\n        /* \"#utility.yul\":2314:2317   */\n      dup3\n        /* \"#utility.yul\":2307:2311   */\n      0x1f\n        /* \"#utility.yul\":2299:2305   */\n      dup4\n        /* \"#utility.yul\":2295:2312   */\n      add\n        /* \"#utility.yul\":2291:2318   */\n      slt\n        /* \"#utility.yul\":2281:2403   */\n      tag_127\n      jumpi\n        /* \"#utility.yul\":2322:2401   */\n      tag_128\n      tag_56\n      jump\t// in\n    tag_128:\n        /* \"#utility.yul\":2281:2403   */\n    tag_127:\n        /* \"#utility.yul\":2439:2445   */\n      dup2\n        /* \"#utility.yul\":2426:2446   */\n      calldataload\n        /* \"#utility.yul\":2464:2543   */\n      tag_129\n        /* \"#utility.yul\":2539:2542   */\n      dup5\n        /* \"#utility.yul\":2531:2537   */\n      dup3\n        /* \"#utility.yul\":2524:2528   */\n      0x20\n        /* \"#utility.yul\":2516:2522   */\n      dup7\n        /* \"#utility.yul\":2512:2529   */\n      add\n        /* \"#utility.yul\":2464:2543   */\n      tag_64\n      jump\t// in\n    tag_129:\n        /* \"#utility.yul\":2455:2543   */\n      swap2\n      pop\n        /* \"#utility.yul\":2271:2549   */\n      pop\n        /* \"#utility.yul\":2209:2549   */\n      swap3\n      swap2\n      pop\n      pop\n      jump\t// out\n        /* \"#utility.yul\":2555:2632   */\n    tag_66:\n        /* \"#utility.yul\":2592:2599   */\n      0x00\n        /* \"#utility.yul\":2621:2626   */\n      dup2\n        /* \"#utility.yul\":2610:2626   */\n      swap1\n      pop\n        /* \"#utility.yul\":2555:2632   */\n      swap2\n      swap1\n      pop\n      jump\t// out\n        /* \"#utility.yul\":2638:2760   */\n    tag_67:\n        /* \"#utility.yul\":2711:2735   */\n      tag_132\n        /* \"#utility.yul\":2729:2734   */\n      dup2\n        /* \"#utility.yul\":2711:2735   */\n      tag_66\n      jump\t// in\n    tag_132:\n        /* \"#utility.yul\":2704:2709   */\n      dup2\n        /* \"#utility.yul\":2701:2736   */\n      eq\n        /* \"#utility.yul\":2691:2754   */\n      tag_133\n      jumpi\n        /* \"#utility.yul\":2750:2751   */\n      0x00\n        /* \"#utility.yul\":2747:2748   */\n      0x00\n        /* \"#utility.yul\":2740:2752   */\n      revert\n        /* \"#utility.yul\":2691:2754   */\n    tag_133:\n        /* \"#utility.yul\":2638:2760   */\n      pop\n      jump\t// out\n        /* \"#utility.yul\":2766:2905   */\n    tag_68:\n        /* \"#utility.yul\":2812:2817   */\n      0x00\n        /* \"#utility.yul\":2850:2856   */\n      dup2\n        /* \"#utility.yul\":2837:2857   */\n      calldataload\n        /* \"#utility.yul\":2828:2857   */\n      swap1\n      pop\n        /* \"#utility.yul\":2866:2899   */\n      tag_135\n        /* \"#utility.yul\":2893:2898   */\n      dup2\n        /* \"#utility.yul\":2866:2899   */\n      tag_67\n      jump\t// in\n    tag_135:\n        /* \"#utility.yul\":2766:2905   */\n      swap3\n      swap2\n      pop\n      pop\n      jump\t// out\n        /* \"#utility.yul\":2911:3017   */\n    tag_69:\n        /* \"#utility.yul\":2991:2992   */\n      0x03\n        /* \"#utility.yul\":2984:2989   */\n      dup2\n        /* \"#utility.yul\":2981:2993   */\n      lt\n        /* \"#utility.yul\":2971:3011   */\n      tag_137\n      jumpi\n        /* \"#utility.yul\":3007:3008   */\n      0x00\n        /* \"#utility.yul\":3004:3005   */\n      0x00\n        /* \"#utility.yul\":2997:3009   */\n      revert\n        /* \"#utility.yul\":2971:3011   */\n    tag_137:\n        /* \"#utility.yul\":2911:3017   */\n      pop\n      jump\t// out\n        /* \"#utility.yul\":3023:3176   */\n    tag_70:\n        /* \"#utility.yul\":3076:3081   */\n      0x00\n        /* \"#utility.yul\":3114:3120   */\n      dup2\n        /* \"#utility.yul\":3101:3121   */\n      calldataload\n        /* \"#utility.yul\":3092:3121   */\n      swap1\n      pop\n        /* \"#utility.yul\":3130:3170   */\n      tag_139\n        /* \"#utility.yul\":3164:3169   */\n      dup2\n        /* \"#utility.yul\":3130:3170   */\n      tag_69\n      jump\t// in\n    tag_139:\n        /* \"#utility.yul\":3023:3176   */\n      swap3\n      swap2\n      pop\n      pop\n      jump\t// out\n        /* \"#utility.yul\":3182:3272   */\n    tag_71:\n        /* \"#utility.yul\":3216:3223   */\n      0x00\n        /* \"#utility.yul\":3259:3264   */\n      dup2\n        /* \"#utility.yul\":3252:3265   */\n      iszero\n        /* \"#utility.yul\":3245:3266   */\n      iszero\n        /* \"#utility.yul\":3234:3266   */\n      swap1\n      pop\n        /* \"#utility.yul\":3182:3272   */\n      swap2\n      swap1\n      pop\n      jump\t// out\n        /* \"#utility.yul\":3278:3394   */\n    tag_72:\n        /* \"#utility.yul\":3348:3369   */\n      tag_142\n        /* \"#utility.yul\":3363:3368   */\n      dup2\n        /* \"#utility.yul\":3348:3369   */\n      tag_71\n      jump\t// in\n    tag_142:\n        /* \"#utility.yul\":3341:3346   */\n      dup2\n        /* \"#utility.yul\":3338:3370   */\n      eq\n        /* \"#utility.yul\":3328:3388   */\n      tag_143\n      jumpi\n        /* \"#utility.yul\":3384:3385   */\n      0x00\n        /* \"#utility.yul\":3381:3382   */\n      0x00\n        /* \"#utility.yul\":3374:3386   */\n      revert\n        /* \"#utility.yul\":3328:3388   */\n    tag_143:\n        /* \"#utility.yul\":3278:3394   */\n      pop\n      jump\t// out\n        /* \"#utility.yul\":3400:3533   */\n    tag_73:\n        /* \"#utility.yul\":3443:3448   */\n      0x00\n        /* \"#utility.yul\":3481:3487   */\n      dup2\n        /* \"#utility.yul\":3468:3488   */\n      calldataload\n        /* \"#utility.yul\":3459:3488   */\n      swap1\n      pop\n        /* \"#utility.yul\":3497:3527   */\n      tag_145\n        /* \"#utility.yul\":3521:3526   */\n      dup2\n        /* \"#utility.yul\":3497:3527   */\n      tag_72\n      jump\t// in\n    tag_145:\n        /* \"#utility.yul\":3400:3533   */\n      swap3\n      swap2\n      pop\n      pop\n      jump\t// out\n        /* \"#utility.yul\":3539:4818   */\n    tag_7:\n        /* \"#utility.yul\":3658:3664   */\n      0x00\n        /* \"#utility.yul\":3666:3672   */\n      0x00\n        /* \"#utility.yul\":3674:3680   */\n      0x00\n        /* \"#utility.yul\":3682:3688   */\n      0x00\n        /* \"#utility.yul\":3690:3696   */\n      0x00\n        /* \"#utility.yul\":3739:3742   */\n      0xa0\n        /* \"#utility.yul\":3727:3736   */\n      dup7\n        /* \"#utility.yul\":3718:3725   */\n      dup9\n        /* \"#utility.yul\":3714:3737   */\n      sub\n        /* \"#utility.yul\":3710:3743   */\n      slt\n        /* \"#utility.yul\":3707:3827   */\n      iszero\n      tag_147\n      jumpi\n        /* \"#utility.yul\":3746:3825   */\n      tag_148\n      tag_54\n      jump\t// in\n    tag_148:\n        /* \"#utility.yul\":3707:3827   */\n    tag_147:\n        /* \"#utility.yul\":3894:3895   */\n      0x00\n        /* \"#utility.yul\":3883:3892   */\n      dup7\n        /* \"#utility.yul\":3879:3896   */\n      add\n        /* \"#utility.yul\":3866:3897   */\n      calldataload\n        /* \"#utility.yul\":3924:3942   */\n      0xffffffffffffffff\n        /* \"#utility.yul\":3916:3922   */\n      dup2\n        /* \"#utility.yul\":3913:3943   */\n      gt\n        /* \"#utility.yul\":3910:4027   */\n      iszero\n      tag_149\n      jumpi\n        /* \"#utility.yul\":3946:4025   */\n      tag_150\n      tag_55\n      jump\t// in\n    tag_150:\n        /* \"#utility.yul\":3910:4027   */\n    tag_149:\n        /* \"#utility.yul\":4051:4114   */\n      tag_151\n        /* \"#utility.yul\":4106:4113   */\n      dup9\n        /* \"#utility.yul\":4097:4103   */\n      dup3\n        /* \"#utility.yul\":4086:4095   */\n      dup10\n        /* \"#utility.yul\":4082:4104   */\n      add\n        /* \"#utility.yul\":4051:4114   */\n      tag_65\n      jump\t// in\n    tag_151:\n        /* \"#utility.yul\":4041:4114   */\n      swap6\n      pop\n        /* \"#utility.yul\":3837:4124   */\n      pop\n        /* \"#utility.yul\":4163:4165   */\n      0x20\n        /* \"#utility.yul\":4189:4242   */\n      tag_152\n        /* \"#utility.yul\":4234:4241   */\n      dup9\n        /* \"#utility.yul\":4225:4231   */\n      dup3\n        /* \"#utility.yul\":4214:4223   */\n      dup10\n        /* \"#utility.yul\":4210:4232   */\n      add\n        /* \"#utility.yul\":4189:4242   */\n      tag_68\n      jump\t// in\n    tag_152:\n        /* \"#utility.yul\":4179:4242   */\n      swap5\n      pop\n        /* \"#utility.yul\":4134:4252   */\n      pop\n        /* \"#utility.yul\":4319:4321   */\n      0x40\n        /* \"#utility.yul\":4308:4317   */\n      dup7\n        /* \"#utility.yul\":4304:4322   */\n      add\n        /* \"#utility.yul\":4291:4323   */\n      calldataload\n        /* \"#utility.yul\":4350:4368   */\n      0xffffffffffffffff\n        /* \"#utility.yul\":4342:4348   */\n      dup2\n        /* \"#utility.yul\":4339:4369   */\n      gt\n        /* \"#utility.yul\":4336:4453   */\n      iszero\n      tag_153\n      jumpi\n        /* \"#utility.yul\":4372:4451   */\n      tag_154\n      tag_55\n      jump\t// in\n    tag_154:\n        /* \"#utility.yul\":4336:4453   */\n    tag_153:\n        /* \"#utility.yul\":4477:4540   */\n      tag_155\n        /* \"#utility.yul\":4532:4539   */\n      dup9\n        /* \"#utility.yul\":4523:4529   */\n      dup3\n        /* \"#utility.yul\":4512:4521   */\n      dup10\n        /* \"#utility.yul\":4508:4530   */\n      add\n        /* \"#utility.yul\":4477:4540   */\n      tag_65\n      jump\t// in\n    tag_155:\n        /* \"#utility.yul\":4467:4540   */\n      swap4\n      pop\n        /* \"#utility.yul\":4262:4550   */\n      pop\n        /* \"#utility.yul\":4589:4591   */\n      0x60\n        /* \"#utility.yul\":4615:4675   */\n      tag_156\n        /* \"#utility.yul\":4667:4674   */\n      dup9\n        /* \"#utility.yul\":4658:4664   */\n      dup3\n        /* \"#utility.yul\":4647:4656   */\n      dup10\n        /* \"#utility.yul\":4643:4665   */\n      add\n        /* \"#utility.yul\":4615:4675   */\n      tag_70\n      jump\t// in\n    tag_156:\n        /* \"#utility.yul\":4605:4675   */\n      swap3\n      pop\n        /* \"#utility.yul\":4560:4685   */\n      pop\n        /* \"#utility.yul\":4724:4727   */\n      0x80\n        /* \"#utility.yul\":4751:4801   */\n      tag_157\n        /* \"#utility.yul\":4793:4800   */\n      dup9\n        /* \"#utility.yul\":4784:4790   */\n      dup3\n        /* \"#utility.yul\":4773:4782   */\n      dup10\n        /* \"#utility.yul\":4769:4791   */\n      add\n        /* \"#utility.yul\":4751:4801   */\n      tag_73\n      jump\t// in\n    tag_157:\n        /* \"#utility.yul\":4741:4801   */\n      swap2\n      pop\n        /* \"#utility.yul\":4695:4811   */\n      pop\n        /* \"#utility.yul\":3539:4818   */\n      swap3\n      swap6\n      pop\n      swap3\n      swap6\n      swap1\n      swap4\n      pop\n      jump\t// out\n        /* \"#utility.yul\":4824:5153   */\n    tag_11:\n        /* \"#utility.yul\":4883:4889   */\n      0x00\n        /* \"#utility.yul\":4932:4934   */\n      0x20\n        /* \"#utility.yul\":4920:4929   */\n      dup3\n        /* \"#utility.yul\":4911:4918   */\n      dup5\n        /* \"#utility.yul\":4907:4930   */\n      sub\n        /* \"#utility.yul\":4903:4935   */\n      slt\n        /* \"#utility.yul\":4900:5019   */\n      iszero\n      tag_159\n      jumpi\n        /* \"#utility.yul\":4938:5017   */\n      tag_160\n      tag_54\n      jump\t// in\n    tag_160:\n        /* \"#utility.yul\":4900:5019   */\n    tag_159:\n        /* \"#utility.yul\":5058:5059   */\n      0x00\n        /* \"#utility.yul\":5083:5136   */\n      tag_161\n        /* \"#utility.yul\":5128:5135   */\n      dup5\n        /* \"#utility.yul\":5119:5125   */\n      dup3\n        /* \"#utility.yul\":5108:5117   */\n      dup6\n        /* \"#utility.yul\":5104:5126   */\n      add\n        /* \"#utility.yul\":5083:5136   */\n      tag_68\n      jump\t// in\n    tag_161:\n        /* \"#utility.yul\":5073:5136   */\n      swap2\n      pop\n        /* \"#utility.yul\":5029:5146   */\n      pop\n        /* \"#utility.yul\":4824:5153   */\n      swap3\n      swap2\n      pop\n      pop\n      jump\t// out\n        /* \"#utility.yul\":5159:5258   */\n    tag_74:\n        /* \"#utility.yul\":5211:5217   */\n      0x00\n        /* \"#utility.yul\":5245:5250   */\n      dup2\n        /* \"#utility.yul\":5239:5251   */\n      mload\n        /* \"#utility.yul\":5229:5251   */\n      swap1\n      pop\n        /* \"#utility.yul\":5159:5258   */\n      swap2\n      swap1\n      pop\n      jump\t// out\n        /* \"#utility.yul\":5264:5433   */\n    tag_75:\n        /* \"#utility.yul\":5348:5359   */\n      0x00\n        /* \"#utility.yul\":5382:5388   */\n      dup3\n        /* \"#utility.yul\":5377:5380   */\n      dup3\n        /* \"#utility.yul\":5370:5389   */\n      mstore\n        /* \"#utility.yul\":5422:5426   */\n      0x20\n        /* \"#utility.yul\":5417:5420   */\n      dup3\n        /* \"#utility.yul\":5413:5427   */\n      add\n        /* \"#utility.yul\":5398:5427   */\n      swap1\n      pop\n        /* \"#utility.yul\":5264:5433   */\n      swap3\n      swap2\n      pop\n      pop\n      jump\t// out\n        /* \"#utility.yul\":5439:5578   */\n    tag_76:\n        /* \"#utility.yul\":5528:5534   */\n      dup3\n        /* \"#utility.yul\":5523:5526   */\n      dup2\n        /* \"#utility.yul\":5518:5521   */\n      dup4\n        /* \"#utility.yul\":5512:5535   */\n      mcopy\n        /* \"#utility.yul\":5569:5570   */\n      0x00\n        /* \"#utility.yul\":5560:5566   */\n      dup4\n        /* \"#utility.yul\":5555:5558   */\n      dup4\n        /* \"#utility.yul\":5551:5567   */\n      add\n        /* \"#utility.yul\":5544:5571   */\n      mstore\n        /* \"#utility.yul\":5439:5578   */\n      pop\n      pop\n      pop\n      jump\t// out\n        /* \"#utility.yul\":5584:5961   */\n    tag_77:\n        /* \"#utility.yul\":5672:5675   */\n      0x00\n        /* \"#utility.yul\":5700:5739   */\n      tag_166\n        /* \"#utility.yul\":5733:5738   */\n      dup3\n        /* \"#utility.yul\":5700:5739   */\n      tag_74\n      jump\t// in\n    tag_166:\n        /* \"#utility.yul\":5755:5826   */\n      tag_167\n        /* \"#utility.yul\":5819:5825   */\n      dup2\n        /* \"#utility.yul\":5814:5817   */\n      dup6\n        /* \"#utility.yul\":5755:5826   */\n      tag_75\n      jump\t// in\n    tag_167:\n        /* \"#utility.yul\":5748:5826   */\n      swap4\n      pop\n        /* \"#utility.yul\":5835:5900   */\n      tag_168\n        /* \"#utility.yul\":5893:5899   */\n      dup2\n        /* \"#utility.yul\":5888:5891   */\n      dup6\n        /* \"#utility.yul\":5881:5885   */\n      0x20\n        /* \"#utility.yul\":5874:5879   */\n      dup7\n        /* \"#utility.yul\":5870:5886   */\n      add\n        /* \"#utility.yul\":5835:5900   */\n      tag_76\n      jump\t// in\n    tag_168:\n        /* \"#utility.yul\":5925:5954   */\n      tag_169\n        /* \"#utility.yul\":5947:5953   */\n      dup2\n        /* \"#utility.yul\":5925:5954   */\n      tag_58\n      jump\t// in\n    tag_169:\n        /* \"#utility.yul\":5920:5923   */\n      dup5\n        /* \"#utility.yul\":5916:5955   */\n      add\n        /* \"#utility.yul\":5909:5955   */\n      swap2\n      pop\n        /* \"#utility.yul\":5676:5961   */\n      pop\n        /* \"#utility.yul\":5584:5961   */\n      swap3\n      swap2\n      pop\n      pop\n      jump\t// out\n        /* \"#utility.yul\":5967:6085   */\n    tag_78:\n        /* \"#utility.yul\":6054:6078   */\n      tag_171\n        /* \"#utility.yul\":6072:6077   */\n      dup2\n        /* \"#utility.yul\":6054:6078   */\n      tag_66\n      jump\t// in\n    tag_171:\n        /* \"#utility.yul\":6049:6052   */\n      dup3\n        /* \"#utility.yul\":6042:6079   */\n      mstore\n        /* \"#utility.yul\":5967:6085   */\n      pop\n      pop\n      jump\t// out\n        /* \"#utility.yul\":6091:6271   */\n    tag_18:\n        /* \"#utility.yul\":6139:6216   */\n      0x4e487b7100000000000000000000000000000000000000000000000000000000\n        /* \"#utility.yul\":6136:6137   */\n      0x00\n        /* \"#utility.yul\":6129:6217   */\n      mstore\n        /* \"#utility.yul\":6236:6240   */\n      0x21\n        /* \"#utility.yul\":6233:6234   */\n      0x04\n        /* \"#utility.yul\":6226:6241   */\n      mstore\n        /* \"#utility.yul\":6260:6264   */\n      0x24\n        /* \"#utility.yul\":6257:6258   */\n      0x00\n        /* \"#utility.yul\":6250:6265   */\n      revert\n        /* \"#utility.yul\":6277:6389   */\n    tag_79:\n        /* \"#utility.yul\":6357:6358   */\n      0x03\n        /* \"#utility.yul\":6350:6355   */\n      dup2\n        /* \"#utility.yul\":6347:6359   */\n      lt\n        /* \"#utility.yul\":6337:6383   */\n      tag_174\n      jumpi\n        /* \"#utility.yul\":6363:6381   */\n      tag_175\n      tag_18\n      jump\t// in\n    tag_175:\n        /* \"#utility.yul\":6337:6383   */\n    tag_174:\n        /* \"#utility.yul\":6277:6389   */\n      pop\n      jump\t// out\n        /* \"#utility.yul\":6395:6520   */\n    tag_80:\n        /* \"#utility.yul\":6439:6446   */\n      0x00\n        /* \"#utility.yul\":6468:6473   */\n      dup2\n        /* \"#utility.yul\":6457:6473   */\n      swap1\n      pop\n        /* \"#utility.yul\":6474:6514   */\n      tag_177\n        /* \"#utility.yul\":6508:6513   */\n      dup3\n        /* \"#utility.yul\":6474:6514   */\n      tag_79\n      jump\t// in\n    tag_177:\n        /* \"#utility.yul\":6395:6520   */\n      swap2\n      swap1\n      pop\n      jump\t// out\n        /* \"#utility.yul\":6526:6651   */\n    tag_81:\n        /* \"#utility.yul\":6581:6590   */\n      0x00\n        /* \"#utility.yul\":6614:6645   */\n      tag_179\n        /* \"#utility.yul\":6639:6644   */\n      dup3\n        /* \"#utility.yul\":6614:6645   */\n      tag_80\n      jump\t// in\n    tag_179:\n        /* \"#utility.yul\":6601:6645   */\n      swap1\n      pop\n        /* \"#utility.yul\":6526:6651   */\n      swap2\n      swap1\n      pop\n      jump\t// out\n        /* \"#utility.yul\":6657:6798   */\n    tag_82:\n        /* \"#utility.yul\":6749:6791   */\n      tag_181\n        /* \"#utility.yul\":6785:6790   */\n      dup2\n        /* \"#utility.yul\":6749:6791   */\n      tag_81\n      jump\t// in\n    tag_181:\n        /* \"#utility.yul\":6744:6747   */\n      dup3\n        /* \"#utility.yul\":6737:6792   */\n      mstore\n        /* \"#utility.yul\":6657:6798   */\n      pop\n      pop\n      jump\t// out\n        /* \"#utility.yul\":6804:6913   */\n    tag_83:\n        /* \"#utility.yul\":6885:6906   */\n      tag_183\n        /* \"#utility.yul\":6900:6905   */\n      dup2\n        /* \"#utility.yul\":6885:6906   */\n      tag_71\n      jump\t// in\n    tag_183:\n        /* \"#utility.yul\":6880:6883   */\n      dup3\n        /* \"#utility.yul\":6873:6907   */\n      mstore\n        /* \"#utility.yul\":6804:6913   */\n      pop\n      pop\n      jump\t// out\n        /* \"#utility.yul\":6919:7763   */\n    tag_14:\n        /* \"#utility.yul\":7163:7167   */\n      0x00\n        /* \"#utility.yul\":7201:7204   */\n      0xa0\n        /* \"#utility.yul\":7190:7199   */\n      dup3\n        /* \"#utility.yul\":7186:7205   */\n      add\n        /* \"#utility.yul\":7178:7205   */\n      swap1\n      pop\n        /* \"#utility.yul\":7251:7260   */\n      dup2\n        /* \"#utility.yul\":7245:7249   */\n      dup2\n        /* \"#utility.yul\":7241:7261   */\n      sub\n        /* \"#utility.yul\":7237:7238   */\n      0x00\n        /* \"#utility.yul\":7226:7235   */\n      dup4\n        /* \"#utility.yul\":7222:7239   */\n      add\n        /* \"#utility.yul\":7215:7262   */\n      mstore\n        /* \"#utility.yul\":7279:7357   */\n      tag_185\n        /* \"#utility.yul\":7352:7356   */\n      dup2\n        /* \"#utility.yul\":7343:7349   */\n      dup9\n        /* \"#utility.yul\":7279:7357   */\n      tag_77\n      jump\t// in\n    tag_185:\n        /* \"#utility.yul\":7271:7357   */\n      swap1\n      pop\n        /* \"#utility.yul\":7367:7439   */\n      tag_186\n        /* \"#utility.yul\":7435:7437   */\n      0x20\n        /* \"#utility.yul\":7424:7433   */\n      dup4\n        /* \"#utility.yul\":7420:7438   */\n      add\n        /* \"#utility.yul\":7411:7417   */\n      dup8\n        /* \"#utility.yul\":7367:7439   */\n      tag_78\n      jump\t// in\n    tag_186:\n        /* \"#utility.yul\":7486:7495   */\n      dup2\n        /* \"#utility.yul\":7480:7484   */\n      dup2\n        /* \"#utility.yul\":7476:7496   */\n      sub\n        /* \"#utility.yul\":7471:7473   */\n      0x40\n        /* \"#utility.yul\":7460:7469   */\n      dup4\n        /* \"#utility.yul\":7456:7474   */\n      add\n        /* \"#utility.yul\":7449:7497   */\n      mstore\n        /* \"#utility.yul\":7514:7592   */\n      tag_187\n        /* \"#utility.yul\":7587:7591   */\n      dup2\n        /* \"#utility.yul\":7578:7584   */\n      dup7\n        /* \"#utility.yul\":7514:7592   */\n      tag_77\n      jump\t// in\n    tag_187:\n        /* \"#utility.yul\":7506:7592   */\n      swap1\n      pop\n        /* \"#utility.yul\":7602:7679   */\n      tag_188\n        /* \"#utility.yul\":7675:7677   */\n      0x60\n        /* \"#utility.yul\":7664:7673   */\n      dup4\n        /* \"#utility.yul\":7660:7678   */\n      add\n        /* \"#utility.yul\":7651:7657   */\n      dup6\n        /* \"#utility.yul\":7602:7679   */\n      tag_82\n      jump\t// in\n    tag_188:\n        /* \"#utility.yul\":7689:7756   */\n      tag_189\n        /* \"#utility.yul\":7751:7754   */\n      0x80\n        /* \"#utility.yul\":7740:7749   */\n      dup4\n        /* \"#utility.yul\":7736:7755   */\n      add\n        /* \"#utility.yul\":7727:7733   */\n      dup5\n        /* \"#utility.yul\":7689:7756   */\n      tag_83\n      jump\t// in\n    tag_189:\n        /* \"#utility.yul\":6919:7763   */\n      swap7\n      swap6\n      pop\n      pop\n      pop\n      pop\n      pop\n      pop\n      jump\t// out\n        /* \"#utility.yul\":7769:7949   */\n    tag_84:\n        /* \"#utility.yul\":7817:7894   */\n      0x4e487b7100000000000000000000000000000000000000000000000000000000\n        /* \"#utility.yul\":7814:7815   */\n      0x00\n        /* \"#utility.yul\":7807:7895   */\n      mstore\n        /* \"#utility.yul\":7914:7918   */\n      0x22\n        /* \"#utility.yul\":7911:7912   */\n      0x04\n        /* \"#utility.yul\":7904:7919   */\n      mstore\n        /* \"#utility.yul\":7938:7942   */\n      0x24\n        /* \"#utility.yul\":7935:7936   */\n      0x00\n        /* \"#utility.yul\":7928:7943   */\n      revert\n        /* \"#utility.yul\":7955:8275   */\n    tag_43:\n        /* \"#utility.yul\":7999:8005   */\n      0x00\n        /* \"#utility.yul\":8036:8037   */\n      0x02\n        /* \"#utility.yul\":8030:8034   */\n      dup3\n        /* \"#utility.yul\":8026:8038   */\n      div\n        /* \"#utility.yul\":8016:8038   */\n      swap1\n      pop\n        /* \"#utility.yul\":8083:8084   */\n      0x01\n        /* \"#utility.yul\":8077:8081   */\n      dup3\n        /* \"#utility.yul\":8073:8085   */\n      and\n        /* \"#utility.yul\":8104:8122   */\n      dup1\n        /* \"#utility.yul\":8094:8175   */\n      tag_192\n      jumpi\n        /* \"#utility.yul\":8160:8164   */\n      0x7f\n        /* \"#utility.yul\":8152:8158   */\n      dup3\n        /* \"#utility.yul\":8148:8165   */\n      and\n        /* \"#utility.yul\":8138:8165   */\n      swap2\n      pop\n        /* \"#utility.yul\":8094:8175   */\n    tag_192:\n        /* \"#utility.yul\":8222:8224   */\n      0x20\n        /* \"#utility.yul\":8214:8220   */\n      dup3\n        /* \"#utility.yul\":8211:8225   */\n      lt\n        /* \"#utility.yul\":8191:8209   */\n      dup2\n        /* \"#utility.yul\":8188:8226   */\n      sub\n        /* \"#utility.yul\":8185:8269   */\n      tag_193\n      jumpi\n        /* \"#utility.yul\":8241:8259   */\n      tag_194\n      tag_84\n      jump\t// in\n    tag_194:\n        /* \"#utility.yul\":8185:8269   */\n    tag_193:\n        /* \"#utility.yul\":8006:8275   */\n      pop\n        /* \"#utility.yul\":7955:8275   */\n      swap2\n      swap1\n      pop\n      jump\t// out\n        /* \"#utility.yul\":8281:8422   */\n    tag_85:\n        /* \"#utility.yul\":8330:8334   */\n      0x00\n        /* \"#utility.yul\":8353:8356   */\n      dup2\n        /* \"#utility.yul\":8345:8356   */\n      swap1\n      pop\n        /* \"#utility.yul\":8376:8379   */\n      dup2\n        /* \"#utility.yul\":8373:8374   */\n      0x00\n        /* \"#utility.yul\":8366:8380   */\n      mstore\n        /* \"#utility.yul\":8410:8414   */\n      0x20\n        /* \"#utility.yul\":8407:8408   */\n      0x00\n        /* \"#utility.yul\":8397:8415   */\n      keccak256\n        /* \"#utility.yul\":8389:8415   */\n      swap1\n      pop\n        /* \"#utility.yul\":8281:8422   */\n      swap2\n      swap1\n      pop\n      jump\t// out\n        /* \"#utility.yul\":8428:8521   */\n    tag_86:\n        /* \"#utility.yul\":8465:8471   */\n      0x00\n        /* \"#utility.yul\":8512:8514   */\n      0x20\n        /* \"#utility.yul\":8507:8509   */\n      0x1f\n        /* \"#utility.yul\":8500:8505   */\n      dup4\n        /* \"#utility.yul\":8496:8510   */\n      add\n        /* \"#utility.yul\":8492:8515   */\n      div\n        /* \"#utility.yul\":8482:8515   */\n      swap1\n      pop\n        /* \"#utility.yul\":8428:8521   */\n      swap2\n      swap1\n      pop\n      jump\t// out\n        /* \"#utility.yul\":8527:8634   */\n    tag_87:\n        /* \"#utility.yul\":8571:8579   */\n      0x00\n        /* \"#utility.yul\":8621:8626   */\n      dup3\n        /* \"#utility.yul\":8615:8619   */\n      dup3\n        /* \"#utility.yul\":8611:8627   */\n      shl\n        /* \"#utility.yul\":8590:8627   */\n      swap1\n      pop\n        /* \"#utility.yul\":8527:8634   */\n      swap3\n      swap2\n      pop\n      pop\n      jump\t// out\n        /* \"#utility.yul\":8640:9033   */\n    tag_88:\n        /* \"#utility.yul\":8709:8715   */\n      0x00\n        /* \"#utility.yul\":8759:8760   */\n      0x08\n        /* \"#utility.yul\":8747:8757   */\n      dup4\n        /* \"#utility.yul\":8743:8761   */\n      mul\n        /* \"#utility.yul\":8782:8879   */\n      tag_199\n        /* \"#utility.yul\":8812:8878   */\n      0xffffffffffffffffffffffffffffffffffffffffffffffffffffffffffffffff\n        /* \"#utility.yul\":8801:8810   */\n      dup3\n        /* \"#utility.yul\":8782:8879   */\n      tag_87\n      jump\t// in\n    tag_199:\n        /* \"#utility.yul\":8900:8939   */\n      tag_200\n        /* \"#utility.yul\":8930:8938   */\n      dup7\n        /* \"#utility.yul\":8919:8928   */\n      dup4\n        /* \"#utility.yul\":8900:8939   */\n      tag_87\n      jump\t// in\n    tag_200:\n        /* \"#utility.yul\":8888:8939   */\n      swap6\n      pop\n        /* \"#utility.yul\":8972:8976   */\n      dup1\n        /* \"#utility.yul\":8968:8977   */\n      not\n        /* \"#utility.yul\":8961:8966   */\n      dup5\n        /* \"#utility.yul\":8957:8978   */\n      and\n        /* \"#utility.yul\":8948:8978   */\n      swap4\n      pop\n        /* \"#utility.yul\":9021:9025   */\n      dup1\n        /* \"#utility.yul\":9011:9019   */\n      dup7\n        /* \"#utility.yul\":9007:9026   */\n      and\n        /* \"#utility.yul\":9000:9005   */\n      dup5\n        /* \"#utility.yul\":8997:9027   */\n      or\n        /* \"#utility.yul\":8987:9027   */\n      swap3\n      pop\n        /* \"#utility.yul\":8716:9033   */\n      pop\n      pop\n        /* \"#utility.yul\":8640:9033   */\n      swap4\n      swap3\n      pop\n      pop\n      pop\n      jump\t// out\n        /* \"#utility.yul\":9039:9099   */\n    tag_89:\n        /* \"#utility.yul\":9067:9070   */\n      0x00\n        /* \"#utility.yul\":9088:9093   */\n      dup2\n        /* \"#utility.yul\":9081:9093   */\n      swap1\n      pop\n        /* \"#utility.yul\":9039:9099   */\n      swap2\n      swap1\n      pop\n      jump\t// out\n        /* \"#utility.yul\":9105:9247   */\n    tag_90:\n        /* \"#utility.yul\":9155:9164   */\n      0x00\n        /* \"#utility.yul\":9188:9241   */\n      tag_203\n        /* \"#utility.yul\":9206:9240   */\n      tag_204\n        /* \"#utility.yul\":9215:9239   */\n      tag_205\n        /* \"#utility.yul\":9233:9238   */\n      dup5\n        /* \"#utility.yul\":9215:9239   */\n      tag_66\n      jump\t// in\n    tag_205:\n        /* \"#utility.yul\":9206:9240   */\n      tag_89\n      jump\t// in\n    tag_204:\n        /* \"#utility.yul\":9188:9241   */\n      tag_66\n      jump\t// in\n    tag_203:\n        /* \"#utility.yul\":9175:9241   */\n      swap1\n      pop\n        /* \"#utility.yul\":9105:9247   */\n      swap2\n      swap1\n      pop\n      jump\t// out\n        /* \"#utility.yul\":9253:9328   */\n    tag_91:\n        /* \"#utility.yul\":9296:9299   */\n      0x00\n        /* \"#utility.yul\":9317:9322   */\n      dup2\n        /* \"#utility.yul\":9310:9322   */\n      swap1\n      pop\n        /* \"#utility.yul\":9253:9328   */\n      swap2\n      swap1\n      pop\n      jump\t// out\n        /* \"#utility.yul\":9334:9603   */\n    tag_92:\n        /* \"#utility.yul\":9444:9483   */\n      tag_208\n        /* \"#utility.yul\":9475:9482   */\n      dup4\n        /* \"#utility.yul\":9444:9483   */\n      tag_90\n      jump\t// in\n    tag_208:\n        /* \"#utility.yul\":9505:9596   */\n      tag_209\n        /* \"#utility.yul\":9554:9595   */\n      tag_210\n        /* \"#utility.yul\":9578:9594   */\n      dup3\n        /* \"#utility.yul\":9554:9595   */\n      tag_91\n      jump\t// in\n    tag_210:\n        /* \"#utility.yul\":9546:9552   */\n      dup5\n        /* \"#utility.yul\":9539:9543   */\n      dup5\n        /* \"#utility.yul\":9533:9544   */\n      sload\n        /* \"#utility.yul\":9505:9596   */\n      tag_88\n      jump\t// in\n    tag_209:\n        /* \"#utility.yul\":9499:9503   */\n      dup3\n        /* \"#utility.yul\":9492:9597   */\n      sstore\n        /* \"#utility.yul\":9410:9603   */\n      pop\n        /* \"#utility.yul\":9334:9603   */\n      pop\n      pop\n      pop\n      jump\t// out\n        /* \"#utility.yul\":9609:9682   */\n    tag_93:\n        /* \"#utility.yul\":9654:9657   */\n      0x00\n        /* \"#utility.yul\":9675:9676   */\n      0x00\n        /* \"#utility.yul\":9668:9676   */\n      swap1\n      pop\n        /* \"#utility.yul\":9609:9682   */\n      swap1\n      jump\t// out\n        /* \"#utility.yul\":9688:9877   */\n    tag_94:\n        /* \"#utility.yul\":9765:9797   */\n      tag_213\n      tag_93\n      jump\t// in\n    tag_213:\n        /* \"#utility.yul\":9806:9871   */\n      tag_214\n        /* \"#utility.yul\":9864:9870   */\n      dup2\n        /* \"#utility.yul\":9856:9862   */\n      dup5\n        /* \"#utility.yul\":9850:9854   */\n      dup5\n        /* \"#utility.yul\":9806:9871   */\n      tag_92\n      jump\t// in\n    tag_214:\n        /* \"#utility.yul\":9741:9877   */\n      pop\n        /* \"#utility.yul\":9688:9877   */\n      pop\n      pop\n      jump\t// out\n        /* \"#utility.yul\":9883:10069   */\n    tag_95:\n        /* \"#utility.yul\":9943:10063   */\n    tag_216:\n        /* \"#utility.yul\":9960:9963   */\n      dup2\n        /* \"#utility.yul\":9953:9958   */\n      dup2\n        /* \"#utility.yul\":9950:9964   */\n      lt\n        /* \"#utility.yul\":9943:10063   */\n      iszero\n      tag_218\n      jumpi\n        /* \"#utility.yul\":10014:10053   */\n      tag_219\n        /* \"#utility.yul\":10051:10052   */\n      0x00\n        /* \"#utility.yul\":10044:10049   */\n      dup3\n        /* \"#utility.yul\":10014:10053   */\n      tag_94\n      jump\t// in\n    tag_219:\n        /* \"#utility.yul\":9987:9988   */\n      0x01\n        /* \"#utility.yul\":9980:9985   */\n      dup2\n        /* \"#utility.yul\":9976:9989   */\n      add\n        /* \"#utility.yul\":9967:9989   */\n      swap1\n      pop\n        /* \"#utility.yul\":9943:10063   */\n      jump(tag_216)\n    tag_218:\n        /* \"#utility.yul\":9883:10069   */\n      pop\n      pop\n      jump\t// out\n        /* \"#utility.yul\":10075:10618   */\n    tag_96:\n        /* \"#utility.yul\":10176:10178   */\n      0x1f\n        /* \"#utility.yul\":10171:10174   */\n      dup3\n        /* \"#utility.yul\":10168:10179   */\n      gt\n        /* \"#utility.yul\":10165:10611   */\n      iszero\n      tag_221\n      jumpi\n        /* \"#utility.yul\":10210:10248   */\n      tag_222\n        /* \"#utility.yul\":10242:10247   */\n      dup2\n        /* \"#utility.yul\":10210:10248   */\n      tag_85\n      jump\t// in\n    tag_222:\n        /* \"#utility.yul\":10294:10323   */\n      tag_223\n        /* \"#utility.yul\":10312:10322   */\n      dup5\n        /* \"#utility.yul\":10294:10323   */\n      tag_86\n      jump\t// in\n    tag_223:\n        /* \"#utility.yul\":10284:10292   */\n      dup2\n        /* \"#utility.yul\":10280:10324   */\n      add\n        /* \"#utility.yul\":10477:10479   */\n      0x20\n        /* \"#utility.yul\":10465:10475   */\n      dup6\n        /* \"#utility.yul\":10462:10480   */\n      lt\n        /* \"#utility.yul\":10459:10508   */\n      iszero\n      tag_224\n      jumpi\n        /* \"#utility.yul\":10498:10506   */\n      dup2\n        /* \"#utility.yul\":10483:10506   */\n      swap1\n      pop\n        /* \"#utility.yul\":10459:10508   */\n    tag_224:\n        /* \"#utility.yul\":10521:10601   */\n      tag_225\n        /* \"#utility.yul\":10577:10599   */\n      tag_226\n        /* \"#utility.yul\":10595:10598   */\n      dup6\n        /* \"#utility.yul\":10577:10599   */\n      tag_86\n      jump\t// in\n    tag_226:\n        /* \"#utility.yul\":10567:10575   */\n      dup4\n        /* \"#utility.yul\":10563:10600   */\n      add\n        /* \"#utility.yul\":10550:10561   */\n      dup3\n        /* \"#utility.yul\":10521:10601   */\n      tag_95\n      jump\t// in\n    tag_225:\n        /* \"#utility.yul\":10180:10611   */\n      pop\n      pop\n        /* \"#utility.yul\":10165:10611   */\n    tag_221:\n        /* \"#utility.yul\":10075:10618   */\n      pop\n      pop\n      pop\n      jump\t// out\n        /* \"#utility.yul\":10624:10741   */\n    tag_97:\n        /* \"#utility.yul\":10678:10686   */\n      0x00\n        /* \"#utility.yul\":10728:10733   */\n      dup3\n        /* \"#utility.yul\":10722:10726   */\n      dup3\n        /* \"#utility.yul\":10718:10734   */\n      shr\n        /* \"#utility.yul\":10697:10734   */\n      swap1\n      pop\n        /* \"#utility.yul\":10624:10741   */\n      swap3\n      swap2\n      pop\n      pop\n      jump\t// out\n        /* \"#utility.yul\":10747:10916   */\n    tag_98:\n        /* \"#utility.yul\":10791:10797   */\n      0x00\n        /* \"#utility.yul\":10824:10875   */\n      tag_229\n        /* \"#utility.yul\":10872:10873   */\n      0x00\n        /* \"#utility.yul\":10868:10874   */\n      not\n        /* \"#utility.yul\":10860:10865   */\n      dup5\n        /* \"#utility.yul\":10857:10858   */\n      0x08\n        /* \"#utility.yul\":10853:10866   */\n      mul\n        /* \"#utility.yul\":10824:10875   */\n      tag_97\n      jump\t// in\n    tag_229:\n        /* \"#utility.yul\":10820:10876   */\n      not\n        /* \"#utility.yul\":10905:10909   */\n      dup1\n        /* \"#utility.yul\":10899:10903   */\n      dup4\n        /* \"#utility.yul\":10895:10910   */\n      and\n        /* \"#utility.yul\":10885:10910   */\n      swap2\n      pop\n        /* \"#utility.yul\":10798:10916   */\n      pop\n        /* \"#utility.yul\":10747:10916   */\n      swap3\n      swap2\n      pop\n      pop\n      jump\t// out\n        /* \"#utility.yul\":10921:11216   */\n    tag_99:\n        /* \"#utility.yul\":10997:11001   */\n      0x00\n        /* \"#utility.yul\":11143:11172   */\n      tag_231\n        /* \"#utility.yul\":11168:11171   */\n      dup4\n        /* \"#utility.yul\":11162:11166   */\n      dup4\n        /* \"#utility.yul\":11143:11172   */\n      tag_98\n      jump\t// in\n    tag_231:\n        /* \"#utility.yul\":11135:11172   */\n      swap2\n      pop\n        /* \"#utility.yul\":11205:11208   */\n      dup3\n        /* \"#utility.yul\":11202:11203   */\n      0x02\n        /* \"#utility.yul\":11198:11209   */\n      mul\n        /* \"#utility.yul\":11192:11196   */\n      dup3\n        /* \"#utility.yul\":11189:11210   */\n      or\n        /* \"#utility.yul\":11181:11210   */\n      swap1\n      pop\n        /* \"#utility.yul\":10921:11216   */\n      swap3\n      swap2\n      pop\n      pop\n      jump\t// out\n        /* \"#utility.yul\":11221:12616   */\n    tag_21:\n        /* \"#utility.yul\":11338:11375   */\n      tag_233\n        /* \"#utility.yul\":11371:11374   */\n      dup3\n        /* \"#utility.yul\":11338:11375   */\n      tag_74\n      jump\t// in\n    tag_233:\n        /* \"#utility.yul\":11440:11458   */\n      0xffffffffffffffff\n        /* \"#utility.yul\":11432:11438   */\n      dup2\n        /* \"#utility.yul\":11429:11459   */\n      gt\n        /* \"#utility.yul\":11426:11482   */\n      iszero\n      tag_234\n      jumpi\n        /* \"#utility.yul\":11462:11480   */\n      tag_235\n      tag_59\n      jump\t// in\n    tag_235:\n        /* \"#utility.yul\":11426:11482   */\n    tag_234:\n        /* \"#utility.yul\":11506:11544   */\n      tag_236\n        /* \"#utility.yul\":11538:11542   */\n      dup3\n        /* \"#utility.yul\":11532:11543   */\n      sload\n        /* \"#utility.yul\":11506:11544   */\n      tag_43\n      jump\t// in\n    tag_236:\n        /* \"#utility.yul\":11591:11658   */\n      tag_237\n        /* \"#utility.yul\":11651:11657   */\n      dup3\n        /* \"#utility.yul\":11643:11649   */\n      dup3\n        /* \"#utility.yul\":11637:11641   */\n      dup6\n        /* \"#utility.yul\":11591:11658   */\n      tag_96\n      jump\t// in\n    tag_237:\n        /* \"#utility.yul\":11685:11686   */\n      0x00\n        /* \"#utility.yul\":11709:11713   */\n      0x20\n        /* \"#utility.yul\":11696:11713   */\n      swap1\n      pop\n        /* \"#utility.yul\":11741:11743   */\n      0x1f\n        /* \"#utility.yul\":11733:11739   */\n      dup4\n        /* \"#utility.yul\":11730:11744   */\n      gt\n        /* \"#utility.yul\":11758:11759   */\n      0x01\n        /* \"#utility.yul\":11753:12371   */\n      dup2\n      eq\n      tag_239\n      jumpi\n        /* \"#utility.yul\":12415:12416   */\n      0x00\n        /* \"#utility.yul\":12432:12438   */\n      dup5\n        /* \"#utility.yul\":12429:12506   */\n      iszero\n      tag_240\n      jumpi\n        /* \"#utility.yul\":12481:12490   */\n      dup3\n        /* \"#utility.yul\":12476:12479   */\n      dup8\n        /* \"#utility.yul\":12472:12491   */\n      add\n        /* \"#utility.yul\":12466:12492   */\n      mload\n        /* \"#utility.yul\":12457:12492   */\n      swap1\n      pop\n        /* \"#utility.yul\":12429:12506   */\n    tag_240:\n        /* \"#utility.yul\":12532:12599   */\n      tag_241\n        /* \"#utility.yul\":12592:12598   */\n      dup6\n        /* \"#utility.yul\":12585:12590   */\n      dup3\n        /* \"#utility.yul\":12532:12599   */\n      tag_99\n      jump\t// in\n    tag_241:\n        /* \"#utility.yul\":12526:12530   */\n      dup7\n        /* \"#utility.yul\":12519:12600   */\n      sstore\n        /* \"#utility.yul\":12388:12610   */\n      pop\n        /* \"#utility.yul\":11723:12610   */\n      jump(tag_238)\n        /* \"#utility.yul\":11753:12371   */\n    tag_239:\n        /* \"#utility.yul\":11805:11809   */\n      0x1f\n        /* \"#utility.yul\":11801:11810   */\n      not\n        /* \"#utility.yul\":11793:11799   */\n      dup5\n        /* \"#utility.yul\":11789:11811   */\n      and\n        /* \"#utility.yul\":11839:11876   */\n      tag_242\n        /* \"#utility.yul\":11871:11875   */\n      dup7\n        /* \"#utility.yul\":11839:11876   */\n      tag_85\n      jump\t// in\n    tag_242:\n        /* \"#utility.yul\":11898:11899   */\n      0x00\n        /* \"#utility.yul\":11912:12120   */\n    tag_243:\n        /* \"#utility.yul\":11926:11933   */\n      dup3\n        /* \"#utility.yul\":11923:11924   */\n      dup2\n        /* \"#utility.yul\":11920:11934   */\n      lt\n        /* \"#utility.yul\":11912:12120   */\n      iszero\n      tag_245\n      jumpi\n        /* \"#utility.yul\":12005:12014   */\n      dup5\n        /* \"#utility.yul\":12000:12003   */\n      dup10\n        /* \"#utility.yul\":11996:12015   */\n      add\n        /* \"#utility.yul\":11990:12016   */\n      mload\n        /* \"#utility.yul\":11982:11988   */\n      dup3\n        /* \"#utility.yul\":11975:12017   */\n      sstore\n        /* \"#utility.yul\":12056:12057   */\n      0x01\n        /* \"#utility.yul\":12048:12054   */\n      dup3\n        /* \"#utility.yul\":12044:12058   */\n      add\n        /* \"#utility.yul\":12034:12058   */\n      swap2\n      pop\n        /* \"#utility.yul\":12103:12105   */\n      0x20\n        /* \"#utility.yul\":12092:12101   */\n      dup6\n        /* \"#utility.yul\":12088:12106   */\n      add\n        /* \"#utility.yul\":12075:12106   */\n      swap5\n      pop\n        /* \"#utility.yul\":11949:11953   */\n      0x20\n        /* \"#utility.yul\":11946:11947   */\n      dup2\n        /* \"#utility.yul\":11942:11954   */\n      add\n        /* \"#utility.yul\":11937:11954   */\n      swap1\n      pop\n        /* \"#utility.yul\":11912:12120   */\n      jump(tag_243)\n    tag_245:\n        /* \"#utility.yul\":12148:12154   */\n      dup7\n        /* \"#utility.yul\":12139:12146   */\n      dup4\n        /* \"#utility.yul\":12136:12155   */\n      lt\n        /* \"#utility.yul\":12133:12312   */\n      iszero\n      tag_246\n      jumpi\n        /* \"#utility.yul\":12206:12215   */\n      dup5\n        /* \"#utility.yul\":12201:12204   */\n      dup10\n        /* \"#utility.yul\":12197:12216   */\n      add\n        /* \"#utility.yul\":12191:12217   */\n      mload\n        /* \"#utility.yul\":12249:12297   */\n      tag_247\n        /* \"#utility.yul\":12291:12295   */\n      0x1f\n        /* \"#utility.yul\":12283:12289   */\n      dup10\n        /* \"#utility.yul\":12279:12296   */\n      and\n        /* \"#utility.yul\":12268:12277   */\n      dup3\n        /* \"#utility.yul\":12249:12297   */\n      tag_98\n      jump\t// in\n    tag_247:\n        /* \"#utility.yul\":12241:12247   */\n      dup4\n        /* \"#utility.yul\":12234:12298   */\n      sstore\n        /* \"#utility.yul\":12156:12312   */\n      pop\n        /* \"#utility.yul\":12133:12312   */\n    tag_246:\n        /* \"#utility.yul\":12358:12359   */\n      0x01\n        /* \"#utility.yul\":12354:12355   */\n      0x02\n        /* \"#utility.yul\":12346:12352   */\n      dup9\n        /* \"#utility.yul\":12342:12356   */\n      mul\n        /* \"#utility.yul\":12338:12360   */\n      add\n        /* \"#utility.yul\":12332:12336   */\n      dup9\n        /* \"#utility.yul\":12325:12361   */\n      sstore\n        /* \"#utility.yul\":11760:12371   */\n      pop\n      pop\n      pop\n        /* \"#utility.yul\":11723:12610   */\n    tag_238:\n      pop\n        /* \"#utility.yul\":11313:12616   */\n      pop\n      pop\n      pop\n        /* \"#utility.yul\":11221:12616   */\n      pop\n      pop\n      jump\t// out\n        /* \"#utility.yul\":12622:12802   */\n    tag_28:\n        /* \"#utility.yul\":12670:12747   */\n      0x4e487b7100000000000000000000000000000000000000000000000000000000\n        /* \"#utility.yul\":12667:12668   */\n      0x00\n        /* \"#utility.yul\":12660:12748   */\n      mstore\n        /* \"#utility.yul\":12767:12771   */\n      0x32\n        /* \"#utility.yul\":12764:12765   */\n      0x04\n        /* \"#utility.yul\":12757:12772   */\n      mstore\n        /* \"#utility.yul\":12791:12795   */\n      0x24\n        /* \"#utility.yul\":12788:12789   */\n      0x00\n        /* \"#utility.yul\":12781:12796   */\n      revert\n\n    auxdata: 0xa2646970667358221220e18c28628352f36a384185404da647eb2dd295ea5c85637b61da367a0e99133064736f6c634300081f0033\n}\n",
				"bytecode": {
					"linkReferences": {},
					"object": "6080604052348015600e575f5ffd5b50610aa08061001c5f395ff3fe608060405234801561000f575f5ffd5b5060043610610034575f3560e01c80633af750c614610038578063642f916314610054575b5f5ffd5b610052600480360381019061004d9190610547565b610088565b005b61006e600480360381019061006991906105f6565b610177565b60405161007f959493929190610712565b60405180910390f35b60016040518060a001604052808781526020018681526020018581526020018460028111156100ba576100b9610690565b5b8152602001831515815250908060018154018082558091505060019003905f5260205f2090600402015f909190919091505f820151815f0190816100fe919061096e565b5060208201518160010155604082015181600201908161011e919061096e565b506060820151816003015f6101000a81548160ff0219169083600281111561014957610148610690565b5b021790555060808201518160030160016101000a81548160ff02191690831515021790555050505050505050565b60605f60605f5f6001868154811061019257610191610a3d565b5b905f5260205f2090600402015f01600187815481106101b4576101b3610a3d565b5b905f5260205f20906004020160010154600188815481106101d8576101d7610a3d565b5b905f5260205f209060040201600201600189815481106101fb576101fa610a3d565b5b905f5260205f2090600402016003015f9054906101000a900460ff1660018a8154811061022b5761022a610a3d565b5b905f5260205f20906004020160030160019054906101000a900460ff168480546102549061079e565b80601f01602080910402602001604051908101604052809291908181526020018280546102809061079e565b80156102cb5780601f106102a2576101008083540402835291602001916102cb565b820191905f5260205f20905b8154815290600101906020018083116102ae57829003601f168201915b505050505094508280546102de9061079e565b80601f016020809104026020016040519081016040528092919081815260200182805461030a9061079e565b80156103555780601f1061032c57610100808354040283529160200191610355565b820191905f5260205f20905b81548152906001019060200180831161033857829003601f168201915b505050505092509450945094509450945091939590929450565b5f604051905090565b5f5ffd5b5f5ffd5b5f5ffd5b5f5ffd5b5f601f19601f8301169050919050565b7f4e487b71000000000000000000000000000000000000000000000000000000005f52604160045260245ffd5b6103ce82610388565b810181811067ffffffffffffffff821117156103ed576103ec610398565b5b80604052505050565b5f6103ff61036f565b905061040b82826103c5565b919050565b5f67ffffffffffffffff82111561042a57610429610398565b5b61043382610388565b9050602081019050919050565b828183375f83830152505050565b5f61046061045b84610410565b6103f6565b90508281526020810184848401111561047c5761047b610384565b5b610487848285610440565b509392505050565b5f82601f8301126104a3576104a2610380565b5b81356104b384826020860161044e565b91505092915050565b5f819050919050565b6104ce816104bc565b81146104d8575f5ffd5b50565b5f813590506104e9816104c5565b92915050565b600381106104fb575f5ffd5b50565b5f8135905061050c816104ef565b92915050565b5f8115159050919050565b61052681610512565b8114610530575f5ffd5b50565b5f813590506105418161051d565b92915050565b5f5f5f5f5f60a086880312156105605761055f610378565b5b5f86013567ffffffffffffffff81111561057d5761057c61037c565b5b6105898882890161048f565b955050602061059a888289016104db565b945050604086013567ffffffffffffffff8111156105bb576105ba61037c565b5b6105c78882890161048f565b93505060606105d8888289016104fe565b92505060806105e988828901610533565b9150509295509295909350565b5f6020828403121561060b5761060a610378565b5b5f610618848285016104db565b91505092915050565b5f81519050919050565b5f82825260208201905092915050565b8281835e5f83830152505050565b5f61065382610621565b61065d818561062b565b935061066d81856020860161063b565b61067681610388565b840191505092915050565b61068a816104bc565b82525050565b7f4e487b71000000000000000000000000000000000000000000000000000000005f52602160045260245ffd5b600381106106ce576106cd610690565b5b50565b5f8190506106de826106bd565b919050565b5f6106ed826106d1565b9050919050565b6106fd816106e3565b82525050565b61070c81610512565b82525050565b5f60a0820190508181035f83015261072a8188610649565b90506107396020830187610681565b818103604083015261074b8186610649565b905061075a60608301856106f4565b6107676080830184610703565b9695505050505050565b7f4e487b71000000000000000000000000000000000000000000000000000000005f52602260045260245ffd5b5f60028204905060018216806107b557607f821691505b6020821081036107c8576107c7610771565b5b50919050565b5f819050815f5260205f209050919050565b5f6020601f8301049050919050565b5f82821b905092915050565b5f6008830261082a7fffffffffffffffffffffffffffffffffffffffffffffffffffffffffffffffff826107ef565b61083486836107ef565b95508019841693508086168417925050509392505050565b5f819050919050565b5f61086f61086a610865846104bc565b61084c565b6104bc565b9050919050565b5f819050919050565b61088883610855565b61089c61089482610876565b8484546107fb565b825550505050565b5f5f905090565b6108b36108a4565b6108be81848461087f565b505050565b5b818110156108e1576108d65f826108ab565b6001810190506108c4565b5050565b601f821115610926576108f7816107ce565b610900846107e0565b8101602085101561090f578190505b61092361091b856107e0565b8301826108c3565b50505b505050565b5f82821c905092915050565b5f6109465f198460080261092b565b1980831691505092915050565b5f61095e8383610937565b9150826002028217905092915050565b61097782610621565b67ffffffffffffffff8111156109905761098f610398565b5b61099a825461079e565b6109a58282856108e5565b5f60209050601f8311600181146109d6575f84156109c4578287015190505b6109ce8582610953565b865550610a35565b601f1984166109e4866107ce565b5f5b82811015610a0b578489015182556001820191506020850194506020810190506109e6565b86831015610a285784890151610a24601f891682610937565b8355505b6001600288020188555050505b505050505050565b7f4e487b71000000000000000000000000000000000000000000000000000000005f52603260045260245ffdfea2646970667358221220e18c28628352f36a384185404da647eb2dd295ea5c85637b61da367a0e99133064736f6c634300081f0033",
					"opcodes": "PUSH1 0x80 PUSH1 0x40 MSTORE CALLVALUE DUP1 ISZERO PUSH1 0xE JUMPI PUSH0 PUSH0 REVERT JUMPDEST POP PUSH2 0xAA0 DUP1 PUSH2 0x1C PUSH0 CODECOPY PUSH0 RETURN INVALID PUSH1 0x80 PUSH1 0x40 MSTORE CALLVALUE DUP1 ISZERO PUSH2 0xF JUMPI PUSH0 PUSH0 REVERT JUMPDEST POP PUSH1 0x4 CALLDATASIZE LT PUSH2 0x34 JUMPI PUSH0 CALLDATALOAD PUSH1 0xE0 SHR DUP1 PUSH4 0x3AF750C6 EQ PUSH2 0x38 JUMPI DUP1 PUSH4 0x642F9163 EQ PUSH2 0x54 JUMPI JUMPDEST PUSH0 PUSH0 REVERT JUMPDEST PUSH2 0x52 PUSH1 0x4 DUP1 CALLDATASIZE SUB DUP2 ADD SWAP1 PUSH2 0x4D SWAP2 SWAP1 PUSH2 0x547 JUMP JUMPDEST PUSH2 0x88 JUMP JUMPDEST STOP JUMPDEST PUSH2 0x6E PUSH1 0x4 DUP1 CALLDATASIZE SUB DUP2 ADD SWAP1 PUSH2 0x69 SWAP2 SWAP1 PUSH2 0x5F6 JUMP JUMPDEST PUSH2 0x177 JUMP JUMPDEST PUSH1 0x40 MLOAD PUSH2 0x7F SWAP6 SWAP5 SWAP4 SWAP3 SWAP2 SWAP1 PUSH2 0x712 JUMP JUMPDEST PUSH1 0x40 MLOAD DUP1 SWAP2 SUB SWAP1 RETURN JUMPDEST PUSH1 0x1 PUSH1 0x40 MLOAD DUP1 PUSH1 0xA0 ADD PUSH1 0x40 MSTORE DUP1 DUP8 DUP2 MSTORE PUSH1 0x20 ADD DUP7 DUP2 MSTORE PUSH1 0x20 ADD DUP6 DUP2 MSTORE PUSH1 0x20 ADD DUP5 PUSH1 0x2 DUP2 GT ISZERO PUSH2 0xBA JUMPI PUSH2 0xB9 PUSH2 0x690 JUMP JUMPDEST JUMPDEST DUP2 MSTORE PUSH1 0x20 ADD DUP4 ISZERO ISZERO DUP2 MSTORE POP SWAP1 DUP1 PUSH1 0x1 DUP2 SLOAD ADD DUP1 DUP3 SSTORE DUP1 SWAP2 POP POP PUSH1 0x1 SWAP1 SUB SWAP1 PUSH0 MSTORE PUSH1 0x20 PUSH0 KECCAK256 SWAP1 PUSH1 0x4 MUL ADD PUSH0 SWAP1 SWAP2 SWAP1 SWAP2 SWAP1 SWAP2 POP PUSH0 DUP3 ADD MLOAD DUP2 PUSH0 ADD SWAP1 DUP2 PUSH2 0xFE SWAP2 SWAP1 PUSH2 0x96E JUMP JUMPDEST POP PUSH1 0x20 DUP3 ADD MLOAD DUP2 PUSH1 0x1 ADD SSTORE PUSH1 0x40 DUP3 ADD MLOAD DUP2 PUSH1 0x2 ADD SWAP1 DUP2 PUSH2 0x11E SWAP2 SWAP1 PUSH2 0x96E JUMP JUMPDEST POP PUSH1 0x60 DUP3 ADD MLOAD DUP2 PUSH1 0x3 ADD PUSH0 PUSH2 0x100 EXP DUP2 SLOAD DUP2 PUSH1 0xFF MUL NOT AND SWAP1 DUP4 PUSH1 0x2 DUP2 GT ISZERO PUSH2 0x149 JUMPI PUSH2 0x148 PUSH2 0x690 JUMP JUMPDEST JUMPDEST MUL OR SWAP1 SSTORE POP PUSH1 0x80 DUP3 ADD MLOAD DUP2 PUSH1 0x3 ADD PUSH1 0x1 PUSH2 0x100 EXP DUP2 SLOAD DUP2 PUSH1 0xFF MUL NOT AND SWAP1 DUP4 ISZERO ISZERO MUL OR SWAP1 SSTORE POP POP POP POP POP POP POP POP JUMP JUMPDEST PUSH1 0x60 PUSH0 PUSH1 0x60 PUSH0 PUSH0 PUSH1 0x1 DUP7 DUP2 SLOAD DUP2 LT PUSH2 0x192 JUMPI PUSH2 0x191 PUSH2 0xA3D JUMP JUMPDEST JUMPDEST SWAP1 PUSH0 MSTORE PUSH1 0x20 PUSH0 KECCAK256 SWAP1 PUSH1 0x4 MUL ADD PUSH0 ADD PUSH1 0x1 DUP8 DUP2 SLOAD DUP2 LT PUSH2 0x1B4 JUMPI PUSH2 0x1B3 PUSH2 0xA3D JUMP JUMPDEST JUMPDEST SWAP1 PUSH0 MSTORE PUSH1 0x20 PUSH0 KECCAK256 SWAP1 PUSH1 0x4 MUL ADD PUSH1 0x1 ADD SLOAD PUSH1 0x1 DUP9 DUP2 SLOAD DUP2 LT PUSH2 0x1D8 JUMPI PUSH2 0x1D7 PUSH2 0xA3D JUMP JUMPDEST JUMPDEST SWAP1 PUSH0 MSTORE PUSH1 0x20 PUSH0 KECCAK256 SWAP1 PUSH1 0x4 MUL ADD PUSH1 0x2 ADD PUSH1 0x1 DUP10 DUP2 SLOAD DUP2 LT PUSH2 0x1FB JUMPI PUSH2 0x1FA PUSH2 0xA3D JUMP JUMPDEST JUMPDEST SWAP1 PUSH0 MSTORE PUSH1 0x20 PUSH0 KECCAK256 SWAP1 PUSH1 0x4 MUL ADD PUSH1 0x3 ADD PUSH0 SWAP1 SLOAD SWAP1 PUSH2 0x100 EXP SWAP1 DIV PUSH1 0xFF AND PUSH1 0x1 DUP11 DUP2 SLOAD DUP2 LT PUSH2 0x22B JUMPI PUSH2 0x22A PUSH2 0xA3D JUMP JUMPDEST JUMPDEST SWAP1 PUSH0 MSTORE PUSH1 0x20 PUSH0 KECCAK256 SWAP1 PUSH1 0x4 MUL ADD PUSH1 0x3 ADD PUSH1 0x1 SWAP1 SLOAD SWAP1 PUSH2 0x100 EXP SWAP1 DIV PUSH1 0xFF AND DUP5 DUP1 SLOAD PUSH2 0x254 SWAP1 PUSH2 0x79E JUMP JUMPDEST DUP1 PUSH1 0x1F ADD PUSH1 0x20 DUP1 SWAP2 DIV MUL PUSH1 0x20 ADD PUSH1 0x40 MLOAD SWAP1 DUP2 ADD PUSH1 0x40 MSTORE DUP1 SWAP3 SWAP2 SWAP1 DUP2 DUP2 MSTORE PUSH1 0x20 ADD DUP3 DUP1 SLOAD PUSH2 0x280 SWAP1 PUSH2 0x79E JUMP JUMPDEST DUP1 ISZERO PUSH2 0x2CB JUMPI DUP1 PUSH1 0x1F LT PUSH2 0x2A2 JUMPI PUSH2 0x100 DUP1 DUP4 SLOAD DIV MUL DUP4 MSTORE SWAP2 PUSH1 0x20 ADD SWAP2 PUSH2 0x2CB JUMP JUMPDEST DUP3 ADD SWAP2 SWAP1 PUSH0 MSTORE PUSH1 0x20 PUSH0 KECCAK256 SWAP1 JUMPDEST DUP2 SLOAD DUP2 MSTORE SWAP1 PUSH1 0x1 ADD SWAP1 PUSH1 0x20 ADD DUP1 DUP4 GT PUSH2 0x2AE JUMPI DUP3 SWAP1 SUB PUSH1 0x1F AND DUP3 ADD SWAP2 JUMPDEST POP POP POP POP POP SWAP5 POP DUP3 DUP1 SLOAD PUSH2 0x2DE SWAP1 PUSH2 0x79E JUMP JUMPDEST DUP1 PUSH1 0x1F ADD PUSH1 0x20 DUP1 SWAP2 DIV MUL PUSH1 0x20 ADD PUSH1 0x40 MLOAD SWAP1 DUP2 ADD PUSH1 0x40 MSTORE DUP1 SWAP3 SWAP2 SWAP1 DUP2 DUP2 MSTORE PUSH1 0x20 ADD DUP3 DUP1 SLOAD PUSH2 0x30A SWAP1 PUSH2 0x79E JUMP JUMPDEST DUP1 ISZERO PUSH2 0x355 JUMPI DUP1 PUSH1 0x1F LT PUSH2 0x32C JUMPI PUSH2 0x100 DUP1 DUP4 SLOAD DIV MUL DUP4 MSTORE SWAP2 PUSH1 0x20 ADD SWAP2 PUSH2 0x355 JUMP JUMPDEST DUP3 ADD SWAP2 SWAP1 PUSH0 MSTORE PUSH1 0x20 PUSH0 KECCAK256 SWAP1 JUMPDEST DUP2 SLOAD DUP2 MSTORE SWAP1 PUSH1 0x1 ADD SWAP1 PUSH1 0x20 ADD DUP1 DUP4 GT PUSH2 0x338 JUMPI DUP3 SWAP1 SUB PUSH1 0x1F AND DUP3 ADD SWAP2 JUMPDEST POP POP POP POP POP SWAP3 POP SWAP5 POP SWAP5 POP SWAP5 POP SWAP5 POP SWAP5 POP SWAP2 SWAP4 SWAP6 SWAP1 SWAP3 SWAP5 POP JUMP JUMPDEST PUSH0 PUSH1 0x40 MLOAD SWAP1 POP SWAP1 JUMP JUMPDEST PUSH0 PUSH0 REVERT JUMPDEST PUSH0 PUSH0 REVERT JUMPDEST PUSH0 PUSH0 REVERT JUMPDEST PUSH0 PUSH0 REVERT JUMPDEST PUSH0 PUSH1 0x1F NOT PUSH1 0x1F DUP4 ADD AND SWAP1 POP SWAP2 SWAP1 POP JUMP JUMPDEST PUSH32 0x4E487B7100000000000000000000000000000000000000000000000000000000 PUSH0 MSTORE PUSH1 0x41 PUSH1 0x4 MSTORE PUSH1 0x24 PUSH0 REVERT JUMPDEST PUSH2 0x3CE DUP3 PUSH2 0x388 JUMP JUMPDEST DUP2 ADD DUP2 DUP2 LT PUSH8 0xFFFFFFFFFFFFFFFF DUP3 GT OR ISZERO PUSH2 0x3ED JUMPI PUSH2 0x3EC PUSH2 0x398 JUMP JUMPDEST JUMPDEST DUP1 PUSH1 0x40 MSTORE POP POP POP JUMP JUMPDEST PUSH0 PUSH2 0x3FF PUSH2 0x36F JUMP JUMPDEST SWAP1 POP PUSH2 0x40B DUP3 DUP3 PUSH2 0x3C5 JUMP JUMPDEST SWAP2 SWAP1 POP JUMP JUMPDEST PUSH0 PUSH8 0xFFFFFFFFFFFFFFFF DUP3 GT ISZERO PUSH2 0x42A JUMPI PUSH2 0x429 PUSH2 0x398 JUMP JUMPDEST JUMPDEST PUSH2 0x433 DUP3 PUSH2 0x388 JUMP JUMPDEST SWAP1 POP PUSH1 0x20 DUP2 ADD SWAP1 POP SWAP2 SWAP1 POP JUMP JUMPDEST DUP3 DUP2 DUP4 CALLDATACOPY PUSH0 DUP4 DUP4 ADD MSTORE POP POP POP JUMP JUMPDEST PUSH0 PUSH2 0x460 PUSH2 0x45B DUP5 PUSH2 0x410 JUMP JUMPDEST PUSH2 0x3F6 JUMP JUMPDEST SWAP1 POP DUP3 DUP2 MSTORE PUSH1 0x20 DUP2 ADD DUP5 DUP5 DUP5 ADD GT ISZERO PUSH2 0x47C JUMPI PUSH2 0x47B PUSH2 0x384 JUMP JUMPDEST JUMPDEST PUSH2 0x487 DUP5 DUP3 DUP6 PUSH2 0x440 JUMP JUMPDEST POP SWAP4 SWAP3 POP POP POP JUMP JUMPDEST PUSH0 DUP3 PUSH1 0x1F DUP4 ADD SLT PUSH2 0x4A3 JUMPI PUSH2 0x4A2 PUSH2 0x380 JUMP JUMPDEST JUMPDEST DUP2 CALLDATALOAD PUSH2 0x4B3 DUP5 DUP3 PUSH1 0x20 DUP7 ADD PUSH2 0x44E JUMP JUMPDEST SWAP2 POP POP SWAP3 SWAP2 POP POP JUMP JUMPDEST PUSH0 DUP2 SWAP1 POP SWAP2 SWAP1 POP JUMP JUMPDEST PUSH2 0x4CE DUP2 PUSH2 0x4BC JUMP JUMPDEST DUP2 EQ PUSH2 0x4D8 JUMPI PUSH0 PUSH0 REVERT JUMPDEST POP JUMP JUMPDEST PUSH0 DUP2 CALLDATALOAD SWAP1 POP PUSH2 0x4E9 DUP2 PUSH2 0x4C5 JUMP JUMPDEST SWAP3 SWAP2 POP POP JUMP JUMPDEST PUSH1 0x3 DUP2 LT PUSH2 0x4FB JUMPI PUSH0 PUSH0 REVERT JUMPDEST POP JUMP JUMPDEST PUSH0 DUP2 CALLDATALOAD SWAP1 POP PUSH2 0x50C DUP2 PUSH2 0x4EF JUMP JUMPDEST SWAP3 SWAP2 POP POP JUMP JUMPDEST PUSH0 DUP2 ISZERO ISZERO SWAP1 POP SWAP2 SWAP1 POP JUMP JUMPDEST PUSH2 0x526 DUP2 PUSH2 0x512 JUMP JUMPDEST DUP2 EQ PUSH2 0x530 JUMPI PUSH0 PUSH0 REVERT JUMPDEST POP JUMP JUMPDEST PUSH0 DUP2 CALLDATALOAD SWAP1 POP PUSH2 0x541 DUP2 PUSH2 0x51D JUMP JUMPDEST SWAP3 SWAP2 POP POP JUMP JUMPDEST PUSH0 PUSH0 PUSH0 PUSH0 PUSH0 PUSH1 0xA0 DUP7 DUP9 SUB SLT ISZERO PUSH2 0x560 JUMPI PUSH2 0x55F PUSH2 0x378 JUMP JUMPDEST JUMPDEST PUSH0 DUP7 ADD CALLDATALOAD PUSH8 0xFFFFFFFFFFFFFFFF DUP2 GT ISZERO PUSH2 0x57D JUMPI PUSH2 0x57C PUSH2 0x37C JUMP JUMPDEST JUMPDEST PUSH2 0x589 DUP9 DUP3 DUP10 ADD PUSH2 0x48F JUMP JUMPDEST SWAP6 POP POP PUSH1 0x20 PUSH2 0x59A DUP9 DUP3 DUP10 ADD PUSH2 0x4DB JUMP JUMPDEST SWAP5 POP POP PUSH1 0x40 DUP7 ADD CALLDATALOAD PUSH8 0xFFFFFFFFFFFFFFFF DUP2 GT ISZERO PUSH2 0x5BB JUMPI PUSH2 0x5BA PUSH2 0x37C JUMP JUMPDEST JUMPDEST PUSH2 0x5C7 DUP9 DUP3 DUP10 ADD PUSH2 0x48F JUMP JUMPDEST SWAP4 POP POP PUSH1 0x60 PUSH2 0x5D8 DUP9 DUP3 DUP10 ADD PUSH2 0x4FE JUMP JUMPDEST SWAP3 POP POP PUSH1 0x80 PUSH2 0x5E9 DUP9 DUP3 DUP10 ADD PUSH2 0x533 JUMP JUMPDEST SWAP2 POP POP SWAP3 SWAP6 POP SWAP3 SWAP6 SWAP1 SWAP4 POP JUMP JUMPDEST PUSH0 PUSH1 0x20 DUP3 DUP5 SUB SLT ISZERO PUSH2 0x60B JUMPI PUSH2 0x60A PUSH2 0x378 JUMP JUMPDEST JUMPDEST PUSH0 PUSH2 0x618 DUP5 DUP3 DUP6 ADD PUSH2 0x4DB JUMP JUMPDEST SWAP2 POP POP SWAP3 SWAP2 POP POP JUMP JUMPDEST PUSH0 DUP2 MLOAD SWAP1 POP SWAP2 SWAP1 POP JUMP JUMPDEST PUSH0 DUP3 DUP3 MSTORE PUSH1 0x20 DUP3 ADD SWAP1 POP SWAP3 SWAP2 POP POP JUMP JUMPDEST DUP3 DUP2 DUP4 MCOPY PUSH0 DUP4 DUP4 ADD MSTORE POP POP POP JUMP JUMPDEST PUSH0 PUSH2 0x653 DUP3 PUSH2 0x621 JUMP JUMPDEST PUSH2 0x65D DUP2 DUP6 PUSH2 0x62B JUMP JUMPDEST SWAP4 POP PUSH2 0x66D DUP2 DUP6 PUSH1 0x20 DUP7 ADD PUSH2 0x63B JUMP JUMPDEST PUSH2 0x676 DUP2 PUSH2 0x388 JUMP JUMPDEST DUP5 ADD SWAP2 POP POP SWAP3 SWAP2 POP POP JUMP JUMPDEST PUSH2 0x68A DUP2 PUSH2 0x4BC JUMP JUMPDEST DUP3 MSTORE POP POP JUMP JUMPDEST PUSH32 0x4E487B7100000000000000000000000000000000000000000000000000000000 PUSH0 MSTORE PUSH1 0x21 PUSH1 0x4 MSTORE PUSH1 0x24 PUSH0 REVERT JUMPDEST PUSH1 0x3 DUP2 LT PUSH2 0x6CE JUMPI PUSH2 0x6CD PUSH2 0x690 JUMP JUMPDEST JUMPDEST POP JUMP JUMPDEST PUSH0 DUP2 SWAP1 POP PUSH2 0x6DE DUP3 PUSH2 0x6BD JUMP JUMPDEST SWAP2 SWAP1 POP JUMP JUMPDEST PUSH0 PUSH2 0x6ED DUP3 PUSH2 0x6D1 JUMP JUMPDEST SWAP1 POP SWAP2 SWAP1 POP JUMP JUMPDEST PUSH2 0x6FD DUP2 PUSH2 0x6E3 JUMP JUMPDEST DUP3 MSTORE POP POP JUMP JUMPDEST PUSH2 0x70C DUP2 PUSH2 0x512 JUMP JUMPDEST DUP3 MSTORE POP POP JUMP JUMPDEST PUSH0 PUSH1 0xA0 DUP3 ADD SWAP1 POP DUP2 DUP2 SUB PUSH0 DUP4 ADD MSTORE PUSH2 0x72A DUP2 DUP9 PUSH2 0x649 JUMP JUMPDEST SWAP1 POP PUSH2 0x739 PUSH1 0x20 DUP4 ADD DUP8 PUSH2 0x681 JUMP JUMPDEST DUP2 DUP2 SUB PUSH1 0x40 DUP4 ADD MSTORE PUSH2 0x74B DUP2 DUP7 PUSH2 0x649 JUMP JUMPDEST SWAP1 POP PUSH2 0x75A PUSH1 0x60 DUP4 ADD DUP6 PUSH2 0x6F4 JUMP JUMPDEST PUSH2 0x767 PUSH1 0x80 DUP4 ADD DUP5 PUSH2 0x703 JUMP JUMPDEST SWAP7 SWAP6 POP POP POP POP POP POP JUMP JUMPDEST PUSH32 0x4E487B7100000000000000000000000000000000000000000000000000000000 PUSH0 MSTORE PUSH1 0x22 PUSH1 0x4 MSTORE PUSH1 0x24 PUSH0 REVERT JUMPDEST PUSH0 PUSH1 0x2 DUP3 DIV SWAP1 POP PUSH1 0x1 DUP3 AND DUP1 PUSH2 0x7B5 JUMPI PUSH1 0x7F DUP3 AND SWAP2 POP JUMPDEST PUSH1 0x20 DUP3 LT DUP2 SUB PUSH2 0x7C8 JUMPI PUSH2 0x7C7 PUSH2 0x771 JUMP JUMPDEST JUMPDEST POP SWAP2 SWAP1 POP JUMP JUMPDEST PUSH0 DUP2 SWAP1 POP DUP2 PUSH0 MSTORE PUSH1 0x20 PUSH0 KECCAK256 SWAP1 POP SWAP2 SWAP1 POP JUMP JUMPDEST PUSH0 PUSH1 0x20 PUSH1 0x1F DUP4 ADD DIV SWAP1 POP SWAP2 SWAP1 POP JUMP JUMPDEST PUSH0 DUP3 DUP3 SHL SWAP1 POP SWAP3 SWAP2 POP POP JUMP JUMPDEST PUSH0 PUSH1 0x8 DUP4 MUL PUSH2 0x82A PUSH32 0xFFFFFFFFFFFFFFFFFFFFFFFFFFFFFFFFFFFFFFFFFFFFFFFFFFFFFFFFFFFFFFFF DUP3 PUSH2 0x7EF JUMP JUMPDEST PUSH2 0x834 DUP7 DUP4 PUSH2 0x7EF JUMP JUMPDEST SWAP6 POP DUP1 NOT DUP5 AND SWAP4 POP DUP1 DUP7 AND DUP5 OR SWAP3 POP POP POP SWAP4 SWAP3 POP POP POP JUMP JUMPDEST PUSH0 DUP2 SWAP1 POP SWAP2 SWAP1 POP JUMP JUMPDEST PUSH0 PUSH2 0x86F PUSH2 0x86A PUSH2 0x865 DUP5 PUSH2 0x4BC JUMP JUMPDEST PUSH2 0x84C JUMP JUMPDEST PUSH2 0x4BC JUMP JUMPDEST SWAP1 POP SWAP2 SWAP1 POP JUMP JUMPDEST PUSH0 DUP2 SWAP1 POP SWAP2 SWAP1 POP JUMP JUMPDEST PUSH2 0x888 DUP4 PUSH2 0x855 JUMP JUMPDEST PUSH2 0x89C PUSH2 0x894 DUP3 PUSH2 0x876 JUMP JUMPDEST DUP5 DUP5 SLOAD PUSH2 0x7FB JUMP JUMPDEST DUP3 SSTORE POP POP POP POP JUMP JUMPDEST PUSH0 PUSH0 SWAP1 POP SWAP1 JUMP JUMPDEST PUSH2 0x8B3 PUSH2 0x8A4 JUMP JUMPDEST PUSH2 0x8BE DUP2 DUP5 DUP5 PUSH2 0x87F JUMP JUMPDEST POP POP POP JUMP JUMPDEST JUMPDEST DUP2 DUP2 LT ISZERO PUSH2 0x8E1 JUMPI PUSH2 0x8D6 PUSH0 DUP3 PUSH2 0x8AB JUMP JUMPDEST PUSH1 0x1 DUP2 ADD SWAP1 POP PUSH2 0x8C4 JUMP JUMPDEST POP POP JUMP JUMPDEST PUSH1 0x1F DUP3 GT ISZERO PUSH2 0x926 JUMPI PUSH2 0x8F7 DUP2 PUSH2 0x7CE JUMP JUMPDEST PUSH2 0x900 DUP5 PUSH2 0x7E0 JUMP JUMPDEST DUP2 ADD PUSH1 0x20 DUP6 LT ISZERO PUSH2 0x90F JUMPI DUP2 SWAP1 POP JUMPDEST PUSH2 0x923 PUSH2 0x91B DUP6 PUSH2 0x7E0 JUMP JUMPDEST DUP4 ADD DUP3 PUSH2 0x8C3 JUMP JUMPDEST POP POP JUMPDEST POP POP POP JUMP JUMPDEST PUSH0 DUP3 DUP3 SHR SWAP1 POP SWAP3 SWAP2 POP POP JUMP JUMPDEST PUSH0 PUSH2 0x946 PUSH0 NOT DUP5 PUSH1 0x8 MUL PUSH2 0x92B JUMP JUMPDEST NOT DUP1 DUP4 AND SWAP2 POP POP SWAP3 SWAP2 POP POP JUMP JUMPDEST PUSH0 PUSH2 0x95E DUP4 DUP4 PUSH2 0x937 JUMP JUMPDEST SWAP2 POP DUP3 PUSH1 0x2 MUL DUP3 OR SWAP1 POP SWAP3 SWAP2 POP POP JUMP JUMPDEST PUSH2 0x977 DUP3 PUSH2 0x621 JUMP JUMPDEST PUSH8 0xFFFFFFFFFFFFFFFF DUP2 GT ISZERO PUSH2 0x990 JUMPI PUSH2 0x98F PUSH2 0x398 JUMP JUMPDEST JUMPDEST PUSH2 0x99A DUP3 SLOAD PUSH2 0x79E JUMP JUMPDEST PUSH2 0x9A5 DUP3 DUP3 DUP6 PUSH2 0x8E5 JUMP JUMPDEST PUSH0 PUSH1 0x20 SWAP1 POP PUSH1 0x1F DUP4 GT PUSH1 0x1 DUP2 EQ PUSH2 0x9D6 JUMPI PUSH0 DUP5 ISZERO PUSH2 0x9C4 JUMPI DUP3 DUP8 ADD MLOAD SWAP1 POP JUMPDEST PUSH2 0x9CE DUP6 DUP3 PUSH2 0x953 JUMP JUMPDEST DUP7 SSTORE POP PUSH2 0xA35 JUMP JUMPDEST PUSH1 0x1F NOT DUP5 AND PUSH2 0x9E4 DUP7 PUSH2 0x7CE JUMP JUMPDEST PUSH0 JUMPDEST DUP3 DUP2 LT ISZERO PUSH2 0xA0B JUMPI DUP5 DUP10 ADD MLOAD DUP3 SSTORE PUSH1 0x1 DUP3 ADD SWAP2 POP PUSH1 0x20 DUP6 ADD SWAP5 POP PUSH1 0x20 DUP2 ADD SWAP1 POP PUSH2 0x9E6 JUMP JUMPDEST DUP7 DUP4 LT ISZERO PUSH2 0xA28 JUMPI DUP5 DUP10 ADD MLOAD PUSH2 0xA24 PUSH1 0x1F DUP10 AND DUP3 PUSH2 0x937 JUMP JUMPDEST DUP4 SSTORE POP JUMPDEST PUSH1 0x1 PUSH1 0x2 DUP9 MUL ADD DUP9 SSTORE POP POP POP JUMPDEST POP POP POP POP POP POP JUMP JUMPDEST PUSH32 0x4E487B7100000000000000000000000000000000000000000000000000000000 PUSH0 MSTORE PUSH1 0x32 PUSH1 0x4 MSTORE PUSH1 0x24 PUSH0 REVERT INVALID LOG2 PUSH5 0x6970667358 0x22 SLT KECCAK256 RJUMPI 0x8C28 PUSH3 0x8352F3 PUSH11 0x384185404DA647EB2DD295 0xEA TLOAD DUP6 PUSH4 0x7B61DA36 PUSH27 0xE99133064736F6C634300081F0033000000000000000000000000 "
				},
				"gasEstimates": {
					"creation": {
						"codeDepositCost": "544000",
						"executionCost": "573",
						"totalCost": "544573"
					},
					"external": {
						"AddStudents(string,uint256,string,uint8,bool)": "infinite",
						"getStudent(uint256)": "infinite"
					}
				},
				"methodIdentifiers": {
					"AddStudents(string,uint256,string,uint8,bool)": "3af750c6",
					"getStudent(uint256)": "642f9163"
				}
			},
			"storageLayout": {
				"storage": [
					{
						"astId": 20,
						"contract": "Class_5_6 (13 & 16.3.26)/StructEg.sol:StructEg",
						"label": "studentYear",
						"offset": 0,
						"slot": "0",
						"type": "t_enum(year)17"
					},
					{
						"astId": 24,
						"contract": "Class_5_6 (13 & 16.3.26)/StructEg.sol:StructEg",
						"label": "students",
						"offset": 0,
						"slot": "1",
						"type": "t_array(t_struct(Student)13_storage)dyn_storage"
					}
				],
				"types": {
					"t_array(t_struct(Student)13_storage)dyn_storage": {
						"base": "t_struct(Student)13_storage",
						"encoding": "dynamic_array",
						"label": "struct StructEg.Student[]",
						"numberOfBytes": "32"
					},
					"t_bool": {
						"encoding": "inplace",
						"label": "bool",
						"numberOfBytes": "1"
					},
					"t_enum(year)17": {
						"encoding": "inplace",
						"label": "enum StructEg.year",
						"numberOfBytes": "1"
					},
					"t_string_storage": {
						"encoding": "bytes",
						"label": "string",
						"numberOfBytes": "32"
					},
					"t_struct(Student)13_storage": {
						"encoding": "inplace",
						"label": "struct StructEg.Student",
						"members": [
							{
								"astId": 3,
								"contract": "Class_5_6 (13 & 16.3.26)/StructEg.sol:StructEg",
								"label": "name",
								"offset": 0,
								"slot": "0",
								"type": "t_string_storage"
							},
							{
								"astId": 5,
								"contract": "Class_5_6 (13 & 16.3.26)/StructEg.sol:StructEg",
								"label": "id",
								"offset": 0,
								"slot": "1",
								"type": "t_uint256"
							},
							{
								"astId": 7,
								"contract": "Class_5_6 (13 & 16.3.26)/StructEg.sol:StructEg",
								"label": "course",
								"offset": 0,
								"slot": "2",
								"type": "t_string_storage"
							},
							{
								"astId": 10,
								"contract": "Class_5_6 (13 & 16.3.26)/StructEg.sol:StructEg",
								"label": "studentYear",
								"offset": 0,
								"slot": "3",
								"type": "t_enum(year)17"
							},
							{
								"astId": 12,
								"contract": "Class_5_6 (13 & 16.3.26)/StructEg.sol:StructEg",
								"label": "Completion",
								"offset": 1,
								"slot": "3",
								"type": "t_bool"
							}
						],
						"numberOfBytes": "128"
					},
					"t_uint256": {
						"encoding": "inplace",
						"label": "uint256",
						"numberOfBytes": "32"
					}
				}
			},
			"userdoc": {
				"kind": "user",
				"methods": {},
				"version": 1
			}
		}
	}
}