{
	"Class_5 (13.3.26)/EnumEg.sol": {
		"EnumExample1": {
			"abi": [
				{
					"inputs": [],
					"name": "setApproved",
					"outputs": [],
					"stateMutability": "nonpayable",
					"type": "function"
				},
				{
					"inputs": [],
					"name": "setPending",
					"outputs": [],
					"stateMutability": "nonpayable",
					"type": "function"
				},
				{
					"inputs": [],
					"name": "setRejected",
					"outputs": [],
					"stateMutability": "nonpayable",
					"type": "function"
				}
			],
			"devdoc": {
				"kind": "dev",
				"methods": {},
				"version": 1
			},
			"evm": {
				"assembly": "    /* \"Class_5 (13.3.26)/EnumEg.sol\":78:484  contract EnumExample1 {... */\n  mstore(0x40, 0x80)\n  callvalue\n  dup1\n  iszero\n  tag_1\n  jumpi\n  revert(0x00, 0x00)\ntag_1:\n  pop\n  dataSize(sub_0)\n  dup1\n  dataOffset(sub_0)\n  0x00\n  codecopy\n  0x00\n  return\nstop\n\nsub_0: assembly {\n        /* \"Class_5 (13.3.26)/EnumEg.sol\":78:484  contract EnumExample1 {... */\n      mstore(0x40, 0x80)\n      callvalue\n      dup1\n      iszero\n      tag_1\n      jumpi\n      revert(0x00, 0x00)\n    tag_1:\n      pop\n      jumpi(tag_2, lt(calldatasize, 0x04))\n      shr(0xe0, calldataload(0x00))\n      dup1\n      0x105d3645\n      eq\n      tag_3\n      jumpi\n      dup1\n      0x396d3781\n      eq\n      tag_4\n      jumpi\n      dup1\n      0xee249ae3\n      eq\n      tag_5\n      jumpi\n    tag_2:\n      revert(0x00, 0x00)\n        /* \"Class_5 (13.3.26)/EnumEg.sol\":305:385  function setApproved() public {... */\n    tag_3:\n      tag_6\n      tag_7\n      jump\t// in\n    tag_6:\n      stop\n        /* \"Class_5 (13.3.26)/EnumEg.sol\":219:297  function setPending() public {... */\n    tag_4:\n      tag_8\n      tag_9\n      jump\t// in\n    tag_8:\n      stop\n        /* \"Class_5 (13.3.26)/EnumEg.sol\":393:473  function setRejected() public {... */\n    tag_5:\n      tag_10\n      tag_11\n      jump\t// in\n    tag_10:\n      stop\n        /* \"Class_5 (13.3.26)/EnumEg.sol\":305:385  function setApproved() public {... */\n    tag_7:\n        /* \"Class_5 (13.3.26)/EnumEg.sol\":362:377  Status.Approved */\n      0x01\n        /* \"Class_5 (13.3.26)/EnumEg.sol\":346:359  currentStatus */\n      0x00\n      0x00\n        /* \"Class_5 (13.3.26)/EnumEg.sol\":346:377  currentStatus = Status.Approved */\n      0x0100\n      exp\n      dup2\n      sload\n      dup2\n      0xff\n      mul\n      not\n      and\n      swap1\n      dup4\n      0x02\n      dup2\n      gt\n      iszero\n      tag_13\n      jumpi\n      tag_14\n      tag_15\n      jump\t// in\n    tag_14:\n    tag_13:\n      mul\n      or\n      swap1\n      sstore\n      pop\n        /* \"Class_5 (13.3.26)/EnumEg.sol\":305:385  function setApproved() public {... */\n      jump\t// out\n        /* \"Class_5 (13.3.26)/EnumEg.sol\":219:297  function setPending() public {... */\n    tag_9:\n        /* \"Class_5 (13.3.26)/EnumEg.sol\":275:289  Status.Pending */\n      0x00\n        /* \"Class_5 (13.3.26)/EnumEg.sol\":259:272  currentStatus */\n      0x00\n      0x00\n        /* \"Class_5 (13.3.26)/EnumEg.sol\":259:289  currentStatus = Status.Pending */\n      0x0100\n      exp\n      dup2\n      sload\n      dup2\n      0xff\n      mul\n      not\n      and\n      swap1\n      dup4\n      0x02\n      dup2\n      gt\n      iszero\n      tag_17\n      jumpi\n      tag_18\n      tag_15\n      jump\t// in\n    tag_18:\n    tag_17:\n      mul\n      or\n      swap1\n      sstore\n      pop\n        /* \"Class_5 (13.3.26)/EnumEg.sol\":219:297  function setPending() public {... */\n      jump\t// out\n        /* \"Class_5 (13.3.26)/EnumEg.sol\":393:473  function setRejected() public {... */\n    tag_11:\n        /* \"Class_5 (13.3.26)/EnumEg.sol\":450:465  Status.Rejected */\n      0x02\n        /* \"Class_5 (13.3.26)/EnumEg.sol\":434:447  currentStatus */\n      0x00\n      0x00\n        /* \"Class_5 (13.3.26)/EnumEg.sol\":434:465  currentStatus = Status.Rejected */\n      0x0100\n      exp\n      dup2\n      sload\n      dup2\n      0xff\n      mul\n      not\n      and\n      swap1\n      dup4\n      0x02\n      dup2\n      gt\n      iszero\n      tag_20\n      jumpi\n      tag_21\n      tag_15\n      jump\t// in\n    tag_21:\n    tag_20:\n      mul\n      or\n      swap1\n      sstore\n      pop\n        /* \"Class_5 (13.3.26)/EnumEg.sol\":393:473  function setRejected() public {... */\n      jump\t// out\n        /* \"#utility.yul\":7:187   */\n    tag_15:\n        /* \"#utility.yul\":55:132   */\n      0x4e487b7100000000000000000000000000000000000000000000000000000000\n        /* \"#utility.yul\":52:53   */\n      0x00\n        /* \"#utility.yul\":45:133   */\n      mstore\n        /* \"#utility.yul\":152:156   */\n      0x21\n        /* \"#utility.yul\":149:150   */\n      0x04\n        /* \"#utility.yul\":142:157   */\n      mstore\n        /* \"#utility.yul\":176:180   */\n      0x24\n        /* \"#utility.yul\":173:174   */\n      0x00\n        /* \"#utility.yul\":166:181   */\n      revert\n\n    auxdata: 0xa2646970667358221220f62855903523a26f1dae1a53f801b031db3d4dab99da374420ab5bdd844cd0d364736f6c634300081f0033\n}\n",
				"bytecode": {
					"linkReferences": {},
					"object": "6080604052348015600e575f5ffd5b506101308061001c5f395ff3fe6080604052348015600e575f5ffd5b5060043610603a575f3560e01c8063105d364514603e578063396d3781146046578063ee249ae314604e575b5f5ffd5b60446056565b005b604c607e565b005b605460a5565b005b60015f5f6101000a81548160ff02191690836002811115607757607660cd565b5b0217905550565b5f5f5f6101000a81548160ff02191690836002811115609e57609d60cd565b5b0217905550565b60025f5f6101000a81548160ff0219169083600281111560c65760c560cd565b5b0217905550565b7f4e487b71000000000000000000000000000000000000000000000000000000005f52602160045260245ffdfea2646970667358221220f62855903523a26f1dae1a53f801b031db3d4dab99da374420ab5bdd844cd0d364736f6c634300081f0033",
					"opcodes": "PUSH1 0x80 PUSH1 0x40 MSTORE CALLVALUE DUP1 ISZERO PUSH1 0xE JUMPI PUSH0 PUSH0 REVERT JUMPDEST POP PUSH2 0x130 DUP1 PUSH2 0x1C PUSH0 CODECOPY PUSH0 RETURN INVALID PUSH1 0x80 PUSH1 0x40 MSTORE CALLVALUE DUP1 ISZERO PUSH1 0xE JUMPI PUSH0 PUSH0 REVERT JUMPDEST POP PUSH1 0x4 CALLDATASIZE LT PUSH1 0x3A JUMPI PUSH0 CALLDATALOAD PUSH1 0xE0 SHR DUP1 PUSH4 0x105D3645 EQ PUSH1 0x3E JUMPI DUP1 PUSH4 0x396D3781 EQ PUSH1 0x46 JUMPI DUP1 PUSH4 0xEE249AE3 EQ PUSH1 0x4E JUMPI JUMPDEST PUSH0 PUSH0 REVERT JUMPDEST PUSH1 0x44 PUSH1 0x56 JUMP JUMPDEST STOP JUMPDEST PUSH1 0x4C PUSH1 0x7E JUMP JUMPDEST STOP JUMPDEST PUSH1 0x54 PUSH1 0xA5 JUMP JUMPDEST STOP JUMPDEST PUSH1 0x1 PUSH0 PUSH0 PUSH2 0x100 EXP DUP2 SLOAD DUP2 PUSH1 0xFF MUL NOT AND SWAP1 DUP4 PUSH1 0x2 DUP2 GT ISZERO PUSH1 0x77 JUMPI PUSH1 0x76 PUSH1 0xCD JUMP JUMPDEST JUMPDEST MUL OR SWAP1 SSTORE POP JUMP JUMPDEST PUSH0 PUSH0 PUSH0 PUSH2 0x100 EXP DUP2 SLOAD DUP2 PUSH1 0xFF MUL NOT AND SWAP1 DUP4 PUSH1 0x2 DUP2 GT ISZERO PUSH1 0x9E JUMPI PUSH1 0x9D PUSH1 0xCD JUMP JUMPDEST JUMPDEST MUL OR SWAP1 SSTORE POP JUMP JUMPDEST PUSH1 0x2 PUSH0 PUSH0 PUSH2 0x100 EXP DUP2 SLOAD DUP2 PUSH1 0xFF MUL NOT AND SWAP1 DUP4 PUSH1 0x2 DUP2 GT ISZERO PUSH1 0xC6 JUMPI PUSH1 0xC5 PUSH1 0xCD JUMP JUMPDEST JUMPDEST MUL OR SWAP1 SSTORE POP JUMP JUMPDEST PUSH32 0x4E487B7100000000000000000000000000000000000000000000000000000000 PUSH0 MSTORE PUSH1 0x21 PUSH1 0x4 MSTORE PUSH1 0x24 PUSH0 REVERT INVALID LOG2 PUSH5 0x6970667358 0x22 SLT KECCAK256 0xF6 0x28 SSTORE SWAP1 CALLDATALOAD 0x23 LOG2 PUSH16 0x1DAE1A53F801B031DB3D4DAB99DA3744 KECCAK256 0xAB JUMPDEST 0xDD DUP5 0x4C 0xD0 0xD3 PUSH5 0x736F6C6343 STOP ADDMOD 0x1F STOP CALLER "
				},
				"gasEstimates": {
					"creation": {
						"codeDepositCost": "60800",
						"executionCost": "109",
						"totalCost": "60909"
					},
					"external": {
						"setApproved()": "24406",
						"setPending()": "24427",
						"setRejected()": "24450"
					}
				},
				"methodIdentifiers": {
					"setApproved()": "105d3645",
					"setPending()": "396d3781",
					"setRejected()": "ee249ae3"
				}
			},
			"storageLayout": {
				"storage": [
					{
						"astId": 8,
						"contract": "Class_5 (13.3.26)/EnumEg.sol:EnumExample1",
						"label": "currentStatus",
						"offset": 0,
						"slot": "0",
						"type": "t_enum(Status)5"
					}
				],
				"types": {
					"t_enum(Status)5": {
						"encoding": "inplace",
						"label": "enum EnumExample1.Status",
						"numberOfBytes": "1"
					}
				}
			},
			"userdoc": {
				"kind": "user",
				"methods": {},
				"version": 1
			}
		}
	}
}