{
	"Class_8 (20.3.26)/Studentmange.sol": {
		"StudentManagement": {
			"abi": [
				{
					"inputs": [],
					"stateMutability": "nonpayable",
					"type": "constructor"
				},
				{
					"inputs": [],
					"name": "Owner",
					"outputs": [
						{
							"internalType": "address",
							"name": "",
							"type": "address"
						}
					],
					"stateMutability": "view",
					"type": "function"
				},
				{
					"inputs": [
						{
							"internalType": "uint256",
							"name": "_id",
							"type": "uint256"
						},
						{
							"internalType": "string",
							"name": "_name",
							"type": "string"
						},
						{
							"internalType": "uint256",
							"name": "_age",
							"type": "uint256"
						}
					],
					"name": "addStudents",
					"outputs": [],
					"stateMutability": "nonpayable",
					"type": "function"
				},
				{
					"inputs": [
						{
							"internalType": "uint256",
							"name": "_id",
							"type": "uint256"
						}
					],
					"name": "getStudent",
					"outputs": [
						{
							"internalType": "uint256",
							"name": "",
							"type": "uint256"
						},
						{
							"internalType": "string",
							"name": "",
							"type": "string"
						},
						{
							"internalType": "uint256",
							"name": "",
							"type": "uint256"
						}
					],
					"stateMutability": "view",
					"type": "function"
				},
				{
					"inputs": [
						{
							"internalType": "uint256",
							"name": "_id",
							"type": "uint256"
						},
						{
							"internalType": "string",
							"name": "_name",
							"type": "string"
						},
						{
							"internalType": "uint256",
							"name": "_age",
							"type": "uint256"
						}
					],
					"name": "updateStudent",
					"outputs": [],
					"stateMutability": "nonpayable",
					"type": "function"
				}
			],
			"devdoc": {
				"kind": "dev",
				"methods": {},
				"version": 1
			},
			"evm": {
				"assembly": "    /* \"Class_8 (20.3.26)/Studentmange.sol\":60:1262  contract StudentManagement{... */\n  mstore(0x40, 0x80)\n    /* \"Class_8 (20.3.26)/Studentmange.sol\":142:193  constructor (){... */\n  callvalue\n  dup1\n  iszero\n  tag_1\n  jumpi\n  revert(0x00, 0x00)\ntag_1:\n  pop\n    /* \"Class_8 (20.3.26)/Studentmange.sol\":175:185  msg.sender */\n  caller\n    /* \"Class_8 (20.3.26)/Studentmange.sol\":167:172  Owner */\n  0x00\n  0x00\n    /* \"Class_8 (20.3.26)/Studentmange.sol\":167:185  Owner = msg.sender */\n  0x0100\n  exp\n  dup2\n  sload\n  dup2\n  0xffffffffffffffffffffffffffffffffffffffff\n  mul\n  not\n  and\n  swap1\n  dup4\n  0xffffffffffffffffffffffffffffffffffffffff\n  and\n  mul\n  or\n  swap1\n  sstore\n  pop\n    /* \"Class_8 (20.3.26)/Studentmange.sol\":60:1262  contract StudentManagement{... */\n  dataSize(sub_0)\n  dup1\n  dataOffset(sub_0)\n  0x00\n  codecopy\n  0x00\n  return\nstop\n\nsub_0: assembly {\n        /* \"Class_8 (20.3.26)/Studentmange.sol\":60:1262  contract StudentManagement{... */\n      mstore(0x40, 0x80)\n      callvalue\n      dup1\n      iszero\n      tag_1\n      jumpi\n      revert(0x00, 0x00)\n    tag_1:\n      pop\n      jumpi(tag_2, lt(calldatasize, 0x04))\n      shr(0xe0, calldataload(0x00))\n      dup1\n      0x642f9163\n      eq\n      tag_3\n      jumpi\n      dup1\n      0xb4a99a4e\n      eq\n      tag_4\n      jumpi\n      dup1\n      0xde5c363c\n      eq\n      tag_5\n      jumpi\n      dup1\n      0xec7505b1\n      eq\n      tag_6\n      jumpi\n    tag_2:\n      revert(0x00, 0x00)\n        /* \"Class_8 (20.3.26)/Studentmange.sol\":811:981  function getStudent(uint _id) public view returns (uint, string memory, uint){... */\n    tag_3:\n      tag_7\n      0x04\n      dup1\n      calldatasize\n      sub\n      dup2\n      add\n      swap1\n      tag_8\n      swap2\n      swap1\n      tag_9\n      jump\t// in\n    tag_8:\n      tag_10\n      jump\t// in\n    tag_7:\n      mload(0x40)\n      tag_11\n      swap4\n      swap3\n      swap2\n      swap1\n      tag_12\n      jump\t// in\n    tag_11:\n      mload(0x40)\n      dup1\n      swap2\n      sub\n      swap1\n      return\n        /* \"Class_8 (20.3.26)/Studentmange.sol\":115:135  address public Owner */\n    tag_4:\n      tag_13\n      tag_14\n      jump\t// in\n    tag_13:\n      mload(0x40)\n      tag_15\n      swap2\n      swap1\n      tag_16\n      jump\t// in\n    tag_15:\n      mload(0x40)\n      dup1\n      swap2\n      sub\n      swap1\n      return\n        /* \"Class_8 (20.3.26)/Studentmange.sol\":590:768  function addStudents(uint _id, string memory _name, uint _age) public OnlyOwner{... */\n    tag_5:\n      tag_17\n      0x04\n      dup1\n      calldatasize\n      sub\n      dup2\n      add\n      swap1\n      tag_18\n      swap2\n      swap1\n      tag_19\n      jump\t// in\n    tag_18:\n      tag_20\n      jump\t// in\n    tag_17:\n      stop\n        /* \"Class_8 (20.3.26)/Studentmange.sol\":1060:1259  function updateStudent(uint _id, string memory _name, uint _age) public OnlyOwner{... */\n    tag_6:\n      tag_21\n      0x04\n      dup1\n      calldatasize\n      sub\n      dup2\n      add\n      swap1\n      tag_22\n      swap2\n      swap1\n      tag_19\n      jump\t// in\n    tag_22:\n      tag_23\n      jump\t// in\n    tag_21:\n      stop\n        /* \"Class_8 (20.3.26)/Studentmange.sol\":811:981  function getStudent(uint _id) public view returns (uint, string memory, uint){... */\n    tag_10:\n        /* \"Class_8 (20.3.26)/Studentmange.sol\":862:866  uint */\n      0x00\n        /* \"Class_8 (20.3.26)/Studentmange.sol\":868:881  string memory */\n      0x60\n        /* \"Class_8 (20.3.26)/Studentmange.sol\":883:887  uint */\n      0x00\n        /* \"Class_8 (20.3.26)/Studentmange.sol\":899:915  Student memory s */\n      0x00\n        /* \"Class_8 (20.3.26)/Studentmange.sol\":918:926  students */\n      0x01\n        /* \"Class_8 (20.3.26)/Studentmange.sol\":918:931  students[_id] */\n      0x00\n        /* \"Class_8 (20.3.26)/Studentmange.sol\":927:930  _id */\n      dup7\n        /* \"Class_8 (20.3.26)/Studentmange.sol\":918:931  students[_id] */\n      dup2\n      mstore\n      0x20\n      add\n      swap1\n      dup2\n      mstore\n      0x20\n      add\n      0x00\n      keccak256\n        /* \"Class_8 (20.3.26)/Studentmange.sol\":899:931  Student memory s = students[_id] */\n      mload(0x40)\n      dup1\n      0x60\n      add\n      0x40\n      mstore\n      swap1\n      dup2\n      0x00\n      dup3\n      add\n      sload\n      dup2\n      mstore\n      0x20\n      add\n      0x01\n      dup3\n      add\n      dup1\n      sload\n      tag_25\n      swap1\n      tag_26\n      jump\t// in\n    tag_25:\n      dup1\n      0x1f\n      add\n      0x20\n      dup1\n      swap2\n      div\n      mul\n      0x20\n      add\n      mload(0x40)\n      swap1\n      dup2\n      add\n      0x40\n      mstore\n      dup1\n      swap3\n      swap2\n      swap1\n      dup2\n      dup2\n      mstore\n      0x20\n      add\n      dup3\n      dup1\n      sload\n      tag_27\n      swap1\n      tag_26\n      jump\t// in\n    tag_27:\n      dup1\n      iszero\n      tag_28\n      jumpi\n      dup1\n      0x1f\n      lt\n      tag_29\n      jumpi\n      0x0100\n      dup1\n      dup4\n      sload\n      div\n      mul\n      dup4\n      mstore\n      swap2\n      0x20\n      add\n      swap2\n      jump(tag_28)\n    tag_29:\n      dup3\n      add\n      swap2\n      swap1\n      0x00\n      mstore\n      keccak256(0x00, 0x20)\n      swap1\n    tag_30:\n      dup2\n      sload\n      dup2\n      mstore\n      swap1\n      0x01\n      add\n      swap1\n      0x20\n      add\n      dup1\n      dup4\n      gt\n      tag_30\n      jumpi\n      dup3\n      swap1\n      sub\n      0x1f\n      and\n      dup3\n      add\n      swap2\n    tag_28:\n      pop\n      pop\n      pop\n      pop\n      pop\n      dup2\n      mstore\n      0x20\n      add\n      0x02\n      dup3\n      add\n      sload\n      dup2\n      mstore\n      pop\n      pop\n      swap1\n      pop\n        /* \"Class_8 (20.3.26)/Studentmange.sol\":950:951  s */\n      dup1\n        /* \"Class_8 (20.3.26)/Studentmange.sol\":950:954  s.id */\n      0x00\n      add\n      mload\n        /* \"Class_8 (20.3.26)/Studentmange.sol\":956:957  s */\n      dup2\n        /* \"Class_8 (20.3.26)/Studentmange.sol\":956:962  s.name */\n      0x20\n      add\n      mload\n        /* \"Class_8 (20.3.26)/Studentmange.sol\":964:965  s */\n      dup3\n        /* \"Class_8 (20.3.26)/Studentmange.sol\":964:969  s.age */\n      0x40\n      add\n      mload\n        /* \"Class_8 (20.3.26)/Studentmange.sol\":942:970  return (s.id, s.name, s.age) */\n      swap4\n      pop\n      swap4\n      pop\n      swap4\n      pop\n      pop\n        /* \"Class_8 (20.3.26)/Studentmange.sol\":811:981  function getStudent(uint _id) public view returns (uint, string memory, uint){... */\n      swap2\n      swap4\n      swap1\n      swap3\n      pop\n      jump\t// out\n        /* \"Class_8 (20.3.26)/Studentmange.sol\":115:135  address public Owner */\n    tag_14:\n      0x00\n      0x00\n      swap1\n      sload\n      swap1\n      0x0100\n      exp\n      swap1\n      div\n      0xffffffffffffffffffffffffffffffffffffffff\n      and\n      dup2\n      jump\t// out\n        /* \"Class_8 (20.3.26)/Studentmange.sol\":590:768  function addStudents(uint _id, string memory _name, uint _age) public OnlyOwner{... */\n    tag_20:\n        /* \"Class_8 (20.3.26)/Studentmange.sol\":483:488  Owner */\n      0x00\n      0x00\n      swap1\n      sload\n      swap1\n      0x0100\n      exp\n      swap1\n      div\n      0xffffffffffffffffffffffffffffffffffffffff\n      and\n        /* \"Class_8 (20.3.26)/Studentmange.sol\":469:488  msg.sender == Owner */\n      0xffffffffffffffffffffffffffffffffffffffff\n      and\n        /* \"Class_8 (20.3.26)/Studentmange.sol\":469:479  msg.sender */\n      caller\n        /* \"Class_8 (20.3.26)/Studentmange.sol\":469:488  msg.sender == Owner */\n      0xffffffffffffffffffffffffffffffffffffffff\n      and\n      eq\n        /* \"Class_8 (20.3.26)/Studentmange.sol\":461:502  require(msg.sender == Owner, 'Not Owner') */\n      tag_32\n      jumpi\n      mload(0x40)\n      0x08c379a000000000000000000000000000000000000000000000000000000000\n      dup2\n      mstore\n      0x04\n      add\n      tag_33\n      swap1\n      tag_34\n      jump\t// in\n    tag_33:\n      mload(0x40)\n      dup1\n      swap2\n      sub\n      swap1\n      revert\n    tag_32:\n        /* \"Class_8 (20.3.26)/Studentmange.sol\":694:695  0 */\n      0x00\n        /* \"Class_8 (20.3.26)/Studentmange.sol\":688:691  _id */\n      dup4\n        /* \"Class_8 (20.3.26)/Studentmange.sol\":688:695  _id > 0 */\n      gt\n        /* \"Class_8 (20.3.26)/Studentmange.sol\":680:710  require(_id > 0, 'Invalid ID') */\n      tag_36\n      jumpi\n      mload(0x40)\n      0x08c379a000000000000000000000000000000000000000000000000000000000\n      dup2\n      mstore\n      0x04\n      add\n      tag_37\n      swap1\n      tag_38\n      jump\t// in\n    tag_37:\n      mload(0x40)\n      dup1\n      swap2\n      sub\n      swap1\n      revert\n    tag_36:\n        /* \"Class_8 (20.3.26)/Studentmange.sol\":737:760  Student(_id,_name,_age) */\n      mload(0x40)\n      dup1\n      0x60\n      add\n      0x40\n      mstore\n      dup1\n        /* \"Class_8 (20.3.26)/Studentmange.sol\":745:748  _id */\n      dup5\n        /* \"Class_8 (20.3.26)/Studentmange.sol\":737:760  Student(_id,_name,_age) */\n      dup2\n      mstore\n      0x20\n      add\n        /* \"Class_8 (20.3.26)/Studentmange.sol\":749:754  _name */\n      dup4\n        /* \"Class_8 (20.3.26)/Studentmange.sol\":737:760  Student(_id,_name,_age) */\n      dup2\n      mstore\n      0x20\n      add\n        /* \"Class_8 (20.3.26)/Studentmange.sol\":755:759  _age */\n      dup3\n        /* \"Class_8 (20.3.26)/Studentmange.sol\":737:760  Student(_id,_name,_age) */\n      dup2\n      mstore\n      pop\n        /* \"Class_8 (20.3.26)/Studentmange.sol\":721:729  students */\n      0x01\n        /* \"Class_8 (20.3.26)/Studentmange.sol\":721:734  students[_id] */\n      0x00\n        /* \"Class_8 (20.3.26)/Studentmange.sol\":730:733  _id */\n      dup6\n        /* \"Class_8 (20.3.26)/Studentmange.sol\":721:734  students[_id] */\n      dup2\n      mstore\n      0x20\n      add\n      swap1\n      dup2\n      mstore\n      0x20\n      add\n      0x00\n      keccak256\n        /* \"Class_8 (20.3.26)/Studentmange.sol\":721:760  students[_id] = Student(_id,_name,_age) */\n      0x00\n      dup3\n      add\n      mload\n      dup2\n      0x00\n      add\n      sstore\n      0x20\n      dup3\n      add\n      mload\n      dup2\n      0x01\n      add\n      swap1\n      dup2\n      tag_39\n      swap2\n      swap1\n      tag_40\n      jump\t// in\n    tag_39:\n      pop\n      0x40\n      dup3\n      add\n      mload\n      dup2\n      0x02\n      add\n      sstore\n      swap1\n      pop\n      pop\n        /* \"Class_8 (20.3.26)/Studentmange.sol\":590:768  function addStudents(uint _id, string memory _name, uint _age) public OnlyOwner{... */\n      pop\n      pop\n      pop\n      jump\t// out\n        /* \"Class_8 (20.3.26)/Studentmange.sol\":1060:1259  function updateStudent(uint _id, string memory _name, uint _age) public OnlyOwner{... */\n    tag_23:\n        /* \"Class_8 (20.3.26)/Studentmange.sol\":483:488  Owner */\n      0x00\n      0x00\n      swap1\n      sload\n      swap1\n      0x0100\n      exp\n      swap1\n      div\n      0xffffffffffffffffffffffffffffffffffffffff\n      and\n        /* \"Class_8 (20.3.26)/Studentmange.sol\":469:488  msg.sender == Owner */\n      0xffffffffffffffffffffffffffffffffffffffff\n      and\n        /* \"Class_8 (20.3.26)/Studentmange.sol\":469:479  msg.sender */\n      caller\n        /* \"Class_8 (20.3.26)/Studentmange.sol\":469:488  msg.sender == Owner */\n      0xffffffffffffffffffffffffffffffffffffffff\n      and\n      eq\n        /* \"Class_8 (20.3.26)/Studentmange.sol\":461:502  require(msg.sender == Owner, 'Not Owner') */\n      tag_42\n      jumpi\n      mload(0x40)\n      0x08c379a000000000000000000000000000000000000000000000000000000000\n      dup2\n      mstore\n      0x04\n      add\n      tag_43\n      swap1\n      tag_34\n      jump\t// in\n    tag_43:\n      mload(0x40)\n      dup1\n      swap2\n      sub\n      swap1\n      revert\n    tag_42:\n        /* \"Class_8 (20.3.26)/Studentmange.sol\":1179:1180  0 */\n      0x00\n        /* \"Class_8 (20.3.26)/Studentmange.sol\":1160:1168  students */\n      0x01\n        /* \"Class_8 (20.3.26)/Studentmange.sol\":1160:1173  students[_id] */\n      0x00\n        /* \"Class_8 (20.3.26)/Studentmange.sol\":1169:1172  _id */\n      dup6\n        /* \"Class_8 (20.3.26)/Studentmange.sol\":1160:1173  students[_id] */\n      dup2\n      mstore\n      0x20\n      add\n      swap1\n      dup2\n      mstore\n      0x20\n      add\n      0x00\n      keccak256\n        /* \"Class_8 (20.3.26)/Studentmange.sol\":1160:1176  students[_id].id */\n      0x00\n      add\n      sload\n        /* \"Class_8 (20.3.26)/Studentmange.sol\":1160:1180  students[_id].id !=0 */\n      sub\n        /* \"Class_8 (20.3.26)/Studentmange.sol\":1152:1201  require(students[_id].id !=0,'Student not found') */\n      tag_45\n      jumpi\n      mload(0x40)\n      0x08c379a000000000000000000000000000000000000000000000000000000000\n      dup2\n      mstore\n      0x04\n      add\n      tag_46\n      swap1\n      tag_47\n      jump\t// in\n    tag_46:\n      mload(0x40)\n      dup1\n      swap2\n      sub\n      swap1\n      revert\n    tag_45:\n        /* \"Class_8 (20.3.26)/Studentmange.sol\":1228:1251  Student(_id,_name,_age) */\n      mload(0x40)\n      dup1\n      0x60\n      add\n      0x40\n      mstore\n      dup1\n        /* \"Class_8 (20.3.26)/Studentmange.sol\":1236:1239  _id */\n      dup5\n        /* \"Class_8 (20.3.26)/Studentmange.sol\":1228:1251  Student(_id,_name,_age) */\n      dup2\n      mstore\n      0x20\n      add\n        /* \"Class_8 (20.3.26)/Studentmange.sol\":1240:1245  _name */\n      dup4\n        /* \"Class_8 (20.3.26)/Studentmange.sol\":1228:1251  Student(_id,_name,_age) */\n      dup2\n      mstore\n      0x20\n      add\n        /* \"Class_8 (20.3.26)/Studentmange.sol\":1246:1250  _age */\n      dup3\n        /* \"Class_8 (20.3.26)/Studentmange.sol\":1228:1251  Student(_id,_name,_age) */\n      dup2\n      mstore\n      pop\n        /* \"Class_8 (20.3.26)/Studentmange.sol\":1212:1220  students */\n      0x01\n        /* \"Class_8 (20.3.26)/Studentmange.sol\":1212:1225  students[_id] */\n      0x00\n        /* \"Class_8 (20.3.26)/Studentmange.sol\":1221:1224  _id */\n      dup6\n        /* \"Class_8 (20.3.26)/Studentmange.sol\":1212:1225  students[_id] */\n      dup2\n      mstore\n      0x20\n      add\n      swap1\n      dup2\n      mstore\n      0x20\n      add\n      0x00\n      keccak256\n        /* \"Class_8 (20.3.26)/Studentmange.sol\":1212:1251  students[_id] = Student(_id,_name,_age) */\n      0x00\n      dup3\n      add\n      mload\n      dup2\n      0x00\n      add\n      sstore\n      0x20\n      dup3\n      add\n      mload\n      dup2\n      0x01\n      add\n      swap1\n      dup2\n      tag_48\n      swap2\n      swap1\n      tag_40\n      jump\t// in\n    tag_48:\n      pop\n      0x40\n      dup3\n      add\n      mload\n      dup2\n      0x02\n      add\n      sstore\n      swap1\n      pop\n      pop\n        /* \"Class_8 (20.3.26)/Studentmange.sol\":1060:1259  function updateStudent(uint _id, string memory _name, uint _age) public OnlyOwner{... */\n      pop\n      pop\n      pop\n      jump\t// out\n        /* \"#utility.yul\":7:82   */\n    tag_49:\n        /* \"#utility.yul\":40:46   */\n      0x00\n        /* \"#utility.yul\":73:75   */\n      0x40\n        /* \"#utility.yul\":67:76   */\n      mload\n        /* \"#utility.yul\":57:76   */\n      swap1\n      pop\n        /* \"#utility.yul\":7:82   */\n      swap1\n      jump\t// out\n        /* \"#utility.yul\":88:205   */\n    tag_50:\n        /* \"#utility.yul\":197:198   */\n      0x00\n        /* \"#utility.yul\":194:195   */\n      0x00\n        /* \"#utility.yul\":187:199   */\n      revert\n        /* \"#utility.yul\":211:328   */\n    tag_51:\n        /* \"#utility.yul\":320:321   */\n      0x00\n        /* \"#utility.yul\":317:318   */\n      0x00\n        /* \"#utility.yul\":310:322   */\n      revert\n        /* \"#utility.yul\":334:411   */\n    tag_52:\n        /* \"#utility.yul\":371:378   */\n      0x00\n        /* \"#utility.yul\":400:405   */\n      dup2\n        /* \"#utility.yul\":389:405   */\n      swap1\n      pop\n        /* \"#utility.yul\":334:411   */\n      swap2\n      swap1\n      pop\n      jump\t// out\n        /* \"#utility.yul\":417:539   */\n    tag_53:\n        /* \"#utility.yul\":490:514   */\n      tag_101\n        /* \"#utility.yul\":508:513   */\n      dup2\n        /* \"#utility.yul\":490:514   */\n      tag_52\n      jump\t// in\n    tag_101:\n        /* \"#utility.yul\":483:488   */\n      dup2\n        /* \"#utility.yul\":480:515   */\n      eq\n        /* \"#utility.yul\":470:533   */\n      tag_102\n      jumpi\n        /* \"#utility.yul\":529:530   */\n      0x00\n        /* \"#utility.yul\":526:527   */\n      0x00\n        /* \"#utility.yul\":519:531   */\n      revert\n        /* \"#utility.yul\":470:533   */\n    tag_102:\n        /* \"#utility.yul\":417:539   */\n      pop\n      jump\t// out\n        /* \"#utility.yul\":545:684   */\n    tag_54:\n        /* \"#utility.yul\":591:596   */\n      0x00\n        /* \"#utility.yul\":629:635   */\n      dup2\n        /* \"#utility.yul\":616:636   */\n      calldataload\n        /* \"#utility.yul\":607:636   */\n      swap1\n      pop\n        /* \"#utility.yul\":645:678   */\n      tag_104\n        /* \"#utility.yul\":672:677   */\n      dup2\n        /* \"#utility.yul\":645:678   */\n      tag_53\n      jump\t// in\n    tag_104:\n        /* \"#utility.yul\":545:684   */\n      swap3\n      swap2\n      pop\n      pop\n      jump\t// out\n        /* \"#utility.yul\":690:1019   */\n    tag_9:\n        /* \"#utility.yul\":749:755   */\n      0x00\n        /* \"#utility.yul\":798:800   */\n      0x20\n        /* \"#utility.yul\":786:795   */\n      dup3\n        /* \"#utility.yul\":777:784   */\n      dup5\n        /* \"#utility.yul\":773:796   */\n      sub\n        /* \"#utility.yul\":769:801   */\n      slt\n        /* \"#utility.yul\":766:885   */\n      iszero\n      tag_106\n      jumpi\n        /* \"#utility.yul\":804:883   */\n      tag_107\n      tag_50\n      jump\t// in\n    tag_107:\n        /* \"#utility.yul\":766:885   */\n    tag_106:\n        /* \"#utility.yul\":924:925   */\n      0x00\n        /* \"#utility.yul\":949:1002   */\n      tag_108\n        /* \"#utility.yul\":994:1001   */\n      dup5\n        /* \"#utility.yul\":985:991   */\n      dup3\n        /* \"#utility.yul\":974:983   */\n      dup6\n        /* \"#utility.yul\":970:992   */\n      add\n        /* \"#utility.yul\":949:1002   */\n      tag_54\n      jump\t// in\n    tag_108:\n        /* \"#utility.yul\":939:1002   */\n      swap2\n      pop\n        /* \"#utility.yul\":895:1012   */\n      pop\n        /* \"#utility.yul\":690:1019   */\n      swap3\n      swap2\n      pop\n      pop\n      jump\t// out\n        /* \"#utility.yul\":1025:1143   */\n    tag_55:\n        /* \"#utility.yul\":1112:1136   */\n      tag_110\n        /* \"#utility.yul\":1130:1135   */\n      dup2\n        /* \"#utility.yul\":1112:1136   */\n      tag_52\n      jump\t// in\n    tag_110:\n        /* \"#utility.yul\":1107:1110   */\n      dup3\n        /* \"#utility.yul\":1100:1137   */\n      mstore\n        /* \"#utility.yul\":1025:1143   */\n      pop\n      pop\n      jump\t// out\n        /* \"#utility.yul\":1149:1248   */\n    tag_56:\n        /* \"#utility.yul\":1201:1207   */\n      0x00\n        /* \"#utility.yul\":1235:1240   */\n      dup2\n        /* \"#utility.yul\":1229:1241   */\n      mload\n        /* \"#utility.yul\":1219:1241   */\n      swap1\n      pop\n        /* \"#utility.yul\":1149:1248   */\n      swap2\n      swap1\n      pop\n      jump\t// out\n        /* \"#utility.yul\":1254:1423   */\n    tag_57:\n        /* \"#utility.yul\":1338:1349   */\n      0x00\n        /* \"#utility.yul\":1372:1378   */\n      dup3\n        /* \"#utility.yul\":1367:1370   */\n      dup3\n        /* \"#utility.yul\":1360:1379   */\n      mstore\n        /* \"#utility.yul\":1412:1416   */\n      0x20\n        /* \"#utility.yul\":1407:1410   */\n      dup3\n        /* \"#utility.yul\":1403:1417   */\n      add\n        /* \"#utility.yul\":1388:1417   */\n      swap1\n      pop\n        /* \"#utility.yul\":1254:1423   */\n      swap3\n      swap2\n      pop\n      pop\n      jump\t// out\n        /* \"#utility.yul\":1429:1568   */\n    tag_58:\n        /* \"#utility.yul\":1518:1524   */\n      dup3\n        /* \"#utility.yul\":1513:1516   */\n      dup2\n        /* \"#utility.yul\":1508:1511   */\n      dup4\n        /* \"#utility.yul\":1502:1525   */\n      mcopy\n        /* \"#utility.yul\":1559:1560   */\n      0x00\n        /* \"#utility.yul\":1550:1556   */\n      dup4\n        /* \"#utility.yul\":1545:1548   */\n      dup4\n        /* \"#utility.yul\":1541:1557   */\n      add\n        /* \"#utility.yul\":1534:1561   */\n      mstore\n        /* \"#utility.yul\":1429:1568   */\n      pop\n      pop\n      pop\n      jump\t// out\n        /* \"#utility.yul\":1574:1676   */\n    tag_59:\n        /* \"#utility.yul\":1615:1621   */\n      0x00\n        /* \"#utility.yul\":1666:1668   */\n      0x1f\n        /* \"#utility.yul\":1662:1669   */\n      not\n        /* \"#utility.yul\":1657:1659   */\n      0x1f\n        /* \"#utility.yul\":1650:1655   */\n      dup4\n        /* \"#utility.yul\":1646:1660   */\n      add\n        /* \"#utility.yul\":1642:1670   */\n      and\n        /* \"#utility.yul\":1632:1670   */\n      swap1\n      pop\n        /* \"#utility.yul\":1574:1676   */\n      swap2\n      swap1\n      pop\n      jump\t// out\n        /* \"#utility.yul\":1682:2059   */\n    tag_60:\n        /* \"#utility.yul\":1770:1773   */\n      0x00\n        /* \"#utility.yul\":1798:1837   */\n      tag_116\n        /* \"#utility.yul\":1831:1836   */\n      dup3\n        /* \"#utility.yul\":1798:1837   */\n      tag_56\n      jump\t// in\n    tag_116:\n        /* \"#utility.yul\":1853:1924   */\n      tag_117\n        /* \"#utility.yul\":1917:1923   */\n      dup2\n        /* \"#utility.yul\":1912:1915   */\n      dup6\n        /* \"#utility.yul\":1853:1924   */\n      tag_57\n      jump\t// in\n    tag_117:\n        /* \"#utility.yul\":1846:1924   */\n      swap4\n      pop\n        /* \"#utility.yul\":1933:1998   */\n      tag_118\n        /* \"#utility.yul\":1991:1997   */\n      dup2\n        /* \"#utility.yul\":1986:1989   */\n      dup6\n        /* \"#utility.yul\":1979:1983   */\n      0x20\n        /* \"#utility.yul\":1972:1977   */\n      dup7\n        /* \"#utility.yul\":1968:1984   */\n      add\n        /* \"#utility.yul\":1933:1998   */\n      tag_58\n      jump\t// in\n    tag_118:\n        /* \"#utility.yul\":2023:2052   */\n      tag_119\n        /* \"#utility.yul\":2045:2051   */\n      dup2\n        /* \"#utility.yul\":2023:2052   */\n      tag_59\n      jump\t// in\n    tag_119:\n        /* \"#utility.yul\":2018:2021   */\n      dup5\n        /* \"#utility.yul\":2014:2053   */\n      add\n        /* \"#utility.yul\":2007:2053   */\n      swap2\n      pop\n        /* \"#utility.yul\":1774:2059   */\n      pop\n        /* \"#utility.yul\":1682:2059   */\n      swap3\n      swap2\n      pop\n      pop\n      jump\t// out\n        /* \"#utility.yul\":2065:2598   */\n    tag_12:\n        /* \"#utility.yul\":2234:2238   */\n      0x00\n        /* \"#utility.yul\":2272:2274   */\n      0x60\n        /* \"#utility.yul\":2261:2270   */\n      dup3\n        /* \"#utility.yul\":2257:2275   */\n      add\n        /* \"#utility.yul\":2249:2275   */\n      swap1\n      pop\n        /* \"#utility.yul\":2285:2356   */\n      tag_121\n        /* \"#utility.yul\":2353:2354   */\n      0x00\n        /* \"#utility.yul\":2342:2351   */\n      dup4\n        /* \"#utility.yul\":2338:2355   */\n      add\n        /* \"#utility.yul\":2329:2335   */\n      dup7\n        /* \"#utility.yul\":2285:2356   */\n      tag_55\n      jump\t// in\n    tag_121:\n        /* \"#utility.yul\":2403:2412   */\n      dup2\n        /* \"#utility.yul\":2397:2401   */\n      dup2\n        /* \"#utility.yul\":2393:2413   */\n      sub\n        /* \"#utility.yul\":2388:2390   */\n      0x20\n        /* \"#utility.yul\":2377:2386   */\n      dup4\n        /* \"#utility.yul\":2373:2391   */\n      add\n        /* \"#utility.yul\":2366:2414   */\n      mstore\n        /* \"#utility.yul\":2431:2509   */\n      tag_122\n        /* \"#utility.yul\":2504:2508   */\n      dup2\n        /* \"#utility.yul\":2495:2501   */\n      dup6\n        /* \"#utility.yul\":2431:2509   */\n      tag_60\n      jump\t// in\n    tag_122:\n        /* \"#utility.yul\":2423:2509   */\n      swap1\n      pop\n        /* \"#utility.yul\":2519:2591   */\n      tag_123\n        /* \"#utility.yul\":2587:2589   */\n      0x40\n        /* \"#utility.yul\":2576:2585   */\n      dup4\n        /* \"#utility.yul\":2572:2590   */\n      add\n        /* \"#utility.yul\":2563:2569   */\n      dup5\n        /* \"#utility.yul\":2519:2591   */\n      tag_55\n      jump\t// in\n    tag_123:\n        /* \"#utility.yul\":2065:2598   */\n      swap5\n      swap4\n      pop\n      pop\n      pop\n      pop\n      jump\t// out\n        /* \"#utility.yul\":2604:2730   */\n    tag_61:\n        /* \"#utility.yul\":2641:2648   */\n      0x00\n        /* \"#utility.yul\":2681:2723   */\n      0xffffffffffffffffffffffffffffffffffffffff\n        /* \"#utility.yul\":2674:2679   */\n      dup3\n        /* \"#utility.yul\":2670:2724   */\n      and\n        /* \"#utility.yul\":2659:2724   */\n      swap1\n      pop\n        /* \"#utility.yul\":2604:2730   */\n      swap2\n      swap1\n      pop\n      jump\t// out\n        /* \"#utility.yul\":2736:2832   */\n    tag_62:\n        /* \"#utility.yul\":2773:2780   */\n      0x00\n        /* \"#utility.yul\":2802:2826   */\n      tag_126\n        /* \"#utility.yul\":2820:2825   */\n      dup3\n        /* \"#utility.yul\":2802:2826   */\n      tag_61\n      jump\t// in\n    tag_126:\n        /* \"#utility.yul\":2791:2826   */\n      swap1\n      pop\n        /* \"#utility.yul\":2736:2832   */\n      swap2\n      swap1\n      pop\n      jump\t// out\n        /* \"#utility.yul\":2838:2956   */\n    tag_63:\n        /* \"#utility.yul\":2925:2949   */\n      tag_128\n        /* \"#utility.yul\":2943:2948   */\n      dup2\n        /* \"#utility.yul\":2925:2949   */\n      tag_62\n      jump\t// in\n    tag_128:\n        /* \"#utility.yul\":2920:2923   */\n      dup3\n        /* \"#utility.yul\":2913:2950   */\n      mstore\n        /* \"#utility.yul\":2838:2956   */\n      pop\n      pop\n      jump\t// out\n        /* \"#utility.yul\":2962:3184   */\n    tag_16:\n        /* \"#utility.yul\":3055:3059   */\n      0x00\n        /* \"#utility.yul\":3093:3095   */\n      0x20\n        /* \"#utility.yul\":3082:3091   */\n      dup3\n        /* \"#utility.yul\":3078:3096   */\n      add\n        /* \"#utility.yul\":3070:3096   */\n      swap1\n      pop\n        /* \"#utility.yul\":3106:3177   */\n      tag_130\n        /* \"#utility.yul\":3174:3175   */\n      0x00\n        /* \"#utility.yul\":3163:3172   */\n      dup4\n        /* \"#utility.yul\":3159:3176   */\n      add\n        /* \"#utility.yul\":3150:3156   */\n      dup5\n        /* \"#utility.yul\":3106:3177   */\n      tag_63\n      jump\t// in\n    tag_130:\n        /* \"#utility.yul\":2962:3184   */\n      swap3\n      swap2\n      pop\n      pop\n      jump\t// out\n        /* \"#utility.yul\":3190:3307   */\n    tag_64:\n        /* \"#utility.yul\":3299:3300   */\n      0x00\n        /* \"#utility.yul\":3296:3297   */\n      0x00\n        /* \"#utility.yul\":3289:3301   */\n      revert\n        /* \"#utility.yul\":3313:3430   */\n    tag_65:\n        /* \"#utility.yul\":3422:3423   */\n      0x00\n        /* \"#utility.yul\":3419:3420   */\n      0x00\n        /* \"#utility.yul\":3412:3424   */\n      revert\n        /* \"#utility.yul\":3436:3616   */\n    tag_66:\n        /* \"#utility.yul\":3484:3561   */\n      0x4e487b7100000000000000000000000000000000000000000000000000000000\n        /* \"#utility.yul\":3481:3482   */\n      0x00\n        /* \"#utility.yul\":3474:3562   */\n      mstore\n        /* \"#utility.yul\":3581:3585   */\n      0x41\n        /* \"#utility.yul\":3578:3579   */\n      0x04\n        /* \"#utility.yul\":3571:3586   */\n      mstore\n        /* \"#utility.yul\":3605:3609   */\n      0x24\n        /* \"#utility.yul\":3602:3603   */\n      0x00\n        /* \"#utility.yul\":3595:3610   */\n      revert\n        /* \"#utility.yul\":3622:3903   */\n    tag_67:\n        /* \"#utility.yul\":3705:3732   */\n      tag_135\n        /* \"#utility.yul\":3727:3731   */\n      dup3\n        /* \"#utility.yul\":3705:3732   */\n      tag_59\n      jump\t// in\n    tag_135:\n        /* \"#utility.yul\":3697:3703   */\n      dup2\n        /* \"#utility.yul\":3693:3733   */\n      add\n        /* \"#utility.yul\":3835:3841   */\n      dup2\n        /* \"#utility.yul\":3823:3833   */\n      dup2\n        /* \"#utility.yul\":3820:3842   */\n      lt\n        /* \"#utility.yul\":3799:3817   */\n      0xffffffffffffffff\n        /* \"#utility.yul\":3787:3797   */\n      dup3\n        /* \"#utility.yul\":3784:3818   */\n      gt\n        /* \"#utility.yul\":3781:3843   */\n      or\n        /* \"#utility.yul\":3778:3866   */\n      iszero\n      tag_136\n      jumpi\n        /* \"#utility.yul\":3846:3864   */\n      tag_137\n      tag_66\n      jump\t// in\n    tag_137:\n        /* \"#utility.yul\":3778:3866   */\n    tag_136:\n        /* \"#utility.yul\":3886:3896   */\n      dup1\n        /* \"#utility.yul\":3882:3884   */\n      0x40\n        /* \"#utility.yul\":3875:3897   */\n      mstore\n        /* \"#utility.yul\":3665:3903   */\n      pop\n        /* \"#utility.yul\":3622:3903   */\n      pop\n      pop\n      jump\t// out\n        /* \"#utility.yul\":3909:4038   */\n    tag_68:\n        /* \"#utility.yul\":3943:3949   */\n      0x00\n        /* \"#utility.yul\":3970:3990   */\n      tag_139\n      tag_49\n      jump\t// in\n    tag_139:\n        /* \"#utility.yul\":3960:3990   */\n      swap1\n      pop\n        /* \"#utility.yul\":3999:4032   */\n      tag_140\n        /* \"#utility.yul\":4027:4031   */\n      dup3\n        /* \"#utility.yul\":4019:4025   */\n      dup3\n        /* \"#utility.yul\":3999:4032   */\n      tag_67\n      jump\t// in\n    tag_140:\n        /* \"#utility.yul\":3909:4038   */\n      swap2\n      swap1\n      pop\n      jump\t// out\n        /* \"#utility.yul\":4044:4352   */\n    tag_69:\n        /* \"#utility.yul\":4106:4110   */\n      0x00\n        /* \"#utility.yul\":4196:4214   */\n      0xffffffffffffffff\n        /* \"#utility.yul\":4188:4194   */\n      dup3\n        /* \"#utility.yul\":4185:4215   */\n      gt\n        /* \"#utility.yul\":4182:4238   */\n      iszero\n      tag_142\n      jumpi\n        /* \"#utility.yul\":4218:4236   */\n      tag_143\n      tag_66\n      jump\t// in\n    tag_143:\n        /* \"#utility.yul\":4182:4238   */\n    tag_142:\n        /* \"#utility.yul\":4256:4285   */\n      tag_144\n        /* \"#utility.yul\":4278:4284   */\n      dup3\n        /* \"#utility.yul\":4256:4285   */\n      tag_59\n      jump\t// in\n    tag_144:\n        /* \"#utility.yul\":4248:4285   */\n      swap1\n      pop\n        /* \"#utility.yul\":4340:4344   */\n      0x20\n        /* \"#utility.yul\":4334:4338   */\n      dup2\n        /* \"#utility.yul\":4330:4345   */\n      add\n        /* \"#utility.yul\":4322:4345   */\n      swap1\n      pop\n        /* \"#utility.yul\":4044:4352   */\n      swap2\n      swap1\n      pop\n      jump\t// out\n        /* \"#utility.yul\":4358:4506   */\n    tag_70:\n        /* \"#utility.yul\":4456:4462   */\n      dup3\n        /* \"#utility.yul\":4451:4454   */\n      dup2\n        /* \"#utility.yul\":4446:4449   */\n      dup4\n        /* \"#utility.yul\":4433:4463   */\n      calldatacopy\n        /* \"#utility.yul\":4497:4498   */\n      0x00\n        /* \"#utility.yul\":4488:4494   */\n      dup4\n        /* \"#utility.yul\":4483:4486   */\n      dup4\n        /* \"#utility.yul\":4479:4495   */\n      add\n        /* \"#utility.yul\":4472:4499   */\n      mstore\n        /* \"#utility.yul\":4358:4506   */\n      pop\n      pop\n      pop\n      jump\t// out\n        /* \"#utility.yul\":4512:4937   */\n    tag_71:\n        /* \"#utility.yul\":4590:4595   */\n      0x00\n        /* \"#utility.yul\":4615:4681   */\n      tag_147\n        /* \"#utility.yul\":4631:4680   */\n      tag_148\n        /* \"#utility.yul\":4673:4679   */\n      dup5\n        /* \"#utility.yul\":4631:4680   */\n      tag_69\n      jump\t// in\n    tag_148:\n        /* \"#utility.yul\":4615:4681   */\n      tag_68\n      jump\t// in\n    tag_147:\n        /* \"#utility.yul\":4606:4681   */\n      swap1\n      pop\n        /* \"#utility.yul\":4704:4710   */\n      dup3\n        /* \"#utility.yul\":4697:4702   */\n      dup2\n        /* \"#utility.yul\":4690:4711   */\n      mstore\n        /* \"#utility.yul\":4742:4746   */\n      0x20\n        /* \"#utility.yul\":4735:4740   */\n      dup2\n        /* \"#utility.yul\":4731:4747   */\n      add\n        /* \"#utility.yul\":4780:4783   */\n      dup5\n        /* \"#utility.yul\":4771:4777   */\n      dup5\n        /* \"#utility.yul\":4766:4769   */\n      dup5\n        /* \"#utility.yul\":4762:4778   */\n      add\n        /* \"#utility.yul\":4759:4784   */\n      gt\n        /* \"#utility.yul\":4756:4868   */\n      iszero\n      tag_149\n      jumpi\n        /* \"#utility.yul\":4787:4866   */\n      tag_150\n      tag_65\n      jump\t// in\n    tag_150:\n        /* \"#utility.yul\":4756:4868   */\n    tag_149:\n        /* \"#utility.yul\":4877:4931   */\n      tag_151\n        /* \"#utility.yul\":4924:4930   */\n      dup5\n        /* \"#utility.yul\":4919:4922   */\n      dup3\n        /* \"#utility.yul\":4914:4917   */\n      dup6\n        /* \"#utility.yul\":4877:4931   */\n      tag_70\n      jump\t// in\n    tag_151:\n        /* \"#utility.yul\":4596:4937   */\n      pop\n        /* \"#utility.yul\":4512:4937   */\n      swap4\n      swap3\n      pop\n      pop\n      pop\n      jump\t// out\n        /* \"#utility.yul\":4957:5297   */\n    tag_72:\n        /* \"#utility.yul\":5013:5018   */\n      0x00\n        /* \"#utility.yul\":5062:5065   */\n      dup3\n        /* \"#utility.yul\":5055:5059   */\n      0x1f\n        /* \"#utility.yul\":5047:5053   */\n      dup4\n        /* \"#utility.yul\":5043:5060   */\n      add\n        /* \"#utility.yul\":5039:5066   */\n      slt\n        /* \"#utility.yul\":5029:5151   */\n      tag_153\n      jumpi\n        /* \"#utility.yul\":5070:5149   */\n      tag_154\n      tag_64\n      jump\t// in\n    tag_154:\n        /* \"#utility.yul\":5029:5151   */\n    tag_153:\n        /* \"#utility.yul\":5187:5193   */\n      dup2\n        /* \"#utility.yul\":5174:5194   */\n      calldataload\n        /* \"#utility.yul\":5212:5291   */\n      tag_155\n        /* \"#utility.yul\":5287:5290   */\n      dup5\n        /* \"#utility.yul\":5279:5285   */\n      dup3\n        /* \"#utility.yul\":5272:5276   */\n      0x20\n        /* \"#utility.yul\":5264:5270   */\n      dup7\n        /* \"#utility.yul\":5260:5277   */\n      add\n        /* \"#utility.yul\":5212:5291   */\n      tag_71\n      jump\t// in\n    tag_155:\n        /* \"#utility.yul\":5203:5291   */\n      swap2\n      pop\n        /* \"#utility.yul\":5019:5297   */\n      pop\n        /* \"#utility.yul\":4957:5297   */\n      swap3\n      swap2\n      pop\n      pop\n      jump\t// out\n        /* \"#utility.yul\":5303:6102   */\n    tag_19:\n        /* \"#utility.yul\":5390:5396   */\n      0x00\n        /* \"#utility.yul\":5398:5404   */\n      0x00\n        /* \"#utility.yul\":5406:5412   */\n      0x00\n        /* \"#utility.yul\":5455:5457   */\n      0x60\n        /* \"#utility.yul\":5443:5452   */\n      dup5\n        /* \"#utility.yul\":5434:5441   */\n      dup7\n        /* \"#utility.yul\":5430:5453   */\n      sub\n        /* \"#utility.yul\":5426:5458   */\n      slt\n        /* \"#utility.yul\":5423:5542   */\n      iszero\n      tag_157\n      jumpi\n        /* \"#utility.yul\":5461:5540   */\n      tag_158\n      tag_50\n      jump\t// in\n    tag_158:\n        /* \"#utility.yul\":5423:5542   */\n    tag_157:\n        /* \"#utility.yul\":5581:5582   */\n      0x00\n        /* \"#utility.yul\":5606:5659   */\n      tag_159\n        /* \"#utility.yul\":5651:5658   */\n      dup7\n        /* \"#utility.yul\":5642:5648   */\n      dup3\n        /* \"#utility.yul\":5631:5640   */\n      dup8\n        /* \"#utility.yul\":5627:5649   */\n      add\n        /* \"#utility.yul\":5606:5659   */\n      tag_54\n      jump\t// in\n    tag_159:\n        /* \"#utility.yul\":5596:5659   */\n      swap4\n      pop\n        /* \"#utility.yul\":5552:5669   */\n      pop\n        /* \"#utility.yul\":5736:5738   */\n      0x20\n        /* \"#utility.yul\":5725:5734   */\n      dup5\n        /* \"#utility.yul\":5721:5739   */\n      add\n        /* \"#utility.yul\":5708:5740   */\n      calldataload\n        /* \"#utility.yul\":5767:5785   */\n      0xffffffffffffffff\n        /* \"#utility.yul\":5759:5765   */\n      dup2\n        /* \"#utility.yul\":5756:5786   */\n      gt\n        /* \"#utility.yul\":5753:5870   */\n      iszero\n      tag_160\n      jumpi\n        /* \"#utility.yul\":5789:5868   */\n      tag_161\n      tag_51\n      jump\t// in\n    tag_161:\n        /* \"#utility.yul\":5753:5870   */\n    tag_160:\n        /* \"#utility.yul\":5894:5957   */\n      tag_162\n        /* \"#utility.yul\":5949:5956   */\n      dup7\n        /* \"#utility.yul\":5940:5946   */\n      dup3\n        /* \"#utility.yul\":5929:5938   */\n      dup8\n        /* \"#utility.yul\":5925:5947   */\n      add\n        /* \"#utility.yul\":5894:5957   */\n      tag_72\n      jump\t// in\n    tag_162:\n        /* \"#utility.yul\":5884:5957   */\n      swap3\n      pop\n        /* \"#utility.yul\":5679:5967   */\n      pop\n        /* \"#utility.yul\":6006:6008   */\n      0x40\n        /* \"#utility.yul\":6032:6085   */\n      tag_163\n        /* \"#utility.yul\":6077:6084   */\n      dup7\n        /* \"#utility.yul\":6068:6074   */\n      dup3\n        /* \"#utility.yul\":6057:6066   */\n      dup8\n        /* \"#utility.yul\":6053:6075   */\n      add\n        /* \"#utility.yul\":6032:6085   */\n      tag_54\n      jump\t// in\n    tag_163:\n        /* \"#utility.yul\":6022:6085   */\n      swap2\n      pop\n        /* \"#utility.yul\":5977:6095   */\n      pop\n        /* \"#utility.yul\":5303:6102   */\n      swap3\n      pop\n      swap3\n      pop\n      swap3\n      jump\t// out\n        /* \"#utility.yul\":6108:6288   */\n    tag_73:\n        /* \"#utility.yul\":6156:6233   */\n      0x4e487b7100000000000000000000000000000000000000000000000000000000\n        /* \"#utility.yul\":6153:6154   */\n      0x00\n        /* \"#utility.yul\":6146:6234   */\n      mstore\n        /* \"#utility.yul\":6253:6257   */\n      0x22\n        /* \"#utility.yul\":6250:6251   */\n      0x04\n        /* \"#utility.yul\":6243:6258   */\n      mstore\n        /* \"#utility.yul\":6277:6281   */\n      0x24\n        /* \"#utility.yul\":6274:6275   */\n      0x00\n        /* \"#utility.yul\":6267:6282   */\n      revert\n        /* \"#utility.yul\":6294:6614   */\n    tag_26:\n        /* \"#utility.yul\":6338:6344   */\n      0x00\n        /* \"#utility.yul\":6375:6376   */\n      0x02\n        /* \"#utility.yul\":6369:6373   */\n      dup3\n        /* \"#utility.yul\":6365:6377   */\n      div\n        /* \"#utility.yul\":6355:6377   */\n      swap1\n      pop\n        /* \"#utility.yul\":6422:6423   */\n      0x01\n        /* \"#utility.yul\":6416:6420   */\n      dup3\n        /* \"#utility.yul\":6412:6424   */\n      and\n        /* \"#utility.yul\":6443:6461   */\n      dup1\n        /* \"#utility.yul\":6433:6514   */\n      tag_166\n      jumpi\n        /* \"#utility.yul\":6499:6503   */\n      0x7f\n        /* \"#utility.yul\":6491:6497   */\n      dup3\n        /* \"#utility.yul\":6487:6504   */\n      and\n        /* \"#utility.yul\":6477:6504   */\n      swap2\n      pop\n        /* \"#utility.yul\":6433:6514   */\n    tag_166:\n        /* \"#utility.yul\":6561:6563   */\n      0x20\n        /* \"#utility.yul\":6553:6559   */\n      dup3\n        /* \"#utility.yul\":6550:6564   */\n      lt\n        /* \"#utility.yul\":6530:6548   */\n      dup2\n        /* \"#utility.yul\":6527:6565   */\n      sub\n        /* \"#utility.yul\":6524:6608   */\n      tag_167\n      jumpi\n        /* \"#utility.yul\":6580:6598   */\n      tag_168\n      tag_73\n      jump\t// in\n    tag_168:\n        /* \"#utility.yul\":6524:6608   */\n    tag_167:\n        /* \"#utility.yul\":6345:6614   */\n      pop\n        /* \"#utility.yul\":6294:6614   */\n      swap2\n      swap1\n      pop\n      jump\t// out\n        /* \"#utility.yul\":6620:6779   */\n    tag_74:\n        /* \"#utility.yul\":6760:6771   */\n      0x4e6f74204f776e65720000000000000000000000000000000000000000000000\n        /* \"#utility.yul\":6756:6757   */\n      0x00\n        /* \"#utility.yul\":6748:6754   */\n      dup3\n        /* \"#utility.yul\":6744:6758   */\n      add\n        /* \"#utility.yul\":6737:6772   */\n      mstore\n        /* \"#utility.yul\":6620:6779   */\n      pop\n      jump\t// out\n        /* \"#utility.yul\":6785:7150   */\n    tag_75:\n        /* \"#utility.yul\":6927:6930   */\n      0x00\n        /* \"#utility.yul\":6948:7014   */\n      tag_171\n        /* \"#utility.yul\":7012:7013   */\n      0x09\n        /* \"#utility.yul\":7007:7010   */\n      dup4\n        /* \"#utility.yul\":6948:7014   */\n      tag_57\n      jump\t// in\n    tag_171:\n        /* \"#utility.yul\":6941:7014   */\n      swap2\n      pop\n        /* \"#utility.yul\":7023:7116   */\n      tag_172\n        /* \"#utility.yul\":7112:7115   */\n      dup3\n        /* \"#utility.yul\":7023:7116   */\n      tag_74\n      jump\t// in\n    tag_172:\n        /* \"#utility.yul\":7141:7143   */\n      0x20\n        /* \"#utility.yul\":7136:7139   */\n      dup3\n        /* \"#utility.yul\":7132:7144   */\n      add\n        /* \"#utility.yul\":7125:7144   */\n      swap1\n      pop\n        /* \"#utility.yul\":6785:7150   */\n      swap2\n      swap1\n      pop\n      jump\t// out\n        /* \"#utility.yul\":7156:7575   */\n    tag_34:\n        /* \"#utility.yul\":7322:7326   */\n      0x00\n        /* \"#utility.yul\":7360:7362   */\n      0x20\n        /* \"#utility.yul\":7349:7358   */\n      dup3\n        /* \"#utility.yul\":7345:7363   */\n      add\n        /* \"#utility.yul\":7337:7363   */\n      swap1\n      pop\n        /* \"#utility.yul\":7409:7418   */\n      dup2\n        /* \"#utility.yul\":7403:7407   */\n      dup2\n        /* \"#utility.yul\":7399:7419   */\n      sub\n        /* \"#utility.yul\":7395:7396   */\n      0x00\n        /* \"#utility.yul\":7384:7393   */\n      dup4\n        /* \"#utility.yul\":7380:7397   */\n      add\n        /* \"#utility.yul\":7373:7420   */\n      mstore\n        /* \"#utility.yul\":7437:7568   */\n      tag_174\n        /* \"#utility.yul\":7563:7567   */\n      dup2\n        /* \"#utility.yul\":7437:7568   */\n      tag_75\n      jump\t// in\n    tag_174:\n        /* \"#utility.yul\":7429:7568   */\n      swap1\n      pop\n        /* \"#utility.yul\":7156:7575   */\n      swap2\n      swap1\n      pop\n      jump\t// out\n        /* \"#utility.yul\":7581:7741   */\n    tag_76:\n        /* \"#utility.yul\":7721:7733   */\n      0x496e76616c696420494400000000000000000000000000000000000000000000\n        /* \"#utility.yul\":7717:7718   */\n      0x00\n        /* \"#utility.yul\":7709:7715   */\n      dup3\n        /* \"#utility.yul\":7705:7719   */\n      add\n        /* \"#utility.yul\":7698:7734   */\n      mstore\n        /* \"#utility.yul\":7581:7741   */\n      pop\n      jump\t// out\n        /* \"#utility.yul\":7747:8113   */\n    tag_77:\n        /* \"#utility.yul\":7889:7892   */\n      0x00\n        /* \"#utility.yul\":7910:7977   */\n      tag_177\n        /* \"#utility.yul\":7974:7976   */\n      0x0a\n        /* \"#utility.yul\":7969:7972   */\n      dup4\n        /* \"#utility.yul\":7910:7977   */\n      tag_57\n      jump\t// in\n    tag_177:\n        /* \"#utility.yul\":7903:7977   */\n      swap2\n      pop\n        /* \"#utility.yul\":7986:8079   */\n      tag_178\n        /* \"#utility.yul\":8075:8078   */\n      dup3\n        /* \"#utility.yul\":7986:8079   */\n      tag_76\n      jump\t// in\n    tag_178:\n        /* \"#utility.yul\":8104:8106   */\n      0x20\n        /* \"#utility.yul\":8099:8102   */\n      dup3\n        /* \"#utility.yul\":8095:8107   */\n      add\n        /* \"#utility.yul\":8088:8107   */\n      swap1\n      pop\n        /* \"#utility.yul\":7747:8113   */\n      swap2\n      swap1\n      pop\n      jump\t// out\n        /* \"#utility.yul\":8119:8538   */\n    tag_38:\n        /* \"#utility.yul\":8285:8289   */\n      0x00\n        /* \"#utility.yul\":8323:8325   */\n      0x20\n        /* \"#utility.yul\":8312:8321   */\n      dup3\n        /* \"#utility.yul\":8308:8326   */\n      add\n        /* \"#utility.yul\":8300:8326   */\n      swap1\n      pop\n        /* \"#utility.yul\":8372:8381   */\n      dup2\n        /* \"#utility.yul\":8366:8370   */\n      dup2\n        /* \"#utility.yul\":8362:8382   */\n      sub\n        /* \"#utility.yul\":8358:8359   */\n      0x00\n        /* \"#utility.yul\":8347:8356   */\n      dup4\n        /* \"#utility.yul\":8343:8360   */\n      add\n        /* \"#utility.yul\":8336:8383   */\n      mstore\n        /* \"#utility.yul\":8400:8531   */\n      tag_180\n        /* \"#utility.yul\":8526:8530   */\n      dup2\n        /* \"#utility.yul\":8400:8531   */\n      tag_77\n      jump\t// in\n    tag_180:\n        /* \"#utility.yul\":8392:8531   */\n      swap1\n      pop\n        /* \"#utility.yul\":8119:8538   */\n      swap2\n      swap1\n      pop\n      jump\t// out\n        /* \"#utility.yul\":8544:8685   */\n    tag_78:\n        /* \"#utility.yul\":8593:8597   */\n      0x00\n        /* \"#utility.yul\":8616:8619   */\n      dup2\n        /* \"#utility.yul\":8608:8619   */\n      swap1\n      pop\n        /* \"#utility.yul\":8639:8642   */\n      dup2\n        /* \"#utility.yul\":8636:8637   */\n      0x00\n        /* \"#utility.yul\":8629:8643   */\n      mstore\n        /* \"#utility.yul\":8673:8677   */\n      0x20\n        /* \"#utility.yul\":8670:8671   */\n      0x00\n        /* \"#utility.yul\":8660:8678   */\n      keccak256\n        /* \"#utility.yul\":8652:8678   */\n      swap1\n      pop\n        /* \"#utility.yul\":8544:8685   */\n      swap2\n      swap1\n      pop\n      jump\t// out\n        /* \"#utility.yul\":8691:8784   */\n    tag_79:\n        /* \"#utility.yul\":8728:8734   */\n      0x00\n        /* \"#utility.yul\":8775:8777   */\n      0x20\n        /* \"#utility.yul\":8770:8772   */\n      0x1f\n        /* \"#utility.yul\":8763:8768   */\n      dup4\n        /* \"#utility.yul\":8759:8773   */\n      add\n        /* \"#utility.yul\":8755:8778   */\n      div\n        /* \"#utility.yul\":8745:8778   */\n      swap1\n      pop\n        /* \"#utility.yul\":8691:8784   */\n      swap2\n      swap1\n      pop\n      jump\t// out\n        /* \"#utility.yul\":8790:8897   */\n    tag_80:\n        /* \"#utility.yul\":8834:8842   */\n      0x00\n        /* \"#utility.yul\":8884:8889   */\n      dup3\n        /* \"#utility.yul\":8878:8882   */\n      dup3\n        /* \"#utility.yul\":8874:8890   */\n      shl\n        /* \"#utility.yul\":8853:8890   */\n      swap1\n      pop\n        /* \"#utility.yul\":8790:8897   */\n      swap3\n      swap2\n      pop\n      pop\n      jump\t// out\n        /* \"#utility.yul\":8903:9296   */\n    tag_81:\n        /* \"#utility.yul\":8972:8978   */\n      0x00\n        /* \"#utility.yul\":9022:9023   */\n      0x08\n        /* \"#utility.yul\":9010:9020   */\n      dup4\n        /* \"#utility.yul\":9006:9024   */\n      mul\n        /* \"#utility.yul\":9045:9142   */\n      tag_185\n        /* \"#utility.yul\":9075:9141   */\n      0xffffffffffffffffffffffffffffffffffffffffffffffffffffffffffffffff\n        /* \"#utility.yul\":9064:9073   */\n      dup3\n        /* \"#utility.yul\":9045:9142   */\n      tag_80\n      jump\t// in\n    tag_185:\n        /* \"#utility.yul\":9163:9202   */\n      tag_186\n        /* \"#utility.yul\":9193:9201   */\n      dup7\n        /* \"#utility.yul\":9182:9191   */\n      dup4\n        /* \"#utility.yul\":9163:9202   */\n      tag_80\n      jump\t// in\n    tag_186:\n        /* \"#utility.yul\":9151:9202   */\n      swap6\n      pop\n        /* \"#utility.yul\":9235:9239   */\n      dup1\n        /* \"#utility.yul\":9231:9240   */\n      not\n        /* \"#utility.yul\":9224:9229   */\n      dup5\n        /* \"#utility.yul\":9220:9241   */\n      and\n        /* \"#utility.yul\":9211:9241   */\n      swap4\n      pop\n        /* \"#utility.yul\":9284:9288   */\n      dup1\n        /* \"#utility.yul\":9274:9282   */\n      dup7\n        /* \"#utility.yul\":9270:9289   */\n      and\n        /* \"#utility.yul\":9263:9268   */\n      dup5\n        /* \"#utility.yul\":9260:9290   */\n      or\n        /* \"#utility.yul\":9250:9290   */\n      swap3\n      pop\n        /* \"#utility.yul\":8979:9296   */\n      pop\n      pop\n        /* \"#utility.yul\":8903:9296   */\n      swap4\n      swap3\n      pop\n      pop\n      pop\n      jump\t// out\n        /* \"#utility.yul\":9302:9362   */\n    tag_82:\n        /* \"#utility.yul\":9330:9333   */\n      0x00\n        /* \"#utility.yul\":9351:9356   */\n      dup2\n        /* \"#utility.yul\":9344:9356   */\n      swap1\n      pop\n        /* \"#utility.yul\":9302:9362   */\n      swap2\n      swap1\n      pop\n      jump\t// out\n        /* \"#utility.yul\":9368:9510   */\n    tag_83:\n        /* \"#utility.yul\":9418:9427   */\n      0x00\n        /* \"#utility.yul\":9451:9504   */\n      tag_189\n        /* \"#utility.yul\":9469:9503   */\n      tag_190\n        /* \"#utility.yul\":9478:9502   */\n      tag_191\n        /* \"#utility.yul\":9496:9501   */\n      dup5\n        /* \"#utility.yul\":9478:9502   */\n      tag_52\n      jump\t// in\n    tag_191:\n        /* \"#utility.yul\":9469:9503   */\n      tag_82\n      jump\t// in\n    tag_190:\n        /* \"#utility.yul\":9451:9504   */\n      tag_52\n      jump\t// in\n    tag_189:\n        /* \"#utility.yul\":9438:9504   */\n      swap1\n      pop\n        /* \"#utility.yul\":9368:9510   */\n      swap2\n      swap1\n      pop\n      jump\t// out\n        /* \"#utility.yul\":9516:9591   */\n    tag_84:\n        /* \"#utility.yul\":9559:9562   */\n      0x00\n        /* \"#utility.yul\":9580:9585   */\n      dup2\n        /* \"#utility.yul\":9573:9585   */\n      swap1\n      pop\n        /* \"#utility.yul\":9516:9591   */\n      swap2\n      swap1\n      pop\n      jump\t// out\n        /* \"#utility.yul\":9597:9866   */\n    tag_85:\n        /* \"#utility.yul\":9707:9746   */\n      tag_194\n        /* \"#utility.yul\":9738:9745   */\n      dup4\n        /* \"#utility.yul\":9707:9746   */\n      tag_83\n      jump\t// in\n    tag_194:\n        /* \"#utility.yul\":9768:9859   */\n      tag_195\n        /* \"#utility.yul\":9817:9858   */\n      tag_196\n        /* \"#utility.yul\":9841:9857   */\n      dup3\n        /* \"#utility.yul\":9817:9858   */\n      tag_84\n      jump\t// in\n    tag_196:\n        /* \"#utility.yul\":9809:9815   */\n      dup5\n        /* \"#utility.yul\":9802:9806   */\n      dup5\n        /* \"#utility.yul\":9796:9807   */\n      sload\n        /* \"#utility.yul\":9768:9859   */\n      tag_81\n      jump\t// in\n    tag_195:\n        /* \"#utility.yul\":9762:9766   */\n      dup3\n        /* \"#utility.yul\":9755:9860   */\n      sstore\n        /* \"#utility.yul\":9673:9866   */\n      pop\n        /* \"#utility.yul\":9597:9866   */\n      pop\n      pop\n      pop\n      jump\t// out\n        /* \"#utility.yul\":9872:9945   */\n    tag_86:\n        /* \"#utility.yul\":9917:9920   */\n      0x00\n        /* \"#utility.yul\":9938:9939   */\n      0x00\n        /* \"#utility.yul\":9931:9939   */\n      swap1\n      pop\n        /* \"#utility.yul\":9872:9945   */\n      swap1\n      jump\t// out\n        /* \"#utility.yul\":9951:10140   */\n    tag_87:\n        /* \"#utility.yul\":10028:10060   */\n      tag_199\n      tag_86\n      jump\t// in\n    tag_199:\n        /* \"#utility.yul\":10069:10134   */\n      tag_200\n        /* \"#utility.yul\":10127:10133   */\n      dup2\n        /* \"#utility.yul\":10119:10125   */\n      dup5\n        /* \"#utility.yul\":10113:10117   */\n      dup5\n        /* \"#utility.yul\":10069:10134   */\n      tag_85\n      jump\t// in\n    tag_200:\n        /* \"#utility.yul\":10004:10140   */\n      pop\n        /* \"#utility.yul\":9951:10140   */\n      pop\n      pop\n      jump\t// out\n        /* \"#utility.yul\":10146:10332   */\n    tag_88:\n        /* \"#utility.yul\":10206:10326   */\n    tag_202:\n        /* \"#utility.yul\":10223:10226   */\n      dup2\n        /* \"#utility.yul\":10216:10221   */\n      dup2\n        /* \"#utility.yul\":10213:10227   */\n      lt\n        /* \"#utility.yul\":10206:10326   */\n      iszero\n      tag_204\n      jumpi\n        /* \"#utility.yul\":10277:10316   */\n      tag_205\n        /* \"#utility.yul\":10314:10315   */\n      0x00\n        /* \"#utility.yul\":10307:10312   */\n      dup3\n        /* \"#utility.yul\":10277:10316   */\n      tag_87\n      jump\t// in\n    tag_205:\n        /* \"#utility.yul\":10250:10251   */\n      0x01\n        /* \"#utility.yul\":10243:10248   */\n      dup2\n        /* \"#utility.yul\":10239:10252   */\n      add\n        /* \"#utility.yul\":10230:10252   */\n      swap1\n      pop\n        /* \"#utility.yul\":10206:10326   */\n      jump(tag_202)\n    tag_204:\n        /* \"#utility.yul\":10146:10332   */\n      pop\n      pop\n      jump\t// out\n        /* \"#utility.yul\":10338:10881   */\n    tag_89:\n        /* \"#utility.yul\":10439:10441   */\n      0x1f\n        /* \"#utility.yul\":10434:10437   */\n      dup3\n        /* \"#utility.yul\":10431:10442   */\n      gt\n        /* \"#utility.yul\":10428:10874   */\n      iszero\n      tag_207\n      jumpi\n        /* \"#utility.yul\":10473:10511   */\n      tag_208\n        /* \"#utility.yul\":10505:10510   */\n      dup2\n        /* \"#utility.yul\":10473:10511   */\n      tag_78\n      jump\t// in\n    tag_208:\n        /* \"#utility.yul\":10557:10586   */\n      tag_209\n        /* \"#utility.yul\":10575:10585   */\n      dup5\n        /* \"#utility.yul\":10557:10586   */\n      tag_79\n      jump\t// in\n    tag_209:\n        /* \"#utility.yul\":10547:10555   */\n      dup2\n        /* \"#utility.yul\":10543:10587   */\n      add\n        /* \"#utility.yul\":10740:10742   */\n      0x20\n        /* \"#utility.yul\":10728:10738   */\n      dup6\n        /* \"#utility.yul\":10725:10743   */\n      lt\n        /* \"#utility.yul\":10722:10771   */\n      iszero\n      tag_210\n      jumpi\n        /* \"#utility.yul\":10761:10769   */\n      dup2\n        /* \"#utility.yul\":10746:10769   */\n      swap1\n      pop\n        /* \"#utility.yul\":10722:10771   */\n    tag_210:\n        /* \"#utility.yul\":10784:10864   */\n      tag_211\n        /* \"#utility.yul\":10840:10862   */\n      tag_212\n        /* \"#utility.yul\":10858:10861   */\n      dup6\n        /* \"#utility.yul\":10840:10862   */\n      tag_79\n      jump\t// in\n    tag_212:\n        /* \"#utility.yul\":10830:10838   */\n      dup4\n        /* \"#utility.yul\":10826:10863   */\n      add\n        /* \"#utility.yul\":10813:10824   */\n      dup3\n        /* \"#utility.yul\":10784:10864   */\n      tag_88\n      jump\t// in\n    tag_211:\n        /* \"#utility.yul\":10443:10874   */\n      pop\n      pop\n        /* \"#utility.yul\":10428:10874   */\n    tag_207:\n        /* \"#utility.yul\":10338:10881   */\n      pop\n      pop\n      pop\n      jump\t// out\n        /* \"#utility.yul\":10887:11004   */\n    tag_90:\n        /* \"#utility.yul\":10941:10949   */\n      0x00\n        /* \"#utility.yul\":10991:10996   */\n      dup3\n        /* \"#utility.yul\":10985:10989   */\n      dup3\n        /* \"#utility.yul\":10981:10997   */\n      shr\n        /* \"#utility.yul\":10960:10997   */\n      swap1\n      pop\n        /* \"#utility.yul\":10887:11004   */\n      swap3\n      swap2\n      pop\n      pop\n      jump\t// out\n        /* \"#utility.yul\":11010:11179   */\n    tag_91:\n        /* \"#utility.yul\":11054:11060   */\n      0x00\n        /* \"#utility.yul\":11087:11138   */\n      tag_215\n        /* \"#utility.yul\":11135:11136   */\n      0x00\n        /* \"#utility.yul\":11131:11137   */\n      not\n        /* \"#utility.yul\":11123:11128   */\n      dup5\n        /* \"#utility.yul\":11120:11121   */\n      0x08\n        /* \"#utility.yul\":11116:11129   */\n      mul\n        /* \"#utility.yul\":11087:11138   */\n      tag_90\n      jump\t// in\n    tag_215:\n        /* \"#utility.yul\":11083:11139   */\n      not\n        /* \"#utility.yul\":11168:11172   */\n      dup1\n        /* \"#utility.yul\":11162:11166   */\n      dup4\n        /* \"#utility.yul\":11158:11173   */\n      and\n        /* \"#utility.yul\":11148:11173   */\n      swap2\n      pop\n        /* \"#utility.yul\":11061:11179   */\n      pop\n        /* \"#utility.yul\":11010:11179   */\n      swap3\n      swap2\n      pop\n      pop\n      jump\t// out\n        /* \"#utility.yul\":11184:11479   */\n    tag_92:\n        /* \"#utility.yul\":11260:11264   */\n      0x00\n        /* \"#utility.yul\":11406:11435   */\n      tag_217\n        /* \"#utility.yul\":11431:11434   */\n      dup4\n        /* \"#utility.yul\":11425:11429   */\n      dup4\n        /* \"#utility.yul\":11406:11435   */\n      tag_91\n      jump\t// in\n    tag_217:\n        /* \"#utility.yul\":11398:11435   */\n      swap2\n      pop\n        /* \"#utility.yul\":11468:11471   */\n      dup3\n        /* \"#utility.yul\":11465:11466   */\n      0x02\n        /* \"#utility.yul\":11461:11472   */\n      mul\n        /* \"#utility.yul\":11455:11459   */\n      dup3\n        /* \"#utility.yul\":11452:11473   */\n      or\n        /* \"#utility.yul\":11444:11473   */\n      swap1\n      pop\n        /* \"#utility.yul\":11184:11479   */\n      swap3\n      swap2\n      pop\n      pop\n      jump\t// out\n        /* \"#utility.yul\":11484:12879   */\n    tag_40:\n        /* \"#utility.yul\":11601:11638   */\n      tag_219\n        /* \"#utility.yul\":11634:11637   */\n      dup3\n        /* \"#utility.yul\":11601:11638   */\n      tag_56\n      jump\t// in\n    tag_219:\n        /* \"#utility.yul\":11703:11721   */\n      0xffffffffffffffff\n        /* \"#utility.yul\":11695:11701   */\n      dup2\n        /* \"#utility.yul\":11692:11722   */\n      gt\n        /* \"#utility.yul\":11689:11745   */\n      iszero\n      tag_220\n      jumpi\n        /* \"#utility.yul\":11725:11743   */\n      tag_221\n      tag_66\n      jump\t// in\n    tag_221:\n        /* \"#utility.yul\":11689:11745   */\n    tag_220:\n        /* \"#utility.yul\":11769:11807   */\n      tag_222\n        /* \"#utility.yul\":11801:11805   */\n      dup3\n        /* \"#utility.yul\":11795:11806   */\n      sload\n        /* \"#utility.yul\":11769:11807   */\n      tag_26\n      jump\t// in\n    tag_222:\n        /* \"#utility.yul\":11854:11921   */\n      tag_223\n        /* \"#utility.yul\":11914:11920   */\n      dup3\n        /* \"#utility.yul\":11906:11912   */\n      dup3\n        /* \"#utility.yul\":11900:11904   */\n      dup6\n        /* \"#utility.yul\":11854:11921   */\n      tag_89\n      jump\t// in\n    tag_223:\n        /* \"#utility.yul\":11948:11949   */\n      0x00\n        /* \"#utility.yul\":11972:11976   */\n      0x20\n        /* \"#utility.yul\":11959:11976   */\n      swap1\n      pop\n        /* \"#utility.yul\":12004:12006   */\n      0x1f\n        /* \"#utility.yul\":11996:12002   */\n      dup4\n        /* \"#utility.yul\":11993:12007   */\n      gt\n        /* \"#utility.yul\":12021:12022   */\n      0x01\n        /* \"#utility.yul\":12016:12634   */\n      dup2\n      eq\n      tag_225\n      jumpi\n        /* \"#utility.yul\":12678:12679   */\n      0x00\n        /* \"#utility.yul\":12695:12701   */\n      dup5\n        /* \"#utility.yul\":12692:12769   */\n      iszero\n      tag_226\n      jumpi\n        /* \"#utility.yul\":12744:12753   */\n      dup3\n        /* \"#utility.yul\":12739:12742   */\n      dup8\n        /* \"#utility.yul\":12735:12754   */\n      add\n        /* \"#utility.yul\":12729:12755   */\n      mload\n        /* \"#utility.yul\":12720:12755   */\n      swap1\n      pop\n        /* \"#utility.yul\":12692:12769   */\n    tag_226:\n        /* \"#utility.yul\":12795:12862   */\n      tag_227\n        /* \"#utility.yul\":12855:12861   */\n      dup6\n        /* \"#utility.yul\":12848:12853   */\n      dup3\n        /* \"#utility.yul\":12795:12862   */\n      tag_92\n      jump\t// in\n    tag_227:\n        /* \"#utility.yul\":12789:12793   */\n      dup7\n        /* \"#utility.yul\":12782:12863   */\n      sstore\n        /* \"#utility.yul\":12651:12873   */\n      pop\n        /* \"#utility.yul\":11986:12873   */\n      jump(tag_224)\n        /* \"#utility.yul\":12016:12634   */\n    tag_225:\n        /* \"#utility.yul\":12068:12072   */\n      0x1f\n        /* \"#utility.yul\":12064:12073   */\n      not\n        /* \"#utility.yul\":12056:12062   */\n      dup5\n        /* \"#utility.yul\":12052:12074   */\n      and\n        /* \"#utility.yul\":12102:12139   */\n      tag_228\n        /* \"#utility.yul\":12134:12138   */\n      dup7\n        /* \"#utility.yul\":12102:12139   */\n      tag_78\n      jump\t// in\n    tag_228:\n        /* \"#utility.yul\":12161:12162   */\n      0x00\n        /* \"#utility.yul\":12175:12383   */\n    tag_229:\n        /* \"#utility.yul\":12189:12196   */\n      dup3\n        /* \"#utility.yul\":12186:12187   */\n      dup2\n        /* \"#utility.yul\":12183:12197   */\n      lt\n        /* \"#utility.yul\":12175:12383   */\n      iszero\n      tag_231\n      jumpi\n        /* \"#utility.yul\":12268:12277   */\n      dup5\n        /* \"#utility.yul\":12263:12266   */\n      dup10\n        /* \"#utility.yul\":12259:12278   */\n      add\n        /* \"#utility.yul\":12253:12279   */\n      mload\n        /* \"#utility.yul\":12245:12251   */\n      dup3\n        /* \"#utility.yul\":12238:12280   */\n      sstore\n        /* \"#utility.yul\":12319:12320   */\n      0x01\n        /* \"#utility.yul\":12311:12317   */\n      dup3\n        /* \"#utility.yul\":12307:12321   */\n      add\n        /* \"#utility.yul\":12297:12321   */\n      swap2\n      pop\n        /* \"#utility.yul\":12366:12368   */\n      0x20\n        /* \"#utility.yul\":12355:12364   */\n      dup6\n        /* \"#utility.yul\":12351:12369   */\n      add\n        /* \"#utility.yul\":12338:12369   */\n      swap5\n      pop\n        /* \"#utility.yul\":12212:12216   */\n      0x20\n        /* \"#utility.yul\":12209:12210   */\n      dup2\n        /* \"#utility.yul\":12205:12217   */\n      add\n        /* \"#utility.yul\":12200:12217   */\n      swap1\n      pop\n        /* \"#utility.yul\":12175:12383   */\n      jump(tag_229)\n    tag_231:\n        /* \"#utility.yul\":12411:12417   */\n      dup7\n        /* \"#utility.yul\":12402:12409   */\n      dup4\n        /* \"#utility.yul\":12399:12418   */\n      lt\n        /* \"#utility.yul\":12396:12575   */\n      iszero\n      tag_232\n      jumpi\n        /* \"#utility.yul\":12469:12478   */\n      dup5\n        /* \"#utility.yul\":12464:12467   */\n      dup10\n        /* \"#utility.yul\":12460:12479   */\n      add\n        /* \"#utility.yul\":12454:12480   */\n      mload\n        /* \"#utility.yul\":12512:12560   */\n      tag_233\n        /* \"#utility.yul\":12554:12558   */\n      0x1f\n        /* \"#utility.yul\":12546:12552   */\n      dup10\n        /* \"#utility.yul\":12542:12559   */\n      and\n        /* \"#utility.yul\":12531:12540   */\n      dup3\n        /* \"#utility.yul\":12512:12560   */\n      tag_91\n      jump\t// in\n    tag_233:\n        /* \"#utility.yul\":12504:12510   */\n      dup4\n        /* \"#utility.yul\":12497:12561   */\n      sstore\n        /* \"#utility.yul\":12419:12575   */\n      pop\n        /* \"#utility.yul\":12396:12575   */\n    tag_232:\n        /* \"#utility.yul\":12621:12622   */\n      0x01\n        /* \"#utility.yul\":12617:12618   */\n      0x02\n        /* \"#utility.yul\":12609:12615   */\n      dup9\n        /* \"#utility.yul\":12605:12619   */\n      mul\n        /* \"#utility.yul\":12601:12623   */\n      add\n        /* \"#utility.yul\":12595:12599   */\n      dup9\n        /* \"#utility.yul\":12588:12624   */\n      sstore\n        /* \"#utility.yul\":12023:12634   */\n      pop\n      pop\n      pop\n        /* \"#utility.yul\":11986:12873   */\n    tag_224:\n      pop\n        /* \"#utility.yul\":11576:12879   */\n      pop\n      pop\n      pop\n        /* \"#utility.yul\":11484:12879   */\n      pop\n      pop\n      jump\t// out\n        /* \"#utility.yul\":12885:13052   */\n    tag_93:\n        /* \"#utility.yul\":13025:13044   */\n      0x53747564656e74206e6f7420666f756e64000000000000000000000000000000\n        /* \"#utility.yul\":13021:13022   */\n      0x00\n        /* \"#utility.yul\":13013:13019   */\n      dup3\n        /* \"#utility.yul\":13009:13023   */\n      add\n        /* \"#utility.yul\":13002:13045   */\n      mstore\n        /* \"#utility.yul\":12885:13052   */\n      pop\n      jump\t// out\n        /* \"#utility.yul\":13058:13424   */\n    tag_94:\n        /* \"#utility.yul\":13200:13203   */\n      0x00\n        /* \"#utility.yul\":13221:13288   */\n      tag_236\n        /* \"#utility.yul\":13285:13287   */\n      0x11\n        /* \"#utility.yul\":13280:13283   */\n      dup4\n        /* \"#utility.yul\":13221:13288   */\n      tag_57\n      jump\t// in\n    tag_236:\n        /* \"#utility.yul\":13214:13288   */\n      swap2\n      pop\n        /* \"#utility.yul\":13297:13390   */\n      tag_237\n        /* \"#utility.yul\":13386:13389   */\n      dup3\n        /* \"#utility.yul\":13297:13390   */\n      tag_93\n      jump\t// in\n    tag_237:\n        /* \"#utility.yul\":13415:13417   */\n      0x20\n        /* \"#utility.yul\":13410:13413   */\n      dup3\n        /* \"#utility.yul\":13406:13418   */\n      add\n        /* \"#utility.yul\":13399:13418   */\n      swap1\n      pop\n        /* \"#utility.yul\":13058:13424   */\n      swap2\n      swap1\n      pop\n      jump\t// out\n        /* \"#utility.yul\":13430:13849   */\n    tag_47:\n        /* \"#utility.yul\":13596:13600   */\n      0x00\n        /* \"#utility.yul\":13634:13636   */\n      0x20\n        /* \"#utility.yul\":13623:13632   */\n      dup3\n        /* \"#utility.yul\":13619:13637   */\n      add\n        /* \"#utility.yul\":13611:13637   */\n      swap1\n      pop\n        /* \"#utility.yul\":13683:13692   */\n      dup2\n        /* \"#utility.yul\":13677:13681   */\n      dup2\n        /* \"#utility.yul\":13673:13693   */\n      sub\n        /* \"#utility.yul\":13669:13670   */\n      0x00\n        /* \"#utility.yul\":13658:13667   */\n      dup4\n        /* \"#utility.yul\":13654:13671   */\n      add\n        /* \"#utility.yul\":13647:13694   */\n      mstore\n        /* \"#utility.yul\":13711:13842   */\n      tag_239\n        /* \"#utility.yul\":13837:13841   */\n      dup2\n        /* \"#utility.yul\":13711:13842   */\n      tag_94\n      jump\t// in\n    tag_239:\n        /* \"#utility.yul\":13703:13842   */\n      swap1\n      pop\n        /* \"#utility.yul\":13430:13849   */\n      swap2\n      swap1\n      pop\n      jump\t// out\n\n    auxdata: 0xa2646970667358221220a7866b38dba54209e7000341e0b98426cc52d7b8a9b447bf15fd9f4a4ac7327064736f6c634300081f0033\n}\n",
				"bytecode": {
					"linkReferences": {},
					"object": "6080604052348015600e575f5ffd5b50335f5f6101000a81548173ffffffffffffffffffffffffffffffffffffffff021916908373ffffffffffffffffffffffffffffffffffffffff160217905550610b9b8061005b5f395ff3fe608060405234801561000f575f5ffd5b506004361061004a575f3560e01c8063642f91631461004e578063b4a99a4e14610080578063de5c363c1461009e578063ec7505b1146100ba575b5f5ffd5b6100686004803603810190610063919061048b565b6100d6565b60405161007793929190610535565b60405180910390f35b6100886101b8565b60405161009591906105b0565b60405180910390f35b6100b860048036038101906100b391906106f5565b6101dc565b005b6100d460048036038101906100cf91906106f5565b610308565b005b5f60605f5f60015f8681526020019081526020015f206040518060600160405290815f82015481526020016001820180546101109061078e565b80601f016020809104026020016040519081016040528092919081815260200182805461013c9061078e565b80156101875780601f1061015e57610100808354040283529160200191610187565b820191905f5260205f20905b81548152906001019060200180831161016a57829003601f168201915b505050505081526020016002820154815250509050805f015181602001518260400151935093509350509193909250565b5f5f9054906101000a900473ffffffffffffffffffffffffffffffffffffffff1681565b5f5f9054906101000a900473ffffffffffffffffffffffffffffffffffffffff1673ffffffffffffffffffffffffffffffffffffffff163373ffffffffffffffffffffffffffffffffffffffff161461026a576040517f08c379a000000000000000000000000000000000000000000000000000000000815260040161026190610808565b60405180910390fd5b5f83116102ac576040517f08c379a00000000000000000000000000000000000000000000000000000000081526004016102a390610870565b60405180910390fd5b60405180606001604052808481526020018381526020018281525060015f8581526020019081526020015f205f820151815f015560208201518160010190816102f59190610a2e565b5060408201518160020155905050505050565b5f5f9054906101000a900473ffffffffffffffffffffffffffffffffffffffff1673ffffffffffffffffffffffffffffffffffffffff163373ffffffffffffffffffffffffffffffffffffffff1614610396576040517f08c379a000000000000000000000000000000000000000000000000000000000815260040161038d90610808565b60405180910390fd5b5f60015f8581526020019081526020015f205f0154036103eb576040517f08c379a00000000000000000000000000000000000000000000000000000000081526004016103e290610b47565b60405180910390fd5b60405180606001604052808481526020018381526020018281525060015f8581526020019081526020015f205f820151815f015560208201518160010190816104349190610a2e565b5060408201518160020155905050505050565b5f604051905090565b5f5ffd5b5f5ffd5b5f819050919050565b61046a81610458565b8114610474575f5ffd5b50565b5f8135905061048581610461565b92915050565b5f602082840312156104a05761049f610450565b5b5f6104ad84828501610477565b91505092915050565b6104bf81610458565b82525050565b5f81519050919050565b5f82825260208201905092915050565b8281835e5f83830152505050565b5f601f19601f8301169050919050565b5f610507826104c5565b61051181856104cf565b93506105218185602086016104df565b61052a816104ed565b840191505092915050565b5f6060820190506105485f8301866104b6565b818103602083015261055a81856104fd565b905061056960408301846104b6565b949350505050565b5f73ffffffffffffffffffffffffffffffffffffffff82169050919050565b5f61059a82610571565b9050919050565b6105aa81610590565b82525050565b5f6020820190506105c35f8301846105a1565b92915050565b5f5ffd5b5f5ffd5b7f4e487b71000000000000000000000000000000000000000000000000000000005f52604160045260245ffd5b610607826104ed565b810181811067ffffffffffffffff82111715610626576106256105d1565b5b80604052505050565b5f610638610447565b905061064482826105fe565b919050565b5f67ffffffffffffffff821115610663576106626105d1565b5b61066c826104ed565b9050602081019050919050565b828183375f83830152505050565b5f61069961069484610649565b61062f565b9050828152602081018484840111156106b5576106b46105cd565b5b6106c0848285610679565b509392505050565b5f82601f8301126106dc576106db6105c9565b5b81356106ec848260208601610687565b91505092915050565b5f5f5f6060848603121561070c5761070b610450565b5b5f61071986828701610477565b935050602084013567ffffffffffffffff81111561073a57610739610454565b5b610746868287016106c8565b925050604061075786828701610477565b9150509250925092565b7f4e487b71000000000000000000000000000000000000000000000000000000005f52602260045260245ffd5b5f60028204905060018216806107a557607f821691505b6020821081036107b8576107b7610761565b5b50919050565b7f4e6f74204f776e657200000000000000000000000000000000000000000000005f82015250565b5f6107f26009836104cf565b91506107fd826107be565b602082019050919050565b5f6020820190508181035f83015261081f816107e6565b9050919050565b7f496e76616c6964204944000000000000000000000000000000000000000000005f82015250565b5f61085a600a836104cf565b915061086582610826565b602082019050919050565b5f6020820190508181035f8301526108878161084e565b9050919050565b5f819050815f5260205f209050919050565b5f6020601f8301049050919050565b5f82821b905092915050565b5f600883026108ea7fffffffffffffffffffffffffffffffffffffffffffffffffffffffffffffffff826108af565b6108f486836108af565b95508019841693508086168417925050509392505050565b5f819050919050565b5f61092f61092a61092584610458565b61090c565b610458565b9050919050565b5f819050919050565b61094883610915565b61095c61095482610936565b8484546108bb565b825550505050565b5f5f905090565b610973610964565b61097e81848461093f565b505050565b5b818110156109a1576109965f8261096b565b600181019050610984565b5050565b601f8211156109e6576109b78161088e565b6109c0846108a0565b810160208510156109cf578190505b6109e36109db856108a0565b830182610983565b50505b505050565b5f82821c905092915050565b5f610a065f19846008026109eb565b1980831691505092915050565b5f610a1e83836109f7565b9150826002028217905092915050565b610a37826104c5565b67ffffffffffffffff811115610a5057610a4f6105d1565b5b610a5a825461078e565b610a658282856109a5565b5f60209050601f831160018114610a96575f8415610a84578287015190505b610a8e8582610a13565b865550610af5565b601f198416610aa48661088e565b5f5b82811015610acb57848901518255600182019150602085019450602081019050610aa6565b86831015610ae85784890151610ae4601f8916826109f7565b8355505b6001600288020188555050505b505050505050565b7f53747564656e74206e6f7420666f756e640000000000000000000000000000005f82015250565b5f610b316011836104cf565b9150610b3c82610afd565b602082019050919050565b5f6020820190508181035f830152610b5e81610b25565b905091905056fea2646970667358221220a7866b38dba54209e7000341e0b98426cc52d7b8a9b447bf15fd9f4a4ac7327064736f6c634300081f0033",
					"opcodes": "PUSH1 0x80 PUSH1 0x40 MSTORE CALLVALUE DUP1 ISZERO PUSH1 0xE JUMPI PUSH0 PUSH0 REVERT JUMPDEST POP CALLER PUSH0 PUSH0 PUSH2 0x100 EXP DUP2 SLOAD DUP2 PUSH20 0xFFFFFFFFFFFFFFFFFFFFFFFFFFFFFFFFFFFFFFFF MUL NOT AND SWAP1 DUP4 PUSH20 0xFFFFFFFFFFFFFFFFFFFFFFFFFFFFFFFFFFFFFFFF AND MUL OR SWAP1 SSTORE POP PUSH2 0xB9B DUP1 PUSH2 0x5B PUSH0 CODECOPY PUSH0 RETURN INVALID PUSH1 0x80 PUSH1 0x40 MSTORE CALLVALUE DUP1 ISZERO PUSH2 0xF JUMPI PUSH0 PUSH0 REVERT JUMPDEST POP PUSH1 0x4 CALLDATASIZE LT PUSH2 0x4A JUMPI PUSH0 CALLDATALOAD PUSH1 0xE0 SHR DUP1 PUSH4 0x642F9163 EQ PUSH2 0x4E JUMPI DUP1 PUSH4 0xB4A99A4E EQ PUSH2 0x80 JUMPI DUP1 PUSH4 0xDE5C363C EQ PUSH2 0x9E JUMPI DUP1 PUSH4 0xEC7505B1 EQ PUSH2 0xBA JUMPI JUMPDEST PUSH0 PUSH0 REVERT JUMPDEST PUSH2 0x68 PUSH1 0x4 DUP1 CALLDATASIZE SUB DUP2 ADD SWAP1 PUSH2 0x63 SWAP2 SWAP1 PUSH2 0x48B JUMP JUMPDEST PUSH2 0xD6 JUMP JUMPDEST PUSH1 0x40 MLOAD PUSH2 0x77 SWAP4 SWAP3 SWAP2 SWAP1 PUSH2 0x535 JUMP JUMPDEST PUSH1 0x40 MLOAD DUP1 SWAP2 SUB SWAP1 RETURN JUMPDEST PUSH2 0x88 PUSH2 0x1B8 JUMP JUMPDEST PUSH1 0x40 MLOAD PUSH2 0x95 SWAP2 SWAP1 PUSH2 0x5B0 JUMP JUMPDEST PUSH1 0x40 MLOAD DUP1 SWAP2 SUB SWAP1 RETURN JUMPDEST PUSH2 0xB8 PUSH1 0x4 DUP1 CALLDATASIZE SUB DUP2 ADD SWAP1 PUSH2 0xB3 SWAP2 SWAP1 PUSH2 0x6F5 JUMP JUMPDEST PUSH2 0x1DC JUMP JUMPDEST STOP JUMPDEST PUSH2 0xD4 PUSH1 0x4 DUP1 CALLDATASIZE SUB DUP2 ADD SWAP1 PUSH2 0xCF SWAP2 SWAP1 PUSH2 0x6F5 JUMP JUMPDEST PUSH2 0x308 JUMP JUMPDEST STOP JUMPDEST PUSH0 PUSH1 0x60 PUSH0 PUSH0 PUSH1 0x1 PUSH0 DUP7 DUP2 MSTORE PUSH1 0x20 ADD SWAP1 DUP2 MSTORE PUSH1 0x20 ADD PUSH0 KECCAK256 PUSH1 0x40 MLOAD DUP1 PUSH1 0x60 ADD PUSH1 0x40 MSTORE SWAP1 DUP2 PUSH0 DUP3 ADD SLOAD DUP2 MSTORE PUSH1 0x20 ADD PUSH1 0x1 DUP3 ADD DUP1 SLOAD PUSH2 0x110 SWAP1 PUSH2 0x78E JUMP JUMPDEST DUP1 PUSH1 0x1F ADD PUSH1 0x20 DUP1 SWAP2 DIV MUL PUSH1 0x20 ADD PUSH1 0x40 MLOAD SWAP1 DUP2 ADD PUSH1 0x40 MSTORE DUP1 SWAP3 SWAP2 SWAP1 DUP2 DUP2 MSTORE PUSH1 0x20 ADD DUP3 DUP1 SLOAD PUSH2 0x13C SWAP1 PUSH2 0x78E JUMP JUMPDEST DUP1 ISZERO PUSH2 0x187 JUMPI DUP1 PUSH1 0x1F LT PUSH2 0x15E JUMPI PUSH2 0x100 DUP1 DUP4 SLOAD DIV MUL DUP4 MSTORE SWAP2 PUSH1 0x20 ADD SWAP2 PUSH2 0x187 JUMP JUMPDEST DUP3 ADD SWAP2 SWAP1 PUSH0 MSTORE PUSH1 0x20 PUSH0 KECCAK256 SWAP1 JUMPDEST DUP2 SLOAD DUP2 MSTORE SWAP1 PUSH1 0x1 ADD SWAP1 PUSH1 0x20 ADD DUP1 DUP4 GT PUSH2 0x16A JUMPI DUP3 SWAP1 SUB PUSH1 0x1F AND DUP3 ADD SWAP2 JUMPDEST POP POP POP POP POP DUP2 MSTORE PUSH1 0x20 ADD PUSH1 0x2 DUP3 ADD SLOAD DUP2 MSTORE POP POP SWAP1 POP DUP1 PUSH0 ADD MLOAD DUP2 PUSH1 0x20 ADD MLOAD DUP3 PUSH1 0x40 ADD MLOAD SWAP4 POP SWAP4 POP SWAP4 POP POP SWAP2 SWAP4 SWAP1 SWAP3 POP JUMP JUMPDEST PUSH0 PUSH0 SWAP1 SLOAD SWAP1 PUSH2 0x100 EXP SWAP1 DIV PUSH20 0xFFFFFFFFFFFFFFFFFFFFFFFFFFFFFFFFFFFFFFFF AND DUP2 JUMP JUMPDEST PUSH0 PUSH0 SWAP1 SLOAD SWAP1 PUSH2 0x100 EXP SWAP1 DIV PUSH20 0xFFFFFFFFFFFFFFFFFFFFFFFFFFFFFFFFFFFFFFFF AND PUSH20 0xFFFFFFFFFFFFFFFFFFFFFFFFFFFFFFFFFFFFFFFF AND CALLER PUSH20 0xFFFFFFFFFFFFFFFFFFFFFFFFFFFFFFFFFFFFFFFF AND EQ PUSH2 0x26A JUMPI PUSH1 0x40 MLOAD PUSH32 0x8C379A000000000000000000000000000000000000000000000000000000000 DUP2 MSTORE PUSH1 0x4 ADD PUSH2 0x261 SWAP1 PUSH2 0x808 JUMP JUMPDEST PUSH1 0x40 MLOAD DUP1 SWAP2 SUB SWAP1 REVERT JUMPDEST PUSH0 DUP4 GT PUSH2 0x2AC JUMPI PUSH1 0x40 MLOAD PUSH32 0x8C379A000000000000000000000000000000000000000000000000000000000 DUP2 MSTORE PUSH1 0x4 ADD PUSH2 0x2A3 SWAP1 PUSH2 0x870 JUMP JUMPDEST PUSH1 0x40 MLOAD DUP1 SWAP2 SUB SWAP1 REVERT JUMPDEST PUSH1 0x40 MLOAD DUP1 PUSH1 0x60 ADD PUSH1 0x40 MSTORE DUP1 DUP5 DUP2 MSTORE PUSH1 0x20 ADD DUP4 DUP2 MSTORE PUSH1 0x20 ADD DUP3 DUP2 MSTORE POP PUSH1 0x1 PUSH0 DUP6 DUP2 MSTORE PUSH1 0x20 ADD SWAP1 DUP2 MSTORE PUSH1 0x20 ADD PUSH0 KECCAK256 PUSH0 DUP3 ADD MLOAD DUP2 PUSH0 ADD SSTORE PUSH1 0x20 DUP3 ADD MLOAD DUP2 PUSH1 0x1 ADD SWAP1 DUP2 PUSH2 0x2F5 SWAP2 SWAP1 PUSH2 0xA2E JUMP JUMPDEST POP PUSH1 0x40 DUP3 ADD MLOAD DUP2 PUSH1 0x2 ADD SSTORE SWAP1 POP POP POP POP POP JUMP JUMPDEST PUSH0 PUSH0 SWAP1 SLOAD SWAP1 PUSH2 0x100 EXP SWAP1 DIV PUSH20 0xFFFFFFFFFFFFFFFFFFFFFFFFFFFFFFFFFFFFFFFF AND PUSH20 0xFFFFFFFFFFFFFFFFFFFFFFFFFFFFFFFFFFFFFFFF AND CALLER PUSH20 0xFFFFFFFFFFFFFFFFFFFFFFFFFFFFFFFFFFFFFFFF AND EQ PUSH2 0x396 JUMPI PUSH1 0x40 MLOAD PUSH32 0x8C379A000000000000000000000000000000000000000000000000000000000 DUP2 MSTORE PUSH1 0x4 ADD PUSH2 0x38D SWAP1 PUSH2 0x808 JUMP JUMPDEST PUSH1 0x40 MLOAD DUP1 SWAP2 SUB SWAP1 REVERT JUMPDEST PUSH0 PUSH1 0x1 PUSH0 DUP6 DUP2 MSTORE PUSH1 0x20 ADD SWAP1 DUP2 MSTORE PUSH1 0x20 ADD PUSH0 KECCAK256 PUSH0 ADD SLOAD SUB PUSH2 0x3EB JUMPI PUSH1 0x40 MLOAD PUSH32 0x8C379A000000000000000000000000000000000000000000000000000000000 DUP2 MSTORE PUSH1 0x4 ADD PUSH2 0x3E2 SWAP1 PUSH2 0xB47 JUMP JUMPDEST PUSH1 0x40 MLOAD DUP1 SWAP2 SUB SWAP1 REVERT JUMPDEST PUSH1 0x40 MLOAD DUP1 PUSH1 0x60 ADD PUSH1 0x40 MSTORE DUP1 DUP5 DUP2 MSTORE PUSH1 0x20 ADD DUP4 DUP2 MSTORE PUSH1 0x20 ADD DUP3 DUP2 MSTORE POP PUSH1 0x1 PUSH0 DUP6 DUP2 MSTORE PUSH1 0x20 ADD SWAP1 DUP2 MSTORE PUSH1 0x20 ADD PUSH0 KECCAK256 PUSH0 DUP3 ADD MLOAD DUP2 PUSH0 ADD SSTORE PUSH1 0x20 DUP3 ADD MLOAD DUP2 PUSH1 0x1 ADD SWAP1 DUP2 PUSH2 0x434 SWAP2 SWAP1 PUSH2 0xA2E JUMP JUMPDEST POP PUSH1 0x40 DUP3 ADD MLOAD DUP2 PUSH1 0x2 ADD SSTORE SWAP1 POP POP POP POP POP JUMP JUMPDEST PUSH0 PUSH1 0x40 MLOAD SWAP1 POP SWAP1 JUMP JUMPDEST PUSH0 PUSH0 REVERT JUMPDEST PUSH0 PUSH0 REVERT JUMPDEST PUSH0 DUP2 SWAP1 POP SWAP2 SWAP1 POP JUMP JUMPDEST PUSH2 0x46A DUP2 PUSH2 0x458 JUMP JUMPDEST DUP2 EQ PUSH2 0x474 JUMPI PUSH0 PUSH0 REVERT JUMPDEST POP JUMP JUMPDEST PUSH0 DUP2 CALLDATALOAD SWAP1 POP PUSH2 0x485 DUP2 PUSH2 0x461 JUMP JUMPDEST SWAP3 SWAP2 POP POP JUMP JUMPDEST PUSH0 PUSH1 0x20 DUP3 DUP5 SUB SLT ISZERO PUSH2 0x4A0 JUMPI PUSH2 0x49F PUSH2 0x450 JUMP JUMPDEST JUMPDEST PUSH0 PUSH2 0x4AD DUP5 DUP3 DUP6 ADD PUSH2 0x477 JUMP JUMPDEST SWAP2 POP POP SWAP3 SWAP2 POP POP JUMP JUMPDEST PUSH2 0x4BF DUP2 PUSH2 0x458 JUMP JUMPDEST DUP3 MSTORE POP POP JUMP JUMPDEST PUSH0 DUP2 MLOAD SWAP1 POP SWAP2 SWAP1 POP JUMP JUMPDEST PUSH0 DUP3 DUP3 MSTORE PUSH1 0x20 DUP3 ADD SWAP1 POP SWAP3 SWAP2 POP POP JUMP JUMPDEST DUP3 DUP2 DUP4 MCOPY PUSH0 DUP4 DUP4 ADD MSTORE POP POP POP JUMP JUMPDEST PUSH0 PUSH1 0x1F NOT PUSH1 0x1F DUP4 ADD AND SWAP1 POP SWAP2 SWAP1 POP JUMP JUMPDEST PUSH0 PUSH2 0x507 DUP3 PUSH2 0x4C5 JUMP JUMPDEST PUSH2 0x511 DUP2 DUP6 PUSH2 0x4CF JUMP JUMPDEST SWAP4 POP PUSH2 0x521 DUP2 DUP6 PUSH1 0x20 DUP7 ADD PUSH2 0x4DF JUMP JUMPDEST PUSH2 0x52A DUP2 PUSH2 0x4ED JUMP JUMPDEST DUP5 ADD SWAP2 POP POP SWAP3 SWAP2 POP POP JUMP JUMPDEST PUSH0 PUSH1 0x60 DUP3 ADD SWAP1 POP PUSH2 0x548 PUSH0 DUP4 ADD DUP7 PUSH2 0x4B6 JUMP JUMPDEST DUP2 DUP2 SUB PUSH1 0x20 DUP4 ADD MSTORE PUSH2 0x55A DUP2 DUP6 PUSH2 0x4FD JUMP JUMPDEST SWAP1 POP PUSH2 0x569 PUSH1 0x40 DUP4 ADD DUP5 PUSH2 0x4B6 JUMP JUMPDEST SWAP5 SWAP4 POP POP POP POP JUMP JUMPDEST PUSH0 PUSH20 0xFFFFFFFFFFFFFFFFFFFFFFFFFFFFFFFFFFFFFFFF DUP3 AND SWAP1 POP SWAP2 SWAP1 POP JUMP JUMPDEST PUSH0 PUSH2 0x59A DUP3 PUSH2 0x571 JUMP JUMPDEST SWAP1 POP SWAP2 SWAP1 POP JUMP JUMPDEST PUSH2 0x5AA DUP2 PUSH2 0x590 JUMP JUMPDEST DUP3 MSTORE POP POP JUMP JUMPDEST PUSH0 PUSH1 0x20 DUP3 ADD SWAP1 POP PUSH2 0x5C3 PUSH0 DUP4 ADD DUP5 PUSH2 0x5A1 JUMP JUMPDEST SWAP3 SWAP2 POP POP JUMP JUMPDEST PUSH0 PUSH0 REVERT JUMPDEST PUSH0 PUSH0 REVERT JUMPDEST PUSH32 0x4E487B7100000000000000000000000000000000000000000000000000000000 PUSH0 MSTORE PUSH1 0x41 PUSH1 0x4 MSTORE PUSH1 0x24 PUSH0 REVERT JUMPDEST PUSH2 0x607 DUP3 PUSH2 0x4ED JUMP JUMPDEST DUP2 ADD DUP2 DUP2 LT PUSH8 0xFFFFFFFFFFFFFFFF DUP3 GT OR ISZERO PUSH2 0x626 JUMPI PUSH2 0x625 PUSH2 0x5D1 JUMP JUMPDEST JUMPDEST DUP1 PUSH1 0x40 MSTORE POP POP POP JUMP JUMPDEST PUSH0 PUSH2 0x638 PUSH2 0x447 JUMP JUMPDEST SWAP1 POP PUSH2 0x644 DUP3 DUP3 PUSH2 0x5FE JUMP JUMPDEST SWAP2 SWAP1 POP JUMP JUMPDEST PUSH0 PUSH8 0xFFFFFFFFFFFFFFFF DUP3 GT ISZERO PUSH2 0x663 JUMPI PUSH2 0x662 PUSH2 0x5D1 JUMP JUMPDEST JUMPDEST PUSH2 0x66C DUP3 PUSH2 0x4ED JUMP JUMPDEST SWAP1 POP PUSH1 0x20 DUP2 ADD SWAP1 POP SWAP2 SWAP1 POP JUMP JUMPDEST DUP3 DUP2 DUP4 CALLDATACOPY PUSH0 DUP4 DUP4 ADD MSTORE POP POP POP JUMP JUMPDEST PUSH0 PUSH2 0x699 PUSH2 0x694 DUP5 PUSH2 0x649 JUMP JUMPDEST PUSH2 0x62F JUMP JUMPDEST SWAP1 POP DUP3 DUP2 MSTORE PUSH1 0x20 DUP2 ADD DUP5 DUP5 DUP5 ADD GT ISZERO PUSH2 0x6B5 JUMPI PUSH2 0x6B4 PUSH2 0x5CD JUMP JUMPDEST JUMPDEST PUSH2 0x6C0 DUP5 DUP3 DUP6 PUSH2 0x679 JUMP JUMPDEST POP SWAP4 SWAP3 POP POP POP JUMP JUMPDEST PUSH0 DUP3 PUSH1 0x1F DUP4 ADD SLT PUSH2 0x6DC JUMPI PUSH2 0x6DB PUSH2 0x5C9 JUMP JUMPDEST JUMPDEST DUP2 CALLDATALOAD PUSH2 0x6EC DUP5 DUP3 PUSH1 0x20 DUP7 ADD PUSH2 0x687 JUMP JUMPDEST SWAP2 POP POP SWAP3 SWAP2 POP POP JUMP JUMPDEST PUSH0 PUSH0 PUSH0 PUSH1 0x60 DUP5 DUP7 SUB SLT ISZERO PUSH2 0x70C JUMPI PUSH2 0x70B PUSH2 0x450 JUMP JUMPDEST JUMPDEST PUSH0 PUSH2 0x719 DUP7 DUP3 DUP8 ADD PUSH2 0x477 JUMP JUMPDEST SWAP4 POP POP PUSH1 0x20 DUP5 ADD CALLDATALOAD PUSH8 0xFFFFFFFFFFFFFFFF DUP2 GT ISZERO PUSH2 0x73A JUMPI PUSH2 0x739 PUSH2 0x454 JUMP JUMPDEST JUMPDEST PUSH2 0x746 DUP7 DUP3 DUP8 ADD PUSH2 0x6C8 JUMP JUMPDEST SWAP3 POP POP PUSH1 0x40 PUSH2 0x757 DUP7 DUP3 DUP8 ADD PUSH2 0x477 JUMP JUMPDEST SWAP2 POP POP SWAP3 POP SWAP3 POP SWAP3 JUMP JUMPDEST PUSH32 0x4E487B7100000000000000000000000000000000000000000000000000000000 PUSH0 MSTORE PUSH1 0x22 PUSH1 0x4 MSTORE PUSH1 0x24 PUSH0 REVERT JUMPDEST PUSH0 PUSH1 0x2 DUP3 DIV SWAP1 POP PUSH1 0x1 DUP3 AND DUP1 PUSH2 0x7A5 JUMPI PUSH1 0x7F DUP3 AND SWAP2 POP JUMPDEST PUSH1 0x20 DUP3 LT DUP2 SUB PUSH2 0x7B8 JUMPI PUSH2 0x7B7 PUSH2 0x761 JUMP JUMPDEST JUMPDEST POP SWAP2 SWAP1 POP JUMP JUMPDEST PUSH32 0x4E6F74204F776E65720000000000000000000000000000000000000000000000 PUSH0 DUP3 ADD MSTORE POP JUMP JUMPDEST PUSH0 PUSH2 0x7F2 PUSH1 0x9 DUP4 PUSH2 0x4CF JUMP JUMPDEST SWAP2 POP PUSH2 0x7FD DUP3 PUSH2 0x7BE JUMP JUMPDEST PUSH1 0x20 DUP3 ADD SWAP1 POP SWAP2 SWAP1 POP JUMP JUMPDEST PUSH0 PUSH1 0x20 DUP3 ADD SWAP1 POP DUP2 DUP2 SUB PUSH0 DUP4 ADD MSTORE PUSH2 0x81F DUP2 PUSH2 0x7E6 JUMP JUMPDEST SWAP1 POP SWAP2 SWAP1 POP JUMP JUMPDEST PUSH32 0x496E76616C696420494400000000000000000000000000000000000000000000 PUSH0 DUP3 ADD MSTORE POP JUMP JUMPDEST PUSH0 PUSH2 0x85A PUSH1 0xA DUP4 PUSH2 0x4CF JUMP JUMPDEST SWAP2 POP PUSH2 0x865 DUP3 PUSH2 0x826 JUMP JUMPDEST PUSH1 0x20 DUP3 ADD SWAP1 POP SWAP2 SWAP1 POP JUMP JUMPDEST PUSH0 PUSH1 0x20 DUP3 ADD SWAP1 POP DUP2 DUP2 SUB PUSH0 DUP4 ADD MSTORE PUSH2 0x887 DUP2 PUSH2 0x84E JUMP JUMPDEST SWAP1 POP SWAP2 SWAP1 POP JUMP JUMPDEST PUSH0 DUP2 SWAP1 POP DUP2 PUSH0 MSTORE PUSH1 0x20 PUSH0 KECCAK256 SWAP1 POP SWAP2 SWAP1 POP JUMP JUMPDEST PUSH0 PUSH1 0x20 PUSH1 0x1F DUP4 ADD DIV SWAP1 POP SWAP2 SWAP1 POP JUMP JUMPDEST PUSH0 DUP3 DUP3 SHL SWAP1 POP SWAP3 SWAP2 POP POP JUMP JUMPDEST PUSH0 PUSH1 0x8 DUP4 MUL PUSH2 0x8EA PUSH32 0xFFFFFFFFFFFFFFFFFFFFFFFFFFFFFFFFFFFFFFFFFFFFFFFFFFFFFFFFFFFFFFFF DUP3 PUSH2 0x8AF JUMP JUMPDEST PUSH2 0x8F4 DUP7 DUP4 PUSH2 0x8AF JUMP JUMPDEST SWAP6 POP DUP1 NOT DUP5 AND SWAP4 POP DUP1 DUP7 AND DUP5 OR SWAP3 POP POP POP SWAP4 SWAP3 POP POP POP JUMP JUMPDEST PUSH0 DUP2 SWAP1 POP SWAP2 SWAP1 POP JUMP JUMPDEST PUSH0 PUSH2 0x92F PUSH2 0x92A PUSH2 0x925 DUP5 PUSH2 0x458 JUMP JUMPDEST PUSH2 0x90C JUMP JUMPDEST PUSH2 0x458 JUMP JUMPDEST SWAP1 POP SWAP2 SWAP1 POP JUMP JUMPDEST PUSH0 DUP2 SWAP1 POP SWAP2 SWAP1 POP JUMP JUMPDEST PUSH2 0x948 DUP4 PUSH2 0x915 JUMP JUMPDEST PUSH2 0x95C PUSH2 0x954 DUP3 PUSH2 0x936 JUMP JUMPDEST DUP5 DUP5 SLOAD PUSH2 0x8BB JUMP JUMPDEST DUP3 SSTORE POP POP POP POP JUMP JUMPDEST PUSH0 PUSH0 SWAP1 POP SWAP1 JUMP JUMPDEST PUSH2 0x973 PUSH2 0x964 JUMP JUMPDEST PUSH2 0x97E DUP2 DUP5 DUP5 PUSH2 0x93F JUMP JUMPDEST POP POP POP JUMP JUMPDEST JUMPDEST DUP2 DUP2 LT ISZERO PUSH2 0x9A1 JUMPI PUSH2 0x996 PUSH0 DUP3 PUSH2 0x96B JUMP JUMPDEST PUSH1 0x1 DUP2 ADD SWAP1 POP PUSH2 0x984 JUMP JUMPDEST POP POP JUMP JUMPDEST PUSH1 0x1F DUP3 GT ISZERO PUSH2 0x9E6 JUMPI PUSH2 0x9B7 DUP2 PUSH2 0x88E JUMP JUMPDEST PUSH2 0x9C0 DUP5 PUSH2 0x8A0 JUMP JUMPDEST DUP2 ADD PUSH1 0x20 DUP6 LT ISZERO PUSH2 0x9CF JUMPI DUP2 SWAP1 POP JUMPDEST PUSH2 0x9E3 PUSH2 0x9DB DUP6 PUSH2 0x8A0 JUMP JUMPDEST DUP4 ADD DUP3 PUSH2 0x983 JUMP JUMPDEST POP POP JUMPDEST POP POP POP JUMP JUMPDEST PUSH0 DUP3 DUP3 SHR SWAP1 POP SWAP3 SWAP2 POP POP JUMP JUMPDEST PUSH0 PUSH2 0xA06 PUSH0 NOT DUP5 PUSH1 0x8 MUL PUSH2 0x9EB JUMP JUMPDEST NOT DUP1 DUP4 AND SWAP2 POP POP SWAP3 SWAP2 POP POP JUMP JUMPDEST PUSH0 PUSH2 0xA1E DUP4 DUP4 PUSH2 0x9F7 JUMP JUMPDEST SWAP2 POP DUP3 PUSH1 0x2 MUL DUP3 OR SWAP1 POP SWAP3 SWAP2 POP POP JUMP JUMPDEST PUSH2 0xA37 DUP3 PUSH2 0x4C5 JUMP JUMPDEST PUSH8 0xFFFFFFFFFFFFFFFF DUP2 GT ISZERO PUSH2 0xA50 JUMPI PUSH2 0xA4F PUSH2 0x5D1 JUMP JUMPDEST JUMPDEST PUSH2 0xA5A DUP3 SLOAD PUSH2 0x78E JUMP JUMPDEST PUSH2 0xA65 DUP3 DUP3 DUP6 PUSH2 0x9A5 JUMP JUMPDEST PUSH0 PUSH1 0x20 SWAP1 POP PUSH1 0x1F DUP4 GT PUSH1 0x1 DUP2 EQ PUSH2 0xA96 JUMPI PUSH0 DUP5 ISZERO PUSH2 0xA84 JUMPI DUP3 DUP8 ADD MLOAD SWAP1 POP JUMPDEST PUSH2 0xA8E DUP6 DUP3 PUSH2 0xA13 JUMP JUMPDEST DUP7 SSTORE POP PUSH2 0xAF5 JUMP JUMPDEST PUSH1 0x1F NOT DUP5 AND PUSH2 0xAA4 DUP7 PUSH2 0x88E JUMP JUMPDEST PUSH0 JUMPDEST DUP3 DUP2 LT ISZERO PUSH2 0xACB JUMPI DUP5 DUP10 ADD MLOAD DUP3 SSTORE PUSH1 0x1 DUP3 ADD SWAP2 POP PUSH1 0x20 DUP6 ADD SWAP5 POP PUSH1 0x20 DUP2 ADD SWAP1 POP PUSH2 0xAA6 JUMP JUMPDEST DUP7 DUP4 LT ISZERO PUSH2 0xAE8 JUMPI DUP5 DUP10 ADD MLOAD PUSH2 0xAE4 PUSH1 0x1F DUP10 AND DUP3 PUSH2 0x9F7 JUMP JUMPDEST DUP4 SSTORE POP JUMPDEST PUSH1 0x1 PUSH1 0x2 DUP9 MUL ADD DUP9 SSTORE POP POP POP JUMPDEST POP POP POP POP POP POP JUMP JUMPDEST PUSH32 0x53747564656E74206E6F7420666F756E64000000000000000000000000000000 PUSH0 DUP3 ADD MSTORE POP JUMP JUMPDEST PUSH0 PUSH2 0xB31 PUSH1 0x11 DUP4 PUSH2 0x4CF JUMP JUMPDEST SWAP2 POP PUSH2 0xB3C DUP3 PUSH2 0xAFD JUMP JUMPDEST PUSH1 0x20 DUP3 ADD SWAP1 POP SWAP2 SWAP1 POP JUMP JUMPDEST PUSH0 PUSH1 0x20 DUP3 ADD SWAP1 POP DUP2 DUP2 SUB PUSH0 DUP4 ADD MSTORE PUSH2 0xB5E DUP2 PUSH2 0xB25 JUMP JUMPDEST SWAP1 POP SWAP2 SWAP1 POP JUMP INVALID LOG2 PUSH5 0x6970667358 0x22 SLT KECCAK256 0xA7 DUP7 PUSH12 0x38DBA54209E7000341E0B984 0x26 0xCC MSTORE 0xD7 0xB8 0xA9 0xB4 SELFBALANCE 0xBF ISZERO REVERT SWAP16 BLOBBASEFEE BLOBBASEFEE 0xC7 ORIGIN PUSH17 0x64736F6C634300081F0033000000000000 "
				},
				"gasEstimates": {
					"creation": {
						"codeDepositCost": "594200",
						"executionCost": "24887",
						"totalCost": "619087"
					},
					"external": {
						"Owner()": "2507",
						"addStudents(uint256,string,uint256)": "infinite",
						"getStudent(uint256)": "infinite",
						"updateStudent(uint256,string,uint256)": "infinite"
					}
				},
				"methodIdentifiers": {
					"Owner()": "b4a99a4e",
					"addStudents(uint256,string,uint256)": "de5c363c",
					"getStudent(uint256)": "642f9163",
					"updateStudent(uint256,string,uint256)": "ec7505b1"
				}
			},
			"storageLayout": {
				"storage": [
					{
						"astId": 3,
						"contract": "Class_8 (20.3.26)/Studentmange.sol:StudentManagement",
						"label": "Owner",
						"offset": 0,
						"slot": "0",
						"type": "t_address"
					},
					{
						"astId": 24,
						"contract": "Class_8 (20.3.26)/Studentmange.sol:StudentManagement",
						"label": "students",
						"offset": 0,
						"slot": "1",
						"type": "t_mapping(t_uint256,t_struct(Student)19_storage)"
					}
				],
				"types": {
					"t_address": {
						"encoding": "inplace",
						"label": "address",
						"numberOfBytes": "20"
					},
					"t_mapping(t_uint256,t_struct(Student)19_storage)": {
						"encoding": "mapping",
						"key": "t_uint256",
						"label": "mapping(uint256 => struct StudentManagement.Student)",
						"numberOfBytes": "32",
						"value": "t_struct(Student)19_storage"
					},
					"t_string_storage": {
						"encoding": "bytes",
						"label": "string",
						"numberOfBytes": "32"
					},
					"t_struct(Student)19_storage": {
						"encoding": "inplace",
						"label": "struct StudentManagement.Student",
						"members": [
							{
								"astId": 14,
								"contract": "Class_8 (20.3.26)/Studentmange.sol:StudentManagement",
								"label": "id",
								"offset": 0,
								"slot": "0",
								"type": "t_uint256"
							},
							{
								"astId": 16,
								"contract": "Class_8 (20.3.26)/Studentmange.sol:StudentManagement",
								"label": "name",
								"offset": 0,
								"slot": "1",
								"type": "t_string_storage"
							},
							{
								"astId": 18,
								"contract": "Class_8 (20.3.26)/Studentmange.sol:StudentManagement",
								"label": "age",
								"offset": 0,
								"slot": "2",
								"type": "t_uint256"
							}
						],
						"numberOfBytes": "96"
					},
					"t_uint256": {
						"encoding": "inplace",
						"label": "uint256",
						"numberOfBytes": "32"
					}
				}
			},
			"userdoc": {
				"kind": "user",
				"methods": {},
				"version": 1
			}
		}
	}
}