{
	"class_7 (18.3.26)/patient_struct.sol": {
		"PatientDetails": {
			"abi": [
				{
					"inputs": [
						{
							"internalType": "uint256",
							"name": "_id",
							"type": "uint256"
						}
					],
					"name": "getDetails",
					"outputs": [
						{
							"internalType": "uint256",
							"name": "",
							"type": "uint256"
						},
						{
							"internalType": "string",
							"name": "",
							"type": "string"
						},
						{
							"internalType": "string",
							"name": "",
							"type": "string"
						},
						{
							"internalType": "bool",
							"name": "",
							"type": "bool"
						}
					],
					"stateMutability": "view",
					"type": "function"
				},
				{
					"inputs": [
						{
							"internalType": "uint256",
							"name": "_id",
							"type": "uint256"
						},
						{
							"internalType": "string",
							"name": "_name",
							"type": "string"
						},
						{
							"internalType": "string",
							"name": "_bio",
							"type": "string"
						},
						{
							"internalType": "bool",
							"name": "_checkup",
							"type": "bool"
						}
					],
					"name": "setDetails",
					"outputs": [],
					"stateMutability": "nonpayable",
					"type": "function"
				}
			],
			"devdoc": {
				"kind": "dev",
				"methods": {},
				"version": 1
			},
			"evm": {
				"assembly": "    /* \"class_7 (18.3.26)/patient_struct.sol\":60:629  contract PatientDetails{... */\n  mstore(0x40, 0x80)\n  callvalue\n  dup1\n  iszero\n  tag_1\n  jumpi\n  revert(0x00, 0x00)\ntag_1:\n  pop\n  dataSize(sub_0)\n  dup1\n  dataOffset(sub_0)\n  0x00\n  codecopy\n  0x00\n  return\nstop\n\nsub_0: assembly {\n        /* \"class_7 (18.3.26)/patient_struct.sol\":60:629  contract PatientDetails{... */\n      mstore(0x40, 0x80)\n      callvalue\n      dup1\n      iszero\n      tag_1\n      jumpi\n      revert(0x00, 0x00)\n    tag_1:\n      pop\n      jumpi(tag_2, lt(calldatasize, 0x04))\n      shr(0xe0, calldataload(0x00))\n      dup1\n      0x2e728d7d\n      eq\n      tag_3\n      jumpi\n      dup1\n      0xb93a89f7\n      eq\n      tag_4\n      jumpi\n    tag_2:\n      revert(0x00, 0x00)\n        /* \"class_7 (18.3.26)/patient_struct.sol\":273:431  function setDetails( uint _id, string memory _name, string memory _bio, bool _checkup) public{... */\n    tag_3:\n      tag_5\n      0x04\n      dup1\n      calldatasize\n      sub\n      dup2\n      add\n      swap1\n      tag_6\n      swap2\n      swap1\n      tag_7\n      jump\t// in\n    tag_6:\n      tag_8\n      jump\t// in\n    tag_5:\n      stop\n        /* \"class_7 (18.3.26)/patient_struct.sol\":439:626  function getDetails(uint _id) public view returns (uint, string memory, string memory, bool){... */\n    tag_4:\n      tag_9\n      0x04\n      dup1\n      calldatasize\n      sub\n      dup2\n      add\n      swap1\n      tag_10\n      swap2\n      swap1\n      tag_11\n      jump\t// in\n    tag_10:\n      tag_12\n      jump\t// in\n    tag_9:\n      mload(0x40)\n      tag_13\n      swap5\n      swap4\n      swap3\n      swap2\n      swap1\n      tag_14\n      jump\t// in\n    tag_13:\n      mload(0x40)\n      dup1\n      swap2\n      sub\n      swap1\n      return\n        /* \"class_7 (18.3.26)/patient_struct.sol\":273:431  function setDetails( uint _id, string memory _name, string memory _bio, bool _checkup) public{... */\n    tag_8:\n        /* \"class_7 (18.3.26)/patient_struct.sol\":388:423  patient(_id, _name, _bio, _checkup) */\n      mload(0x40)\n      dup1\n      0x80\n      add\n      0x40\n      mstore\n      dup1\n        /* \"class_7 (18.3.26)/patient_struct.sol\":396:399  _id */\n      dup6\n        /* \"class_7 (18.3.26)/patient_struct.sol\":388:423  patient(_id, _name, _bio, _checkup) */\n      dup2\n      mstore\n      0x20\n      add\n        /* \"class_7 (18.3.26)/patient_struct.sol\":401:406  _name */\n      dup5\n        /* \"class_7 (18.3.26)/patient_struct.sol\":388:423  patient(_id, _name, _bio, _checkup) */\n      dup2\n      mstore\n      0x20\n      add\n        /* \"class_7 (18.3.26)/patient_struct.sol\":408:412  _bio */\n      dup4\n        /* \"class_7 (18.3.26)/patient_struct.sol\":388:423  patient(_id, _name, _bio, _checkup) */\n      dup2\n      mstore\n      0x20\n      add\n        /* \"class_7 (18.3.26)/patient_struct.sol\":414:422  _checkup */\n      dup3\n        /* \"class_7 (18.3.26)/patient_struct.sol\":388:423  patient(_id, _name, _bio, _checkup) */\n      iszero\n      iszero\n      dup2\n      mstore\n      pop\n        /* \"class_7 (18.3.26)/patient_struct.sol\":377:379  P1 */\n      0x00\n        /* \"class_7 (18.3.26)/patient_struct.sol\":377:385  P1 [_id] */\n      0x00\n        /* \"class_7 (18.3.26)/patient_struct.sol\":381:384  _id */\n      dup7\n        /* \"class_7 (18.3.26)/patient_struct.sol\":377:385  P1 [_id] */\n      dup2\n      mstore\n      0x20\n      add\n      swap1\n      dup2\n      mstore\n      0x20\n      add\n      0x00\n      keccak256\n        /* \"class_7 (18.3.26)/patient_struct.sol\":377:423  P1 [_id] = patient(_id, _name, _bio, _checkup) */\n      0x00\n      dup3\n      add\n      mload\n      dup2\n      0x00\n      add\n      sstore\n      0x20\n      dup3\n      add\n      mload\n      dup2\n      0x01\n      add\n      swap1\n      dup2\n      tag_16\n      swap2\n      swap1\n      tag_17\n      jump\t// in\n    tag_16:\n      pop\n      0x40\n      dup3\n      add\n      mload\n      dup2\n      0x02\n      add\n      swap1\n      dup2\n      tag_18\n      swap2\n      swap1\n      tag_17\n      jump\t// in\n    tag_18:\n      pop\n      0x60\n      dup3\n      add\n      mload\n      dup2\n      0x03\n      add\n      exp(0x0100, 0x00)\n      dup2\n      sload\n      dup2\n      0xff\n      mul\n      not\n      and\n      swap1\n      dup4\n      iszero\n      iszero\n      mul\n      or\n      swap1\n      sstore\n      pop\n      swap1\n      pop\n      pop\n        /* \"class_7 (18.3.26)/patient_struct.sol\":273:431  function setDetails( uint _id, string memory _name, string memory _bio, bool _checkup) public{... */\n      pop\n      pop\n      pop\n      pop\n      jump\t// out\n        /* \"class_7 (18.3.26)/patient_struct.sol\":439:626  function getDetails(uint _id) public view returns (uint, string memory, string memory, bool){... */\n    tag_12:\n        /* \"class_7 (18.3.26)/patient_struct.sol\":490:494  uint */\n      0x00\n        /* \"class_7 (18.3.26)/patient_struct.sol\":496:509  string memory */\n      0x60\n        /* \"class_7 (18.3.26)/patient_struct.sol\":511:524  string memory */\n      dup1\n        /* \"class_7 (18.3.26)/patient_struct.sol\":526:530  bool */\n      0x00\n        /* \"class_7 (18.3.26)/patient_struct.sol\":542:558  patient memory p */\n      0x00\n        /* \"class_7 (18.3.26)/patient_struct.sol\":561:563  P1 */\n      0x00\n        /* \"class_7 (18.3.26)/patient_struct.sol\":561:568  P1[_id] */\n      0x00\n        /* \"class_7 (18.3.26)/patient_struct.sol\":564:567  _id */\n      dup8\n        /* \"class_7 (18.3.26)/patient_struct.sol\":561:568  P1[_id] */\n      dup2\n      mstore\n      0x20\n      add\n      swap1\n      dup2\n      mstore\n      0x20\n      add\n      0x00\n      keccak256\n        /* \"class_7 (18.3.26)/patient_struct.sol\":542:568  patient memory p = P1[_id] */\n      mload(0x40)\n      dup1\n      0x80\n      add\n      0x40\n      mstore\n      swap1\n      dup2\n      0x00\n      dup3\n      add\n      sload\n      dup2\n      mstore\n      0x20\n      add\n      0x01\n      dup3\n      add\n      dup1\n      sload\n      tag_20\n      swap1\n      tag_21\n      jump\t// in\n    tag_20:\n      dup1\n      0x1f\n      add\n      0x20\n      dup1\n      swap2\n      div\n      mul\n      0x20\n      add\n      mload(0x40)\n      swap1\n      dup2\n      add\n      0x40\n      mstore\n      dup1\n      swap3\n      swap2\n      swap1\n      dup2\n      dup2\n      mstore\n      0x20\n      add\n      dup3\n      dup1\n      sload\n      tag_22\n      swap1\n      tag_21\n      jump\t// in\n    tag_22:\n      dup1\n      iszero\n      tag_23\n      jumpi\n      dup1\n      0x1f\n      lt\n      tag_24\n      jumpi\n      0x0100\n      dup1\n      dup4\n      sload\n      div\n      mul\n      dup4\n      mstore\n      swap2\n      0x20\n      add\n      swap2\n      jump(tag_23)\n    tag_24:\n      dup3\n      add\n      swap2\n      swap1\n      0x00\n      mstore\n      keccak256(0x00, 0x20)\n      swap1\n    tag_25:\n      dup2\n      sload\n      dup2\n      mstore\n      swap1\n      0x01\n      add\n      swap1\n      0x20\n      add\n      dup1\n      dup4\n      gt\n      tag_25\n      jumpi\n      dup3\n      swap1\n      sub\n      0x1f\n      and\n      dup3\n      add\n      swap2\n    tag_23:\n      pop\n      pop\n      pop\n      pop\n      pop\n      dup2\n      mstore\n      0x20\n      add\n      0x02\n      dup3\n      add\n      dup1\n      sload\n      tag_26\n      swap1\n      tag_21\n      jump\t// in\n    tag_26:\n      dup1\n      0x1f\n      add\n      0x20\n      dup1\n      swap2\n      div\n      mul\n      0x20\n      add\n      mload(0x40)\n      swap1\n      dup2\n      add\n      0x40\n      mstore\n      dup1\n      swap3\n      swap2\n      swap1\n      dup2\n      dup2\n      mstore\n      0x20\n      add\n      dup3\n      dup1\n      sload\n      tag_27\n      swap1\n      tag_21\n      jump\t// in\n    tag_27:\n      dup1\n      iszero\n      tag_28\n      jumpi\n      dup1\n      0x1f\n      lt\n      tag_29\n      jumpi\n      0x0100\n      dup1\n      dup4\n      sload\n      div\n      mul\n      dup4\n      mstore\n      swap2\n      0x20\n      add\n      swap2\n      jump(tag_28)\n    tag_29:\n      dup3\n      add\n      swap2\n      swap1\n      0x00\n      mstore\n      keccak256(0x00, 0x20)\n      swap1\n    tag_30:\n      dup2\n      sload\n      dup2\n      mstore\n      swap1\n      0x01\n      add\n      swap1\n      0x20\n      add\n      dup1\n      dup4\n      gt\n      tag_30\n      jumpi\n      dup3\n      swap1\n      sub\n      0x1f\n      and\n      dup3\n      add\n      swap2\n    tag_28:\n      pop\n      pop\n      pop\n      pop\n      pop\n      dup2\n      mstore\n      0x20\n      add\n      0x03\n      dup3\n      add\n      0x00\n      swap1\n      sload\n      swap1\n      0x0100\n      exp\n      swap1\n      div\n      0xff\n      and\n      iszero\n      iszero\n      iszero\n      iszero\n      dup2\n      mstore\n      pop\n      pop\n      swap1\n      pop\n        /* \"class_7 (18.3.26)/patient_struct.sol\":587:588  p */\n      dup1\n        /* \"class_7 (18.3.26)/patient_struct.sol\":587:591  p.id */\n      0x00\n      add\n      mload\n        /* \"class_7 (18.3.26)/patient_struct.sol\":593:594  p */\n      dup2\n        /* \"class_7 (18.3.26)/patient_struct.sol\":593:599  p.name */\n      0x20\n      add\n      mload\n        /* \"class_7 (18.3.26)/patient_struct.sol\":601:602  p */\n      dup3\n        /* \"class_7 (18.3.26)/patient_struct.sol\":601:606  p.Bio */\n      0x40\n      add\n      mload\n        /* \"class_7 (18.3.26)/patient_struct.sol\":608:609  p */\n      dup4\n        /* \"class_7 (18.3.26)/patient_struct.sol\":608:617  p.checkup */\n      0x60\n      add\n      mload\n        /* \"class_7 (18.3.26)/patient_struct.sol\":579:618  return (p.id, p.name, p.Bio, p.checkup) */\n      swap5\n      pop\n      swap5\n      pop\n      swap5\n      pop\n      swap5\n      pop\n      pop\n        /* \"class_7 (18.3.26)/patient_struct.sol\":439:626  function getDetails(uint _id) public view returns (uint, string memory, string memory, bool){... */\n      swap2\n      swap4\n      pop\n      swap2\n      swap4\n      jump\t// out\n        /* \"#utility.yul\":7:82   */\n    tag_31:\n        /* \"#utility.yul\":40:46   */\n      0x00\n        /* \"#utility.yul\":73:75   */\n      0x40\n        /* \"#utility.yul\":67:76   */\n      mload\n        /* \"#utility.yul\":57:76   */\n      swap1\n      pop\n        /* \"#utility.yul\":7:82   */\n      swap1\n      jump\t// out\n        /* \"#utility.yul\":88:205   */\n    tag_32:\n        /* \"#utility.yul\":197:198   */\n      0x00\n        /* \"#utility.yul\":194:195   */\n      0x00\n        /* \"#utility.yul\":187:199   */\n      revert\n        /* \"#utility.yul\":211:328   */\n    tag_33:\n        /* \"#utility.yul\":320:321   */\n      0x00\n        /* \"#utility.yul\":317:318   */\n      0x00\n        /* \"#utility.yul\":310:322   */\n      revert\n        /* \"#utility.yul\":334:411   */\n    tag_34:\n        /* \"#utility.yul\":371:378   */\n      0x00\n        /* \"#utility.yul\":400:405   */\n      dup2\n        /* \"#utility.yul\":389:405   */\n      swap1\n      pop\n        /* \"#utility.yul\":334:411   */\n      swap2\n      swap1\n      pop\n      jump\t// out\n        /* \"#utility.yul\":417:539   */\n    tag_35:\n        /* \"#utility.yul\":490:514   */\n      tag_78\n        /* \"#utility.yul\":508:513   */\n      dup2\n        /* \"#utility.yul\":490:514   */\n      tag_34\n      jump\t// in\n    tag_78:\n        /* \"#utility.yul\":483:488   */\n      dup2\n        /* \"#utility.yul\":480:515   */\n      eq\n        /* \"#utility.yul\":470:533   */\n      tag_79\n      jumpi\n        /* \"#utility.yul\":529:530   */\n      0x00\n        /* \"#utility.yul\":526:527   */\n      0x00\n        /* \"#utility.yul\":519:531   */\n      revert\n        /* \"#utility.yul\":470:533   */\n    tag_79:\n        /* \"#utility.yul\":417:539   */\n      pop\n      jump\t// out\n        /* \"#utility.yul\":545:684   */\n    tag_36:\n        /* \"#utility.yul\":591:596   */\n      0x00\n        /* \"#utility.yul\":629:635   */\n      dup2\n        /* \"#utility.yul\":616:636   */\n      calldataload\n        /* \"#utility.yul\":607:636   */\n      swap1\n      pop\n        /* \"#utility.yul\":645:678   */\n      tag_81\n        /* \"#utility.yul\":672:677   */\n      dup2\n        /* \"#utility.yul\":645:678   */\n      tag_35\n      jump\t// in\n    tag_81:\n        /* \"#utility.yul\":545:684   */\n      swap3\n      swap2\n      pop\n      pop\n      jump\t// out\n        /* \"#utility.yul\":690:807   */\n    tag_37:\n        /* \"#utility.yul\":799:800   */\n      0x00\n        /* \"#utility.yul\":796:797   */\n      0x00\n        /* \"#utility.yul\":789:801   */\n      revert\n        /* \"#utility.yul\":813:930   */\n    tag_38:\n        /* \"#utility.yul\":922:923   */\n      0x00\n        /* \"#utility.yul\":919:920   */\n      0x00\n        /* \"#utility.yul\":912:924   */\n      revert\n        /* \"#utility.yul\":936:1038   */\n    tag_39:\n        /* \"#utility.yul\":977:983   */\n      0x00\n        /* \"#utility.yul\":1028:1030   */\n      0x1f\n        /* \"#utility.yul\":1024:1031   */\n      not\n        /* \"#utility.yul\":1019:1021   */\n      0x1f\n        /* \"#utility.yul\":1012:1017   */\n      dup4\n        /* \"#utility.yul\":1008:1022   */\n      add\n        /* \"#utility.yul\":1004:1032   */\n      and\n        /* \"#utility.yul\":994:1032   */\n      swap1\n      pop\n        /* \"#utility.yul\":936:1038   */\n      swap2\n      swap1\n      pop\n      jump\t// out\n        /* \"#utility.yul\":1044:1224   */\n    tag_40:\n        /* \"#utility.yul\":1092:1169   */\n      0x4e487b7100000000000000000000000000000000000000000000000000000000\n        /* \"#utility.yul\":1089:1090   */\n      0x00\n        /* \"#utility.yul\":1082:1170   */\n      mstore\n        /* \"#utility.yul\":1189:1193   */\n      0x41\n        /* \"#utility.yul\":1186:1187   */\n      0x04\n        /* \"#utility.yul\":1179:1194   */\n      mstore\n        /* \"#utility.yul\":1213:1217   */\n      0x24\n        /* \"#utility.yul\":1210:1211   */\n      0x00\n        /* \"#utility.yul\":1203:1218   */\n      revert\n        /* \"#utility.yul\":1230:1511   */\n    tag_41:\n        /* \"#utility.yul\":1313:1340   */\n      tag_87\n        /* \"#utility.yul\":1335:1339   */\n      dup3\n        /* \"#utility.yul\":1313:1340   */\n      tag_39\n      jump\t// in\n    tag_87:\n        /* \"#utility.yul\":1305:1311   */\n      dup2\n        /* \"#utility.yul\":1301:1341   */\n      add\n        /* \"#utility.yul\":1443:1449   */\n      dup2\n        /* \"#utility.yul\":1431:1441   */\n      dup2\n        /* \"#utility.yul\":1428:1450   */\n      lt\n        /* \"#utility.yul\":1407:1425   */\n      0xffffffffffffffff\n        /* \"#utility.yul\":1395:1405   */\n      dup3\n        /* \"#utility.yul\":1392:1426   */\n      gt\n        /* \"#utility.yul\":1389:1451   */\n      or\n        /* \"#utility.yul\":1386:1474   */\n      iszero\n      tag_88\n      jumpi\n        /* \"#utility.yul\":1454:1472   */\n      tag_89\n      tag_40\n      jump\t// in\n    tag_89:\n        /* \"#utility.yul\":1386:1474   */\n    tag_88:\n        /* \"#utility.yul\":1494:1504   */\n      dup1\n        /* \"#utility.yul\":1490:1492   */\n      0x40\n        /* \"#utility.yul\":1483:1505   */\n      mstore\n        /* \"#utility.yul\":1273:1511   */\n      pop\n        /* \"#utility.yul\":1230:1511   */\n      pop\n      pop\n      jump\t// out\n        /* \"#utility.yul\":1517:1646   */\n    tag_42:\n        /* \"#utility.yul\":1551:1557   */\n      0x00\n        /* \"#utility.yul\":1578:1598   */\n      tag_91\n      tag_31\n      jump\t// in\n    tag_91:\n        /* \"#utility.yul\":1568:1598   */\n      swap1\n      pop\n        /* \"#utility.yul\":1607:1640   */\n      tag_92\n        /* \"#utility.yul\":1635:1639   */\n      dup3\n        /* \"#utility.yul\":1627:1633   */\n      dup3\n        /* \"#utility.yul\":1607:1640   */\n      tag_41\n      jump\t// in\n    tag_92:\n        /* \"#utility.yul\":1517:1646   */\n      swap2\n      swap1\n      pop\n      jump\t// out\n        /* \"#utility.yul\":1652:1960   */\n    tag_43:\n        /* \"#utility.yul\":1714:1718   */\n      0x00\n        /* \"#utility.yul\":1804:1822   */\n      0xffffffffffffffff\n        /* \"#utility.yul\":1796:1802   */\n      dup3\n        /* \"#utility.yul\":1793:1823   */\n      gt\n        /* \"#utility.yul\":1790:1846   */\n      iszero\n      tag_94\n      jumpi\n        /* \"#utility.yul\":1826:1844   */\n      tag_95\n      tag_40\n      jump\t// in\n    tag_95:\n        /* \"#utility.yul\":1790:1846   */\n    tag_94:\n        /* \"#utility.yul\":1864:1893   */\n      tag_96\n        /* \"#utility.yul\":1886:1892   */\n      dup3\n        /* \"#utility.yul\":1864:1893   */\n      tag_39\n      jump\t// in\n    tag_96:\n        /* \"#utility.yul\":1856:1893   */\n      swap1\n      pop\n        /* \"#utility.yul\":1948:1952   */\n      0x20\n        /* \"#utility.yul\":1942:1946   */\n      dup2\n        /* \"#utility.yul\":1938:1953   */\n      add\n        /* \"#utility.yul\":1930:1953   */\n      swap1\n      pop\n        /* \"#utility.yul\":1652:1960   */\n      swap2\n      swap1\n      pop\n      jump\t// out\n        /* \"#utility.yul\":1966:2114   */\n    tag_44:\n        /* \"#utility.yul\":2064:2070   */\n      dup3\n        /* \"#utility.yul\":2059:2062   */\n      dup2\n        /* \"#utility.yul\":2054:2057   */\n      dup4\n        /* \"#utility.yul\":2041:2071   */\n      calldatacopy\n        /* \"#utility.yul\":2105:2106   */\n      0x00\n        /* \"#utility.yul\":2096:2102   */\n      dup4\n        /* \"#utility.yul\":2091:2094   */\n      dup4\n        /* \"#utility.yul\":2087:2103   */\n      add\n        /* \"#utility.yul\":2080:2107   */\n      mstore\n        /* \"#utility.yul\":1966:2114   */\n      pop\n      pop\n      pop\n      jump\t// out\n        /* \"#utility.yul\":2120:2545   */\n    tag_45:\n        /* \"#utility.yul\":2198:2203   */\n      0x00\n        /* \"#utility.yul\":2223:2289   */\n      tag_99\n        /* \"#utility.yul\":2239:2288   */\n      tag_100\n        /* \"#utility.yul\":2281:2287   */\n      dup5\n        /* \"#utility.yul\":2239:2288   */\n      tag_43\n      jump\t// in\n    tag_100:\n        /* \"#utility.yul\":2223:2289   */\n      tag_42\n      jump\t// in\n    tag_99:\n        /* \"#utility.yul\":2214:2289   */\n      swap1\n      pop\n        /* \"#utility.yul\":2312:2318   */\n      dup3\n        /* \"#utility.yul\":2305:2310   */\n      dup2\n        /* \"#utility.yul\":2298:2319   */\n      mstore\n        /* \"#utility.yul\":2350:2354   */\n      0x20\n        /* \"#utility.yul\":2343:2348   */\n      dup2\n        /* \"#utility.yul\":2339:2355   */\n      add\n        /* \"#utility.yul\":2388:2391   */\n      dup5\n        /* \"#utility.yul\":2379:2385   */\n      dup5\n        /* \"#utility.yul\":2374:2377   */\n      dup5\n        /* \"#utility.yul\":2370:2386   */\n      add\n        /* \"#utility.yul\":2367:2392   */\n      gt\n        /* \"#utility.yul\":2364:2476   */\n      iszero\n      tag_101\n      jumpi\n        /* \"#utility.yul\":2395:2474   */\n      tag_102\n      tag_38\n      jump\t// in\n    tag_102:\n        /* \"#utility.yul\":2364:2476   */\n    tag_101:\n        /* \"#utility.yul\":2485:2539   */\n      tag_103\n        /* \"#utility.yul\":2532:2538   */\n      dup5\n        /* \"#utility.yul\":2527:2530   */\n      dup3\n        /* \"#utility.yul\":2522:2525   */\n      dup6\n        /* \"#utility.yul\":2485:2539   */\n      tag_44\n      jump\t// in\n    tag_103:\n        /* \"#utility.yul\":2204:2545   */\n      pop\n        /* \"#utility.yul\":2120:2545   */\n      swap4\n      swap3\n      pop\n      pop\n      pop\n      jump\t// out\n        /* \"#utility.yul\":2565:2905   */\n    tag_46:\n        /* \"#utility.yul\":2621:2626   */\n      0x00\n        /* \"#utility.yul\":2670:2673   */\n      dup3\n        /* \"#utility.yul\":2663:2667   */\n      0x1f\n        /* \"#utility.yul\":2655:2661   */\n      dup4\n        /* \"#utility.yul\":2651:2668   */\n      add\n        /* \"#utility.yul\":2647:2674   */\n      slt\n        /* \"#utility.yul\":2637:2759   */\n      tag_105\n      jumpi\n        /* \"#utility.yul\":2678:2757   */\n      tag_106\n      tag_37\n      jump\t// in\n    tag_106:\n        /* \"#utility.yul\":2637:2759   */\n    tag_105:\n        /* \"#utility.yul\":2795:2801   */\n      dup2\n        /* \"#utility.yul\":2782:2802   */\n      calldataload\n        /* \"#utility.yul\":2820:2899   */\n      tag_107\n        /* \"#utility.yul\":2895:2898   */\n      dup5\n        /* \"#utility.yul\":2887:2893   */\n      dup3\n        /* \"#utility.yul\":2880:2884   */\n      0x20\n        /* \"#utility.yul\":2872:2878   */\n      dup7\n        /* \"#utility.yul\":2868:2885   */\n      add\n        /* \"#utility.yul\":2820:2899   */\n      tag_45\n      jump\t// in\n    tag_107:\n        /* \"#utility.yul\":2811:2899   */\n      swap2\n      pop\n        /* \"#utility.yul\":2627:2905   */\n      pop\n        /* \"#utility.yul\":2565:2905   */\n      swap3\n      swap2\n      pop\n      pop\n      jump\t// out\n        /* \"#utility.yul\":2911:3001   */\n    tag_47:\n        /* \"#utility.yul\":2945:2952   */\n      0x00\n        /* \"#utility.yul\":2988:2993   */\n      dup2\n        /* \"#utility.yul\":2981:2994   */\n      iszero\n        /* \"#utility.yul\":2974:2995   */\n      iszero\n        /* \"#utility.yul\":2963:2995   */\n      swap1\n      pop\n        /* \"#utility.yul\":2911:3001   */\n      swap2\n      swap1\n      pop\n      jump\t// out\n        /* \"#utility.yul\":3007:3123   */\n    tag_48:\n        /* \"#utility.yul\":3077:3098   */\n      tag_110\n        /* \"#utility.yul\":3092:3097   */\n      dup2\n        /* \"#utility.yul\":3077:3098   */\n      tag_47\n      jump\t// in\n    tag_110:\n        /* \"#utility.yul\":3070:3075   */\n      dup2\n        /* \"#utility.yul\":3067:3099   */\n      eq\n        /* \"#utility.yul\":3057:3117   */\n      tag_111\n      jumpi\n        /* \"#utility.yul\":3113:3114   */\n      0x00\n        /* \"#utility.yul\":3110:3111   */\n      0x00\n        /* \"#utility.yul\":3103:3115   */\n      revert\n        /* \"#utility.yul\":3057:3117   */\n    tag_111:\n        /* \"#utility.yul\":3007:3123   */\n      pop\n      jump\t// out\n        /* \"#utility.yul\":3129:3262   */\n    tag_49:\n        /* \"#utility.yul\":3172:3177   */\n      0x00\n        /* \"#utility.yul\":3210:3216   */\n      dup2\n        /* \"#utility.yul\":3197:3217   */\n      calldataload\n        /* \"#utility.yul\":3188:3217   */\n      swap1\n      pop\n        /* \"#utility.yul\":3226:3256   */\n      tag_113\n        /* \"#utility.yul\":3250:3255   */\n      dup2\n        /* \"#utility.yul\":3226:3256   */\n      tag_48\n      jump\t// in\n    tag_113:\n        /* \"#utility.yul\":3129:3262   */\n      swap3\n      swap2\n      pop\n      pop\n      jump\t// out\n        /* \"#utility.yul\":3268:4387   */\n    tag_7:\n        /* \"#utility.yul\":3371:3377   */\n      0x00\n        /* \"#utility.yul\":3379:3385   */\n      0x00\n        /* \"#utility.yul\":3387:3393   */\n      0x00\n        /* \"#utility.yul\":3395:3401   */\n      0x00\n        /* \"#utility.yul\":3444:3447   */\n      0x80\n        /* \"#utility.yul\":3432:3441   */\n      dup6\n        /* \"#utility.yul\":3423:3430   */\n      dup8\n        /* \"#utility.yul\":3419:3442   */\n      sub\n        /* \"#utility.yul\":3415:3448   */\n      slt\n        /* \"#utility.yul\":3412:3532   */\n      iszero\n      tag_115\n      jumpi\n        /* \"#utility.yul\":3451:3530   */\n      tag_116\n      tag_32\n      jump\t// in\n    tag_116:\n        /* \"#utility.yul\":3412:3532   */\n    tag_115:\n        /* \"#utility.yul\":3571:3572   */\n      0x00\n        /* \"#utility.yul\":3596:3649   */\n      tag_117\n        /* \"#utility.yul\":3641:3648   */\n      dup8\n        /* \"#utility.yul\":3632:3638   */\n      dup3\n        /* \"#utility.yul\":3621:3630   */\n      dup9\n        /* \"#utility.yul\":3617:3639   */\n      add\n        /* \"#utility.yul\":3596:3649   */\n      tag_36\n      jump\t// in\n    tag_117:\n        /* \"#utility.yul\":3586:3649   */\n      swap5\n      pop\n        /* \"#utility.yul\":3542:3659   */\n      pop\n        /* \"#utility.yul\":3726:3728   */\n      0x20\n        /* \"#utility.yul\":3715:3724   */\n      dup6\n        /* \"#utility.yul\":3711:3729   */\n      add\n        /* \"#utility.yul\":3698:3730   */\n      calldataload\n        /* \"#utility.yul\":3757:3775   */\n      0xffffffffffffffff\n        /* \"#utility.yul\":3749:3755   */\n      dup2\n        /* \"#utility.yul\":3746:3776   */\n      gt\n        /* \"#utility.yul\":3743:3860   */\n      iszero\n      tag_118\n      jumpi\n        /* \"#utility.yul\":3779:3858   */\n      tag_119\n      tag_33\n      jump\t// in\n    tag_119:\n        /* \"#utility.yul\":3743:3860   */\n    tag_118:\n        /* \"#utility.yul\":3884:3947   */\n      tag_120\n        /* \"#utility.yul\":3939:3946   */\n      dup8\n        /* \"#utility.yul\":3930:3936   */\n      dup3\n        /* \"#utility.yul\":3919:3928   */\n      dup9\n        /* \"#utility.yul\":3915:3937   */\n      add\n        /* \"#utility.yul\":3884:3947   */\n      tag_46\n      jump\t// in\n    tag_120:\n        /* \"#utility.yul\":3874:3947   */\n      swap4\n      pop\n        /* \"#utility.yul\":3669:3957   */\n      pop\n        /* \"#utility.yul\":4024:4026   */\n      0x40\n        /* \"#utility.yul\":4013:4022   */\n      dup6\n        /* \"#utility.yul\":4009:4027   */\n      add\n        /* \"#utility.yul\":3996:4028   */\n      calldataload\n        /* \"#utility.yul\":4055:4073   */\n      0xffffffffffffffff\n        /* \"#utility.yul\":4047:4053   */\n      dup2\n        /* \"#utility.yul\":4044:4074   */\n      gt\n        /* \"#utility.yul\":4041:4158   */\n      iszero\n      tag_121\n      jumpi\n        /* \"#utility.yul\":4077:4156   */\n      tag_122\n      tag_33\n      jump\t// in\n    tag_122:\n        /* \"#utility.yul\":4041:4158   */\n    tag_121:\n        /* \"#utility.yul\":4182:4245   */\n      tag_123\n        /* \"#utility.yul\":4237:4244   */\n      dup8\n        /* \"#utility.yul\":4228:4234   */\n      dup3\n        /* \"#utility.yul\":4217:4226   */\n      dup9\n        /* \"#utility.yul\":4213:4235   */\n      add\n        /* \"#utility.yul\":4182:4245   */\n      tag_46\n      jump\t// in\n    tag_123:\n        /* \"#utility.yul\":4172:4245   */\n      swap3\n      pop\n        /* \"#utility.yul\":3967:4255   */\n      pop\n        /* \"#utility.yul\":4294:4296   */\n      0x60\n        /* \"#utility.yul\":4320:4370   */\n      tag_124\n        /* \"#utility.yul\":4362:4369   */\n      dup8\n        /* \"#utility.yul\":4353:4359   */\n      dup3\n        /* \"#utility.yul\":4342:4351   */\n      dup9\n        /* \"#utility.yul\":4338:4360   */\n      add\n        /* \"#utility.yul\":4320:4370   */\n      tag_49\n      jump\t// in\n    tag_124:\n        /* \"#utility.yul\":4310:4370   */\n      swap2\n      pop\n        /* \"#utility.yul\":4265:4380   */\n      pop\n        /* \"#utility.yul\":3268:4387   */\n      swap3\n      swap6\n      swap2\n      swap5\n      pop\n      swap3\n      pop\n      jump\t// out\n        /* \"#utility.yul\":4393:4722   */\n    tag_11:\n        /* \"#utility.yul\":4452:4458   */\n      0x00\n        /* \"#utility.yul\":4501:4503   */\n      0x20\n        /* \"#utility.yul\":4489:4498   */\n      dup3\n        /* \"#utility.yul\":4480:4487   */\n      dup5\n        /* \"#utility.yul\":4476:4499   */\n      sub\n        /* \"#utility.yul\":4472:4504   */\n      slt\n        /* \"#utility.yul\":4469:4588   */\n      iszero\n      tag_126\n      jumpi\n        /* \"#utility.yul\":4507:4586   */\n      tag_127\n      tag_32\n      jump\t// in\n    tag_127:\n        /* \"#utility.yul\":4469:4588   */\n    tag_126:\n        /* \"#utility.yul\":4627:4628   */\n      0x00\n        /* \"#utility.yul\":4652:4705   */\n      tag_128\n        /* \"#utility.yul\":4697:4704   */\n      dup5\n        /* \"#utility.yul\":4688:4694   */\n      dup3\n        /* \"#utility.yul\":4677:4686   */\n      dup6\n        /* \"#utility.yul\":4673:4695   */\n      add\n        /* \"#utility.yul\":4652:4705   */\n      tag_36\n      jump\t// in\n    tag_128:\n        /* \"#utility.yul\":4642:4705   */\n      swap2\n      pop\n        /* \"#utility.yul\":4598:4715   */\n      pop\n        /* \"#utility.yul\":4393:4722   */\n      swap3\n      swap2\n      pop\n      pop\n      jump\t// out\n        /* \"#utility.yul\":4728:4846   */\n    tag_50:\n        /* \"#utility.yul\":4815:4839   */\n      tag_130\n        /* \"#utility.yul\":4833:4838   */\n      dup2\n        /* \"#utility.yul\":4815:4839   */\n      tag_34\n      jump\t// in\n    tag_130:\n        /* \"#utility.yul\":4810:4813   */\n      dup3\n        /* \"#utility.yul\":4803:4840   */\n      mstore\n        /* \"#utility.yul\":4728:4846   */\n      pop\n      pop\n      jump\t// out\n        /* \"#utility.yul\":4852:4951   */\n    tag_51:\n        /* \"#utility.yul\":4904:4910   */\n      0x00\n        /* \"#utility.yul\":4938:4943   */\n      dup2\n        /* \"#utility.yul\":4932:4944   */\n      mload\n        /* \"#utility.yul\":4922:4944   */\n      swap1\n      pop\n        /* \"#utility.yul\":4852:4951   */\n      swap2\n      swap1\n      pop\n      jump\t// out\n        /* \"#utility.yul\":4957:5126   */\n    tag_52:\n        /* \"#utility.yul\":5041:5052   */\n      0x00\n        /* \"#utility.yul\":5075:5081   */\n      dup3\n        /* \"#utility.yul\":5070:5073   */\n      dup3\n        /* \"#utility.yul\":5063:5082   */\n      mstore\n        /* \"#utility.yul\":5115:5119   */\n      0x20\n        /* \"#utility.yul\":5110:5113   */\n      dup3\n        /* \"#utility.yul\":5106:5120   */\n      add\n        /* \"#utility.yul\":5091:5120   */\n      swap1\n      pop\n        /* \"#utility.yul\":4957:5126   */\n      swap3\n      swap2\n      pop\n      pop\n      jump\t// out\n        /* \"#utility.yul\":5132:5271   */\n    tag_53:\n        /* \"#utility.yul\":5221:5227   */\n      dup3\n        /* \"#utility.yul\":5216:5219   */\n      dup2\n        /* \"#utility.yul\":5211:5214   */\n      dup4\n        /* \"#utility.yul\":5205:5228   */\n      mcopy\n        /* \"#utility.yul\":5262:5263   */\n      0x00\n        /* \"#utility.yul\":5253:5259   */\n      dup4\n        /* \"#utility.yul\":5248:5251   */\n      dup4\n        /* \"#utility.yul\":5244:5260   */\n      add\n        /* \"#utility.yul\":5237:5264   */\n      mstore\n        /* \"#utility.yul\":5132:5271   */\n      pop\n      pop\n      pop\n      jump\t// out\n        /* \"#utility.yul\":5277:5654   */\n    tag_54:\n        /* \"#utility.yul\":5365:5368   */\n      0x00\n        /* \"#utility.yul\":5393:5432   */\n      tag_135\n        /* \"#utility.yul\":5426:5431   */\n      dup3\n        /* \"#utility.yul\":5393:5432   */\n      tag_51\n      jump\t// in\n    tag_135:\n        /* \"#utility.yul\":5448:5519   */\n      tag_136\n        /* \"#utility.yul\":5512:5518   */\n      dup2\n        /* \"#utility.yul\":5507:5510   */\n      dup6\n        /* \"#utility.yul\":5448:5519   */\n      tag_52\n      jump\t// in\n    tag_136:\n        /* \"#utility.yul\":5441:5519   */\n      swap4\n      pop\n        /* \"#utility.yul\":5528:5593   */\n      tag_137\n        /* \"#utility.yul\":5586:5592   */\n      dup2\n        /* \"#utility.yul\":5581:5584   */\n      dup6\n        /* \"#utility.yul\":5574:5578   */\n      0x20\n        /* \"#utility.yul\":5567:5572   */\n      dup7\n        /* \"#utility.yul\":5563:5579   */\n      add\n        /* \"#utility.yul\":5528:5593   */\n      tag_53\n      jump\t// in\n    tag_137:\n        /* \"#utility.yul\":5618:5647   */\n      tag_138\n        /* \"#utility.yul\":5640:5646   */\n      dup2\n        /* \"#utility.yul\":5618:5647   */\n      tag_39\n      jump\t// in\n    tag_138:\n        /* \"#utility.yul\":5613:5616   */\n      dup5\n        /* \"#utility.yul\":5609:5648   */\n      add\n        /* \"#utility.yul\":5602:5648   */\n      swap2\n      pop\n        /* \"#utility.yul\":5369:5654   */\n      pop\n        /* \"#utility.yul\":5277:5654   */\n      swap3\n      swap2\n      pop\n      pop\n      jump\t// out\n        /* \"#utility.yul\":5660:5769   */\n    tag_55:\n        /* \"#utility.yul\":5741:5762   */\n      tag_140\n        /* \"#utility.yul\":5756:5761   */\n      dup2\n        /* \"#utility.yul\":5741:5762   */\n      tag_47\n      jump\t// in\n    tag_140:\n        /* \"#utility.yul\":5736:5739   */\n      dup3\n        /* \"#utility.yul\":5729:5763   */\n      mstore\n        /* \"#utility.yul\":5660:5769   */\n      pop\n      pop\n      jump\t// out\n        /* \"#utility.yul\":5775:6498   */\n    tag_14:\n        /* \"#utility.yul\":5986:5990   */\n      0x00\n        /* \"#utility.yul\":6024:6027   */\n      0x80\n        /* \"#utility.yul\":6013:6022   */\n      dup3\n        /* \"#utility.yul\":6009:6028   */\n      add\n        /* \"#utility.yul\":6001:6028   */\n      swap1\n      pop\n        /* \"#utility.yul\":6038:6109   */\n      tag_142\n        /* \"#utility.yul\":6106:6107   */\n      0x00\n        /* \"#utility.yul\":6095:6104   */\n      dup4\n        /* \"#utility.yul\":6091:6108   */\n      add\n        /* \"#utility.yul\":6082:6088   */\n      dup8\n        /* \"#utility.yul\":6038:6109   */\n      tag_50\n      jump\t// in\n    tag_142:\n        /* \"#utility.yul\":6156:6165   */\n      dup2\n        /* \"#utility.yul\":6150:6154   */\n      dup2\n        /* \"#utility.yul\":6146:6166   */\n      sub\n        /* \"#utility.yul\":6141:6143   */\n      0x20\n        /* \"#utility.yul\":6130:6139   */\n      dup4\n        /* \"#utility.yul\":6126:6144   */\n      add\n        /* \"#utility.yul\":6119:6167   */\n      mstore\n        /* \"#utility.yul\":6184:6262   */\n      tag_143\n        /* \"#utility.yul\":6257:6261   */\n      dup2\n        /* \"#utility.yul\":6248:6254   */\n      dup7\n        /* \"#utility.yul\":6184:6262   */\n      tag_54\n      jump\t// in\n    tag_143:\n        /* \"#utility.yul\":6176:6262   */\n      swap1\n      pop\n        /* \"#utility.yul\":6309:6318   */\n      dup2\n        /* \"#utility.yul\":6303:6307   */\n      dup2\n        /* \"#utility.yul\":6299:6319   */\n      sub\n        /* \"#utility.yul\":6294:6296   */\n      0x40\n        /* \"#utility.yul\":6283:6292   */\n      dup4\n        /* \"#utility.yul\":6279:6297   */\n      add\n        /* \"#utility.yul\":6272:6320   */\n      mstore\n        /* \"#utility.yul\":6337:6415   */\n      tag_144\n        /* \"#utility.yul\":6410:6414   */\n      dup2\n        /* \"#utility.yul\":6401:6407   */\n      dup6\n        /* \"#utility.yul\":6337:6415   */\n      tag_54\n      jump\t// in\n    tag_144:\n        /* \"#utility.yul\":6329:6415   */\n      swap1\n      pop\n        /* \"#utility.yul\":6425:6491   */\n      tag_145\n        /* \"#utility.yul\":6487:6489   */\n      0x60\n        /* \"#utility.yul\":6476:6485   */\n      dup4\n        /* \"#utility.yul\":6472:6490   */\n      add\n        /* \"#utility.yul\":6463:6469   */\n      dup5\n        /* \"#utility.yul\":6425:6491   */\n      tag_55\n      jump\t// in\n    tag_145:\n        /* \"#utility.yul\":5775:6498   */\n      swap6\n      swap5\n      pop\n      pop\n      pop\n      pop\n      pop\n      jump\t// out\n        /* \"#utility.yul\":6504:6684   */\n    tag_56:\n        /* \"#utility.yul\":6552:6629   */\n      0x4e487b7100000000000000000000000000000000000000000000000000000000\n        /* \"#utility.yul\":6549:6550   */\n      0x00\n        /* \"#utility.yul\":6542:6630   */\n      mstore\n        /* \"#utility.yul\":6649:6653   */\n      0x22\n        /* \"#utility.yul\":6646:6647   */\n      0x04\n        /* \"#utility.yul\":6639:6654   */\n      mstore\n        /* \"#utility.yul\":6673:6677   */\n      0x24\n        /* \"#utility.yul\":6670:6671   */\n      0x00\n        /* \"#utility.yul\":6663:6678   */\n      revert\n        /* \"#utility.yul\":6690:7010   */\n    tag_21:\n        /* \"#utility.yul\":6734:6740   */\n      0x00\n        /* \"#utility.yul\":6771:6772   */\n      0x02\n        /* \"#utility.yul\":6765:6769   */\n      dup3\n        /* \"#utility.yul\":6761:6773   */\n      div\n        /* \"#utility.yul\":6751:6773   */\n      swap1\n      pop\n        /* \"#utility.yul\":6818:6819   */\n      0x01\n        /* \"#utility.yul\":6812:6816   */\n      dup3\n        /* \"#utility.yul\":6808:6820   */\n      and\n        /* \"#utility.yul\":6839:6857   */\n      dup1\n        /* \"#utility.yul\":6829:6910   */\n      tag_148\n      jumpi\n        /* \"#utility.yul\":6895:6899   */\n      0x7f\n        /* \"#utility.yul\":6887:6893   */\n      dup3\n        /* \"#utility.yul\":6883:6900   */\n      and\n        /* \"#utility.yul\":6873:6900   */\n      swap2\n      pop\n        /* \"#utility.yul\":6829:6910   */\n    tag_148:\n        /* \"#utility.yul\":6957:6959   */\n      0x20\n        /* \"#utility.yul\":6949:6955   */\n      dup3\n        /* \"#utility.yul\":6946:6960   */\n      lt\n        /* \"#utility.yul\":6926:6944   */\n      dup2\n        /* \"#utility.yul\":6923:6961   */\n      sub\n        /* \"#utility.yul\":6920:7004   */\n      tag_149\n      jumpi\n        /* \"#utility.yul\":6976:6994   */\n      tag_150\n      tag_56\n      jump\t// in\n    tag_150:\n        /* \"#utility.yul\":6920:7004   */\n    tag_149:\n        /* \"#utility.yul\":6741:7010   */\n      pop\n        /* \"#utility.yul\":6690:7010   */\n      swap2\n      swap1\n      pop\n      jump\t// out\n        /* \"#utility.yul\":7016:7157   */\n    tag_57:\n        /* \"#utility.yul\":7065:7069   */\n      0x00\n        /* \"#utility.yul\":7088:7091   */\n      dup2\n        /* \"#utility.yul\":7080:7091   */\n      swap1\n      pop\n        /* \"#utility.yul\":7111:7114   */\n      dup2\n        /* \"#utility.yul\":7108:7109   */\n      0x00\n        /* \"#utility.yul\":7101:7115   */\n      mstore\n        /* \"#utility.yul\":7145:7149   */\n      0x20\n        /* \"#utility.yul\":7142:7143   */\n      0x00\n        /* \"#utility.yul\":7132:7150   */\n      keccak256\n        /* \"#utility.yul\":7124:7150   */\n      swap1\n      pop\n        /* \"#utility.yul\":7016:7157   */\n      swap2\n      swap1\n      pop\n      jump\t// out\n        /* \"#utility.yul\":7163:7256   */\n    tag_58:\n        /* \"#utility.yul\":7200:7206   */\n      0x00\n        /* \"#utility.yul\":7247:7249   */\n      0x20\n        /* \"#utility.yul\":7242:7244   */\n      0x1f\n        /* \"#utility.yul\":7235:7240   */\n      dup4\n        /* \"#utility.yul\":7231:7245   */\n      add\n        /* \"#utility.yul\":7227:7250   */\n      div\n        /* \"#utility.yul\":7217:7250   */\n      swap1\n      pop\n        /* \"#utility.yul\":7163:7256   */\n      swap2\n      swap1\n      pop\n      jump\t// out\n        /* \"#utility.yul\":7262:7369   */\n    tag_59:\n        /* \"#utility.yul\":7306:7314   */\n      0x00\n        /* \"#utility.yul\":7356:7361   */\n      dup3\n        /* \"#utility.yul\":7350:7354   */\n      dup3\n        /* \"#utility.yul\":7346:7362   */\n      shl\n        /* \"#utility.yul\":7325:7362   */\n      swap1\n      pop\n        /* \"#utility.yul\":7262:7369   */\n      swap3\n      swap2\n      pop\n      pop\n      jump\t// out\n        /* \"#utility.yul\":7375:7768   */\n    tag_60:\n        /* \"#utility.yul\":7444:7450   */\n      0x00\n        /* \"#utility.yul\":7494:7495   */\n      0x08\n        /* \"#utility.yul\":7482:7492   */\n      dup4\n        /* \"#utility.yul\":7478:7496   */\n      mul\n        /* \"#utility.yul\":7517:7614   */\n      tag_155\n        /* \"#utility.yul\":7547:7613   */\n      0xffffffffffffffffffffffffffffffffffffffffffffffffffffffffffffffff\n        /* \"#utility.yul\":7536:7545   */\n      dup3\n        /* \"#utility.yul\":7517:7614   */\n      tag_59\n      jump\t// in\n    tag_155:\n        /* \"#utility.yul\":7635:7674   */\n      tag_156\n        /* \"#utility.yul\":7665:7673   */\n      dup7\n        /* \"#utility.yul\":7654:7663   */\n      dup4\n        /* \"#utility.yul\":7635:7674   */\n      tag_59\n      jump\t// in\n    tag_156:\n        /* \"#utility.yul\":7623:7674   */\n      swap6\n      pop\n        /* \"#utility.yul\":7707:7711   */\n      dup1\n        /* \"#utility.yul\":7703:7712   */\n      not\n        /* \"#utility.yul\":7696:7701   */\n      dup5\n        /* \"#utility.yul\":7692:7713   */\n      and\n        /* \"#utility.yul\":7683:7713   */\n      swap4\n      pop\n        /* \"#utility.yul\":7756:7760   */\n      dup1\n        /* \"#utility.yul\":7746:7754   */\n      dup7\n        /* \"#utility.yul\":7742:7761   */\n      and\n        /* \"#utility.yul\":7735:7740   */\n      dup5\n        /* \"#utility.yul\":7732:7762   */\n      or\n        /* \"#utility.yul\":7722:7762   */\n      swap3\n      pop\n        /* \"#utility.yul\":7451:7768   */\n      pop\n      pop\n        /* \"#utility.yul\":7375:7768   */\n      swap4\n      swap3\n      pop\n      pop\n      pop\n      jump\t// out\n        /* \"#utility.yul\":7774:7834   */\n    tag_61:\n        /* \"#utility.yul\":7802:7805   */\n      0x00\n        /* \"#utility.yul\":7823:7828   */\n      dup2\n        /* \"#utility.yul\":7816:7828   */\n      swap1\n      pop\n        /* \"#utility.yul\":7774:7834   */\n      swap2\n      swap1\n      pop\n      jump\t// out\n        /* \"#utility.yul\":7840:7982   */\n    tag_62:\n        /* \"#utility.yul\":7890:7899   */\n      0x00\n        /* \"#utility.yul\":7923:7976   */\n      tag_159\n        /* \"#utility.yul\":7941:7975   */\n      tag_160\n        /* \"#utility.yul\":7950:7974   */\n      tag_161\n        /* \"#utility.yul\":7968:7973   */\n      dup5\n        /* \"#utility.yul\":7950:7974   */\n      tag_34\n      jump\t// in\n    tag_161:\n        /* \"#utility.yul\":7941:7975   */\n      tag_61\n      jump\t// in\n    tag_160:\n        /* \"#utility.yul\":7923:7976   */\n      tag_34\n      jump\t// in\n    tag_159:\n        /* \"#utility.yul\":7910:7976   */\n      swap1\n      pop\n        /* \"#utility.yul\":7840:7982   */\n      swap2\n      swap1\n      pop\n      jump\t// out\n        /* \"#utility.yul\":7988:8063   */\n    tag_63:\n        /* \"#utility.yul\":8031:8034   */\n      0x00\n        /* \"#utility.yul\":8052:8057   */\n      dup2\n        /* \"#utility.yul\":8045:8057   */\n      swap1\n      pop\n        /* \"#utility.yul\":7988:8063   */\n      swap2\n      swap1\n      pop\n      jump\t// out\n        /* \"#utility.yul\":8069:8338   */\n    tag_64:\n        /* \"#utility.yul\":8179:8218   */\n      tag_164\n        /* \"#utility.yul\":8210:8217   */\n      dup4\n        /* \"#utility.yul\":8179:8218   */\n      tag_62\n      jump\t// in\n    tag_164:\n        /* \"#utility.yul\":8240:8331   */\n      tag_165\n        /* \"#utility.yul\":8289:8330   */\n      tag_166\n        /* \"#utility.yul\":8313:8329   */\n      dup3\n        /* \"#utility.yul\":8289:8330   */\n      tag_63\n      jump\t// in\n    tag_166:\n        /* \"#utility.yul\":8281:8287   */\n      dup5\n        /* \"#utility.yul\":8274:8278   */\n      dup5\n        /* \"#utility.yul\":8268:8279   */\n      sload\n        /* \"#utility.yul\":8240:8331   */\n      tag_60\n      jump\t// in\n    tag_165:\n        /* \"#utility.yul\":8234:8238   */\n      dup3\n        /* \"#utility.yul\":8227:8332   */\n      sstore\n        /* \"#utility.yul\":8145:8338   */\n      pop\n        /* \"#utility.yul\":8069:8338   */\n      pop\n      pop\n      pop\n      jump\t// out\n        /* \"#utility.yul\":8344:8417   */\n    tag_65:\n        /* \"#utility.yul\":8389:8392   */\n      0x00\n        /* \"#utility.yul\":8410:8411   */\n      0x00\n        /* \"#utility.yul\":8403:8411   */\n      swap1\n      pop\n        /* \"#utility.yul\":8344:8417   */\n      swap1\n      jump\t// out\n        /* \"#utility.yul\":8423:8612   */\n    tag_66:\n        /* \"#utility.yul\":8500:8532   */\n      tag_169\n      tag_65\n      jump\t// in\n    tag_169:\n        /* \"#utility.yul\":8541:8606   */\n      tag_170\n        /* \"#utility.yul\":8599:8605   */\n      dup2\n        /* \"#utility.yul\":8591:8597   */\n      dup5\n        /* \"#utility.yul\":8585:8589   */\n      dup5\n        /* \"#utility.yul\":8541:8606   */\n      tag_64\n      jump\t// in\n    tag_170:\n        /* \"#utility.yul\":8476:8612   */\n      pop\n        /* \"#utility.yul\":8423:8612   */\n      pop\n      pop\n      jump\t// out\n        /* \"#utility.yul\":8618:8804   */\n    tag_67:\n        /* \"#utility.yul\":8678:8798   */\n    tag_172:\n        /* \"#utility.yul\":8695:8698   */\n      dup2\n        /* \"#utility.yul\":8688:8693   */\n      dup2\n        /* \"#utility.yul\":8685:8699   */\n      lt\n        /* \"#utility.yul\":8678:8798   */\n      iszero\n      tag_174\n      jumpi\n        /* \"#utility.yul\":8749:8788   */\n      tag_175\n        /* \"#utility.yul\":8786:8787   */\n      0x00\n        /* \"#utility.yul\":8779:8784   */\n      dup3\n        /* \"#utility.yul\":8749:8788   */\n      tag_66\n      jump\t// in\n    tag_175:\n        /* \"#utility.yul\":8722:8723   */\n      0x01\n        /* \"#utility.yul\":8715:8720   */\n      dup2\n        /* \"#utility.yul\":8711:8724   */\n      add\n        /* \"#utility.yul\":8702:8724   */\n      swap1\n      pop\n        /* \"#utility.yul\":8678:8798   */\n      jump(tag_172)\n    tag_174:\n        /* \"#utility.yul\":8618:8804   */\n      pop\n      pop\n      jump\t// out\n        /* \"#utility.yul\":8810:9353   */\n    tag_68:\n        /* \"#utility.yul\":8911:8913   */\n      0x1f\n        /* \"#utility.yul\":8906:8909   */\n      dup3\n        /* \"#utility.yul\":8903:8914   */\n      gt\n        /* \"#utility.yul\":8900:9346   */\n      iszero\n      tag_177\n      jumpi\n        /* \"#utility.yul\":8945:8983   */\n      tag_178\n        /* \"#utility.yul\":8977:8982   */\n      dup2\n        /* \"#utility.yul\":8945:8983   */\n      tag_57\n      jump\t// in\n    tag_178:\n        /* \"#utility.yul\":9029:9058   */\n      tag_179\n        /* \"#utility.yul\":9047:9057   */\n      dup5\n        /* \"#utility.yul\":9029:9058   */\n      tag_58\n      jump\t// in\n    tag_179:\n        /* \"#utility.yul\":9019:9027   */\n      dup2\n        /* \"#utility.yul\":9015:9059   */\n      add\n        /* \"#utility.yul\":9212:9214   */\n      0x20\n        /* \"#utility.yul\":9200:9210   */\n      dup6\n        /* \"#utility.yul\":9197:9215   */\n      lt\n        /* \"#utility.yul\":9194:9243   */\n      iszero\n      tag_180\n      jumpi\n        /* \"#utility.yul\":9233:9241   */\n      dup2\n        /* \"#utility.yul\":9218:9241   */\n      swap1\n      pop\n        /* \"#utility.yul\":9194:9243   */\n    tag_180:\n        /* \"#utility.yul\":9256:9336   */\n      tag_181\n        /* \"#utility.yul\":9312:9334   */\n      tag_182\n        /* \"#utility.yul\":9330:9333   */\n      dup6\n        /* \"#utility.yul\":9312:9334   */\n      tag_58\n      jump\t// in\n    tag_182:\n        /* \"#utility.yul\":9302:9310   */\n      dup4\n        /* \"#utility.yul\":9298:9335   */\n      add\n        /* \"#utility.yul\":9285:9296   */\n      dup3\n        /* \"#utility.yul\":9256:9336   */\n      tag_67\n      jump\t// in\n    tag_181:\n        /* \"#utility.yul\":8915:9346   */\n      pop\n      pop\n        /* \"#utility.yul\":8900:9346   */\n    tag_177:\n        /* \"#utility.yul\":8810:9353   */\n      pop\n      pop\n      pop\n      jump\t// out\n        /* \"#utility.yul\":9359:9476   */\n    tag_69:\n        /* \"#utility.yul\":9413:9421   */\n      0x00\n        /* \"#utility.yul\":9463:9468   */\n      dup3\n        /* \"#utility.yul\":9457:9461   */\n      dup3\n        /* \"#utility.yul\":9453:9469   */\n      shr\n        /* \"#utility.yul\":9432:9469   */\n      swap1\n      pop\n        /* \"#utility.yul\":9359:9476   */\n      swap3\n      swap2\n      pop\n      pop\n      jump\t// out\n        /* \"#utility.yul\":9482:9651   */\n    tag_70:\n        /* \"#utility.yul\":9526:9532   */\n      0x00\n        /* \"#utility.yul\":9559:9610   */\n      tag_185\n        /* \"#utility.yul\":9607:9608   */\n      0x00\n        /* \"#utility.yul\":9603:9609   */\n      not\n        /* \"#utility.yul\":9595:9600   */\n      dup5\n        /* \"#utility.yul\":9592:9593   */\n      0x08\n        /* \"#utility.yul\":9588:9601   */\n      mul\n        /* \"#utility.yul\":9559:9610   */\n      tag_69\n      jump\t// in\n    tag_185:\n        /* \"#utility.yul\":9555:9611   */\n      not\n        /* \"#utility.yul\":9640:9644   */\n      dup1\n        /* \"#utility.yul\":9634:9638   */\n      dup4\n        /* \"#utility.yul\":9630:9645   */\n      and\n        /* \"#utility.yul\":9620:9645   */\n      swap2\n      pop\n        /* \"#utility.yul\":9533:9651   */\n      pop\n        /* \"#utility.yul\":9482:9651   */\n      swap3\n      swap2\n      pop\n      pop\n      jump\t// out\n        /* \"#utility.yul\":9656:9951   */\n    tag_71:\n        /* \"#utility.yul\":9732:9736   */\n      0x00\n        /* \"#utility.yul\":9878:9907   */\n      tag_187\n        /* \"#utility.yul\":9903:9906   */\n      dup4\n        /* \"#utility.yul\":9897:9901   */\n      dup4\n        /* \"#utility.yul\":9878:9907   */\n      tag_70\n      jump\t// in\n    tag_187:\n        /* \"#utility.yul\":9870:9907   */\n      swap2\n      pop\n        /* \"#utility.yul\":9940:9943   */\n      dup3\n        /* \"#utility.yul\":9937:9938   */\n      0x02\n        /* \"#utility.yul\":9933:9944   */\n      mul\n        /* \"#utility.yul\":9927:9931   */\n      dup3\n        /* \"#utility.yul\":9924:9945   */\n      or\n        /* \"#utility.yul\":9916:9945   */\n      swap1\n      pop\n        /* \"#utility.yul\":9656:9951   */\n      swap3\n      swap2\n      pop\n      pop\n      jump\t// out\n        /* \"#utility.yul\":9956:11351   */\n    tag_17:\n        /* \"#utility.yul\":10073:10110   */\n      tag_189\n        /* \"#utility.yul\":10106:10109   */\n      dup3\n        /* \"#utility.yul\":10073:10110   */\n      tag_51\n      jump\t// in\n    tag_189:\n        /* \"#utility.yul\":10175:10193   */\n      0xffffffffffffffff\n        /* \"#utility.yul\":10167:10173   */\n      dup2\n        /* \"#utility.yul\":10164:10194   */\n      gt\n        /* \"#utility.yul\":10161:10217   */\n      iszero\n      tag_190\n      jumpi\n        /* \"#utility.yul\":10197:10215   */\n      tag_191\n      tag_40\n      jump\t// in\n    tag_191:\n        /* \"#utility.yul\":10161:10217   */\n    tag_190:\n        /* \"#utility.yul\":10241:10279   */\n      tag_192\n        /* \"#utility.yul\":10273:10277   */\n      dup3\n        /* \"#utility.yul\":10267:10278   */\n      sload\n        /* \"#utility.yul\":10241:10279   */\n      tag_21\n      jump\t// in\n    tag_192:\n        /* \"#utility.yul\":10326:10393   */\n      tag_193\n        /* \"#utility.yul\":10386:10392   */\n      dup3\n        /* \"#utility.yul\":10378:10384   */\n      dup3\n        /* \"#utility.yul\":10372:10376   */\n      dup6\n        /* \"#utility.yul\":10326:10393   */\n      tag_68\n      jump\t// in\n    tag_193:\n        /* \"#utility.yul\":10420:10421   */\n      0x00\n        /* \"#utility.yul\":10444:10448   */\n      0x20\n        /* \"#utility.yul\":10431:10448   */\n      swap1\n      pop\n        /* \"#utility.yul\":10476:10478   */\n      0x1f\n        /* \"#utility.yul\":10468:10474   */\n      dup4\n        /* \"#utility.yul\":10465:10479   */\n      gt\n        /* \"#utility.yul\":10493:10494   */\n      0x01\n        /* \"#utility.yul\":10488:11106   */\n      dup2\n      eq\n      tag_195\n      jumpi\n        /* \"#utility.yul\":11150:11151   */\n      0x00\n        /* \"#utility.yul\":11167:11173   */\n      dup5\n        /* \"#utility.yul\":11164:11241   */\n      iszero\n      tag_196\n      jumpi\n        /* \"#utility.yul\":11216:11225   */\n      dup3\n        /* \"#utility.yul\":11211:11214   */\n      dup8\n        /* \"#utility.yul\":11207:11226   */\n      add\n        /* \"#utility.yul\":11201:11227   */\n      mload\n        /* \"#utility.yul\":11192:11227   */\n      swap1\n      pop\n        /* \"#utility.yul\":11164:11241   */\n    tag_196:\n        /* \"#utility.yul\":11267:11334   */\n      tag_197\n        /* \"#utility.yul\":11327:11333   */\n      dup6\n        /* \"#utility.yul\":11320:11325   */\n      dup3\n        /* \"#utility.yul\":11267:11334   */\n      tag_71\n      jump\t// in\n    tag_197:\n        /* \"#utility.yul\":11261:11265   */\n      dup7\n        /* \"#utility.yul\":11254:11335   */\n      sstore\n        /* \"#utility.yul\":11123:11345   */\n      pop\n        /* \"#utility.yul\":10458:11345   */\n      jump(tag_194)\n        /* \"#utility.yul\":10488:11106   */\n    tag_195:\n        /* \"#utility.yul\":10540:10544   */\n      0x1f\n        /* \"#utility.yul\":10536:10545   */\n      not\n        /* \"#utility.yul\":10528:10534   */\n      dup5\n        /* \"#utility.yul\":10524:10546   */\n      and\n        /* \"#utility.yul\":10574:10611   */\n      tag_198\n        /* \"#utility.yul\":10606:10610   */\n      dup7\n        /* \"#utility.yul\":10574:10611   */\n      tag_57\n      jump\t// in\n    tag_198:\n        /* \"#utility.yul\":10633:10634   */\n      0x00\n        /* \"#utility.yul\":10647:10855   */\n    tag_199:\n        /* \"#utility.yul\":10661:10668   */\n      dup3\n        /* \"#utility.yul\":10658:10659   */\n      dup2\n        /* \"#utility.yul\":10655:10669   */\n      lt\n        /* \"#utility.yul\":10647:10855   */\n      iszero\n      tag_201\n      jumpi\n        /* \"#utility.yul\":10740:10749   */\n      dup5\n        /* \"#utility.yul\":10735:10738   */\n      dup10\n        /* \"#utility.yul\":10731:10750   */\n      add\n        /* \"#utility.yul\":10725:10751   */\n      mload\n        /* \"#utility.yul\":10717:10723   */\n      dup3\n        /* \"#utility.yul\":10710:10752   */\n      sstore\n        /* \"#utility.yul\":10791:10792   */\n      0x01\n        /* \"#utility.yul\":10783:10789   */\n      dup3\n        /* \"#utility.yul\":10779:10793   */\n      add\n        /* \"#utility.yul\":10769:10793   */\n      swap2\n      pop\n        /* \"#utility.yul\":10838:10840   */\n      0x20\n        /* \"#utility.yul\":10827:10836   */\n      dup6\n        /* \"#utility.yul\":10823:10841   */\n      add\n        /* \"#utility.yul\":10810:10841   */\n      swap5\n      pop\n        /* \"#utility.yul\":10684:10688   */\n      0x20\n        /* \"#utility.yul\":10681:10682   */\n      dup2\n        /* \"#utility.yul\":10677:10689   */\n      add\n        /* \"#utility.yul\":10672:10689   */\n      swap1\n      pop\n        /* \"#utility.yul\":10647:10855   */\n      jump(tag_199)\n    tag_201:\n        /* \"#utility.yul\":10883:10889   */\n      dup7\n        /* \"#utility.yul\":10874:10881   */\n      dup4\n        /* \"#utility.yul\":10871:10890   */\n      lt\n        /* \"#utility.yul\":10868:11047   */\n      iszero\n      tag_202\n      jumpi\n        /* \"#utility.yul\":10941:10950   */\n      dup5\n        /* \"#utility.yul\":10936:10939   */\n      dup10\n        /* \"#utility.yul\":10932:10951   */\n      add\n        /* \"#utility.yul\":10926:10952   */\n      mload\n        /* \"#utility.yul\":10984:11032   */\n      tag_203\n        /* \"#utility.yul\":11026:11030   */\n      0x1f\n        /* \"#utility.yul\":11018:11024   */\n      dup10\n        /* \"#utility.yul\":11014:11031   */\n      and\n        /* \"#utility.yul\":11003:11012   */\n      dup3\n        /* \"#utility.yul\":10984:11032   */\n      tag_70\n      jump\t// in\n    tag_203:\n        /* \"#utility.yul\":10976:10982   */\n      dup4\n        /* \"#utility.yul\":10969:11033   */\n      sstore\n        /* \"#utility.yul\":10891:11047   */\n      pop\n        /* \"#utility.yul\":10868:11047   */\n    tag_202:\n        /* \"#utility.yul\":11093:11094   */\n      0x01\n        /* \"#utility.yul\":11089:11090   */\n      0x02\n        /* \"#utility.yul\":11081:11087   */\n      dup9\n        /* \"#utility.yul\":11077:11091   */\n      mul\n        /* \"#utility.yul\":11073:11095   */\n      add\n        /* \"#utility.yul\":11067:11071   */\n      dup9\n        /* \"#utility.yul\":11060:11096   */\n      sstore\n        /* \"#utility.yul\":10495:11106   */\n      pop\n      pop\n      pop\n        /* \"#utility.yul\":10458:11345   */\n    tag_194:\n      pop\n        /* \"#utility.yul\":10048:11351   */\n      pop\n      pop\n      pop\n        /* \"#utility.yul\":9956:11351   */\n      pop\n      pop\n      jump\t// out\n\n    auxdata: 0xa2646970667358221220202237fdcd07bdb66aa4b27b68cddd68bf9999ebe98db9582f22c25b179509ca64736f6c634300081f0033\n}\n",
				"bytecode": {
					"linkReferences": {},
					"object": "6080604052348015600e575f5ffd5b506108ec8061001c5f395ff3fe608060405234801561000f575f5ffd5b5060043610610034575f3560e01c80632e728d7d14610038578063b93a89f714610054575b5f5ffd5b610052600480360381019061004d9190610454565b610087565b005b61006e600480360381019061006991906104f0565b610116565b60405161007e9493929190610599565b60405180910390f35b60405180608001604052808581526020018481526020018381526020018215158152505f5f8681526020019081526020015f205f820151815f015560208201518160010190816100d791906107e7565b5060408201518160020190816100ed91906107e7565b506060820151816003015f6101000a81548160ff02191690831515021790555090505050505050565b5f6060805f5f5f5f8781526020019081526020015f206040518060800160405290815f820154815260200160018201805461015090610617565b80601f016020809104026020016040519081016040528092919081815260200182805461017c90610617565b80156101c75780601f1061019e576101008083540402835291602001916101c7565b820191905f5260205f20905b8154815290600101906020018083116101aa57829003601f168201915b505050505081526020016002820180546101e090610617565b80601f016020809104026020016040519081016040528092919081815260200182805461020c90610617565b80156102575780601f1061022e57610100808354040283529160200191610257565b820191905f5260205f20905b81548152906001019060200180831161023a57829003601f168201915b50505050508152602001600382015f9054906101000a900460ff1615151515815250509050805f01518160200151826040015183606001519450945094509450509193509193565b5f604051905090565b5f5ffd5b5f5ffd5b5f819050919050565b6102c2816102b0565b81146102cc575f5ffd5b50565b5f813590506102dd816102b9565b92915050565b5f5ffd5b5f5ffd5b5f601f19601f8301169050919050565b7f4e487b71000000000000000000000000000000000000000000000000000000005f52604160045260245ffd5b610331826102eb565b810181811067ffffffffffffffff821117156103505761034f6102fb565b5b80604052505050565b5f61036261029f565b905061036e8282610328565b919050565b5f67ffffffffffffffff82111561038d5761038c6102fb565b5b610396826102eb565b9050602081019050919050565b828183375f83830152505050565b5f6103c36103be84610373565b610359565b9050828152602081018484840111156103df576103de6102e7565b5b6103ea8482856103a3565b509392505050565b5f82601f830112610406576104056102e3565b5b81356104168482602086016103b1565b91505092915050565b5f8115159050919050565b6104338161041f565b811461043d575f5ffd5b50565b5f8135905061044e8161042a565b92915050565b5f5f5f5f6080858703121561046c5761046b6102a8565b5b5f610479878288016102cf565b945050602085013567ffffffffffffffff81111561049a576104996102ac565b5b6104a6878288016103f2565b935050604085013567ffffffffffffffff8111156104c7576104c66102ac565b5b6104d3878288016103f2565b92505060606104e487828801610440565b91505092959194509250565b5f60208284031215610505576105046102a8565b5b5f610512848285016102cf565b91505092915050565b610524816102b0565b82525050565b5f81519050919050565b5f82825260208201905092915050565b8281835e5f83830152505050565b5f61055c8261052a565b6105668185610534565b9350610576818560208601610544565b61057f816102eb565b840191505092915050565b6105938161041f565b82525050565b5f6080820190506105ac5f83018761051b565b81810360208301526105be8186610552565b905081810360408301526105d28185610552565b90506105e1606083018461058a565b95945050505050565b7f4e487b71000000000000000000000000000000000000000000000000000000005f52602260045260245ffd5b5f600282049050600182168061062e57607f821691505b602082108103610641576106406105ea565b5b50919050565b5f819050815f5260205f209050919050565b5f6020601f8301049050919050565b5f82821b905092915050565b5f600883026106a37fffffffffffffffffffffffffffffffffffffffffffffffffffffffffffffffff82610668565b6106ad8683610668565b95508019841693508086168417925050509392505050565b5f819050919050565b5f6106e86106e36106de846102b0565b6106c5565b6102b0565b9050919050565b5f819050919050565b610701836106ce565b61071561070d826106ef565b848454610674565b825550505050565b5f5f905090565b61072c61071d565b6107378184846106f8565b505050565b5b8181101561075a5761074f5f82610724565b60018101905061073d565b5050565b601f82111561079f5761077081610647565b61077984610659565b81016020851015610788578190505b61079c61079485610659565b83018261073c565b50505b505050565b5f82821c905092915050565b5f6107bf5f19846008026107a4565b1980831691505092915050565b5f6107d783836107b0565b9150826002028217905092915050565b6107f08261052a565b67ffffffffffffffff811115610809576108086102fb565b5b6108138254610617565b61081e82828561075e565b5f60209050601f83116001811461084f575f841561083d578287015190505b61084785826107cc565b8655506108ae565b601f19841661085d86610647565b5f5b828110156108845784890151825560018201915060208501945060208101905061085f565b868310156108a1578489015161089d601f8916826107b0565b8355505b6001600288020188555050505b50505050505056fea2646970667358221220202237fdcd07bdb66aa4b27b68cddd68bf9999ebe98db9582f22c25b179509ca64736f6c634300081f0033",
					"opcodes": "PUSH1 0x80 PUSH1 0x40 MSTORE CALLVALUE DUP1 ISZERO PUSH1 0xE JUMPI PUSH0 PUSH0 REVERT JUMPDEST POP PUSH2 0x8EC DUP1 PUSH2 0x1C PUSH0 CODECOPY PUSH0 RETURN INVALID PUSH1 0x80 PUSH1 0x40 MSTORE CALLVALUE DUP1 ISZERO PUSH2 0xF JUMPI PUSH0 PUSH0 REVERT JUMPDEST POP PUSH1 0x4 CALLDATASIZE LT PUSH2 0x34 JUMPI PUSH0 CALLDATALOAD PUSH1 0xE0 SHR DUP1 PUSH4 0x2E728D7D EQ PUSH2 0x38 JUMPI DUP1 PUSH4 0xB93A89F7 EQ PUSH2 0x54 JUMPI JUMPDEST PUSH0 PUSH0 REVERT JUMPDEST PUSH2 0x52 PUSH1 0x4 DUP1 CALLDATASIZE SUB DUP2 ADD SWAP1 PUSH2 0x4D SWAP2 SWAP1 PUSH2 0x454 JUMP JUMPDEST PUSH2 0x87 JUMP JUMPDEST STOP JUMPDEST PUSH2 0x6E PUSH1 0x4 DUP1 CALLDATASIZE SUB DUP2 ADD SWAP1 PUSH2 0x69 SWAP2 SWAP1 PUSH2 0x4F0 JUMP JUMPDEST PUSH2 0x116 JUMP JUMPDEST PUSH1 0x40 MLOAD PUSH2 0x7E SWAP5 SWAP4 SWAP3 SWAP2 SWAP1 PUSH2 0x599 JUMP JUMPDEST PUSH1 0x40 MLOAD DUP1 SWAP2 SUB SWAP1 RETURN JUMPDEST PUSH1 0x40 MLOAD DUP1 PUSH1 0x80 ADD PUSH1 0x40 MSTORE DUP1 DUP6 DUP2 MSTORE PUSH1 0x20 ADD DUP5 DUP2 MSTORE PUSH1 0x20 ADD DUP4 DUP2 MSTORE PUSH1 0x20 ADD DUP3 ISZERO ISZERO DUP2 MSTORE POP PUSH0 PUSH0 DUP7 DUP2 MSTORE PUSH1 0x20 ADD SWAP1 DUP2 MSTORE PUSH1 0x20 ADD PUSH0 KECCAK256 PUSH0 DUP3 ADD MLOAD DUP2 PUSH0 ADD SSTORE PUSH1 0x20 DUP3 ADD MLOAD DUP2 PUSH1 0x1 ADD SWAP1 DUP2 PUSH2 0xD7 SWAP2 SWAP1 PUSH2 0x7E7 JUMP JUMPDEST POP PUSH1 0x40 DUP3 ADD MLOAD DUP2 PUSH1 0x2 ADD SWAP1 DUP2 PUSH2 0xED SWAP2 SWAP1 PUSH2 0x7E7 JUMP JUMPDEST POP PUSH1 0x60 DUP3 ADD MLOAD DUP2 PUSH1 0x3 ADD PUSH0 PUSH2 0x100 EXP DUP2 SLOAD DUP2 PUSH1 0xFF MUL NOT AND SWAP1 DUP4 ISZERO ISZERO MUL OR SWAP1 SSTORE POP SWAP1 POP POP POP POP POP POP JUMP JUMPDEST PUSH0 PUSH1 0x60 DUP1 PUSH0 PUSH0 PUSH0 PUSH0 DUP8 DUP2 MSTORE PUSH1 0x20 ADD SWAP1 DUP2 MSTORE PUSH1 0x20 ADD PUSH0 KECCAK256 PUSH1 0x40 MLOAD DUP1 PUSH1 0x80 ADD PUSH1 0x40 MSTORE SWAP1 DUP2 PUSH0 DUP3 ADD SLOAD DUP2 MSTORE PUSH1 0x20 ADD PUSH1 0x1 DUP3 ADD DUP1 SLOAD PUSH2 0x150 SWAP1 PUSH2 0x617 JUMP JUMPDEST DUP1 PUSH1 0x1F ADD PUSH1 0x20 DUP1 SWAP2 DIV MUL PUSH1 0x20 ADD PUSH1 0x40 MLOAD SWAP1 DUP2 ADD PUSH1 0x40 MSTORE DUP1 SWAP3 SWAP2 SWAP1 DUP2 DUP2 MSTORE PUSH1 0x20 ADD DUP3 DUP1 SLOAD PUSH2 0x17C SWAP1 PUSH2 0x617 JUMP JUMPDEST DUP1 ISZERO PUSH2 0x1C7 JUMPI DUP1 PUSH1 0x1F LT PUSH2 0x19E JUMPI PUSH2 0x100 DUP1 DUP4 SLOAD DIV MUL DUP4 MSTORE SWAP2 PUSH1 0x20 ADD SWAP2 PUSH2 0x1C7 JUMP JUMPDEST DUP3 ADD SWAP2 SWAP1 PUSH0 MSTORE PUSH1 0x20 PUSH0 KECCAK256 SWAP1 JUMPDEST DUP2 SLOAD DUP2 MSTORE SWAP1 PUSH1 0x1 ADD SWAP1 PUSH1 0x20 ADD DUP1 DUP4 GT PUSH2 0x1AA JUMPI DUP3 SWAP1 SUB PUSH1 0x1F AND DUP3 ADD SWAP2 JUMPDEST POP POP POP POP POP DUP2 MSTORE PUSH1 0x20 ADD PUSH1 0x2 DUP3 ADD DUP1 SLOAD PUSH2 0x1E0 SWAP1 PUSH2 0x617 JUMP JUMPDEST DUP1 PUSH1 0x1F ADD PUSH1 0x20 DUP1 SWAP2 DIV MUL PUSH1 0x20 ADD PUSH1 0x40 MLOAD SWAP1 DUP2 ADD PUSH1 0x40 MSTORE DUP1 SWAP3 SWAP2 SWAP1 DUP2 DUP2 MSTORE PUSH1 0x20 ADD DUP3 DUP1 SLOAD PUSH2 0x20C SWAP1 PUSH2 0x617 JUMP JUMPDEST DUP1 ISZERO PUSH2 0x257 JUMPI DUP1 PUSH1 0x1F LT PUSH2 0x22E JUMPI PUSH2 0x100 DUP1 DUP4 SLOAD DIV MUL DUP4 MSTORE SWAP2 PUSH1 0x20 ADD SWAP2 PUSH2 0x257 JUMP JUMPDEST DUP3 ADD SWAP2 SWAP1 PUSH0 MSTORE PUSH1 0x20 PUSH0 KECCAK256 SWAP1 JUMPDEST DUP2 SLOAD DUP2 MSTORE SWAP1 PUSH1 0x1 ADD SWAP1 PUSH1 0x20 ADD DUP1 DUP4 GT PUSH2 0x23A JUMPI DUP3 SWAP1 SUB PUSH1 0x1F AND DUP3 ADD SWAP2 JUMPDEST POP POP POP POP POP DUP2 MSTORE PUSH1 0x20 ADD PUSH1 0x3 DUP3 ADD PUSH0 SWAP1 SLOAD SWAP1 PUSH2 0x100 EXP SWAP1 DIV PUSH1 0xFF AND ISZERO ISZERO ISZERO ISZERO DUP2 MSTORE POP POP SWAP1 POP DUP1 PUSH0 ADD MLOAD DUP2 PUSH1 0x20 ADD MLOAD DUP3 PUSH1 0x40 ADD MLOAD DUP4 PUSH1 0x60 ADD MLOAD SWAP5 POP SWAP5 POP SWAP5 POP SWAP5 POP POP SWAP2 SWAP4 POP SWAP2 SWAP4 JUMP JUMPDEST PUSH0 PUSH1 0x40 MLOAD SWAP1 POP SWAP1 JUMP JUMPDEST PUSH0 PUSH0 REVERT JUMPDEST PUSH0 PUSH0 REVERT JUMPDEST PUSH0 DUP2 SWAP1 POP SWAP2 SWAP1 POP JUMP JUMPDEST PUSH2 0x2C2 DUP2 PUSH2 0x2B0 JUMP JUMPDEST DUP2 EQ PUSH2 0x2CC JUMPI PUSH0 PUSH0 REVERT JUMPDEST POP JUMP JUMPDEST PUSH0 DUP2 CALLDATALOAD SWAP1 POP PUSH2 0x2DD DUP2 PUSH2 0x2B9 JUMP JUMPDEST SWAP3 SWAP2 POP POP JUMP JUMPDEST PUSH0 PUSH0 REVERT JUMPDEST PUSH0 PUSH0 REVERT JUMPDEST PUSH0 PUSH1 0x1F NOT PUSH1 0x1F DUP4 ADD AND SWAP1 POP SWAP2 SWAP1 POP JUMP JUMPDEST PUSH32 0x4E487B7100000000000000000000000000000000000000000000000000000000 PUSH0 MSTORE PUSH1 0x41 PUSH1 0x4 MSTORE PUSH1 0x24 PUSH0 REVERT JUMPDEST PUSH2 0x331 DUP3 PUSH2 0x2EB JUMP JUMPDEST DUP2 ADD DUP2 DUP2 LT PUSH8 0xFFFFFFFFFFFFFFFF DUP3 GT OR ISZERO PUSH2 0x350 JUMPI PUSH2 0x34F PUSH2 0x2FB JUMP JUMPDEST JUMPDEST DUP1 PUSH1 0x40 MSTORE POP POP POP JUMP JUMPDEST PUSH0 PUSH2 0x362 PUSH2 0x29F JUMP JUMPDEST SWAP1 POP PUSH2 0x36E DUP3 DUP3 PUSH2 0x328 JUMP JUMPDEST SWAP2 SWAP1 POP JUMP JUMPDEST PUSH0 PUSH8 0xFFFFFFFFFFFFFFFF DUP3 GT ISZERO PUSH2 0x38D JUMPI PUSH2 0x38C PUSH2 0x2FB JUMP JUMPDEST JUMPDEST PUSH2 0x396 DUP3 PUSH2 0x2EB JUMP JUMPDEST SWAP1 POP PUSH1 0x20 DUP2 ADD SWAP1 POP SWAP2 SWAP1 POP JUMP JUMPDEST DUP3 DUP2 DUP4 CALLDATACOPY PUSH0 DUP4 DUP4 ADD MSTORE POP POP POP JUMP JUMPDEST PUSH0 PUSH2 0x3C3 PUSH2 0x3BE DUP5 PUSH2 0x373 JUMP JUMPDEST PUSH2 0x359 JUMP JUMPDEST SWAP1 POP DUP3 DUP2 MSTORE PUSH1 0x20 DUP2 ADD DUP5 DUP5 DUP5 ADD GT ISZERO PUSH2 0x3DF JUMPI PUSH2 0x3DE PUSH2 0x2E7 JUMP JUMPDEST JUMPDEST PUSH2 0x3EA DUP5 DUP3 DUP6 PUSH2 0x3A3 JUMP JUMPDEST POP SWAP4 SWAP3 POP POP POP JUMP JUMPDEST PUSH0 DUP3 PUSH1 0x1F DUP4 ADD SLT PUSH2 0x406 JUMPI PUSH2 0x405 PUSH2 0x2E3 JUMP JUMPDEST JUMPDEST DUP2 CALLDATALOAD PUSH2 0x416 DUP5 DUP3 PUSH1 0x20 DUP7 ADD PUSH2 0x3B1 JUMP JUMPDEST SWAP2 POP POP SWAP3 SWAP2 POP POP JUMP JUMPDEST PUSH0 DUP2 ISZERO ISZERO SWAP1 POP SWAP2 SWAP1 POP JUMP JUMPDEST PUSH2 0x433 DUP2 PUSH2 0x41F JUMP JUMPDEST DUP2 EQ PUSH2 0x43D JUMPI PUSH0 PUSH0 REVERT JUMPDEST POP JUMP JUMPDEST PUSH0 DUP2 CALLDATALOAD SWAP1 POP PUSH2 0x44E DUP2 PUSH2 0x42A JUMP JUMPDEST SWAP3 SWAP2 POP POP JUMP JUMPDEST PUSH0 PUSH0 PUSH0 PUSH0 PUSH1 0x80 DUP6 DUP8 SUB SLT ISZERO PUSH2 0x46C JUMPI PUSH2 0x46B PUSH2 0x2A8 JUMP JUMPDEST JUMPDEST PUSH0 PUSH2 0x479 DUP8 DUP3 DUP9 ADD PUSH2 0x2CF JUMP JUMPDEST SWAP5 POP POP PUSH1 0x20 DUP6 ADD CALLDATALOAD PUSH8 0xFFFFFFFFFFFFFFFF DUP2 GT ISZERO PUSH2 0x49A JUMPI PUSH2 0x499 PUSH2 0x2AC JUMP JUMPDEST JUMPDEST PUSH2 0x4A6 DUP8 DUP3 DUP9 ADD PUSH2 0x3F2 JUMP JUMPDEST SWAP4 POP POP PUSH1 0x40 DUP6 ADD CALLDATALOAD PUSH8 0xFFFFFFFFFFFFFFFF DUP2 GT ISZERO PUSH2 0x4C7 JUMPI PUSH2 0x4C6 PUSH2 0x2AC JUMP JUMPDEST JUMPDEST PUSH2 0x4D3 DUP8 DUP3 DUP9 ADD PUSH2 0x3F2 JUMP JUMPDEST SWAP3 POP POP PUSH1 0x60 PUSH2 0x4E4 DUP8 DUP3 DUP9 ADD PUSH2 0x440 JUMP JUMPDEST SWAP2 POP POP SWAP3 SWAP6 SWAP2 SWAP5 POP SWAP3 POP JUMP JUMPDEST PUSH0 PUSH1 0x20 DUP3 DUP5 SUB SLT ISZERO PUSH2 0x505 JUMPI PUSH2 0x504 PUSH2 0x2A8 JUMP JUMPDEST JUMPDEST PUSH0 PUSH2 0x512 DUP5 DUP3 DUP6 ADD PUSH2 0x2CF JUMP JUMPDEST SWAP2 POP POP SWAP3 SWAP2 POP POP JUMP JUMPDEST PUSH2 0x524 DUP2 PUSH2 0x2B0 JUMP JUMPDEST DUP3 MSTORE POP POP JUMP JUMPDEST PUSH0 DUP2 MLOAD SWAP1 POP SWAP2 SWAP1 POP JUMP JUMPDEST PUSH0 DUP3 DUP3 MSTORE PUSH1 0x20 DUP3 ADD SWAP1 POP SWAP3 SWAP2 POP POP JUMP JUMPDEST DUP3 DUP2 DUP4 MCOPY PUSH0 DUP4 DUP4 ADD MSTORE POP POP POP JUMP JUMPDEST PUSH0 PUSH2 0x55C DUP3 PUSH2 0x52A JUMP JUMPDEST PUSH2 0x566 DUP2 DUP6 PUSH2 0x534 JUMP JUMPDEST SWAP4 POP PUSH2 0x576 DUP2 DUP6 PUSH1 0x20 DUP7 ADD PUSH2 0x544 JUMP JUMPDEST PUSH2 0x57F DUP2 PUSH2 0x2EB JUMP JUMPDEST DUP5 ADD SWAP2 POP POP SWAP3 SWAP2 POP POP JUMP JUMPDEST PUSH2 0x593 DUP2 PUSH2 0x41F JUMP JUMPDEST DUP3 MSTORE POP POP JUMP JUMPDEST PUSH0 PUSH1 0x80 DUP3 ADD SWAP1 POP PUSH2 0x5AC PUSH0 DUP4 ADD DUP8 PUSH2 0x51B JUMP JUMPDEST DUP2 DUP2 SUB PUSH1 0x20 DUP4 ADD MSTORE PUSH2 0x5BE DUP2 DUP7 PUSH2 0x552 JUMP JUMPDEST SWAP1 POP DUP2 DUP2 SUB PUSH1 0x40 DUP4 ADD MSTORE PUSH2 0x5D2 DUP2 DUP6 PUSH2 0x552 JUMP JUMPDEST SWAP1 POP PUSH2 0x5E1 PUSH1 0x60 DUP4 ADD DUP5 PUSH2 0x58A JUMP JUMPDEST SWAP6 SWAP5 POP POP POP POP POP JUMP JUMPDEST PUSH32 0x4E487B7100000000000000000000000000000000000000000000000000000000 PUSH0 MSTORE PUSH1 0x22 PUSH1 0x4 MSTORE PUSH1 0x24 PUSH0 REVERT JUMPDEST PUSH0 PUSH1 0x2 DUP3 DIV SWAP1 POP PUSH1 0x1 DUP3 AND DUP1 PUSH2 0x62E JUMPI PUSH1 0x7F DUP3 AND SWAP2 POP JUMPDEST PUSH1 0x20 DUP3 LT DUP2 SUB PUSH2 0x641 JUMPI PUSH2 0x640 PUSH2 0x5EA JUMP JUMPDEST JUMPDEST POP SWAP2 SWAP1 POP JUMP JUMPDEST PUSH0 DUP2 SWAP1 POP DUP2 PUSH0 MSTORE PUSH1 0x20 PUSH0 KECCAK256 SWAP1 POP SWAP2 SWAP1 POP JUMP JUMPDEST PUSH0 PUSH1 0x20 PUSH1 0x1F DUP4 ADD DIV SWAP1 POP SWAP2 SWAP1 POP JUMP JUMPDEST PUSH0 DUP3 DUP3 SHL SWAP1 POP SWAP3 SWAP2 POP POP JUMP JUMPDEST PUSH0 PUSH1 0x8 DUP4 MUL PUSH2 0x6A3 PUSH32 0xFFFFFFFFFFFFFFFFFFFFFFFFFFFFFFFFFFFFFFFFFFFFFFFFFFFFFFFFFFFFFFFF DUP3 PUSH2 0x668 JUMP JUMPDEST PUSH2 0x6AD DUP7 DUP4 PUSH2 0x668 JUMP JUMPDEST SWAP6 POP DUP1 NOT DUP5 AND SWAP4 POP DUP1 DUP7 AND DUP5 OR SWAP3 POP POP POP SWAP4 SWAP3 POP POP POP JUMP JUMPDEST PUSH0 DUP2 SWAP1 POP SWAP2 SWAP1 POP JUMP JUMPDEST PUSH0 PUSH2 0x6E8 PUSH2 0x6E3 PUSH2 0x6DE DUP5 PUSH2 0x2B0 JUMP JUMPDEST PUSH2 0x6C5 JUMP JUMPDEST PUSH2 0x2B0 JUMP JUMPDEST SWAP1 POP SWAP2 SWAP1 POP JUMP JUMPDEST PUSH0 DUP2 SWAP1 POP SWAP2 SWAP1 POP JUMP JUMPDEST PUSH2 0x701 DUP4 PUSH2 0x6CE JUMP JUMPDEST PUSH2 0x715 PUSH2 0x70D DUP3 PUSH2 0x6EF JUMP JUMPDEST DUP5 DUP5 SLOAD PUSH2 0x674 JUMP JUMPDEST DUP3 SSTORE POP POP POP POP JUMP JUMPDEST PUSH0 PUSH0 SWAP1 POP SWAP1 JUMP JUMPDEST PUSH2 0x72C PUSH2 0x71D JUMP JUMPDEST PUSH2 0x737 DUP2 DUP5 DUP5 PUSH2 0x6F8 JUMP JUMPDEST POP POP POP JUMP JUMPDEST JUMPDEST DUP2 DUP2 LT ISZERO PUSH2 0x75A JUMPI PUSH2 0x74F PUSH0 DUP3 PUSH2 0x724 JUMP JUMPDEST PUSH1 0x1 DUP2 ADD SWAP1 POP PUSH2 0x73D JUMP JUMPDEST POP POP JUMP JUMPDEST PUSH1 0x1F DUP3 GT ISZERO PUSH2 0x79F JUMPI PUSH2 0x770 DUP2 PUSH2 0x647 JUMP JUMPDEST PUSH2 0x779 DUP5 PUSH2 0x659 JUMP JUMPDEST DUP2 ADD PUSH1 0x20 DUP6 LT ISZERO PUSH2 0x788 JUMPI DUP2 SWAP1 POP JUMPDEST PUSH2 0x79C PUSH2 0x794 DUP6 PUSH2 0x659 JUMP JUMPDEST DUP4 ADD DUP3 PUSH2 0x73C JUMP JUMPDEST POP POP JUMPDEST POP POP POP JUMP JUMPDEST PUSH0 DUP3 DUP3 SHR SWAP1 POP SWAP3 SWAP2 POP POP JUMP JUMPDEST PUSH0 PUSH2 0x7BF PUSH0 NOT DUP5 PUSH1 0x8 MUL PUSH2 0x7A4 JUMP JUMPDEST NOT DUP1 DUP4 AND SWAP2 POP POP SWAP3 SWAP2 POP POP JUMP JUMPDEST PUSH0 PUSH2 0x7D7 DUP4 DUP4 PUSH2 0x7B0 JUMP JUMPDEST SWAP2 POP DUP3 PUSH1 0x2 MUL DUP3 OR SWAP1 POP SWAP3 SWAP2 POP POP JUMP JUMPDEST PUSH2 0x7F0 DUP3 PUSH2 0x52A JUMP JUMPDEST PUSH8 0xFFFFFFFFFFFFFFFF DUP2 GT ISZERO PUSH2 0x809 JUMPI PUSH2 0x808 PUSH2 0x2FB JUMP JUMPDEST JUMPDEST PUSH2 0x813 DUP3 SLOAD PUSH2 0x617 JUMP JUMPDEST PUSH2 0x81E DUP3 DUP3 DUP6 PUSH2 0x75E JUMP JUMPDEST PUSH0 PUSH1 0x20 SWAP1 POP PUSH1 0x1F DUP4 GT PUSH1 0x1 DUP2 EQ PUSH2 0x84F JUMPI PUSH0 DUP5 ISZERO PUSH2 0x83D JUMPI DUP3 DUP8 ADD MLOAD SWAP1 POP JUMPDEST PUSH2 0x847 DUP6 DUP3 PUSH2 0x7CC JUMP JUMPDEST DUP7 SSTORE POP PUSH2 0x8AE JUMP JUMPDEST PUSH1 0x1F NOT DUP5 AND PUSH2 0x85D DUP7 PUSH2 0x647 JUMP JUMPDEST PUSH0 JUMPDEST DUP3 DUP2 LT ISZERO PUSH2 0x884 JUMPI DUP5 DUP10 ADD MLOAD DUP3 SSTORE PUSH1 0x1 DUP3 ADD SWAP2 POP PUSH1 0x20 DUP6 ADD SWAP5 POP PUSH1 0x20 DUP2 ADD SWAP1 POP PUSH2 0x85F JUMP JUMPDEST DUP7 DUP4 LT ISZERO PUSH2 0x8A1 JUMPI DUP5 DUP10 ADD MLOAD PUSH2 0x89D PUSH1 0x1F DUP10 AND DUP3 PUSH2 0x7B0 JUMP JUMPDEST DUP4 SSTORE POP JUMPDEST PUSH1 0x1 PUSH1 0x2 DUP9 MUL ADD DUP9 SSTORE POP POP POP JUMPDEST POP POP POP POP POP POP JUMP INVALID LOG2 PUSH5 0x6970667358 0x22 SLT KECCAK256 KECCAK256 0x22 CALLDATACOPY REVERT 0xCD SMOD 0xBD 0xB6 PUSH11 0xA4B27B68CDDD68BF9999EB 0xE9 DUP14 0xB9 PC 0x2F 0x22 0xC2 JUMPDEST OR SWAP6 MULMOD 0xCA PUSH5 0x736F6C6343 STOP ADDMOD 0x1F STOP CALLER "
				},
				"gasEstimates": {
					"creation": {
						"codeDepositCost": "456800",
						"executionCost": "491",
						"totalCost": "457291"
					},
					"external": {
						"getDetails(uint256)": "infinite",
						"setDetails(uint256,string,string,bool)": "infinite"
					}
				},
				"methodIdentifiers": {
					"getDetails(uint256)": "b93a89f7",
					"setDetails(uint256,string,string,bool)": "2e728d7d"
				}
			},
			"storageLayout": {
				"storage": [
					{
						"astId": 15,
						"contract": "class_7 (18.3.26)/patient_struct.sol:PatientDetails",
						"label": "P1",
						"offset": 0,
						"slot": "0",
						"type": "t_mapping(t_uint256,t_struct(patient)10_storage)"
					}
				],
				"types": {
					"t_bool": {
						"encoding": "inplace",
						"label": "bool",
						"numberOfBytes": "1"
					},
					"t_mapping(t_uint256,t_struct(patient)10_storage)": {
						"encoding": "mapping",
						"key": "t_uint256",
						"label": "mapping(uint256 => struct PatientDetails.patient)",
						"numberOfBytes": "32",
						"value": "t_struct(patient)10_storage"
					},
					"t_string_storage": {
						"encoding": "bytes",
						"label": "string",
						"numberOfBytes": "32"
					},
					"t_struct(patient)10_storage": {
						"encoding": "inplace",
						"label": "struct PatientDetails.patient",
						"members": [
							{
								"astId": 3,
								"contract": "class_7 (18.3.26)/patient_struct.sol:PatientDetails",
								"label": "id",
								"offset": 0,
								"slot": "0",
								"type": "t_uint256"
							},
							{
								"astId": 5,
								"contract": "class_7 (18.3.26)/patient_struct.sol:PatientDetails",
								"label": "name",
								"offset": 0,
								"slot": "1",
								"type": "t_string_storage"
							},
							{
								"astId": 7,
								"contract": "class_7 (18.3.26)/patient_struct.sol:PatientDetails",
								"label": "Bio",
								"offset": 0,
								"slot": "2",
								"type": "t_string_storage"
							},
							{
								"astId": 9,
								"contract": "class_7 (18.3.26)/patient_struct.sol:PatientDetails",
								"label": "checkup",
								"offset": 0,
								"slot": "3",
								"type": "t_bool"
							}
						],
						"numberOfBytes": "128"
					},
					"t_uint256": {
						"encoding": "inplace",
						"label": "uint256",
						"numberOfBytes": "32"
					}
				}
			},
			"userdoc": {
				"kind": "user",
				"methods": {},
				"version": 1
			}
		}
	}
}