{
	"Class_3 (27.2.26)/1.DigitalVault.sol": {
		"DigitalVault": {
			"abi": [
				{
					"inputs": [],
					"stateMutability": "nonpayable",
					"type": "constructor"
				},
				{
					"inputs": [],
					"name": "closeVault",
					"outputs": [],
					"stateMutability": "nonpayable",
					"type": "function"
				},
				{
					"inputs": [
						{
							"internalType": "uint256",
							"name": "amount",
							"type": "uint256"
						}
					],
					"name": "deposit",
					"outputs": [],
					"stateMutability": "nonpayable",
					"type": "function"
				},
				{
					"inputs": [],
					"name": "getLength",
					"outputs": [
						{
							"internalType": "uint256",
							"name": "",
							"type": "uint256"
						}
					],
					"stateMutability": "view",
					"type": "function"
				},
				{
					"inputs": [
						{
							"internalType": "uint256",
							"name": "index",
							"type": "uint256"
						}
					],
					"name": "getSecretByte",
					"outputs": [
						{
							"internalType": "bytes1",
							"name": "",
							"type": "bytes1"
						}
					],
					"stateMutability": "view",
					"type": "function"
				},
				{
					"inputs": [],
					"name": "getSecretLength",
					"outputs": [
						{
							"internalType": "uint256",
							"name": "",
							"type": "uint256"
						}
					],
					"stateMutability": "view",
					"type": "function"
				},
				{
					"inputs": [],
					"name": "getVaultStatus",
					"outputs": [
						{
							"internalType": "bool",
							"name": "",
							"type": "bool"
						}
					],
					"stateMutability": "view",
					"type": "function"
				},
				{
					"inputs": [],
					"name": "isVaultOpen",
					"outputs": [
						{
							"internalType": "bool",
							"name": "",
							"type": "bool"
						}
					],
					"stateMutability": "view",
					"type": "function"
				},
				{
					"inputs": [],
					"name": "netTranscation",
					"outputs": [
						{
							"internalType": "int256",
							"name": "",
							"type": "int256"
						}
					],
					"stateMutability": "view",
					"type": "function"
				},
				{
					"inputs": [],
					"name": "openVault",
					"outputs": [],
					"stateMutability": "nonpayable",
					"type": "function"
				},
				{
					"inputs": [],
					"name": "ownerName",
					"outputs": [
						{
							"internalType": "string",
							"name": "",
							"type": "string"
						}
					],
					"stateMutability": "view",
					"type": "function"
				},
				{
					"inputs": [],
					"name": "secretCode",
					"outputs": [
						{
							"internalType": "bytes",
							"name": "",
							"type": "bytes"
						}
					],
					"stateMutability": "view",
					"type": "function"
				},
				{
					"inputs": [
						{
							"internalType": "string",
							"name": "_name",
							"type": "string"
						}
					],
					"name": "setOwnerName",
					"outputs": [],
					"stateMutability": "nonpayable",
					"type": "function"
				},
				{
					"inputs": [
						{
							"internalType": "string",
							"name": "_code",
							"type": "string"
						}
					],
					"name": "setSecret",
					"outputs": [],
					"stateMutability": "nonpayable",
					"type": "function"
				},
				{
					"inputs": [],
					"name": "vaultBalance",
					"outputs": [
						{
							"internalType": "uint256",
							"name": "",
							"type": "uint256"
						}
					],
					"stateMutability": "view",
					"type": "function"
				},
				{
					"inputs": [
						{
							"internalType": "string",
							"name": "_name",
							"type": "string"
						}
					],
					"name": "verifyOwner",
					"outputs": [
						{
							"internalType": "bool",
							"name": "",
							"type": "bool"
						}
					],
					"stateMutability": "view",
					"type": "function"
				},
				{
					"inputs": [
						{
							"internalType": "uint256",
							"name": "amount",
							"type": "uint256"
						}
					],
					"name": "withdraw",
					"outputs": [],
					"stateMutability": "nonpayable",
					"type": "function"
				}
			],
			"devdoc": {
				"kind": "dev",
				"methods": {},
				"version": 1
			},
			"evm": {
				"assembly": "    /* \"Class_3 (27.2.26)/1.DigitalVault.sol\":60:2152  contract DigitalVault{... */\n  mstore(0x40, 0x80)\n    /* \"Class_3 (27.2.26)/1.DigitalVault.sol\":400:507  constructor (){... */\n  callvalue\n  dup1\n  iszero\n  tag_1\n  jumpi\n  revert(0x00, 0x00)\ntag_1:\n  pop\n    /* \"Class_3 (27.2.26)/1.DigitalVault.sol\":440:441  0 */\n  0x00\n    /* \"Class_3 (27.2.26)/1.DigitalVault.sol\":425:437  vaultBalance */\n  0x01\n    /* \"Class_3 (27.2.26)/1.DigitalVault.sol\":425:441  vaultBalance = 0 */\n  dup2\n  swap1\n  sstore\n  pop\n    /* \"Class_3 (27.2.26)/1.DigitalVault.sol\":469:470  0 */\n  0x00\n    /* \"Class_3 (27.2.26)/1.DigitalVault.sol\":452:466  netTranscation */\n  0x03\n    /* \"Class_3 (27.2.26)/1.DigitalVault.sol\":452:470  netTranscation = 0 */\n  dup2\n  swap1\n  sstore\n  pop\n    /* \"Class_3 (27.2.26)/1.DigitalVault.sol\":495:499  true */\n  0x01\n    /* \"Class_3 (27.2.26)/1.DigitalVault.sol\":481:492  isVaultOpen */\n  0x02\n  0x00\n    /* \"Class_3 (27.2.26)/1.DigitalVault.sol\":481:499  isVaultOpen = true */\n  0x0100\n  exp\n  dup2\n  sload\n  dup2\n  0xff\n  mul\n  not\n  and\n  swap1\n  dup4\n  iszero\n  iszero\n  mul\n  or\n  swap1\n  sstore\n  pop\n    /* \"Class_3 (27.2.26)/1.DigitalVault.sol\":60:2152  contract DigitalVault{... */\n  dataSize(sub_0)\n  dup1\n  dataOffset(sub_0)\n  0x00\n  codecopy\n  0x00\n  return\nstop\n\nsub_0: assembly {\n        /* \"Class_3 (27.2.26)/1.DigitalVault.sol\":60:2152  contract DigitalVault{... */\n      mstore(0x40, 0x80)\n      callvalue\n      dup1\n      iszero\n      tag_1\n      jumpi\n      revert(0x00, 0x00)\n    tag_1:\n      pop\n      jumpi(tag_2, lt(calldatasize, 0x04))\n      shr(0xe0, calldataload(0x00))\n      dup1\n      0x7ed6c926\n      gt\n      tag_19\n      jumpi\n      dup1\n      0xaede67ea\n      gt\n      tag_20\n      jumpi\n      dup1\n      0xaede67ea\n      eq\n      tag_15\n      jumpi\n      dup1\n      0xb6b55f25\n      eq\n      tag_16\n      jumpi\n      dup1\n      0xbe1c766b\n      eq\n      tag_17\n      jumpi\n      dup1\n      0xec36d35e\n      eq\n      tag_18\n      jumpi\n      jump(tag_2)\n    tag_20:\n      dup1\n      0x7ed6c926\n      eq\n      tag_11\n      jumpi\n      dup1\n      0x7fd25e6f\n      eq\n      tag_12\n      jumpi\n      dup1\n      0x86f54712\n      eq\n      tag_13\n      jumpi\n      dup1\n      0x9624b8a7\n      eq\n      tag_14\n      jumpi\n      jump(tag_2)\n    tag_19:\n      dup1\n      0x2e1a7d4d\n      gt\n      tag_21\n      jumpi\n      dup1\n      0x2e1a7d4d\n      eq\n      tag_7\n      jumpi\n      dup1\n      0x3e116de5\n      eq\n      tag_8\n      jumpi\n      dup1\n      0x65ac2320\n      eq\n      tag_9\n      jumpi\n      dup1\n      0x6729f7ec\n      eq\n      tag_10\n      jumpi\n      jump(tag_2)\n    tag_21:\n      dup1\n      0x0bf6cc08\n      eq\n      tag_3\n      jumpi\n      dup1\n      0x0dccd51e\n      eq\n      tag_4\n      jumpi\n      dup1\n      0x18976fa2\n      eq\n      tag_5\n      jumpi\n      dup1\n      0x295795e2\n      eq\n      tag_6\n      jumpi\n    tag_2:\n      revert(0x00, 0x00)\n        /* \"Class_3 (27.2.26)/1.DigitalVault.sol\":146:170  uint public vaultBalance */\n    tag_3:\n      tag_22\n      tag_23\n      jump\t// in\n    tag_22:\n      mload(0x40)\n      tag_24\n      swap2\n      swap1\n      tag_25\n      jump\t// in\n    tag_24:\n      mload(0x40)\n      dup1\n      swap2\n      sub\n      swap1\n      return\n        /* \"Class_3 (27.2.26)/1.DigitalVault.sol\":1966:2141  function getSecretByte(uint index) public view returns (bytes1) {... */\n    tag_4:\n      tag_26\n      0x04\n      dup1\n      calldatasize\n      sub\n      dup2\n      add\n      swap1\n      tag_27\n      swap2\n      swap1\n      tag_28\n      jump\t// in\n    tag_27:\n      tag_29\n      jump\t// in\n    tag_26:\n      mload(0x40)\n      tag_30\n      swap2\n      swap1\n      tag_31\n      jump\t// in\n    tag_30:\n      mload(0x40)\n      dup1\n      swap2\n      sub\n      swap1\n      return\n        /* \"Class_3 (27.2.26)/1.DigitalVault.sol\":1556:1623  function closeVault() public {... */\n    tag_5:\n      tag_32\n      tag_33\n      jump\t// in\n    tag_32:\n      stop\n        /* \"Class_3 (27.2.26)/1.DigitalVault.sol\":537:622  function setOwnerName(string memory _name) public{... */\n    tag_6:\n      tag_34\n      0x04\n      dup1\n      calldatasize\n      sub\n      dup2\n      add\n      swap1\n      tag_35\n      swap2\n      swap1\n      tag_36\n      jump\t// in\n    tag_35:\n      tag_37\n      jump\t// in\n    tag_34:\n      stop\n        /* \"Class_3 (27.2.26)/1.DigitalVault.sol\":1177:1448  function withdraw(uint amount) public {... */\n    tag_7:\n      tag_38\n      0x04\n      dup1\n      calldatasize\n      sub\n      dup2\n      add\n      swap1\n      tag_39\n      swap2\n      swap1\n      tag_28\n      jump\t// in\n    tag_39:\n      tag_40\n      jump\t// in\n    tag_38:\n      stop\n        /* \"Class_3 (27.2.26)/1.DigitalVault.sol\":730:877  function verifyOwner(string memory _name) public view returns(bool){... */\n    tag_8:\n      tag_41\n      0x04\n      dup1\n      calldatasize\n      sub\n      dup2\n      add\n      swap1\n      tag_42\n      swap2\n      swap1\n      tag_36\n      jump\t// in\n    tag_42:\n      tag_43\n      jump\t// in\n    tag_41:\n      mload(0x40)\n      tag_44\n      swap2\n      swap1\n      tag_45\n      jump\t// in\n    tag_44:\n      mload(0x40)\n      dup1\n      swap2\n      sub\n      swap1\n      return\n        /* \"Class_3 (27.2.26)/1.DigitalVault.sol\":88:111  string public ownerName */\n    tag_9:\n      tag_46\n      tag_47\n      jump\t// in\n    tag_46:\n      mload(0x40)\n      tag_48\n      swap2\n      swap1\n      tag_49\n      jump\t// in\n    tag_48:\n      mload(0x40)\n      dup1\n      swap2\n      sub\n      swap1\n      return\n        /* \"Class_3 (27.2.26)/1.DigitalVault.sol\":269:294  int public netTranscation */\n    tag_10:\n      tag_50\n      tag_51\n      jump\t// in\n    tag_50:\n      mload(0x40)\n      tag_52\n      swap2\n      swap1\n      tag_53\n      jump\t// in\n    tag_52:\n      mload(0x40)\n      dup1\n      swap2\n      sub\n      swap1\n      return\n        /* \"Class_3 (27.2.26)/1.DigitalVault.sol\":1764:1856  function setSecret (string memory _code) public {... */\n    tag_11:\n      tag_54\n      0x04\n      dup1\n      calldatasize\n      sub\n      dup2\n      add\n      swap1\n      tag_55\n      swap2\n      swap1\n      tag_36\n      jump\t// in\n    tag_55:\n      tag_56\n      jump\t// in\n    tag_54:\n      stop\n        /* \"Class_3 (27.2.26)/1.DigitalVault.sol\":334:357  bytes public secretCode */\n    tag_12:\n      tag_57\n      tag_58\n      jump\t// in\n    tag_57:\n      mload(0x40)\n      tag_59\n      swap2\n      swap1\n      tag_60\n      jump\t// in\n    tag_59:\n      mload(0x40)\n      dup1\n      swap2\n      sub\n      swap1\n      return\n        /* \"Class_3 (27.2.26)/1.DigitalVault.sol\":1485:1550  function openVault() public {... */\n    tag_13:\n      tag_61\n      tag_62\n      jump\t// in\n    tag_61:\n      stop\n        /* \"Class_3 (27.2.26)/1.DigitalVault.sol\":1862:1959  function getSecretLength () public view returns (uint){... */\n    tag_14:\n      tag_63\n      tag_64\n      jump\t// in\n    tag_63:\n      mload(0x40)\n      tag_65\n      swap2\n      swap1\n      tag_25\n      jump\t// in\n    tag_65:\n      mload(0x40)\n      dup1\n      swap2\n      sub\n      swap1\n      return\n        /* \"Class_3 (27.2.26)/1.DigitalVault.sol\":1629:1719  function getVaultStatus() public view returns (bool) {... */\n    tag_15:\n      tag_66\n      tag_67\n      jump\t// in\n    tag_66:\n      mload(0x40)\n      tag_68\n      swap2\n      swap1\n      tag_45\n      jump\t// in\n    tag_68:\n      mload(0x40)\n      dup1\n      swap2\n      sub\n      swap1\n      return\n        /* \"Class_3 (27.2.26)/1.DigitalVault.sol\":938:1143  function deposit(uint amount) public{... */\n    tag_16:\n      tag_69\n      0x04\n      dup1\n      calldatasize\n      sub\n      dup2\n      add\n      swap1\n      tag_70\n      swap2\n      swap1\n      tag_28\n      jump\t// in\n    tag_70:\n      tag_71\n      jump\t// in\n    tag_69:\n      stop\n        /* \"Class_3 (27.2.26)/1.DigitalVault.sol\":628:724  function getLength() public view returns(uint){... */\n    tag_17:\n      tag_72\n      tag_73\n      jump\t// in\n    tag_72:\n      mload(0x40)\n      tag_74\n      swap2\n      swap1\n      tag_25\n      jump\t// in\n    tag_74:\n      mload(0x40)\n      dup1\n      swap2\n      sub\n      swap1\n      return\n        /* \"Class_3 (27.2.26)/1.DigitalVault.sol\":204:227  bool public isVaultOpen */\n    tag_18:\n      tag_75\n      tag_76\n      jump\t// in\n    tag_75:\n      mload(0x40)\n      tag_77\n      swap2\n      swap1\n      tag_45\n      jump\t// in\n    tag_77:\n      mload(0x40)\n      dup1\n      swap2\n      sub\n      swap1\n      return\n        /* \"Class_3 (27.2.26)/1.DigitalVault.sol\":146:170  uint public vaultBalance */\n    tag_23:\n      sload(0x01)\n      dup2\n      jump\t// out\n        /* \"Class_3 (27.2.26)/1.DigitalVault.sol\":1966:2141  function getSecretByte(uint index) public view returns (bytes1) {... */\n    tag_29:\n        /* \"Class_3 (27.2.26)/1.DigitalVault.sol\":2022:2028  bytes1 */\n      0x00\n        /* \"Class_3 (27.2.26)/1.DigitalVault.sol\":2057:2067  secretCode */\n      0x04\n        /* \"Class_3 (27.2.26)/1.DigitalVault.sol\":2057:2074  secretCode.length */\n      dup1\n      sload\n      tag_79\n      swap1\n      tag_80\n      jump\t// in\n    tag_79:\n      swap1\n      pop\n        /* \"Class_3 (27.2.26)/1.DigitalVault.sol\":2049:2054  index */\n      dup3\n        /* \"Class_3 (27.2.26)/1.DigitalVault.sol\":2049:2074  index < secretCode.length */\n      lt\n        /* \"Class_3 (27.2.26)/1.DigitalVault.sol\":2041:2098  require(index < secretCode.length, \"Index out of bounds\") */\n      tag_81\n      jumpi\n      mload(0x40)\n      0x08c379a000000000000000000000000000000000000000000000000000000000\n      dup2\n      mstore\n      0x04\n      add\n      tag_82\n      swap1\n      tag_83\n      jump\t// in\n    tag_82:\n      mload(0x40)\n      dup1\n      swap2\n      sub\n      swap1\n      revert\n    tag_81:\n        /* \"Class_3 (27.2.26)/1.DigitalVault.sol\":2116:2126  secretCode */\n      0x04\n        /* \"Class_3 (27.2.26)/1.DigitalVault.sol\":2127:2132  index */\n      dup3\n        /* \"Class_3 (27.2.26)/1.DigitalVault.sol\":2116:2133  secretCode[index] */\n      dup2\n      sload\n      tag_84\n      swap1\n      tag_80\n      jump\t// in\n    tag_84:\n      dup2\n      lt\n      tag_85\n      jumpi\n      tag_86\n      tag_87\n      jump\t// in\n    tag_86:\n    tag_85:\n      dup2\n      sload\n      0x01\n      and\n      iszero\n      tag_88\n      jumpi\n      swap1\n      0x00\n      mstore\n      keccak256(0x00, 0x20)\n      swap1\n      0x20\n      swap2\n      dup3\n      dup3\n      div\n      add\n      swap2\n      swap1\n      mod\n    tag_88:\n      swap1\n      sload\n      swap1\n      byte\n      0x0100000000000000000000000000000000000000000000000000000000000000\n      mul\n        /* \"Class_3 (27.2.26)/1.DigitalVault.sol\":2109:2133  return secretCode[index] */\n      swap1\n      pop\n        /* \"Class_3 (27.2.26)/1.DigitalVault.sol\":1966:2141  function getSecretByte(uint index) public view returns (bytes1) {... */\n      swap2\n      swap1\n      pop\n      jump\t// out\n        /* \"Class_3 (27.2.26)/1.DigitalVault.sol\":1556:1623  function closeVault() public {... */\n    tag_33:\n        /* \"Class_3 (27.2.26)/1.DigitalVault.sol\":1610:1615  false */\n      0x00\n        /* \"Class_3 (27.2.26)/1.DigitalVault.sol\":1596:1607  isVaultOpen */\n      0x02\n      0x00\n        /* \"Class_3 (27.2.26)/1.DigitalVault.sol\":1596:1615  isVaultOpen = false */\n      0x0100\n      exp\n      dup2\n      sload\n      dup2\n      0xff\n      mul\n      not\n      and\n      swap1\n      dup4\n      iszero\n      iszero\n      mul\n      or\n      swap1\n      sstore\n      pop\n        /* \"Class_3 (27.2.26)/1.DigitalVault.sol\":1556:1623  function closeVault() public {... */\n      jump\t// out\n        /* \"Class_3 (27.2.26)/1.DigitalVault.sol\":537:622  function setOwnerName(string memory _name) public{... */\n    tag_37:\n        /* \"Class_3 (27.2.26)/1.DigitalVault.sol\":609:614  _name */\n      dup1\n        /* \"Class_3 (27.2.26)/1.DigitalVault.sol\":597:606  ownerName */\n      0x00\n        /* \"Class_3 (27.2.26)/1.DigitalVault.sol\":597:614  ownerName = _name */\n      swap1\n      dup2\n      tag_91\n      swap2\n      swap1\n      tag_92\n      jump\t// in\n    tag_91:\n      pop\n        /* \"Class_3 (27.2.26)/1.DigitalVault.sol\":537:622  function setOwnerName(string memory _name) public{... */\n      pop\n      jump\t// out\n        /* \"Class_3 (27.2.26)/1.DigitalVault.sol\":1177:1448  function withdraw(uint amount) public {... */\n    tag_40:\n        /* \"Class_3 (27.2.26)/1.DigitalVault.sol\":1234:1245  isVaultOpen */\n      0x02\n      0x00\n      swap1\n      sload\n      swap1\n      0x0100\n      exp\n      swap1\n      div\n      0xff\n      and\n        /* \"Class_3 (27.2.26)/1.DigitalVault.sol\":1226:1265  require(isVaultOpen, \"Vault is closed\") */\n      tag_94\n      jumpi\n      mload(0x40)\n      0x08c379a000000000000000000000000000000000000000000000000000000000\n      dup2\n      mstore\n      0x04\n      add\n      tag_95\n      swap1\n      tag_96\n      jump\t// in\n    tag_95:\n      mload(0x40)\n      dup1\n      swap2\n      sub\n      swap1\n      revert\n    tag_94:\n        /* \"Class_3 (27.2.26)/1.DigitalVault.sol\":1300:1306  amount */\n      dup1\n        /* \"Class_3 (27.2.26)/1.DigitalVault.sol\":1284:1296  vaultBalance */\n      sload(0x01)\n        /* \"Class_3 (27.2.26)/1.DigitalVault.sol\":1284:1306  vaultBalance >= amount */\n      lt\n      iszero\n        /* \"Class_3 (27.2.26)/1.DigitalVault.sol\":1276:1331  require(vaultBalance >= amount, \"Insufficient balance\") */\n      tag_97\n      jumpi\n      mload(0x40)\n      0x08c379a000000000000000000000000000000000000000000000000000000000\n      dup2\n      mstore\n      0x04\n      add\n      tag_98\n      swap1\n      tag_99\n      jump\t// in\n    tag_98:\n      mload(0x40)\n      dup1\n      swap2\n      sub\n      swap1\n      revert\n    tag_97:\n        /* \"Class_3 (27.2.26)/1.DigitalVault.sol\":1358:1364  amount */\n      dup1\n        /* \"Class_3 (27.2.26)/1.DigitalVault.sol\":1342:1354  vaultBalance */\n      0x01\n      0x00\n        /* \"Class_3 (27.2.26)/1.DigitalVault.sol\":1342:1364  vaultBalance -= amount */\n      dup3\n      dup3\n      sload\n      tag_100\n      swap2\n      swap1\n      tag_101\n      jump\t// in\n    tag_100:\n      swap3\n      pop\n      pop\n      dup2\n      swap1\n      sstore\n      pop\n        /* \"Class_3 (27.2.26)/1.DigitalVault.sol\":1397:1403  amount */\n      dup1\n        /* \"Class_3 (27.2.26)/1.DigitalVault.sol\":1375:1389  netTranscation */\n      0x03\n      0x00\n        /* \"Class_3 (27.2.26)/1.DigitalVault.sol\":1375:1404  netTranscation -= int(amount) */\n      dup3\n      dup3\n      sload\n      tag_102\n      swap2\n      swap1\n      tag_103\n      jump\t// in\n    tag_102:\n      swap3\n      pop\n      pop\n      dup2\n      swap1\n      sstore\n      pop\n        /* \"Class_3 (27.2.26)/1.DigitalVault.sol\":1177:1448  function withdraw(uint amount) public {... */\n      pop\n      jump\t// out\n        /* \"Class_3 (27.2.26)/1.DigitalVault.sol\":730:877  function verifyOwner(string memory _name) public view returns(bool){... */\n    tag_43:\n        /* \"Class_3 (27.2.26)/1.DigitalVault.sol\":792:796  bool */\n      0x00\n        /* \"Class_3 (27.2.26)/1.DigitalVault.sol\":862:867  _name */\n      dup2\n        /* \"Class_3 (27.2.26)/1.DigitalVault.sol\":846:869  keccak256(bytes(_name)) */\n      dup1\n      mload\n      swap1\n      0x20\n      add\n      keccak256\n        /* \"Class_3 (27.2.26)/1.DigitalVault.sol\":831:840  ownerName */\n      0x00\n        /* \"Class_3 (27.2.26)/1.DigitalVault.sol\":815:842  keccak256(bytes(ownerName)) */\n      mload(0x40)\n      tag_105\n      swap2\n      swap1\n      tag_106\n      jump\t// in\n    tag_105:\n      mload(0x40)\n      dup1\n      swap2\n      sub\n      swap1\n      keccak256\n        /* \"Class_3 (27.2.26)/1.DigitalVault.sol\":815:869  keccak256(bytes(ownerName)) == keccak256(bytes(_name)) */\n      eq\n        /* \"Class_3 (27.2.26)/1.DigitalVault.sol\":808:869  return keccak256(bytes(ownerName)) == keccak256(bytes(_name)) */\n      swap1\n      pop\n        /* \"Class_3 (27.2.26)/1.DigitalVault.sol\":730:877  function verifyOwner(string memory _name) public view returns(bool){... */\n      swap2\n      swap1\n      pop\n      jump\t// out\n        /* \"Class_3 (27.2.26)/1.DigitalVault.sol\":88:111  string public ownerName */\n    tag_47:\n      0x00\n      dup1\n      sload\n      tag_107\n      swap1\n      tag_80\n      jump\t// in\n    tag_107:\n      dup1\n      0x1f\n      add\n      0x20\n      dup1\n      swap2\n      div\n      mul\n      0x20\n      add\n      mload(0x40)\n      swap1\n      dup2\n      add\n      0x40\n      mstore\n      dup1\n      swap3\n      swap2\n      swap1\n      dup2\n      dup2\n      mstore\n      0x20\n      add\n      dup3\n      dup1\n      sload\n      tag_108\n      swap1\n      tag_80\n      jump\t// in\n    tag_108:\n      dup1\n      iszero\n      tag_109\n      jumpi\n      dup1\n      0x1f\n      lt\n      tag_110\n      jumpi\n      0x0100\n      dup1\n      dup4\n      sload\n      div\n      mul\n      dup4\n      mstore\n      swap2\n      0x20\n      add\n      swap2\n      jump(tag_109)\n    tag_110:\n      dup3\n      add\n      swap2\n      swap1\n      0x00\n      mstore\n      keccak256(0x00, 0x20)\n      swap1\n    tag_111:\n      dup2\n      sload\n      dup2\n      mstore\n      swap1\n      0x01\n      add\n      swap1\n      0x20\n      add\n      dup1\n      dup4\n      gt\n      tag_111\n      jumpi\n      dup3\n      swap1\n      sub\n      0x1f\n      and\n      dup3\n      add\n      swap2\n    tag_109:\n      pop\n      pop\n      pop\n      pop\n      pop\n      dup2\n      jump\t// out\n        /* \"Class_3 (27.2.26)/1.DigitalVault.sol\":269:294  int public netTranscation */\n    tag_51:\n      sload(0x03)\n      dup2\n      jump\t// out\n        /* \"Class_3 (27.2.26)/1.DigitalVault.sol\":1764:1856  function setSecret (string memory _code) public {... */\n    tag_56:\n        /* \"Class_3 (27.2.26)/1.DigitalVault.sol\":1842:1847  _code */\n      dup1\n        /* \"Class_3 (27.2.26)/1.DigitalVault.sol\":1823:1833  secretCode */\n      0x04\n        /* \"Class_3 (27.2.26)/1.DigitalVault.sol\":1823:1848  secretCode = bytes(_code) */\n      swap1\n      dup2\n      tag_113\n      swap2\n      swap1\n      tag_114\n      jump\t// in\n    tag_113:\n      pop\n        /* \"Class_3 (27.2.26)/1.DigitalVault.sol\":1764:1856  function setSecret (string memory _code) public {... */\n      pop\n      jump\t// out\n        /* \"Class_3 (27.2.26)/1.DigitalVault.sol\":334:357  bytes public secretCode */\n    tag_58:\n      0x04\n      dup1\n      sload\n      tag_115\n      swap1\n      tag_80\n      jump\t// in\n    tag_115:\n      dup1\n      0x1f\n      add\n      0x20\n      dup1\n      swap2\n      div\n      mul\n      0x20\n      add\n      mload(0x40)\n      swap1\n      dup2\n      add\n      0x40\n      mstore\n      dup1\n      swap3\n      swap2\n      swap1\n      dup2\n      dup2\n      mstore\n      0x20\n      add\n      dup3\n      dup1\n      sload\n      tag_116\n      swap1\n      tag_80\n      jump\t// in\n    tag_116:\n      dup1\n      iszero\n      tag_117\n      jumpi\n      dup1\n      0x1f\n      lt\n      tag_118\n      jumpi\n      0x0100\n      dup1\n      dup4\n      sload\n      div\n      mul\n      dup4\n      mstore\n      swap2\n      0x20\n      add\n      swap2\n      jump(tag_117)\n    tag_118:\n      dup3\n      add\n      swap2\n      swap1\n      0x00\n      mstore\n      keccak256(0x00, 0x20)\n      swap1\n    tag_119:\n      dup2\n      sload\n      dup2\n      mstore\n      swap1\n      0x01\n      add\n      swap1\n      0x20\n      add\n      dup1\n      dup4\n      gt\n      tag_119\n      jumpi\n      dup3\n      swap1\n      sub\n      0x1f\n      and\n      dup3\n      add\n      swap2\n    tag_117:\n      pop\n      pop\n      pop\n      pop\n      pop\n      dup2\n      jump\t// out\n        /* \"Class_3 (27.2.26)/1.DigitalVault.sol\":1485:1550  function openVault() public {... */\n    tag_62:\n        /* \"Class_3 (27.2.26)/1.DigitalVault.sol\":1538:1542  true */\n      0x01\n        /* \"Class_3 (27.2.26)/1.DigitalVault.sol\":1524:1535  isVaultOpen */\n      0x02\n      0x00\n        /* \"Class_3 (27.2.26)/1.DigitalVault.sol\":1524:1542  isVaultOpen = true */\n      0x0100\n      exp\n      dup2\n      sload\n      dup2\n      0xff\n      mul\n      not\n      and\n      swap1\n      dup4\n      iszero\n      iszero\n      mul\n      or\n      swap1\n      sstore\n      pop\n        /* \"Class_3 (27.2.26)/1.DigitalVault.sol\":1485:1550  function openVault() public {... */\n      jump\t// out\n        /* \"Class_3 (27.2.26)/1.DigitalVault.sol\":1862:1959  function getSecretLength () public view returns (uint){... */\n    tag_64:\n        /* \"Class_3 (27.2.26)/1.DigitalVault.sol\":1911:1915  uint */\n      0x00\n        /* \"Class_3 (27.2.26)/1.DigitalVault.sol\":1934:1944  secretCode */\n      0x04\n        /* \"Class_3 (27.2.26)/1.DigitalVault.sol\":1934:1951  secretCode.length */\n      dup1\n      sload\n      tag_122\n      swap1\n      tag_80\n      jump\t// in\n    tag_122:\n      swap1\n      pop\n        /* \"Class_3 (27.2.26)/1.DigitalVault.sol\":1927:1951  return secretCode.length */\n      swap1\n      pop\n        /* \"Class_3 (27.2.26)/1.DigitalVault.sol\":1862:1959  function getSecretLength () public view returns (uint){... */\n      swap1\n      jump\t// out\n        /* \"Class_3 (27.2.26)/1.DigitalVault.sol\":1629:1719  function getVaultStatus() public view returns (bool) {... */\n    tag_67:\n        /* \"Class_3 (27.2.26)/1.DigitalVault.sol\":1676:1680  bool */\n      0x00\n        /* \"Class_3 (27.2.26)/1.DigitalVault.sol\":1700:1711  isVaultOpen */\n      0x02\n      0x00\n      swap1\n      sload\n      swap1\n      0x0100\n      exp\n      swap1\n      div\n      0xff\n      and\n        /* \"Class_3 (27.2.26)/1.DigitalVault.sol\":1693:1711  return isVaultOpen */\n      swap1\n      pop\n        /* \"Class_3 (27.2.26)/1.DigitalVault.sol\":1629:1719  function getVaultStatus() public view returns (bool) {... */\n      swap1\n      jump\t// out\n        /* \"Class_3 (27.2.26)/1.DigitalVault.sol\":938:1143  function deposit(uint amount) public{... */\n    tag_71:\n        /* \"Class_3 (27.2.26)/1.DigitalVault.sol\":993:1004  isVaultOpen */\n      0x02\n      0x00\n      swap1\n      sload\n      swap1\n      0x0100\n      exp\n      swap1\n      div\n      0xff\n      and\n        /* \"Class_3 (27.2.26)/1.DigitalVault.sol\":985:1024  require(isVaultOpen, \"Vault is closed\") */\n      tag_125\n      jumpi\n      mload(0x40)\n      0x08c379a000000000000000000000000000000000000000000000000000000000\n      dup2\n      mstore\n      0x04\n      add\n      tag_126\n      swap1\n      tag_96\n      jump\t// in\n    tag_126:\n      mload(0x40)\n      dup1\n      swap2\n      sub\n      swap1\n      revert\n    tag_125:\n        /* \"Class_3 (27.2.26)/1.DigitalVault.sol\":1051:1057  amount */\n      dup1\n        /* \"Class_3 (27.2.26)/1.DigitalVault.sol\":1035:1047  vaultBalance */\n      0x01\n      0x00\n        /* \"Class_3 (27.2.26)/1.DigitalVault.sol\":1035:1057  vaultBalance += amount */\n      dup3\n      dup3\n      sload\n      tag_127\n      swap2\n      swap1\n      tag_128\n      jump\t// in\n    tag_127:\n      swap3\n      pop\n      pop\n      dup2\n      swap1\n      sstore\n      pop\n        /* \"Class_3 (27.2.26)/1.DigitalVault.sol\":1090:1096  amount */\n      dup1\n        /* \"Class_3 (27.2.26)/1.DigitalVault.sol\":1068:1082  netTranscation */\n      0x03\n      0x00\n        /* \"Class_3 (27.2.26)/1.DigitalVault.sol\":1068:1097  netTranscation += int(amount) */\n      dup3\n      dup3\n      sload\n      tag_129\n      swap2\n      swap1\n      tag_130\n      jump\t// in\n    tag_129:\n      swap3\n      pop\n      pop\n      dup2\n      swap1\n      sstore\n      pop\n        /* \"Class_3 (27.2.26)/1.DigitalVault.sol\":938:1143  function deposit(uint amount) public{... */\n      pop\n      jump\t// out\n        /* \"Class_3 (27.2.26)/1.DigitalVault.sol\":628:724  function getLength() public view returns(uint){... */\n    tag_73:\n        /* \"Class_3 (27.2.26)/1.DigitalVault.sol\":669:673  uint */\n      0x00\n        /* \"Class_3 (27.2.26)/1.DigitalVault.sol\":698:707  ownerName */\n      0x00\n        /* \"Class_3 (27.2.26)/1.DigitalVault.sol\":692:715  bytes(ownerName).length */\n      dup1\n      sload\n      tag_132\n      swap1\n      tag_80\n      jump\t// in\n    tag_132:\n      swap1\n      pop\n        /* \"Class_3 (27.2.26)/1.DigitalVault.sol\":685:716  return(bytes(ownerName).length) */\n      swap1\n      pop\n        /* \"Class_3 (27.2.26)/1.DigitalVault.sol\":628:724  function getLength() public view returns(uint){... */\n      swap1\n      jump\t// out\n        /* \"Class_3 (27.2.26)/1.DigitalVault.sol\":204:227  bool public isVaultOpen */\n    tag_76:\n      0x02\n      0x00\n      swap1\n      sload\n      swap1\n      0x0100\n      exp\n      swap1\n      div\n      0xff\n      and\n      dup2\n      jump\t// out\n        /* \"#utility.yul\":7:84   */\n    tag_133:\n        /* \"#utility.yul\":44:51   */\n      0x00\n        /* \"#utility.yul\":73:78   */\n      dup2\n        /* \"#utility.yul\":62:78   */\n      swap1\n      pop\n        /* \"#utility.yul\":7:84   */\n      swap2\n      swap1\n      pop\n      jump\t// out\n        /* \"#utility.yul\":90:208   */\n    tag_134:\n        /* \"#utility.yul\":177:201   */\n      tag_194\n        /* \"#utility.yul\":195:200   */\n      dup2\n        /* \"#utility.yul\":177:201   */\n      tag_133\n      jump\t// in\n    tag_194:\n        /* \"#utility.yul\":172:175   */\n      dup3\n        /* \"#utility.yul\":165:202   */\n      mstore\n        /* \"#utility.yul\":90:208   */\n      pop\n      pop\n      jump\t// out\n        /* \"#utility.yul\":214:436   */\n    tag_25:\n        /* \"#utility.yul\":307:311   */\n      0x00\n        /* \"#utility.yul\":345:347   */\n      0x20\n        /* \"#utility.yul\":334:343   */\n      dup3\n        /* \"#utility.yul\":330:348   */\n      add\n        /* \"#utility.yul\":322:348   */\n      swap1\n      pop\n        /* \"#utility.yul\":358:429   */\n      tag_196\n        /* \"#utility.yul\":426:427   */\n      0x00\n        /* \"#utility.yul\":415:424   */\n      dup4\n        /* \"#utility.yul\":411:428   */\n      add\n        /* \"#utility.yul\":402:408   */\n      dup5\n        /* \"#utility.yul\":358:429   */\n      tag_134\n      jump\t// in\n    tag_196:\n        /* \"#utility.yul\":214:436   */\n      swap3\n      swap2\n      pop\n      pop\n      jump\t// out\n        /* \"#utility.yul\":442:517   */\n    tag_135:\n        /* \"#utility.yul\":475:481   */\n      0x00\n        /* \"#utility.yul\":508:510   */\n      0x40\n        /* \"#utility.yul\":502:511   */\n      mload\n        /* \"#utility.yul\":492:511   */\n      swap1\n      pop\n        /* \"#utility.yul\":442:517   */\n      swap1\n      jump\t// out\n        /* \"#utility.yul\":523:640   */\n    tag_136:\n        /* \"#utility.yul\":632:633   */\n      0x00\n        /* \"#utility.yul\":629:630   */\n      0x00\n        /* \"#utility.yul\":622:634   */\n      revert\n        /* \"#utility.yul\":646:763   */\n    tag_137:\n        /* \"#utility.yul\":755:756   */\n      0x00\n        /* \"#utility.yul\":752:753   */\n      0x00\n        /* \"#utility.yul\":745:757   */\n      revert\n        /* \"#utility.yul\":769:891   */\n    tag_138:\n        /* \"#utility.yul\":842:866   */\n      tag_201\n        /* \"#utility.yul\":860:865   */\n      dup2\n        /* \"#utility.yul\":842:866   */\n      tag_133\n      jump\t// in\n    tag_201:\n        /* \"#utility.yul\":835:840   */\n      dup2\n        /* \"#utility.yul\":832:867   */\n      eq\n        /* \"#utility.yul\":822:885   */\n      tag_202\n      jumpi\n        /* \"#utility.yul\":881:882   */\n      0x00\n        /* \"#utility.yul\":878:879   */\n      0x00\n        /* \"#utility.yul\":871:883   */\n      revert\n        /* \"#utility.yul\":822:885   */\n    tag_202:\n        /* \"#utility.yul\":769:891   */\n      pop\n      jump\t// out\n        /* \"#utility.yul\":897:1036   */\n    tag_139:\n        /* \"#utility.yul\":943:948   */\n      0x00\n        /* \"#utility.yul\":981:987   */\n      dup2\n        /* \"#utility.yul\":968:988   */\n      calldataload\n        /* \"#utility.yul\":959:988   */\n      swap1\n      pop\n        /* \"#utility.yul\":997:1030   */\n      tag_204\n        /* \"#utility.yul\":1024:1029   */\n      dup2\n        /* \"#utility.yul\":997:1030   */\n      tag_138\n      jump\t// in\n    tag_204:\n        /* \"#utility.yul\":897:1036   */\n      swap3\n      swap2\n      pop\n      pop\n      jump\t// out\n        /* \"#utility.yul\":1042:1371   */\n    tag_28:\n        /* \"#utility.yul\":1101:1107   */\n      0x00\n        /* \"#utility.yul\":1150:1152   */\n      0x20\n        /* \"#utility.yul\":1138:1147   */\n      dup3\n        /* \"#utility.yul\":1129:1136   */\n      dup5\n        /* \"#utility.yul\":1125:1148   */\n      sub\n        /* \"#utility.yul\":1121:1153   */\n      slt\n        /* \"#utility.yul\":1118:1237   */\n      iszero\n      tag_206\n      jumpi\n        /* \"#utility.yul\":1156:1235   */\n      tag_207\n      tag_136\n      jump\t// in\n    tag_207:\n        /* \"#utility.yul\":1118:1237   */\n    tag_206:\n        /* \"#utility.yul\":1276:1277   */\n      0x00\n        /* \"#utility.yul\":1301:1354   */\n      tag_208\n        /* \"#utility.yul\":1346:1353   */\n      dup5\n        /* \"#utility.yul\":1337:1343   */\n      dup3\n        /* \"#utility.yul\":1326:1335   */\n      dup6\n        /* \"#utility.yul\":1322:1344   */\n      add\n        /* \"#utility.yul\":1301:1354   */\n      tag_139\n      jump\t// in\n    tag_208:\n        /* \"#utility.yul\":1291:1354   */\n      swap2\n      pop\n        /* \"#utility.yul\":1247:1364   */\n      pop\n        /* \"#utility.yul\":1042:1371   */\n      swap3\n      swap2\n      pop\n      pop\n      jump\t// out\n        /* \"#utility.yul\":1377:1526   */\n    tag_140:\n        /* \"#utility.yul\":1413:1420   */\n      0x00\n        /* \"#utility.yul\":1453:1519   */\n      0xff00000000000000000000000000000000000000000000000000000000000000\n        /* \"#utility.yul\":1446:1451   */\n      dup3\n        /* \"#utility.yul\":1442:1520   */\n      and\n        /* \"#utility.yul\":1431:1520   */\n      swap1\n      pop\n        /* \"#utility.yul\":1377:1526   */\n      swap2\n      swap1\n      pop\n      jump\t// out\n        /* \"#utility.yul\":1532:1647   */\n    tag_141:\n        /* \"#utility.yul\":1617:1640   */\n      tag_211\n        /* \"#utility.yul\":1634:1639   */\n      dup2\n        /* \"#utility.yul\":1617:1640   */\n      tag_140\n      jump\t// in\n    tag_211:\n        /* \"#utility.yul\":1612:1615   */\n      dup3\n        /* \"#utility.yul\":1605:1641   */\n      mstore\n        /* \"#utility.yul\":1532:1647   */\n      pop\n      pop\n      jump\t// out\n        /* \"#utility.yul\":1653:1871   */\n    tag_31:\n        /* \"#utility.yul\":1744:1748   */\n      0x00\n        /* \"#utility.yul\":1782:1784   */\n      0x20\n        /* \"#utility.yul\":1771:1780   */\n      dup3\n        /* \"#utility.yul\":1767:1785   */\n      add\n        /* \"#utility.yul\":1759:1785   */\n      swap1\n      pop\n        /* \"#utility.yul\":1795:1864   */\n      tag_213\n        /* \"#utility.yul\":1861:1862   */\n      0x00\n        /* \"#utility.yul\":1850:1859   */\n      dup4\n        /* \"#utility.yul\":1846:1863   */\n      add\n        /* \"#utility.yul\":1837:1843   */\n      dup5\n        /* \"#utility.yul\":1795:1864   */\n      tag_141\n      jump\t// in\n    tag_213:\n        /* \"#utility.yul\":1653:1871   */\n      swap3\n      swap2\n      pop\n      pop\n      jump\t// out\n        /* \"#utility.yul\":1877:1994   */\n    tag_142:\n        /* \"#utility.yul\":1986:1987   */\n      0x00\n        /* \"#utility.yul\":1983:1984   */\n      0x00\n        /* \"#utility.yul\":1976:1988   */\n      revert\n        /* \"#utility.yul\":2000:2117   */\n    tag_143:\n        /* \"#utility.yul\":2109:2110   */\n      0x00\n        /* \"#utility.yul\":2106:2107   */\n      0x00\n        /* \"#utility.yul\":2099:2111   */\n      revert\n        /* \"#utility.yul\":2123:2225   */\n    tag_144:\n        /* \"#utility.yul\":2164:2170   */\n      0x00\n        /* \"#utility.yul\":2215:2217   */\n      0x1f\n        /* \"#utility.yul\":2211:2218   */\n      not\n        /* \"#utility.yul\":2206:2208   */\n      0x1f\n        /* \"#utility.yul\":2199:2204   */\n      dup4\n        /* \"#utility.yul\":2195:2209   */\n      add\n        /* \"#utility.yul\":2191:2219   */\n      and\n        /* \"#utility.yul\":2181:2219   */\n      swap1\n      pop\n        /* \"#utility.yul\":2123:2225   */\n      swap2\n      swap1\n      pop\n      jump\t// out\n        /* \"#utility.yul\":2231:2411   */\n    tag_145:\n        /* \"#utility.yul\":2279:2356   */\n      0x4e487b7100000000000000000000000000000000000000000000000000000000\n        /* \"#utility.yul\":2276:2277   */\n      0x00\n        /* \"#utility.yul\":2269:2357   */\n      mstore\n        /* \"#utility.yul\":2376:2380   */\n      0x41\n        /* \"#utility.yul\":2373:2374   */\n      0x04\n        /* \"#utility.yul\":2366:2381   */\n      mstore\n        /* \"#utility.yul\":2400:2404   */\n      0x24\n        /* \"#utility.yul\":2397:2398   */\n      0x00\n        /* \"#utility.yul\":2390:2405   */\n      revert\n        /* \"#utility.yul\":2417:2698   */\n    tag_146:\n        /* \"#utility.yul\":2500:2527   */\n      tag_219\n        /* \"#utility.yul\":2522:2526   */\n      dup3\n        /* \"#utility.yul\":2500:2527   */\n      tag_144\n      jump\t// in\n    tag_219:\n        /* \"#utility.yul\":2492:2498   */\n      dup2\n        /* \"#utility.yul\":2488:2528   */\n      add\n        /* \"#utility.yul\":2630:2636   */\n      dup2\n        /* \"#utility.yul\":2618:2628   */\n      dup2\n        /* \"#utility.yul\":2615:2637   */\n      lt\n        /* \"#utility.yul\":2594:2612   */\n      0xffffffffffffffff\n        /* \"#utility.yul\":2582:2592   */\n      dup3\n        /* \"#utility.yul\":2579:2613   */\n      gt\n        /* \"#utility.yul\":2576:2638   */\n      or\n        /* \"#utility.yul\":2573:2661   */\n      iszero\n      tag_220\n      jumpi\n        /* \"#utility.yul\":2641:2659   */\n      tag_221\n      tag_145\n      jump\t// in\n    tag_221:\n        /* \"#utility.yul\":2573:2661   */\n    tag_220:\n        /* \"#utility.yul\":2681:2691   */\n      dup1\n        /* \"#utility.yul\":2677:2679   */\n      0x40\n        /* \"#utility.yul\":2670:2692   */\n      mstore\n        /* \"#utility.yul\":2460:2698   */\n      pop\n        /* \"#utility.yul\":2417:2698   */\n      pop\n      pop\n      jump\t// out\n        /* \"#utility.yul\":2704:2833   */\n    tag_147:\n        /* \"#utility.yul\":2738:2744   */\n      0x00\n        /* \"#utility.yul\":2765:2785   */\n      tag_223\n      tag_135\n      jump\t// in\n    tag_223:\n        /* \"#utility.yul\":2755:2785   */\n      swap1\n      pop\n        /* \"#utility.yul\":2794:2827   */\n      tag_224\n        /* \"#utility.yul\":2822:2826   */\n      dup3\n        /* \"#utility.yul\":2814:2820   */\n      dup3\n        /* \"#utility.yul\":2794:2827   */\n      tag_146\n      jump\t// in\n    tag_224:\n        /* \"#utility.yul\":2704:2833   */\n      swap2\n      swap1\n      pop\n      jump\t// out\n        /* \"#utility.yul\":2839:3147   */\n    tag_148:\n        /* \"#utility.yul\":2901:2905   */\n      0x00\n        /* \"#utility.yul\":2991:3009   */\n      0xffffffffffffffff\n        /* \"#utility.yul\":2983:2989   */\n      dup3\n        /* \"#utility.yul\":2980:3010   */\n      gt\n        /* \"#utility.yul\":2977:3033   */\n      iszero\n      tag_226\n      jumpi\n        /* \"#utility.yul\":3013:3031   */\n      tag_227\n      tag_145\n      jump\t// in\n    tag_227:\n        /* \"#utility.yul\":2977:3033   */\n    tag_226:\n        /* \"#utility.yul\":3051:3080   */\n      tag_228\n        /* \"#utility.yul\":3073:3079   */\n      dup3\n        /* \"#utility.yul\":3051:3080   */\n      tag_144\n      jump\t// in\n    tag_228:\n        /* \"#utility.yul\":3043:3080   */\n      swap1\n      pop\n        /* \"#utility.yul\":3135:3139   */\n      0x20\n        /* \"#utility.yul\":3129:3133   */\n      dup2\n        /* \"#utility.yul\":3125:3140   */\n      add\n        /* \"#utility.yul\":3117:3140   */\n      swap1\n      pop\n        /* \"#utility.yul\":2839:3147   */\n      swap2\n      swap1\n      pop\n      jump\t// out\n        /* \"#utility.yul\":3153:3301   */\n    tag_149:\n        /* \"#utility.yul\":3251:3257   */\n      dup3\n        /* \"#utility.yul\":3246:3249   */\n      dup2\n        /* \"#utility.yul\":3241:3244   */\n      dup4\n        /* \"#utility.yul\":3228:3258   */\n      calldatacopy\n        /* \"#utility.yul\":3292:3293   */\n      0x00\n        /* \"#utility.yul\":3283:3289   */\n      dup4\n        /* \"#utility.yul\":3278:3281   */\n      dup4\n        /* \"#utility.yul\":3274:3290   */\n      add\n        /* \"#utility.yul\":3267:3294   */\n      mstore\n        /* \"#utility.yul\":3153:3301   */\n      pop\n      pop\n      pop\n      jump\t// out\n        /* \"#utility.yul\":3307:3732   */\n    tag_150:\n        /* \"#utility.yul\":3385:3390   */\n      0x00\n        /* \"#utility.yul\":3410:3476   */\n      tag_231\n        /* \"#utility.yul\":3426:3475   */\n      tag_232\n        /* \"#utility.yul\":3468:3474   */\n      dup5\n        /* \"#utility.yul\":3426:3475   */\n      tag_148\n      jump\t// in\n    tag_232:\n        /* \"#utility.yul\":3410:3476   */\n      tag_147\n      jump\t// in\n    tag_231:\n        /* \"#utility.yul\":3401:3476   */\n      swap1\n      pop\n        /* \"#utility.yul\":3499:3505   */\n      dup3\n        /* \"#utility.yul\":3492:3497   */\n      dup2\n        /* \"#utility.yul\":3485:3506   */\n      mstore\n        /* \"#utility.yul\":3537:3541   */\n      0x20\n        /* \"#utility.yul\":3530:3535   */\n      dup2\n        /* \"#utility.yul\":3526:3542   */\n      add\n        /* \"#utility.yul\":3575:3578   */\n      dup5\n        /* \"#utility.yul\":3566:3572   */\n      dup5\n        /* \"#utility.yul\":3561:3564   */\n      dup5\n        /* \"#utility.yul\":3557:3573   */\n      add\n        /* \"#utility.yul\":3554:3579   */\n      gt\n        /* \"#utility.yul\":3551:3663   */\n      iszero\n      tag_233\n      jumpi\n        /* \"#utility.yul\":3582:3661   */\n      tag_234\n      tag_143\n      jump\t// in\n    tag_234:\n        /* \"#utility.yul\":3551:3663   */\n    tag_233:\n        /* \"#utility.yul\":3672:3726   */\n      tag_235\n        /* \"#utility.yul\":3719:3725   */\n      dup5\n        /* \"#utility.yul\":3714:3717   */\n      dup3\n        /* \"#utility.yul\":3709:3712   */\n      dup6\n        /* \"#utility.yul\":3672:3726   */\n      tag_149\n      jump\t// in\n    tag_235:\n        /* \"#utility.yul\":3391:3732   */\n      pop\n        /* \"#utility.yul\":3307:3732   */\n      swap4\n      swap3\n      pop\n      pop\n      pop\n      jump\t// out\n        /* \"#utility.yul\":3752:4092   */\n    tag_151:\n        /* \"#utility.yul\":3808:3813   */\n      0x00\n        /* \"#utility.yul\":3857:3860   */\n      dup3\n        /* \"#utility.yul\":3850:3854   */\n      0x1f\n        /* \"#utility.yul\":3842:3848   */\n      dup4\n        /* \"#utility.yul\":3838:3855   */\n      add\n        /* \"#utility.yul\":3834:3861   */\n      slt\n        /* \"#utility.yul\":3824:3946   */\n      tag_237\n      jumpi\n        /* \"#utility.yul\":3865:3944   */\n      tag_238\n      tag_142\n      jump\t// in\n    tag_238:\n        /* \"#utility.yul\":3824:3946   */\n    tag_237:\n        /* \"#utility.yul\":3982:3988   */\n      dup2\n        /* \"#utility.yul\":3969:3989   */\n      calldataload\n        /* \"#utility.yul\":4007:4086   */\n      tag_239\n        /* \"#utility.yul\":4082:4085   */\n      dup5\n        /* \"#utility.yul\":4074:4080   */\n      dup3\n        /* \"#utility.yul\":4067:4071   */\n      0x20\n        /* \"#utility.yul\":4059:4065   */\n      dup7\n        /* \"#utility.yul\":4055:4072   */\n      add\n        /* \"#utility.yul\":4007:4086   */\n      tag_150\n      jump\t// in\n    tag_239:\n        /* \"#utility.yul\":3998:4086   */\n      swap2\n      pop\n        /* \"#utility.yul\":3814:4092   */\n      pop\n        /* \"#utility.yul\":3752:4092   */\n      swap3\n      swap2\n      pop\n      pop\n      jump\t// out\n        /* \"#utility.yul\":4098:4607   */\n    tag_36:\n        /* \"#utility.yul\":4167:4173   */\n      0x00\n        /* \"#utility.yul\":4216:4218   */\n      0x20\n        /* \"#utility.yul\":4204:4213   */\n      dup3\n        /* \"#utility.yul\":4195:4202   */\n      dup5\n        /* \"#utility.yul\":4191:4214   */\n      sub\n        /* \"#utility.yul\":4187:4219   */\n      slt\n        /* \"#utility.yul\":4184:4303   */\n      iszero\n      tag_241\n      jumpi\n        /* \"#utility.yul\":4222:4301   */\n      tag_242\n      tag_136\n      jump\t// in\n    tag_242:\n        /* \"#utility.yul\":4184:4303   */\n    tag_241:\n        /* \"#utility.yul\":4370:4371   */\n      0x00\n        /* \"#utility.yul\":4359:4368   */\n      dup3\n        /* \"#utility.yul\":4355:4372   */\n      add\n        /* \"#utility.yul\":4342:4373   */\n      calldataload\n        /* \"#utility.yul\":4400:4418   */\n      0xffffffffffffffff\n        /* \"#utility.yul\":4392:4398   */\n      dup2\n        /* \"#utility.yul\":4389:4419   */\n      gt\n        /* \"#utility.yul\":4386:4503   */\n      iszero\n      tag_243\n      jumpi\n        /* \"#utility.yul\":4422:4501   */\n      tag_244\n      tag_137\n      jump\t// in\n    tag_244:\n        /* \"#utility.yul\":4386:4503   */\n    tag_243:\n        /* \"#utility.yul\":4527:4590   */\n      tag_245\n        /* \"#utility.yul\":4582:4589   */\n      dup5\n        /* \"#utility.yul\":4573:4579   */\n      dup3\n        /* \"#utility.yul\":4562:4571   */\n      dup6\n        /* \"#utility.yul\":4558:4580   */\n      add\n        /* \"#utility.yul\":4527:4590   */\n      tag_151\n      jump\t// in\n    tag_245:\n        /* \"#utility.yul\":4517:4590   */\n      swap2\n      pop\n        /* \"#utility.yul\":4313:4600   */\n      pop\n        /* \"#utility.yul\":4098:4607   */\n      swap3\n      swap2\n      pop\n      pop\n      jump\t// out\n        /* \"#utility.yul\":4613:4703   */\n    tag_152:\n        /* \"#utility.yul\":4647:4654   */\n      0x00\n        /* \"#utility.yul\":4690:4695   */\n      dup2\n        /* \"#utility.yul\":4683:4696   */\n      iszero\n        /* \"#utility.yul\":4676:4697   */\n      iszero\n        /* \"#utility.yul\":4665:4697   */\n      swap1\n      pop\n        /* \"#utility.yul\":4613:4703   */\n      swap2\n      swap1\n      pop\n      jump\t// out\n        /* \"#utility.yul\":4709:4818   */\n    tag_153:\n        /* \"#utility.yul\":4790:4811   */\n      tag_248\n        /* \"#utility.yul\":4805:4810   */\n      dup2\n        /* \"#utility.yul\":4790:4811   */\n      tag_152\n      jump\t// in\n    tag_248:\n        /* \"#utility.yul\":4785:4788   */\n      dup3\n        /* \"#utility.yul\":4778:4812   */\n      mstore\n        /* \"#utility.yul\":4709:4818   */\n      pop\n      pop\n      jump\t// out\n        /* \"#utility.yul\":4824:5034   */\n    tag_45:\n        /* \"#utility.yul\":4911:4915   */\n      0x00\n        /* \"#utility.yul\":4949:4951   */\n      0x20\n        /* \"#utility.yul\":4938:4947   */\n      dup3\n        /* \"#utility.yul\":4934:4952   */\n      add\n        /* \"#utility.yul\":4926:4952   */\n      swap1\n      pop\n        /* \"#utility.yul\":4962:5027   */\n      tag_250\n        /* \"#utility.yul\":5024:5025   */\n      0x00\n        /* \"#utility.yul\":5013:5022   */\n      dup4\n        /* \"#utility.yul\":5009:5026   */\n      add\n        /* \"#utility.yul\":5000:5006   */\n      dup5\n        /* \"#utility.yul\":4962:5027   */\n      tag_153\n      jump\t// in\n    tag_250:\n        /* \"#utility.yul\":4824:5034   */\n      swap3\n      swap2\n      pop\n      pop\n      jump\t// out\n        /* \"#utility.yul\":5040:5139   */\n    tag_154:\n        /* \"#utility.yul\":5092:5098   */\n      0x00\n        /* \"#utility.yul\":5126:5131   */\n      dup2\n        /* \"#utility.yul\":5120:5132   */\n      mload\n        /* \"#utility.yul\":5110:5132   */\n      swap1\n      pop\n        /* \"#utility.yul\":5040:5139   */\n      swap2\n      swap1\n      pop\n      jump\t// out\n        /* \"#utility.yul\":5145:5314   */\n    tag_155:\n        /* \"#utility.yul\":5229:5240   */\n      0x00\n        /* \"#utility.yul\":5263:5269   */\n      dup3\n        /* \"#utility.yul\":5258:5261   */\n      dup3\n        /* \"#utility.yul\":5251:5270   */\n      mstore\n        /* \"#utility.yul\":5303:5307   */\n      0x20\n        /* \"#utility.yul\":5298:5301   */\n      dup3\n        /* \"#utility.yul\":5294:5308   */\n      add\n        /* \"#utility.yul\":5279:5308   */\n      swap1\n      pop\n        /* \"#utility.yul\":5145:5314   */\n      swap3\n      swap2\n      pop\n      pop\n      jump\t// out\n        /* \"#utility.yul\":5320:5459   */\n    tag_156:\n        /* \"#utility.yul\":5409:5415   */\n      dup3\n        /* \"#utility.yul\":5404:5407   */\n      dup2\n        /* \"#utility.yul\":5399:5402   */\n      dup4\n        /* \"#utility.yul\":5393:5416   */\n      mcopy\n        /* \"#utility.yul\":5450:5451   */\n      0x00\n        /* \"#utility.yul\":5441:5447   */\n      dup4\n        /* \"#utility.yul\":5436:5439   */\n      dup4\n        /* \"#utility.yul\":5432:5448   */\n      add\n        /* \"#utility.yul\":5425:5452   */\n      mstore\n        /* \"#utility.yul\":5320:5459   */\n      pop\n      pop\n      pop\n      jump\t// out\n        /* \"#utility.yul\":5465:5842   */\n    tag_157:\n        /* \"#utility.yul\":5553:5556   */\n      0x00\n        /* \"#utility.yul\":5581:5620   */\n      tag_255\n        /* \"#utility.yul\":5614:5619   */\n      dup3\n        /* \"#utility.yul\":5581:5620   */\n      tag_154\n      jump\t// in\n    tag_255:\n        /* \"#utility.yul\":5636:5707   */\n      tag_256\n        /* \"#utility.yul\":5700:5706   */\n      dup2\n        /* \"#utility.yul\":5695:5698   */\n      dup6\n        /* \"#utility.yul\":5636:5707   */\n      tag_155\n      jump\t// in\n    tag_256:\n        /* \"#utility.yul\":5629:5707   */\n      swap4\n      pop\n        /* \"#utility.yul\":5716:5781   */\n      tag_257\n        /* \"#utility.yul\":5774:5780   */\n      dup2\n        /* \"#utility.yul\":5769:5772   */\n      dup6\n        /* \"#utility.yul\":5762:5766   */\n      0x20\n        /* \"#utility.yul\":5755:5760   */\n      dup7\n        /* \"#utility.yul\":5751:5767   */\n      add\n        /* \"#utility.yul\":5716:5781   */\n      tag_156\n      jump\t// in\n    tag_257:\n        /* \"#utility.yul\":5806:5835   */\n      tag_258\n        /* \"#utility.yul\":5828:5834   */\n      dup2\n        /* \"#utility.yul\":5806:5835   */\n      tag_144\n      jump\t// in\n    tag_258:\n        /* \"#utility.yul\":5801:5804   */\n      dup5\n        /* \"#utility.yul\":5797:5836   */\n      add\n        /* \"#utility.yul\":5790:5836   */\n      swap2\n      pop\n        /* \"#utility.yul\":5557:5842   */\n      pop\n        /* \"#utility.yul\":5465:5842   */\n      swap3\n      swap2\n      pop\n      pop\n      jump\t// out\n        /* \"#utility.yul\":5848:6161   */\n    tag_49:\n        /* \"#utility.yul\":5961:5965   */\n      0x00\n        /* \"#utility.yul\":5999:6001   */\n      0x20\n        /* \"#utility.yul\":5988:5997   */\n      dup3\n        /* \"#utility.yul\":5984:6002   */\n      add\n        /* \"#utility.yul\":5976:6002   */\n      swap1\n      pop\n        /* \"#utility.yul\":6048:6057   */\n      dup2\n        /* \"#utility.yul\":6042:6046   */\n      dup2\n        /* \"#utility.yul\":6038:6058   */\n      sub\n        /* \"#utility.yul\":6034:6035   */\n      0x00\n        /* \"#utility.yul\":6023:6032   */\n      dup4\n        /* \"#utility.yul\":6019:6036   */\n      add\n        /* \"#utility.yul\":6012:6059   */\n      mstore\n        /* \"#utility.yul\":6076:6154   */\n      tag_260\n        /* \"#utility.yul\":6149:6153   */\n      dup2\n        /* \"#utility.yul\":6140:6146   */\n      dup5\n        /* \"#utility.yul\":6076:6154   */\n      tag_157\n      jump\t// in\n    tag_260:\n        /* \"#utility.yul\":6068:6154   */\n      swap1\n      pop\n        /* \"#utility.yul\":5848:6161   */\n      swap3\n      swap2\n      pop\n      pop\n      jump\t// out\n        /* \"#utility.yul\":6167:6243   */\n    tag_158:\n        /* \"#utility.yul\":6203:6210   */\n      0x00\n        /* \"#utility.yul\":6232:6237   */\n      dup2\n        /* \"#utility.yul\":6221:6237   */\n      swap1\n      pop\n        /* \"#utility.yul\":6167:6243   */\n      swap2\n      swap1\n      pop\n      jump\t// out\n        /* \"#utility.yul\":6249:6364   */\n    tag_159:\n        /* \"#utility.yul\":6334:6357   */\n      tag_263\n        /* \"#utility.yul\":6351:6356   */\n      dup2\n        /* \"#utility.yul\":6334:6357   */\n      tag_158\n      jump\t// in\n    tag_263:\n        /* \"#utility.yul\":6329:6332   */\n      dup3\n        /* \"#utility.yul\":6322:6358   */\n      mstore\n        /* \"#utility.yul\":6249:6364   */\n      pop\n      pop\n      jump\t// out\n        /* \"#utility.yul\":6370:6588   */\n    tag_53:\n        /* \"#utility.yul\":6461:6465   */\n      0x00\n        /* \"#utility.yul\":6499:6501   */\n      0x20\n        /* \"#utility.yul\":6488:6497   */\n      dup3\n        /* \"#utility.yul\":6484:6502   */\n      add\n        /* \"#utility.yul\":6476:6502   */\n      swap1\n      pop\n        /* \"#utility.yul\":6512:6581   */\n      tag_265\n        /* \"#utility.yul\":6578:6579   */\n      0x00\n        /* \"#utility.yul\":6567:6576   */\n      dup4\n        /* \"#utility.yul\":6563:6580   */\n      add\n        /* \"#utility.yul\":6554:6560   */\n      dup5\n        /* \"#utility.yul\":6512:6581   */\n      tag_159\n      jump\t// in\n    tag_265:\n        /* \"#utility.yul\":6370:6588   */\n      swap3\n      swap2\n      pop\n      pop\n      jump\t// out\n        /* \"#utility.yul\":6594:6692   */\n    tag_160:\n        /* \"#utility.yul\":6645:6651   */\n      0x00\n        /* \"#utility.yul\":6679:6684   */\n      dup2\n        /* \"#utility.yul\":6673:6685   */\n      mload\n        /* \"#utility.yul\":6663:6685   */\n      swap1\n      pop\n        /* \"#utility.yul\":6594:6692   */\n      swap2\n      swap1\n      pop\n      jump\t// out\n        /* \"#utility.yul\":6698:6866   */\n    tag_161:\n        /* \"#utility.yul\":6781:6792   */\n      0x00\n        /* \"#utility.yul\":6815:6821   */\n      dup3\n        /* \"#utility.yul\":6810:6813   */\n      dup3\n        /* \"#utility.yul\":6803:6822   */\n      mstore\n        /* \"#utility.yul\":6855:6859   */\n      0x20\n        /* \"#utility.yul\":6850:6853   */\n      dup3\n        /* \"#utility.yul\":6846:6860   */\n      add\n        /* \"#utility.yul\":6831:6860   */\n      swap1\n      pop\n        /* \"#utility.yul\":6698:6866   */\n      swap3\n      swap2\n      pop\n      pop\n      jump\t// out\n        /* \"#utility.yul\":6872:7245   */\n    tag_162:\n        /* \"#utility.yul\":6958:6961   */\n      0x00\n        /* \"#utility.yul\":6986:7024   */\n      tag_269\n        /* \"#utility.yul\":7018:7023   */\n      dup3\n        /* \"#utility.yul\":6986:7024   */\n      tag_160\n      jump\t// in\n    tag_269:\n        /* \"#utility.yul\":7040:7110   */\n      tag_270\n        /* \"#utility.yul\":7103:7109   */\n      dup2\n        /* \"#utility.yul\":7098:7101   */\n      dup6\n        /* \"#utility.yul\":7040:7110   */\n      tag_161\n      jump\t// in\n    tag_270:\n        /* \"#utility.yul\":7033:7110   */\n      swap4\n      pop\n        /* \"#utility.yul\":7119:7184   */\n      tag_271\n        /* \"#utility.yul\":7177:7183   */\n      dup2\n        /* \"#utility.yul\":7172:7175   */\n      dup6\n        /* \"#utility.yul\":7165:7169   */\n      0x20\n        /* \"#utility.yul\":7158:7163   */\n      dup7\n        /* \"#utility.yul\":7154:7170   */\n      add\n        /* \"#utility.yul\":7119:7184   */\n      tag_156\n      jump\t// in\n    tag_271:\n        /* \"#utility.yul\":7209:7238   */\n      tag_272\n        /* \"#utility.yul\":7231:7237   */\n      dup2\n        /* \"#utility.yul\":7209:7238   */\n      tag_144\n      jump\t// in\n    tag_272:\n        /* \"#utility.yul\":7204:7207   */\n      dup5\n        /* \"#utility.yul\":7200:7239   */\n      add\n        /* \"#utility.yul\":7193:7239   */\n      swap2\n      pop\n        /* \"#utility.yul\":6962:7245   */\n      pop\n        /* \"#utility.yul\":6872:7245   */\n      swap3\n      swap2\n      pop\n      pop\n      jump\t// out\n        /* \"#utility.yul\":7251:7560   */\n    tag_60:\n        /* \"#utility.yul\":7362:7366   */\n      0x00\n        /* \"#utility.yul\":7400:7402   */\n      0x20\n        /* \"#utility.yul\":7389:7398   */\n      dup3\n        /* \"#utility.yul\":7385:7403   */\n      add\n        /* \"#utility.yul\":7377:7403   */\n      swap1\n      pop\n        /* \"#utility.yul\":7449:7458   */\n      dup2\n        /* \"#utility.yul\":7443:7447   */\n      dup2\n        /* \"#utility.yul\":7439:7459   */\n      sub\n        /* \"#utility.yul\":7435:7436   */\n      0x00\n        /* \"#utility.yul\":7424:7433   */\n      dup4\n        /* \"#utility.yul\":7420:7437   */\n      add\n        /* \"#utility.yul\":7413:7460   */\n      mstore\n        /* \"#utility.yul\":7477:7553   */\n      tag_274\n        /* \"#utility.yul\":7548:7552   */\n      dup2\n        /* \"#utility.yul\":7539:7545   */\n      dup5\n        /* \"#utility.yul\":7477:7553   */\n      tag_162\n      jump\t// in\n    tag_274:\n        /* \"#utility.yul\":7469:7553   */\n      swap1\n      pop\n        /* \"#utility.yul\":7251:7560   */\n      swap3\n      swap2\n      pop\n      pop\n      jump\t// out\n        /* \"#utility.yul\":7566:7746   */\n    tag_163:\n        /* \"#utility.yul\":7614:7691   */\n      0x4e487b7100000000000000000000000000000000000000000000000000000000\n        /* \"#utility.yul\":7611:7612   */\n      0x00\n        /* \"#utility.yul\":7604:7692   */\n      mstore\n        /* \"#utility.yul\":7711:7715   */\n      0x22\n        /* \"#utility.yul\":7708:7709   */\n      0x04\n        /* \"#utility.yul\":7701:7716   */\n      mstore\n        /* \"#utility.yul\":7735:7739   */\n      0x24\n        /* \"#utility.yul\":7732:7733   */\n      0x00\n        /* \"#utility.yul\":7725:7740   */\n      revert\n        /* \"#utility.yul\":7752:8072   */\n    tag_80:\n        /* \"#utility.yul\":7796:7802   */\n      0x00\n        /* \"#utility.yul\":7833:7834   */\n      0x02\n        /* \"#utility.yul\":7827:7831   */\n      dup3\n        /* \"#utility.yul\":7823:7835   */\n      div\n        /* \"#utility.yul\":7813:7835   */\n      swap1\n      pop\n        /* \"#utility.yul\":7880:7881   */\n      0x01\n        /* \"#utility.yul\":7874:7878   */\n      dup3\n        /* \"#utility.yul\":7870:7882   */\n      and\n        /* \"#utility.yul\":7901:7919   */\n      dup1\n        /* \"#utility.yul\":7891:7972   */\n      tag_277\n      jumpi\n        /* \"#utility.yul\":7957:7961   */\n      0x7f\n        /* \"#utility.yul\":7949:7955   */\n      dup3\n        /* \"#utility.yul\":7945:7962   */\n      and\n        /* \"#utility.yul\":7935:7962   */\n      swap2\n      pop\n        /* \"#utility.yul\":7891:7972   */\n    tag_277:\n        /* \"#utility.yul\":8019:8021   */\n      0x20\n        /* \"#utility.yul\":8011:8017   */\n      dup3\n        /* \"#utility.yul\":8008:8022   */\n      lt\n        /* \"#utility.yul\":7988:8006   */\n      dup2\n        /* \"#utility.yul\":7985:8023   */\n      sub\n        /* \"#utility.yul\":7982:8066   */\n      tag_278\n      jumpi\n        /* \"#utility.yul\":8038:8056   */\n      tag_279\n      tag_163\n      jump\t// in\n    tag_279:\n        /* \"#utility.yul\":7982:8066   */\n    tag_278:\n        /* \"#utility.yul\":7803:8072   */\n      pop\n        /* \"#utility.yul\":7752:8072   */\n      swap2\n      swap1\n      pop\n      jump\t// out\n        /* \"#utility.yul\":8078:8247   */\n    tag_164:\n        /* \"#utility.yul\":8218:8239   */\n      0x496e646578206f7574206f6620626f756e647300000000000000000000000000\n        /* \"#utility.yul\":8214:8215   */\n      0x00\n        /* \"#utility.yul\":8206:8212   */\n      dup3\n        /* \"#utility.yul\":8202:8216   */\n      add\n        /* \"#utility.yul\":8195:8240   */\n      mstore\n        /* \"#utility.yul\":8078:8247   */\n      pop\n      jump\t// out\n        /* \"#utility.yul\":8253:8619   */\n    tag_165:\n        /* \"#utility.yul\":8395:8398   */\n      0x00\n        /* \"#utility.yul\":8416:8483   */\n      tag_282\n        /* \"#utility.yul\":8480:8482   */\n      0x13\n        /* \"#utility.yul\":8475:8478   */\n      dup4\n        /* \"#utility.yul\":8416:8483   */\n      tag_155\n      jump\t// in\n    tag_282:\n        /* \"#utility.yul\":8409:8483   */\n      swap2\n      pop\n        /* \"#utility.yul\":8492:8585   */\n      tag_283\n        /* \"#utility.yul\":8581:8584   */\n      dup3\n        /* \"#utility.yul\":8492:8585   */\n      tag_164\n      jump\t// in\n    tag_283:\n        /* \"#utility.yul\":8610:8612   */\n      0x20\n        /* \"#utility.yul\":8605:8608   */\n      dup3\n        /* \"#utility.yul\":8601:8613   */\n      add\n        /* \"#utility.yul\":8594:8613   */\n      swap1\n      pop\n        /* \"#utility.yul\":8253:8619   */\n      swap2\n      swap1\n      pop\n      jump\t// out\n        /* \"#utility.yul\":8625:9044   */\n    tag_83:\n        /* \"#utility.yul\":8791:8795   */\n      0x00\n        /* \"#utility.yul\":8829:8831   */\n      0x20\n        /* \"#utility.yul\":8818:8827   */\n      dup3\n        /* \"#utility.yul\":8814:8832   */\n      add\n        /* \"#utility.yul\":8806:8832   */\n      swap1\n      pop\n        /* \"#utility.yul\":8878:8887   */\n      dup2\n        /* \"#utility.yul\":8872:8876   */\n      dup2\n        /* \"#utility.yul\":8868:8888   */\n      sub\n        /* \"#utility.yul\":8864:8865   */\n      0x00\n        /* \"#utility.yul\":8853:8862   */\n      dup4\n        /* \"#utility.yul\":8849:8866   */\n      add\n        /* \"#utility.yul\":8842:8889   */\n      mstore\n        /* \"#utility.yul\":8906:9037   */\n      tag_285\n        /* \"#utility.yul\":9032:9036   */\n      dup2\n        /* \"#utility.yul\":8906:9037   */\n      tag_165\n      jump\t// in\n    tag_285:\n        /* \"#utility.yul\":8898:9037   */\n      swap1\n      pop\n        /* \"#utility.yul\":8625:9044   */\n      swap2\n      swap1\n      pop\n      jump\t// out\n        /* \"#utility.yul\":9050:9230   */\n    tag_87:\n        /* \"#utility.yul\":9098:9175   */\n      0x4e487b7100000000000000000000000000000000000000000000000000000000\n        /* \"#utility.yul\":9095:9096   */\n      0x00\n        /* \"#utility.yul\":9088:9176   */\n      mstore\n        /* \"#utility.yul\":9195:9199   */\n      0x32\n        /* \"#utility.yul\":9192:9193   */\n      0x04\n        /* \"#utility.yul\":9185:9200   */\n      mstore\n        /* \"#utility.yul\":9219:9223   */\n      0x24\n        /* \"#utility.yul\":9216:9217   */\n      0x00\n        /* \"#utility.yul\":9209:9224   */\n      revert\n        /* \"#utility.yul\":9236:9377   */\n    tag_166:\n        /* \"#utility.yul\":9285:9289   */\n      0x00\n        /* \"#utility.yul\":9308:9311   */\n      dup2\n        /* \"#utility.yul\":9300:9311   */\n      swap1\n      pop\n        /* \"#utility.yul\":9331:9334   */\n      dup2\n        /* \"#utility.yul\":9328:9329   */\n      0x00\n        /* \"#utility.yul\":9321:9335   */\n      mstore\n        /* \"#utility.yul\":9365:9369   */\n      0x20\n        /* \"#utility.yul\":9362:9363   */\n      0x00\n        /* \"#utility.yul\":9352:9370   */\n      keccak256\n        /* \"#utility.yul\":9344:9370   */\n      swap1\n      pop\n        /* \"#utility.yul\":9236:9377   */\n      swap2\n      swap1\n      pop\n      jump\t// out\n        /* \"#utility.yul\":9383:9476   */\n    tag_167:\n        /* \"#utility.yul\":9420:9426   */\n      0x00\n        /* \"#utility.yul\":9467:9469   */\n      0x20\n        /* \"#utility.yul\":9462:9464   */\n      0x1f\n        /* \"#utility.yul\":9455:9460   */\n      dup4\n        /* \"#utility.yul\":9451:9465   */\n      add\n        /* \"#utility.yul\":9447:9470   */\n      div\n        /* \"#utility.yul\":9437:9470   */\n      swap1\n      pop\n        /* \"#utility.yul\":9383:9476   */\n      swap2\n      swap1\n      pop\n      jump\t// out\n        /* \"#utility.yul\":9482:9589   */\n    tag_168:\n        /* \"#utility.yul\":9526:9534   */\n      0x00\n        /* \"#utility.yul\":9576:9581   */\n      dup3\n        /* \"#utility.yul\":9570:9574   */\n      dup3\n        /* \"#utility.yul\":9566:9582   */\n      shl\n        /* \"#utility.yul\":9545:9582   */\n      swap1\n      pop\n        /* \"#utility.yul\":9482:9589   */\n      swap3\n      swap2\n      pop\n      pop\n      jump\t// out\n        /* \"#utility.yul\":9595:9988   */\n    tag_169:\n        /* \"#utility.yul\":9664:9670   */\n      0x00\n        /* \"#utility.yul\":9714:9715   */\n      0x08\n        /* \"#utility.yul\":9702:9712   */\n      dup4\n        /* \"#utility.yul\":9698:9716   */\n      mul\n        /* \"#utility.yul\":9737:9834   */\n      tag_291\n        /* \"#utility.yul\":9767:9833   */\n      0xffffffffffffffffffffffffffffffffffffffffffffffffffffffffffffffff\n        /* \"#utility.yul\":9756:9765   */\n      dup3\n        /* \"#utility.yul\":9737:9834   */\n      tag_168\n      jump\t// in\n    tag_291:\n        /* \"#utility.yul\":9855:9894   */\n      tag_292\n        /* \"#utility.yul\":9885:9893   */\n      dup7\n        /* \"#utility.yul\":9874:9883   */\n      dup4\n        /* \"#utility.yul\":9855:9894   */\n      tag_168\n      jump\t// in\n    tag_292:\n        /* \"#utility.yul\":9843:9894   */\n      swap6\n      pop\n        /* \"#utility.yul\":9927:9931   */\n      dup1\n        /* \"#utility.yul\":9923:9932   */\n      not\n        /* \"#utility.yul\":9916:9921   */\n      dup5\n        /* \"#utility.yul\":9912:9933   */\n      and\n        /* \"#utility.yul\":9903:9933   */\n      swap4\n      pop\n        /* \"#utility.yul\":9976:9980   */\n      dup1\n        /* \"#utility.yul\":9966:9974   */\n      dup7\n        /* \"#utility.yul\":9962:9981   */\n      and\n        /* \"#utility.yul\":9955:9960   */\n      dup5\n        /* \"#utility.yul\":9952:9982   */\n      or\n        /* \"#utility.yul\":9942:9982   */\n      swap3\n      pop\n        /* \"#utility.yul\":9671:9988   */\n      pop\n      pop\n        /* \"#utility.yul\":9595:9988   */\n      swap4\n      swap3\n      pop\n      pop\n      pop\n      jump\t// out\n        /* \"#utility.yul\":9994:10054   */\n    tag_170:\n        /* \"#utility.yul\":10022:10025   */\n      0x00\n        /* \"#utility.yul\":10043:10048   */\n      dup2\n        /* \"#utility.yul\":10036:10048   */\n      swap1\n      pop\n        /* \"#utility.yul\":9994:10054   */\n      swap2\n      swap1\n      pop\n      jump\t// out\n        /* \"#utility.yul\":10060:10202   */\n    tag_171:\n        /* \"#utility.yul\":10110:10119   */\n      0x00\n        /* \"#utility.yul\":10143:10196   */\n      tag_295\n        /* \"#utility.yul\":10161:10195   */\n      tag_296\n        /* \"#utility.yul\":10170:10194   */\n      tag_297\n        /* \"#utility.yul\":10188:10193   */\n      dup5\n        /* \"#utility.yul\":10170:10194   */\n      tag_133\n      jump\t// in\n    tag_297:\n        /* \"#utility.yul\":10161:10195   */\n      tag_170\n      jump\t// in\n    tag_296:\n        /* \"#utility.yul\":10143:10196   */\n      tag_133\n      jump\t// in\n    tag_295:\n        /* \"#utility.yul\":10130:10196   */\n      swap1\n      pop\n        /* \"#utility.yul\":10060:10202   */\n      swap2\n      swap1\n      pop\n      jump\t// out\n        /* \"#utility.yul\":10208:10283   */\n    tag_172:\n        /* \"#utility.yul\":10251:10254   */\n      0x00\n        /* \"#utility.yul\":10272:10277   */\n      dup2\n        /* \"#utility.yul\":10265:10277   */\n      swap1\n      pop\n        /* \"#utility.yul\":10208:10283   */\n      swap2\n      swap1\n      pop\n      jump\t// out\n        /* \"#utility.yul\":10289:10558   */\n    tag_173:\n        /* \"#utility.yul\":10399:10438   */\n      tag_300\n        /* \"#utility.yul\":10430:10437   */\n      dup4\n        /* \"#utility.yul\":10399:10438   */\n      tag_171\n      jump\t// in\n    tag_300:\n        /* \"#utility.yul\":10460:10551   */\n      tag_301\n        /* \"#utility.yul\":10509:10550   */\n      tag_302\n        /* \"#utility.yul\":10533:10549   */\n      dup3\n        /* \"#utility.yul\":10509:10550   */\n      tag_172\n      jump\t// in\n    tag_302:\n        /* \"#utility.yul\":10501:10507   */\n      dup5\n        /* \"#utility.yul\":10494:10498   */\n      dup5\n        /* \"#utility.yul\":10488:10499   */\n      sload\n        /* \"#utility.yul\":10460:10551   */\n      tag_169\n      jump\t// in\n    tag_301:\n        /* \"#utility.yul\":10454:10458   */\n      dup3\n        /* \"#utility.yul\":10447:10552   */\n      sstore\n        /* \"#utility.yul\":10365:10558   */\n      pop\n        /* \"#utility.yul\":10289:10558   */\n      pop\n      pop\n      pop\n      jump\t// out\n        /* \"#utility.yul\":10564:10637   */\n    tag_174:\n        /* \"#utility.yul\":10609:10612   */\n      0x00\n        /* \"#utility.yul\":10630:10631   */\n      0x00\n        /* \"#utility.yul\":10623:10631   */\n      swap1\n      pop\n        /* \"#utility.yul\":10564:10637   */\n      swap1\n      jump\t// out\n        /* \"#utility.yul\":10643:10832   */\n    tag_175:\n        /* \"#utility.yul\":10720:10752   */\n      tag_305\n      tag_174\n      jump\t// in\n    tag_305:\n        /* \"#utility.yul\":10761:10826   */\n      tag_306\n        /* \"#utility.yul\":10819:10825   */\n      dup2\n        /* \"#utility.yul\":10811:10817   */\n      dup5\n        /* \"#utility.yul\":10805:10809   */\n      dup5\n        /* \"#utility.yul\":10761:10826   */\n      tag_173\n      jump\t// in\n    tag_306:\n        /* \"#utility.yul\":10696:10832   */\n      pop\n        /* \"#utility.yul\":10643:10832   */\n      pop\n      pop\n      jump\t// out\n        /* \"#utility.yul\":10838:11024   */\n    tag_176:\n        /* \"#utility.yul\":10898:11018   */\n    tag_308:\n        /* \"#utility.yul\":10915:10918   */\n      dup2\n        /* \"#utility.yul\":10908:10913   */\n      dup2\n        /* \"#utility.yul\":10905:10919   */\n      lt\n        /* \"#utility.yul\":10898:11018   */\n      iszero\n      tag_310\n      jumpi\n        /* \"#utility.yul\":10969:11008   */\n      tag_311\n        /* \"#utility.yul\":11006:11007   */\n      0x00\n        /* \"#utility.yul\":10999:11004   */\n      dup3\n        /* \"#utility.yul\":10969:11008   */\n      tag_175\n      jump\t// in\n    tag_311:\n        /* \"#utility.yul\":10942:10943   */\n      0x01\n        /* \"#utility.yul\":10935:10940   */\n      dup2\n        /* \"#utility.yul\":10931:10944   */\n      add\n        /* \"#utility.yul\":10922:10944   */\n      swap1\n      pop\n        /* \"#utility.yul\":10898:11018   */\n      jump(tag_308)\n    tag_310:\n        /* \"#utility.yul\":10838:11024   */\n      pop\n      pop\n      jump\t// out\n        /* \"#utility.yul\":11030:11573   */\n    tag_177:\n        /* \"#utility.yul\":11131:11133   */\n      0x1f\n        /* \"#utility.yul\":11126:11129   */\n      dup3\n        /* \"#utility.yul\":11123:11134   */\n      gt\n        /* \"#utility.yul\":11120:11566   */\n      iszero\n      tag_313\n      jumpi\n        /* \"#utility.yul\":11165:11203   */\n      tag_314\n        /* \"#utility.yul\":11197:11202   */\n      dup2\n        /* \"#utility.yul\":11165:11203   */\n      tag_166\n      jump\t// in\n    tag_314:\n        /* \"#utility.yul\":11249:11278   */\n      tag_315\n        /* \"#utility.yul\":11267:11277   */\n      dup5\n        /* \"#utility.yul\":11249:11278   */\n      tag_167\n      jump\t// in\n    tag_315:\n        /* \"#utility.yul\":11239:11247   */\n      dup2\n        /* \"#utility.yul\":11235:11279   */\n      add\n        /* \"#utility.yul\":11432:11434   */\n      0x20\n        /* \"#utility.yul\":11420:11430   */\n      dup6\n        /* \"#utility.yul\":11417:11435   */\n      lt\n        /* \"#utility.yul\":11414:11463   */\n      iszero\n      tag_316\n      jumpi\n        /* \"#utility.yul\":11453:11461   */\n      dup2\n        /* \"#utility.yul\":11438:11461   */\n      swap1\n      pop\n        /* \"#utility.yul\":11414:11463   */\n    tag_316:\n        /* \"#utility.yul\":11476:11556   */\n      tag_317\n        /* \"#utility.yul\":11532:11554   */\n      tag_318\n        /* \"#utility.yul\":11550:11553   */\n      dup6\n        /* \"#utility.yul\":11532:11554   */\n      tag_167\n      jump\t// in\n    tag_318:\n        /* \"#utility.yul\":11522:11530   */\n      dup4\n        /* \"#utility.yul\":11518:11555   */\n      add\n        /* \"#utility.yul\":11505:11516   */\n      dup3\n        /* \"#utility.yul\":11476:11556   */\n      tag_176\n      jump\t// in\n    tag_317:\n        /* \"#utility.yul\":11135:11566   */\n      pop\n      pop\n        /* \"#utility.yul\":11120:11566   */\n    tag_313:\n        /* \"#utility.yul\":11030:11573   */\n      pop\n      pop\n      pop\n      jump\t// out\n        /* \"#utility.yul\":11579:11696   */\n    tag_178:\n        /* \"#utility.yul\":11633:11641   */\n      0x00\n        /* \"#utility.yul\":11683:11688   */\n      dup3\n        /* \"#utility.yul\":11677:11681   */\n      dup3\n        /* \"#utility.yul\":11673:11689   */\n      shr\n        /* \"#utility.yul\":11652:11689   */\n      swap1\n      pop\n        /* \"#utility.yul\":11579:11696   */\n      swap3\n      swap2\n      pop\n      pop\n      jump\t// out\n        /* \"#utility.yul\":11702:11871   */\n    tag_179:\n        /* \"#utility.yul\":11746:11752   */\n      0x00\n        /* \"#utility.yul\":11779:11830   */\n      tag_321\n        /* \"#utility.yul\":11827:11828   */\n      0x00\n        /* \"#utility.yul\":11823:11829   */\n      not\n        /* \"#utility.yul\":11815:11820   */\n      dup5\n        /* \"#utility.yul\":11812:11813   */\n      0x08\n        /* \"#utility.yul\":11808:11821   */\n      mul\n        /* \"#utility.yul\":11779:11830   */\n      tag_178\n      jump\t// in\n    tag_321:\n        /* \"#utility.yul\":11775:11831   */\n      not\n        /* \"#utility.yul\":11860:11864   */\n      dup1\n        /* \"#utility.yul\":11854:11858   */\n      dup4\n        /* \"#utility.yul\":11850:11865   */\n      and\n        /* \"#utility.yul\":11840:11865   */\n      swap2\n      pop\n        /* \"#utility.yul\":11753:11871   */\n      pop\n        /* \"#utility.yul\":11702:11871   */\n      swap3\n      swap2\n      pop\n      pop\n      jump\t// out\n        /* \"#utility.yul\":11876:12171   */\n    tag_180:\n        /* \"#utility.yul\":11952:11956   */\n      0x00\n        /* \"#utility.yul\":12098:12127   */\n      tag_323\n        /* \"#utility.yul\":12123:12126   */\n      dup4\n        /* \"#utility.yul\":12117:12121   */\n      dup4\n        /* \"#utility.yul\":12098:12127   */\n      tag_179\n      jump\t// in\n    tag_323:\n        /* \"#utility.yul\":12090:12127   */\n      swap2\n      pop\n        /* \"#utility.yul\":12160:12163   */\n      dup3\n        /* \"#utility.yul\":12157:12158   */\n      0x02\n        /* \"#utility.yul\":12153:12164   */\n      mul\n        /* \"#utility.yul\":12147:12151   */\n      dup3\n        /* \"#utility.yul\":12144:12165   */\n      or\n        /* \"#utility.yul\":12136:12165   */\n      swap1\n      pop\n        /* \"#utility.yul\":11876:12171   */\n      swap3\n      swap2\n      pop\n      pop\n      jump\t// out\n        /* \"#utility.yul\":12176:13571   */\n    tag_92:\n        /* \"#utility.yul\":12293:12330   */\n      tag_325\n        /* \"#utility.yul\":12326:12329   */\n      dup3\n        /* \"#utility.yul\":12293:12330   */\n      tag_154\n      jump\t// in\n    tag_325:\n        /* \"#utility.yul\":12395:12413   */\n      0xffffffffffffffff\n        /* \"#utility.yul\":12387:12393   */\n      dup2\n        /* \"#utility.yul\":12384:12414   */\n      gt\n        /* \"#utility.yul\":12381:12437   */\n      iszero\n      tag_326\n      jumpi\n        /* \"#utility.yul\":12417:12435   */\n      tag_327\n      tag_145\n      jump\t// in\n    tag_327:\n        /* \"#utility.yul\":12381:12437   */\n    tag_326:\n        /* \"#utility.yul\":12461:12499   */\n      tag_328\n        /* \"#utility.yul\":12493:12497   */\n      dup3\n        /* \"#utility.yul\":12487:12498   */\n      sload\n        /* \"#utility.yul\":12461:12499   */\n      tag_80\n      jump\t// in\n    tag_328:\n        /* \"#utility.yul\":12546:12613   */\n      tag_329\n        /* \"#utility.yul\":12606:12612   */\n      dup3\n        /* \"#utility.yul\":12598:12604   */\n      dup3\n        /* \"#utility.yul\":12592:12596   */\n      dup6\n        /* \"#utility.yul\":12546:12613   */\n      tag_177\n      jump\t// in\n    tag_329:\n        /* \"#utility.yul\":12640:12641   */\n      0x00\n        /* \"#utility.yul\":12664:12668   */\n      0x20\n        /* \"#utility.yul\":12651:12668   */\n      swap1\n      pop\n        /* \"#utility.yul\":12696:12698   */\n      0x1f\n        /* \"#utility.yul\":12688:12694   */\n      dup4\n        /* \"#utility.yul\":12685:12699   */\n      gt\n        /* \"#utility.yul\":12713:12714   */\n      0x01\n        /* \"#utility.yul\":12708:13326   */\n      dup2\n      eq\n      tag_331\n      jumpi\n        /* \"#utility.yul\":13370:13371   */\n      0x00\n        /* \"#utility.yul\":13387:13393   */\n      dup5\n        /* \"#utility.yul\":13384:13461   */\n      iszero\n      tag_332\n      jumpi\n        /* \"#utility.yul\":13436:13445   */\n      dup3\n        /* \"#utility.yul\":13431:13434   */\n      dup8\n        /* \"#utility.yul\":13427:13446   */\n      add\n        /* \"#utility.yul\":13421:13447   */\n      mload\n        /* \"#utility.yul\":13412:13447   */\n      swap1\n      pop\n        /* \"#utility.yul\":13384:13461   */\n    tag_332:\n        /* \"#utility.yul\":13487:13554   */\n      tag_333\n        /* \"#utility.yul\":13547:13553   */\n      dup6\n        /* \"#utility.yul\":13540:13545   */\n      dup3\n        /* \"#utility.yul\":13487:13554   */\n      tag_180\n      jump\t// in\n    tag_333:\n        /* \"#utility.yul\":13481:13485   */\n      dup7\n        /* \"#utility.yul\":13474:13555   */\n      sstore\n        /* \"#utility.yul\":13343:13565   */\n      pop\n        /* \"#utility.yul\":12678:13565   */\n      jump(tag_330)\n        /* \"#utility.yul\":12708:13326   */\n    tag_331:\n        /* \"#utility.yul\":12760:12764   */\n      0x1f\n        /* \"#utility.yul\":12756:12765   */\n      not\n        /* \"#utility.yul\":12748:12754   */\n      dup5\n        /* \"#utility.yul\":12744:12766   */\n      and\n        /* \"#utility.yul\":12794:12831   */\n      tag_334\n        /* \"#utility.yul\":12826:12830   */\n      dup7\n        /* \"#utility.yul\":12794:12831   */\n      tag_166\n      jump\t// in\n    tag_334:\n        /* \"#utility.yul\":12853:12854   */\n      0x00\n        /* \"#utility.yul\":12867:13075   */\n    tag_335:\n        /* \"#utility.yul\":12881:12888   */\n      dup3\n        /* \"#utility.yul\":12878:12879   */\n      dup2\n        /* \"#utility.yul\":12875:12889   */\n      lt\n        /* \"#utility.yul\":12867:13075   */\n      iszero\n      tag_337\n      jumpi\n        /* \"#utility.yul\":12960:12969   */\n      dup5\n        /* \"#utility.yul\":12955:12958   */\n      dup10\n        /* \"#utility.yul\":12951:12970   */\n      add\n        /* \"#utility.yul\":12945:12971   */\n      mload\n        /* \"#utility.yul\":12937:12943   */\n      dup3\n        /* \"#utility.yul\":12930:12972   */\n      sstore\n        /* \"#utility.yul\":13011:13012   */\n      0x01\n        /* \"#utility.yul\":13003:13009   */\n      dup3\n        /* \"#utility.yul\":12999:13013   */\n      add\n        /* \"#utility.yul\":12989:13013   */\n      swap2\n      pop\n        /* \"#utility.yul\":13058:13060   */\n      0x20\n        /* \"#utility.yul\":13047:13056   */\n      dup6\n        /* \"#utility.yul\":13043:13061   */\n      add\n        /* \"#utility.yul\":13030:13061   */\n      swap5\n      pop\n        /* \"#utility.yul\":12904:12908   */\n      0x20\n        /* \"#utility.yul\":12901:12902   */\n      dup2\n        /* \"#utility.yul\":12897:12909   */\n      add\n        /* \"#utility.yul\":12892:12909   */\n      swap1\n      pop\n        /* \"#utility.yul\":12867:13075   */\n      jump(tag_335)\n    tag_337:\n        /* \"#utility.yul\":13103:13109   */\n      dup7\n        /* \"#utility.yul\":13094:13101   */\n      dup4\n        /* \"#utility.yul\":13091:13110   */\n      lt\n        /* \"#utility.yul\":13088:13267   */\n      iszero\n      tag_338\n      jumpi\n        /* \"#utility.yul\":13161:13170   */\n      dup5\n        /* \"#utility.yul\":13156:13159   */\n      dup10\n        /* \"#utility.yul\":13152:13171   */\n      add\n        /* \"#utility.yul\":13146:13172   */\n      mload\n        /* \"#utility.yul\":13204:13252   */\n      tag_339\n        /* \"#utility.yul\":13246:13250   */\n      0x1f\n        /* \"#utility.yul\":13238:13244   */\n      dup10\n        /* \"#utility.yul\":13234:13251   */\n      and\n        /* \"#utility.yul\":13223:13232   */\n      dup3\n        /* \"#utility.yul\":13204:13252   */\n      tag_179\n      jump\t// in\n    tag_339:\n        /* \"#utility.yul\":13196:13202   */\n      dup4\n        /* \"#utility.yul\":13189:13253   */\n      sstore\n        /* \"#utility.yul\":13111:13267   */\n      pop\n        /* \"#utility.yul\":13088:13267   */\n    tag_338:\n        /* \"#utility.yul\":13313:13314   */\n      0x01\n        /* \"#utility.yul\":13309:13310   */\n      0x02\n        /* \"#utility.yul\":13301:13307   */\n      dup9\n        /* \"#utility.yul\":13297:13311   */\n      mul\n        /* \"#utility.yul\":13293:13315   */\n      add\n        /* \"#utility.yul\":13287:13291   */\n      dup9\n        /* \"#utility.yul\":13280:13316   */\n      sstore\n        /* \"#utility.yul\":12715:13326   */\n      pop\n      pop\n      pop\n        /* \"#utility.yul\":12678:13565   */\n    tag_330:\n      pop\n        /* \"#utility.yul\":12268:13571   */\n      pop\n      pop\n      pop\n        /* \"#utility.yul\":12176:13571   */\n      pop\n      pop\n      jump\t// out\n        /* \"#utility.yul\":13577:13742   */\n    tag_181:\n        /* \"#utility.yul\":13717:13734   */\n      0x5661756c7420697320636c6f7365640000000000000000000000000000000000\n        /* \"#utility.yul\":13713:13714   */\n      0x00\n        /* \"#utility.yul\":13705:13711   */\n      dup3\n        /* \"#utility.yul\":13701:13715   */\n      add\n        /* \"#utility.yul\":13694:13735   */\n      mstore\n        /* \"#utility.yul\":13577:13742   */\n      pop\n      jump\t// out\n        /* \"#utility.yul\":13748:14114   */\n    tag_182:\n        /* \"#utility.yul\":13890:13893   */\n      0x00\n        /* \"#utility.yul\":13911:13978   */\n      tag_342\n        /* \"#utility.yul\":13975:13977   */\n      0x0f\n        /* \"#utility.yul\":13970:13973   */\n      dup4\n        /* \"#utility.yul\":13911:13978   */\n      tag_155\n      jump\t// in\n    tag_342:\n        /* \"#utility.yul\":13904:13978   */\n      swap2\n      pop\n        /* \"#utility.yul\":13987:14080   */\n      tag_343\n        /* \"#utility.yul\":14076:14079   */\n      dup3\n        /* \"#utility.yul\":13987:14080   */\n      tag_181\n      jump\t// in\n    tag_343:\n        /* \"#utility.yul\":14105:14107   */\n      0x20\n        /* \"#utility.yul\":14100:14103   */\n      dup3\n        /* \"#utility.yul\":14096:14108   */\n      add\n        /* \"#utility.yul\":14089:14108   */\n      swap1\n      pop\n        /* \"#utility.yul\":13748:14114   */\n      swap2\n      swap1\n      pop\n      jump\t// out\n        /* \"#utility.yul\":14120:14539   */\n    tag_96:\n        /* \"#utility.yul\":14286:14290   */\n      0x00\n        /* \"#utility.yul\":14324:14326   */\n      0x20\n        /* \"#utility.yul\":14313:14322   */\n      dup3\n        /* \"#utility.yul\":14309:14327   */\n      add\n        /* \"#utility.yul\":14301:14327   */\n      swap1\n      pop\n        /* \"#utility.yul\":14373:14382   */\n      dup2\n        /* \"#utility.yul\":14367:14371   */\n      dup2\n        /* \"#utility.yul\":14363:14383   */\n      sub\n        /* \"#utility.yul\":14359:14360   */\n      0x00\n        /* \"#utility.yul\":14348:14357   */\n      dup4\n        /* \"#utility.yul\":14344:14361   */\n      add\n        /* \"#utility.yul\":14337:14384   */\n      mstore\n        /* \"#utility.yul\":14401:14532   */\n      tag_345\n        /* \"#utility.yul\":14527:14531   */\n      dup2\n        /* \"#utility.yul\":14401:14532   */\n      tag_182\n      jump\t// in\n    tag_345:\n        /* \"#utility.yul\":14393:14532   */\n      swap1\n      pop\n        /* \"#utility.yul\":14120:14539   */\n      swap2\n      swap1\n      pop\n      jump\t// out\n        /* \"#utility.yul\":14545:14715   */\n    tag_183:\n        /* \"#utility.yul\":14685:14707   */\n      0x496e73756666696369656e742062616c616e6365000000000000000000000000\n        /* \"#utility.yul\":14681:14682   */\n      0x00\n        /* \"#utility.yul\":14673:14679   */\n      dup3\n        /* \"#utility.yul\":14669:14683   */\n      add\n        /* \"#utility.yul\":14662:14708   */\n      mstore\n        /* \"#utility.yul\":14545:14715   */\n      pop\n      jump\t// out\n        /* \"#utility.yul\":14721:15087   */\n    tag_184:\n        /* \"#utility.yul\":14863:14866   */\n      0x00\n        /* \"#utility.yul\":14884:14951   */\n      tag_348\n        /* \"#utility.yul\":14948:14950   */\n      0x14\n        /* \"#utility.yul\":14943:14946   */\n      dup4\n        /* \"#utility.yul\":14884:14951   */\n      tag_155\n      jump\t// in\n    tag_348:\n        /* \"#utility.yul\":14877:14951   */\n      swap2\n      pop\n        /* \"#utility.yul\":14960:15053   */\n      tag_349\n        /* \"#utility.yul\":15049:15052   */\n      dup3\n        /* \"#utility.yul\":14960:15053   */\n      tag_183\n      jump\t// in\n    tag_349:\n        /* \"#utility.yul\":15078:15080   */\n      0x20\n        /* \"#utility.yul\":15073:15076   */\n      dup3\n        /* \"#utility.yul\":15069:15081   */\n      add\n        /* \"#utility.yul\":15062:15081   */\n      swap1\n      pop\n        /* \"#utility.yul\":14721:15087   */\n      swap2\n      swap1\n      pop\n      jump\t// out\n        /* \"#utility.yul\":15093:15512   */\n    tag_99:\n        /* \"#utility.yul\":15259:15263   */\n      0x00\n        /* \"#utility.yul\":15297:15299   */\n      0x20\n        /* \"#utility.yul\":15286:15295   */\n      dup3\n        /* \"#utility.yul\":15282:15300   */\n      add\n        /* \"#utility.yul\":15274:15300   */\n      swap1\n      pop\n        /* \"#utility.yul\":15346:15355   */\n      dup2\n        /* \"#utility.yul\":15340:15344   */\n      dup2\n        /* \"#utility.yul\":15336:15356   */\n      sub\n        /* \"#utility.yul\":15332:15333   */\n      0x00\n        /* \"#utility.yul\":15321:15330   */\n      dup4\n        /* \"#utility.yul\":15317:15334   */\n      add\n        /* \"#utility.yul\":15310:15357   */\n      mstore\n        /* \"#utility.yul\":15374:15505   */\n      tag_351\n        /* \"#utility.yul\":15500:15504   */\n      dup2\n        /* \"#utility.yul\":15374:15505   */\n      tag_184\n      jump\t// in\n    tag_351:\n        /* \"#utility.yul\":15366:15505   */\n      swap1\n      pop\n        /* \"#utility.yul\":15093:15512   */\n      swap2\n      swap1\n      pop\n      jump\t// out\n        /* \"#utility.yul\":15518:15698   */\n    tag_185:\n        /* \"#utility.yul\":15566:15643   */\n      0x4e487b7100000000000000000000000000000000000000000000000000000000\n        /* \"#utility.yul\":15563:15564   */\n      0x00\n        /* \"#utility.yul\":15556:15644   */\n      mstore\n        /* \"#utility.yul\":15663:15667   */\n      0x11\n        /* \"#utility.yul\":15660:15661   */\n      0x04\n        /* \"#utility.yul\":15653:15668   */\n      mstore\n        /* \"#utility.yul\":15687:15691   */\n      0x24\n        /* \"#utility.yul\":15684:15685   */\n      0x00\n        /* \"#utility.yul\":15677:15692   */\n      revert\n        /* \"#utility.yul\":15704:15898   */\n    tag_101:\n        /* \"#utility.yul\":15744:15748   */\n      0x00\n        /* \"#utility.yul\":15764:15784   */\n      tag_354\n        /* \"#utility.yul\":15782:15783   */\n      dup3\n        /* \"#utility.yul\":15764:15784   */\n      tag_133\n      jump\t// in\n    tag_354:\n        /* \"#utility.yul\":15759:15784   */\n      swap2\n      pop\n        /* \"#utility.yul\":15798:15818   */\n      tag_355\n        /* \"#utility.yul\":15816:15817   */\n      dup4\n        /* \"#utility.yul\":15798:15818   */\n      tag_133\n      jump\t// in\n    tag_355:\n        /* \"#utility.yul\":15793:15818   */\n      swap3\n      pop\n        /* \"#utility.yul\":15842:15843   */\n      dup3\n        /* \"#utility.yul\":15839:15840   */\n      dup3\n        /* \"#utility.yul\":15835:15844   */\n      sub\n        /* \"#utility.yul\":15827:15844   */\n      swap1\n      pop\n        /* \"#utility.yul\":15866:15867   */\n      dup2\n        /* \"#utility.yul\":15860:15864   */\n      dup2\n        /* \"#utility.yul\":15857:15868   */\n      gt\n        /* \"#utility.yul\":15854:15891   */\n      iszero\n      tag_356\n      jumpi\n        /* \"#utility.yul\":15871:15889   */\n      tag_357\n      tag_185\n      jump\t// in\n    tag_357:\n        /* \"#utility.yul\":15854:15891   */\n    tag_356:\n        /* \"#utility.yul\":15704:15898   */\n      swap3\n      swap2\n      pop\n      pop\n      jump\t// out\n        /* \"#utility.yul\":15904:16276   */\n    tag_103:\n        /* \"#utility.yul\":15943:15947   */\n      0x00\n        /* \"#utility.yul\":15963:15982   */\n      tag_359\n        /* \"#utility.yul\":15980:15981   */\n      dup3\n        /* \"#utility.yul\":15963:15982   */\n      tag_158\n      jump\t// in\n    tag_359:\n        /* \"#utility.yul\":15958:15982   */\n      swap2\n      pop\n        /* \"#utility.yul\":15996:16015   */\n      tag_360\n        /* \"#utility.yul\":16013:16014   */\n      dup4\n        /* \"#utility.yul\":15996:16015   */\n      tag_158\n      jump\t// in\n    tag_360:\n        /* \"#utility.yul\":15991:16015   */\n      swap3\n      pop\n        /* \"#utility.yul\":16039:16040   */\n      dup3\n        /* \"#utility.yul\":16036:16037   */\n      dup3\n        /* \"#utility.yul\":16032:16041   */\n      sub\n        /* \"#utility.yul\":16024:16041   */\n      swap1\n      pop\n        /* \"#utility.yul\":16233:16234   */\n      dup2\n        /* \"#utility.yul\":16227:16231   */\n      dup2\n        /* \"#utility.yul\":16223:16235   */\n      slt\n        /* \"#utility.yul\":16219:16220   */\n      0x00\n        /* \"#utility.yul\":16216:16217   */\n      dup5\n        /* \"#utility.yul\":16212:16221   */\n      slt\n        /* \"#utility.yul\":16208:16236   */\n      and\n        /* \"#utility.yul\":16191:16192   */\n      dup3\n        /* \"#utility.yul\":16185:16189   */\n      dup3\n        /* \"#utility.yul\":16181:16193   */\n      sgt\n        /* \"#utility.yul\":16176:16177   */\n      0x00\n        /* \"#utility.yul\":16173:16174   */\n      dup6\n        /* \"#utility.yul\":16169:16178   */\n      slt\n        /* \"#utility.yul\":16162:16179   */\n      iszero\n        /* \"#utility.yul\":16158:16194   */\n      and\n        /* \"#utility.yul\":16142:16246   */\n      or\n        /* \"#utility.yul\":16139:16269   */\n      iszero\n      tag_361\n      jumpi\n        /* \"#utility.yul\":16249:16267   */\n      tag_362\n      tag_185\n      jump\t// in\n    tag_362:\n        /* \"#utility.yul\":16139:16269   */\n    tag_361:\n        /* \"#utility.yul\":15904:16276   */\n      swap3\n      swap2\n      pop\n      pop\n      jump\t// out\n        /* \"#utility.yul\":16282:16429   */\n    tag_186:\n        /* \"#utility.yul\":16383:16394   */\n      0x00\n        /* \"#utility.yul\":16420:16423   */\n      dup2\n        /* \"#utility.yul\":16405:16423   */\n      swap1\n      pop\n        /* \"#utility.yul\":16282:16429   */\n      swap3\n      swap2\n      pop\n      pop\n      jump\t// out\n        /* \"#utility.yul\":16435:16579   */\n    tag_187:\n        /* \"#utility.yul\":16487:16491   */\n      0x00\n        /* \"#utility.yul\":16510:16513   */\n      dup2\n        /* \"#utility.yul\":16502:16513   */\n      swap1\n      pop\n        /* \"#utility.yul\":16533:16536   */\n      dup2\n        /* \"#utility.yul\":16530:16531   */\n      0x00\n        /* \"#utility.yul\":16523:16537   */\n      mstore\n        /* \"#utility.yul\":16567:16571   */\n      0x20\n        /* \"#utility.yul\":16564:16565   */\n      0x00\n        /* \"#utility.yul\":16554:16572   */\n      keccak256\n        /* \"#utility.yul\":16546:16572   */\n      swap1\n      pop\n        /* \"#utility.yul\":16435:16579   */\n      swap2\n      swap1\n      pop\n      jump\t// out\n        /* \"#utility.yul\":16607:17485   */\n    tag_188:\n        /* \"#utility.yul\":16712:16715   */\n      0x00\n        /* \"#utility.yul\":16749:16754   */\n      dup2\n        /* \"#utility.yul\":16743:16755   */\n      sload\n        /* \"#utility.yul\":16778:16814   */\n      tag_366\n        /* \"#utility.yul\":16804:16813   */\n      dup2\n        /* \"#utility.yul\":16778:16814   */\n      tag_80\n      jump\t// in\n    tag_366:\n        /* \"#utility.yul\":16830:16918   */\n      tag_367\n        /* \"#utility.yul\":16911:16917   */\n      dup2\n        /* \"#utility.yul\":16906:16909   */\n      dup7\n        /* \"#utility.yul\":16830:16918   */\n      tag_186\n      jump\t// in\n    tag_367:\n        /* \"#utility.yul\":16823:16918   */\n      swap5\n      pop\n        /* \"#utility.yul\":16949:16950   */\n      0x01\n        /* \"#utility.yul\":16938:16947   */\n      dup3\n        /* \"#utility.yul\":16934:16951   */\n      and\n        /* \"#utility.yul\":16965:16966   */\n      0x00\n        /* \"#utility.yul\":16960:17126   */\n      dup2\n      eq\n      tag_369\n      jumpi\n        /* \"#utility.yul\":17140:17141   */\n      0x01\n        /* \"#utility.yul\":17135:17479   */\n      dup2\n      eq\n      tag_370\n      jumpi\n        /* \"#utility.yul\":16927:17479   */\n      jump(tag_368)\n        /* \"#utility.yul\":16960:17126   */\n    tag_369:\n        /* \"#utility.yul\":17044:17048   */\n      0xff\n        /* \"#utility.yul\":17040:17049   */\n      not\n        /* \"#utility.yul\":17029:17038   */\n      dup4\n        /* \"#utility.yul\":17025:17050   */\n      and\n        /* \"#utility.yul\":17020:17023   */\n      dup7\n        /* \"#utility.yul\":17013:17051   */\n      mstore\n        /* \"#utility.yul\":17106:17112   */\n      dup2\n        /* \"#utility.yul\":17099:17113   */\n      iszero\n        /* \"#utility.yul\":17092:17114   */\n      iszero\n        /* \"#utility.yul\":17084:17090   */\n      dup3\n        /* \"#utility.yul\":17080:17115   */\n      mul\n        /* \"#utility.yul\":17075:17078   */\n      dup7\n        /* \"#utility.yul\":17071:17116   */\n      add\n        /* \"#utility.yul\":17064:17116   */\n      swap4\n      pop\n        /* \"#utility.yul\":16960:17126   */\n      jump(tag_368)\n        /* \"#utility.yul\":17135:17479   */\n    tag_370:\n        /* \"#utility.yul\":17202:17243   */\n      tag_371\n        /* \"#utility.yul\":17237:17242   */\n      dup6\n        /* \"#utility.yul\":17202:17243   */\n      tag_187\n      jump\t// in\n    tag_371:\n        /* \"#utility.yul\":17265:17266   */\n      0x00\n        /* \"#utility.yul\":17279:17433   */\n    tag_372:\n        /* \"#utility.yul\":17293:17299   */\n      dup4\n        /* \"#utility.yul\":17290:17291   */\n      dup2\n        /* \"#utility.yul\":17287:17300   */\n      lt\n        /* \"#utility.yul\":17279:17433   */\n      iszero\n      tag_374\n      jumpi\n        /* \"#utility.yul\":17367:17374   */\n      dup2\n        /* \"#utility.yul\":17361:17375   */\n      sload\n        /* \"#utility.yul\":17357:17358   */\n      dup2\n        /* \"#utility.yul\":17352:17355   */\n      dup10\n        /* \"#utility.yul\":17348:17359   */\n      add\n        /* \"#utility.yul\":17341:17376   */\n      mstore\n        /* \"#utility.yul\":17417:17418   */\n      0x01\n        /* \"#utility.yul\":17408:17415   */\n      dup3\n        /* \"#utility.yul\":17404:17419   */\n      add\n        /* \"#utility.yul\":17393:17419   */\n      swap2\n      pop\n        /* \"#utility.yul\":17315:17319   */\n      0x20\n        /* \"#utility.yul\":17312:17313   */\n      dup2\n        /* \"#utility.yul\":17308:17320   */\n      add\n        /* \"#utility.yul\":17303:17320   */\n      swap1\n      pop\n        /* \"#utility.yul\":17279:17433   */\n      jump(tag_372)\n    tag_374:\n        /* \"#utility.yul\":17462:17468   */\n      dup4\n        /* \"#utility.yul\":17457:17460   */\n      dup9\n        /* \"#utility.yul\":17453:17469   */\n      add\n        /* \"#utility.yul\":17446:17469   */\n      swap6\n      pop\n        /* \"#utility.yul\":17142:17479   */\n      pop\n      pop\n        /* \"#utility.yul\":16927:17479   */\n    tag_368:\n      pop\n        /* \"#utility.yul\":16716:17485   */\n      pop\n      pop\n        /* \"#utility.yul\":16607:17485   */\n      swap3\n      swap2\n      pop\n      pop\n      jump\t// out\n        /* \"#utility.yul\":17491:17764   */\n    tag_106:\n        /* \"#utility.yul\":17622:17625   */\n      0x00\n        /* \"#utility.yul\":17644:17738   */\n      tag_376\n        /* \"#utility.yul\":17734:17737   */\n      dup3\n        /* \"#utility.yul\":17725:17731   */\n      dup5\n        /* \"#utility.yul\":17644:17738   */\n      tag_188\n      jump\t// in\n    tag_376:\n        /* \"#utility.yul\":17637:17738   */\n      swap2\n      pop\n        /* \"#utility.yul\":17755:17758   */\n      dup2\n        /* \"#utility.yul\":17748:17758   */\n      swap1\n      pop\n        /* \"#utility.yul\":17491:17764   */\n      swap3\n      swap2\n      pop\n      pop\n      jump\t// out\n        /* \"#utility.yul\":17770:17910   */\n    tag_189:\n        /* \"#utility.yul\":17818:17822   */\n      0x00\n        /* \"#utility.yul\":17841:17844   */\n      dup2\n        /* \"#utility.yul\":17833:17844   */\n      swap1\n      pop\n        /* \"#utility.yul\":17864:17867   */\n      dup2\n        /* \"#utility.yul\":17861:17862   */\n      0x00\n        /* \"#utility.yul\":17854:17868   */\n      mstore\n        /* \"#utility.yul\":17898:17902   */\n      0x20\n        /* \"#utility.yul\":17895:17896   */\n      0x00\n        /* \"#utility.yul\":17885:17903   */\n      keccak256\n        /* \"#utility.yul\":17877:17903   */\n      swap1\n      pop\n        /* \"#utility.yul\":17770:17910   */\n      swap2\n      swap1\n      pop\n      jump\t// out\n        /* \"#utility.yul\":17916:18457   */\n    tag_190:\n        /* \"#utility.yul\":18016:18018   */\n      0x1f\n        /* \"#utility.yul\":18011:18014   */\n      dup3\n        /* \"#utility.yul\":18008:18019   */\n      gt\n        /* \"#utility.yul\":18005:18450   */\n      iszero\n      tag_379\n      jumpi\n        /* \"#utility.yul\":18050:18087   */\n      tag_380\n        /* \"#utility.yul\":18081:18086   */\n      dup2\n        /* \"#utility.yul\":18050:18087   */\n      tag_189\n      jump\t// in\n    tag_380:\n        /* \"#utility.yul\":18133:18162   */\n      tag_381\n        /* \"#utility.yul\":18151:18161   */\n      dup5\n        /* \"#utility.yul\":18133:18162   */\n      tag_167\n      jump\t// in\n    tag_381:\n        /* \"#utility.yul\":18123:18131   */\n      dup2\n        /* \"#utility.yul\":18119:18163   */\n      add\n        /* \"#utility.yul\":18316:18318   */\n      0x20\n        /* \"#utility.yul\":18304:18314   */\n      dup6\n        /* \"#utility.yul\":18301:18319   */\n      lt\n        /* \"#utility.yul\":18298:18347   */\n      iszero\n      tag_382\n      jumpi\n        /* \"#utility.yul\":18337:18345   */\n      dup2\n        /* \"#utility.yul\":18322:18345   */\n      swap1\n      pop\n        /* \"#utility.yul\":18298:18347   */\n    tag_382:\n        /* \"#utility.yul\":18360:18440   */\n      tag_383\n        /* \"#utility.yul\":18416:18438   */\n      tag_384\n        /* \"#utility.yul\":18434:18437   */\n      dup6\n        /* \"#utility.yul\":18416:18438   */\n      tag_167\n      jump\t// in\n    tag_384:\n        /* \"#utility.yul\":18406:18414   */\n      dup4\n        /* \"#utility.yul\":18402:18439   */\n      add\n        /* \"#utility.yul\":18389:18400   */\n      dup3\n        /* \"#utility.yul\":18360:18440   */\n      tag_176\n      jump\t// in\n    tag_383:\n        /* \"#utility.yul\":18020:18450   */\n      pop\n      pop\n        /* \"#utility.yul\":18005:18450   */\n    tag_379:\n        /* \"#utility.yul\":17916:18457   */\n      pop\n      pop\n      pop\n      jump\t// out\n        /* \"#utility.yul\":18463:19853   */\n    tag_114:\n        /* \"#utility.yul\":18578:18614   */\n      tag_386\n        /* \"#utility.yul\":18610:18613   */\n      dup3\n        /* \"#utility.yul\":18578:18614   */\n      tag_160\n      jump\t// in\n    tag_386:\n        /* \"#utility.yul\":18679:18697   */\n      0xffffffffffffffff\n        /* \"#utility.yul\":18671:18677   */\n      dup2\n        /* \"#utility.yul\":18668:18698   */\n      gt\n        /* \"#utility.yul\":18665:18721   */\n      iszero\n      tag_387\n      jumpi\n        /* \"#utility.yul\":18701:18719   */\n      tag_388\n      tag_145\n      jump\t// in\n    tag_388:\n        /* \"#utility.yul\":18665:18721   */\n    tag_387:\n        /* \"#utility.yul\":18745:18783   */\n      tag_389\n        /* \"#utility.yul\":18777:18781   */\n      dup3\n        /* \"#utility.yul\":18771:18782   */\n      sload\n        /* \"#utility.yul\":18745:18783   */\n      tag_80\n      jump\t// in\n    tag_389:\n        /* \"#utility.yul\":18830:18896   */\n      tag_390\n        /* \"#utility.yul\":18889:18895   */\n      dup3\n        /* \"#utility.yul\":18881:18887   */\n      dup3\n        /* \"#utility.yul\":18875:18879   */\n      dup6\n        /* \"#utility.yul\":18830:18896   */\n      tag_190\n      jump\t// in\n    tag_390:\n        /* \"#utility.yul\":18923:18924   */\n      0x00\n        /* \"#utility.yul\":18947:18951   */\n      0x20\n        /* \"#utility.yul\":18934:18951   */\n      swap1\n      pop\n        /* \"#utility.yul\":18979:18981   */\n      0x1f\n        /* \"#utility.yul\":18971:18977   */\n      dup4\n        /* \"#utility.yul\":18968:18982   */\n      gt\n        /* \"#utility.yul\":18996:18997   */\n      0x01\n        /* \"#utility.yul\":18991:19608   */\n      dup2\n      eq\n      tag_392\n      jumpi\n        /* \"#utility.yul\":19652:19653   */\n      0x00\n        /* \"#utility.yul\":19669:19675   */\n      dup5\n        /* \"#utility.yul\":19666:19743   */\n      iszero\n      tag_393\n      jumpi\n        /* \"#utility.yul\":19718:19727   */\n      dup3\n        /* \"#utility.yul\":19713:19716   */\n      dup8\n        /* \"#utility.yul\":19709:19728   */\n      add\n        /* \"#utility.yul\":19703:19729   */\n      mload\n        /* \"#utility.yul\":19694:19729   */\n      swap1\n      pop\n        /* \"#utility.yul\":19666:19743   */\n    tag_393:\n        /* \"#utility.yul\":19769:19836   */\n      tag_394\n        /* \"#utility.yul\":19829:19835   */\n      dup6\n        /* \"#utility.yul\":19822:19827   */\n      dup3\n        /* \"#utility.yul\":19769:19836   */\n      tag_180\n      jump\t// in\n    tag_394:\n        /* \"#utility.yul\":19763:19767   */\n      dup7\n        /* \"#utility.yul\":19756:19837   */\n      sstore\n        /* \"#utility.yul\":19625:19847   */\n      pop\n        /* \"#utility.yul\":18961:19847   */\n      jump(tag_391)\n        /* \"#utility.yul\":18991:19608   */\n    tag_392:\n        /* \"#utility.yul\":19043:19047   */\n      0x1f\n        /* \"#utility.yul\":19039:19048   */\n      not\n        /* \"#utility.yul\":19031:19037   */\n      dup5\n        /* \"#utility.yul\":19027:19049   */\n      and\n        /* \"#utility.yul\":19077:19113   */\n      tag_395\n        /* \"#utility.yul\":19108:19112   */\n      dup7\n        /* \"#utility.yul\":19077:19113   */\n      tag_189\n      jump\t// in\n    tag_395:\n        /* \"#utility.yul\":19135:19136   */\n      0x00\n        /* \"#utility.yul\":19149:19357   */\n    tag_396:\n        /* \"#utility.yul\":19163:19170   */\n      dup3\n        /* \"#utility.yul\":19160:19161   */\n      dup2\n        /* \"#utility.yul\":19157:19171   */\n      lt\n        /* \"#utility.yul\":19149:19357   */\n      iszero\n      tag_398\n      jumpi\n        /* \"#utility.yul\":19242:19251   */\n      dup5\n        /* \"#utility.yul\":19237:19240   */\n      dup10\n        /* \"#utility.yul\":19233:19252   */\n      add\n        /* \"#utility.yul\":19227:19253   */\n      mload\n        /* \"#utility.yul\":19219:19225   */\n      dup3\n        /* \"#utility.yul\":19212:19254   */\n      sstore\n        /* \"#utility.yul\":19293:19294   */\n      0x01\n        /* \"#utility.yul\":19285:19291   */\n      dup3\n        /* \"#utility.yul\":19281:19295   */\n      add\n        /* \"#utility.yul\":19271:19295   */\n      swap2\n      pop\n        /* \"#utility.yul\":19340:19342   */\n      0x20\n        /* \"#utility.yul\":19329:19338   */\n      dup6\n        /* \"#utility.yul\":19325:19343   */\n      add\n        /* \"#utility.yul\":19312:19343   */\n      swap5\n      pop\n        /* \"#utility.yul\":19186:19190   */\n      0x20\n        /* \"#utility.yul\":19183:19184   */\n      dup2\n        /* \"#utility.yul\":19179:19191   */\n      add\n        /* \"#utility.yul\":19174:19191   */\n      swap1\n      pop\n        /* \"#utility.yul\":19149:19357   */\n      jump(tag_396)\n    tag_398:\n        /* \"#utility.yul\":19385:19391   */\n      dup7\n        /* \"#utility.yul\":19376:19383   */\n      dup4\n        /* \"#utility.yul\":19373:19392   */\n      lt\n        /* \"#utility.yul\":19370:19549   */\n      iszero\n      tag_399\n      jumpi\n        /* \"#utility.yul\":19443:19452   */\n      dup5\n        /* \"#utility.yul\":19438:19441   */\n      dup10\n        /* \"#utility.yul\":19434:19453   */\n      add\n        /* \"#utility.yul\":19428:19454   */\n      mload\n        /* \"#utility.yul\":19486:19534   */\n      tag_400\n        /* \"#utility.yul\":19528:19532   */\n      0x1f\n        /* \"#utility.yul\":19520:19526   */\n      dup10\n        /* \"#utility.yul\":19516:19533   */\n      and\n        /* \"#utility.yul\":19505:19514   */\n      dup3\n        /* \"#utility.yul\":19486:19534   */\n      tag_179\n      jump\t// in\n    tag_400:\n        /* \"#utility.yul\":19478:19484   */\n      dup4\n        /* \"#utility.yul\":19471:19535   */\n      sstore\n        /* \"#utility.yul\":19393:19549   */\n      pop\n        /* \"#utility.yul\":19370:19549   */\n    tag_399:\n        /* \"#utility.yul\":19595:19596   */\n      0x01\n        /* \"#utility.yul\":19591:19592   */\n      0x02\n        /* \"#utility.yul\":19583:19589   */\n      dup9\n        /* \"#utility.yul\":19579:19593   */\n      mul\n        /* \"#utility.yul\":19575:19597   */\n      add\n        /* \"#utility.yul\":19569:19573   */\n      dup9\n        /* \"#utility.yul\":19562:19598   */\n      sstore\n        /* \"#utility.yul\":18998:19608   */\n      pop\n      pop\n      pop\n        /* \"#utility.yul\":18961:19847   */\n    tag_391:\n      pop\n        /* \"#utility.yul\":18553:19853   */\n      pop\n      pop\n      pop\n        /* \"#utility.yul\":18463:19853   */\n      pop\n      pop\n      jump\t// out\n        /* \"#utility.yul\":19859:20050   */\n    tag_128:\n        /* \"#utility.yul\":19899:19902   */\n      0x00\n        /* \"#utility.yul\":19918:19938   */\n      tag_402\n        /* \"#utility.yul\":19936:19937   */\n      dup3\n        /* \"#utility.yul\":19918:19938   */\n      tag_133\n      jump\t// in\n    tag_402:\n        /* \"#utility.yul\":19913:19938   */\n      swap2\n      pop\n        /* \"#utility.yul\":19952:19972   */\n      tag_403\n        /* \"#utility.yul\":19970:19971   */\n      dup4\n        /* \"#utility.yul\":19952:19972   */\n      tag_133\n      jump\t// in\n    tag_403:\n        /* \"#utility.yul\":19947:19972   */\n      swap3\n      pop\n        /* \"#utility.yul\":19995:19996   */\n      dup3\n        /* \"#utility.yul\":19992:19993   */\n      dup3\n        /* \"#utility.yul\":19988:19997   */\n      add\n        /* \"#utility.yul\":19981:19997   */\n      swap1\n      pop\n        /* \"#utility.yul\":20016:20019   */\n      dup1\n        /* \"#utility.yul\":20013:20014   */\n      dup3\n        /* \"#utility.yul\":20010:20020   */\n      gt\n        /* \"#utility.yul\":20007:20043   */\n      iszero\n      tag_404\n      jumpi\n        /* \"#utility.yul\":20023:20041   */\n      tag_405\n      tag_185\n      jump\t// in\n    tag_405:\n        /* \"#utility.yul\":20007:20043   */\n    tag_404:\n        /* \"#utility.yul\":19859:20050   */\n      swap3\n      swap2\n      pop\n      pop\n      jump\t// out\n        /* \"#utility.yul\":20056:20431   */\n    tag_130:\n        /* \"#utility.yul\":20095:20098   */\n      0x00\n        /* \"#utility.yul\":20114:20133   */\n      tag_407\n        /* \"#utility.yul\":20131:20132   */\n      dup3\n        /* \"#utility.yul\":20114:20133   */\n      tag_158\n      jump\t// in\n    tag_407:\n        /* \"#utility.yul\":20109:20133   */\n      swap2\n      pop\n        /* \"#utility.yul\":20147:20166   */\n      tag_408\n        /* \"#utility.yul\":20164:20165   */\n      dup4\n        /* \"#utility.yul\":20147:20166   */\n      tag_158\n      jump\t// in\n    tag_408:\n        /* \"#utility.yul\":20142:20166   */\n      swap3\n      pop\n        /* \"#utility.yul\":20189:20190   */\n      dup3\n        /* \"#utility.yul\":20186:20187   */\n      dup3\n        /* \"#utility.yul\":20182:20191   */\n      add\n        /* \"#utility.yul\":20175:20191   */\n      swap1\n      pop\n        /* \"#utility.yul\":20387:20388   */\n      dup3\n        /* \"#utility.yul\":20382:20385   */\n      dup2\n        /* \"#utility.yul\":20378:20389   */\n      slt\n        /* \"#utility.yul\":20371:20390   */\n      iszero\n        /* \"#utility.yul\":20367:20368   */\n      0x00\n        /* \"#utility.yul\":20364:20365   */\n      dup4\n        /* \"#utility.yul\":20360:20369   */\n      slt\n        /* \"#utility.yul\":20356:20391   */\n      and\n        /* \"#utility.yul\":20339:20340   */\n      dup4\n        /* \"#utility.yul\":20334:20337   */\n      dup3\n        /* \"#utility.yul\":20330:20341   */\n      slt\n        /* \"#utility.yul\":20325:20326   */\n      0x00\n        /* \"#utility.yul\":20322:20323   */\n      dup5\n        /* \"#utility.yul\":20318:20327   */\n      slt\n        /* \"#utility.yul\":20311:20328   */\n      iszero\n        /* \"#utility.yul\":20307:20342   */\n      and\n        /* \"#utility.yul\":20291:20401   */\n      or\n        /* \"#utility.yul\":20288:20424   */\n      iszero\n      tag_409\n      jumpi\n        /* \"#utility.yul\":20404:20422   */\n      tag_410\n      tag_185\n      jump\t// in\n    tag_410:\n        /* \"#utility.yul\":20288:20424   */\n    tag_409:\n        /* \"#utility.yul\":20056:20431   */\n      swap3\n      swap2\n      pop\n      pop\n      jump\t// out\n\n    auxdata: 0xa264697066735822122081745e57177a1388761147cbe16bb805d477b05388445fa1b6c12bc7b55e200864736f6c634300081f0033\n}\n",
				"bytecode": {
					"linkReferences": {},
					"object": "6080604052348015600e575f5ffd5b505f6001819055505f600381905550600160025f6101000a81548160ff0219169083151502179055506111e2806100445f395ff3fe608060405234801561000f575f5ffd5b50600436106100fe575f3560e01c80637ed6c92611610095578063aede67ea11610064578063aede67ea14610260578063b6b55f251461027e578063be1c766b1461029a578063ec36d35e146102b8576100fe565b80637ed6c926146101fe5780637fd25e6f1461021a57806386f54712146102385780639624b8a714610242576100fe565b80632e1a7d4d116100d15780632e1a7d4d146101765780633e116de51461019257806365ac2320146101c25780636729f7ec146101e0576100fe565b80630bf6cc08146101025780630dccd51e1461012057806318976fa214610150578063295795e21461015a575b5f5ffd5b61010a6102d6565b60405161011791906106e3565b60405180910390f35b61013a60048036038101906101359190610737565b6102dc565b604051610147919061079c565b60405180910390f35b610158610394565b005b610174600480360381019061016f91906108f1565b6103af565b005b610190600480360381019061018b9190610737565b6103c1565b005b6101ac60048036038101906101a791906108f1565b610487565b6040516101b99190610952565b60405180910390f35b6101ca6104ae565b6040516101d791906109cb565b60405180910390f35b6101e8610539565b6040516101f59190610a03565b60405180910390f35b610218600480360381019061021391906108f1565b61053f565b005b610222610552565b60405161022f9190610a6e565b60405180910390f35b6102406105de565b005b61024a6105fa565b60405161025791906106e3565b60405180910390f35b61026861060f565b6040516102759190610952565b60405180910390f35b61029860048036038101906102939190610737565b610624565b005b6102a26106a5565b6040516102af91906106e3565b60405180910390f35b6102c06106b9565b6040516102cd9190610952565b60405180910390f35b60015481565b5f600480546102ea90610abb565b9050821061032d576040517f08c379a000000000000000000000000000000000000000000000000000000000815260040161032490610b35565b60405180910390fd5b600482815461033b90610abb565b811061034a57610349610b53565b5b81546001161561036757905f5260205f2090602091828204019190065b9054901a7f0100000000000000000000000000000000000000000000000000000000000000029050919050565b5f60025f6101000a81548160ff021916908315150217905550565b805f90816103bd9190610d20565b5050565b60025f9054906101000a900460ff1661040f576040517f08c379a000000000000000000000000000000000000000000000000000000000815260040161040690610e39565b60405180910390fd5b806001541015610454576040517f08c379a000000000000000000000000000000000000000000000000000000000815260040161044b90610ea1565b60405180910390fd5b8060015f8282546104659190610eec565b925050819055508060035f82825461047d9190610f1f565b9250508190555050565b5f81805190602001205f60405161049e9190610ffb565b6040518091039020149050919050565b5f80546104ba90610abb565b80601f01602080910402602001604051908101604052809291908181526020018280546104e690610abb565b80156105315780601f1061050857610100808354040283529160200191610531565b820191905f5260205f20905b81548152906001019060200180831161051457829003601f168201915b505050505081565b60035481565b806004908161054e9190611069565b5050565b6004805461055f90610abb565b80601f016020809104026020016040519081016040528092919081815260200182805461058b90610abb565b80156105d65780601f106105ad576101008083540402835291602001916105d6565b820191905f5260205f20905b8154815290600101906020018083116105b957829003601f168201915b505050505081565b600160025f6101000a81548160ff021916908315150217905550565b5f6004805461060890610abb565b9050905090565b5f60025f9054906101000a900460ff16905090565b60025f9054906101000a900460ff16610672576040517f08c379a000000000000000000000000000000000000000000000000000000000815260040161066990610e39565b60405180910390fd5b8060015f8282546106839190611138565b925050819055508060035f82825461069b919061116b565b9250508190555050565b5f5f80546106b290610abb565b9050905090565b60025f9054906101000a900460ff1681565b5f819050919050565b6106dd816106cb565b82525050565b5f6020820190506106f65f8301846106d4565b92915050565b5f604051905090565b5f5ffd5b5f5ffd5b610716816106cb565b8114610720575f5ffd5b50565b5f813590506107318161070d565b92915050565b5f6020828403121561074c5761074b610705565b5b5f61075984828501610723565b91505092915050565b5f7fff0000000000000000000000000000000000000000000000000000000000000082169050919050565b61079681610762565b82525050565b5f6020820190506107af5f83018461078d565b92915050565b5f5ffd5b5f5ffd5b5f601f19601f8301169050919050565b7f4e487b71000000000000000000000000000000000000000000000000000000005f52604160045260245ffd5b610803826107bd565b810181811067ffffffffffffffff82111715610822576108216107cd565b5b80604052505050565b5f6108346106fc565b905061084082826107fa565b919050565b5f67ffffffffffffffff82111561085f5761085e6107cd565b5b610868826107bd565b9050602081019050919050565b828183375f83830152505050565b5f61089561089084610845565b61082b565b9050828152602081018484840111156108b1576108b06107b9565b5b6108bc848285610875565b509392505050565b5f82601f8301126108d8576108d76107b5565b5b81356108e8848260208601610883565b91505092915050565b5f6020828403121561090657610905610705565b5b5f82013567ffffffffffffffff81111561092357610922610709565b5b61092f848285016108c4565b91505092915050565b5f8115159050919050565b61094c81610938565b82525050565b5f6020820190506109655f830184610943565b92915050565b5f81519050919050565b5f82825260208201905092915050565b8281835e5f83830152505050565b5f61099d8261096b565b6109a78185610975565b93506109b7818560208601610985565b6109c0816107bd565b840191505092915050565b5f6020820190508181035f8301526109e38184610993565b905092915050565b5f819050919050565b6109fd816109eb565b82525050565b5f602082019050610a165f8301846109f4565b92915050565b5f81519050919050565b5f82825260208201905092915050565b5f610a4082610a1c565b610a4a8185610a26565b9350610a5a818560208601610985565b610a63816107bd565b840191505092915050565b5f6020820190508181035f830152610a868184610a36565b905092915050565b7f4e487b71000000000000000000000000000000000000000000000000000000005f52602260045260245ffd5b5f6002820490506001821680610ad257607f821691505b602082108103610ae557610ae4610a8e565b5b50919050565b7f496e646578206f7574206f6620626f756e6473000000000000000000000000005f82015250565b5f610b1f601383610975565b9150610b2a82610aeb565b602082019050919050565b5f6020820190508181035f830152610b4c81610b13565b9050919050565b7f4e487b71000000000000000000000000000000000000000000000000000000005f52603260045260245ffd5b5f819050815f5260205f209050919050565b5f6020601f8301049050919050565b5f82821b905092915050565b5f60088302610bdc7fffffffffffffffffffffffffffffffffffffffffffffffffffffffffffffffff82610ba1565b610be68683610ba1565b95508019841693508086168417925050509392505050565b5f819050919050565b5f610c21610c1c610c17846106cb565b610bfe565b6106cb565b9050919050565b5f819050919050565b610c3a83610c07565b610c4e610c4682610c28565b848454610bad565b825550505050565b5f5f905090565b610c65610c56565b610c70818484610c31565b505050565b5b81811015610c9357610c885f82610c5d565b600181019050610c76565b5050565b601f821115610cd857610ca981610b80565b610cb284610b92565b81016020851015610cc1578190505b610cd5610ccd85610b92565b830182610c75565b50505b505050565b5f82821c905092915050565b5f610cf85f1984600802610cdd565b1980831691505092915050565b5f610d108383610ce9565b9150826002028217905092915050565b610d298261096b565b67ffffffffffffffff811115610d4257610d416107cd565b5b610d4c8254610abb565b610d57828285610c97565b5f60209050601f831160018114610d88575f8415610d76578287015190505b610d808582610d05565b865550610de7565b601f198416610d9686610b80565b5f5b82811015610dbd57848901518255600182019150602085019450602081019050610d98565b86831015610dda5784890151610dd6601f891682610ce9565b8355505b6001600288020188555050505b505050505050565b7f5661756c7420697320636c6f73656400000000000000000000000000000000005f82015250565b5f610e23600f83610975565b9150610e2e82610def565b602082019050919050565b5f6020820190508181035f830152610e5081610e17565b9050919050565b7f496e73756666696369656e742062616c616e63650000000000000000000000005f82015250565b5f610e8b601483610975565b9150610e9682610e57565b602082019050919050565b5f6020820190508181035f830152610eb881610e7f565b9050919050565b7f4e487b71000000000000000000000000000000000000000000000000000000005f52601160045260245ffd5b5f610ef6826106cb565b9150610f01836106cb565b9250828203905081811115610f1957610f18610ebf565b5b92915050565b5f610f29826109eb565b9150610f34836109eb565b925082820390508181125f8412168282135f851215161715610f5957610f58610ebf565b5b92915050565b5f81905092915050565b5f819050815f5260205f209050919050565b5f8154610f8781610abb565b610f918186610f5f565b9450600182165f8114610fab5760018114610fc057610ff2565b60ff1983168652811515820286019350610ff2565b610fc985610f69565b5f5b83811015610fea57815481890152600182019150602081019050610fcb565b838801955050505b50505092915050565b5f6110068284610f7b565b915081905092915050565b5f819050815f5260205f209050919050565b601f8211156110645761103581611011565b61103e84610b92565b8101602085101561104d578190505b61106161105985610b92565b830182610c75565b50505b505050565b61107282610a1c565b67ffffffffffffffff81111561108b5761108a6107cd565b5b6110958254610abb565b6110a0828285611023565b5f60209050601f8311600181146110d1575f84156110bf578287015190505b6110c98582610d05565b865550611130565b601f1984166110df86611011565b5f5b82811015611106578489015182556001820191506020850194506020810190506110e1565b86831015611123578489015161111f601f891682610ce9565b8355505b6001600288020188555050505b505050505050565b5f611142826106cb565b915061114d836106cb565b925082820190508082111561116557611164610ebf565b5b92915050565b5f611175826109eb565b9150611180836109eb565b92508282019050828112155f8312168382125f8412151617156111a6576111a5610ebf565b5b9291505056fea264697066735822122081745e57177a1388761147cbe16bb805d477b05388445fa1b6c12bc7b55e200864736f6c634300081f0033",
					"opcodes": "PUSH1 0x80 PUSH1 0x40 MSTORE CALLVALUE DUP1 ISZERO PUSH1 0xE JUMPI PUSH0 PUSH0 REVERT JUMPDEST POP PUSH0 PUSH1 0x1 DUP2 SWAP1 SSTORE POP PUSH0 PUSH1 0x3 DUP2 SWAP1 SSTORE POP PUSH1 0x1 PUSH1 0x2 PUSH0 PUSH2 0x100 EXP DUP2 SLOAD DUP2 PUSH1 0xFF MUL NOT AND SWAP1 DUP4 ISZERO ISZERO MUL OR SWAP1 SSTORE POP PUSH2 0x11E2 DUP1 PUSH2 0x44 PUSH0 CODECOPY PUSH0 RETURN INVALID PUSH1 0x80 PUSH1 0x40 MSTORE CALLVALUE DUP1 ISZERO PUSH2 0xF JUMPI PUSH0 PUSH0 REVERT JUMPDEST POP PUSH1 0x4 CALLDATASIZE LT PUSH2 0xFE JUMPI PUSH0 CALLDATALOAD PUSH1 0xE0 SHR DUP1 PUSH4 0x7ED6C926 GT PUSH2 0x95 JUMPI DUP1 PUSH4 0xAEDE67EA GT PUSH2 0x64 JUMPI DUP1 PUSH4 0xAEDE67EA EQ PUSH2 0x260 JUMPI DUP1 PUSH4 0xB6B55F25 EQ PUSH2 0x27E JUMPI DUP1 PUSH4 0xBE1C766B EQ PUSH2 0x29A JUMPI DUP1 PUSH4 0xEC36D35E EQ PUSH2 0x2B8 JUMPI PUSH2 0xFE JUMP JUMPDEST DUP1 PUSH4 0x7ED6C926 EQ PUSH2 0x1FE JUMPI DUP1 PUSH4 0x7FD25E6F EQ PUSH2 0x21A JUMPI DUP1 PUSH4 0x86F54712 EQ PUSH2 0x238 JUMPI DUP1 PUSH4 0x9624B8A7 EQ PUSH2 0x242 JUMPI PUSH2 0xFE JUMP JUMPDEST DUP1 PUSH4 0x2E1A7D4D GT PUSH2 0xD1 JUMPI DUP1 PUSH4 0x2E1A7D4D EQ PUSH2 0x176 JUMPI DUP1 PUSH4 0x3E116DE5 EQ PUSH2 0x192 JUMPI DUP1 PUSH4 0x65AC2320 EQ PUSH2 0x1C2 JUMPI DUP1 PUSH4 0x6729F7EC EQ PUSH2 0x1E0 JUMPI PUSH2 0xFE JUMP JUMPDEST DUP1 PUSH4 0xBF6CC08 EQ PUSH2 0x102 JUMPI DUP1 PUSH4 0xDCCD51E EQ PUSH2 0x120 JUMPI DUP1 PUSH4 0x18976FA2 EQ PUSH2 0x150 JUMPI DUP1 PUSH4 0x295795E2 EQ PUSH2 0x15A JUMPI JUMPDEST PUSH0 PUSH0 REVERT JUMPDEST PUSH2 0x10A PUSH2 0x2D6 JUMP JUMPDEST PUSH1 0x40 MLOAD PUSH2 0x117 SWAP2 SWAP1 PUSH2 0x6E3 JUMP JUMPDEST PUSH1 0x40 MLOAD DUP1 SWAP2 SUB SWAP1 RETURN JUMPDEST PUSH2 0x13A PUSH1 0x4 DUP1 CALLDATASIZE SUB DUP2 ADD SWAP1 PUSH2 0x135 SWAP2 SWAP1 PUSH2 0x737 JUMP JUMPDEST PUSH2 0x2DC JUMP JUMPDEST PUSH1 0x40 MLOAD PUSH2 0x147 SWAP2 SWAP1 PUSH2 0x79C JUMP JUMPDEST PUSH1 0x40 MLOAD DUP1 SWAP2 SUB SWAP1 RETURN JUMPDEST PUSH2 0x158 PUSH2 0x394 JUMP JUMPDEST STOP JUMPDEST PUSH2 0x174 PUSH1 0x4 DUP1 CALLDATASIZE SUB DUP2 ADD SWAP1 PUSH2 0x16F SWAP2 SWAP1 PUSH2 0x8F1 JUMP JUMPDEST PUSH2 0x3AF JUMP JUMPDEST STOP JUMPDEST PUSH2 0x190 PUSH1 0x4 DUP1 CALLDATASIZE SUB DUP2 ADD SWAP1 PUSH2 0x18B SWAP2 SWAP1 PUSH2 0x737 JUMP JUMPDEST PUSH2 0x3C1 JUMP JUMPDEST STOP JUMPDEST PUSH2 0x1AC PUSH1 0x4 DUP1 CALLDATASIZE SUB DUP2 ADD SWAP1 PUSH2 0x1A7 SWAP2 SWAP1 PUSH2 0x8F1 JUMP JUMPDEST PUSH2 0x487 JUMP JUMPDEST PUSH1 0x40 MLOAD PUSH2 0x1B9 SWAP2 SWAP1 PUSH2 0x952 JUMP JUMPDEST PUSH1 0x40 MLOAD DUP1 SWAP2 SUB SWAP1 RETURN JUMPDEST PUSH2 0x1CA PUSH2 0x4AE JUMP JUMPDEST PUSH1 0x40 MLOAD PUSH2 0x1D7 SWAP2 SWAP1 PUSH2 0x9CB JUMP JUMPDEST PUSH1 0x40 MLOAD DUP1 SWAP2 SUB SWAP1 RETURN JUMPDEST PUSH2 0x1E8 PUSH2 0x539 JUMP JUMPDEST PUSH1 0x40 MLOAD PUSH2 0x1F5 SWAP2 SWAP1 PUSH2 0xA03 JUMP JUMPDEST PUSH1 0x40 MLOAD DUP1 SWAP2 SUB SWAP1 RETURN JUMPDEST PUSH2 0x218 PUSH1 0x4 DUP1 CALLDATASIZE SUB DUP2 ADD SWAP1 PUSH2 0x213 SWAP2 SWAP1 PUSH2 0x8F1 JUMP JUMPDEST PUSH2 0x53F JUMP JUMPDEST STOP JUMPDEST PUSH2 0x222 PUSH2 0x552 JUMP JUMPDEST PUSH1 0x40 MLOAD PUSH2 0x22F SWAP2 SWAP1 PUSH2 0xA6E JUMP JUMPDEST PUSH1 0x40 MLOAD DUP1 SWAP2 SUB SWAP1 RETURN JUMPDEST PUSH2 0x240 PUSH2 0x5DE JUMP JUMPDEST STOP JUMPDEST PUSH2 0x24A PUSH2 0x5FA JUMP JUMPDEST PUSH1 0x40 MLOAD PUSH2 0x257 SWAP2 SWAP1 PUSH2 0x6E3 JUMP JUMPDEST PUSH1 0x40 MLOAD DUP1 SWAP2 SUB SWAP1 RETURN JUMPDEST PUSH2 0x268 PUSH2 0x60F JUMP JUMPDEST PUSH1 0x40 MLOAD PUSH2 0x275 SWAP2 SWAP1 PUSH2 0x952 JUMP JUMPDEST PUSH1 0x40 MLOAD DUP1 SWAP2 SUB SWAP1 RETURN JUMPDEST PUSH2 0x298 PUSH1 0x4 DUP1 CALLDATASIZE SUB DUP2 ADD SWAP1 PUSH2 0x293 SWAP2 SWAP1 PUSH2 0x737 JUMP JUMPDEST PUSH2 0x624 JUMP JUMPDEST STOP JUMPDEST PUSH2 0x2A2 PUSH2 0x6A5 JUMP JUMPDEST PUSH1 0x40 MLOAD PUSH2 0x2AF SWAP2 SWAP1 PUSH2 0x6E3 JUMP JUMPDEST PUSH1 0x40 MLOAD DUP1 SWAP2 SUB SWAP1 RETURN JUMPDEST PUSH2 0x2C0 PUSH2 0x6B9 JUMP JUMPDEST PUSH1 0x40 MLOAD PUSH2 0x2CD SWAP2 SWAP1 PUSH2 0x952 JUMP JUMPDEST PUSH1 0x40 MLOAD DUP1 SWAP2 SUB SWAP1 RETURN JUMPDEST PUSH1 0x1 SLOAD DUP2 JUMP JUMPDEST PUSH0 PUSH1 0x4 DUP1 SLOAD PUSH2 0x2EA SWAP1 PUSH2 0xABB JUMP JUMPDEST SWAP1 POP DUP3 LT PUSH2 0x32D JUMPI PUSH1 0x40 MLOAD PUSH32 0x8C379A000000000000000000000000000000000000000000000000000000000 DUP2 MSTORE PUSH1 0x4 ADD PUSH2 0x324 SWAP1 PUSH2 0xB35 JUMP JUMPDEST PUSH1 0x40 MLOAD DUP1 SWAP2 SUB SWAP1 REVERT JUMPDEST PUSH1 0x4 DUP3 DUP2 SLOAD PUSH2 0x33B SWAP1 PUSH2 0xABB JUMP JUMPDEST DUP2 LT PUSH2 0x34A JUMPI PUSH2 0x349 PUSH2 0xB53 JUMP JUMPDEST JUMPDEST DUP2 SLOAD PUSH1 0x1 AND ISZERO PUSH2 0x367 JUMPI SWAP1 PUSH0 MSTORE PUSH1 0x20 PUSH0 KECCAK256 SWAP1 PUSH1 0x20 SWAP2 DUP3 DUP3 DIV ADD SWAP2 SWAP1 MOD JUMPDEST SWAP1 SLOAD SWAP1 BYTE PUSH32 0x100000000000000000000000000000000000000000000000000000000000000 MUL SWAP1 POP SWAP2 SWAP1 POP JUMP JUMPDEST PUSH0 PUSH1 0x2 PUSH0 PUSH2 0x100 EXP DUP2 SLOAD DUP2 PUSH1 0xFF MUL NOT AND SWAP1 DUP4 ISZERO ISZERO MUL OR SWAP1 SSTORE POP JUMP JUMPDEST DUP1 PUSH0 SWAP1 DUP2 PUSH2 0x3BD SWAP2 SWAP1 PUSH2 0xD20 JUMP JUMPDEST POP POP JUMP JUMPDEST PUSH1 0x2 PUSH0 SWAP1 SLOAD SWAP1 PUSH2 0x100 EXP SWAP1 DIV PUSH1 0xFF AND PUSH2 0x40F JUMPI PUSH1 0x40 MLOAD PUSH32 0x8C379A000000000000000000000000000000000000000000000000000000000 DUP2 MSTORE PUSH1 0x4 ADD PUSH2 0x406 SWAP1 PUSH2 0xE39 JUMP JUMPDEST PUSH1 0x40 MLOAD DUP1 SWAP2 SUB SWAP1 REVERT JUMPDEST DUP1 PUSH1 0x1 SLOAD LT ISZERO PUSH2 0x454 JUMPI PUSH1 0x40 MLOAD PUSH32 0x8C379A000000000000000000000000000000000000000000000000000000000 DUP2 MSTORE PUSH1 0x4 ADD PUSH2 0x44B SWAP1 PUSH2 0xEA1 JUMP JUMPDEST PUSH1 0x40 MLOAD DUP1 SWAP2 SUB SWAP1 REVERT JUMPDEST DUP1 PUSH1 0x1 PUSH0 DUP3 DUP3 SLOAD PUSH2 0x465 SWAP2 SWAP1 PUSH2 0xEEC JUMP JUMPDEST SWAP3 POP POP DUP2 SWAP1 SSTORE POP DUP1 PUSH1 0x3 PUSH0 DUP3 DUP3 SLOAD PUSH2 0x47D SWAP2 SWAP1 PUSH2 0xF1F JUMP JUMPDEST SWAP3 POP POP DUP2 SWAP1 SSTORE POP POP JUMP JUMPDEST PUSH0 DUP2 DUP1 MLOAD SWAP1 PUSH1 0x20 ADD KECCAK256 PUSH0 PUSH1 0x40 MLOAD PUSH2 0x49E SWAP2 SWAP1 PUSH2 0xFFB JUMP JUMPDEST PUSH1 0x40 MLOAD DUP1 SWAP2 SUB SWAP1 KECCAK256 EQ SWAP1 POP SWAP2 SWAP1 POP JUMP JUMPDEST PUSH0 DUP1 SLOAD PUSH2 0x4BA SWAP1 PUSH2 0xABB JUMP JUMPDEST DUP1 PUSH1 0x1F ADD PUSH1 0x20 DUP1 SWAP2 DIV MUL PUSH1 0x20 ADD PUSH1 0x40 MLOAD SWAP1 DUP2 ADD PUSH1 0x40 MSTORE DUP1 SWAP3 SWAP2 SWAP1 DUP2 DUP2 MSTORE PUSH1 0x20 ADD DUP3 DUP1 SLOAD PUSH2 0x4E6 SWAP1 PUSH2 0xABB JUMP JUMPDEST DUP1 ISZERO PUSH2 0x531 JUMPI DUP1 PUSH1 0x1F LT PUSH2 0x508 JUMPI PUSH2 0x100 DUP1 DUP4 SLOAD DIV MUL DUP4 MSTORE SWAP2 PUSH1 0x20 ADD SWAP2 PUSH2 0x531 JUMP JUMPDEST DUP3 ADD SWAP2 SWAP1 PUSH0 MSTORE PUSH1 0x20 PUSH0 KECCAK256 SWAP1 JUMPDEST DUP2 SLOAD DUP2 MSTORE SWAP1 PUSH1 0x1 ADD SWAP1 PUSH1 0x20 ADD DUP1 DUP4 GT PUSH2 0x514 JUMPI DUP3 SWAP1 SUB PUSH1 0x1F AND DUP3 ADD SWAP2 JUMPDEST POP POP POP POP POP DUP2 JUMP JUMPDEST PUSH1 0x3 SLOAD DUP2 JUMP JUMPDEST DUP1 PUSH1 0x4 SWAP1 DUP2 PUSH2 0x54E SWAP2 SWAP1 PUSH2 0x1069 JUMP JUMPDEST POP POP JUMP JUMPDEST PUSH1 0x4 DUP1 SLOAD PUSH2 0x55F SWAP1 PUSH2 0xABB JUMP JUMPDEST DUP1 PUSH1 0x1F ADD PUSH1 0x20 DUP1 SWAP2 DIV MUL PUSH1 0x20 ADD PUSH1 0x40 MLOAD SWAP1 DUP2 ADD PUSH1 0x40 MSTORE DUP1 SWAP3 SWAP2 SWAP1 DUP2 DUP2 MSTORE PUSH1 0x20 ADD DUP3 DUP1 SLOAD PUSH2 0x58B SWAP1 PUSH2 0xABB JUMP JUMPDEST DUP1 ISZERO PUSH2 0x5D6 JUMPI DUP1 PUSH1 0x1F LT PUSH2 0x5AD JUMPI PUSH2 0x100 DUP1 DUP4 SLOAD DIV MUL DUP4 MSTORE SWAP2 PUSH1 0x20 ADD SWAP2 PUSH2 0x5D6 JUMP JUMPDEST DUP3 ADD SWAP2 SWAP1 PUSH0 MSTORE PUSH1 0x20 PUSH0 KECCAK256 SWAP1 JUMPDEST DUP2 SLOAD DUP2 MSTORE SWAP1 PUSH1 0x1 ADD SWAP1 PUSH1 0x20 ADD DUP1 DUP4 GT PUSH2 0x5B9 JUMPI DUP3 SWAP1 SUB PUSH1 0x1F AND DUP3 ADD SWAP2 JUMPDEST POP POP POP POP POP DUP2 JUMP JUMPDEST PUSH1 0x1 PUSH1 0x2 PUSH0 PUSH2 0x100 EXP DUP2 SLOAD DUP2 PUSH1 0xFF MUL NOT AND SWAP1 DUP4 ISZERO ISZERO MUL OR SWAP1 SSTORE POP JUMP JUMPDEST PUSH0 PUSH1 0x4 DUP1 SLOAD PUSH2 0x608 SWAP1 PUSH2 0xABB JUMP JUMPDEST SWAP1 POP SWAP1 POP SWAP1 JUMP JUMPDEST PUSH0 PUSH1 0x2 PUSH0 SWAP1 SLOAD SWAP1 PUSH2 0x100 EXP SWAP1 DIV PUSH1 0xFF AND SWAP1 POP SWAP1 JUMP JUMPDEST PUSH1 0x2 PUSH0 SWAP1 SLOAD SWAP1 PUSH2 0x100 EXP SWAP1 DIV PUSH1 0xFF AND PUSH2 0x672 JUMPI PUSH1 0x40 MLOAD PUSH32 0x8C379A000000000000000000000000000000000000000000000000000000000 DUP2 MSTORE PUSH1 0x4 ADD PUSH2 0x669 SWAP1 PUSH2 0xE39 JUMP JUMPDEST PUSH1 0x40 MLOAD DUP1 SWAP2 SUB SWAP1 REVERT JUMPDEST DUP1 PUSH1 0x1 PUSH0 DUP3 DUP3 SLOAD PUSH2 0x683 SWAP2 SWAP1 PUSH2 0x1138 JUMP JUMPDEST SWAP3 POP POP DUP2 SWAP1 SSTORE POP DUP1 PUSH1 0x3 PUSH0 DUP3 DUP3 SLOAD PUSH2 0x69B SWAP2 SWAP1 PUSH2 0x116B JUMP JUMPDEST SWAP3 POP POP DUP2 SWAP1 SSTORE POP POP JUMP JUMPDEST PUSH0 PUSH0 DUP1 SLOAD PUSH2 0x6B2 SWAP1 PUSH2 0xABB JUMP JUMPDEST SWAP1 POP SWAP1 POP SWAP1 JUMP JUMPDEST PUSH1 0x2 PUSH0 SWAP1 SLOAD SWAP1 PUSH2 0x100 EXP SWAP1 DIV PUSH1 0xFF AND DUP2 JUMP JUMPDEST PUSH0 DUP2 SWAP1 POP SWAP2 SWAP1 POP JUMP JUMPDEST PUSH2 0x6DD DUP2 PUSH2 0x6CB JUMP JUMPDEST DUP3 MSTORE POP POP JUMP JUMPDEST PUSH0 PUSH1 0x20 DUP3 ADD SWAP1 POP PUSH2 0x6F6 PUSH0 DUP4 ADD DUP5 PUSH2 0x6D4 JUMP JUMPDEST SWAP3 SWAP2 POP POP JUMP JUMPDEST PUSH0 PUSH1 0x40 MLOAD SWAP1 POP SWAP1 JUMP JUMPDEST PUSH0 PUSH0 REVERT JUMPDEST PUSH0 PUSH0 REVERT JUMPDEST PUSH2 0x716 DUP2 PUSH2 0x6CB JUMP JUMPDEST DUP2 EQ PUSH2 0x720 JUMPI PUSH0 PUSH0 REVERT JUMPDEST POP JUMP JUMPDEST PUSH0 DUP2 CALLDATALOAD SWAP1 POP PUSH2 0x731 DUP2 PUSH2 0x70D JUMP JUMPDEST SWAP3 SWAP2 POP POP JUMP JUMPDEST PUSH0 PUSH1 0x20 DUP3 DUP5 SUB SLT ISZERO PUSH2 0x74C JUMPI PUSH2 0x74B PUSH2 0x705 JUMP JUMPDEST JUMPDEST PUSH0 PUSH2 0x759 DUP5 DUP3 DUP6 ADD PUSH2 0x723 JUMP JUMPDEST SWAP2 POP POP SWAP3 SWAP2 POP POP JUMP JUMPDEST PUSH0 PUSH32 0xFF00000000000000000000000000000000000000000000000000000000000000 DUP3 AND SWAP1 POP SWAP2 SWAP1 POP JUMP JUMPDEST PUSH2 0x796 DUP2 PUSH2 0x762 JUMP JUMPDEST DUP3 MSTORE POP POP JUMP JUMPDEST PUSH0 PUSH1 0x20 DUP3 ADD SWAP1 POP PUSH2 0x7AF PUSH0 DUP4 ADD DUP5 PUSH2 0x78D JUMP JUMPDEST SWAP3 SWAP2 POP POP JUMP JUMPDEST PUSH0 PUSH0 REVERT JUMPDEST PUSH0 PUSH0 REVERT JUMPDEST PUSH0 PUSH1 0x1F NOT PUSH1 0x1F DUP4 ADD AND SWAP1 POP SWAP2 SWAP1 POP JUMP JUMPDEST PUSH32 0x4E487B7100000000000000000000000000000000000000000000000000000000 PUSH0 MSTORE PUSH1 0x41 PUSH1 0x4 MSTORE PUSH1 0x24 PUSH0 REVERT JUMPDEST PUSH2 0x803 DUP3 PUSH2 0x7BD JUMP JUMPDEST DUP2 ADD DUP2 DUP2 LT PUSH8 0xFFFFFFFFFFFFFFFF DUP3 GT OR ISZERO PUSH2 0x822 JUMPI PUSH2 0x821 PUSH2 0x7CD JUMP JUMPDEST JUMPDEST DUP1 PUSH1 0x40 MSTORE POP POP POP JUMP JUMPDEST PUSH0 PUSH2 0x834 PUSH2 0x6FC JUMP JUMPDEST SWAP1 POP PUSH2 0x840 DUP3 DUP3 PUSH2 0x7FA JUMP JUMPDEST SWAP2 SWAP1 POP JUMP JUMPDEST PUSH0 PUSH8 0xFFFFFFFFFFFFFFFF DUP3 GT ISZERO PUSH2 0x85F JUMPI PUSH2 0x85E PUSH2 0x7CD JUMP JUMPDEST JUMPDEST PUSH2 0x868 DUP3 PUSH2 0x7BD JUMP JUMPDEST SWAP1 POP PUSH1 0x20 DUP2 ADD SWAP1 POP SWAP2 SWAP1 POP JUMP JUMPDEST DUP3 DUP2 DUP4 CALLDATACOPY PUSH0 DUP4 DUP4 ADD MSTORE POP POP POP JUMP JUMPDEST PUSH0 PUSH2 0x895 PUSH2 0x890 DUP5 PUSH2 0x845 JUMP JUMPDEST PUSH2 0x82B JUMP JUMPDEST SWAP1 POP DUP3 DUP2 MSTORE PUSH1 0x20 DUP2 ADD DUP5 DUP5 DUP5 ADD GT ISZERO PUSH2 0x8B1 JUMPI PUSH2 0x8B0 PUSH2 0x7B9 JUMP JUMPDEST JUMPDEST PUSH2 0x8BC DUP5 DUP3 DUP6 PUSH2 0x875 JUMP JUMPDEST POP SWAP4 SWAP3 POP POP POP JUMP JUMPDEST PUSH0 DUP3 PUSH1 0x1F DUP4 ADD SLT PUSH2 0x8D8 JUMPI PUSH2 0x8D7 PUSH2 0x7B5 JUMP JUMPDEST JUMPDEST DUP2 CALLDATALOAD PUSH2 0x8E8 DUP5 DUP3 PUSH1 0x20 DUP7 ADD PUSH2 0x883 JUMP JUMPDEST SWAP2 POP POP SWAP3 SWAP2 POP POP JUMP JUMPDEST PUSH0 PUSH1 0x20 DUP3 DUP5 SUB SLT ISZERO PUSH2 0x906 JUMPI PUSH2 0x905 PUSH2 0x705 JUMP JUMPDEST JUMPDEST PUSH0 DUP3 ADD CALLDATALOAD PUSH8 0xFFFFFFFFFFFFFFFF DUP2 GT ISZERO PUSH2 0x923 JUMPI PUSH2 0x922 PUSH2 0x709 JUMP JUMPDEST JUMPDEST PUSH2 0x92F DUP5 DUP3 DUP6 ADD PUSH2 0x8C4 JUMP JUMPDEST SWAP2 POP POP SWAP3 SWAP2 POP POP JUMP JUMPDEST PUSH0 DUP2 ISZERO ISZERO SWAP1 POP SWAP2 SWAP1 POP JUMP JUMPDEST PUSH2 0x94C DUP2 PUSH2 0x938 JUMP JUMPDEST DUP3 MSTORE POP POP JUMP JUMPDEST PUSH0 PUSH1 0x20 DUP3 ADD SWAP1 POP PUSH2 0x965 PUSH0 DUP4 ADD DUP5 PUSH2 0x943 JUMP JUMPDEST SWAP3 SWAP2 POP POP JUMP JUMPDEST PUSH0 DUP2 MLOAD SWAP1 POP SWAP2 SWAP1 POP JUMP JUMPDEST PUSH0 DUP3 DUP3 MSTORE PUSH1 0x20 DUP3 ADD SWAP1 POP SWAP3 SWAP2 POP POP JUMP JUMPDEST DUP3 DUP2 DUP4 MCOPY PUSH0 DUP4 DUP4 ADD MSTORE POP POP POP JUMP JUMPDEST PUSH0 PUSH2 0x99D DUP3 PUSH2 0x96B JUMP JUMPDEST PUSH2 0x9A7 DUP2 DUP6 PUSH2 0x975 JUMP JUMPDEST SWAP4 POP PUSH2 0x9B7 DUP2 DUP6 PUSH1 0x20 DUP7 ADD PUSH2 0x985 JUMP JUMPDEST PUSH2 0x9C0 DUP2 PUSH2 0x7BD JUMP JUMPDEST DUP5 ADD SWAP2 POP POP SWAP3 SWAP2 POP POP JUMP JUMPDEST PUSH0 PUSH1 0x20 DUP3 ADD SWAP1 POP DUP2 DUP2 SUB PUSH0 DUP4 ADD MSTORE PUSH2 0x9E3 DUP2 DUP5 PUSH2 0x993 JUMP JUMPDEST SWAP1 POP SWAP3 SWAP2 POP POP JUMP JUMPDEST PUSH0 DUP2 SWAP1 POP SWAP2 SWAP1 POP JUMP JUMPDEST PUSH2 0x9FD DUP2 PUSH2 0x9EB JUMP JUMPDEST DUP3 MSTORE POP POP JUMP JUMPDEST PUSH0 PUSH1 0x20 DUP3 ADD SWAP1 POP PUSH2 0xA16 PUSH0 DUP4 ADD DUP5 PUSH2 0x9F4 JUMP JUMPDEST SWAP3 SWAP2 POP POP JUMP JUMPDEST PUSH0 DUP2 MLOAD SWAP1 POP SWAP2 SWAP1 POP JUMP JUMPDEST PUSH0 DUP3 DUP3 MSTORE PUSH1 0x20 DUP3 ADD SWAP1 POP SWAP3 SWAP2 POP POP JUMP JUMPDEST PUSH0 PUSH2 0xA40 DUP3 PUSH2 0xA1C JUMP JUMPDEST PUSH2 0xA4A DUP2 DUP6 PUSH2 0xA26 JUMP JUMPDEST SWAP4 POP PUSH2 0xA5A DUP2 DUP6 PUSH1 0x20 DUP7 ADD PUSH2 0x985 JUMP JUMPDEST PUSH2 0xA63 DUP2 PUSH2 0x7BD JUMP JUMPDEST DUP5 ADD SWAP2 POP POP SWAP3 SWAP2 POP POP JUMP JUMPDEST PUSH0 PUSH1 0x20 DUP3 ADD SWAP1 POP DUP2 DUP2 SUB PUSH0 DUP4 ADD MSTORE PUSH2 0xA86 DUP2 DUP5 PUSH2 0xA36 JUMP JUMPDEST SWAP1 POP SWAP3 SWAP2 POP POP JUMP JUMPDEST PUSH32 0x4E487B7100000000000000000000000000000000000000000000000000000000 PUSH0 MSTORE PUSH1 0x22 PUSH1 0x4 MSTORE PUSH1 0x24 PUSH0 REVERT JUMPDEST PUSH0 PUSH1 0x2 DUP3 DIV SWAP1 POP PUSH1 0x1 DUP3 AND DUP1 PUSH2 0xAD2 JUMPI PUSH1 0x7F DUP3 AND SWAP2 POP JUMPDEST PUSH1 0x20 DUP3 LT DUP2 SUB PUSH2 0xAE5 JUMPI PUSH2 0xAE4 PUSH2 0xA8E JUMP JUMPDEST JUMPDEST POP SWAP2 SWAP1 POP JUMP JUMPDEST PUSH32 0x496E646578206F7574206F6620626F756E647300000000000000000000000000 PUSH0 DUP3 ADD MSTORE POP JUMP JUMPDEST PUSH0 PUSH2 0xB1F PUSH1 0x13 DUP4 PUSH2 0x975 JUMP JUMPDEST SWAP2 POP PUSH2 0xB2A DUP3 PUSH2 0xAEB JUMP JUMPDEST PUSH1 0x20 DUP3 ADD SWAP1 POP SWAP2 SWAP1 POP JUMP JUMPDEST PUSH0 PUSH1 0x20 DUP3 ADD SWAP1 POP DUP2 DUP2 SUB PUSH0 DUP4 ADD MSTORE PUSH2 0xB4C DUP2 PUSH2 0xB13 JUMP JUMPDEST SWAP1 POP SWAP2 SWAP1 POP JUMP JUMPDEST PUSH32 0x4E487B7100000000000000000000000000000000000000000000000000000000 PUSH0 MSTORE PUSH1 0x32 PUSH1 0x4 MSTORE PUSH1 0x24 PUSH0 REVERT JUMPDEST PUSH0 DUP2 SWAP1 POP DUP2 PUSH0 MSTORE PUSH1 0x20 PUSH0 KECCAK256 SWAP1 POP SWAP2 SWAP1 POP JUMP JUMPDEST PUSH0 PUSH1 0x20 PUSH1 0x1F DUP4 ADD DIV SWAP1 POP SWAP2 SWAP1 POP JUMP JUMPDEST PUSH0 DUP3 DUP3 SHL SWAP1 POP SWAP3 SWAP2 POP POP JUMP JUMPDEST PUSH0 PUSH1 0x8 DUP4 MUL PUSH2 0xBDC PUSH32 0xFFFFFFFFFFFFFFFFFFFFFFFFFFFFFFFFFFFFFFFFFFFFFFFFFFFFFFFFFFFFFFFF DUP3 PUSH2 0xBA1 JUMP JUMPDEST PUSH2 0xBE6 DUP7 DUP4 PUSH2 0xBA1 JUMP JUMPDEST SWAP6 POP DUP1 NOT DUP5 AND SWAP4 POP DUP1 DUP7 AND DUP5 OR SWAP3 POP POP POP SWAP4 SWAP3 POP POP POP JUMP JUMPDEST PUSH0 DUP2 SWAP1 POP SWAP2 SWAP1 POP JUMP JUMPDEST PUSH0 PUSH2 0xC21 PUSH2 0xC1C PUSH2 0xC17 DUP5 PUSH2 0x6CB JUMP JUMPDEST PUSH2 0xBFE JUMP JUMPDEST PUSH2 0x6CB JUMP JUMPDEST SWAP1 POP SWAP2 SWAP1 POP JUMP JUMPDEST PUSH0 DUP2 SWAP1 POP SWAP2 SWAP1 POP JUMP JUMPDEST PUSH2 0xC3A DUP4 PUSH2 0xC07 JUMP JUMPDEST PUSH2 0xC4E PUSH2 0xC46 DUP3 PUSH2 0xC28 JUMP JUMPDEST DUP5 DUP5 SLOAD PUSH2 0xBAD JUMP JUMPDEST DUP3 SSTORE POP POP POP POP JUMP JUMPDEST PUSH0 PUSH0 SWAP1 POP SWAP1 JUMP JUMPDEST PUSH2 0xC65 PUSH2 0xC56 JUMP JUMPDEST PUSH2 0xC70 DUP2 DUP5 DUP5 PUSH2 0xC31 JUMP JUMPDEST POP POP POP JUMP JUMPDEST JUMPDEST DUP2 DUP2 LT ISZERO PUSH2 0xC93 JUMPI PUSH2 0xC88 PUSH0 DUP3 PUSH2 0xC5D JUMP JUMPDEST PUSH1 0x1 DUP2 ADD SWAP1 POP PUSH2 0xC76 JUMP JUMPDEST POP POP JUMP JUMPDEST PUSH1 0x1F DUP3 GT ISZERO PUSH2 0xCD8 JUMPI PUSH2 0xCA9 DUP2 PUSH2 0xB80 JUMP JUMPDEST PUSH2 0xCB2 DUP5 PUSH2 0xB92 JUMP JUMPDEST DUP2 ADD PUSH1 0x20 DUP6 LT ISZERO PUSH2 0xCC1 JUMPI DUP2 SWAP1 POP JUMPDEST PUSH2 0xCD5 PUSH2 0xCCD DUP6 PUSH2 0xB92 JUMP JUMPDEST DUP4 ADD DUP3 PUSH2 0xC75 JUMP JUMPDEST POP POP JUMPDEST POP POP POP JUMP JUMPDEST PUSH0 DUP3 DUP3 SHR SWAP1 POP SWAP3 SWAP2 POP POP JUMP JUMPDEST PUSH0 PUSH2 0xCF8 PUSH0 NOT DUP5 PUSH1 0x8 MUL PUSH2 0xCDD JUMP JUMPDEST NOT DUP1 DUP4 AND SWAP2 POP POP SWAP3 SWAP2 POP POP JUMP JUMPDEST PUSH0 PUSH2 0xD10 DUP4 DUP4 PUSH2 0xCE9 JUMP JUMPDEST SWAP2 POP DUP3 PUSH1 0x2 MUL DUP3 OR SWAP1 POP SWAP3 SWAP2 POP POP JUMP JUMPDEST PUSH2 0xD29 DUP3 PUSH2 0x96B JUMP JUMPDEST PUSH8 0xFFFFFFFFFFFFFFFF DUP2 GT ISZERO PUSH2 0xD42 JUMPI PUSH2 0xD41 PUSH2 0x7CD JUMP JUMPDEST JUMPDEST PUSH2 0xD4C DUP3 SLOAD PUSH2 0xABB JUMP JUMPDEST PUSH2 0xD57 DUP3 DUP3 DUP6 PUSH2 0xC97 JUMP JUMPDEST PUSH0 PUSH1 0x20 SWAP1 POP PUSH1 0x1F DUP4 GT PUSH1 0x1 DUP2 EQ PUSH2 0xD88 JUMPI PUSH0 DUP5 ISZERO PUSH2 0xD76 JUMPI DUP3 DUP8 ADD MLOAD SWAP1 POP JUMPDEST PUSH2 0xD80 DUP6 DUP3 PUSH2 0xD05 JUMP JUMPDEST DUP7 SSTORE POP PUSH2 0xDE7 JUMP JUMPDEST PUSH1 0x1F NOT DUP5 AND PUSH2 0xD96 DUP7 PUSH2 0xB80 JUMP JUMPDEST PUSH0 JUMPDEST DUP3 DUP2 LT ISZERO PUSH2 0xDBD JUMPI DUP5 DUP10 ADD MLOAD DUP3 SSTORE PUSH1 0x1 DUP3 ADD SWAP2 POP PUSH1 0x20 DUP6 ADD SWAP5 POP PUSH1 0x20 DUP2 ADD SWAP1 POP PUSH2 0xD98 JUMP JUMPDEST DUP7 DUP4 LT ISZERO PUSH2 0xDDA JUMPI DUP5 DUP10 ADD MLOAD PUSH2 0xDD6 PUSH1 0x1F DUP10 AND DUP3 PUSH2 0xCE9 JUMP JUMPDEST DUP4 SSTORE POP JUMPDEST PUSH1 0x1 PUSH1 0x2 DUP9 MUL ADD DUP9 SSTORE POP POP POP JUMPDEST POP POP POP POP POP POP JUMP JUMPDEST PUSH32 0x5661756C7420697320636C6F7365640000000000000000000000000000000000 PUSH0 DUP3 ADD MSTORE POP JUMP JUMPDEST PUSH0 PUSH2 0xE23 PUSH1 0xF DUP4 PUSH2 0x975 JUMP JUMPDEST SWAP2 POP PUSH2 0xE2E DUP3 PUSH2 0xDEF JUMP JUMPDEST PUSH1 0x20 DUP3 ADD SWAP1 POP SWAP2 SWAP1 POP JUMP JUMPDEST PUSH0 PUSH1 0x20 DUP3 ADD SWAP1 POP DUP2 DUP2 SUB PUSH0 DUP4 ADD MSTORE PUSH2 0xE50 DUP2 PUSH2 0xE17 JUMP JUMPDEST SWAP1 POP SWAP2 SWAP1 POP JUMP JUMPDEST PUSH32 0x496E73756666696369656E742062616C616E6365000000000000000000000000 PUSH0 DUP3 ADD MSTORE POP JUMP JUMPDEST PUSH0 PUSH2 0xE8B PUSH1 0x14 DUP4 PUSH2 0x975 JUMP JUMPDEST SWAP2 POP PUSH2 0xE96 DUP3 PUSH2 0xE57 JUMP JUMPDEST PUSH1 0x20 DUP3 ADD SWAP1 POP SWAP2 SWAP1 POP JUMP JUMPDEST PUSH0 PUSH1 0x20 DUP3 ADD SWAP1 POP DUP2 DUP2 SUB PUSH0 DUP4 ADD MSTORE PUSH2 0xEB8 DUP2 PUSH2 0xE7F JUMP JUMPDEST SWAP1 POP SWAP2 SWAP1 POP JUMP JUMPDEST PUSH32 0x4E487B7100000000000000000000000000000000000000000000000000000000 PUSH0 MSTORE PUSH1 0x11 PUSH1 0x4 MSTORE PUSH1 0x24 PUSH0 REVERT JUMPDEST PUSH0 PUSH2 0xEF6 DUP3 PUSH2 0x6CB JUMP JUMPDEST SWAP2 POP PUSH2 0xF01 DUP4 PUSH2 0x6CB JUMP JUMPDEST SWAP3 POP DUP3 DUP3 SUB SWAP1 POP DUP2 DUP2 GT ISZERO PUSH2 0xF19 JUMPI PUSH2 0xF18 PUSH2 0xEBF JUMP JUMPDEST JUMPDEST SWAP3 SWAP2 POP POP JUMP JUMPDEST PUSH0 PUSH2 0xF29 DUP3 PUSH2 0x9EB JUMP JUMPDEST SWAP2 POP PUSH2 0xF34 DUP4 PUSH2 0x9EB JUMP JUMPDEST SWAP3 POP DUP3 DUP3 SUB SWAP1 POP DUP2 DUP2 SLT PUSH0 DUP5 SLT AND DUP3 DUP3 SGT PUSH0 DUP6 SLT ISZERO AND OR ISZERO PUSH2 0xF59 JUMPI PUSH2 0xF58 PUSH2 0xEBF JUMP JUMPDEST JUMPDEST SWAP3 SWAP2 POP POP JUMP JUMPDEST PUSH0 DUP2 SWAP1 POP SWAP3 SWAP2 POP POP JUMP JUMPDEST PUSH0 DUP2 SWAP1 POP DUP2 PUSH0 MSTORE PUSH1 0x20 PUSH0 KECCAK256 SWAP1 POP SWAP2 SWAP1 POP JUMP JUMPDEST PUSH0 DUP2 SLOAD PUSH2 0xF87 DUP2 PUSH2 0xABB JUMP JUMPDEST PUSH2 0xF91 DUP2 DUP7 PUSH2 0xF5F JUMP JUMPDEST SWAP5 POP PUSH1 0x1 DUP3 AND PUSH0 DUP2 EQ PUSH2 0xFAB JUMPI PUSH1 0x1 DUP2 EQ PUSH2 0xFC0 JUMPI PUSH2 0xFF2 JUMP JUMPDEST PUSH1 0xFF NOT DUP4 AND DUP7 MSTORE DUP2 ISZERO ISZERO DUP3 MUL DUP7 ADD SWAP4 POP PUSH2 0xFF2 JUMP JUMPDEST PUSH2 0xFC9 DUP6 PUSH2 0xF69 JUMP JUMPDEST PUSH0 JUMPDEST DUP4 DUP2 LT ISZERO PUSH2 0xFEA JUMPI DUP2 SLOAD DUP2 DUP10 ADD MSTORE PUSH1 0x1 DUP3 ADD SWAP2 POP PUSH1 0x20 DUP2 ADD SWAP1 POP PUSH2 0xFCB JUMP JUMPDEST DUP4 DUP9 ADD SWAP6 POP POP POP JUMPDEST POP POP POP SWAP3 SWAP2 POP POP JUMP JUMPDEST PUSH0 PUSH2 0x1006 DUP3 DUP5 PUSH2 0xF7B JUMP JUMPDEST SWAP2 POP DUP2 SWAP1 POP SWAP3 SWAP2 POP POP JUMP JUMPDEST PUSH0 DUP2 SWAP1 POP DUP2 PUSH0 MSTORE PUSH1 0x20 PUSH0 KECCAK256 SWAP1 POP SWAP2 SWAP1 POP JUMP JUMPDEST PUSH1 0x1F DUP3 GT ISZERO PUSH2 0x1064 JUMPI PUSH2 0x1035 DUP2 PUSH2 0x1011 JUMP JUMPDEST PUSH2 0x103E DUP5 PUSH2 0xB92 JUMP JUMPDEST DUP2 ADD PUSH1 0x20 DUP6 LT ISZERO PUSH2 0x104D JUMPI DUP2 SWAP1 POP JUMPDEST PUSH2 0x1061 PUSH2 0x1059 DUP6 PUSH2 0xB92 JUMP JUMPDEST DUP4 ADD DUP3 PUSH2 0xC75 JUMP JUMPDEST POP POP JUMPDEST POP POP POP JUMP JUMPDEST PUSH2 0x1072 DUP3 PUSH2 0xA1C JUMP JUMPDEST PUSH8 0xFFFFFFFFFFFFFFFF DUP2 GT ISZERO PUSH2 0x108B JUMPI PUSH2 0x108A PUSH2 0x7CD JUMP JUMPDEST JUMPDEST PUSH2 0x1095 DUP3 SLOAD PUSH2 0xABB JUMP JUMPDEST PUSH2 0x10A0 DUP3 DUP3 DUP6 PUSH2 0x1023 JUMP JUMPDEST PUSH0 PUSH1 0x20 SWAP1 POP PUSH1 0x1F DUP4 GT PUSH1 0x1 DUP2 EQ PUSH2 0x10D1 JUMPI PUSH0 DUP5 ISZERO PUSH2 0x10BF JUMPI DUP3 DUP8 ADD MLOAD SWAP1 POP JUMPDEST PUSH2 0x10C9 DUP6 DUP3 PUSH2 0xD05 JUMP JUMPDEST DUP7 SSTORE POP PUSH2 0x1130 JUMP JUMPDEST PUSH1 0x1F NOT DUP5 AND PUSH2 0x10DF DUP7 PUSH2 0x1011 JUMP JUMPDEST PUSH0 JUMPDEST DUP3 DUP2 LT ISZERO PUSH2 0x1106 JUMPI DUP5 DUP10 ADD MLOAD DUP3 SSTORE PUSH1 0x1 DUP3 ADD SWAP2 POP PUSH1 0x20 DUP6 ADD SWAP5 POP PUSH1 0x20 DUP2 ADD SWAP1 POP PUSH2 0x10E1 JUMP JUMPDEST DUP7 DUP4 LT ISZERO PUSH2 0x1123 JUMPI DUP5 DUP10 ADD MLOAD PUSH2 0x111F PUSH1 0x1F DUP10 AND DUP3 PUSH2 0xCE9 JUMP JUMPDEST DUP4 SSTORE POP JUMPDEST PUSH1 0x1 PUSH1 0x2 DUP9 MUL ADD DUP9 SSTORE POP POP POP JUMPDEST POP POP POP POP POP POP JUMP JUMPDEST PUSH0 PUSH2 0x1142 DUP3 PUSH2 0x6CB JUMP JUMPDEST SWAP2 POP PUSH2 0x114D DUP4 PUSH2 0x6CB JUMP JUMPDEST SWAP3 POP DUP3 DUP3 ADD SWAP1 POP DUP1 DUP3 GT ISZERO PUSH2 0x1165 JUMPI PUSH2 0x1164 PUSH2 0xEBF JUMP JUMPDEST JUMPDEST SWAP3 SWAP2 POP POP JUMP JUMPDEST PUSH0 PUSH2 0x1175 DUP3 PUSH2 0x9EB JUMP JUMPDEST SWAP2 POP PUSH2 0x1180 DUP4 PUSH2 0x9EB JUMP JUMPDEST SWAP3 POP DUP3 DUP3 ADD SWAP1 POP DUP3 DUP2 SLT ISZERO PUSH0 DUP4 SLT AND DUP4 DUP3 SLT PUSH0 DUP5 SLT ISZERO AND OR ISZERO PUSH2 0x11A6 JUMPI PUSH2 0x11A5 PUSH2 0xEBF JUMP JUMPDEST JUMPDEST SWAP3 SWAP2 POP POP JUMP INVALID LOG2 PUSH5 0x6970667358 0x22 SLT KECCAK256 DUP2 PUSH21 0x5E57177A1388761147CBE16BB805D477B05388445F LOG1 0xB6 0xC1 0x2B 0xC7 0xB5 MCOPY KECCAK256 ADDMOD PUSH5 0x736F6C6343 STOP ADDMOD 0x1F STOP CALLER "
				},
				"gasEstimates": {
					"creation": {
						"codeDepositCost": "915600",
						"executionCost": "35245",
						"totalCost": "950845"
					},
					"external": {
						"closeVault()": "24476",
						"deposit(uint256)": "infinite",
						"getLength()": "2629",
						"getSecretByte(uint256)": "infinite",
						"getSecretLength()": "2653",
						"getVaultStatus()": "2495",
						"isVaultOpen()": "2554",
						"netTranscation()": "2514",
						"openVault()": "24476",
						"ownerName()": "infinite",
						"secretCode()": "infinite",
						"setOwnerName(string)": "infinite",
						"setSecret(string)": "infinite",
						"vaultBalance()": "2449",
						"verifyOwner(string)": "infinite",
						"withdraw(uint256)": "infinite"
					}
				},
				"methodIdentifiers": {
					"closeVault()": "18976fa2",
					"deposit(uint256)": "b6b55f25",
					"getLength()": "be1c766b",
					"getSecretByte(uint256)": "0dccd51e",
					"getSecretLength()": "9624b8a7",
					"getVaultStatus()": "aede67ea",
					"isVaultOpen()": "ec36d35e",
					"netTranscation()": "6729f7ec",
					"openVault()": "86f54712",
					"ownerName()": "65ac2320",
					"secretCode()": "7fd25e6f",
					"setOwnerName(string)": "295795e2",
					"setSecret(string)": "7ed6c926",
					"vaultBalance()": "0bf6cc08",
					"verifyOwner(string)": "3e116de5",
					"withdraw(uint256)": "2e1a7d4d"
				}
			},
			"storageLayout": {
				"storage": [
					{
						"astId": 3,
						"contract": "Class_3 (27.2.26)/1.DigitalVault.sol:DigitalVault",
						"label": "ownerName",
						"offset": 0,
						"slot": "0",
						"type": "t_string_storage"
					},
					{
						"astId": 5,
						"contract": "Class_3 (27.2.26)/1.DigitalVault.sol:DigitalVault",
						"label": "vaultBalance",
						"offset": 0,
						"slot": "1",
						"type": "t_uint256"
					},
					{
						"astId": 7,
						"contract": "Class_3 (27.2.26)/1.DigitalVault.sol:DigitalVault",
						"label": "isVaultOpen",
						"offset": 0,
						"slot": "2",
						"type": "t_bool"
					},
					{
						"astId": 9,
						"contract": "Class_3 (27.2.26)/1.DigitalVault.sol:DigitalVault",
						"label": "netTranscation",
						"offset": 0,
						"slot": "3",
						"type": "t_int256"
					},
					{
						"astId": 11,
						"contract": "Class_3 (27.2.26)/1.DigitalVault.sol:DigitalVault",
						"label": "secretCode",
						"offset": 0,
						"slot": "4",
						"type": "t_bytes_storage"
					}
				],
				"types": {
					"t_bool": {
						"encoding": "inplace",
						"label": "bool",
						"numberOfBytes": "1"
					},
					"t_bytes_storage": {
						"encoding": "bytes",
						"label": "bytes",
						"numberOfBytes": "32"
					},
					"t_int256": {
						"encoding": "inplace",
						"label": "int256",
						"numberOfBytes": "32"
					},
					"t_string_storage": {
						"encoding": "bytes",
						"label": "string",
						"numberOfBytes": "32"
					},
					"t_uint256": {
						"encoding": "inplace",
						"label": "uint256",
						"numberOfBytes": "32"
					}
				}
			},
			"userdoc": {
				"kind": "user",
				"methods": {},
				"version": 1
			}
		}
	}
}