{
	"Class_3 (27.2.26)/1.DigitalVault.sol": {
		"DigitalVault": {
			"abi": [
				{
					"inputs": [],
					"stateMutability": "nonpayable",
					"type": "constructor"
				},
				{
					"inputs": [],
					"name": "closeVault",
					"outputs": [],
					"stateMutability": "nonpayable",
					"type": "function"
				},
				{
					"inputs": [
						{
							"internalType": "uint256",
							"name": "amount",
							"type": "uint256"
						}
					],
					"name": "deposit",
					"outputs": [],
					"stateMutability": "nonpayable",
					"type": "function"
				},
				{
					"inputs": [],
					"name": "getLength",
					"outputs": [
						{
							"internalType": "uint256",
							"name": "",
							"type": "uint256"
						}
					],
					"stateMutability": "view",
					"type": "function"
				},
				{
					"inputs": [
						{
							"internalType": "uint256",
							"name": "index",
							"type": "uint256"
						}
					],
					"name": "getSecretByte",
					"outputs": [
						{
							"internalType": "bytes1",
							"name": "",
							"type": "bytes1"
						}
					],
					"stateMutability": "view",
					"type": "function"
				},
				{
					"inputs": [],
					"name": "getSecretLength",
					"outputs": [
						{
							"internalType": "uint256",
							"name": "",
							"type": "uint256"
						}
					],
					"stateMutability": "view",
					"type": "function"
				},
				{
					"inputs": [],
					"name": "getVaultDetails",
					"outputs": [
						{
							"internalType": "string",
							"name": "",
							"type": "string"
						},
						{
							"internalType": "uint256",
							"name": "",
							"type": "uint256"
						},
						{
							"internalType": "int256",
							"name": "",
							"type": "int256"
						},
						{
							"internalType": "bool",
							"name": "",
							"type": "bool"
						}
					],
					"stateMutability": "view",
					"type": "function"
				},
				{
					"inputs": [],
					"name": "getVaultStatus",
					"outputs": [
						{
							"internalType": "bool",
							"name": "",
							"type": "bool"
						}
					],
					"stateMutability": "view",
					"type": "function"
				},
				{
					"inputs": [],
					"name": "isVaultOpen",
					"outputs": [
						{
							"internalType": "bool",
							"name": "",
							"type": "bool"
						}
					],
					"stateMutability": "view",
					"type": "function"
				},
				{
					"inputs": [],
					"name": "netTranscation",
					"outputs": [
						{
							"internalType": "int256",
							"name": "",
							"type": "int256"
						}
					],
					"stateMutability": "view",
					"type": "function"
				},
				{
					"inputs": [],
					"name": "openVault",
					"outputs": [],
					"stateMutability": "nonpayable",
					"type": "function"
				},
				{
					"inputs": [],
					"name": "ownerName",
					"outputs": [
						{
							"internalType": "string",
							"name": "",
							"type": "string"
						}
					],
					"stateMutability": "view",
					"type": "function"
				},
				{
					"inputs": [],
					"name": "secretCode",
					"outputs": [
						{
							"internalType": "bytes",
							"name": "",
							"type": "bytes"
						}
					],
					"stateMutability": "view",
					"type": "function"
				},
				{
					"inputs": [
						{
							"internalType": "string",
							"name": "_name",
							"type": "string"
						}
					],
					"name": "setOwnerName",
					"outputs": [],
					"stateMutability": "nonpayable",
					"type": "function"
				},
				{
					"inputs": [
						{
							"internalType": "string",
							"name": "_code",
							"type": "string"
						}
					],
					"name": "setSecret",
					"outputs": [],
					"stateMutability": "nonpayable",
					"type": "function"
				},
				{
					"inputs": [],
					"name": "vaultBalance",
					"outputs": [
						{
							"internalType": "uint256",
							"name": "",
							"type": "uint256"
						}
					],
					"stateMutability": "view",
					"type": "function"
				},
				{
					"inputs": [
						{
							"internalType": "string",
							"name": "_name",
							"type": "string"
						}
					],
					"name": "verifyOwner",
					"outputs": [
						{
							"internalType": "bool",
							"name": "",
							"type": "bool"
						}
					],
					"stateMutability": "view",
					"type": "function"
				},
				{
					"inputs": [
						{
							"internalType": "uint256",
							"name": "amount",
							"type": "uint256"
						}
					],
					"name": "withdraw",
					"outputs": [],
					"stateMutability": "nonpayable",
					"type": "function"
				}
			],
			"devdoc": {
				"kind": "dev",
				"methods": {},
				"version": 1
			},
			"evm": {
				"assembly": "    /* \"Class_3 (27.2.26)/1.DigitalVault.sol\":60:2315  contract DigitalVault{... */\n  mstore(0x40, 0x80)\n    /* \"Class_3 (27.2.26)/1.DigitalVault.sol\":400:507  constructor (){... */\n  callvalue\n  dup1\n  iszero\n  tag_1\n  jumpi\n  revert(0x00, 0x00)\ntag_1:\n  pop\n    /* \"Class_3 (27.2.26)/1.DigitalVault.sol\":440:441  0 */\n  0x00\n    /* \"Class_3 (27.2.26)/1.DigitalVault.sol\":425:437  vaultBalance */\n  0x01\n    /* \"Class_3 (27.2.26)/1.DigitalVault.sol\":425:441  vaultBalance = 0 */\n  dup2\n  swap1\n  sstore\n  pop\n    /* \"Class_3 (27.2.26)/1.DigitalVault.sol\":469:470  0 */\n  0x00\n    /* \"Class_3 (27.2.26)/1.DigitalVault.sol\":452:466  netTranscation */\n  0x03\n    /* \"Class_3 (27.2.26)/1.DigitalVault.sol\":452:470  netTranscation = 0 */\n  dup2\n  swap1\n  sstore\n  pop\n    /* \"Class_3 (27.2.26)/1.DigitalVault.sol\":495:499  true */\n  0x01\n    /* \"Class_3 (27.2.26)/1.DigitalVault.sol\":481:492  isVaultOpen */\n  0x02\n  0x00\n    /* \"Class_3 (27.2.26)/1.DigitalVault.sol\":481:499  isVaultOpen = true */\n  0x0100\n  exp\n  dup2\n  sload\n  dup2\n  0xff\n  mul\n  not\n  and\n  swap1\n  dup4\n  iszero\n  iszero\n  mul\n  or\n  swap1\n  sstore\n  pop\n    /* \"Class_3 (27.2.26)/1.DigitalVault.sol\":60:2315  contract DigitalVault{... */\n  dataSize(sub_0)\n  dup1\n  dataOffset(sub_0)\n  0x00\n  codecopy\n  0x00\n  return\nstop\n\nsub_0: assembly {\n        /* \"Class_3 (27.2.26)/1.DigitalVault.sol\":60:2315  contract DigitalVault{... */\n      mstore(0x40, 0x80)\n      callvalue\n      dup1\n      iszero\n      tag_1\n      jumpi\n      revert(0x00, 0x00)\n    tag_1:\n      pop\n      jumpi(tag_2, lt(calldatasize, 0x04))\n      shr(0xe0, calldataload(0x00))\n      dup1\n      0x6729f7ec\n      gt\n      tag_20\n      jumpi\n      dup1\n      0x9624b8a7\n      gt\n      tag_21\n      jumpi\n      dup1\n      0x9624b8a7\n      eq\n      tag_15\n      jumpi\n      dup1\n      0xaede67ea\n      eq\n      tag_16\n      jumpi\n      dup1\n      0xb6b55f25\n      eq\n      tag_17\n      jumpi\n      dup1\n      0xbe1c766b\n      eq\n      tag_18\n      jumpi\n      dup1\n      0xec36d35e\n      eq\n      tag_19\n      jumpi\n      jump(tag_2)\n    tag_21:\n      dup1\n      0x6729f7ec\n      eq\n      tag_11\n      jumpi\n      dup1\n      0x7ed6c926\n      eq\n      tag_12\n      jumpi\n      dup1\n      0x7fd25e6f\n      eq\n      tag_13\n      jumpi\n      dup1\n      0x86f54712\n      eq\n      tag_14\n      jumpi\n      jump(tag_2)\n    tag_20:\n      dup1\n      0x2e1a7d4d\n      gt\n      tag_22\n      jumpi\n      dup1\n      0x2e1a7d4d\n      eq\n      tag_7\n      jumpi\n      dup1\n      0x3e116de5\n      eq\n      tag_8\n      jumpi\n      dup1\n      0x533092ef\n      eq\n      tag_9\n      jumpi\n      dup1\n      0x65ac2320\n      eq\n      tag_10\n      jumpi\n      jump(tag_2)\n    tag_22:\n      dup1\n      0x0bf6cc08\n      eq\n      tag_3\n      jumpi\n      dup1\n      0x0dccd51e\n      eq\n      tag_4\n      jumpi\n      dup1\n      0x18976fa2\n      eq\n      tag_5\n      jumpi\n      dup1\n      0x295795e2\n      eq\n      tag_6\n      jumpi\n    tag_2:\n      revert(0x00, 0x00)\n        /* \"Class_3 (27.2.26)/1.DigitalVault.sol\":146:170  uint public vaultBalance */\n    tag_3:\n      tag_23\n      tag_24\n      jump\t// in\n    tag_23:\n      mload(0x40)\n      tag_25\n      swap2\n      swap1\n      tag_26\n      jump\t// in\n    tag_25:\n      mload(0x40)\n      dup1\n      swap2\n      sub\n      swap1\n      return\n        /* \"Class_3 (27.2.26)/1.DigitalVault.sol\":1966:2141  function getSecretByte(uint index) public view returns (bytes1) {... */\n    tag_4:\n      tag_27\n      0x04\n      dup1\n      calldatasize\n      sub\n      dup2\n      add\n      swap1\n      tag_28\n      swap2\n      swap1\n      tag_29\n      jump\t// in\n    tag_28:\n      tag_30\n      jump\t// in\n    tag_27:\n      mload(0x40)\n      tag_31\n      swap2\n      swap1\n      tag_32\n      jump\t// in\n    tag_31:\n      mload(0x40)\n      dup1\n      swap2\n      sub\n      swap1\n      return\n        /* \"Class_3 (27.2.26)/1.DigitalVault.sol\":1556:1623  function closeVault() public {... */\n    tag_5:\n      tag_33\n      tag_34\n      jump\t// in\n    tag_33:\n      stop\n        /* \"Class_3 (27.2.26)/1.DigitalVault.sol\":537:622  function setOwnerName(string memory _name) public{... */\n    tag_6:\n      tag_35\n      0x04\n      dup1\n      calldatasize\n      sub\n      dup2\n      add\n      swap1\n      tag_36\n      swap2\n      swap1\n      tag_37\n      jump\t// in\n    tag_36:\n      tag_38\n      jump\t// in\n    tag_35:\n      stop\n        /* \"Class_3 (27.2.26)/1.DigitalVault.sol\":1177:1448  function withdraw(uint amount) public {... */\n    tag_7:\n      tag_39\n      0x04\n      dup1\n      calldatasize\n      sub\n      dup2\n      add\n      swap1\n      tag_40\n      swap2\n      swap1\n      tag_29\n      jump\t// in\n    tag_40:\n      tag_41\n      jump\t// in\n    tag_39:\n      stop\n        /* \"Class_3 (27.2.26)/1.DigitalVault.sol\":730:877  function verifyOwner(string memory _name) public view returns(bool){... */\n    tag_8:\n      tag_42\n      0x04\n      dup1\n      calldatasize\n      sub\n      dup2\n      add\n      swap1\n      tag_43\n      swap2\n      swap1\n      tag_37\n      jump\t// in\n    tag_43:\n      tag_44\n      jump\t// in\n    tag_42:\n      mload(0x40)\n      tag_45\n      swap2\n      swap1\n      tag_46\n      jump\t// in\n    tag_45:\n      mload(0x40)\n      dup1\n      swap2\n      sub\n      swap1\n      return\n        /* \"Class_3 (27.2.26)/1.DigitalVault.sol\":2147:2304  function getVaultDetails() public view returns(string memory, uint, int, bool){... */\n    tag_9:\n      tag_47\n      tag_48\n      jump\t// in\n    tag_47:\n      mload(0x40)\n      tag_49\n      swap5\n      swap4\n      swap3\n      swap2\n      swap1\n      tag_50\n      jump\t// in\n    tag_49:\n      mload(0x40)\n      dup1\n      swap2\n      sub\n      swap1\n      return\n        /* \"Class_3 (27.2.26)/1.DigitalVault.sol\":88:111  string public ownerName */\n    tag_10:\n      tag_51\n      tag_52\n      jump\t// in\n    tag_51:\n      mload(0x40)\n      tag_53\n      swap2\n      swap1\n      tag_54\n      jump\t// in\n    tag_53:\n      mload(0x40)\n      dup1\n      swap2\n      sub\n      swap1\n      return\n        /* \"Class_3 (27.2.26)/1.DigitalVault.sol\":269:294  int public netTranscation */\n    tag_11:\n      tag_55\n      tag_56\n      jump\t// in\n    tag_55:\n      mload(0x40)\n      tag_57\n      swap2\n      swap1\n      tag_58\n      jump\t// in\n    tag_57:\n      mload(0x40)\n      dup1\n      swap2\n      sub\n      swap1\n      return\n        /* \"Class_3 (27.2.26)/1.DigitalVault.sol\":1764:1856  function setSecret (string memory _code) public {... */\n    tag_12:\n      tag_59\n      0x04\n      dup1\n      calldatasize\n      sub\n      dup2\n      add\n      swap1\n      tag_60\n      swap2\n      swap1\n      tag_37\n      jump\t// in\n    tag_60:\n      tag_61\n      jump\t// in\n    tag_59:\n      stop\n        /* \"Class_3 (27.2.26)/1.DigitalVault.sol\":334:357  bytes public secretCode */\n    tag_13:\n      tag_62\n      tag_63\n      jump\t// in\n    tag_62:\n      mload(0x40)\n      tag_64\n      swap2\n      swap1\n      tag_65\n      jump\t// in\n    tag_64:\n      mload(0x40)\n      dup1\n      swap2\n      sub\n      swap1\n      return\n        /* \"Class_3 (27.2.26)/1.DigitalVault.sol\":1485:1550  function openVault() public {... */\n    tag_14:\n      tag_66\n      tag_67\n      jump\t// in\n    tag_66:\n      stop\n        /* \"Class_3 (27.2.26)/1.DigitalVault.sol\":1862:1959  function getSecretLength () public view returns (uint){... */\n    tag_15:\n      tag_68\n      tag_69\n      jump\t// in\n    tag_68:\n      mload(0x40)\n      tag_70\n      swap2\n      swap1\n      tag_26\n      jump\t// in\n    tag_70:\n      mload(0x40)\n      dup1\n      swap2\n      sub\n      swap1\n      return\n        /* \"Class_3 (27.2.26)/1.DigitalVault.sol\":1629:1719  function getVaultStatus() public view returns (bool) {... */\n    tag_16:\n      tag_71\n      tag_72\n      jump\t// in\n    tag_71:\n      mload(0x40)\n      tag_73\n      swap2\n      swap1\n      tag_46\n      jump\t// in\n    tag_73:\n      mload(0x40)\n      dup1\n      swap2\n      sub\n      swap1\n      return\n        /* \"Class_3 (27.2.26)/1.DigitalVault.sol\":938:1143  function deposit(uint amount) public{... */\n    tag_17:\n      tag_74\n      0x04\n      dup1\n      calldatasize\n      sub\n      dup2\n      add\n      swap1\n      tag_75\n      swap2\n      swap1\n      tag_29\n      jump\t// in\n    tag_75:\n      tag_76\n      jump\t// in\n    tag_74:\n      stop\n        /* \"Class_3 (27.2.26)/1.DigitalVault.sol\":628:724  function getLength() public view returns(uint){... */\n    tag_18:\n      tag_77\n      tag_78\n      jump\t// in\n    tag_77:\n      mload(0x40)\n      tag_79\n      swap2\n      swap1\n      tag_26\n      jump\t// in\n    tag_79:\n      mload(0x40)\n      dup1\n      swap2\n      sub\n      swap1\n      return\n        /* \"Class_3 (27.2.26)/1.DigitalVault.sol\":204:227  bool public isVaultOpen */\n    tag_19:\n      tag_80\n      tag_81\n      jump\t// in\n    tag_80:\n      mload(0x40)\n      tag_82\n      swap2\n      swap1\n      tag_46\n      jump\t// in\n    tag_82:\n      mload(0x40)\n      dup1\n      swap2\n      sub\n      swap1\n      return\n        /* \"Class_3 (27.2.26)/1.DigitalVault.sol\":146:170  uint public vaultBalance */\n    tag_24:\n      sload(0x01)\n      dup2\n      jump\t// out\n        /* \"Class_3 (27.2.26)/1.DigitalVault.sol\":1966:2141  function getSecretByte(uint index) public view returns (bytes1) {... */\n    tag_30:\n        /* \"Class_3 (27.2.26)/1.DigitalVault.sol\":2022:2028  bytes1 */\n      0x00\n        /* \"Class_3 (27.2.26)/1.DigitalVault.sol\":2057:2067  secretCode */\n      0x04\n        /* \"Class_3 (27.2.26)/1.DigitalVault.sol\":2057:2074  secretCode.length */\n      dup1\n      sload\n      tag_84\n      swap1\n      tag_85\n      jump\t// in\n    tag_84:\n      swap1\n      pop\n        /* \"Class_3 (27.2.26)/1.DigitalVault.sol\":2049:2054  index */\n      dup3\n        /* \"Class_3 (27.2.26)/1.DigitalVault.sol\":2049:2074  index < secretCode.length */\n      lt\n        /* \"Class_3 (27.2.26)/1.DigitalVault.sol\":2041:2098  require(index < secretCode.length, \"Index out of bounds\") */\n      tag_86\n      jumpi\n      mload(0x40)\n      0x08c379a000000000000000000000000000000000000000000000000000000000\n      dup2\n      mstore\n      0x04\n      add\n      tag_87\n      swap1\n      tag_88\n      jump\t// in\n    tag_87:\n      mload(0x40)\n      dup1\n      swap2\n      sub\n      swap1\n      revert\n    tag_86:\n        /* \"Class_3 (27.2.26)/1.DigitalVault.sol\":2116:2126  secretCode */\n      0x04\n        /* \"Class_3 (27.2.26)/1.DigitalVault.sol\":2127:2132  index */\n      dup3\n        /* \"Class_3 (27.2.26)/1.DigitalVault.sol\":2116:2133  secretCode[index] */\n      dup2\n      sload\n      tag_89\n      swap1\n      tag_85\n      jump\t// in\n    tag_89:\n      dup2\n      lt\n      tag_90\n      jumpi\n      tag_91\n      tag_92\n      jump\t// in\n    tag_91:\n    tag_90:\n      dup2\n      sload\n      0x01\n      and\n      iszero\n      tag_93\n      jumpi\n      swap1\n      0x00\n      mstore\n      keccak256(0x00, 0x20)\n      swap1\n      0x20\n      swap2\n      dup3\n      dup3\n      div\n      add\n      swap2\n      swap1\n      mod\n    tag_93:\n      swap1\n      sload\n      swap1\n      byte\n      0x0100000000000000000000000000000000000000000000000000000000000000\n      mul\n        /* \"Class_3 (27.2.26)/1.DigitalVault.sol\":2109:2133  return secretCode[index] */\n      swap1\n      pop\n        /* \"Class_3 (27.2.26)/1.DigitalVault.sol\":1966:2141  function getSecretByte(uint index) public view returns (bytes1) {... */\n      swap2\n      swap1\n      pop\n      jump\t// out\n        /* \"Class_3 (27.2.26)/1.DigitalVault.sol\":1556:1623  function closeVault() public {... */\n    tag_34:\n        /* \"Class_3 (27.2.26)/1.DigitalVault.sol\":1610:1615  false */\n      0x00\n        /* \"Class_3 (27.2.26)/1.DigitalVault.sol\":1596:1607  isVaultOpen */\n      0x02\n      0x00\n        /* \"Class_3 (27.2.26)/1.DigitalVault.sol\":1596:1615  isVaultOpen = false */\n      0x0100\n      exp\n      dup2\n      sload\n      dup2\n      0xff\n      mul\n      not\n      and\n      swap1\n      dup4\n      iszero\n      iszero\n      mul\n      or\n      swap1\n      sstore\n      pop\n        /* \"Class_3 (27.2.26)/1.DigitalVault.sol\":1556:1623  function closeVault() public {... */\n      jump\t// out\n        /* \"Class_3 (27.2.26)/1.DigitalVault.sol\":537:622  function setOwnerName(string memory _name) public{... */\n    tag_38:\n        /* \"Class_3 (27.2.26)/1.DigitalVault.sol\":609:614  _name */\n      dup1\n        /* \"Class_3 (27.2.26)/1.DigitalVault.sol\":597:606  ownerName */\n      0x00\n        /* \"Class_3 (27.2.26)/1.DigitalVault.sol\":597:614  ownerName = _name */\n      swap1\n      dup2\n      tag_96\n      swap2\n      swap1\n      tag_97\n      jump\t// in\n    tag_96:\n      pop\n        /* \"Class_3 (27.2.26)/1.DigitalVault.sol\":537:622  function setOwnerName(string memory _name) public{... */\n      pop\n      jump\t// out\n        /* \"Class_3 (27.2.26)/1.DigitalVault.sol\":1177:1448  function withdraw(uint amount) public {... */\n    tag_41:\n        /* \"Class_3 (27.2.26)/1.DigitalVault.sol\":1234:1245  isVaultOpen */\n      0x02\n      0x00\n      swap1\n      sload\n      swap1\n      0x0100\n      exp\n      swap1\n      div\n      0xff\n      and\n        /* \"Class_3 (27.2.26)/1.DigitalVault.sol\":1226:1265  require(isVaultOpen, \"Vault is closed\") */\n      tag_99\n      jumpi\n      mload(0x40)\n      0x08c379a000000000000000000000000000000000000000000000000000000000\n      dup2\n      mstore\n      0x04\n      add\n      tag_100\n      swap1\n      tag_101\n      jump\t// in\n    tag_100:\n      mload(0x40)\n      dup1\n      swap2\n      sub\n      swap1\n      revert\n    tag_99:\n        /* \"Class_3 (27.2.26)/1.DigitalVault.sol\":1300:1306  amount */\n      dup1\n        /* \"Class_3 (27.2.26)/1.DigitalVault.sol\":1284:1296  vaultBalance */\n      sload(0x01)\n        /* \"Class_3 (27.2.26)/1.DigitalVault.sol\":1284:1306  vaultBalance >= amount */\n      lt\n      iszero\n        /* \"Class_3 (27.2.26)/1.DigitalVault.sol\":1276:1331  require(vaultBalance >= amount, \"Insufficient balance\") */\n      tag_102\n      jumpi\n      mload(0x40)\n      0x08c379a000000000000000000000000000000000000000000000000000000000\n      dup2\n      mstore\n      0x04\n      add\n      tag_103\n      swap1\n      tag_104\n      jump\t// in\n    tag_103:\n      mload(0x40)\n      dup1\n      swap2\n      sub\n      swap1\n      revert\n    tag_102:\n        /* \"Class_3 (27.2.26)/1.DigitalVault.sol\":1358:1364  amount */\n      dup1\n        /* \"Class_3 (27.2.26)/1.DigitalVault.sol\":1342:1354  vaultBalance */\n      0x01\n      0x00\n        /* \"Class_3 (27.2.26)/1.DigitalVault.sol\":1342:1364  vaultBalance -= amount */\n      dup3\n      dup3\n      sload\n      tag_105\n      swap2\n      swap1\n      tag_106\n      jump\t// in\n    tag_105:\n      swap3\n      pop\n      pop\n      dup2\n      swap1\n      sstore\n      pop\n        /* \"Class_3 (27.2.26)/1.DigitalVault.sol\":1397:1403  amount */\n      dup1\n        /* \"Class_3 (27.2.26)/1.DigitalVault.sol\":1375:1389  netTranscation */\n      0x03\n      0x00\n        /* \"Class_3 (27.2.26)/1.DigitalVault.sol\":1375:1404  netTranscation -= int(amount) */\n      dup3\n      dup3\n      sload\n      tag_107\n      swap2\n      swap1\n      tag_108\n      jump\t// in\n    tag_107:\n      swap3\n      pop\n      pop\n      dup2\n      swap1\n      sstore\n      pop\n        /* \"Class_3 (27.2.26)/1.DigitalVault.sol\":1177:1448  function withdraw(uint amount) public {... */\n      pop\n      jump\t// out\n        /* \"Class_3 (27.2.26)/1.DigitalVault.sol\":730:877  function verifyOwner(string memory _name) public view returns(bool){... */\n    tag_44:\n        /* \"Class_3 (27.2.26)/1.DigitalVault.sol\":792:796  bool */\n      0x00\n        /* \"Class_3 (27.2.26)/1.DigitalVault.sol\":862:867  _name */\n      dup2\n        /* \"Class_3 (27.2.26)/1.DigitalVault.sol\":846:869  keccak256(bytes(_name)) */\n      dup1\n      mload\n      swap1\n      0x20\n      add\n      keccak256\n        /* \"Class_3 (27.2.26)/1.DigitalVault.sol\":831:840  ownerName */\n      0x00\n        /* \"Class_3 (27.2.26)/1.DigitalVault.sol\":815:842  keccak256(bytes(ownerName)) */\n      mload(0x40)\n      tag_110\n      swap2\n      swap1\n      tag_111\n      jump\t// in\n    tag_110:\n      mload(0x40)\n      dup1\n      swap2\n      sub\n      swap1\n      keccak256\n        /* \"Class_3 (27.2.26)/1.DigitalVault.sol\":815:869  keccak256(bytes(ownerName)) == keccak256(bytes(_name)) */\n      eq\n        /* \"Class_3 (27.2.26)/1.DigitalVault.sol\":808:869  return keccak256(bytes(ownerName)) == keccak256(bytes(_name)) */\n      swap1\n      pop\n        /* \"Class_3 (27.2.26)/1.DigitalVault.sol\":730:877  function verifyOwner(string memory _name) public view returns(bool){... */\n      swap2\n      swap1\n      pop\n      jump\t// out\n        /* \"Class_3 (27.2.26)/1.DigitalVault.sol\":2147:2304  function getVaultDetails() public view returns(string memory, uint, int, bool){... */\n    tag_48:\n        /* \"Class_3 (27.2.26)/1.DigitalVault.sol\":2194:2207  string memory */\n      0x60\n        /* \"Class_3 (27.2.26)/1.DigitalVault.sol\":2209:2213  uint */\n      0x00\n        /* \"Class_3 (27.2.26)/1.DigitalVault.sol\":2215:2218  int */\n      0x00\n        /* \"Class_3 (27.2.26)/1.DigitalVault.sol\":2220:2224  bool */\n      0x00\n        /* \"Class_3 (27.2.26)/1.DigitalVault.sol\":2243:2252  ownerName */\n      0x00\n        /* \"Class_3 (27.2.26)/1.DigitalVault.sol\":2254:2266  vaultBalance */\n      sload(0x01)\n        /* \"Class_3 (27.2.26)/1.DigitalVault.sol\":2268:2282  netTranscation */\n      sload(0x03)\n        /* \"Class_3 (27.2.26)/1.DigitalVault.sol\":2284:2295  isVaultOpen */\n      0x02\n      0x00\n      swap1\n      sload\n      swap1\n      0x0100\n      exp\n      swap1\n      div\n      0xff\n      and\n        /* \"Class_3 (27.2.26)/1.DigitalVault.sol\":2236:2296  return(ownerName, vaultBalance, netTranscation, isVaultOpen) */\n      dup4\n      dup1\n      sload\n      tag_113\n      swap1\n      tag_85\n      jump\t// in\n    tag_113:\n      dup1\n      0x1f\n      add\n      0x20\n      dup1\n      swap2\n      div\n      mul\n      0x20\n      add\n      mload(0x40)\n      swap1\n      dup2\n      add\n      0x40\n      mstore\n      dup1\n      swap3\n      swap2\n      swap1\n      dup2\n      dup2\n      mstore\n      0x20\n      add\n      dup3\n      dup1\n      sload\n      tag_114\n      swap1\n      tag_85\n      jump\t// in\n    tag_114:\n      dup1\n      iszero\n      tag_115\n      jumpi\n      dup1\n      0x1f\n      lt\n      tag_116\n      jumpi\n      0x0100\n      dup1\n      dup4\n      sload\n      div\n      mul\n      dup4\n      mstore\n      swap2\n      0x20\n      add\n      swap2\n      jump(tag_115)\n    tag_116:\n      dup3\n      add\n      swap2\n      swap1\n      0x00\n      mstore\n      keccak256(0x00, 0x20)\n      swap1\n    tag_117:\n      dup2\n      sload\n      dup2\n      mstore\n      swap1\n      0x01\n      add\n      swap1\n      0x20\n      add\n      dup1\n      dup4\n      gt\n      tag_117\n      jumpi\n      dup3\n      swap1\n      sub\n      0x1f\n      and\n      dup3\n      add\n      swap2\n    tag_115:\n      pop\n      pop\n      pop\n      pop\n      pop\n      swap4\n      pop\n      swap4\n      pop\n      swap4\n      pop\n      swap4\n      pop\n      swap4\n      pop\n        /* \"Class_3 (27.2.26)/1.DigitalVault.sol\":2147:2304  function getVaultDetails() public view returns(string memory, uint, int, bool){... */\n      swap1\n      swap2\n      swap3\n      swap4\n      jump\t// out\n        /* \"Class_3 (27.2.26)/1.DigitalVault.sol\":88:111  string public ownerName */\n    tag_52:\n      0x00\n      dup1\n      sload\n      tag_118\n      swap1\n      tag_85\n      jump\t// in\n    tag_118:\n      dup1\n      0x1f\n      add\n      0x20\n      dup1\n      swap2\n      div\n      mul\n      0x20\n      add\n      mload(0x40)\n      swap1\n      dup2\n      add\n      0x40\n      mstore\n      dup1\n      swap3\n      swap2\n      swap1\n      dup2\n      dup2\n      mstore\n      0x20\n      add\n      dup3\n      dup1\n      sload\n      tag_119\n      swap1\n      tag_85\n      jump\t// in\n    tag_119:\n      dup1\n      iszero\n      tag_120\n      jumpi\n      dup1\n      0x1f\n      lt\n      tag_121\n      jumpi\n      0x0100\n      dup1\n      dup4\n      sload\n      div\n      mul\n      dup4\n      mstore\n      swap2\n      0x20\n      add\n      swap2\n      jump(tag_120)\n    tag_121:\n      dup3\n      add\n      swap2\n      swap1\n      0x00\n      mstore\n      keccak256(0x00, 0x20)\n      swap1\n    tag_122:\n      dup2\n      sload\n      dup2\n      mstore\n      swap1\n      0x01\n      add\n      swap1\n      0x20\n      add\n      dup1\n      dup4\n      gt\n      tag_122\n      jumpi\n      dup3\n      swap1\n      sub\n      0x1f\n      and\n      dup3\n      add\n      swap2\n    tag_120:\n      pop\n      pop\n      pop\n      pop\n      pop\n      dup2\n      jump\t// out\n        /* \"Class_3 (27.2.26)/1.DigitalVault.sol\":269:294  int public netTranscation */\n    tag_56:\n      sload(0x03)\n      dup2\n      jump\t// out\n        /* \"Class_3 (27.2.26)/1.DigitalVault.sol\":1764:1856  function setSecret (string memory _code) public {... */\n    tag_61:\n        /* \"Class_3 (27.2.26)/1.DigitalVault.sol\":1842:1847  _code */\n      dup1\n        /* \"Class_3 (27.2.26)/1.DigitalVault.sol\":1823:1833  secretCode */\n      0x04\n        /* \"Class_3 (27.2.26)/1.DigitalVault.sol\":1823:1848  secretCode = bytes(_code) */\n      swap1\n      dup2\n      tag_124\n      swap2\n      swap1\n      tag_125\n      jump\t// in\n    tag_124:\n      pop\n        /* \"Class_3 (27.2.26)/1.DigitalVault.sol\":1764:1856  function setSecret (string memory _code) public {... */\n      pop\n      jump\t// out\n        /* \"Class_3 (27.2.26)/1.DigitalVault.sol\":334:357  bytes public secretCode */\n    tag_63:\n      0x04\n      dup1\n      sload\n      tag_126\n      swap1\n      tag_85\n      jump\t// in\n    tag_126:\n      dup1\n      0x1f\n      add\n      0x20\n      dup1\n      swap2\n      div\n      mul\n      0x20\n      add\n      mload(0x40)\n      swap1\n      dup2\n      add\n      0x40\n      mstore\n      dup1\n      swap3\n      swap2\n      swap1\n      dup2\n      dup2\n      mstore\n      0x20\n      add\n      dup3\n      dup1\n      sload\n      tag_127\n      swap1\n      tag_85\n      jump\t// in\n    tag_127:\n      dup1\n      iszero\n      tag_128\n      jumpi\n      dup1\n      0x1f\n      lt\n      tag_129\n      jumpi\n      0x0100\n      dup1\n      dup4\n      sload\n      div\n      mul\n      dup4\n      mstore\n      swap2\n      0x20\n      add\n      swap2\n      jump(tag_128)\n    tag_129:\n      dup3\n      add\n      swap2\n      swap1\n      0x00\n      mstore\n      keccak256(0x00, 0x20)\n      swap1\n    tag_130:\n      dup2\n      sload\n      dup2\n      mstore\n      swap1\n      0x01\n      add\n      swap1\n      0x20\n      add\n      dup1\n      dup4\n      gt\n      tag_130\n      jumpi\n      dup3\n      swap1\n      sub\n      0x1f\n      and\n      dup3\n      add\n      swap2\n    tag_128:\n      pop\n      pop\n      pop\n      pop\n      pop\n      dup2\n      jump\t// out\n        /* \"Class_3 (27.2.26)/1.DigitalVault.sol\":1485:1550  function openVault() public {... */\n    tag_67:\n        /* \"Class_3 (27.2.26)/1.DigitalVault.sol\":1538:1542  true */\n      0x01\n        /* \"Class_3 (27.2.26)/1.DigitalVault.sol\":1524:1535  isVaultOpen */\n      0x02\n      0x00\n        /* \"Class_3 (27.2.26)/1.DigitalVault.sol\":1524:1542  isVaultOpen = true */\n      0x0100\n      exp\n      dup2\n      sload\n      dup2\n      0xff\n      mul\n      not\n      and\n      swap1\n      dup4\n      iszero\n      iszero\n      mul\n      or\n      swap1\n      sstore\n      pop\n        /* \"Class_3 (27.2.26)/1.DigitalVault.sol\":1485:1550  function openVault() public {... */\n      jump\t// out\n        /* \"Class_3 (27.2.26)/1.DigitalVault.sol\":1862:1959  function getSecretLength () public view returns (uint){... */\n    tag_69:\n        /* \"Class_3 (27.2.26)/1.DigitalVault.sol\":1911:1915  uint */\n      0x00\n        /* \"Class_3 (27.2.26)/1.DigitalVault.sol\":1934:1944  secretCode */\n      0x04\n        /* \"Class_3 (27.2.26)/1.DigitalVault.sol\":1934:1951  secretCode.length */\n      dup1\n      sload\n      tag_133\n      swap1\n      tag_85\n      jump\t// in\n    tag_133:\n      swap1\n      pop\n        /* \"Class_3 (27.2.26)/1.DigitalVault.sol\":1927:1951  return secretCode.length */\n      swap1\n      pop\n        /* \"Class_3 (27.2.26)/1.DigitalVault.sol\":1862:1959  function getSecretLength () public view returns (uint){... */\n      swap1\n      jump\t// out\n        /* \"Class_3 (27.2.26)/1.DigitalVault.sol\":1629:1719  function getVaultStatus() public view returns (bool) {... */\n    tag_72:\n        /* \"Class_3 (27.2.26)/1.DigitalVault.sol\":1676:1680  bool */\n      0x00\n        /* \"Class_3 (27.2.26)/1.DigitalVault.sol\":1700:1711  isVaultOpen */\n      0x02\n      0x00\n      swap1\n      sload\n      swap1\n      0x0100\n      exp\n      swap1\n      div\n      0xff\n      and\n        /* \"Class_3 (27.2.26)/1.DigitalVault.sol\":1693:1711  return isVaultOpen */\n      swap1\n      pop\n        /* \"Class_3 (27.2.26)/1.DigitalVault.sol\":1629:1719  function getVaultStatus() public view returns (bool) {... */\n      swap1\n      jump\t// out\n        /* \"Class_3 (27.2.26)/1.DigitalVault.sol\":938:1143  function deposit(uint amount) public{... */\n    tag_76:\n        /* \"Class_3 (27.2.26)/1.DigitalVault.sol\":993:1004  isVaultOpen */\n      0x02\n      0x00\n      swap1\n      sload\n      swap1\n      0x0100\n      exp\n      swap1\n      div\n      0xff\n      and\n        /* \"Class_3 (27.2.26)/1.DigitalVault.sol\":985:1024  require(isVaultOpen, \"Vault is closed\") */\n      tag_136\n      jumpi\n      mload(0x40)\n      0x08c379a000000000000000000000000000000000000000000000000000000000\n      dup2\n      mstore\n      0x04\n      add\n      tag_137\n      swap1\n      tag_101\n      jump\t// in\n    tag_137:\n      mload(0x40)\n      dup1\n      swap2\n      sub\n      swap1\n      revert\n    tag_136:\n        /* \"Class_3 (27.2.26)/1.DigitalVault.sol\":1051:1057  amount */\n      dup1\n        /* \"Class_3 (27.2.26)/1.DigitalVault.sol\":1035:1047  vaultBalance */\n      0x01\n      0x00\n        /* \"Class_3 (27.2.26)/1.DigitalVault.sol\":1035:1057  vaultBalance += amount */\n      dup3\n      dup3\n      sload\n      tag_138\n      swap2\n      swap1\n      tag_139\n      jump\t// in\n    tag_138:\n      swap3\n      pop\n      pop\n      dup2\n      swap1\n      sstore\n      pop\n        /* \"Class_3 (27.2.26)/1.DigitalVault.sol\":1090:1096  amount */\n      dup1\n        /* \"Class_3 (27.2.26)/1.DigitalVault.sol\":1068:1082  netTranscation */\n      0x03\n      0x00\n        /* \"Class_3 (27.2.26)/1.DigitalVault.sol\":1068:1097  netTranscation += int(amount) */\n      dup3\n      dup3\n      sload\n      tag_140\n      swap2\n      swap1\n      tag_141\n      jump\t// in\n    tag_140:\n      swap3\n      pop\n      pop\n      dup2\n      swap1\n      sstore\n      pop\n        /* \"Class_3 (27.2.26)/1.DigitalVault.sol\":938:1143  function deposit(uint amount) public{... */\n      pop\n      jump\t// out\n        /* \"Class_3 (27.2.26)/1.DigitalVault.sol\":628:724  function getLength() public view returns(uint){... */\n    tag_78:\n        /* \"Class_3 (27.2.26)/1.DigitalVault.sol\":669:673  uint */\n      0x00\n        /* \"Class_3 (27.2.26)/1.DigitalVault.sol\":698:707  ownerName */\n      0x00\n        /* \"Class_3 (27.2.26)/1.DigitalVault.sol\":692:715  bytes(ownerName).length */\n      dup1\n      sload\n      tag_143\n      swap1\n      tag_85\n      jump\t// in\n    tag_143:\n      swap1\n      pop\n        /* \"Class_3 (27.2.26)/1.DigitalVault.sol\":685:716  return(bytes(ownerName).length) */\n      swap1\n      pop\n        /* \"Class_3 (27.2.26)/1.DigitalVault.sol\":628:724  function getLength() public view returns(uint){... */\n      swap1\n      jump\t// out\n        /* \"Class_3 (27.2.26)/1.DigitalVault.sol\":204:227  bool public isVaultOpen */\n    tag_81:\n      0x02\n      0x00\n      swap1\n      sload\n      swap1\n      0x0100\n      exp\n      swap1\n      div\n      0xff\n      and\n      dup2\n      jump\t// out\n        /* \"#utility.yul\":7:84   */\n    tag_144:\n        /* \"#utility.yul\":44:51   */\n      0x00\n        /* \"#utility.yul\":73:78   */\n      dup2\n        /* \"#utility.yul\":62:78   */\n      swap1\n      pop\n        /* \"#utility.yul\":7:84   */\n      swap2\n      swap1\n      pop\n      jump\t// out\n        /* \"#utility.yul\":90:208   */\n    tag_145:\n        /* \"#utility.yul\":177:201   */\n      tag_205\n        /* \"#utility.yul\":195:200   */\n      dup2\n        /* \"#utility.yul\":177:201   */\n      tag_144\n      jump\t// in\n    tag_205:\n        /* \"#utility.yul\":172:175   */\n      dup3\n        /* \"#utility.yul\":165:202   */\n      mstore\n        /* \"#utility.yul\":90:208   */\n      pop\n      pop\n      jump\t// out\n        /* \"#utility.yul\":214:436   */\n    tag_26:\n        /* \"#utility.yul\":307:311   */\n      0x00\n        /* \"#utility.yul\":345:347   */\n      0x20\n        /* \"#utility.yul\":334:343   */\n      dup3\n        /* \"#utility.yul\":330:348   */\n      add\n        /* \"#utility.yul\":322:348   */\n      swap1\n      pop\n        /* \"#utility.yul\":358:429   */\n      tag_207\n        /* \"#utility.yul\":426:427   */\n      0x00\n        /* \"#utility.yul\":415:424   */\n      dup4\n        /* \"#utility.yul\":411:428   */\n      add\n        /* \"#utility.yul\":402:408   */\n      dup5\n        /* \"#utility.yul\":358:429   */\n      tag_145\n      jump\t// in\n    tag_207:\n        /* \"#utility.yul\":214:436   */\n      swap3\n      swap2\n      pop\n      pop\n      jump\t// out\n        /* \"#utility.yul\":442:517   */\n    tag_146:\n        /* \"#utility.yul\":475:481   */\n      0x00\n        /* \"#utility.yul\":508:510   */\n      0x40\n        /* \"#utility.yul\":502:511   */\n      mload\n        /* \"#utility.yul\":492:511   */\n      swap1\n      pop\n        /* \"#utility.yul\":442:517   */\n      swap1\n      jump\t// out\n        /* \"#utility.yul\":523:640   */\n    tag_147:\n        /* \"#utility.yul\":632:633   */\n      0x00\n        /* \"#utility.yul\":629:630   */\n      0x00\n        /* \"#utility.yul\":622:634   */\n      revert\n        /* \"#utility.yul\":646:763   */\n    tag_148:\n        /* \"#utility.yul\":755:756   */\n      0x00\n        /* \"#utility.yul\":752:753   */\n      0x00\n        /* \"#utility.yul\":745:757   */\n      revert\n        /* \"#utility.yul\":769:891   */\n    tag_149:\n        /* \"#utility.yul\":842:866   */\n      tag_212\n        /* \"#utility.yul\":860:865   */\n      dup2\n        /* \"#utility.yul\":842:866   */\n      tag_144\n      jump\t// in\n    tag_212:\n        /* \"#utility.yul\":835:840   */\n      dup2\n        /* \"#utility.yul\":832:867   */\n      eq\n        /* \"#utility.yul\":822:885   */\n      tag_213\n      jumpi\n        /* \"#utility.yul\":881:882   */\n      0x00\n        /* \"#utility.yul\":878:879   */\n      0x00\n        /* \"#utility.yul\":871:883   */\n      revert\n        /* \"#utility.yul\":822:885   */\n    tag_213:\n        /* \"#utility.yul\":769:891   */\n      pop\n      jump\t// out\n        /* \"#utility.yul\":897:1036   */\n    tag_150:\n        /* \"#utility.yul\":943:948   */\n      0x00\n        /* \"#utility.yul\":981:987   */\n      dup2\n        /* \"#utility.yul\":968:988   */\n      calldataload\n        /* \"#utility.yul\":959:988   */\n      swap1\n      pop\n        /* \"#utility.yul\":997:1030   */\n      tag_215\n        /* \"#utility.yul\":1024:1029   */\n      dup2\n        /* \"#utility.yul\":997:1030   */\n      tag_149\n      jump\t// in\n    tag_215:\n        /* \"#utility.yul\":897:1036   */\n      swap3\n      swap2\n      pop\n      pop\n      jump\t// out\n        /* \"#utility.yul\":1042:1371   */\n    tag_29:\n        /* \"#utility.yul\":1101:1107   */\n      0x00\n        /* \"#utility.yul\":1150:1152   */\n      0x20\n        /* \"#utility.yul\":1138:1147   */\n      dup3\n        /* \"#utility.yul\":1129:1136   */\n      dup5\n        /* \"#utility.yul\":1125:1148   */\n      sub\n        /* \"#utility.yul\":1121:1153   */\n      slt\n        /* \"#utility.yul\":1118:1237   */\n      iszero\n      tag_217\n      jumpi\n        /* \"#utility.yul\":1156:1235   */\n      tag_218\n      tag_147\n      jump\t// in\n    tag_218:\n        /* \"#utility.yul\":1118:1237   */\n    tag_217:\n        /* \"#utility.yul\":1276:1277   */\n      0x00\n        /* \"#utility.yul\":1301:1354   */\n      tag_219\n        /* \"#utility.yul\":1346:1353   */\n      dup5\n        /* \"#utility.yul\":1337:1343   */\n      dup3\n        /* \"#utility.yul\":1326:1335   */\n      dup6\n        /* \"#utility.yul\":1322:1344   */\n      add\n        /* \"#utility.yul\":1301:1354   */\n      tag_150\n      jump\t// in\n    tag_219:\n        /* \"#utility.yul\":1291:1354   */\n      swap2\n      pop\n        /* \"#utility.yul\":1247:1364   */\n      pop\n        /* \"#utility.yul\":1042:1371   */\n      swap3\n      swap2\n      pop\n      pop\n      jump\t// out\n        /* \"#utility.yul\":1377:1526   */\n    tag_151:\n        /* \"#utility.yul\":1413:1420   */\n      0x00\n        /* \"#utility.yul\":1453:1519   */\n      0xff00000000000000000000000000000000000000000000000000000000000000\n        /* \"#utility.yul\":1446:1451   */\n      dup3\n        /* \"#utility.yul\":1442:1520   */\n      and\n        /* \"#utility.yul\":1431:1520   */\n      swap1\n      pop\n        /* \"#utility.yul\":1377:1526   */\n      swap2\n      swap1\n      pop\n      jump\t// out\n        /* \"#utility.yul\":1532:1647   */\n    tag_152:\n        /* \"#utility.yul\":1617:1640   */\n      tag_222\n        /* \"#utility.yul\":1634:1639   */\n      dup2\n        /* \"#utility.yul\":1617:1640   */\n      tag_151\n      jump\t// in\n    tag_222:\n        /* \"#utility.yul\":1612:1615   */\n      dup3\n        /* \"#utility.yul\":1605:1641   */\n      mstore\n        /* \"#utility.yul\":1532:1647   */\n      pop\n      pop\n      jump\t// out\n        /* \"#utility.yul\":1653:1871   */\n    tag_32:\n        /* \"#utility.yul\":1744:1748   */\n      0x00\n        /* \"#utility.yul\":1782:1784   */\n      0x20\n        /* \"#utility.yul\":1771:1780   */\n      dup3\n        /* \"#utility.yul\":1767:1785   */\n      add\n        /* \"#utility.yul\":1759:1785   */\n      swap1\n      pop\n        /* \"#utility.yul\":1795:1864   */\n      tag_224\n        /* \"#utility.yul\":1861:1862   */\n      0x00\n        /* \"#utility.yul\":1850:1859   */\n      dup4\n        /* \"#utility.yul\":1846:1863   */\n      add\n        /* \"#utility.yul\":1837:1843   */\n      dup5\n        /* \"#utility.yul\":1795:1864   */\n      tag_152\n      jump\t// in\n    tag_224:\n        /* \"#utility.yul\":1653:1871   */\n      swap3\n      swap2\n      pop\n      pop\n      jump\t// out\n        /* \"#utility.yul\":1877:1994   */\n    tag_153:\n        /* \"#utility.yul\":1986:1987   */\n      0x00\n        /* \"#utility.yul\":1983:1984   */\n      0x00\n        /* \"#utility.yul\":1976:1988   */\n      revert\n        /* \"#utility.yul\":2000:2117   */\n    tag_154:\n        /* \"#utility.yul\":2109:2110   */\n      0x00\n        /* \"#utility.yul\":2106:2107   */\n      0x00\n        /* \"#utility.yul\":2099:2111   */\n      revert\n        /* \"#utility.yul\":2123:2225   */\n    tag_155:\n        /* \"#utility.yul\":2164:2170   */\n      0x00\n        /* \"#utility.yul\":2215:2217   */\n      0x1f\n        /* \"#utility.yul\":2211:2218   */\n      not\n        /* \"#utility.yul\":2206:2208   */\n      0x1f\n        /* \"#utility.yul\":2199:2204   */\n      dup4\n        /* \"#utility.yul\":2195:2209   */\n      add\n        /* \"#utility.yul\":2191:2219   */\n      and\n        /* \"#utility.yul\":2181:2219   */\n      swap1\n      pop\n        /* \"#utility.yul\":2123:2225   */\n      swap2\n      swap1\n      pop\n      jump\t// out\n        /* \"#utility.yul\":2231:2411   */\n    tag_156:\n        /* \"#utility.yul\":2279:2356   */\n      0x4e487b7100000000000000000000000000000000000000000000000000000000\n        /* \"#utility.yul\":2276:2277   */\n      0x00\n        /* \"#utility.yul\":2269:2357   */\n      mstore\n        /* \"#utility.yul\":2376:2380   */\n      0x41\n        /* \"#utility.yul\":2373:2374   */\n      0x04\n        /* \"#utility.yul\":2366:2381   */\n      mstore\n        /* \"#utility.yul\":2400:2404   */\n      0x24\n        /* \"#utility.yul\":2397:2398   */\n      0x00\n        /* \"#utility.yul\":2390:2405   */\n      revert\n        /* \"#utility.yul\":2417:2698   */\n    tag_157:\n        /* \"#utility.yul\":2500:2527   */\n      tag_230\n        /* \"#utility.yul\":2522:2526   */\n      dup3\n        /* \"#utility.yul\":2500:2527   */\n      tag_155\n      jump\t// in\n    tag_230:\n        /* \"#utility.yul\":2492:2498   */\n      dup2\n        /* \"#utility.yul\":2488:2528   */\n      add\n        /* \"#utility.yul\":2630:2636   */\n      dup2\n        /* \"#utility.yul\":2618:2628   */\n      dup2\n        /* \"#utility.yul\":2615:2637   */\n      lt\n        /* \"#utility.yul\":2594:2612   */\n      0xffffffffffffffff\n        /* \"#utility.yul\":2582:2592   */\n      dup3\n        /* \"#utility.yul\":2579:2613   */\n      gt\n        /* \"#utility.yul\":2576:2638   */\n      or\n        /* \"#utility.yul\":2573:2661   */\n      iszero\n      tag_231\n      jumpi\n        /* \"#utility.yul\":2641:2659   */\n      tag_232\n      tag_156\n      jump\t// in\n    tag_232:\n        /* \"#utility.yul\":2573:2661   */\n    tag_231:\n        /* \"#utility.yul\":2681:2691   */\n      dup1\n        /* \"#utility.yul\":2677:2679   */\n      0x40\n        /* \"#utility.yul\":2670:2692   */\n      mstore\n        /* \"#utility.yul\":2460:2698   */\n      pop\n        /* \"#utility.yul\":2417:2698   */\n      pop\n      pop\n      jump\t// out\n        /* \"#utility.yul\":2704:2833   */\n    tag_158:\n        /* \"#utility.yul\":2738:2744   */\n      0x00\n        /* \"#utility.yul\":2765:2785   */\n      tag_234\n      tag_146\n      jump\t// in\n    tag_234:\n        /* \"#utility.yul\":2755:2785   */\n      swap1\n      pop\n        /* \"#utility.yul\":2794:2827   */\n      tag_235\n        /* \"#utility.yul\":2822:2826   */\n      dup3\n        /* \"#utility.yul\":2814:2820   */\n      dup3\n        /* \"#utility.yul\":2794:2827   */\n      tag_157\n      jump\t// in\n    tag_235:\n        /* \"#utility.yul\":2704:2833   */\n      swap2\n      swap1\n      pop\n      jump\t// out\n        /* \"#utility.yul\":2839:3147   */\n    tag_159:\n        /* \"#utility.yul\":2901:2905   */\n      0x00\n        /* \"#utility.yul\":2991:3009   */\n      0xffffffffffffffff\n        /* \"#utility.yul\":2983:2989   */\n      dup3\n        /* \"#utility.yul\":2980:3010   */\n      gt\n        /* \"#utility.yul\":2977:3033   */\n      iszero\n      tag_237\n      jumpi\n        /* \"#utility.yul\":3013:3031   */\n      tag_238\n      tag_156\n      jump\t// in\n    tag_238:\n        /* \"#utility.yul\":2977:3033   */\n    tag_237:\n        /* \"#utility.yul\":3051:3080   */\n      tag_239\n        /* \"#utility.yul\":3073:3079   */\n      dup3\n        /* \"#utility.yul\":3051:3080   */\n      tag_155\n      jump\t// in\n    tag_239:\n        /* \"#utility.yul\":3043:3080   */\n      swap1\n      pop\n        /* \"#utility.yul\":3135:3139   */\n      0x20\n        /* \"#utility.yul\":3129:3133   */\n      dup2\n        /* \"#utility.yul\":3125:3140   */\n      add\n        /* \"#utility.yul\":3117:3140   */\n      swap1\n      pop\n        /* \"#utility.yul\":2839:3147   */\n      swap2\n      swap1\n      pop\n      jump\t// out\n        /* \"#utility.yul\":3153:3301   */\n    tag_160:\n        /* \"#utility.yul\":3251:3257   */\n      dup3\n        /* \"#utility.yul\":3246:3249   */\n      dup2\n        /* \"#utility.yul\":3241:3244   */\n      dup4\n        /* \"#utility.yul\":3228:3258   */\n      calldatacopy\n        /* \"#utility.yul\":3292:3293   */\n      0x00\n        /* \"#utility.yul\":3283:3289   */\n      dup4\n        /* \"#utility.yul\":3278:3281   */\n      dup4\n        /* \"#utility.yul\":3274:3290   */\n      add\n        /* \"#utility.yul\":3267:3294   */\n      mstore\n        /* \"#utility.yul\":3153:3301   */\n      pop\n      pop\n      pop\n      jump\t// out\n        /* \"#utility.yul\":3307:3732   */\n    tag_161:\n        /* \"#utility.yul\":3385:3390   */\n      0x00\n        /* \"#utility.yul\":3410:3476   */\n      tag_242\n        /* \"#utility.yul\":3426:3475   */\n      tag_243\n        /* \"#utility.yul\":3468:3474   */\n      dup5\n        /* \"#utility.yul\":3426:3475   */\n      tag_159\n      jump\t// in\n    tag_243:\n        /* \"#utility.yul\":3410:3476   */\n      tag_158\n      jump\t// in\n    tag_242:\n        /* \"#utility.yul\":3401:3476   */\n      swap1\n      pop\n        /* \"#utility.yul\":3499:3505   */\n      dup3\n        /* \"#utility.yul\":3492:3497   */\n      dup2\n        /* \"#utility.yul\":3485:3506   */\n      mstore\n        /* \"#utility.yul\":3537:3541   */\n      0x20\n        /* \"#utility.yul\":3530:3535   */\n      dup2\n        /* \"#utility.yul\":3526:3542   */\n      add\n        /* \"#utility.yul\":3575:3578   */\n      dup5\n        /* \"#utility.yul\":3566:3572   */\n      dup5\n        /* \"#utility.yul\":3561:3564   */\n      dup5\n        /* \"#utility.yul\":3557:3573   */\n      add\n        /* \"#utility.yul\":3554:3579   */\n      gt\n        /* \"#utility.yul\":3551:3663   */\n      iszero\n      tag_244\n      jumpi\n        /* \"#utility.yul\":3582:3661   */\n      tag_245\n      tag_154\n      jump\t// in\n    tag_245:\n        /* \"#utility.yul\":3551:3663   */\n    tag_244:\n        /* \"#utility.yul\":3672:3726   */\n      tag_246\n        /* \"#utility.yul\":3719:3725   */\n      dup5\n        /* \"#utility.yul\":3714:3717   */\n      dup3\n        /* \"#utility.yul\":3709:3712   */\n      dup6\n        /* \"#utility.yul\":3672:3726   */\n      tag_160\n      jump\t// in\n    tag_246:\n        /* \"#utility.yul\":3391:3732   */\n      pop\n        /* \"#utility.yul\":3307:3732   */\n      swap4\n      swap3\n      pop\n      pop\n      pop\n      jump\t// out\n        /* \"#utility.yul\":3752:4092   */\n    tag_162:\n        /* \"#utility.yul\":3808:3813   */\n      0x00\n        /* \"#utility.yul\":3857:3860   */\n      dup3\n        /* \"#utility.yul\":3850:3854   */\n      0x1f\n        /* \"#utility.yul\":3842:3848   */\n      dup4\n        /* \"#utility.yul\":3838:3855   */\n      add\n        /* \"#utility.yul\":3834:3861   */\n      slt\n        /* \"#utility.yul\":3824:3946   */\n      tag_248\n      jumpi\n        /* \"#utility.yul\":3865:3944   */\n      tag_249\n      tag_153\n      jump\t// in\n    tag_249:\n        /* \"#utility.yul\":3824:3946   */\n    tag_248:\n        /* \"#utility.yul\":3982:3988   */\n      dup2\n        /* \"#utility.yul\":3969:3989   */\n      calldataload\n        /* \"#utility.yul\":4007:4086   */\n      tag_250\n        /* \"#utility.yul\":4082:4085   */\n      dup5\n        /* \"#utility.yul\":4074:4080   */\n      dup3\n        /* \"#utility.yul\":4067:4071   */\n      0x20\n        /* \"#utility.yul\":4059:4065   */\n      dup7\n        /* \"#utility.yul\":4055:4072   */\n      add\n        /* \"#utility.yul\":4007:4086   */\n      tag_161\n      jump\t// in\n    tag_250:\n        /* \"#utility.yul\":3998:4086   */\n      swap2\n      pop\n        /* \"#utility.yul\":3814:4092   */\n      pop\n        /* \"#utility.yul\":3752:4092   */\n      swap3\n      swap2\n      pop\n      pop\n      jump\t// out\n        /* \"#utility.yul\":4098:4607   */\n    tag_37:\n        /* \"#utility.yul\":4167:4173   */\n      0x00\n        /* \"#utility.yul\":4216:4218   */\n      0x20\n        /* \"#utility.yul\":4204:4213   */\n      dup3\n        /* \"#utility.yul\":4195:4202   */\n      dup5\n        /* \"#utility.yul\":4191:4214   */\n      sub\n        /* \"#utility.yul\":4187:4219   */\n      slt\n        /* \"#utility.yul\":4184:4303   */\n      iszero\n      tag_252\n      jumpi\n        /* \"#utility.yul\":4222:4301   */\n      tag_253\n      tag_147\n      jump\t// in\n    tag_253:\n        /* \"#utility.yul\":4184:4303   */\n    tag_252:\n        /* \"#utility.yul\":4370:4371   */\n      0x00\n        /* \"#utility.yul\":4359:4368   */\n      dup3\n        /* \"#utility.yul\":4355:4372   */\n      add\n        /* \"#utility.yul\":4342:4373   */\n      calldataload\n        /* \"#utility.yul\":4400:4418   */\n      0xffffffffffffffff\n        /* \"#utility.yul\":4392:4398   */\n      dup2\n        /* \"#utility.yul\":4389:4419   */\n      gt\n        /* \"#utility.yul\":4386:4503   */\n      iszero\n      tag_254\n      jumpi\n        /* \"#utility.yul\":4422:4501   */\n      tag_255\n      tag_148\n      jump\t// in\n    tag_255:\n        /* \"#utility.yul\":4386:4503   */\n    tag_254:\n        /* \"#utility.yul\":4527:4590   */\n      tag_256\n        /* \"#utility.yul\":4582:4589   */\n      dup5\n        /* \"#utility.yul\":4573:4579   */\n      dup3\n        /* \"#utility.yul\":4562:4571   */\n      dup6\n        /* \"#utility.yul\":4558:4580   */\n      add\n        /* \"#utility.yul\":4527:4590   */\n      tag_162\n      jump\t// in\n    tag_256:\n        /* \"#utility.yul\":4517:4590   */\n      swap2\n      pop\n        /* \"#utility.yul\":4313:4600   */\n      pop\n        /* \"#utility.yul\":4098:4607   */\n      swap3\n      swap2\n      pop\n      pop\n      jump\t// out\n        /* \"#utility.yul\":4613:4703   */\n    tag_163:\n        /* \"#utility.yul\":4647:4654   */\n      0x00\n        /* \"#utility.yul\":4690:4695   */\n      dup2\n        /* \"#utility.yul\":4683:4696   */\n      iszero\n        /* \"#utility.yul\":4676:4697   */\n      iszero\n        /* \"#utility.yul\":4665:4697   */\n      swap1\n      pop\n        /* \"#utility.yul\":4613:4703   */\n      swap2\n      swap1\n      pop\n      jump\t// out\n        /* \"#utility.yul\":4709:4818   */\n    tag_164:\n        /* \"#utility.yul\":4790:4811   */\n      tag_259\n        /* \"#utility.yul\":4805:4810   */\n      dup2\n        /* \"#utility.yul\":4790:4811   */\n      tag_163\n      jump\t// in\n    tag_259:\n        /* \"#utility.yul\":4785:4788   */\n      dup3\n        /* \"#utility.yul\":4778:4812   */\n      mstore\n        /* \"#utility.yul\":4709:4818   */\n      pop\n      pop\n      jump\t// out\n        /* \"#utility.yul\":4824:5034   */\n    tag_46:\n        /* \"#utility.yul\":4911:4915   */\n      0x00\n        /* \"#utility.yul\":4949:4951   */\n      0x20\n        /* \"#utility.yul\":4938:4947   */\n      dup3\n        /* \"#utility.yul\":4934:4952   */\n      add\n        /* \"#utility.yul\":4926:4952   */\n      swap1\n      pop\n        /* \"#utility.yul\":4962:5027   */\n      tag_261\n        /* \"#utility.yul\":5024:5025   */\n      0x00\n        /* \"#utility.yul\":5013:5022   */\n      dup4\n        /* \"#utility.yul\":5009:5026   */\n      add\n        /* \"#utility.yul\":5000:5006   */\n      dup5\n        /* \"#utility.yul\":4962:5027   */\n      tag_164\n      jump\t// in\n    tag_261:\n        /* \"#utility.yul\":4824:5034   */\n      swap3\n      swap2\n      pop\n      pop\n      jump\t// out\n        /* \"#utility.yul\":5040:5139   */\n    tag_165:\n        /* \"#utility.yul\":5092:5098   */\n      0x00\n        /* \"#utility.yul\":5126:5131   */\n      dup2\n        /* \"#utility.yul\":5120:5132   */\n      mload\n        /* \"#utility.yul\":5110:5132   */\n      swap1\n      pop\n        /* \"#utility.yul\":5040:5139   */\n      swap2\n      swap1\n      pop\n      jump\t// out\n        /* \"#utility.yul\":5145:5314   */\n    tag_166:\n        /* \"#utility.yul\":5229:5240   */\n      0x00\n        /* \"#utility.yul\":5263:5269   */\n      dup3\n        /* \"#utility.yul\":5258:5261   */\n      dup3\n        /* \"#utility.yul\":5251:5270   */\n      mstore\n        /* \"#utility.yul\":5303:5307   */\n      0x20\n        /* \"#utility.yul\":5298:5301   */\n      dup3\n        /* \"#utility.yul\":5294:5308   */\n      add\n        /* \"#utility.yul\":5279:5308   */\n      swap1\n      pop\n        /* \"#utility.yul\":5145:5314   */\n      swap3\n      swap2\n      pop\n      pop\n      jump\t// out\n        /* \"#utility.yul\":5320:5459   */\n    tag_167:\n        /* \"#utility.yul\":5409:5415   */\n      dup3\n        /* \"#utility.yul\":5404:5407   */\n      dup2\n        /* \"#utility.yul\":5399:5402   */\n      dup4\n        /* \"#utility.yul\":5393:5416   */\n      mcopy\n        /* \"#utility.yul\":5450:5451   */\n      0x00\n        /* \"#utility.yul\":5441:5447   */\n      dup4\n        /* \"#utility.yul\":5436:5439   */\n      dup4\n        /* \"#utility.yul\":5432:5448   */\n      add\n        /* \"#utility.yul\":5425:5452   */\n      mstore\n        /* \"#utility.yul\":5320:5459   */\n      pop\n      pop\n      pop\n      jump\t// out\n        /* \"#utility.yul\":5465:5842   */\n    tag_168:\n        /* \"#utility.yul\":5553:5556   */\n      0x00\n        /* \"#utility.yul\":5581:5620   */\n      tag_266\n        /* \"#utility.yul\":5614:5619   */\n      dup3\n        /* \"#utility.yul\":5581:5620   */\n      tag_165\n      jump\t// in\n    tag_266:\n        /* \"#utility.yul\":5636:5707   */\n      tag_267\n        /* \"#utility.yul\":5700:5706   */\n      dup2\n        /* \"#utility.yul\":5695:5698   */\n      dup6\n        /* \"#utility.yul\":5636:5707   */\n      tag_166\n      jump\t// in\n    tag_267:\n        /* \"#utility.yul\":5629:5707   */\n      swap4\n      pop\n        /* \"#utility.yul\":5716:5781   */\n      tag_268\n        /* \"#utility.yul\":5774:5780   */\n      dup2\n        /* \"#utility.yul\":5769:5772   */\n      dup6\n        /* \"#utility.yul\":5762:5766   */\n      0x20\n        /* \"#utility.yul\":5755:5760   */\n      dup7\n        /* \"#utility.yul\":5751:5767   */\n      add\n        /* \"#utility.yul\":5716:5781   */\n      tag_167\n      jump\t// in\n    tag_268:\n        /* \"#utility.yul\":5806:5835   */\n      tag_269\n        /* \"#utility.yul\":5828:5834   */\n      dup2\n        /* \"#utility.yul\":5806:5835   */\n      tag_155\n      jump\t// in\n    tag_269:\n        /* \"#utility.yul\":5801:5804   */\n      dup5\n        /* \"#utility.yul\":5797:5836   */\n      add\n        /* \"#utility.yul\":5790:5836   */\n      swap2\n      pop\n        /* \"#utility.yul\":5557:5842   */\n      pop\n        /* \"#utility.yul\":5465:5842   */\n      swap3\n      swap2\n      pop\n      pop\n      jump\t// out\n        /* \"#utility.yul\":5848:5924   */\n    tag_169:\n        /* \"#utility.yul\":5884:5891   */\n      0x00\n        /* \"#utility.yul\":5913:5918   */\n      dup2\n        /* \"#utility.yul\":5902:5918   */\n      swap1\n      pop\n        /* \"#utility.yul\":5848:5924   */\n      swap2\n      swap1\n      pop\n      jump\t// out\n        /* \"#utility.yul\":5930:6045   */\n    tag_170:\n        /* \"#utility.yul\":6015:6038   */\n      tag_272\n        /* \"#utility.yul\":6032:6037   */\n      dup2\n        /* \"#utility.yul\":6015:6038   */\n      tag_169\n      jump\t// in\n    tag_272:\n        /* \"#utility.yul\":6010:6013   */\n      dup3\n        /* \"#utility.yul\":6003:6039   */\n      mstore\n        /* \"#utility.yul\":5930:6045   */\n      pop\n      pop\n      jump\t// out\n        /* \"#utility.yul\":6051:6679   */\n    tag_50:\n        /* \"#utility.yul\":6240:6244   */\n      0x00\n        /* \"#utility.yul\":6278:6281   */\n      0x80\n        /* \"#utility.yul\":6267:6276   */\n      dup3\n        /* \"#utility.yul\":6263:6282   */\n      add\n        /* \"#utility.yul\":6255:6282   */\n      swap1\n      pop\n        /* \"#utility.yul\":6328:6337   */\n      dup2\n        /* \"#utility.yul\":6322:6326   */\n      dup2\n        /* \"#utility.yul\":6318:6338   */\n      sub\n        /* \"#utility.yul\":6314:6315   */\n      0x00\n        /* \"#utility.yul\":6303:6312   */\n      dup4\n        /* \"#utility.yul\":6299:6316   */\n      add\n        /* \"#utility.yul\":6292:6339   */\n      mstore\n        /* \"#utility.yul\":6356:6434   */\n      tag_274\n        /* \"#utility.yul\":6429:6433   */\n      dup2\n        /* \"#utility.yul\":6420:6426   */\n      dup8\n        /* \"#utility.yul\":6356:6434   */\n      tag_168\n      jump\t// in\n    tag_274:\n        /* \"#utility.yul\":6348:6434   */\n      swap1\n      pop\n        /* \"#utility.yul\":6444:6516   */\n      tag_275\n        /* \"#utility.yul\":6512:6514   */\n      0x20\n        /* \"#utility.yul\":6501:6510   */\n      dup4\n        /* \"#utility.yul\":6497:6515   */\n      add\n        /* \"#utility.yul\":6488:6494   */\n      dup7\n        /* \"#utility.yul\":6444:6516   */\n      tag_145\n      jump\t// in\n    tag_275:\n        /* \"#utility.yul\":6526:6596   */\n      tag_276\n        /* \"#utility.yul\":6592:6594   */\n      0x40\n        /* \"#utility.yul\":6581:6590   */\n      dup4\n        /* \"#utility.yul\":6577:6595   */\n      add\n        /* \"#utility.yul\":6568:6574   */\n      dup6\n        /* \"#utility.yul\":6526:6596   */\n      tag_170\n      jump\t// in\n    tag_276:\n        /* \"#utility.yul\":6606:6672   */\n      tag_277\n        /* \"#utility.yul\":6668:6670   */\n      0x60\n        /* \"#utility.yul\":6657:6666   */\n      dup4\n        /* \"#utility.yul\":6653:6671   */\n      add\n        /* \"#utility.yul\":6644:6650   */\n      dup5\n        /* \"#utility.yul\":6606:6672   */\n      tag_164\n      jump\t// in\n    tag_277:\n        /* \"#utility.yul\":6051:6679   */\n      swap6\n      swap5\n      pop\n      pop\n      pop\n      pop\n      pop\n      jump\t// out\n        /* \"#utility.yul\":6685:6998   */\n    tag_54:\n        /* \"#utility.yul\":6798:6802   */\n      0x00\n        /* \"#utility.yul\":6836:6838   */\n      0x20\n        /* \"#utility.yul\":6825:6834   */\n      dup3\n        /* \"#utility.yul\":6821:6839   */\n      add\n        /* \"#utility.yul\":6813:6839   */\n      swap1\n      pop\n        /* \"#utility.yul\":6885:6894   */\n      dup2\n        /* \"#utility.yul\":6879:6883   */\n      dup2\n        /* \"#utility.yul\":6875:6895   */\n      sub\n        /* \"#utility.yul\":6871:6872   */\n      0x00\n        /* \"#utility.yul\":6860:6869   */\n      dup4\n        /* \"#utility.yul\":6856:6873   */\n      add\n        /* \"#utility.yul\":6849:6896   */\n      mstore\n        /* \"#utility.yul\":6913:6991   */\n      tag_279\n        /* \"#utility.yul\":6986:6990   */\n      dup2\n        /* \"#utility.yul\":6977:6983   */\n      dup5\n        /* \"#utility.yul\":6913:6991   */\n      tag_168\n      jump\t// in\n    tag_279:\n        /* \"#utility.yul\":6905:6991   */\n      swap1\n      pop\n        /* \"#utility.yul\":6685:6998   */\n      swap3\n      swap2\n      pop\n      pop\n      jump\t// out\n        /* \"#utility.yul\":7004:7222   */\n    tag_58:\n        /* \"#utility.yul\":7095:7099   */\n      0x00\n        /* \"#utility.yul\":7133:7135   */\n      0x20\n        /* \"#utility.yul\":7122:7131   */\n      dup3\n        /* \"#utility.yul\":7118:7136   */\n      add\n        /* \"#utility.yul\":7110:7136   */\n      swap1\n      pop\n        /* \"#utility.yul\":7146:7215   */\n      tag_281\n        /* \"#utility.yul\":7212:7213   */\n      0x00\n        /* \"#utility.yul\":7201:7210   */\n      dup4\n        /* \"#utility.yul\":7197:7214   */\n      add\n        /* \"#utility.yul\":7188:7194   */\n      dup5\n        /* \"#utility.yul\":7146:7215   */\n      tag_170\n      jump\t// in\n    tag_281:\n        /* \"#utility.yul\":7004:7222   */\n      swap3\n      swap2\n      pop\n      pop\n      jump\t// out\n        /* \"#utility.yul\":7228:7326   */\n    tag_171:\n        /* \"#utility.yul\":7279:7285   */\n      0x00\n        /* \"#utility.yul\":7313:7318   */\n      dup2\n        /* \"#utility.yul\":7307:7319   */\n      mload\n        /* \"#utility.yul\":7297:7319   */\n      swap1\n      pop\n        /* \"#utility.yul\":7228:7326   */\n      swap2\n      swap1\n      pop\n      jump\t// out\n        /* \"#utility.yul\":7332:7500   */\n    tag_172:\n        /* \"#utility.yul\":7415:7426   */\n      0x00\n        /* \"#utility.yul\":7449:7455   */\n      dup3\n        /* \"#utility.yul\":7444:7447   */\n      dup3\n        /* \"#utility.yul\":7437:7456   */\n      mstore\n        /* \"#utility.yul\":7489:7493   */\n      0x20\n        /* \"#utility.yul\":7484:7487   */\n      dup3\n        /* \"#utility.yul\":7480:7494   */\n      add\n        /* \"#utility.yul\":7465:7494   */\n      swap1\n      pop\n        /* \"#utility.yul\":7332:7500   */\n      swap3\n      swap2\n      pop\n      pop\n      jump\t// out\n        /* \"#utility.yul\":7506:7879   */\n    tag_173:\n        /* \"#utility.yul\":7592:7595   */\n      0x00\n        /* \"#utility.yul\":7620:7658   */\n      tag_285\n        /* \"#utility.yul\":7652:7657   */\n      dup3\n        /* \"#utility.yul\":7620:7658   */\n      tag_171\n      jump\t// in\n    tag_285:\n        /* \"#utility.yul\":7674:7744   */\n      tag_286\n        /* \"#utility.yul\":7737:7743   */\n      dup2\n        /* \"#utility.yul\":7732:7735   */\n      dup6\n        /* \"#utility.yul\":7674:7744   */\n      tag_172\n      jump\t// in\n    tag_286:\n        /* \"#utility.yul\":7667:7744   */\n      swap4\n      pop\n        /* \"#utility.yul\":7753:7818   */\n      tag_287\n        /* \"#utility.yul\":7811:7817   */\n      dup2\n        /* \"#utility.yul\":7806:7809   */\n      dup6\n        /* \"#utility.yul\":7799:7803   */\n      0x20\n        /* \"#utility.yul\":7792:7797   */\n      dup7\n        /* \"#utility.yul\":7788:7804   */\n      add\n        /* \"#utility.yul\":7753:7818   */\n      tag_167\n      jump\t// in\n    tag_287:\n        /* \"#utility.yul\":7843:7872   */\n      tag_288\n        /* \"#utility.yul\":7865:7871   */\n      dup2\n        /* \"#utility.yul\":7843:7872   */\n      tag_155\n      jump\t// in\n    tag_288:\n        /* \"#utility.yul\":7838:7841   */\n      dup5\n        /* \"#utility.yul\":7834:7873   */\n      add\n        /* \"#utility.yul\":7827:7873   */\n      swap2\n      pop\n        /* \"#utility.yul\":7596:7879   */\n      pop\n        /* \"#utility.yul\":7506:7879   */\n      swap3\n      swap2\n      pop\n      pop\n      jump\t// out\n        /* \"#utility.yul\":7885:8194   */\n    tag_65:\n        /* \"#utility.yul\":7996:8000   */\n      0x00\n        /* \"#utility.yul\":8034:8036   */\n      0x20\n        /* \"#utility.yul\":8023:8032   */\n      dup3\n        /* \"#utility.yul\":8019:8037   */\n      add\n        /* \"#utility.yul\":8011:8037   */\n      swap1\n      pop\n        /* \"#utility.yul\":8083:8092   */\n      dup2\n        /* \"#utility.yul\":8077:8081   */\n      dup2\n        /* \"#utility.yul\":8073:8093   */\n      sub\n        /* \"#utility.yul\":8069:8070   */\n      0x00\n        /* \"#utility.yul\":8058:8067   */\n      dup4\n        /* \"#utility.yul\":8054:8071   */\n      add\n        /* \"#utility.yul\":8047:8094   */\n      mstore\n        /* \"#utility.yul\":8111:8187   */\n      tag_290\n        /* \"#utility.yul\":8182:8186   */\n      dup2\n        /* \"#utility.yul\":8173:8179   */\n      dup5\n        /* \"#utility.yul\":8111:8187   */\n      tag_173\n      jump\t// in\n    tag_290:\n        /* \"#utility.yul\":8103:8187   */\n      swap1\n      pop\n        /* \"#utility.yul\":7885:8194   */\n      swap3\n      swap2\n      pop\n      pop\n      jump\t// out\n        /* \"#utility.yul\":8200:8380   */\n    tag_174:\n        /* \"#utility.yul\":8248:8325   */\n      0x4e487b7100000000000000000000000000000000000000000000000000000000\n        /* \"#utility.yul\":8245:8246   */\n      0x00\n        /* \"#utility.yul\":8238:8326   */\n      mstore\n        /* \"#utility.yul\":8345:8349   */\n      0x22\n        /* \"#utility.yul\":8342:8343   */\n      0x04\n        /* \"#utility.yul\":8335:8350   */\n      mstore\n        /* \"#utility.yul\":8369:8373   */\n      0x24\n        /* \"#utility.yul\":8366:8367   */\n      0x00\n        /* \"#utility.yul\":8359:8374   */\n      revert\n        /* \"#utility.yul\":8386:8706   */\n    tag_85:\n        /* \"#utility.yul\":8430:8436   */\n      0x00\n        /* \"#utility.yul\":8467:8468   */\n      0x02\n        /* \"#utility.yul\":8461:8465   */\n      dup3\n        /* \"#utility.yul\":8457:8469   */\n      div\n        /* \"#utility.yul\":8447:8469   */\n      swap1\n      pop\n        /* \"#utility.yul\":8514:8515   */\n      0x01\n        /* \"#utility.yul\":8508:8512   */\n      dup3\n        /* \"#utility.yul\":8504:8516   */\n      and\n        /* \"#utility.yul\":8535:8553   */\n      dup1\n        /* \"#utility.yul\":8525:8606   */\n      tag_293\n      jumpi\n        /* \"#utility.yul\":8591:8595   */\n      0x7f\n        /* \"#utility.yul\":8583:8589   */\n      dup3\n        /* \"#utility.yul\":8579:8596   */\n      and\n        /* \"#utility.yul\":8569:8596   */\n      swap2\n      pop\n        /* \"#utility.yul\":8525:8606   */\n    tag_293:\n        /* \"#utility.yul\":8653:8655   */\n      0x20\n        /* \"#utility.yul\":8645:8651   */\n      dup3\n        /* \"#utility.yul\":8642:8656   */\n      lt\n        /* \"#utility.yul\":8622:8640   */\n      dup2\n        /* \"#utility.yul\":8619:8657   */\n      sub\n        /* \"#utility.yul\":8616:8700   */\n      tag_294\n      jumpi\n        /* \"#utility.yul\":8672:8690   */\n      tag_295\n      tag_174\n      jump\t// in\n    tag_295:\n        /* \"#utility.yul\":8616:8700   */\n    tag_294:\n        /* \"#utility.yul\":8437:8706   */\n      pop\n        /* \"#utility.yul\":8386:8706   */\n      swap2\n      swap1\n      pop\n      jump\t// out\n        /* \"#utility.yul\":8712:8881   */\n    tag_175:\n        /* \"#utility.yul\":8852:8873   */\n      0x496e646578206f7574206f6620626f756e647300000000000000000000000000\n        /* \"#utility.yul\":8848:8849   */\n      0x00\n        /* \"#utility.yul\":8840:8846   */\n      dup3\n        /* \"#utility.yul\":8836:8850   */\n      add\n        /* \"#utility.yul\":8829:8874   */\n      mstore\n        /* \"#utility.yul\":8712:8881   */\n      pop\n      jump\t// out\n        /* \"#utility.yul\":8887:9253   */\n    tag_176:\n        /* \"#utility.yul\":9029:9032   */\n      0x00\n        /* \"#utility.yul\":9050:9117   */\n      tag_298\n        /* \"#utility.yul\":9114:9116   */\n      0x13\n        /* \"#utility.yul\":9109:9112   */\n      dup4\n        /* \"#utility.yul\":9050:9117   */\n      tag_166\n      jump\t// in\n    tag_298:\n        /* \"#utility.yul\":9043:9117   */\n      swap2\n      pop\n        /* \"#utility.yul\":9126:9219   */\n      tag_299\n        /* \"#utility.yul\":9215:9218   */\n      dup3\n        /* \"#utility.yul\":9126:9219   */\n      tag_175\n      jump\t// in\n    tag_299:\n        /* \"#utility.yul\":9244:9246   */\n      0x20\n        /* \"#utility.yul\":9239:9242   */\n      dup3\n        /* \"#utility.yul\":9235:9247   */\n      add\n        /* \"#utility.yul\":9228:9247   */\n      swap1\n      pop\n        /* \"#utility.yul\":8887:9253   */\n      swap2\n      swap1\n      pop\n      jump\t// out\n        /* \"#utility.yul\":9259:9678   */\n    tag_88:\n        /* \"#utility.yul\":9425:9429   */\n      0x00\n        /* \"#utility.yul\":9463:9465   */\n      0x20\n        /* \"#utility.yul\":9452:9461   */\n      dup3\n        /* \"#utility.yul\":9448:9466   */\n      add\n        /* \"#utility.yul\":9440:9466   */\n      swap1\n      pop\n        /* \"#utility.yul\":9512:9521   */\n      dup2\n        /* \"#utility.yul\":9506:9510   */\n      dup2\n        /* \"#utility.yul\":9502:9522   */\n      sub\n        /* \"#utility.yul\":9498:9499   */\n      0x00\n        /* \"#utility.yul\":9487:9496   */\n      dup4\n        /* \"#utility.yul\":9483:9500   */\n      add\n        /* \"#utility.yul\":9476:9523   */\n      mstore\n        /* \"#utility.yul\":9540:9671   */\n      tag_301\n        /* \"#utility.yul\":9666:9670   */\n      dup2\n        /* \"#utility.yul\":9540:9671   */\n      tag_176\n      jump\t// in\n    tag_301:\n        /* \"#utility.yul\":9532:9671   */\n      swap1\n      pop\n        /* \"#utility.yul\":9259:9678   */\n      swap2\n      swap1\n      pop\n      jump\t// out\n        /* \"#utility.yul\":9684:9864   */\n    tag_92:\n        /* \"#utility.yul\":9732:9809   */\n      0x4e487b7100000000000000000000000000000000000000000000000000000000\n        /* \"#utility.yul\":9729:9730   */\n      0x00\n        /* \"#utility.yul\":9722:9810   */\n      mstore\n        /* \"#utility.yul\":9829:9833   */\n      0x32\n        /* \"#utility.yul\":9826:9827   */\n      0x04\n        /* \"#utility.yul\":9819:9834   */\n      mstore\n        /* \"#utility.yul\":9853:9857   */\n      0x24\n        /* \"#utility.yul\":9850:9851   */\n      0x00\n        /* \"#utility.yul\":9843:9858   */\n      revert\n        /* \"#utility.yul\":9870:10011   */\n    tag_177:\n        /* \"#utility.yul\":9919:9923   */\n      0x00\n        /* \"#utility.yul\":9942:9945   */\n      dup2\n        /* \"#utility.yul\":9934:9945   */\n      swap1\n      pop\n        /* \"#utility.yul\":9965:9968   */\n      dup2\n        /* \"#utility.yul\":9962:9963   */\n      0x00\n        /* \"#utility.yul\":9955:9969   */\n      mstore\n        /* \"#utility.yul\":9999:10003   */\n      0x20\n        /* \"#utility.yul\":9996:9997   */\n      0x00\n        /* \"#utility.yul\":9986:10004   */\n      keccak256\n        /* \"#utility.yul\":9978:10004   */\n      swap1\n      pop\n        /* \"#utility.yul\":9870:10011   */\n      swap2\n      swap1\n      pop\n      jump\t// out\n        /* \"#utility.yul\":10017:10110   */\n    tag_178:\n        /* \"#utility.yul\":10054:10060   */\n      0x00\n        /* \"#utility.yul\":10101:10103   */\n      0x20\n        /* \"#utility.yul\":10096:10098   */\n      0x1f\n        /* \"#utility.yul\":10089:10094   */\n      dup4\n        /* \"#utility.yul\":10085:10099   */\n      add\n        /* \"#utility.yul\":10081:10104   */\n      div\n        /* \"#utility.yul\":10071:10104   */\n      swap1\n      pop\n        /* \"#utility.yul\":10017:10110   */\n      swap2\n      swap1\n      pop\n      jump\t// out\n        /* \"#utility.yul\":10116:10223   */\n    tag_179:\n        /* \"#utility.yul\":10160:10168   */\n      0x00\n        /* \"#utility.yul\":10210:10215   */\n      dup3\n        /* \"#utility.yul\":10204:10208   */\n      dup3\n        /* \"#utility.yul\":10200:10216   */\n      shl\n        /* \"#utility.yul\":10179:10216   */\n      swap1\n      pop\n        /* \"#utility.yul\":10116:10223   */\n      swap3\n      swap2\n      pop\n      pop\n      jump\t// out\n        /* \"#utility.yul\":10229:10622   */\n    tag_180:\n        /* \"#utility.yul\":10298:10304   */\n      0x00\n        /* \"#utility.yul\":10348:10349   */\n      0x08\n        /* \"#utility.yul\":10336:10346   */\n      dup4\n        /* \"#utility.yul\":10332:10350   */\n      mul\n        /* \"#utility.yul\":10371:10468   */\n      tag_307\n        /* \"#utility.yul\":10401:10467   */\n      0xffffffffffffffffffffffffffffffffffffffffffffffffffffffffffffffff\n        /* \"#utility.yul\":10390:10399   */\n      dup3\n        /* \"#utility.yul\":10371:10468   */\n      tag_179\n      jump\t// in\n    tag_307:\n        /* \"#utility.yul\":10489:10528   */\n      tag_308\n        /* \"#utility.yul\":10519:10527   */\n      dup7\n        /* \"#utility.yul\":10508:10517   */\n      dup4\n        /* \"#utility.yul\":10489:10528   */\n      tag_179\n      jump\t// in\n    tag_308:\n        /* \"#utility.yul\":10477:10528   */\n      swap6\n      pop\n        /* \"#utility.yul\":10561:10565   */\n      dup1\n        /* \"#utility.yul\":10557:10566   */\n      not\n        /* \"#utility.yul\":10550:10555   */\n      dup5\n        /* \"#utility.yul\":10546:10567   */\n      and\n        /* \"#utility.yul\":10537:10567   */\n      swap4\n      pop\n        /* \"#utility.yul\":10610:10614   */\n      dup1\n        /* \"#utility.yul\":10600:10608   */\n      dup7\n        /* \"#utility.yul\":10596:10615   */\n      and\n        /* \"#utility.yul\":10589:10594   */\n      dup5\n        /* \"#utility.yul\":10586:10616   */\n      or\n        /* \"#utility.yul\":10576:10616   */\n      swap3\n      pop\n        /* \"#utility.yul\":10305:10622   */\n      pop\n      pop\n        /* \"#utility.yul\":10229:10622   */\n      swap4\n      swap3\n      pop\n      pop\n      pop\n      jump\t// out\n        /* \"#utility.yul\":10628:10688   */\n    tag_181:\n        /* \"#utility.yul\":10656:10659   */\n      0x00\n        /* \"#utility.yul\":10677:10682   */\n      dup2\n        /* \"#utility.yul\":10670:10682   */\n      swap1\n      pop\n        /* \"#utility.yul\":10628:10688   */\n      swap2\n      swap1\n      pop\n      jump\t// out\n        /* \"#utility.yul\":10694:10836   */\n    tag_182:\n        /* \"#utility.yul\":10744:10753   */\n      0x00\n        /* \"#utility.yul\":10777:10830   */\n      tag_311\n        /* \"#utility.yul\":10795:10829   */\n      tag_312\n        /* \"#utility.yul\":10804:10828   */\n      tag_313\n        /* \"#utility.yul\":10822:10827   */\n      dup5\n        /* \"#utility.yul\":10804:10828   */\n      tag_144\n      jump\t// in\n    tag_313:\n        /* \"#utility.yul\":10795:10829   */\n      tag_181\n      jump\t// in\n    tag_312:\n        /* \"#utility.yul\":10777:10830   */\n      tag_144\n      jump\t// in\n    tag_311:\n        /* \"#utility.yul\":10764:10830   */\n      swap1\n      pop\n        /* \"#utility.yul\":10694:10836   */\n      swap2\n      swap1\n      pop\n      jump\t// out\n        /* \"#utility.yul\":10842:10917   */\n    tag_183:\n        /* \"#utility.yul\":10885:10888   */\n      0x00\n        /* \"#utility.yul\":10906:10911   */\n      dup2\n        /* \"#utility.yul\":10899:10911   */\n      swap1\n      pop\n        /* \"#utility.yul\":10842:10917   */\n      swap2\n      swap1\n      pop\n      jump\t// out\n        /* \"#utility.yul\":10923:11192   */\n    tag_184:\n        /* \"#utility.yul\":11033:11072   */\n      tag_316\n        /* \"#utility.yul\":11064:11071   */\n      dup4\n        /* \"#utility.yul\":11033:11072   */\n      tag_182\n      jump\t// in\n    tag_316:\n        /* \"#utility.yul\":11094:11185   */\n      tag_317\n        /* \"#utility.yul\":11143:11184   */\n      tag_318\n        /* \"#utility.yul\":11167:11183   */\n      dup3\n        /* \"#utility.yul\":11143:11184   */\n      tag_183\n      jump\t// in\n    tag_318:\n        /* \"#utility.yul\":11135:11141   */\n      dup5\n        /* \"#utility.yul\":11128:11132   */\n      dup5\n        /* \"#utility.yul\":11122:11133   */\n      sload\n        /* \"#utility.yul\":11094:11185   */\n      tag_180\n      jump\t// in\n    tag_317:\n        /* \"#utility.yul\":11088:11092   */\n      dup3\n        /* \"#utility.yul\":11081:11186   */\n      sstore\n        /* \"#utility.yul\":10999:11192   */\n      pop\n        /* \"#utility.yul\":10923:11192   */\n      pop\n      pop\n      pop\n      jump\t// out\n        /* \"#utility.yul\":11198:11271   */\n    tag_185:\n        /* \"#utility.yul\":11243:11246   */\n      0x00\n        /* \"#utility.yul\":11264:11265   */\n      0x00\n        /* \"#utility.yul\":11257:11265   */\n      swap1\n      pop\n        /* \"#utility.yul\":11198:11271   */\n      swap1\n      jump\t// out\n        /* \"#utility.yul\":11277:11466   */\n    tag_186:\n        /* \"#utility.yul\":11354:11386   */\n      tag_321\n      tag_185\n      jump\t// in\n    tag_321:\n        /* \"#utility.yul\":11395:11460   */\n      tag_322\n        /* \"#utility.yul\":11453:11459   */\n      dup2\n        /* \"#utility.yul\":11445:11451   */\n      dup5\n        /* \"#utility.yul\":11439:11443   */\n      dup5\n        /* \"#utility.yul\":11395:11460   */\n      tag_184\n      jump\t// in\n    tag_322:\n        /* \"#utility.yul\":11330:11466   */\n      pop\n        /* \"#utility.yul\":11277:11466   */\n      pop\n      pop\n      jump\t// out\n        /* \"#utility.yul\":11472:11658   */\n    tag_187:\n        /* \"#utility.yul\":11532:11652   */\n    tag_324:\n        /* \"#utility.yul\":11549:11552   */\n      dup2\n        /* \"#utility.yul\":11542:11547   */\n      dup2\n        /* \"#utility.yul\":11539:11553   */\n      lt\n        /* \"#utility.yul\":11532:11652   */\n      iszero\n      tag_326\n      jumpi\n        /* \"#utility.yul\":11603:11642   */\n      tag_327\n        /* \"#utility.yul\":11640:11641   */\n      0x00\n        /* \"#utility.yul\":11633:11638   */\n      dup3\n        /* \"#utility.yul\":11603:11642   */\n      tag_186\n      jump\t// in\n    tag_327:\n        /* \"#utility.yul\":11576:11577   */\n      0x01\n        /* \"#utility.yul\":11569:11574   */\n      dup2\n        /* \"#utility.yul\":11565:11578   */\n      add\n        /* \"#utility.yul\":11556:11578   */\n      swap1\n      pop\n        /* \"#utility.yul\":11532:11652   */\n      jump(tag_324)\n    tag_326:\n        /* \"#utility.yul\":11472:11658   */\n      pop\n      pop\n      jump\t// out\n        /* \"#utility.yul\":11664:12207   */\n    tag_188:\n        /* \"#utility.yul\":11765:11767   */\n      0x1f\n        /* \"#utility.yul\":11760:11763   */\n      dup3\n        /* \"#utility.yul\":11757:11768   */\n      gt\n        /* \"#utility.yul\":11754:12200   */\n      iszero\n      tag_329\n      jumpi\n        /* \"#utility.yul\":11799:11837   */\n      tag_330\n        /* \"#utility.yul\":11831:11836   */\n      dup2\n        /* \"#utility.yul\":11799:11837   */\n      tag_177\n      jump\t// in\n    tag_330:\n        /* \"#utility.yul\":11883:11912   */\n      tag_331\n        /* \"#utility.yul\":11901:11911   */\n      dup5\n        /* \"#utility.yul\":11883:11912   */\n      tag_178\n      jump\t// in\n    tag_331:\n        /* \"#utility.yul\":11873:11881   */\n      dup2\n        /* \"#utility.yul\":11869:11913   */\n      add\n        /* \"#utility.yul\":12066:12068   */\n      0x20\n        /* \"#utility.yul\":12054:12064   */\n      dup6\n        /* \"#utility.yul\":12051:12069   */\n      lt\n        /* \"#utility.yul\":12048:12097   */\n      iszero\n      tag_332\n      jumpi\n        /* \"#utility.yul\":12087:12095   */\n      dup2\n        /* \"#utility.yul\":12072:12095   */\n      swap1\n      pop\n        /* \"#utility.yul\":12048:12097   */\n    tag_332:\n        /* \"#utility.yul\":12110:12190   */\n      tag_333\n        /* \"#utility.yul\":12166:12188   */\n      tag_334\n        /* \"#utility.yul\":12184:12187   */\n      dup6\n        /* \"#utility.yul\":12166:12188   */\n      tag_178\n      jump\t// in\n    tag_334:\n        /* \"#utility.yul\":12156:12164   */\n      dup4\n        /* \"#utility.yul\":12152:12189   */\n      add\n        /* \"#utility.yul\":12139:12150   */\n      dup3\n        /* \"#utility.yul\":12110:12190   */\n      tag_187\n      jump\t// in\n    tag_333:\n        /* \"#utility.yul\":11769:12200   */\n      pop\n      pop\n        /* \"#utility.yul\":11754:12200   */\n    tag_329:\n        /* \"#utility.yul\":11664:12207   */\n      pop\n      pop\n      pop\n      jump\t// out\n        /* \"#utility.yul\":12213:12330   */\n    tag_189:\n        /* \"#utility.yul\":12267:12275   */\n      0x00\n        /* \"#utility.yul\":12317:12322   */\n      dup3\n        /* \"#utility.yul\":12311:12315   */\n      dup3\n        /* \"#utility.yul\":12307:12323   */\n      shr\n        /* \"#utility.yul\":12286:12323   */\n      swap1\n      pop\n        /* \"#utility.yul\":12213:12330   */\n      swap3\n      swap2\n      pop\n      pop\n      jump\t// out\n        /* \"#utility.yul\":12336:12505   */\n    tag_190:\n        /* \"#utility.yul\":12380:12386   */\n      0x00\n        /* \"#utility.yul\":12413:12464   */\n      tag_337\n        /* \"#utility.yul\":12461:12462   */\n      0x00\n        /* \"#utility.yul\":12457:12463   */\n      not\n        /* \"#utility.yul\":12449:12454   */\n      dup5\n        /* \"#utility.yul\":12446:12447   */\n      0x08\n        /* \"#utility.yul\":12442:12455   */\n      mul\n        /* \"#utility.yul\":12413:12464   */\n      tag_189\n      jump\t// in\n    tag_337:\n        /* \"#utility.yul\":12409:12465   */\n      not\n        /* \"#utility.yul\":12494:12498   */\n      dup1\n        /* \"#utility.yul\":12488:12492   */\n      dup4\n        /* \"#utility.yul\":12484:12499   */\n      and\n        /* \"#utility.yul\":12474:12499   */\n      swap2\n      pop\n        /* \"#utility.yul\":12387:12505   */\n      pop\n        /* \"#utility.yul\":12336:12505   */\n      swap3\n      swap2\n      pop\n      pop\n      jump\t// out\n        /* \"#utility.yul\":12510:12805   */\n    tag_191:\n        /* \"#utility.yul\":12586:12590   */\n      0x00\n        /* \"#utility.yul\":12732:12761   */\n      tag_339\n        /* \"#utility.yul\":12757:12760   */\n      dup4\n        /* \"#utility.yul\":12751:12755   */\n      dup4\n        /* \"#utility.yul\":12732:12761   */\n      tag_190\n      jump\t// in\n    tag_339:\n        /* \"#utility.yul\":12724:12761   */\n      swap2\n      pop\n        /* \"#utility.yul\":12794:12797   */\n      dup3\n        /* \"#utility.yul\":12791:12792   */\n      0x02\n        /* \"#utility.yul\":12787:12798   */\n      mul\n        /* \"#utility.yul\":12781:12785   */\n      dup3\n        /* \"#utility.yul\":12778:12799   */\n      or\n        /* \"#utility.yul\":12770:12799   */\n      swap1\n      pop\n        /* \"#utility.yul\":12510:12805   */\n      swap3\n      swap2\n      pop\n      pop\n      jump\t// out\n        /* \"#utility.yul\":12810:14205   */\n    tag_97:\n        /* \"#utility.yul\":12927:12964   */\n      tag_341\n        /* \"#utility.yul\":12960:12963   */\n      dup3\n        /* \"#utility.yul\":12927:12964   */\n      tag_165\n      jump\t// in\n    tag_341:\n        /* \"#utility.yul\":13029:13047   */\n      0xffffffffffffffff\n        /* \"#utility.yul\":13021:13027   */\n      dup2\n        /* \"#utility.yul\":13018:13048   */\n      gt\n        /* \"#utility.yul\":13015:13071   */\n      iszero\n      tag_342\n      jumpi\n        /* \"#utility.yul\":13051:13069   */\n      tag_343\n      tag_156\n      jump\t// in\n    tag_343:\n        /* \"#utility.yul\":13015:13071   */\n    tag_342:\n        /* \"#utility.yul\":13095:13133   */\n      tag_344\n        /* \"#utility.yul\":13127:13131   */\n      dup3\n        /* \"#utility.yul\":13121:13132   */\n      sload\n        /* \"#utility.yul\":13095:13133   */\n      tag_85\n      jump\t// in\n    tag_344:\n        /* \"#utility.yul\":13180:13247   */\n      tag_345\n        /* \"#utility.yul\":13240:13246   */\n      dup3\n        /* \"#utility.yul\":13232:13238   */\n      dup3\n        /* \"#utility.yul\":13226:13230   */\n      dup6\n        /* \"#utility.yul\":13180:13247   */\n      tag_188\n      jump\t// in\n    tag_345:\n        /* \"#utility.yul\":13274:13275   */\n      0x00\n        /* \"#utility.yul\":13298:13302   */\n      0x20\n        /* \"#utility.yul\":13285:13302   */\n      swap1\n      pop\n        /* \"#utility.yul\":13330:13332   */\n      0x1f\n        /* \"#utility.yul\":13322:13328   */\n      dup4\n        /* \"#utility.yul\":13319:13333   */\n      gt\n        /* \"#utility.yul\":13347:13348   */\n      0x01\n        /* \"#utility.yul\":13342:13960   */\n      dup2\n      eq\n      tag_347\n      jumpi\n        /* \"#utility.yul\":14004:14005   */\n      0x00\n        /* \"#utility.yul\":14021:14027   */\n      dup5\n        /* \"#utility.yul\":14018:14095   */\n      iszero\n      tag_348\n      jumpi\n        /* \"#utility.yul\":14070:14079   */\n      dup3\n        /* \"#utility.yul\":14065:14068   */\n      dup8\n        /* \"#utility.yul\":14061:14080   */\n      add\n        /* \"#utility.yul\":14055:14081   */\n      mload\n        /* \"#utility.yul\":14046:14081   */\n      swap1\n      pop\n        /* \"#utility.yul\":14018:14095   */\n    tag_348:\n        /* \"#utility.yul\":14121:14188   */\n      tag_349\n        /* \"#utility.yul\":14181:14187   */\n      dup6\n        /* \"#utility.yul\":14174:14179   */\n      dup3\n        /* \"#utility.yul\":14121:14188   */\n      tag_191\n      jump\t// in\n    tag_349:\n        /* \"#utility.yul\":14115:14119   */\n      dup7\n        /* \"#utility.yul\":14108:14189   */\n      sstore\n        /* \"#utility.yul\":13977:14199   */\n      pop\n        /* \"#utility.yul\":13312:14199   */\n      jump(tag_346)\n        /* \"#utility.yul\":13342:13960   */\n    tag_347:\n        /* \"#utility.yul\":13394:13398   */\n      0x1f\n        /* \"#utility.yul\":13390:13399   */\n      not\n        /* \"#utility.yul\":13382:13388   */\n      dup5\n        /* \"#utility.yul\":13378:13400   */\n      and\n        /* \"#utility.yul\":13428:13465   */\n      tag_350\n        /* \"#utility.yul\":13460:13464   */\n      dup7\n        /* \"#utility.yul\":13428:13465   */\n      tag_177\n      jump\t// in\n    tag_350:\n        /* \"#utility.yul\":13487:13488   */\n      0x00\n        /* \"#utility.yul\":13501:13709   */\n    tag_351:\n        /* \"#utility.yul\":13515:13522   */\n      dup3\n        /* \"#utility.yul\":13512:13513   */\n      dup2\n        /* \"#utility.yul\":13509:13523   */\n      lt\n        /* \"#utility.yul\":13501:13709   */\n      iszero\n      tag_353\n      jumpi\n        /* \"#utility.yul\":13594:13603   */\n      dup5\n        /* \"#utility.yul\":13589:13592   */\n      dup10\n        /* \"#utility.yul\":13585:13604   */\n      add\n        /* \"#utility.yul\":13579:13605   */\n      mload\n        /* \"#utility.yul\":13571:13577   */\n      dup3\n        /* \"#utility.yul\":13564:13606   */\n      sstore\n        /* \"#utility.yul\":13645:13646   */\n      0x01\n        /* \"#utility.yul\":13637:13643   */\n      dup3\n        /* \"#utility.yul\":13633:13647   */\n      add\n        /* \"#utility.yul\":13623:13647   */\n      swap2\n      pop\n        /* \"#utility.yul\":13692:13694   */\n      0x20\n        /* \"#utility.yul\":13681:13690   */\n      dup6\n        /* \"#utility.yul\":13677:13695   */\n      add\n        /* \"#utility.yul\":13664:13695   */\n      swap5\n      pop\n        /* \"#utility.yul\":13538:13542   */\n      0x20\n        /* \"#utility.yul\":13535:13536   */\n      dup2\n        /* \"#utility.yul\":13531:13543   */\n      add\n        /* \"#utility.yul\":13526:13543   */\n      swap1\n      pop\n        /* \"#utility.yul\":13501:13709   */\n      jump(tag_351)\n    tag_353:\n        /* \"#utility.yul\":13737:13743   */\n      dup7\n        /* \"#utility.yul\":13728:13735   */\n      dup4\n        /* \"#utility.yul\":13725:13744   */\n      lt\n        /* \"#utility.yul\":13722:13901   */\n      iszero\n      tag_354\n      jumpi\n        /* \"#utility.yul\":13795:13804   */\n      dup5\n        /* \"#utility.yul\":13790:13793   */\n      dup10\n        /* \"#utility.yul\":13786:13805   */\n      add\n        /* \"#utility.yul\":13780:13806   */\n      mload\n        /* \"#utility.yul\":13838:13886   */\n      tag_355\n        /* \"#utility.yul\":13880:13884   */\n      0x1f\n        /* \"#utility.yul\":13872:13878   */\n      dup10\n        /* \"#utility.yul\":13868:13885   */\n      and\n        /* \"#utility.yul\":13857:13866   */\n      dup3\n        /* \"#utility.yul\":13838:13886   */\n      tag_190\n      jump\t// in\n    tag_355:\n        /* \"#utility.yul\":13830:13836   */\n      dup4\n        /* \"#utility.yul\":13823:13887   */\n      sstore\n        /* \"#utility.yul\":13745:13901   */\n      pop\n        /* \"#utility.yul\":13722:13901   */\n    tag_354:\n        /* \"#utility.yul\":13947:13948   */\n      0x01\n        /* \"#utility.yul\":13943:13944   */\n      0x02\n        /* \"#utility.yul\":13935:13941   */\n      dup9\n        /* \"#utility.yul\":13931:13945   */\n      mul\n        /* \"#utility.yul\":13927:13949   */\n      add\n        /* \"#utility.yul\":13921:13925   */\n      dup9\n        /* \"#utility.yul\":13914:13950   */\n      sstore\n        /* \"#utility.yul\":13349:13960   */\n      pop\n      pop\n      pop\n        /* \"#utility.yul\":13312:14199   */\n    tag_346:\n      pop\n        /* \"#utility.yul\":12902:14205   */\n      pop\n      pop\n      pop\n        /* \"#utility.yul\":12810:14205   */\n      pop\n      pop\n      jump\t// out\n        /* \"#utility.yul\":14211:14376   */\n    tag_192:\n        /* \"#utility.yul\":14351:14368   */\n      0x5661756c7420697320636c6f7365640000000000000000000000000000000000\n        /* \"#utility.yul\":14347:14348   */\n      0x00\n        /* \"#utility.yul\":14339:14345   */\n      dup3\n        /* \"#utility.yul\":14335:14349   */\n      add\n        /* \"#utility.yul\":14328:14369   */\n      mstore\n        /* \"#utility.yul\":14211:14376   */\n      pop\n      jump\t// out\n        /* \"#utility.yul\":14382:14748   */\n    tag_193:\n        /* \"#utility.yul\":14524:14527   */\n      0x00\n        /* \"#utility.yul\":14545:14612   */\n      tag_358\n        /* \"#utility.yul\":14609:14611   */\n      0x0f\n        /* \"#utility.yul\":14604:14607   */\n      dup4\n        /* \"#utility.yul\":14545:14612   */\n      tag_166\n      jump\t// in\n    tag_358:\n        /* \"#utility.yul\":14538:14612   */\n      swap2\n      pop\n        /* \"#utility.yul\":14621:14714   */\n      tag_359\n        /* \"#utility.yul\":14710:14713   */\n      dup3\n        /* \"#utility.yul\":14621:14714   */\n      tag_192\n      jump\t// in\n    tag_359:\n        /* \"#utility.yul\":14739:14741   */\n      0x20\n        /* \"#utility.yul\":14734:14737   */\n      dup3\n        /* \"#utility.yul\":14730:14742   */\n      add\n        /* \"#utility.yul\":14723:14742   */\n      swap1\n      pop\n        /* \"#utility.yul\":14382:14748   */\n      swap2\n      swap1\n      pop\n      jump\t// out\n        /* \"#utility.yul\":14754:15173   */\n    tag_101:\n        /* \"#utility.yul\":14920:14924   */\n      0x00\n        /* \"#utility.yul\":14958:14960   */\n      0x20\n        /* \"#utility.yul\":14947:14956   */\n      dup3\n        /* \"#utility.yul\":14943:14961   */\n      add\n        /* \"#utility.yul\":14935:14961   */\n      swap1\n      pop\n        /* \"#utility.yul\":15007:15016   */\n      dup2\n        /* \"#utility.yul\":15001:15005   */\n      dup2\n        /* \"#utility.yul\":14997:15017   */\n      sub\n        /* \"#utility.yul\":14993:14994   */\n      0x00\n        /* \"#utility.yul\":14982:14991   */\n      dup4\n        /* \"#utility.yul\":14978:14995   */\n      add\n        /* \"#utility.yul\":14971:15018   */\n      mstore\n        /* \"#utility.yul\":15035:15166   */\n      tag_361\n        /* \"#utility.yul\":15161:15165   */\n      dup2\n        /* \"#utility.yul\":15035:15166   */\n      tag_193\n      jump\t// in\n    tag_361:\n        /* \"#utility.yul\":15027:15166   */\n      swap1\n      pop\n        /* \"#utility.yul\":14754:15173   */\n      swap2\n      swap1\n      pop\n      jump\t// out\n        /* \"#utility.yul\":15179:15349   */\n    tag_194:\n        /* \"#utility.yul\":15319:15341   */\n      0x496e73756666696369656e742062616c616e6365000000000000000000000000\n        /* \"#utility.yul\":15315:15316   */\n      0x00\n        /* \"#utility.yul\":15307:15313   */\n      dup3\n        /* \"#utility.yul\":15303:15317   */\n      add\n        /* \"#utility.yul\":15296:15342   */\n      mstore\n        /* \"#utility.yul\":15179:15349   */\n      pop\n      jump\t// out\n        /* \"#utility.yul\":15355:15721   */\n    tag_195:\n        /* \"#utility.yul\":15497:15500   */\n      0x00\n        /* \"#utility.yul\":15518:15585   */\n      tag_364\n        /* \"#utility.yul\":15582:15584   */\n      0x14\n        /* \"#utility.yul\":15577:15580   */\n      dup4\n        /* \"#utility.yul\":15518:15585   */\n      tag_166\n      jump\t// in\n    tag_364:\n        /* \"#utility.yul\":15511:15585   */\n      swap2\n      pop\n        /* \"#utility.yul\":15594:15687   */\n      tag_365\n        /* \"#utility.yul\":15683:15686   */\n      dup3\n        /* \"#utility.yul\":15594:15687   */\n      tag_194\n      jump\t// in\n    tag_365:\n        /* \"#utility.yul\":15712:15714   */\n      0x20\n        /* \"#utility.yul\":15707:15710   */\n      dup3\n        /* \"#utility.yul\":15703:15715   */\n      add\n        /* \"#utility.yul\":15696:15715   */\n      swap1\n      pop\n        /* \"#utility.yul\":15355:15721   */\n      swap2\n      swap1\n      pop\n      jump\t// out\n        /* \"#utility.yul\":15727:16146   */\n    tag_104:\n        /* \"#utility.yul\":15893:15897   */\n      0x00\n        /* \"#utility.yul\":15931:15933   */\n      0x20\n        /* \"#utility.yul\":15920:15929   */\n      dup3\n        /* \"#utility.yul\":15916:15934   */\n      add\n        /* \"#utility.yul\":15908:15934   */\n      swap1\n      pop\n        /* \"#utility.yul\":15980:15989   */\n      dup2\n        /* \"#utility.yul\":15974:15978   */\n      dup2\n        /* \"#utility.yul\":15970:15990   */\n      sub\n        /* \"#utility.yul\":15966:15967   */\n      0x00\n        /* \"#utility.yul\":15955:15964   */\n      dup4\n        /* \"#utility.yul\":15951:15968   */\n      add\n        /* \"#utility.yul\":15944:15991   */\n      mstore\n        /* \"#utility.yul\":16008:16139   */\n      tag_367\n        /* \"#utility.yul\":16134:16138   */\n      dup2\n        /* \"#utility.yul\":16008:16139   */\n      tag_195\n      jump\t// in\n    tag_367:\n        /* \"#utility.yul\":16000:16139   */\n      swap1\n      pop\n        /* \"#utility.yul\":15727:16146   */\n      swap2\n      swap1\n      pop\n      jump\t// out\n        /* \"#utility.yul\":16152:16332   */\n    tag_196:\n        /* \"#utility.yul\":16200:16277   */\n      0x4e487b7100000000000000000000000000000000000000000000000000000000\n        /* \"#utility.yul\":16197:16198   */\n      0x00\n        /* \"#utility.yul\":16190:16278   */\n      mstore\n        /* \"#utility.yul\":16297:16301   */\n      0x11\n        /* \"#utility.yul\":16294:16295   */\n      0x04\n        /* \"#utility.yul\":16287:16302   */\n      mstore\n        /* \"#utility.yul\":16321:16325   */\n      0x24\n        /* \"#utility.yul\":16318:16319   */\n      0x00\n        /* \"#utility.yul\":16311:16326   */\n      revert\n        /* \"#utility.yul\":16338:16532   */\n    tag_106:\n        /* \"#utility.yul\":16378:16382   */\n      0x00\n        /* \"#utility.yul\":16398:16418   */\n      tag_370\n        /* \"#utility.yul\":16416:16417   */\n      dup3\n        /* \"#utility.yul\":16398:16418   */\n      tag_144\n      jump\t// in\n    tag_370:\n        /* \"#utility.yul\":16393:16418   */\n      swap2\n      pop\n        /* \"#utility.yul\":16432:16452   */\n      tag_371\n        /* \"#utility.yul\":16450:16451   */\n      dup4\n        /* \"#utility.yul\":16432:16452   */\n      tag_144\n      jump\t// in\n    tag_371:\n        /* \"#utility.yul\":16427:16452   */\n      swap3\n      pop\n        /* \"#utility.yul\":16476:16477   */\n      dup3\n        /* \"#utility.yul\":16473:16474   */\n      dup3\n        /* \"#utility.yul\":16469:16478   */\n      sub\n        /* \"#utility.yul\":16461:16478   */\n      swap1\n      pop\n        /* \"#utility.yul\":16500:16501   */\n      dup2\n        /* \"#utility.yul\":16494:16498   */\n      dup2\n        /* \"#utility.yul\":16491:16502   */\n      gt\n        /* \"#utility.yul\":16488:16525   */\n      iszero\n      tag_372\n      jumpi\n        /* \"#utility.yul\":16505:16523   */\n      tag_373\n      tag_196\n      jump\t// in\n    tag_373:\n        /* \"#utility.yul\":16488:16525   */\n    tag_372:\n        /* \"#utility.yul\":16338:16532   */\n      swap3\n      swap2\n      pop\n      pop\n      jump\t// out\n        /* \"#utility.yul\":16538:16910   */\n    tag_108:\n        /* \"#utility.yul\":16577:16581   */\n      0x00\n        /* \"#utility.yul\":16597:16616   */\n      tag_375\n        /* \"#utility.yul\":16614:16615   */\n      dup3\n        /* \"#utility.yul\":16597:16616   */\n      tag_169\n      jump\t// in\n    tag_375:\n        /* \"#utility.yul\":16592:16616   */\n      swap2\n      pop\n        /* \"#utility.yul\":16630:16649   */\n      tag_376\n        /* \"#utility.yul\":16647:16648   */\n      dup4\n        /* \"#utility.yul\":16630:16649   */\n      tag_169\n      jump\t// in\n    tag_376:\n        /* \"#utility.yul\":16625:16649   */\n      swap3\n      pop\n        /* \"#utility.yul\":16673:16674   */\n      dup3\n        /* \"#utility.yul\":16670:16671   */\n      dup3\n        /* \"#utility.yul\":16666:16675   */\n      sub\n        /* \"#utility.yul\":16658:16675   */\n      swap1\n      pop\n        /* \"#utility.yul\":16867:16868   */\n      dup2\n        /* \"#utility.yul\":16861:16865   */\n      dup2\n        /* \"#utility.yul\":16857:16869   */\n      slt\n        /* \"#utility.yul\":16853:16854   */\n      0x00\n        /* \"#utility.yul\":16850:16851   */\n      dup5\n        /* \"#utility.yul\":16846:16855   */\n      slt\n        /* \"#utility.yul\":16842:16870   */\n      and\n        /* \"#utility.yul\":16825:16826   */\n      dup3\n        /* \"#utility.yul\":16819:16823   */\n      dup3\n        /* \"#utility.yul\":16815:16827   */\n      sgt\n        /* \"#utility.yul\":16810:16811   */\n      0x00\n        /* \"#utility.yul\":16807:16808   */\n      dup6\n        /* \"#utility.yul\":16803:16812   */\n      slt\n        /* \"#utility.yul\":16796:16813   */\n      iszero\n        /* \"#utility.yul\":16792:16828   */\n      and\n        /* \"#utility.yul\":16776:16880   */\n      or\n        /* \"#utility.yul\":16773:16903   */\n      iszero\n      tag_377\n      jumpi\n        /* \"#utility.yul\":16883:16901   */\n      tag_378\n      tag_196\n      jump\t// in\n    tag_378:\n        /* \"#utility.yul\":16773:16903   */\n    tag_377:\n        /* \"#utility.yul\":16538:16910   */\n      swap3\n      swap2\n      pop\n      pop\n      jump\t// out\n        /* \"#utility.yul\":16916:17063   */\n    tag_197:\n        /* \"#utility.yul\":17017:17028   */\n      0x00\n        /* \"#utility.yul\":17054:17057   */\n      dup2\n        /* \"#utility.yul\":17039:17057   */\n      swap1\n      pop\n        /* \"#utility.yul\":16916:17063   */\n      swap3\n      swap2\n      pop\n      pop\n      jump\t// out\n        /* \"#utility.yul\":17069:17213   */\n    tag_198:\n        /* \"#utility.yul\":17121:17125   */\n      0x00\n        /* \"#utility.yul\":17144:17147   */\n      dup2\n        /* \"#utility.yul\":17136:17147   */\n      swap1\n      pop\n        /* \"#utility.yul\":17167:17170   */\n      dup2\n        /* \"#utility.yul\":17164:17165   */\n      0x00\n        /* \"#utility.yul\":17157:17171   */\n      mstore\n        /* \"#utility.yul\":17201:17205   */\n      0x20\n        /* \"#utility.yul\":17198:17199   */\n      0x00\n        /* \"#utility.yul\":17188:17206   */\n      keccak256\n        /* \"#utility.yul\":17180:17206   */\n      swap1\n      pop\n        /* \"#utility.yul\":17069:17213   */\n      swap2\n      swap1\n      pop\n      jump\t// out\n        /* \"#utility.yul\":17241:18119   */\n    tag_199:\n        /* \"#utility.yul\":17346:17349   */\n      0x00\n        /* \"#utility.yul\":17383:17388   */\n      dup2\n        /* \"#utility.yul\":17377:17389   */\n      sload\n        /* \"#utility.yul\":17412:17448   */\n      tag_382\n        /* \"#utility.yul\":17438:17447   */\n      dup2\n        /* \"#utility.yul\":17412:17448   */\n      tag_85\n      jump\t// in\n    tag_382:\n        /* \"#utility.yul\":17464:17552   */\n      tag_383\n        /* \"#utility.yul\":17545:17551   */\n      dup2\n        /* \"#utility.yul\":17540:17543   */\n      dup7\n        /* \"#utility.yul\":17464:17552   */\n      tag_197\n      jump\t// in\n    tag_383:\n        /* \"#utility.yul\":17457:17552   */\n      swap5\n      pop\n        /* \"#utility.yul\":17583:17584   */\n      0x01\n        /* \"#utility.yul\":17572:17581   */\n      dup3\n        /* \"#utility.yul\":17568:17585   */\n      and\n        /* \"#utility.yul\":17599:17600   */\n      0x00\n        /* \"#utility.yul\":17594:17760   */\n      dup2\n      eq\n      tag_385\n      jumpi\n        /* \"#utility.yul\":17774:17775   */\n      0x01\n        /* \"#utility.yul\":17769:18113   */\n      dup2\n      eq\n      tag_386\n      jumpi\n        /* \"#utility.yul\":17561:18113   */\n      jump(tag_384)\n        /* \"#utility.yul\":17594:17760   */\n    tag_385:\n        /* \"#utility.yul\":17678:17682   */\n      0xff\n        /* \"#utility.yul\":17674:17683   */\n      not\n        /* \"#utility.yul\":17663:17672   */\n      dup4\n        /* \"#utility.yul\":17659:17684   */\n      and\n        /* \"#utility.yul\":17654:17657   */\n      dup7\n        /* \"#utility.yul\":17647:17685   */\n      mstore\n        /* \"#utility.yul\":17740:17746   */\n      dup2\n        /* \"#utility.yul\":17733:17747   */\n      iszero\n        /* \"#utility.yul\":17726:17748   */\n      iszero\n        /* \"#utility.yul\":17718:17724   */\n      dup3\n        /* \"#utility.yul\":17714:17749   */\n      mul\n        /* \"#utility.yul\":17709:17712   */\n      dup7\n        /* \"#utility.yul\":17705:17750   */\n      add\n        /* \"#utility.yul\":17698:17750   */\n      swap4\n      pop\n        /* \"#utility.yul\":17594:17760   */\n      jump(tag_384)\n        /* \"#utility.yul\":17769:18113   */\n    tag_386:\n        /* \"#utility.yul\":17836:17877   */\n      tag_387\n        /* \"#utility.yul\":17871:17876   */\n      dup6\n        /* \"#utility.yul\":17836:17877   */\n      tag_198\n      jump\t// in\n    tag_387:\n        /* \"#utility.yul\":17899:17900   */\n      0x00\n        /* \"#utility.yul\":17913:18067   */\n    tag_388:\n        /* \"#utility.yul\":17927:17933   */\n      dup4\n        /* \"#utility.yul\":17924:17925   */\n      dup2\n        /* \"#utility.yul\":17921:17934   */\n      lt\n        /* \"#utility.yul\":17913:18067   */\n      iszero\n      tag_390\n      jumpi\n        /* \"#utility.yul\":18001:18008   */\n      dup2\n        /* \"#utility.yul\":17995:18009   */\n      sload\n        /* \"#utility.yul\":17991:17992   */\n      dup2\n        /* \"#utility.yul\":17986:17989   */\n      dup10\n        /* \"#utility.yul\":17982:17993   */\n      add\n        /* \"#utility.yul\":17975:18010   */\n      mstore\n        /* \"#utility.yul\":18051:18052   */\n      0x01\n        /* \"#utility.yul\":18042:18049   */\n      dup3\n        /* \"#utility.yul\":18038:18053   */\n      add\n        /* \"#utility.yul\":18027:18053   */\n      swap2\n      pop\n        /* \"#utility.yul\":17949:17953   */\n      0x20\n        /* \"#utility.yul\":17946:17947   */\n      dup2\n        /* \"#utility.yul\":17942:17954   */\n      add\n        /* \"#utility.yul\":17937:17954   */\n      swap1\n      pop\n        /* \"#utility.yul\":17913:18067   */\n      jump(tag_388)\n    tag_390:\n        /* \"#utility.yul\":18096:18102   */\n      dup4\n        /* \"#utility.yul\":18091:18094   */\n      dup9\n        /* \"#utility.yul\":18087:18103   */\n      add\n        /* \"#utility.yul\":18080:18103   */\n      swap6\n      pop\n        /* \"#utility.yul\":17776:18113   */\n      pop\n      pop\n        /* \"#utility.yul\":17561:18113   */\n    tag_384:\n      pop\n        /* \"#utility.yul\":17350:18119   */\n      pop\n      pop\n        /* \"#utility.yul\":17241:18119   */\n      swap3\n      swap2\n      pop\n      pop\n      jump\t// out\n        /* \"#utility.yul\":18125:18398   */\n    tag_111:\n        /* \"#utility.yul\":18256:18259   */\n      0x00\n        /* \"#utility.yul\":18278:18372   */\n      tag_392\n        /* \"#utility.yul\":18368:18371   */\n      dup3\n        /* \"#utility.yul\":18359:18365   */\n      dup5\n        /* \"#utility.yul\":18278:18372   */\n      tag_199\n      jump\t// in\n    tag_392:\n        /* \"#utility.yul\":18271:18372   */\n      swap2\n      pop\n        /* \"#utility.yul\":18389:18392   */\n      dup2\n        /* \"#utility.yul\":18382:18392   */\n      swap1\n      pop\n        /* \"#utility.yul\":18125:18398   */\n      swap3\n      swap2\n      pop\n      pop\n      jump\t// out\n        /* \"#utility.yul\":18404:18544   */\n    tag_200:\n        /* \"#utility.yul\":18452:18456   */\n      0x00\n        /* \"#utility.yul\":18475:18478   */\n      dup2\n        /* \"#utility.yul\":18467:18478   */\n      swap1\n      pop\n        /* \"#utility.yul\":18498:18501   */\n      dup2\n        /* \"#utility.yul\":18495:18496   */\n      0x00\n        /* \"#utility.yul\":18488:18502   */\n      mstore\n        /* \"#utility.yul\":18532:18536   */\n      0x20\n        /* \"#utility.yul\":18529:18530   */\n      0x00\n        /* \"#utility.yul\":18519:18537   */\n      keccak256\n        /* \"#utility.yul\":18511:18537   */\n      swap1\n      pop\n        /* \"#utility.yul\":18404:18544   */\n      swap2\n      swap1\n      pop\n      jump\t// out\n        /* \"#utility.yul\":18550:19091   */\n    tag_201:\n        /* \"#utility.yul\":18650:18652   */\n      0x1f\n        /* \"#utility.yul\":18645:18648   */\n      dup3\n        /* \"#utility.yul\":18642:18653   */\n      gt\n        /* \"#utility.yul\":18639:19084   */\n      iszero\n      tag_395\n      jumpi\n        /* \"#utility.yul\":18684:18721   */\n      tag_396\n        /* \"#utility.yul\":18715:18720   */\n      dup2\n        /* \"#utility.yul\":18684:18721   */\n      tag_200\n      jump\t// in\n    tag_396:\n        /* \"#utility.yul\":18767:18796   */\n      tag_397\n        /* \"#utility.yul\":18785:18795   */\n      dup5\n        /* \"#utility.yul\":18767:18796   */\n      tag_178\n      jump\t// in\n    tag_397:\n        /* \"#utility.yul\":18757:18765   */\n      dup2\n        /* \"#utility.yul\":18753:18797   */\n      add\n        /* \"#utility.yul\":18950:18952   */\n      0x20\n        /* \"#utility.yul\":18938:18948   */\n      dup6\n        /* \"#utility.yul\":18935:18953   */\n      lt\n        /* \"#utility.yul\":18932:18981   */\n      iszero\n      tag_398\n      jumpi\n        /* \"#utility.yul\":18971:18979   */\n      dup2\n        /* \"#utility.yul\":18956:18979   */\n      swap1\n      pop\n        /* \"#utility.yul\":18932:18981   */\n    tag_398:\n        /* \"#utility.yul\":18994:19074   */\n      tag_399\n        /* \"#utility.yul\":19050:19072   */\n      tag_400\n        /* \"#utility.yul\":19068:19071   */\n      dup6\n        /* \"#utility.yul\":19050:19072   */\n      tag_178\n      jump\t// in\n    tag_400:\n        /* \"#utility.yul\":19040:19048   */\n      dup4\n        /* \"#utility.yul\":19036:19073   */\n      add\n        /* \"#utility.yul\":19023:19034   */\n      dup3\n        /* \"#utility.yul\":18994:19074   */\n      tag_187\n      jump\t// in\n    tag_399:\n        /* \"#utility.yul\":18654:19084   */\n      pop\n      pop\n        /* \"#utility.yul\":18639:19084   */\n    tag_395:\n        /* \"#utility.yul\":18550:19091   */\n      pop\n      pop\n      pop\n      jump\t// out\n        /* \"#utility.yul\":19097:20487   */\n    tag_125:\n        /* \"#utility.yul\":19212:19248   */\n      tag_402\n        /* \"#utility.yul\":19244:19247   */\n      dup3\n        /* \"#utility.yul\":19212:19248   */\n      tag_171\n      jump\t// in\n    tag_402:\n        /* \"#utility.yul\":19313:19331   */\n      0xffffffffffffffff\n        /* \"#utility.yul\":19305:19311   */\n      dup2\n        /* \"#utility.yul\":19302:19332   */\n      gt\n        /* \"#utility.yul\":19299:19355   */\n      iszero\n      tag_403\n      jumpi\n        /* \"#utility.yul\":19335:19353   */\n      tag_404\n      tag_156\n      jump\t// in\n    tag_404:\n        /* \"#utility.yul\":19299:19355   */\n    tag_403:\n        /* \"#utility.yul\":19379:19417   */\n      tag_405\n        /* \"#utility.yul\":19411:19415   */\n      dup3\n        /* \"#utility.yul\":19405:19416   */\n      sload\n        /* \"#utility.yul\":19379:19417   */\n      tag_85\n      jump\t// in\n    tag_405:\n        /* \"#utility.yul\":19464:19530   */\n      tag_406\n        /* \"#utility.yul\":19523:19529   */\n      dup3\n        /* \"#utility.yul\":19515:19521   */\n      dup3\n        /* \"#utility.yul\":19509:19513   */\n      dup6\n        /* \"#utility.yul\":19464:19530   */\n      tag_201\n      jump\t// in\n    tag_406:\n        /* \"#utility.yul\":19557:19558   */\n      0x00\n        /* \"#utility.yul\":19581:19585   */\n      0x20\n        /* \"#utility.yul\":19568:19585   */\n      swap1\n      pop\n        /* \"#utility.yul\":19613:19615   */\n      0x1f\n        /* \"#utility.yul\":19605:19611   */\n      dup4\n        /* \"#utility.yul\":19602:19616   */\n      gt\n        /* \"#utility.yul\":19630:19631   */\n      0x01\n        /* \"#utility.yul\":19625:20242   */\n      dup2\n      eq\n      tag_408\n      jumpi\n        /* \"#utility.yul\":20286:20287   */\n      0x00\n        /* \"#utility.yul\":20303:20309   */\n      dup5\n        /* \"#utility.yul\":20300:20377   */\n      iszero\n      tag_409\n      jumpi\n        /* \"#utility.yul\":20352:20361   */\n      dup3\n        /* \"#utility.yul\":20347:20350   */\n      dup8\n        /* \"#utility.yul\":20343:20362   */\n      add\n        /* \"#utility.yul\":20337:20363   */\n      mload\n        /* \"#utility.yul\":20328:20363   */\n      swap1\n      pop\n        /* \"#utility.yul\":20300:20377   */\n    tag_409:\n        /* \"#utility.yul\":20403:20470   */\n      tag_410\n        /* \"#utility.yul\":20463:20469   */\n      dup6\n        /* \"#utility.yul\":20456:20461   */\n      dup3\n        /* \"#utility.yul\":20403:20470   */\n      tag_191\n      jump\t// in\n    tag_410:\n        /* \"#utility.yul\":20397:20401   */\n      dup7\n        /* \"#utility.yul\":20390:20471   */\n      sstore\n        /* \"#utility.yul\":20259:20481   */\n      pop\n        /* \"#utility.yul\":19595:20481   */\n      jump(tag_407)\n        /* \"#utility.yul\":19625:20242   */\n    tag_408:\n        /* \"#utility.yul\":19677:19681   */\n      0x1f\n        /* \"#utility.yul\":19673:19682   */\n      not\n        /* \"#utility.yul\":19665:19671   */\n      dup5\n        /* \"#utility.yul\":19661:19683   */\n      and\n        /* \"#utility.yul\":19711:19747   */\n      tag_411\n        /* \"#utility.yul\":19742:19746   */\n      dup7\n        /* \"#utility.yul\":19711:19747   */\n      tag_200\n      jump\t// in\n    tag_411:\n        /* \"#utility.yul\":19769:19770   */\n      0x00\n        /* \"#utility.yul\":19783:19991   */\n    tag_412:\n        /* \"#utility.yul\":19797:19804   */\n      dup3\n        /* \"#utility.yul\":19794:19795   */\n      dup2\n        /* \"#utility.yul\":19791:19805   */\n      lt\n        /* \"#utility.yul\":19783:19991   */\n      iszero\n      tag_414\n      jumpi\n        /* \"#utility.yul\":19876:19885   */\n      dup5\n        /* \"#utility.yul\":19871:19874   */\n      dup10\n        /* \"#utility.yul\":19867:19886   */\n      add\n        /* \"#utility.yul\":19861:19887   */\n      mload\n        /* \"#utility.yul\":19853:19859   */\n      dup3\n        /* \"#utility.yul\":19846:19888   */\n      sstore\n        /* \"#utility.yul\":19927:19928   */\n      0x01\n        /* \"#utility.yul\":19919:19925   */\n      dup3\n        /* \"#utility.yul\":19915:19929   */\n      add\n        /* \"#utility.yul\":19905:19929   */\n      swap2\n      pop\n        /* \"#utility.yul\":19974:19976   */\n      0x20\n        /* \"#utility.yul\":19963:19972   */\n      dup6\n        /* \"#utility.yul\":19959:19977   */\n      add\n        /* \"#utility.yul\":19946:19977   */\n      swap5\n      pop\n        /* \"#utility.yul\":19820:19824   */\n      0x20\n        /* \"#utility.yul\":19817:19818   */\n      dup2\n        /* \"#utility.yul\":19813:19825   */\n      add\n        /* \"#utility.yul\":19808:19825   */\n      swap1\n      pop\n        /* \"#utility.yul\":19783:19991   */\n      jump(tag_412)\n    tag_414:\n        /* \"#utility.yul\":20019:20025   */\n      dup7\n        /* \"#utility.yul\":20010:20017   */\n      dup4\n        /* \"#utility.yul\":20007:20026   */\n      lt\n        /* \"#utility.yul\":20004:20183   */\n      iszero\n      tag_415\n      jumpi\n        /* \"#utility.yul\":20077:20086   */\n      dup5\n        /* \"#utility.yul\":20072:20075   */\n      dup10\n        /* \"#utility.yul\":20068:20087   */\n      add\n        /* \"#utility.yul\":20062:20088   */\n      mload\n        /* \"#utility.yul\":20120:20168   */\n      tag_416\n        /* \"#utility.yul\":20162:20166   */\n      0x1f\n        /* \"#utility.yul\":20154:20160   */\n      dup10\n        /* \"#utility.yul\":20150:20167   */\n      and\n        /* \"#utility.yul\":20139:20148   */\n      dup3\n        /* \"#utility.yul\":20120:20168   */\n      tag_190\n      jump\t// in\n    tag_416:\n        /* \"#utility.yul\":20112:20118   */\n      dup4\n        /* \"#utility.yul\":20105:20169   */\n      sstore\n        /* \"#utility.yul\":20027:20183   */\n      pop\n        /* \"#utility.yul\":20004:20183   */\n    tag_415:\n        /* \"#utility.yul\":20229:20230   */\n      0x01\n        /* \"#utility.yul\":20225:20226   */\n      0x02\n        /* \"#utility.yul\":20217:20223   */\n      dup9\n        /* \"#utility.yul\":20213:20227   */\n      mul\n        /* \"#utility.yul\":20209:20231   */\n      add\n        /* \"#utility.yul\":20203:20207   */\n      dup9\n        /* \"#utility.yul\":20196:20232   */\n      sstore\n        /* \"#utility.yul\":19632:20242   */\n      pop\n      pop\n      pop\n        /* \"#utility.yul\":19595:20481   */\n    tag_407:\n      pop\n        /* \"#utility.yul\":19187:20487   */\n      pop\n      pop\n      pop\n        /* \"#utility.yul\":19097:20487   */\n      pop\n      pop\n      jump\t// out\n        /* \"#utility.yul\":20493:20684   */\n    tag_139:\n        /* \"#utility.yul\":20533:20536   */\n      0x00\n        /* \"#utility.yul\":20552:20572   */\n      tag_418\n        /* \"#utility.yul\":20570:20571   */\n      dup3\n        /* \"#utility.yul\":20552:20572   */\n      tag_144\n      jump\t// in\n    tag_418:\n        /* \"#utility.yul\":20547:20572   */\n      swap2\n      pop\n        /* \"#utility.yul\":20586:20606   */\n      tag_419\n        /* \"#utility.yul\":20604:20605   */\n      dup4\n        /* \"#utility.yul\":20586:20606   */\n      tag_144\n      jump\t// in\n    tag_419:\n        /* \"#utility.yul\":20581:20606   */\n      swap3\n      pop\n        /* \"#utility.yul\":20629:20630   */\n      dup3\n        /* \"#utility.yul\":20626:20627   */\n      dup3\n        /* \"#utility.yul\":20622:20631   */\n      add\n        /* \"#utility.yul\":20615:20631   */\n      swap1\n      pop\n        /* \"#utility.yul\":20650:20653   */\n      dup1\n        /* \"#utility.yul\":20647:20648   */\n      dup3\n        /* \"#utility.yul\":20644:20654   */\n      gt\n        /* \"#utility.yul\":20641:20677   */\n      iszero\n      tag_420\n      jumpi\n        /* \"#utility.yul\":20657:20675   */\n      tag_421\n      tag_196\n      jump\t// in\n    tag_421:\n        /* \"#utility.yul\":20641:20677   */\n    tag_420:\n        /* \"#utility.yul\":20493:20684   */\n      swap3\n      swap2\n      pop\n      pop\n      jump\t// out\n        /* \"#utility.yul\":20690:21065   */\n    tag_141:\n        /* \"#utility.yul\":20729:20732   */\n      0x00\n        /* \"#utility.yul\":20748:20767   */\n      tag_423\n        /* \"#utility.yul\":20765:20766   */\n      dup3\n        /* \"#utility.yul\":20748:20767   */\n      tag_169\n      jump\t// in\n    tag_423:\n        /* \"#utility.yul\":20743:20767   */\n      swap2\n      pop\n        /* \"#utility.yul\":20781:20800   */\n      tag_424\n        /* \"#utility.yul\":20798:20799   */\n      dup4\n        /* \"#utility.yul\":20781:20800   */\n      tag_169\n      jump\t// in\n    tag_424:\n        /* \"#utility.yul\":20776:20800   */\n      swap3\n      pop\n        /* \"#utility.yul\":20823:20824   */\n      dup3\n        /* \"#utility.yul\":20820:20821   */\n      dup3\n        /* \"#utility.yul\":20816:20825   */\n      add\n        /* \"#utility.yul\":20809:20825   */\n      swap1\n      pop\n        /* \"#utility.yul\":21021:21022   */\n      dup3\n        /* \"#utility.yul\":21016:21019   */\n      dup2\n        /* \"#utility.yul\":21012:21023   */\n      slt\n        /* \"#utility.yul\":21005:21024   */\n      iszero\n        /* \"#utility.yul\":21001:21002   */\n      0x00\n        /* \"#utility.yul\":20998:20999   */\n      dup4\n        /* \"#utility.yul\":20994:21003   */\n      slt\n        /* \"#utility.yul\":20990:21025   */\n      and\n        /* \"#utility.yul\":20973:20974   */\n      dup4\n        /* \"#utility.yul\":20968:20971   */\n      dup3\n        /* \"#utility.yul\":20964:20975   */\n      slt\n        /* \"#utility.yul\":20959:20960   */\n      0x00\n        /* \"#utility.yul\":20956:20957   */\n      dup5\n        /* \"#utility.yul\":20952:20961   */\n      slt\n        /* \"#utility.yul\":20945:20962   */\n      iszero\n        /* \"#utility.yul\":20941:20976   */\n      and\n        /* \"#utility.yul\":20925:21035   */\n      or\n        /* \"#utility.yul\":20922:21058   */\n      iszero\n      tag_425\n      jumpi\n        /* \"#utility.yul\":21038:21056   */\n      tag_426\n      tag_196\n      jump\t// in\n    tag_426:\n        /* \"#utility.yul\":20922:21058   */\n    tag_425:\n        /* \"#utility.yul\":20690:21065   */\n      swap3\n      swap2\n      pop\n      pop\n      jump\t// out\n\n    auxdata: 0xa2646970667358221220f65f8caf4a9fa5ab6e101a04b04da90df4bfe1b3b46ca9872fbdda540ee3b10f64736f6c634300081f0033\n}\n",
				"bytecode": {
					"linkReferences": {},
					"object": "6080604052348015600e575f5ffd5b505f6001819055505f600381905550600160025f6101000a81548160ff02191690831515021790555061130b806100445f395ff3fe608060405234801561000f575f5ffd5b5060043610610109575f3560e01c80636729f7ec116100a05780639624b8a71161006f5780639624b8a71461026e578063aede67ea1461028c578063b6b55f25146102aa578063be1c766b146102c6578063ec36d35e146102e457610109565b80636729f7ec1461020c5780637ed6c9261461022a5780637fd25e6f1461024657806386f547121461026457610109565b80632e1a7d4d116100dc5780632e1a7d4d146101815780633e116de51461019d578063533092ef146101cd57806365ac2320146101ee57610109565b80630bf6cc081461010d5780630dccd51e1461012b57806318976fa21461015b578063295795e214610165575b5f5ffd5b610115610302565b60405161012291906107c2565b60405180910390f35b61014560048036038101906101409190610816565b610308565b604051610152919061087b565b60405180910390f35b6101636103c0565b005b61017f600480360381019061017a91906109d0565b6103db565b005b61019b60048036038101906101969190610816565b6103ed565b005b6101b760048036038101906101b291906109d0565b6104b3565b6040516101c49190610a31565b60405180910390f35b6101d56104da565b6040516101e59493929190610ac2565b60405180910390f35b6101f661058d565b6040516102039190610b0c565b60405180910390f35b610214610618565b6040516102219190610b2c565b60405180910390f35b610244600480360381019061023f91906109d0565b61061e565b005b61024e610631565b60405161025b9190610b97565b60405180910390f35b61026c6106bd565b005b6102766106d9565b60405161028391906107c2565b60405180910390f35b6102946106ee565b6040516102a19190610a31565b60405180910390f35b6102c460048036038101906102bf9190610816565b610703565b005b6102ce610784565b6040516102db91906107c2565b60405180910390f35b6102ec610798565b6040516102f99190610a31565b60405180910390f35b60015481565b5f6004805461031690610be4565b90508210610359576040517f08c379a000000000000000000000000000000000000000000000000000000000815260040161035090610c5e565b60405180910390fd5b600482815461036790610be4565b811061037657610375610c7c565b5b81546001161561039357905f5260205f2090602091828204019190065b9054901a7f0100000000000000000000000000000000000000000000000000000000000000029050919050565b5f60025f6101000a81548160ff021916908315150217905550565b805f90816103e99190610e49565b5050565b60025f9054906101000a900460ff1661043b576040517f08c379a000000000000000000000000000000000000000000000000000000000815260040161043290610f62565b60405180910390fd5b806001541015610480576040517f08c379a000000000000000000000000000000000000000000000000000000000815260040161047790610fca565b60405180910390fd5b8060015f8282546104919190611015565b925050819055508060035f8282546104a99190611048565b9250508190555050565b5f81805190602001205f6040516104ca9190611124565b6040518091039020149050919050565b60605f5f5f5f60015460035460025f9054906101000a900460ff1683805461050190610be4565b80601f016020809104026020016040519081016040528092919081815260200182805461052d90610be4565b80156105785780601f1061054f57610100808354040283529160200191610578565b820191905f5260205f20905b81548152906001019060200180831161055b57829003601f168201915b50505050509350935093509350935090919293565b5f805461059990610be4565b80601f01602080910402602001604051908101604052809291908181526020018280546105c590610be4565b80156106105780601f106105e757610100808354040283529160200191610610565b820191905f5260205f20905b8154815290600101906020018083116105f357829003601f168201915b505050505081565b60035481565b806004908161062d9190611192565b5050565b6004805461063e90610be4565b80601f016020809104026020016040519081016040528092919081815260200182805461066a90610be4565b80156106b55780601f1061068c576101008083540402835291602001916106b5565b820191905f5260205f20905b81548152906001019060200180831161069857829003601f168201915b505050505081565b600160025f6101000a81548160ff021916908315150217905550565b5f600480546106e790610be4565b9050905090565b5f60025f9054906101000a900460ff16905090565b60025f9054906101000a900460ff16610751576040517f08c379a000000000000000000000000000000000000000000000000000000000815260040161074890610f62565b60405180910390fd5b8060015f8282546107629190611261565b925050819055508060035f82825461077a9190611294565b9250508190555050565b5f5f805461079190610be4565b9050905090565b60025f9054906101000a900460ff1681565b5f819050919050565b6107bc816107aa565b82525050565b5f6020820190506107d55f8301846107b3565b92915050565b5f604051905090565b5f5ffd5b5f5ffd5b6107f5816107aa565b81146107ff575f5ffd5b50565b5f81359050610810816107ec565b92915050565b5f6020828403121561082b5761082a6107e4565b5b5f61083884828501610802565b91505092915050565b5f7fff0000000000000000000000000000000000000000000000000000000000000082169050919050565b61087581610841565b82525050565b5f60208201905061088e5f83018461086c565b92915050565b5f5ffd5b5f5ffd5b5f601f19601f8301169050919050565b7f4e487b71000000000000000000000000000000000000000000000000000000005f52604160045260245ffd5b6108e28261089c565b810181811067ffffffffffffffff82111715610901576109006108ac565b5b80604052505050565b5f6109136107db565b905061091f82826108d9565b919050565b5f67ffffffffffffffff82111561093e5761093d6108ac565b5b6109478261089c565b9050602081019050919050565b828183375f83830152505050565b5f61097461096f84610924565b61090a565b9050828152602081018484840111156109905761098f610898565b5b61099b848285610954565b509392505050565b5f82601f8301126109b7576109b6610894565b5b81356109c7848260208601610962565b91505092915050565b5f602082840312156109e5576109e46107e4565b5b5f82013567ffffffffffffffff811115610a0257610a016107e8565b5b610a0e848285016109a3565b91505092915050565b5f8115159050919050565b610a2b81610a17565b82525050565b5f602082019050610a445f830184610a22565b92915050565b5f81519050919050565b5f82825260208201905092915050565b8281835e5f83830152505050565b5f610a7c82610a4a565b610a868185610a54565b9350610a96818560208601610a64565b610a9f8161089c565b840191505092915050565b5f819050919050565b610abc81610aaa565b82525050565b5f6080820190508181035f830152610ada8187610a72565b9050610ae960208301866107b3565b610af66040830185610ab3565b610b036060830184610a22565b95945050505050565b5f6020820190508181035f830152610b248184610a72565b905092915050565b5f602082019050610b3f5f830184610ab3565b92915050565b5f81519050919050565b5f82825260208201905092915050565b5f610b6982610b45565b610b738185610b4f565b9350610b83818560208601610a64565b610b8c8161089c565b840191505092915050565b5f6020820190508181035f830152610baf8184610b5f565b905092915050565b7f4e487b71000000000000000000000000000000000000000000000000000000005f52602260045260245ffd5b5f6002820490506001821680610bfb57607f821691505b602082108103610c0e57610c0d610bb7565b5b50919050565b7f496e646578206f7574206f6620626f756e6473000000000000000000000000005f82015250565b5f610c48601383610a54565b9150610c5382610c14565b602082019050919050565b5f6020820190508181035f830152610c7581610c3c565b9050919050565b7f4e487b71000000000000000000000000000000000000000000000000000000005f52603260045260245ffd5b5f819050815f5260205f209050919050565b5f6020601f8301049050919050565b5f82821b905092915050565b5f60088302610d057fffffffffffffffffffffffffffffffffffffffffffffffffffffffffffffffff82610cca565b610d0f8683610cca565b95508019841693508086168417925050509392505050565b5f819050919050565b5f610d4a610d45610d40846107aa565b610d27565b6107aa565b9050919050565b5f819050919050565b610d6383610d30565b610d77610d6f82610d51565b848454610cd6565b825550505050565b5f5f905090565b610d8e610d7f565b610d99818484610d5a565b505050565b5b81811015610dbc57610db15f82610d86565b600181019050610d9f565b5050565b601f821115610e0157610dd281610ca9565b610ddb84610cbb565b81016020851015610dea578190505b610dfe610df685610cbb565b830182610d9e565b50505b505050565b5f82821c905092915050565b5f610e215f1984600802610e06565b1980831691505092915050565b5f610e398383610e12565b9150826002028217905092915050565b610e5282610a4a565b67ffffffffffffffff811115610e6b57610e6a6108ac565b5b610e758254610be4565b610e80828285610dc0565b5f60209050601f831160018114610eb1575f8415610e9f578287015190505b610ea98582610e2e565b865550610f10565b601f198416610ebf86610ca9565b5f5b82811015610ee657848901518255600182019150602085019450602081019050610ec1565b86831015610f035784890151610eff601f891682610e12565b8355505b6001600288020188555050505b505050505050565b7f5661756c7420697320636c6f73656400000000000000000000000000000000005f82015250565b5f610f4c600f83610a54565b9150610f5782610f18565b602082019050919050565b5f6020820190508181035f830152610f7981610f40565b9050919050565b7f496e73756666696369656e742062616c616e63650000000000000000000000005f82015250565b5f610fb4601483610a54565b9150610fbf82610f80565b602082019050919050565b5f6020820190508181035f830152610fe181610fa8565b9050919050565b7f4e487b71000000000000000000000000000000000000000000000000000000005f52601160045260245ffd5b5f61101f826107aa565b915061102a836107aa565b925082820390508181111561104257611041610fe8565b5b92915050565b5f61105282610aaa565b915061105d83610aaa565b925082820390508181125f8412168282135f85121516171561108257611081610fe8565b5b92915050565b5f81905092915050565b5f819050815f5260205f209050919050565b5f81546110b081610be4565b6110ba8186611088565b9450600182165f81146110d457600181146110e95761111b565b60ff198316865281151582028601935061111b565b6110f285611092565b5f5b83811015611113578154818901526001820191506020810190506110f4565b838801955050505b50505092915050565b5f61112f82846110a4565b915081905092915050565b5f819050815f5260205f209050919050565b601f82111561118d5761115e8161113a565b61116784610cbb565b81016020851015611176578190505b61118a61118285610cbb565b830182610d9e565b50505b505050565b61119b82610b45565b67ffffffffffffffff8111156111b4576111b36108ac565b5b6111be8254610be4565b6111c982828561114c565b5f60209050601f8311600181146111fa575f84156111e8578287015190505b6111f28582610e2e565b865550611259565b601f1984166112088661113a565b5f5b8281101561122f5784890151825560018201915060208501945060208101905061120a565b8683101561124c5784890151611248601f891682610e12565b8355505b6001600288020188555050505b505050505050565b5f61126b826107aa565b9150611276836107aa565b925082820190508082111561128e5761128d610fe8565b5b92915050565b5f61129e82610aaa565b91506112a983610aaa565b92508282019050828112155f8312168382125f8412151617156112cf576112ce610fe8565b5b9291505056fea2646970667358221220f65f8caf4a9fa5ab6e101a04b04da90df4bfe1b3b46ca9872fbdda540ee3b10f64736f6c634300081f0033",
					"opcodes": "PUSH1 0x80 PUSH1 0x40 MSTORE CALLVALUE DUP1 ISZERO PUSH1 0xE JUMPI PUSH0 PUSH0 REVERT JUMPDEST POP PUSH0 PUSH1 0x1 DUP2 SWAP1 SSTORE POP PUSH0 PUSH1 0x3 DUP2 SWAP1 SSTORE POP PUSH1 0x1 PUSH1 0x2 PUSH0 PUSH2 0x100 EXP DUP2 SLOAD DUP2 PUSH1 0xFF MUL NOT AND SWAP1 DUP4 ISZERO ISZERO MUL OR SWAP1 SSTORE POP PUSH2 0x130B DUP1 PUSH2 0x44 PUSH0 CODECOPY PUSH0 RETURN INVALID PUSH1 0x80 PUSH1 0x40 MSTORE CALLVALUE DUP1 ISZERO PUSH2 0xF JUMPI PUSH0 PUSH0 REVERT JUMPDEST POP PUSH1 0x4 CALLDATASIZE LT PUSH2 0x109 JUMPI PUSH0 CALLDATALOAD PUSH1 0xE0 SHR DUP1 PUSH4 0x6729F7EC GT PUSH2 0xA0 JUMPI DUP1 PUSH4 0x9624B8A7 GT PUSH2 0x6F JUMPI DUP1 PUSH4 0x9624B8A7 EQ PUSH2 0x26E JUMPI DUP1 PUSH4 0xAEDE67EA EQ PUSH2 0x28C JUMPI DUP1 PUSH4 0xB6B55F25 EQ PUSH2 0x2AA JUMPI DUP1 PUSH4 0xBE1C766B EQ PUSH2 0x2C6 JUMPI DUP1 PUSH4 0xEC36D35E EQ PUSH2 0x2E4 JUMPI PUSH2 0x109 JUMP JUMPDEST DUP1 PUSH4 0x6729F7EC EQ PUSH2 0x20C JUMPI DUP1 PUSH4 0x7ED6C926 EQ PUSH2 0x22A JUMPI DUP1 PUSH4 0x7FD25E6F EQ PUSH2 0x246 JUMPI DUP1 PUSH4 0x86F54712 EQ PUSH2 0x264 JUMPI PUSH2 0x109 JUMP JUMPDEST DUP1 PUSH4 0x2E1A7D4D GT PUSH2 0xDC JUMPI DUP1 PUSH4 0x2E1A7D4D EQ PUSH2 0x181 JUMPI DUP1 PUSH4 0x3E116DE5 EQ PUSH2 0x19D JUMPI DUP1 PUSH4 0x533092EF EQ PUSH2 0x1CD JUMPI DUP1 PUSH4 0x65AC2320 EQ PUSH2 0x1EE JUMPI PUSH2 0x109 JUMP JUMPDEST DUP1 PUSH4 0xBF6CC08 EQ PUSH2 0x10D JUMPI DUP1 PUSH4 0xDCCD51E EQ PUSH2 0x12B JUMPI DUP1 PUSH4 0x18976FA2 EQ PUSH2 0x15B JUMPI DUP1 PUSH4 0x295795E2 EQ PUSH2 0x165 JUMPI JUMPDEST PUSH0 PUSH0 REVERT JUMPDEST PUSH2 0x115 PUSH2 0x302 JUMP JUMPDEST PUSH1 0x40 MLOAD PUSH2 0x122 SWAP2 SWAP1 PUSH2 0x7C2 JUMP JUMPDEST PUSH1 0x40 MLOAD DUP1 SWAP2 SUB SWAP1 RETURN JUMPDEST PUSH2 0x145 PUSH1 0x4 DUP1 CALLDATASIZE SUB DUP2 ADD SWAP1 PUSH2 0x140 SWAP2 SWAP1 PUSH2 0x816 JUMP JUMPDEST PUSH2 0x308 JUMP JUMPDEST PUSH1 0x40 MLOAD PUSH2 0x152 SWAP2 SWAP1 PUSH2 0x87B JUMP JUMPDEST PUSH1 0x40 MLOAD DUP1 SWAP2 SUB SWAP1 RETURN JUMPDEST PUSH2 0x163 PUSH2 0x3C0 JUMP JUMPDEST STOP JUMPDEST PUSH2 0x17F PUSH1 0x4 DUP1 CALLDATASIZE SUB DUP2 ADD SWAP1 PUSH2 0x17A SWAP2 SWAP1 PUSH2 0x9D0 JUMP JUMPDEST PUSH2 0x3DB JUMP JUMPDEST STOP JUMPDEST PUSH2 0x19B PUSH1 0x4 DUP1 CALLDATASIZE SUB DUP2 ADD SWAP1 PUSH2 0x196 SWAP2 SWAP1 PUSH2 0x816 JUMP JUMPDEST PUSH2 0x3ED JUMP JUMPDEST STOP JUMPDEST PUSH2 0x1B7 PUSH1 0x4 DUP1 CALLDATASIZE SUB DUP2 ADD SWAP1 PUSH2 0x1B2 SWAP2 SWAP1 PUSH2 0x9D0 JUMP JUMPDEST PUSH2 0x4B3 JUMP JUMPDEST PUSH1 0x40 MLOAD PUSH2 0x1C4 SWAP2 SWAP1 PUSH2 0xA31 JUMP JUMPDEST PUSH1 0x40 MLOAD DUP1 SWAP2 SUB SWAP1 RETURN JUMPDEST PUSH2 0x1D5 PUSH2 0x4DA JUMP JUMPDEST PUSH1 0x40 MLOAD PUSH2 0x1E5 SWAP5 SWAP4 SWAP3 SWAP2 SWAP1 PUSH2 0xAC2 JUMP JUMPDEST PUSH1 0x40 MLOAD DUP1 SWAP2 SUB SWAP1 RETURN JUMPDEST PUSH2 0x1F6 PUSH2 0x58D JUMP JUMPDEST PUSH1 0x40 MLOAD PUSH2 0x203 SWAP2 SWAP1 PUSH2 0xB0C JUMP JUMPDEST PUSH1 0x40 MLOAD DUP1 SWAP2 SUB SWAP1 RETURN JUMPDEST PUSH2 0x214 PUSH2 0x618 JUMP JUMPDEST PUSH1 0x40 MLOAD PUSH2 0x221 SWAP2 SWAP1 PUSH2 0xB2C JUMP JUMPDEST PUSH1 0x40 MLOAD DUP1 SWAP2 SUB SWAP1 RETURN JUMPDEST PUSH2 0x244 PUSH1 0x4 DUP1 CALLDATASIZE SUB DUP2 ADD SWAP1 PUSH2 0x23F SWAP2 SWAP1 PUSH2 0x9D0 JUMP JUMPDEST PUSH2 0x61E JUMP JUMPDEST STOP JUMPDEST PUSH2 0x24E PUSH2 0x631 JUMP JUMPDEST PUSH1 0x40 MLOAD PUSH2 0x25B SWAP2 SWAP1 PUSH2 0xB97 JUMP JUMPDEST PUSH1 0x40 MLOAD DUP1 SWAP2 SUB SWAP1 RETURN JUMPDEST PUSH2 0x26C PUSH2 0x6BD JUMP JUMPDEST STOP JUMPDEST PUSH2 0x276 PUSH2 0x6D9 JUMP JUMPDEST PUSH1 0x40 MLOAD PUSH2 0x283 SWAP2 SWAP1 PUSH2 0x7C2 JUMP JUMPDEST PUSH1 0x40 MLOAD DUP1 SWAP2 SUB SWAP1 RETURN JUMPDEST PUSH2 0x294 PUSH2 0x6EE JUMP JUMPDEST PUSH1 0x40 MLOAD PUSH2 0x2A1 SWAP2 SWAP1 PUSH2 0xA31 JUMP JUMPDEST PUSH1 0x40 MLOAD DUP1 SWAP2 SUB SWAP1 RETURN JUMPDEST PUSH2 0x2C4 PUSH1 0x4 DUP1 CALLDATASIZE SUB DUP2 ADD SWAP1 PUSH2 0x2BF SWAP2 SWAP1 PUSH2 0x816 JUMP JUMPDEST PUSH2 0x703 JUMP JUMPDEST STOP JUMPDEST PUSH2 0x2CE PUSH2 0x784 JUMP JUMPDEST PUSH1 0x40 MLOAD PUSH2 0x2DB SWAP2 SWAP1 PUSH2 0x7C2 JUMP JUMPDEST PUSH1 0x40 MLOAD DUP1 SWAP2 SUB SWAP1 RETURN JUMPDEST PUSH2 0x2EC PUSH2 0x798 JUMP JUMPDEST PUSH1 0x40 MLOAD PUSH2 0x2F9 SWAP2 SWAP1 PUSH2 0xA31 JUMP JUMPDEST PUSH1 0x40 MLOAD DUP1 SWAP2 SUB SWAP1 RETURN JUMPDEST PUSH1 0x1 SLOAD DUP2 JUMP JUMPDEST PUSH0 PUSH1 0x4 DUP1 SLOAD PUSH2 0x316 SWAP1 PUSH2 0xBE4 JUMP JUMPDEST SWAP1 POP DUP3 LT PUSH2 0x359 JUMPI PUSH1 0x40 MLOAD PUSH32 0x8C379A000000000000000000000000000000000000000000000000000000000 DUP2 MSTORE PUSH1 0x4 ADD PUSH2 0x350 SWAP1 PUSH2 0xC5E JUMP JUMPDEST PUSH1 0x40 MLOAD DUP1 SWAP2 SUB SWAP1 REVERT JUMPDEST PUSH1 0x4 DUP3 DUP2 SLOAD PUSH2 0x367 SWAP1 PUSH2 0xBE4 JUMP JUMPDEST DUP2 LT PUSH2 0x376 JUMPI PUSH2 0x375 PUSH2 0xC7C JUMP JUMPDEST JUMPDEST DUP2 SLOAD PUSH1 0x1 AND ISZERO PUSH2 0x393 JUMPI SWAP1 PUSH0 MSTORE PUSH1 0x20 PUSH0 KECCAK256 SWAP1 PUSH1 0x20 SWAP2 DUP3 DUP3 DIV ADD SWAP2 SWAP1 MOD JUMPDEST SWAP1 SLOAD SWAP1 BYTE PUSH32 0x100000000000000000000000000000000000000000000000000000000000000 MUL SWAP1 POP SWAP2 SWAP1 POP JUMP JUMPDEST PUSH0 PUSH1 0x2 PUSH0 PUSH2 0x100 EXP DUP2 SLOAD DUP2 PUSH1 0xFF MUL NOT AND SWAP1 DUP4 ISZERO ISZERO MUL OR SWAP1 SSTORE POP JUMP JUMPDEST DUP1 PUSH0 SWAP1 DUP2 PUSH2 0x3E9 SWAP2 SWAP1 PUSH2 0xE49 JUMP JUMPDEST POP POP JUMP JUMPDEST PUSH1 0x2 PUSH0 SWAP1 SLOAD SWAP1 PUSH2 0x100 EXP SWAP1 DIV PUSH1 0xFF AND PUSH2 0x43B JUMPI PUSH1 0x40 MLOAD PUSH32 0x8C379A000000000000000000000000000000000000000000000000000000000 DUP2 MSTORE PUSH1 0x4 ADD PUSH2 0x432 SWAP1 PUSH2 0xF62 JUMP JUMPDEST PUSH1 0x40 MLOAD DUP1 SWAP2 SUB SWAP1 REVERT JUMPDEST DUP1 PUSH1 0x1 SLOAD LT ISZERO PUSH2 0x480 JUMPI PUSH1 0x40 MLOAD PUSH32 0x8C379A000000000000000000000000000000000000000000000000000000000 DUP2 MSTORE PUSH1 0x4 ADD PUSH2 0x477 SWAP1 PUSH2 0xFCA JUMP JUMPDEST PUSH1 0x40 MLOAD DUP1 SWAP2 SUB SWAP1 REVERT JUMPDEST DUP1 PUSH1 0x1 PUSH0 DUP3 DUP3 SLOAD PUSH2 0x491 SWAP2 SWAP1 PUSH2 0x1015 JUMP JUMPDEST SWAP3 POP POP DUP2 SWAP1 SSTORE POP DUP1 PUSH1 0x3 PUSH0 DUP3 DUP3 SLOAD PUSH2 0x4A9 SWAP2 SWAP1 PUSH2 0x1048 JUMP JUMPDEST SWAP3 POP POP DUP2 SWAP1 SSTORE POP POP JUMP JUMPDEST PUSH0 DUP2 DUP1 MLOAD SWAP1 PUSH1 0x20 ADD KECCAK256 PUSH0 PUSH1 0x40 MLOAD PUSH2 0x4CA SWAP2 SWAP1 PUSH2 0x1124 JUMP JUMPDEST PUSH1 0x40 MLOAD DUP1 SWAP2 SUB SWAP1 KECCAK256 EQ SWAP1 POP SWAP2 SWAP1 POP JUMP JUMPDEST PUSH1 0x60 PUSH0 PUSH0 PUSH0 PUSH0 PUSH1 0x1 SLOAD PUSH1 0x3 SLOAD PUSH1 0x2 PUSH0 SWAP1 SLOAD SWAP1 PUSH2 0x100 EXP SWAP1 DIV PUSH1 0xFF AND DUP4 DUP1 SLOAD PUSH2 0x501 SWAP1 PUSH2 0xBE4 JUMP JUMPDEST DUP1 PUSH1 0x1F ADD PUSH1 0x20 DUP1 SWAP2 DIV MUL PUSH1 0x20 ADD PUSH1 0x40 MLOAD SWAP1 DUP2 ADD PUSH1 0x40 MSTORE DUP1 SWAP3 SWAP2 SWAP1 DUP2 DUP2 MSTORE PUSH1 0x20 ADD DUP3 DUP1 SLOAD PUSH2 0x52D SWAP1 PUSH2 0xBE4 JUMP JUMPDEST DUP1 ISZERO PUSH2 0x578 JUMPI DUP1 PUSH1 0x1F LT PUSH2 0x54F JUMPI PUSH2 0x100 DUP1 DUP4 SLOAD DIV MUL DUP4 MSTORE SWAP2 PUSH1 0x20 ADD SWAP2 PUSH2 0x578 JUMP JUMPDEST DUP3 ADD SWAP2 SWAP1 PUSH0 MSTORE PUSH1 0x20 PUSH0 KECCAK256 SWAP1 JUMPDEST DUP2 SLOAD DUP2 MSTORE SWAP1 PUSH1 0x1 ADD SWAP1 PUSH1 0x20 ADD DUP1 DUP4 GT PUSH2 0x55B JUMPI DUP3 SWAP1 SUB PUSH1 0x1F AND DUP3 ADD SWAP2 JUMPDEST POP POP POP POP POP SWAP4 POP SWAP4 POP SWAP4 POP SWAP4 POP SWAP4 POP SWAP1 SWAP2 SWAP3 SWAP4 JUMP JUMPDEST PUSH0 DUP1 SLOAD PUSH2 0x599 SWAP1 PUSH2 0xBE4 JUMP JUMPDEST DUP1 PUSH1 0x1F ADD PUSH1 0x20 DUP1 SWAP2 DIV MUL PUSH1 0x20 ADD PUSH1 0x40 MLOAD SWAP1 DUP2 ADD PUSH1 0x40 MSTORE DUP1 SWAP3 SWAP2 SWAP1 DUP2 DUP2 MSTORE PUSH1 0x20 ADD DUP3 DUP1 SLOAD PUSH2 0x5C5 SWAP1 PUSH2 0xBE4 JUMP JUMPDEST DUP1 ISZERO PUSH2 0x610 JUMPI DUP1 PUSH1 0x1F LT PUSH2 0x5E7 JUMPI PUSH2 0x100 DUP1 DUP4 SLOAD DIV MUL DUP4 MSTORE SWAP2 PUSH1 0x20 ADD SWAP2 PUSH2 0x610 JUMP JUMPDEST DUP3 ADD SWAP2 SWAP1 PUSH0 MSTORE PUSH1 0x20 PUSH0 KECCAK256 SWAP1 JUMPDEST DUP2 SLOAD DUP2 MSTORE SWAP1 PUSH1 0x1 ADD SWAP1 PUSH1 0x20 ADD DUP1 DUP4 GT PUSH2 0x5F3 JUMPI DUP3 SWAP1 SUB PUSH1 0x1F AND DUP3 ADD SWAP2 JUMPDEST POP POP POP POP POP DUP2 JUMP JUMPDEST PUSH1 0x3 SLOAD DUP2 JUMP JUMPDEST DUP1 PUSH1 0x4 SWAP1 DUP2 PUSH2 0x62D SWAP2 SWAP1 PUSH2 0x1192 JUMP JUMPDEST POP POP JUMP JUMPDEST PUSH1 0x4 DUP1 SLOAD PUSH2 0x63E SWAP1 PUSH2 0xBE4 JUMP JUMPDEST DUP1 PUSH1 0x1F ADD PUSH1 0x20 DUP1 SWAP2 DIV MUL PUSH1 0x20 ADD PUSH1 0x40 MLOAD SWAP1 DUP2 ADD PUSH1 0x40 MSTORE DUP1 SWAP3 SWAP2 SWAP1 DUP2 DUP2 MSTORE PUSH1 0x20 ADD DUP3 DUP1 SLOAD PUSH2 0x66A SWAP1 PUSH2 0xBE4 JUMP JUMPDEST DUP1 ISZERO PUSH2 0x6B5 JUMPI DUP1 PUSH1 0x1F LT PUSH2 0x68C JUMPI PUSH2 0x100 DUP1 DUP4 SLOAD DIV MUL DUP4 MSTORE SWAP2 PUSH1 0x20 ADD SWAP2 PUSH2 0x6B5 JUMP JUMPDEST DUP3 ADD SWAP2 SWAP1 PUSH0 MSTORE PUSH1 0x20 PUSH0 KECCAK256 SWAP1 JUMPDEST DUP2 SLOAD DUP2 MSTORE SWAP1 PUSH1 0x1 ADD SWAP1 PUSH1 0x20 ADD DUP1 DUP4 GT PUSH2 0x698 JUMPI DUP3 SWAP1 SUB PUSH1 0x1F AND DUP3 ADD SWAP2 JUMPDEST POP POP POP POP POP DUP2 JUMP JUMPDEST PUSH1 0x1 PUSH1 0x2 PUSH0 PUSH2 0x100 EXP DUP2 SLOAD DUP2 PUSH1 0xFF MUL NOT AND SWAP1 DUP4 ISZERO ISZERO MUL OR SWAP1 SSTORE POP JUMP JUMPDEST PUSH0 PUSH1 0x4 DUP1 SLOAD PUSH2 0x6E7 SWAP1 PUSH2 0xBE4 JUMP JUMPDEST SWAP1 POP SWAP1 POP SWAP1 JUMP JUMPDEST PUSH0 PUSH1 0x2 PUSH0 SWAP1 SLOAD SWAP1 PUSH2 0x100 EXP SWAP1 DIV PUSH1 0xFF AND SWAP1 POP SWAP1 JUMP JUMPDEST PUSH1 0x2 PUSH0 SWAP1 SLOAD SWAP1 PUSH2 0x100 EXP SWAP1 DIV PUSH1 0xFF AND PUSH2 0x751 JUMPI PUSH1 0x40 MLOAD PUSH32 0x8C379A000000000000000000000000000000000000000000000000000000000 DUP2 MSTORE PUSH1 0x4 ADD PUSH2 0x748 SWAP1 PUSH2 0xF62 JUMP JUMPDEST PUSH1 0x40 MLOAD DUP1 SWAP2 SUB SWAP1 REVERT JUMPDEST DUP1 PUSH1 0x1 PUSH0 DUP3 DUP3 SLOAD PUSH2 0x762 SWAP2 SWAP1 PUSH2 0x1261 JUMP JUMPDEST SWAP3 POP POP DUP2 SWAP1 SSTORE POP DUP1 PUSH1 0x3 PUSH0 DUP3 DUP3 SLOAD PUSH2 0x77A SWAP2 SWAP1 PUSH2 0x1294 JUMP JUMPDEST SWAP3 POP POP DUP2 SWAP1 SSTORE POP POP JUMP JUMPDEST PUSH0 PUSH0 DUP1 SLOAD PUSH2 0x791 SWAP1 PUSH2 0xBE4 JUMP JUMPDEST SWAP1 POP SWAP1 POP SWAP1 JUMP JUMPDEST PUSH1 0x2 PUSH0 SWAP1 SLOAD SWAP1 PUSH2 0x100 EXP SWAP1 DIV PUSH1 0xFF AND DUP2 JUMP JUMPDEST PUSH0 DUP2 SWAP1 POP SWAP2 SWAP1 POP JUMP JUMPDEST PUSH2 0x7BC DUP2 PUSH2 0x7AA JUMP JUMPDEST DUP3 MSTORE POP POP JUMP JUMPDEST PUSH0 PUSH1 0x20 DUP3 ADD SWAP1 POP PUSH2 0x7D5 PUSH0 DUP4 ADD DUP5 PUSH2 0x7B3 JUMP JUMPDEST SWAP3 SWAP2 POP POP JUMP JUMPDEST PUSH0 PUSH1 0x40 MLOAD SWAP1 POP SWAP1 JUMP JUMPDEST PUSH0 PUSH0 REVERT JUMPDEST PUSH0 PUSH0 REVERT JUMPDEST PUSH2 0x7F5 DUP2 PUSH2 0x7AA JUMP JUMPDEST DUP2 EQ PUSH2 0x7FF JUMPI PUSH0 PUSH0 REVERT JUMPDEST POP JUMP JUMPDEST PUSH0 DUP2 CALLDATALOAD SWAP1 POP PUSH2 0x810 DUP2 PUSH2 0x7EC JUMP JUMPDEST SWAP3 SWAP2 POP POP JUMP JUMPDEST PUSH0 PUSH1 0x20 DUP3 DUP5 SUB SLT ISZERO PUSH2 0x82B JUMPI PUSH2 0x82A PUSH2 0x7E4 JUMP JUMPDEST JUMPDEST PUSH0 PUSH2 0x838 DUP5 DUP3 DUP6 ADD PUSH2 0x802 JUMP JUMPDEST SWAP2 POP POP SWAP3 SWAP2 POP POP JUMP JUMPDEST PUSH0 PUSH32 0xFF00000000000000000000000000000000000000000000000000000000000000 DUP3 AND SWAP1 POP SWAP2 SWAP1 POP JUMP JUMPDEST PUSH2 0x875 DUP2 PUSH2 0x841 JUMP JUMPDEST DUP3 MSTORE POP POP JUMP JUMPDEST PUSH0 PUSH1 0x20 DUP3 ADD SWAP1 POP PUSH2 0x88E PUSH0 DUP4 ADD DUP5 PUSH2 0x86C JUMP JUMPDEST SWAP3 SWAP2 POP POP JUMP JUMPDEST PUSH0 PUSH0 REVERT JUMPDEST PUSH0 PUSH0 REVERT JUMPDEST PUSH0 PUSH1 0x1F NOT PUSH1 0x1F DUP4 ADD AND SWAP1 POP SWAP2 SWAP1 POP JUMP JUMPDEST PUSH32 0x4E487B7100000000000000000000000000000000000000000000000000000000 PUSH0 MSTORE PUSH1 0x41 PUSH1 0x4 MSTORE PUSH1 0x24 PUSH0 REVERT JUMPDEST PUSH2 0x8E2 DUP3 PUSH2 0x89C JUMP JUMPDEST DUP2 ADD DUP2 DUP2 LT PUSH8 0xFFFFFFFFFFFFFFFF DUP3 GT OR ISZERO PUSH2 0x901 JUMPI PUSH2 0x900 PUSH2 0x8AC JUMP JUMPDEST JUMPDEST DUP1 PUSH1 0x40 MSTORE POP POP POP JUMP JUMPDEST PUSH0 PUSH2 0x913 PUSH2 0x7DB JUMP JUMPDEST SWAP1 POP PUSH2 0x91F DUP3 DUP3 PUSH2 0x8D9 JUMP JUMPDEST SWAP2 SWAP1 POP JUMP JUMPDEST PUSH0 PUSH8 0xFFFFFFFFFFFFFFFF DUP3 GT ISZERO PUSH2 0x93E JUMPI PUSH2 0x93D PUSH2 0x8AC JUMP JUMPDEST JUMPDEST PUSH2 0x947 DUP3 PUSH2 0x89C JUMP JUMPDEST SWAP1 POP PUSH1 0x20 DUP2 ADD SWAP1 POP SWAP2 SWAP1 POP JUMP JUMPDEST DUP3 DUP2 DUP4 CALLDATACOPY PUSH0 DUP4 DUP4 ADD MSTORE POP POP POP JUMP JUMPDEST PUSH0 PUSH2 0x974 PUSH2 0x96F DUP5 PUSH2 0x924 JUMP JUMPDEST PUSH2 0x90A JUMP JUMPDEST SWAP1 POP DUP3 DUP2 MSTORE PUSH1 0x20 DUP2 ADD DUP5 DUP5 DUP5 ADD GT ISZERO PUSH2 0x990 JUMPI PUSH2 0x98F PUSH2 0x898 JUMP JUMPDEST JUMPDEST PUSH2 0x99B DUP5 DUP3 DUP6 PUSH2 0x954 JUMP JUMPDEST POP SWAP4 SWAP3 POP POP POP JUMP JUMPDEST PUSH0 DUP3 PUSH1 0x1F DUP4 ADD SLT PUSH2 0x9B7 JUMPI PUSH2 0x9B6 PUSH2 0x894 JUMP JUMPDEST JUMPDEST DUP2 CALLDATALOAD PUSH2 0x9C7 DUP5 DUP3 PUSH1 0x20 DUP7 ADD PUSH2 0x962 JUMP JUMPDEST SWAP2 POP POP SWAP3 SWAP2 POP POP JUMP JUMPDEST PUSH0 PUSH1 0x20 DUP3 DUP5 SUB SLT ISZERO PUSH2 0x9E5 JUMPI PUSH2 0x9E4 PUSH2 0x7E4 JUMP JUMPDEST JUMPDEST PUSH0 DUP3 ADD CALLDATALOAD PUSH8 0xFFFFFFFFFFFFFFFF DUP2 GT ISZERO PUSH2 0xA02 JUMPI PUSH2 0xA01 PUSH2 0x7E8 JUMP JUMPDEST JUMPDEST PUSH2 0xA0E DUP5 DUP3 DUP6 ADD PUSH2 0x9A3 JUMP JUMPDEST SWAP2 POP POP SWAP3 SWAP2 POP POP JUMP JUMPDEST PUSH0 DUP2 ISZERO ISZERO SWAP1 POP SWAP2 SWAP1 POP JUMP JUMPDEST PUSH2 0xA2B DUP2 PUSH2 0xA17 JUMP JUMPDEST DUP3 MSTORE POP POP JUMP JUMPDEST PUSH0 PUSH1 0x20 DUP3 ADD SWAP1 POP PUSH2 0xA44 PUSH0 DUP4 ADD DUP5 PUSH2 0xA22 JUMP JUMPDEST SWAP3 SWAP2 POP POP JUMP JUMPDEST PUSH0 DUP2 MLOAD SWAP1 POP SWAP2 SWAP1 POP JUMP JUMPDEST PUSH0 DUP3 DUP3 MSTORE PUSH1 0x20 DUP3 ADD SWAP1 POP SWAP3 SWAP2 POP POP JUMP JUMPDEST DUP3 DUP2 DUP4 MCOPY PUSH0 DUP4 DUP4 ADD MSTORE POP POP POP JUMP JUMPDEST PUSH0 PUSH2 0xA7C DUP3 PUSH2 0xA4A JUMP JUMPDEST PUSH2 0xA86 DUP2 DUP6 PUSH2 0xA54 JUMP JUMPDEST SWAP4 POP PUSH2 0xA96 DUP2 DUP6 PUSH1 0x20 DUP7 ADD PUSH2 0xA64 JUMP JUMPDEST PUSH2 0xA9F DUP2 PUSH2 0x89C JUMP JUMPDEST DUP5 ADD SWAP2 POP POP SWAP3 SWAP2 POP POP JUMP JUMPDEST PUSH0 DUP2 SWAP1 POP SWAP2 SWAP1 POP JUMP JUMPDEST PUSH2 0xABC DUP2 PUSH2 0xAAA JUMP JUMPDEST DUP3 MSTORE POP POP JUMP JUMPDEST PUSH0 PUSH1 0x80 DUP3 ADD SWAP1 POP DUP2 DUP2 SUB PUSH0 DUP4 ADD MSTORE PUSH2 0xADA DUP2 DUP8 PUSH2 0xA72 JUMP JUMPDEST SWAP1 POP PUSH2 0xAE9 PUSH1 0x20 DUP4 ADD DUP7 PUSH2 0x7B3 JUMP JUMPDEST PUSH2 0xAF6 PUSH1 0x40 DUP4 ADD DUP6 PUSH2 0xAB3 JUMP JUMPDEST PUSH2 0xB03 PUSH1 0x60 DUP4 ADD DUP5 PUSH2 0xA22 JUMP JUMPDEST SWAP6 SWAP5 POP POP POP POP POP JUMP JUMPDEST PUSH0 PUSH1 0x20 DUP3 ADD SWAP1 POP DUP2 DUP2 SUB PUSH0 DUP4 ADD MSTORE PUSH2 0xB24 DUP2 DUP5 PUSH2 0xA72 JUMP JUMPDEST SWAP1 POP SWAP3 SWAP2 POP POP JUMP JUMPDEST PUSH0 PUSH1 0x20 DUP3 ADD SWAP1 POP PUSH2 0xB3F PUSH0 DUP4 ADD DUP5 PUSH2 0xAB3 JUMP JUMPDEST SWAP3 SWAP2 POP POP JUMP JUMPDEST PUSH0 DUP2 MLOAD SWAP1 POP SWAP2 SWAP1 POP JUMP JUMPDEST PUSH0 DUP3 DUP3 MSTORE PUSH1 0x20 DUP3 ADD SWAP1 POP SWAP3 SWAP2 POP POP JUMP JUMPDEST PUSH0 PUSH2 0xB69 DUP3 PUSH2 0xB45 JUMP JUMPDEST PUSH2 0xB73 DUP2 DUP6 PUSH2 0xB4F JUMP JUMPDEST SWAP4 POP PUSH2 0xB83 DUP2 DUP6 PUSH1 0x20 DUP7 ADD PUSH2 0xA64 JUMP JUMPDEST PUSH2 0xB8C DUP2 PUSH2 0x89C JUMP JUMPDEST DUP5 ADD SWAP2 POP POP SWAP3 SWAP2 POP POP JUMP JUMPDEST PUSH0 PUSH1 0x20 DUP3 ADD SWAP1 POP DUP2 DUP2 SUB PUSH0 DUP4 ADD MSTORE PUSH2 0xBAF DUP2 DUP5 PUSH2 0xB5F JUMP JUMPDEST SWAP1 POP SWAP3 SWAP2 POP POP JUMP JUMPDEST PUSH32 0x4E487B7100000000000000000000000000000000000000000000000000000000 PUSH0 MSTORE PUSH1 0x22 PUSH1 0x4 MSTORE PUSH1 0x24 PUSH0 REVERT JUMPDEST PUSH0 PUSH1 0x2 DUP3 DIV SWAP1 POP PUSH1 0x1 DUP3 AND DUP1 PUSH2 0xBFB JUMPI PUSH1 0x7F DUP3 AND SWAP2 POP JUMPDEST PUSH1 0x20 DUP3 LT DUP2 SUB PUSH2 0xC0E JUMPI PUSH2 0xC0D PUSH2 0xBB7 JUMP JUMPDEST JUMPDEST POP SWAP2 SWAP1 POP JUMP JUMPDEST PUSH32 0x496E646578206F7574206F6620626F756E647300000000000000000000000000 PUSH0 DUP3 ADD MSTORE POP JUMP JUMPDEST PUSH0 PUSH2 0xC48 PUSH1 0x13 DUP4 PUSH2 0xA54 JUMP JUMPDEST SWAP2 POP PUSH2 0xC53 DUP3 PUSH2 0xC14 JUMP JUMPDEST PUSH1 0x20 DUP3 ADD SWAP1 POP SWAP2 SWAP1 POP JUMP JUMPDEST PUSH0 PUSH1 0x20 DUP3 ADD SWAP1 POP DUP2 DUP2 SUB PUSH0 DUP4 ADD MSTORE PUSH2 0xC75 DUP2 PUSH2 0xC3C JUMP JUMPDEST SWAP1 POP SWAP2 SWAP1 POP JUMP JUMPDEST PUSH32 0x4E487B7100000000000000000000000000000000000000000000000000000000 PUSH0 MSTORE PUSH1 0x32 PUSH1 0x4 MSTORE PUSH1 0x24 PUSH0 REVERT JUMPDEST PUSH0 DUP2 SWAP1 POP DUP2 PUSH0 MSTORE PUSH1 0x20 PUSH0 KECCAK256 SWAP1 POP SWAP2 SWAP1 POP JUMP JUMPDEST PUSH0 PUSH1 0x20 PUSH1 0x1F DUP4 ADD DIV SWAP1 POP SWAP2 SWAP1 POP JUMP JUMPDEST PUSH0 DUP3 DUP3 SHL SWAP1 POP SWAP3 SWAP2 POP POP JUMP JUMPDEST PUSH0 PUSH1 0x8 DUP4 MUL PUSH2 0xD05 PUSH32 0xFFFFFFFFFFFFFFFFFFFFFFFFFFFFFFFFFFFFFFFFFFFFFFFFFFFFFFFFFFFFFFFF DUP3 PUSH2 0xCCA JUMP JUMPDEST PUSH2 0xD0F DUP7 DUP4 PUSH2 0xCCA JUMP JUMPDEST SWAP6 POP DUP1 NOT DUP5 AND SWAP4 POP DUP1 DUP7 AND DUP5 OR SWAP3 POP POP POP SWAP4 SWAP3 POP POP POP JUMP JUMPDEST PUSH0 DUP2 SWAP1 POP SWAP2 SWAP1 POP JUMP JUMPDEST PUSH0 PUSH2 0xD4A PUSH2 0xD45 PUSH2 0xD40 DUP5 PUSH2 0x7AA JUMP JUMPDEST PUSH2 0xD27 JUMP JUMPDEST PUSH2 0x7AA JUMP JUMPDEST SWAP1 POP SWAP2 SWAP1 POP JUMP JUMPDEST PUSH0 DUP2 SWAP1 POP SWAP2 SWAP1 POP JUMP JUMPDEST PUSH2 0xD63 DUP4 PUSH2 0xD30 JUMP JUMPDEST PUSH2 0xD77 PUSH2 0xD6F DUP3 PUSH2 0xD51 JUMP JUMPDEST DUP5 DUP5 SLOAD PUSH2 0xCD6 JUMP JUMPDEST DUP3 SSTORE POP POP POP POP JUMP JUMPDEST PUSH0 PUSH0 SWAP1 POP SWAP1 JUMP JUMPDEST PUSH2 0xD8E PUSH2 0xD7F JUMP JUMPDEST PUSH2 0xD99 DUP2 DUP5 DUP5 PUSH2 0xD5A JUMP JUMPDEST POP POP POP JUMP JUMPDEST JUMPDEST DUP2 DUP2 LT ISZERO PUSH2 0xDBC JUMPI PUSH2 0xDB1 PUSH0 DUP3 PUSH2 0xD86 JUMP JUMPDEST PUSH1 0x1 DUP2 ADD SWAP1 POP PUSH2 0xD9F JUMP JUMPDEST POP POP JUMP JUMPDEST PUSH1 0x1F DUP3 GT ISZERO PUSH2 0xE01 JUMPI PUSH2 0xDD2 DUP2 PUSH2 0xCA9 JUMP JUMPDEST PUSH2 0xDDB DUP5 PUSH2 0xCBB JUMP JUMPDEST DUP2 ADD PUSH1 0x20 DUP6 LT ISZERO PUSH2 0xDEA JUMPI DUP2 SWAP1 POP JUMPDEST PUSH2 0xDFE PUSH2 0xDF6 DUP6 PUSH2 0xCBB JUMP JUMPDEST DUP4 ADD DUP3 PUSH2 0xD9E JUMP JUMPDEST POP POP JUMPDEST POP POP POP JUMP JUMPDEST PUSH0 DUP3 DUP3 SHR SWAP1 POP SWAP3 SWAP2 POP POP JUMP JUMPDEST PUSH0 PUSH2 0xE21 PUSH0 NOT DUP5 PUSH1 0x8 MUL PUSH2 0xE06 JUMP JUMPDEST NOT DUP1 DUP4 AND SWAP2 POP POP SWAP3 SWAP2 POP POP JUMP JUMPDEST PUSH0 PUSH2 0xE39 DUP4 DUP4 PUSH2 0xE12 JUMP JUMPDEST SWAP2 POP DUP3 PUSH1 0x2 MUL DUP3 OR SWAP1 POP SWAP3 SWAP2 POP POP JUMP JUMPDEST PUSH2 0xE52 DUP3 PUSH2 0xA4A JUMP JUMPDEST PUSH8 0xFFFFFFFFFFFFFFFF DUP2 GT ISZERO PUSH2 0xE6B JUMPI PUSH2 0xE6A PUSH2 0x8AC JUMP JUMPDEST JUMPDEST PUSH2 0xE75 DUP3 SLOAD PUSH2 0xBE4 JUMP JUMPDEST PUSH2 0xE80 DUP3 DUP3 DUP6 PUSH2 0xDC0 JUMP JUMPDEST PUSH0 PUSH1 0x20 SWAP1 POP PUSH1 0x1F DUP4 GT PUSH1 0x1 DUP2 EQ PUSH2 0xEB1 JUMPI PUSH0 DUP5 ISZERO PUSH2 0xE9F JUMPI DUP3 DUP8 ADD MLOAD SWAP1 POP JUMPDEST PUSH2 0xEA9 DUP6 DUP3 PUSH2 0xE2E JUMP JUMPDEST DUP7 SSTORE POP PUSH2 0xF10 JUMP JUMPDEST PUSH1 0x1F NOT DUP5 AND PUSH2 0xEBF DUP7 PUSH2 0xCA9 JUMP JUMPDEST PUSH0 JUMPDEST DUP3 DUP2 LT ISZERO PUSH2 0xEE6 JUMPI DUP5 DUP10 ADD MLOAD DUP3 SSTORE PUSH1 0x1 DUP3 ADD SWAP2 POP PUSH1 0x20 DUP6 ADD SWAP5 POP PUSH1 0x20 DUP2 ADD SWAP1 POP PUSH2 0xEC1 JUMP JUMPDEST DUP7 DUP4 LT ISZERO PUSH2 0xF03 JUMPI DUP5 DUP10 ADD MLOAD PUSH2 0xEFF PUSH1 0x1F DUP10 AND DUP3 PUSH2 0xE12 JUMP JUMPDEST DUP4 SSTORE POP JUMPDEST PUSH1 0x1 PUSH1 0x2 DUP9 MUL ADD DUP9 SSTORE POP POP POP JUMPDEST POP POP POP POP POP POP JUMP JUMPDEST PUSH32 0x5661756C7420697320636C6F7365640000000000000000000000000000000000 PUSH0 DUP3 ADD MSTORE POP JUMP JUMPDEST PUSH0 PUSH2 0xF4C PUSH1 0xF DUP4 PUSH2 0xA54 JUMP JUMPDEST SWAP2 POP PUSH2 0xF57 DUP3 PUSH2 0xF18 JUMP JUMPDEST PUSH1 0x20 DUP3 ADD SWAP1 POP SWAP2 SWAP1 POP JUMP JUMPDEST PUSH0 PUSH1 0x20 DUP3 ADD SWAP1 POP DUP2 DUP2 SUB PUSH0 DUP4 ADD MSTORE PUSH2 0xF79 DUP2 PUSH2 0xF40 JUMP JUMPDEST SWAP1 POP SWAP2 SWAP1 POP JUMP JUMPDEST PUSH32 0x496E73756666696369656E742062616C616E6365000000000000000000000000 PUSH0 DUP3 ADD MSTORE POP JUMP JUMPDEST PUSH0 PUSH2 0xFB4 PUSH1 0x14 DUP4 PUSH2 0xA54 JUMP JUMPDEST SWAP2 POP PUSH2 0xFBF DUP3 PUSH2 0xF80 JUMP JUMPDEST PUSH1 0x20 DUP3 ADD SWAP1 POP SWAP2 SWAP1 POP JUMP JUMPDEST PUSH0 PUSH1 0x20 DUP3 ADD SWAP1 POP DUP2 DUP2 SUB PUSH0 DUP4 ADD MSTORE PUSH2 0xFE1 DUP2 PUSH2 0xFA8 JUMP JUMPDEST SWAP1 POP SWAP2 SWAP1 POP JUMP JUMPDEST PUSH32 0x4E487B7100000000000000000000000000000000000000000000000000000000 PUSH0 MSTORE PUSH1 0x11 PUSH1 0x4 MSTORE PUSH1 0x24 PUSH0 REVERT JUMPDEST PUSH0 PUSH2 0x101F DUP3 PUSH2 0x7AA JUMP JUMPDEST SWAP2 POP PUSH2 0x102A DUP4 PUSH2 0x7AA JUMP JUMPDEST SWAP3 POP DUP3 DUP3 SUB SWAP1 POP DUP2 DUP2 GT ISZERO PUSH2 0x1042 JUMPI PUSH2 0x1041 PUSH2 0xFE8 JUMP JUMPDEST JUMPDEST SWAP3 SWAP2 POP POP JUMP JUMPDEST PUSH0 PUSH2 0x1052 DUP3 PUSH2 0xAAA JUMP JUMPDEST SWAP2 POP PUSH2 0x105D DUP4 PUSH2 0xAAA JUMP JUMPDEST SWAP3 POP DUP3 DUP3 SUB SWAP1 POP DUP2 DUP2 SLT PUSH0 DUP5 SLT AND DUP3 DUP3 SGT PUSH0 DUP6 SLT ISZERO AND OR ISZERO PUSH2 0x1082 JUMPI PUSH2 0x1081 PUSH2 0xFE8 JUMP JUMPDEST JUMPDEST SWAP3 SWAP2 POP POP JUMP JUMPDEST PUSH0 DUP2 SWAP1 POP SWAP3 SWAP2 POP POP JUMP JUMPDEST PUSH0 DUP2 SWAP1 POP DUP2 PUSH0 MSTORE PUSH1 0x20 PUSH0 KECCAK256 SWAP1 POP SWAP2 SWAP1 POP JUMP JUMPDEST PUSH0 DUP2 SLOAD PUSH2 0x10B0 DUP2 PUSH2 0xBE4 JUMP JUMPDEST PUSH2 0x10BA DUP2 DUP7 PUSH2 0x1088 JUMP JUMPDEST SWAP5 POP PUSH1 0x1 DUP3 AND PUSH0 DUP2 EQ PUSH2 0x10D4 JUMPI PUSH1 0x1 DUP2 EQ PUSH2 0x10E9 JUMPI PUSH2 0x111B JUMP JUMPDEST PUSH1 0xFF NOT DUP4 AND DUP7 MSTORE DUP2 ISZERO ISZERO DUP3 MUL DUP7 ADD SWAP4 POP PUSH2 0x111B JUMP JUMPDEST PUSH2 0x10F2 DUP6 PUSH2 0x1092 JUMP JUMPDEST PUSH0 JUMPDEST DUP4 DUP2 LT ISZERO PUSH2 0x1113 JUMPI DUP2 SLOAD DUP2 DUP10 ADD MSTORE PUSH1 0x1 DUP3 ADD SWAP2 POP PUSH1 0x20 DUP2 ADD SWAP1 POP PUSH2 0x10F4 JUMP JUMPDEST DUP4 DUP9 ADD SWAP6 POP POP POP JUMPDEST POP POP POP SWAP3 SWAP2 POP POP JUMP JUMPDEST PUSH0 PUSH2 0x112F DUP3 DUP5 PUSH2 0x10A4 JUMP JUMPDEST SWAP2 POP DUP2 SWAP1 POP SWAP3 SWAP2 POP POP JUMP JUMPDEST PUSH0 DUP2 SWAP1 POP DUP2 PUSH0 MSTORE PUSH1 0x20 PUSH0 KECCAK256 SWAP1 POP SWAP2 SWAP1 POP JUMP JUMPDEST PUSH1 0x1F DUP3 GT ISZERO PUSH2 0x118D JUMPI PUSH2 0x115E DUP2 PUSH2 0x113A JUMP JUMPDEST PUSH2 0x1167 DUP5 PUSH2 0xCBB JUMP JUMPDEST DUP2 ADD PUSH1 0x20 DUP6 LT ISZERO PUSH2 0x1176 JUMPI DUP2 SWAP1 POP JUMPDEST PUSH2 0x118A PUSH2 0x1182 DUP6 PUSH2 0xCBB JUMP JUMPDEST DUP4 ADD DUP3 PUSH2 0xD9E JUMP JUMPDEST POP POP JUMPDEST POP POP POP JUMP JUMPDEST PUSH2 0x119B DUP3 PUSH2 0xB45 JUMP JUMPDEST PUSH8 0xFFFFFFFFFFFFFFFF DUP2 GT ISZERO PUSH2 0x11B4 JUMPI PUSH2 0x11B3 PUSH2 0x8AC JUMP JUMPDEST JUMPDEST PUSH2 0x11BE DUP3 SLOAD PUSH2 0xBE4 JUMP JUMPDEST PUSH2 0x11C9 DUP3 DUP3 DUP6 PUSH2 0x114C JUMP JUMPDEST PUSH0 PUSH1 0x20 SWAP1 POP PUSH1 0x1F DUP4 GT PUSH1 0x1 DUP2 EQ PUSH2 0x11FA JUMPI PUSH0 DUP5 ISZERO PUSH2 0x11E8 JUMPI DUP3 DUP8 ADD MLOAD SWAP1 POP JUMPDEST PUSH2 0x11F2 DUP6 DUP3 PUSH2 0xE2E JUMP JUMPDEST DUP7 SSTORE POP PUSH2 0x1259 JUMP JUMPDEST PUSH1 0x1F NOT DUP5 AND PUSH2 0x1208 DUP7 PUSH2 0x113A JUMP JUMPDEST PUSH0 JUMPDEST DUP3 DUP2 LT ISZERO PUSH2 0x122F JUMPI DUP5 DUP10 ADD MLOAD DUP3 SSTORE PUSH1 0x1 DUP3 ADD SWAP2 POP PUSH1 0x20 DUP6 ADD SWAP5 POP PUSH1 0x20 DUP2 ADD SWAP1 POP PUSH2 0x120A JUMP JUMPDEST DUP7 DUP4 LT ISZERO PUSH2 0x124C JUMPI DUP5 DUP10 ADD MLOAD PUSH2 0x1248 PUSH1 0x1F DUP10 AND DUP3 PUSH2 0xE12 JUMP JUMPDEST DUP4 SSTORE POP JUMPDEST PUSH1 0x1 PUSH1 0x2 DUP9 MUL ADD DUP9 SSTORE POP POP POP JUMPDEST POP POP POP POP POP POP JUMP JUMPDEST PUSH0 PUSH2 0x126B DUP3 PUSH2 0x7AA JUMP JUMPDEST SWAP2 POP PUSH2 0x1276 DUP4 PUSH2 0x7AA JUMP JUMPDEST SWAP3 POP DUP3 DUP3 ADD SWAP1 POP DUP1 DUP3 GT ISZERO PUSH2 0x128E JUMPI PUSH2 0x128D PUSH2 0xFE8 JUMP JUMPDEST JUMPDEST SWAP3 SWAP2 POP POP JUMP JUMPDEST PUSH0 PUSH2 0x129E DUP3 PUSH2 0xAAA JUMP JUMPDEST SWAP2 POP PUSH2 0x12A9 DUP4 PUSH2 0xAAA JUMP JUMPDEST SWAP3 POP DUP3 DUP3 ADD SWAP1 POP DUP3 DUP2 SLT ISZERO PUSH0 DUP4 SLT AND DUP4 DUP3 SLT PUSH0 DUP5 SLT ISZERO AND OR ISZERO PUSH2 0x12CF JUMPI PUSH2 0x12CE PUSH2 0xFE8 JUMP JUMPDEST JUMPDEST SWAP3 SWAP2 POP POP JUMP INVALID LOG2 PUSH5 0x6970667358 0x22 SLT KECCAK256 0xF6 PUSH0 DUP13 0xAF BLOBBASEFEE SWAP16 0xA5 0xAB PUSH15 0x101A04B04DA90DF4BFE1B3B46CA987 0x2F 0xBD 0xDA SLOAD 0xE CALLF 0xB10F PUSH5 0x736F6C6343 STOP ADDMOD 0x1F STOP CALLER "
				},
				"gasEstimates": {
					"creation": {
						"codeDepositCost": "975000",
						"executionCost": "35304",
						"totalCost": "1010304"
					},
					"external": {
						"closeVault()": "24476",
						"deposit(uint256)": "infinite",
						"getLength()": "2651",
						"getSecretByte(uint256)": "infinite",
						"getSecretLength()": "2586",
						"getVaultDetails()": "infinite",
						"getVaultStatus()": "2517",
						"isVaultOpen()": "2576",
						"netTranscation()": "2448",
						"openVault()": "24498",
						"ownerName()": "infinite",
						"secretCode()": "infinite",
						"setOwnerName(string)": "infinite",
						"setSecret(string)": "infinite",
						"vaultBalance()": "2449",
						"verifyOwner(string)": "infinite",
						"withdraw(uint256)": "infinite"
					}
				},
				"methodIdentifiers": {
					"closeVault()": "18976fa2",
					"deposit(uint256)": "b6b55f25",
					"getLength()": "be1c766b",
					"getSecretByte(uint256)": "0dccd51e",
					"getSecretLength()": "9624b8a7",
					"getVaultDetails()": "533092ef",
					"getVaultStatus()": "aede67ea",
					"isVaultOpen()": "ec36d35e",
					"netTranscation()": "6729f7ec",
					"openVault()": "86f54712",
					"ownerName()": "65ac2320",
					"secretCode()": "7fd25e6f",
					"setOwnerName(string)": "295795e2",
					"setSecret(string)": "7ed6c926",
					"vaultBalance()": "0bf6cc08",
					"verifyOwner(string)": "3e116de5",
					"withdraw(uint256)": "2e1a7d4d"
				}
			},
			"storageLayout": {
				"storage": [
					{
						"astId": 3,
						"contract": "Class_3 (27.2.26)/1.DigitalVault.sol:DigitalVault",
						"label": "ownerName",
						"offset": 0,
						"slot": "0",
						"type": "t_string_storage"
					},
					{
						"astId": 5,
						"contract": "Class_3 (27.2.26)/1.DigitalVault.sol:DigitalVault",
						"label": "vaultBalance",
						"offset": 0,
						"slot": "1",
						"type": "t_uint256"
					},
					{
						"astId": 7,
						"contract": "Class_3 (27.2.26)/1.DigitalVault.sol:DigitalVault",
						"label": "isVaultOpen",
						"offset": 0,
						"slot": "2",
						"type": "t_bool"
					},
					{
						"astId": 9,
						"contract": "Class_3 (27.2.26)/1.DigitalVault.sol:DigitalVault",
						"label": "netTranscation",
						"offset": 0,
						"slot": "3",
						"type": "t_int256"
					},
					{
						"astId": 11,
						"contract": "Class_3 (27.2.26)/1.DigitalVault.sol:DigitalVault",
						"label": "secretCode",
						"offset": 0,
						"slot": "4",
						"type": "t_bytes_storage"
					}
				],
				"types": {
					"t_bool": {
						"encoding": "inplace",
						"label": "bool",
						"numberOfBytes": "1"
					},
					"t_bytes_storage": {
						"encoding": "bytes",
						"label": "bytes",
						"numberOfBytes": "32"
					},
					"t_int256": {
						"encoding": "inplace",
						"label": "int256",
						"numberOfBytes": "32"
					},
					"t_string_storage": {
						"encoding": "bytes",
						"label": "string",
						"numberOfBytes": "32"
					},
					"t_uint256": {
						"encoding": "inplace",
						"label": "uint256",
						"numberOfBytes": "32"
					}
				}
			},
			"userdoc": {
				"kind": "user",
				"methods": {},
				"version": 1
			}
		}
	}
}