{
	"Class_8 (20.3.26)/ifElse.sol": {
		"StudentDetail": {
			"abi": [
				{
					"inputs": [
						{
							"internalType": "uint256",
							"name": "_id",
							"type": "uint256"
						},
						{
							"internalType": "string",
							"name": "_name",
							"type": "string"
						},
						{
							"internalType": "uint256",
							"name": "_mark",
							"type": "uint256"
						}
					],
					"name": "addStudent",
					"outputs": [],
					"stateMutability": "nonpayable",
					"type": "function"
				},
				{
					"inputs": [
						{
							"internalType": "uint256",
							"name": "_id",
							"type": "uint256"
						}
					],
					"name": "getStudent",
					"outputs": [
						{
							"internalType": "string",
							"name": "",
							"type": "string"
						}
					],
					"stateMutability": "view",
					"type": "function"
				}
			],
			"devdoc": {
				"kind": "dev",
				"methods": {},
				"version": 1
			},
			"evm": {
				"assembly": "    /* \"Class_8 (20.3.26)/ifElse.sol\":60:524  contract StudentDetail{... */\n  mstore(0x40, 0x80)\n  callvalue\n  dup1\n  iszero\n  tag_1\n  jumpi\n  revert(0x00, 0x00)\ntag_1:\n  pop\n  dataSize(sub_0)\n  dup1\n  dataOffset(sub_0)\n  0x00\n  codecopy\n  0x00\n  return\nstop\n\nsub_0: assembly {\n        /* \"Class_8 (20.3.26)/ifElse.sol\":60:524  contract StudentDetail{... */\n      mstore(0x40, 0x80)\n      callvalue\n      dup1\n      iszero\n      tag_1\n      jumpi\n      revert(0x00, 0x00)\n    tag_1:\n      pop\n      jumpi(tag_2, lt(calldatasize, 0x04))\n      shr(0xe0, calldataload(0x00))\n      dup1\n      0x642f9163\n      eq\n      tag_3\n      jumpi\n      dup1\n      0xc1bea1db\n      eq\n      tag_4\n      jumpi\n    tag_2:\n      revert(0x00, 0x00)\n        /* \"Class_8 (20.3.26)/ifElse.sol\":323:521  function getStudent(uint _id) public view returns(string memory){... */\n    tag_3:\n      tag_5\n      0x04\n      dup1\n      calldatasize\n      sub\n      dup2\n      add\n      swap1\n      tag_6\n      swap2\n      swap1\n      tag_7\n      jump\t// in\n    tag_6:\n      tag_8\n      jump\t// in\n    tag_5:\n      mload(0x40)\n      tag_9\n      swap2\n      swap1\n      tag_10\n      jump\t// in\n    tag_9:\n      mload(0x40)\n      dup1\n      swap2\n      sub\n      swap1\n      return\n        /* \"Class_8 (20.3.26)/ifElse.sol\":194:317  function addStudent(uint _id, string memory _name, uint _mark) public {... */\n    tag_4:\n      tag_11\n      0x04\n      dup1\n      calldatasize\n      sub\n      dup2\n      add\n      swap1\n      tag_12\n      swap2\n      swap1\n      tag_13\n      jump\t// in\n    tag_12:\n      tag_14\n      jump\t// in\n    tag_11:\n      stop\n        /* \"Class_8 (20.3.26)/ifElse.sol\":323:521  function getStudent(uint _id) public view returns(string memory){... */\n    tag_8:\n        /* \"Class_8 (20.3.26)/ifElse.sol\":373:386  string memory */\n      0x60\n        /* \"Class_8 (20.3.26)/ifElse.sol\":417:419  50 */\n      0x32\n        /* \"Class_8 (20.3.26)/ifElse.sol\":401:403  S1 */\n      0x00\n        /* \"Class_8 (20.3.26)/ifElse.sol\":401:408  S1[_id] */\n      0x00\n        /* \"Class_8 (20.3.26)/ifElse.sol\":404:407  _id */\n      dup5\n        /* \"Class_8 (20.3.26)/ifElse.sol\":401:408  S1[_id] */\n      dup2\n      mstore\n      0x20\n      add\n      swap1\n      dup2\n      mstore\n      0x20\n      add\n      0x00\n      keccak256\n        /* \"Class_8 (20.3.26)/ifElse.sol\":401:413  S1[_id].mark */\n      0x02\n      add\n      sload\n        /* \"Class_8 (20.3.26)/ifElse.sol\":401:419  S1[_id].mark >= 50 */\n      lt\n        /* \"Class_8 (20.3.26)/ifElse.sol\":398:514  if(S1[_id].mark >= 50){... */\n      tag_16\n      jumpi\n        /* \"Class_8 (20.3.26)/ifElse.sol\":435:448  return \"Pass\" */\n      mload(0x40)\n      dup1\n      0x40\n      add\n      0x40\n      mstore\n      dup1\n      0x04\n      dup2\n      mstore\n      0x20\n      add\n      0x5061737300000000000000000000000000000000000000000000000000000000\n      dup2\n      mstore\n      pop\n      swap1\n      pop\n      jump(tag_15)\n        /* \"Class_8 (20.3.26)/ifElse.sol\":398:514  if(S1[_id].mark >= 50){... */\n    tag_16:\n        /* \"Class_8 (20.3.26)/ifElse.sol\":489:502  return \"Fail\" */\n      mload(0x40)\n      dup1\n      0x40\n      add\n      0x40\n      mstore\n      dup1\n      0x04\n      dup2\n      mstore\n      0x20\n      add\n      0x4661696c00000000000000000000000000000000000000000000000000000000\n      dup2\n      mstore\n      pop\n      swap1\n      pop\n        /* \"Class_8 (20.3.26)/ifElse.sol\":323:521  function getStudent(uint _id) public view returns(string memory){... */\n    tag_15:\n      swap2\n      swap1\n      pop\n      jump\t// out\n        /* \"Class_8 (20.3.26)/ifElse.sol\":194:317  function addStudent(uint _id, string memory _name, uint _mark) public {... */\n    tag_14:\n        /* \"Class_8 (20.3.26)/ifElse.sol\":285:309  Student(_id,_name,_mark) */\n      mload(0x40)\n      dup1\n      0x60\n      add\n      0x40\n      mstore\n      dup1\n        /* \"Class_8 (20.3.26)/ifElse.sol\":293:296  _id */\n      dup5\n        /* \"Class_8 (20.3.26)/ifElse.sol\":285:309  Student(_id,_name,_mark) */\n      dup2\n      mstore\n      0x20\n      add\n        /* \"Class_8 (20.3.26)/ifElse.sol\":297:302  _name */\n      dup4\n        /* \"Class_8 (20.3.26)/ifElse.sol\":285:309  Student(_id,_name,_mark) */\n      dup2\n      mstore\n      0x20\n      add\n        /* \"Class_8 (20.3.26)/ifElse.sol\":303:308  _mark */\n      dup3\n        /* \"Class_8 (20.3.26)/ifElse.sol\":285:309  Student(_id,_name,_mark) */\n      dup2\n      mstore\n      pop\n        /* \"Class_8 (20.3.26)/ifElse.sol\":275:277  S1 */\n      0x00\n        /* \"Class_8 (20.3.26)/ifElse.sol\":275:282  S1[_id] */\n      0x00\n        /* \"Class_8 (20.3.26)/ifElse.sol\":278:281  _id */\n      dup6\n        /* \"Class_8 (20.3.26)/ifElse.sol\":275:282  S1[_id] */\n      dup2\n      mstore\n      0x20\n      add\n      swap1\n      dup2\n      mstore\n      0x20\n      add\n      0x00\n      keccak256\n        /* \"Class_8 (20.3.26)/ifElse.sol\":275:309  S1[_id] = Student(_id,_name,_mark) */\n      0x00\n      dup3\n      add\n      mload\n      dup2\n      0x00\n      add\n      sstore\n      0x20\n      dup3\n      add\n      mload\n      dup2\n      0x01\n      add\n      swap1\n      dup2\n      tag_19\n      swap2\n      swap1\n      tag_20\n      jump\t// in\n    tag_19:\n      pop\n      0x40\n      dup3\n      add\n      mload\n      dup2\n      0x02\n      add\n      sstore\n      swap1\n      pop\n      pop\n        /* \"Class_8 (20.3.26)/ifElse.sol\":194:317  function addStudent(uint _id, string memory _name, uint _mark) public {... */\n      pop\n      pop\n      pop\n      jump\t// out\n        /* \"#utility.yul\":7:82   */\n    tag_21:\n        /* \"#utility.yul\":40:46   */\n      0x00\n        /* \"#utility.yul\":73:75   */\n      0x40\n        /* \"#utility.yul\":67:76   */\n      mload\n        /* \"#utility.yul\":57:76   */\n      swap1\n      pop\n        /* \"#utility.yul\":7:82   */\n      swap1\n      jump\t// out\n        /* \"#utility.yul\":88:205   */\n    tag_22:\n        /* \"#utility.yul\":197:198   */\n      0x00\n        /* \"#utility.yul\":194:195   */\n      0x00\n        /* \"#utility.yul\":187:199   */\n      revert\n        /* \"#utility.yul\":211:328   */\n    tag_23:\n        /* \"#utility.yul\":320:321   */\n      0x00\n        /* \"#utility.yul\":317:318   */\n      0x00\n        /* \"#utility.yul\":310:322   */\n      revert\n        /* \"#utility.yul\":334:411   */\n    tag_24:\n        /* \"#utility.yul\":371:378   */\n      0x00\n        /* \"#utility.yul\":400:405   */\n      dup2\n        /* \"#utility.yul\":389:405   */\n      swap1\n      pop\n        /* \"#utility.yul\":334:411   */\n      swap2\n      swap1\n      pop\n      jump\t// out\n        /* \"#utility.yul\":417:539   */\n    tag_25:\n        /* \"#utility.yul\":490:514   */\n      tag_64\n        /* \"#utility.yul\":508:513   */\n      dup2\n        /* \"#utility.yul\":490:514   */\n      tag_24\n      jump\t// in\n    tag_64:\n        /* \"#utility.yul\":483:488   */\n      dup2\n        /* \"#utility.yul\":480:515   */\n      eq\n        /* \"#utility.yul\":470:533   */\n      tag_65\n      jumpi\n        /* \"#utility.yul\":529:530   */\n      0x00\n        /* \"#utility.yul\":526:527   */\n      0x00\n        /* \"#utility.yul\":519:531   */\n      revert\n        /* \"#utility.yul\":470:533   */\n    tag_65:\n        /* \"#utility.yul\":417:539   */\n      pop\n      jump\t// out\n        /* \"#utility.yul\":545:684   */\n    tag_26:\n        /* \"#utility.yul\":591:596   */\n      0x00\n        /* \"#utility.yul\":629:635   */\n      dup2\n        /* \"#utility.yul\":616:636   */\n      calldataload\n        /* \"#utility.yul\":607:636   */\n      swap1\n      pop\n        /* \"#utility.yul\":645:678   */\n      tag_67\n        /* \"#utility.yul\":672:677   */\n      dup2\n        /* \"#utility.yul\":645:678   */\n      tag_25\n      jump\t// in\n    tag_67:\n        /* \"#utility.yul\":545:684   */\n      swap3\n      swap2\n      pop\n      pop\n      jump\t// out\n        /* \"#utility.yul\":690:1019   */\n    tag_7:\n        /* \"#utility.yul\":749:755   */\n      0x00\n        /* \"#utility.yul\":798:800   */\n      0x20\n        /* \"#utility.yul\":786:795   */\n      dup3\n        /* \"#utility.yul\":777:784   */\n      dup5\n        /* \"#utility.yul\":773:796   */\n      sub\n        /* \"#utility.yul\":769:801   */\n      slt\n        /* \"#utility.yul\":766:885   */\n      iszero\n      tag_69\n      jumpi\n        /* \"#utility.yul\":804:883   */\n      tag_70\n      tag_22\n      jump\t// in\n    tag_70:\n        /* \"#utility.yul\":766:885   */\n    tag_69:\n        /* \"#utility.yul\":924:925   */\n      0x00\n        /* \"#utility.yul\":949:1002   */\n      tag_71\n        /* \"#utility.yul\":994:1001   */\n      dup5\n        /* \"#utility.yul\":985:991   */\n      dup3\n        /* \"#utility.yul\":974:983   */\n      dup6\n        /* \"#utility.yul\":970:992   */\n      add\n        /* \"#utility.yul\":949:1002   */\n      tag_26\n      jump\t// in\n    tag_71:\n        /* \"#utility.yul\":939:1002   */\n      swap2\n      pop\n        /* \"#utility.yul\":895:1012   */\n      pop\n        /* \"#utility.yul\":690:1019   */\n      swap3\n      swap2\n      pop\n      pop\n      jump\t// out\n        /* \"#utility.yul\":1025:1124   */\n    tag_27:\n        /* \"#utility.yul\":1077:1083   */\n      0x00\n        /* \"#utility.yul\":1111:1116   */\n      dup2\n        /* \"#utility.yul\":1105:1117   */\n      mload\n        /* \"#utility.yul\":1095:1117   */\n      swap1\n      pop\n        /* \"#utility.yul\":1025:1124   */\n      swap2\n      swap1\n      pop\n      jump\t// out\n        /* \"#utility.yul\":1130:1299   */\n    tag_28:\n        /* \"#utility.yul\":1214:1225   */\n      0x00\n        /* \"#utility.yul\":1248:1254   */\n      dup3\n        /* \"#utility.yul\":1243:1246   */\n      dup3\n        /* \"#utility.yul\":1236:1255   */\n      mstore\n        /* \"#utility.yul\":1288:1292   */\n      0x20\n        /* \"#utility.yul\":1283:1286   */\n      dup3\n        /* \"#utility.yul\":1279:1293   */\n      add\n        /* \"#utility.yul\":1264:1293   */\n      swap1\n      pop\n        /* \"#utility.yul\":1130:1299   */\n      swap3\n      swap2\n      pop\n      pop\n      jump\t// out\n        /* \"#utility.yul\":1305:1444   */\n    tag_29:\n        /* \"#utility.yul\":1394:1400   */\n      dup3\n        /* \"#utility.yul\":1389:1392   */\n      dup2\n        /* \"#utility.yul\":1384:1387   */\n      dup4\n        /* \"#utility.yul\":1378:1401   */\n      mcopy\n        /* \"#utility.yul\":1435:1436   */\n      0x00\n        /* \"#utility.yul\":1426:1432   */\n      dup4\n        /* \"#utility.yul\":1421:1424   */\n      dup4\n        /* \"#utility.yul\":1417:1433   */\n      add\n        /* \"#utility.yul\":1410:1437   */\n      mstore\n        /* \"#utility.yul\":1305:1444   */\n      pop\n      pop\n      pop\n      jump\t// out\n        /* \"#utility.yul\":1450:1552   */\n    tag_30:\n        /* \"#utility.yul\":1491:1497   */\n      0x00\n        /* \"#utility.yul\":1542:1544   */\n      0x1f\n        /* \"#utility.yul\":1538:1545   */\n      not\n        /* \"#utility.yul\":1533:1535   */\n      0x1f\n        /* \"#utility.yul\":1526:1531   */\n      dup4\n        /* \"#utility.yul\":1522:1536   */\n      add\n        /* \"#utility.yul\":1518:1546   */\n      and\n        /* \"#utility.yul\":1508:1546   */\n      swap1\n      pop\n        /* \"#utility.yul\":1450:1552   */\n      swap2\n      swap1\n      pop\n      jump\t// out\n        /* \"#utility.yul\":1558:1935   */\n    tag_31:\n        /* \"#utility.yul\":1646:1649   */\n      0x00\n        /* \"#utility.yul\":1674:1713   */\n      tag_77\n        /* \"#utility.yul\":1707:1712   */\n      dup3\n        /* \"#utility.yul\":1674:1713   */\n      tag_27\n      jump\t// in\n    tag_77:\n        /* \"#utility.yul\":1729:1800   */\n      tag_78\n        /* \"#utility.yul\":1793:1799   */\n      dup2\n        /* \"#utility.yul\":1788:1791   */\n      dup6\n        /* \"#utility.yul\":1729:1800   */\n      tag_28\n      jump\t// in\n    tag_78:\n        /* \"#utility.yul\":1722:1800   */\n      swap4\n      pop\n        /* \"#utility.yul\":1809:1874   */\n      tag_79\n        /* \"#utility.yul\":1867:1873   */\n      dup2\n        /* \"#utility.yul\":1862:1865   */\n      dup6\n        /* \"#utility.yul\":1855:1859   */\n      0x20\n        /* \"#utility.yul\":1848:1853   */\n      dup7\n        /* \"#utility.yul\":1844:1860   */\n      add\n        /* \"#utility.yul\":1809:1874   */\n      tag_29\n      jump\t// in\n    tag_79:\n        /* \"#utility.yul\":1899:1928   */\n      tag_80\n        /* \"#utility.yul\":1921:1927   */\n      dup2\n        /* \"#utility.yul\":1899:1928   */\n      tag_30\n      jump\t// in\n    tag_80:\n        /* \"#utility.yul\":1894:1897   */\n      dup5\n        /* \"#utility.yul\":1890:1929   */\n      add\n        /* \"#utility.yul\":1883:1929   */\n      swap2\n      pop\n        /* \"#utility.yul\":1650:1935   */\n      pop\n        /* \"#utility.yul\":1558:1935   */\n      swap3\n      swap2\n      pop\n      pop\n      jump\t// out\n        /* \"#utility.yul\":1941:2254   */\n    tag_10:\n        /* \"#utility.yul\":2054:2058   */\n      0x00\n        /* \"#utility.yul\":2092:2094   */\n      0x20\n        /* \"#utility.yul\":2081:2090   */\n      dup3\n        /* \"#utility.yul\":2077:2095   */\n      add\n        /* \"#utility.yul\":2069:2095   */\n      swap1\n      pop\n        /* \"#utility.yul\":2141:2150   */\n      dup2\n        /* \"#utility.yul\":2135:2139   */\n      dup2\n        /* \"#utility.yul\":2131:2151   */\n      sub\n        /* \"#utility.yul\":2127:2128   */\n      0x00\n        /* \"#utility.yul\":2116:2125   */\n      dup4\n        /* \"#utility.yul\":2112:2129   */\n      add\n        /* \"#utility.yul\":2105:2152   */\n      mstore\n        /* \"#utility.yul\":2169:2247   */\n      tag_82\n        /* \"#utility.yul\":2242:2246   */\n      dup2\n        /* \"#utility.yul\":2233:2239   */\n      dup5\n        /* \"#utility.yul\":2169:2247   */\n      tag_31\n      jump\t// in\n    tag_82:\n        /* \"#utility.yul\":2161:2247   */\n      swap1\n      pop\n        /* \"#utility.yul\":1941:2254   */\n      swap3\n      swap2\n      pop\n      pop\n      jump\t// out\n        /* \"#utility.yul\":2260:2377   */\n    tag_32:\n        /* \"#utility.yul\":2369:2370   */\n      0x00\n        /* \"#utility.yul\":2366:2367   */\n      0x00\n        /* \"#utility.yul\":2359:2371   */\n      revert\n        /* \"#utility.yul\":2383:2500   */\n    tag_33:\n        /* \"#utility.yul\":2492:2493   */\n      0x00\n        /* \"#utility.yul\":2489:2490   */\n      0x00\n        /* \"#utility.yul\":2482:2494   */\n      revert\n        /* \"#utility.yul\":2506:2686   */\n    tag_34:\n        /* \"#utility.yul\":2554:2631   */\n      0x4e487b7100000000000000000000000000000000000000000000000000000000\n        /* \"#utility.yul\":2551:2552   */\n      0x00\n        /* \"#utility.yul\":2544:2632   */\n      mstore\n        /* \"#utility.yul\":2651:2655   */\n      0x41\n        /* \"#utility.yul\":2648:2649   */\n      0x04\n        /* \"#utility.yul\":2641:2656   */\n      mstore\n        /* \"#utility.yul\":2675:2679   */\n      0x24\n        /* \"#utility.yul\":2672:2673   */\n      0x00\n        /* \"#utility.yul\":2665:2680   */\n      revert\n        /* \"#utility.yul\":2692:2973   */\n    tag_35:\n        /* \"#utility.yul\":2775:2802   */\n      tag_87\n        /* \"#utility.yul\":2797:2801   */\n      dup3\n        /* \"#utility.yul\":2775:2802   */\n      tag_30\n      jump\t// in\n    tag_87:\n        /* \"#utility.yul\":2767:2773   */\n      dup2\n        /* \"#utility.yul\":2763:2803   */\n      add\n        /* \"#utility.yul\":2905:2911   */\n      dup2\n        /* \"#utility.yul\":2893:2903   */\n      dup2\n        /* \"#utility.yul\":2890:2912   */\n      lt\n        /* \"#utility.yul\":2869:2887   */\n      0xffffffffffffffff\n        /* \"#utility.yul\":2857:2867   */\n      dup3\n        /* \"#utility.yul\":2854:2888   */\n      gt\n        /* \"#utility.yul\":2851:2913   */\n      or\n        /* \"#utility.yul\":2848:2936   */\n      iszero\n      tag_88\n      jumpi\n        /* \"#utility.yul\":2916:2934   */\n      tag_89\n      tag_34\n      jump\t// in\n    tag_89:\n        /* \"#utility.yul\":2848:2936   */\n    tag_88:\n        /* \"#utility.yul\":2956:2966   */\n      dup1\n        /* \"#utility.yul\":2952:2954   */\n      0x40\n        /* \"#utility.yul\":2945:2967   */\n      mstore\n        /* \"#utility.yul\":2735:2973   */\n      pop\n        /* \"#utility.yul\":2692:2973   */\n      pop\n      pop\n      jump\t// out\n        /* \"#utility.yul\":2979:3108   */\n    tag_36:\n        /* \"#utility.yul\":3013:3019   */\n      0x00\n        /* \"#utility.yul\":3040:3060   */\n      tag_91\n      tag_21\n      jump\t// in\n    tag_91:\n        /* \"#utility.yul\":3030:3060   */\n      swap1\n      pop\n        /* \"#utility.yul\":3069:3102   */\n      tag_92\n        /* \"#utility.yul\":3097:3101   */\n      dup3\n        /* \"#utility.yul\":3089:3095   */\n      dup3\n        /* \"#utility.yul\":3069:3102   */\n      tag_35\n      jump\t// in\n    tag_92:\n        /* \"#utility.yul\":2979:3108   */\n      swap2\n      swap1\n      pop\n      jump\t// out\n        /* \"#utility.yul\":3114:3422   */\n    tag_37:\n        /* \"#utility.yul\":3176:3180   */\n      0x00\n        /* \"#utility.yul\":3266:3284   */\n      0xffffffffffffffff\n        /* \"#utility.yul\":3258:3264   */\n      dup3\n        /* \"#utility.yul\":3255:3285   */\n      gt\n        /* \"#utility.yul\":3252:3308   */\n      iszero\n      tag_94\n      jumpi\n        /* \"#utility.yul\":3288:3306   */\n      tag_95\n      tag_34\n      jump\t// in\n    tag_95:\n        /* \"#utility.yul\":3252:3308   */\n    tag_94:\n        /* \"#utility.yul\":3326:3355   */\n      tag_96\n        /* \"#utility.yul\":3348:3354   */\n      dup3\n        /* \"#utility.yul\":3326:3355   */\n      tag_30\n      jump\t// in\n    tag_96:\n        /* \"#utility.yul\":3318:3355   */\n      swap1\n      pop\n        /* \"#utility.yul\":3410:3414   */\n      0x20\n        /* \"#utility.yul\":3404:3408   */\n      dup2\n        /* \"#utility.yul\":3400:3415   */\n      add\n        /* \"#utility.yul\":3392:3415   */\n      swap1\n      pop\n        /* \"#utility.yul\":3114:3422   */\n      swap2\n      swap1\n      pop\n      jump\t// out\n        /* \"#utility.yul\":3428:3576   */\n    tag_38:\n        /* \"#utility.yul\":3526:3532   */\n      dup3\n        /* \"#utility.yul\":3521:3524   */\n      dup2\n        /* \"#utility.yul\":3516:3519   */\n      dup4\n        /* \"#utility.yul\":3503:3533   */\n      calldatacopy\n        /* \"#utility.yul\":3567:3568   */\n      0x00\n        /* \"#utility.yul\":3558:3564   */\n      dup4\n        /* \"#utility.yul\":3553:3556   */\n      dup4\n        /* \"#utility.yul\":3549:3565   */\n      add\n        /* \"#utility.yul\":3542:3569   */\n      mstore\n        /* \"#utility.yul\":3428:3576   */\n      pop\n      pop\n      pop\n      jump\t// out\n        /* \"#utility.yul\":3582:4007   */\n    tag_39:\n        /* \"#utility.yul\":3660:3665   */\n      0x00\n        /* \"#utility.yul\":3685:3751   */\n      tag_99\n        /* \"#utility.yul\":3701:3750   */\n      tag_100\n        /* \"#utility.yul\":3743:3749   */\n      dup5\n        /* \"#utility.yul\":3701:3750   */\n      tag_37\n      jump\t// in\n    tag_100:\n        /* \"#utility.yul\":3685:3751   */\n      tag_36\n      jump\t// in\n    tag_99:\n        /* \"#utility.yul\":3676:3751   */\n      swap1\n      pop\n        /* \"#utility.yul\":3774:3780   */\n      dup3\n        /* \"#utility.yul\":3767:3772   */\n      dup2\n        /* \"#utility.yul\":3760:3781   */\n      mstore\n        /* \"#utility.yul\":3812:3816   */\n      0x20\n        /* \"#utility.yul\":3805:3810   */\n      dup2\n        /* \"#utility.yul\":3801:3817   */\n      add\n        /* \"#utility.yul\":3850:3853   */\n      dup5\n        /* \"#utility.yul\":3841:3847   */\n      dup5\n        /* \"#utility.yul\":3836:3839   */\n      dup5\n        /* \"#utility.yul\":3832:3848   */\n      add\n        /* \"#utility.yul\":3829:3854   */\n      gt\n        /* \"#utility.yul\":3826:3938   */\n      iszero\n      tag_101\n      jumpi\n        /* \"#utility.yul\":3857:3936   */\n      tag_102\n      tag_33\n      jump\t// in\n    tag_102:\n        /* \"#utility.yul\":3826:3938   */\n    tag_101:\n        /* \"#utility.yul\":3947:4001   */\n      tag_103\n        /* \"#utility.yul\":3994:4000   */\n      dup5\n        /* \"#utility.yul\":3989:3992   */\n      dup3\n        /* \"#utility.yul\":3984:3987   */\n      dup6\n        /* \"#utility.yul\":3947:4001   */\n      tag_38\n      jump\t// in\n    tag_103:\n        /* \"#utility.yul\":3666:4007   */\n      pop\n        /* \"#utility.yul\":3582:4007   */\n      swap4\n      swap3\n      pop\n      pop\n      pop\n      jump\t// out\n        /* \"#utility.yul\":4027:4367   */\n    tag_40:\n        /* \"#utility.yul\":4083:4088   */\n      0x00\n        /* \"#utility.yul\":4132:4135   */\n      dup3\n        /* \"#utility.yul\":4125:4129   */\n      0x1f\n        /* \"#utility.yul\":4117:4123   */\n      dup4\n        /* \"#utility.yul\":4113:4130   */\n      add\n        /* \"#utility.yul\":4109:4136   */\n      slt\n        /* \"#utility.yul\":4099:4221   */\n      tag_105\n      jumpi\n        /* \"#utility.yul\":4140:4219   */\n      tag_106\n      tag_32\n      jump\t// in\n    tag_106:\n        /* \"#utility.yul\":4099:4221   */\n    tag_105:\n        /* \"#utility.yul\":4257:4263   */\n      dup2\n        /* \"#utility.yul\":4244:4264   */\n      calldataload\n        /* \"#utility.yul\":4282:4361   */\n      tag_107\n        /* \"#utility.yul\":4357:4360   */\n      dup5\n        /* \"#utility.yul\":4349:4355   */\n      dup3\n        /* \"#utility.yul\":4342:4346   */\n      0x20\n        /* \"#utility.yul\":4334:4340   */\n      dup7\n        /* \"#utility.yul\":4330:4347   */\n      add\n        /* \"#utility.yul\":4282:4361   */\n      tag_39\n      jump\t// in\n    tag_107:\n        /* \"#utility.yul\":4273:4361   */\n      swap2\n      pop\n        /* \"#utility.yul\":4089:4367   */\n      pop\n        /* \"#utility.yul\":4027:4367   */\n      swap3\n      swap2\n      pop\n      pop\n      jump\t// out\n        /* \"#utility.yul\":4373:5172   */\n    tag_13:\n        /* \"#utility.yul\":4460:4466   */\n      0x00\n        /* \"#utility.yul\":4468:4474   */\n      0x00\n        /* \"#utility.yul\":4476:4482   */\n      0x00\n        /* \"#utility.yul\":4525:4527   */\n      0x60\n        /* \"#utility.yul\":4513:4522   */\n      dup5\n        /* \"#utility.yul\":4504:4511   */\n      dup7\n        /* \"#utility.yul\":4500:4523   */\n      sub\n        /* \"#utility.yul\":4496:4528   */\n      slt\n        /* \"#utility.yul\":4493:4612   */\n      iszero\n      tag_109\n      jumpi\n        /* \"#utility.yul\":4531:4610   */\n      tag_110\n      tag_22\n      jump\t// in\n    tag_110:\n        /* \"#utility.yul\":4493:4612   */\n    tag_109:\n        /* \"#utility.yul\":4651:4652   */\n      0x00\n        /* \"#utility.yul\":4676:4729   */\n      tag_111\n        /* \"#utility.yul\":4721:4728   */\n      dup7\n        /* \"#utility.yul\":4712:4718   */\n      dup3\n        /* \"#utility.yul\":4701:4710   */\n      dup8\n        /* \"#utility.yul\":4697:4719   */\n      add\n        /* \"#utility.yul\":4676:4729   */\n      tag_26\n      jump\t// in\n    tag_111:\n        /* \"#utility.yul\":4666:4729   */\n      swap4\n      pop\n        /* \"#utility.yul\":4622:4739   */\n      pop\n        /* \"#utility.yul\":4806:4808   */\n      0x20\n        /* \"#utility.yul\":4795:4804   */\n      dup5\n        /* \"#utility.yul\":4791:4809   */\n      add\n        /* \"#utility.yul\":4778:4810   */\n      calldataload\n        /* \"#utility.yul\":4837:4855   */\n      0xffffffffffffffff\n        /* \"#utility.yul\":4829:4835   */\n      dup2\n        /* \"#utility.yul\":4826:4856   */\n      gt\n        /* \"#utility.yul\":4823:4940   */\n      iszero\n      tag_112\n      jumpi\n        /* \"#utility.yul\":4859:4938   */\n      tag_113\n      tag_23\n      jump\t// in\n    tag_113:\n        /* \"#utility.yul\":4823:4940   */\n    tag_112:\n        /* \"#utility.yul\":4964:5027   */\n      tag_114\n        /* \"#utility.yul\":5019:5026   */\n      dup7\n        /* \"#utility.yul\":5010:5016   */\n      dup3\n        /* \"#utility.yul\":4999:5008   */\n      dup8\n        /* \"#utility.yul\":4995:5017   */\n      add\n        /* \"#utility.yul\":4964:5027   */\n      tag_40\n      jump\t// in\n    tag_114:\n        /* \"#utility.yul\":4954:5027   */\n      swap3\n      pop\n        /* \"#utility.yul\":4749:5037   */\n      pop\n        /* \"#utility.yul\":5076:5078   */\n      0x40\n        /* \"#utility.yul\":5102:5155   */\n      tag_115\n        /* \"#utility.yul\":5147:5154   */\n      dup7\n        /* \"#utility.yul\":5138:5144   */\n      dup3\n        /* \"#utility.yul\":5127:5136   */\n      dup8\n        /* \"#utility.yul\":5123:5145   */\n      add\n        /* \"#utility.yul\":5102:5155   */\n      tag_26\n      jump\t// in\n    tag_115:\n        /* \"#utility.yul\":5092:5155   */\n      swap2\n      pop\n        /* \"#utility.yul\":5047:5165   */\n      pop\n        /* \"#utility.yul\":4373:5172   */\n      swap3\n      pop\n      swap3\n      pop\n      swap3\n      jump\t// out\n        /* \"#utility.yul\":5178:5358   */\n    tag_41:\n        /* \"#utility.yul\":5226:5303   */\n      0x4e487b7100000000000000000000000000000000000000000000000000000000\n        /* \"#utility.yul\":5223:5224   */\n      0x00\n        /* \"#utility.yul\":5216:5304   */\n      mstore\n        /* \"#utility.yul\":5323:5327   */\n      0x22\n        /* \"#utility.yul\":5320:5321   */\n      0x04\n        /* \"#utility.yul\":5313:5328   */\n      mstore\n        /* \"#utility.yul\":5347:5351   */\n      0x24\n        /* \"#utility.yul\":5344:5345   */\n      0x00\n        /* \"#utility.yul\":5337:5352   */\n      revert\n        /* \"#utility.yul\":5364:5684   */\n    tag_42:\n        /* \"#utility.yul\":5408:5414   */\n      0x00\n        /* \"#utility.yul\":5445:5446   */\n      0x02\n        /* \"#utility.yul\":5439:5443   */\n      dup3\n        /* \"#utility.yul\":5435:5447   */\n      div\n        /* \"#utility.yul\":5425:5447   */\n      swap1\n      pop\n        /* \"#utility.yul\":5492:5493   */\n      0x01\n        /* \"#utility.yul\":5486:5490   */\n      dup3\n        /* \"#utility.yul\":5482:5494   */\n      and\n        /* \"#utility.yul\":5513:5531   */\n      dup1\n        /* \"#utility.yul\":5503:5584   */\n      tag_118\n      jumpi\n        /* \"#utility.yul\":5569:5573   */\n      0x7f\n        /* \"#utility.yul\":5561:5567   */\n      dup3\n        /* \"#utility.yul\":5557:5574   */\n      and\n        /* \"#utility.yul\":5547:5574   */\n      swap2\n      pop\n        /* \"#utility.yul\":5503:5584   */\n    tag_118:\n        /* \"#utility.yul\":5631:5633   */\n      0x20\n        /* \"#utility.yul\":5623:5629   */\n      dup3\n        /* \"#utility.yul\":5620:5634   */\n      lt\n        /* \"#utility.yul\":5600:5618   */\n      dup2\n        /* \"#utility.yul\":5597:5635   */\n      sub\n        /* \"#utility.yul\":5594:5678   */\n      tag_119\n      jumpi\n        /* \"#utility.yul\":5650:5668   */\n      tag_120\n      tag_41\n      jump\t// in\n    tag_120:\n        /* \"#utility.yul\":5594:5678   */\n    tag_119:\n        /* \"#utility.yul\":5415:5684   */\n      pop\n        /* \"#utility.yul\":5364:5684   */\n      swap2\n      swap1\n      pop\n      jump\t// out\n        /* \"#utility.yul\":5690:5831   */\n    tag_43:\n        /* \"#utility.yul\":5739:5743   */\n      0x00\n        /* \"#utility.yul\":5762:5765   */\n      dup2\n        /* \"#utility.yul\":5754:5765   */\n      swap1\n      pop\n        /* \"#utility.yul\":5785:5788   */\n      dup2\n        /* \"#utility.yul\":5782:5783   */\n      0x00\n        /* \"#utility.yul\":5775:5789   */\n      mstore\n        /* \"#utility.yul\":5819:5823   */\n      0x20\n        /* \"#utility.yul\":5816:5817   */\n      0x00\n        /* \"#utility.yul\":5806:5824   */\n      keccak256\n        /* \"#utility.yul\":5798:5824   */\n      swap1\n      pop\n        /* \"#utility.yul\":5690:5831   */\n      swap2\n      swap1\n      pop\n      jump\t// out\n        /* \"#utility.yul\":5837:5930   */\n    tag_44:\n        /* \"#utility.yul\":5874:5880   */\n      0x00\n        /* \"#utility.yul\":5921:5923   */\n      0x20\n        /* \"#utility.yul\":5916:5918   */\n      0x1f\n        /* \"#utility.yul\":5909:5914   */\n      dup4\n        /* \"#utility.yul\":5905:5919   */\n      add\n        /* \"#utility.yul\":5901:5924   */\n      div\n        /* \"#utility.yul\":5891:5924   */\n      swap1\n      pop\n        /* \"#utility.yul\":5837:5930   */\n      swap2\n      swap1\n      pop\n      jump\t// out\n        /* \"#utility.yul\":5936:6043   */\n    tag_45:\n        /* \"#utility.yul\":5980:5988   */\n      0x00\n        /* \"#utility.yul\":6030:6035   */\n      dup3\n        /* \"#utility.yul\":6024:6028   */\n      dup3\n        /* \"#utility.yul\":6020:6036   */\n      shl\n        /* \"#utility.yul\":5999:6036   */\n      swap1\n      pop\n        /* \"#utility.yul\":5936:6043   */\n      swap3\n      swap2\n      pop\n      pop\n      jump\t// out\n        /* \"#utility.yul\":6049:6442   */\n    tag_46:\n        /* \"#utility.yul\":6118:6124   */\n      0x00\n        /* \"#utility.yul\":6168:6169   */\n      0x08\n        /* \"#utility.yul\":6156:6166   */\n      dup4\n        /* \"#utility.yul\":6152:6170   */\n      mul\n        /* \"#utility.yul\":6191:6288   */\n      tag_125\n        /* \"#utility.yul\":6221:6287   */\n      0xffffffffffffffffffffffffffffffffffffffffffffffffffffffffffffffff\n        /* \"#utility.yul\":6210:6219   */\n      dup3\n        /* \"#utility.yul\":6191:6288   */\n      tag_45\n      jump\t// in\n    tag_125:\n        /* \"#utility.yul\":6309:6348   */\n      tag_126\n        /* \"#utility.yul\":6339:6347   */\n      dup7\n        /* \"#utility.yul\":6328:6337   */\n      dup4\n        /* \"#utility.yul\":6309:6348   */\n      tag_45\n      jump\t// in\n    tag_126:\n        /* \"#utility.yul\":6297:6348   */\n      swap6\n      pop\n        /* \"#utility.yul\":6381:6385   */\n      dup1\n        /* \"#utility.yul\":6377:6386   */\n      not\n        /* \"#utility.yul\":6370:6375   */\n      dup5\n        /* \"#utility.yul\":6366:6387   */\n      and\n        /* \"#utility.yul\":6357:6387   */\n      swap4\n      pop\n        /* \"#utility.yul\":6430:6434   */\n      dup1\n        /* \"#utility.yul\":6420:6428   */\n      dup7\n        /* \"#utility.yul\":6416:6435   */\n      and\n        /* \"#utility.yul\":6409:6414   */\n      dup5\n        /* \"#utility.yul\":6406:6436   */\n      or\n        /* \"#utility.yul\":6396:6436   */\n      swap3\n      pop\n        /* \"#utility.yul\":6125:6442   */\n      pop\n      pop\n        /* \"#utility.yul\":6049:6442   */\n      swap4\n      swap3\n      pop\n      pop\n      pop\n      jump\t// out\n        /* \"#utility.yul\":6448:6508   */\n    tag_47:\n        /* \"#utility.yul\":6476:6479   */\n      0x00\n        /* \"#utility.yul\":6497:6502   */\n      dup2\n        /* \"#utility.yul\":6490:6502   */\n      swap1\n      pop\n        /* \"#utility.yul\":6448:6508   */\n      swap2\n      swap1\n      pop\n      jump\t// out\n        /* \"#utility.yul\":6514:6656   */\n    tag_48:\n        /* \"#utility.yul\":6564:6573   */\n      0x00\n        /* \"#utility.yul\":6597:6650   */\n      tag_129\n        /* \"#utility.yul\":6615:6649   */\n      tag_130\n        /* \"#utility.yul\":6624:6648   */\n      tag_131\n        /* \"#utility.yul\":6642:6647   */\n      dup5\n        /* \"#utility.yul\":6624:6648   */\n      tag_24\n      jump\t// in\n    tag_131:\n        /* \"#utility.yul\":6615:6649   */\n      tag_47\n      jump\t// in\n    tag_130:\n        /* \"#utility.yul\":6597:6650   */\n      tag_24\n      jump\t// in\n    tag_129:\n        /* \"#utility.yul\":6584:6650   */\n      swap1\n      pop\n        /* \"#utility.yul\":6514:6656   */\n      swap2\n      swap1\n      pop\n      jump\t// out\n        /* \"#utility.yul\":6662:6737   */\n    tag_49:\n        /* \"#utility.yul\":6705:6708   */\n      0x00\n        /* \"#utility.yul\":6726:6731   */\n      dup2\n        /* \"#utility.yul\":6719:6731   */\n      swap1\n      pop\n        /* \"#utility.yul\":6662:6737   */\n      swap2\n      swap1\n      pop\n      jump\t// out\n        /* \"#utility.yul\":6743:7012   */\n    tag_50:\n        /* \"#utility.yul\":6853:6892   */\n      tag_134\n        /* \"#utility.yul\":6884:6891   */\n      dup4\n        /* \"#utility.yul\":6853:6892   */\n      tag_48\n      jump\t// in\n    tag_134:\n        /* \"#utility.yul\":6914:7005   */\n      tag_135\n        /* \"#utility.yul\":6963:7004   */\n      tag_136\n        /* \"#utility.yul\":6987:7003   */\n      dup3\n        /* \"#utility.yul\":6963:7004   */\n      tag_49\n      jump\t// in\n    tag_136:\n        /* \"#utility.yul\":6955:6961   */\n      dup5\n        /* \"#utility.yul\":6948:6952   */\n      dup5\n        /* \"#utility.yul\":6942:6953   */\n      sload\n        /* \"#utility.yul\":6914:7005   */\n      tag_46\n      jump\t// in\n    tag_135:\n        /* \"#utility.yul\":6908:6912   */\n      dup3\n        /* \"#utility.yul\":6901:7006   */\n      sstore\n        /* \"#utility.yul\":6819:7012   */\n      pop\n        /* \"#utility.yul\":6743:7012   */\n      pop\n      pop\n      pop\n      jump\t// out\n        /* \"#utility.yul\":7018:7091   */\n    tag_51:\n        /* \"#utility.yul\":7063:7066   */\n      0x00\n        /* \"#utility.yul\":7084:7085   */\n      0x00\n        /* \"#utility.yul\":7077:7085   */\n      swap1\n      pop\n        /* \"#utility.yul\":7018:7091   */\n      swap1\n      jump\t// out\n        /* \"#utility.yul\":7097:7286   */\n    tag_52:\n        /* \"#utility.yul\":7174:7206   */\n      tag_139\n      tag_51\n      jump\t// in\n    tag_139:\n        /* \"#utility.yul\":7215:7280   */\n      tag_140\n        /* \"#utility.yul\":7273:7279   */\n      dup2\n        /* \"#utility.yul\":7265:7271   */\n      dup5\n        /* \"#utility.yul\":7259:7263   */\n      dup5\n        /* \"#utility.yul\":7215:7280   */\n      tag_50\n      jump\t// in\n    tag_140:\n        /* \"#utility.yul\":7150:7286   */\n      pop\n        /* \"#utility.yul\":7097:7286   */\n      pop\n      pop\n      jump\t// out\n        /* \"#utility.yul\":7292:7478   */\n    tag_53:\n        /* \"#utility.yul\":7352:7472   */\n    tag_142:\n        /* \"#utility.yul\":7369:7372   */\n      dup2\n        /* \"#utility.yul\":7362:7367   */\n      dup2\n        /* \"#utility.yul\":7359:7373   */\n      lt\n        /* \"#utility.yul\":7352:7472   */\n      iszero\n      tag_144\n      jumpi\n        /* \"#utility.yul\":7423:7462   */\n      tag_145\n        /* \"#utility.yul\":7460:7461   */\n      0x00\n        /* \"#utility.yul\":7453:7458   */\n      dup3\n        /* \"#utility.yul\":7423:7462   */\n      tag_52\n      jump\t// in\n    tag_145:\n        /* \"#utility.yul\":7396:7397   */\n      0x01\n        /* \"#utility.yul\":7389:7394   */\n      dup2\n        /* \"#utility.yul\":7385:7398   */\n      add\n        /* \"#utility.yul\":7376:7398   */\n      swap1\n      pop\n        /* \"#utility.yul\":7352:7472   */\n      jump(tag_142)\n    tag_144:\n        /* \"#utility.yul\":7292:7478   */\n      pop\n      pop\n      jump\t// out\n        /* \"#utility.yul\":7484:8027   */\n    tag_54:\n        /* \"#utility.yul\":7585:7587   */\n      0x1f\n        /* \"#utility.yul\":7580:7583   */\n      dup3\n        /* \"#utility.yul\":7577:7588   */\n      gt\n        /* \"#utility.yul\":7574:8020   */\n      iszero\n      tag_147\n      jumpi\n        /* \"#utility.yul\":7619:7657   */\n      tag_148\n        /* \"#utility.yul\":7651:7656   */\n      dup2\n        /* \"#utility.yul\":7619:7657   */\n      tag_43\n      jump\t// in\n    tag_148:\n        /* \"#utility.yul\":7703:7732   */\n      tag_149\n        /* \"#utility.yul\":7721:7731   */\n      dup5\n        /* \"#utility.yul\":7703:7732   */\n      tag_44\n      jump\t// in\n    tag_149:\n        /* \"#utility.yul\":7693:7701   */\n      dup2\n        /* \"#utility.yul\":7689:7733   */\n      add\n        /* \"#utility.yul\":7886:7888   */\n      0x20\n        /* \"#utility.yul\":7874:7884   */\n      dup6\n        /* \"#utility.yul\":7871:7889   */\n      lt\n        /* \"#utility.yul\":7868:7917   */\n      iszero\n      tag_150\n      jumpi\n        /* \"#utility.yul\":7907:7915   */\n      dup2\n        /* \"#utility.yul\":7892:7915   */\n      swap1\n      pop\n        /* \"#utility.yul\":7868:7917   */\n    tag_150:\n        /* \"#utility.yul\":7930:8010   */\n      tag_151\n        /* \"#utility.yul\":7986:8008   */\n      tag_152\n        /* \"#utility.yul\":8004:8007   */\n      dup6\n        /* \"#utility.yul\":7986:8008   */\n      tag_44\n      jump\t// in\n    tag_152:\n        /* \"#utility.yul\":7976:7984   */\n      dup4\n        /* \"#utility.yul\":7972:8009   */\n      add\n        /* \"#utility.yul\":7959:7970   */\n      dup3\n        /* \"#utility.yul\":7930:8010   */\n      tag_53\n      jump\t// in\n    tag_151:\n        /* \"#utility.yul\":7589:8020   */\n      pop\n      pop\n        /* \"#utility.yul\":7574:8020   */\n    tag_147:\n        /* \"#utility.yul\":7484:8027   */\n      pop\n      pop\n      pop\n      jump\t// out\n        /* \"#utility.yul\":8033:8150   */\n    tag_55:\n        /* \"#utility.yul\":8087:8095   */\n      0x00\n        /* \"#utility.yul\":8137:8142   */\n      dup3\n        /* \"#utility.yul\":8131:8135   */\n      dup3\n        /* \"#utility.yul\":8127:8143   */\n      shr\n        /* \"#utility.yul\":8106:8143   */\n      swap1\n      pop\n        /* \"#utility.yul\":8033:8150   */\n      swap3\n      swap2\n      pop\n      pop\n      jump\t// out\n        /* \"#utility.yul\":8156:8325   */\n    tag_56:\n        /* \"#utility.yul\":8200:8206   */\n      0x00\n        /* \"#utility.yul\":8233:8284   */\n      tag_155\n        /* \"#utility.yul\":8281:8282   */\n      0x00\n        /* \"#utility.yul\":8277:8283   */\n      not\n        /* \"#utility.yul\":8269:8274   */\n      dup5\n        /* \"#utility.yul\":8266:8267   */\n      0x08\n        /* \"#utility.yul\":8262:8275   */\n      mul\n        /* \"#utility.yul\":8233:8284   */\n      tag_55\n      jump\t// in\n    tag_155:\n        /* \"#utility.yul\":8229:8285   */\n      not\n        /* \"#utility.yul\":8314:8318   */\n      dup1\n        /* \"#utility.yul\":8308:8312   */\n      dup4\n        /* \"#utility.yul\":8304:8319   */\n      and\n        /* \"#utility.yul\":8294:8319   */\n      swap2\n      pop\n        /* \"#utility.yul\":8207:8325   */\n      pop\n        /* \"#utility.yul\":8156:8325   */\n      swap3\n      swap2\n      pop\n      pop\n      jump\t// out\n        /* \"#utility.yul\":8330:8625   */\n    tag_57:\n        /* \"#utility.yul\":8406:8410   */\n      0x00\n        /* \"#utility.yul\":8552:8581   */\n      tag_157\n        /* \"#utility.yul\":8577:8580   */\n      dup4\n        /* \"#utility.yul\":8571:8575   */\n      dup4\n        /* \"#utility.yul\":8552:8581   */\n      tag_56\n      jump\t// in\n    tag_157:\n        /* \"#utility.yul\":8544:8581   */\n      swap2\n      pop\n        /* \"#utility.yul\":8614:8617   */\n      dup3\n        /* \"#utility.yul\":8611:8612   */\n      0x02\n        /* \"#utility.yul\":8607:8618   */\n      mul\n        /* \"#utility.yul\":8601:8605   */\n      dup3\n        /* \"#utility.yul\":8598:8619   */\n      or\n        /* \"#utility.yul\":8590:8619   */\n      swap1\n      pop\n        /* \"#utility.yul\":8330:8625   */\n      swap3\n      swap2\n      pop\n      pop\n      jump\t// out\n        /* \"#utility.yul\":8630:10025   */\n    tag_20:\n        /* \"#utility.yul\":8747:8784   */\n      tag_159\n        /* \"#utility.yul\":8780:8783   */\n      dup3\n        /* \"#utility.yul\":8747:8784   */\n      tag_27\n      jump\t// in\n    tag_159:\n        /* \"#utility.yul\":8849:8867   */\n      0xffffffffffffffff\n        /* \"#utility.yul\":8841:8847   */\n      dup2\n        /* \"#utility.yul\":8838:8868   */\n      gt\n        /* \"#utility.yul\":8835:8891   */\n      iszero\n      tag_160\n      jumpi\n        /* \"#utility.yul\":8871:8889   */\n      tag_161\n      tag_34\n      jump\t// in\n    tag_161:\n        /* \"#utility.yul\":8835:8891   */\n    tag_160:\n        /* \"#utility.yul\":8915:8953   */\n      tag_162\n        /* \"#utility.yul\":8947:8951   */\n      dup3\n        /* \"#utility.yul\":8941:8952   */\n      sload\n        /* \"#utility.yul\":8915:8953   */\n      tag_42\n      jump\t// in\n    tag_162:\n        /* \"#utility.yul\":9000:9067   */\n      tag_163\n        /* \"#utility.yul\":9060:9066   */\n      dup3\n        /* \"#utility.yul\":9052:9058   */\n      dup3\n        /* \"#utility.yul\":9046:9050   */\n      dup6\n        /* \"#utility.yul\":9000:9067   */\n      tag_54\n      jump\t// in\n    tag_163:\n        /* \"#utility.yul\":9094:9095   */\n      0x00\n        /* \"#utility.yul\":9118:9122   */\n      0x20\n        /* \"#utility.yul\":9105:9122   */\n      swap1\n      pop\n        /* \"#utility.yul\":9150:9152   */\n      0x1f\n        /* \"#utility.yul\":9142:9148   */\n      dup4\n        /* \"#utility.yul\":9139:9153   */\n      gt\n        /* \"#utility.yul\":9167:9168   */\n      0x01\n        /* \"#utility.yul\":9162:9780   */\n      dup2\n      eq\n      tag_165\n      jumpi\n        /* \"#utility.yul\":9824:9825   */\n      0x00\n        /* \"#utility.yul\":9841:9847   */\n      dup5\n        /* \"#utility.yul\":9838:9915   */\n      iszero\n      tag_166\n      jumpi\n        /* \"#utility.yul\":9890:9899   */\n      dup3\n        /* \"#utility.yul\":9885:9888   */\n      dup8\n        /* \"#utility.yul\":9881:9900   */\n      add\n        /* \"#utility.yul\":9875:9901   */\n      mload\n        /* \"#utility.yul\":9866:9901   */\n      swap1\n      pop\n        /* \"#utility.yul\":9838:9915   */\n    tag_166:\n        /* \"#utility.yul\":9941:10008   */\n      tag_167\n        /* \"#utility.yul\":10001:10007   */\n      dup6\n        /* \"#utility.yul\":9994:9999   */\n      dup3\n        /* \"#utility.yul\":9941:10008   */\n      tag_57\n      jump\t// in\n    tag_167:\n        /* \"#utility.yul\":9935:9939   */\n      dup7\n        /* \"#utility.yul\":9928:10009   */\n      sstore\n        /* \"#utility.yul\":9797:10019   */\n      pop\n        /* \"#utility.yul\":9132:10019   */\n      jump(tag_164)\n        /* \"#utility.yul\":9162:9780   */\n    tag_165:\n        /* \"#utility.yul\":9214:9218   */\n      0x1f\n        /* \"#utility.yul\":9210:9219   */\n      not\n        /* \"#utility.yul\":9202:9208   */\n      dup5\n        /* \"#utility.yul\":9198:9220   */\n      and\n        /* \"#utility.yul\":9248:9285   */\n      tag_168\n        /* \"#utility.yul\":9280:9284   */\n      dup7\n        /* \"#utility.yul\":9248:9285   */\n      tag_43\n      jump\t// in\n    tag_168:\n        /* \"#utility.yul\":9307:9308   */\n      0x00\n        /* \"#utility.yul\":9321:9529   */\n    tag_169:\n        /* \"#utility.yul\":9335:9342   */\n      dup3\n        /* \"#utility.yul\":9332:9333   */\n      dup2\n        /* \"#utility.yul\":9329:9343   */\n      lt\n        /* \"#utility.yul\":9321:9529   */\n      iszero\n      tag_171\n      jumpi\n        /* \"#utility.yul\":9414:9423   */\n      dup5\n        /* \"#utility.yul\":9409:9412   */\n      dup10\n        /* \"#utility.yul\":9405:9424   */\n      add\n        /* \"#utility.yul\":9399:9425   */\n      mload\n        /* \"#utility.yul\":9391:9397   */\n      dup3\n        /* \"#utility.yul\":9384:9426   */\n      sstore\n        /* \"#utility.yul\":9465:9466   */\n      0x01\n        /* \"#utility.yul\":9457:9463   */\n      dup3\n        /* \"#utility.yul\":9453:9467   */\n      add\n        /* \"#utility.yul\":9443:9467   */\n      swap2\n      pop\n        /* \"#utility.yul\":9512:9514   */\n      0x20\n        /* \"#utility.yul\":9501:9510   */\n      dup6\n        /* \"#utility.yul\":9497:9515   */\n      add\n        /* \"#utility.yul\":9484:9515   */\n      swap5\n      pop\n        /* \"#utility.yul\":9358:9362   */\n      0x20\n        /* \"#utility.yul\":9355:9356   */\n      dup2\n        /* \"#utility.yul\":9351:9363   */\n      add\n        /* \"#utility.yul\":9346:9363   */\n      swap1\n      pop\n        /* \"#utility.yul\":9321:9529   */\n      jump(tag_169)\n    tag_171:\n        /* \"#utility.yul\":9557:9563   */\n      dup7\n        /* \"#utility.yul\":9548:9555   */\n      dup4\n        /* \"#utility.yul\":9545:9564   */\n      lt\n        /* \"#utility.yul\":9542:9721   */\n      iszero\n      tag_172\n      jumpi\n        /* \"#utility.yul\":9615:9624   */\n      dup5\n        /* \"#utility.yul\":9610:9613   */\n      dup10\n        /* \"#utility.yul\":9606:9625   */\n      add\n        /* \"#utility.yul\":9600:9626   */\n      mload\n        /* \"#utility.yul\":9658:9706   */\n      tag_173\n        /* \"#utility.yul\":9700:9704   */\n      0x1f\n        /* \"#utility.yul\":9692:9698   */\n      dup10\n        /* \"#utility.yul\":9688:9705   */\n      and\n        /* \"#utility.yul\":9677:9686   */\n      dup3\n        /* \"#utility.yul\":9658:9706   */\n      tag_56\n      jump\t// in\n    tag_173:\n        /* \"#utility.yul\":9650:9656   */\n      dup4\n        /* \"#utility.yul\":9643:9707   */\n      sstore\n        /* \"#utility.yul\":9565:9721   */\n      pop\n        /* \"#utility.yul\":9542:9721   */\n    tag_172:\n        /* \"#utility.yul\":9767:9768   */\n      0x01\n        /* \"#utility.yul\":9763:9764   */\n      0x02\n        /* \"#utility.yul\":9755:9761   */\n      dup9\n        /* \"#utility.yul\":9751:9765   */\n      mul\n        /* \"#utility.yul\":9747:9769   */\n      add\n        /* \"#utility.yul\":9741:9745   */\n      dup9\n        /* \"#utility.yul\":9734:9770   */\n      sstore\n        /* \"#utility.yul\":9169:9780   */\n      pop\n      pop\n      pop\n        /* \"#utility.yul\":9132:10019   */\n    tag_164:\n      pop\n        /* \"#utility.yul\":8722:10025   */\n      pop\n      pop\n      pop\n        /* \"#utility.yul\":8630:10025   */\n      pop\n      pop\n      jump\t// out\n\n    auxdata: 0xa26469706673582212209db5f609b7c8d7892f25f6e2b56cd14d76527af6b3983bc637fbdb4ad3b1a9e264736f6c634300081f0033\n}\n",
				"bytecode": {
					"linkReferences": {},
					"object": "6080604052348015600e575f5ffd5b506107108061001c5f395ff3fe608060405234801561000f575f5ffd5b5060043610610034575f3560e01c8063642f916314610038578063c1bea1db14610068575b5f5ffd5b610052600480360381019061004d91906101bb565b610084565b60405161005f9190610256565b60405180910390f35b610082600480360381019061007d91906103a2565b61011c565b005b606060325f5f8481526020019081526020015f2060020154106100de576040518060400160405280600481526020017f50617373000000000000000000000000000000000000000000000000000000008152509050610117565b6040518060400160405280600481526020017f4661696c0000000000000000000000000000000000000000000000000000000081525090505b919050565b6040518060600160405280848152602001838152602001828152505f5f8581526020019081526020015f205f820151815f01556020820151816001019081610164919061060b565b5060408201518160020155905050505050565b5f604051905090565b5f5ffd5b5f5ffd5b5f819050919050565b61019a81610188565b81146101a4575f5ffd5b50565b5f813590506101b581610191565b92915050565b5f602082840312156101d0576101cf610180565b5b5f6101dd848285016101a7565b91505092915050565b5f81519050919050565b5f82825260208201905092915050565b8281835e5f83830152505050565b5f601f19601f8301169050919050565b5f610228826101e6565b61023281856101f0565b9350610242818560208601610200565b61024b8161020e565b840191505092915050565b5f6020820190508181035f83015261026e818461021e565b905092915050565b5f5ffd5b5f5ffd5b7f4e487b71000000000000000000000000000000000000000000000000000000005f52604160045260245ffd5b6102b48261020e565b810181811067ffffffffffffffff821117156102d3576102d261027e565b5b80604052505050565b5f6102e5610177565b90506102f182826102ab565b919050565b5f67ffffffffffffffff8211156103105761030f61027e565b5b6103198261020e565b9050602081019050919050565b828183375f83830152505050565b5f610346610341846102f6565b6102dc565b9050828152602081018484840111156103625761036161027a565b5b61036d848285610326565b509392505050565b5f82601f83011261038957610388610276565b5b8135610399848260208601610334565b91505092915050565b5f5f5f606084860312156103b9576103b8610180565b5b5f6103c6868287016101a7565b935050602084013567ffffffffffffffff8111156103e7576103e6610184565b5b6103f386828701610375565b9250506040610404868287016101a7565b9150509250925092565b7f4e487b71000000000000000000000000000000000000000000000000000000005f52602260045260245ffd5b5f600282049050600182168061045257607f821691505b6020821081036104655761046461040e565b5b50919050565b5f819050815f5260205f209050919050565b5f6020601f8301049050919050565b5f82821b905092915050565b5f600883026104c77fffffffffffffffffffffffffffffffffffffffffffffffffffffffffffffffff8261048c565b6104d1868361048c565b95508019841693508086168417925050509392505050565b5f819050919050565b5f61050c61050761050284610188565b6104e9565b610188565b9050919050565b5f819050919050565b610525836104f2565b61053961053182610513565b848454610498565b825550505050565b5f5f905090565b610550610541565b61055b81848461051c565b505050565b5b8181101561057e576105735f82610548565b600181019050610561565b5050565b601f8211156105c3576105948161046b565b61059d8461047d565b810160208510156105ac578190505b6105c06105b88561047d565b830182610560565b50505b505050565b5f82821c905092915050565b5f6105e35f19846008026105c8565b1980831691505092915050565b5f6105fb83836105d4565b9150826002028217905092915050565b610614826101e6565b67ffffffffffffffff81111561062d5761062c61027e565b5b610637825461043b565b610642828285610582565b5f60209050601f831160018114610673575f8415610661578287015190505b61066b85826105f0565b8655506106d2565b601f1984166106818661046b565b5f5b828110156106a857848901518255600182019150602085019450602081019050610683565b868310156106c557848901516106c1601f8916826105d4565b8355505b6001600288020188555050505b50505050505056fea26469706673582212209db5f609b7c8d7892f25f6e2b56cd14d76527af6b3983bc637fbdb4ad3b1a9e264736f6c634300081f0033",
					"opcodes": "PUSH1 0x80 PUSH1 0x40 MSTORE CALLVALUE DUP1 ISZERO PUSH1 0xE JUMPI PUSH0 PUSH0 REVERT JUMPDEST POP PUSH2 0x710 DUP1 PUSH2 0x1C PUSH0 CODECOPY PUSH0 RETURN INVALID PUSH1 0x80 PUSH1 0x40 MSTORE CALLVALUE DUP1 ISZERO PUSH2 0xF JUMPI PUSH0 PUSH0 REVERT JUMPDEST POP PUSH1 0x4 CALLDATASIZE LT PUSH2 0x34 JUMPI PUSH0 CALLDATALOAD PUSH1 0xE0 SHR DUP1 PUSH4 0x642F9163 EQ PUSH2 0x38 JUMPI DUP1 PUSH4 0xC1BEA1DB EQ PUSH2 0x68 JUMPI JUMPDEST PUSH0 PUSH0 REVERT JUMPDEST PUSH2 0x52 PUSH1 0x4 DUP1 CALLDATASIZE SUB DUP2 ADD SWAP1 PUSH2 0x4D SWAP2 SWAP1 PUSH2 0x1BB JUMP JUMPDEST PUSH2 0x84 JUMP JUMPDEST PUSH1 0x40 MLOAD PUSH2 0x5F SWAP2 SWAP1 PUSH2 0x256 JUMP JUMPDEST PUSH1 0x40 MLOAD DUP1 SWAP2 SUB SWAP1 RETURN JUMPDEST PUSH2 0x82 PUSH1 0x4 DUP1 CALLDATASIZE SUB DUP2 ADD SWAP1 PUSH2 0x7D SWAP2 SWAP1 PUSH2 0x3A2 JUMP JUMPDEST PUSH2 0x11C JUMP JUMPDEST STOP JUMPDEST PUSH1 0x60 PUSH1 0x32 PUSH0 PUSH0 DUP5 DUP2 MSTORE PUSH1 0x20 ADD SWAP1 DUP2 MSTORE PUSH1 0x20 ADD PUSH0 KECCAK256 PUSH1 0x2 ADD SLOAD LT PUSH2 0xDE JUMPI PUSH1 0x40 MLOAD DUP1 PUSH1 0x40 ADD PUSH1 0x40 MSTORE DUP1 PUSH1 0x4 DUP2 MSTORE PUSH1 0x20 ADD PUSH32 0x5061737300000000000000000000000000000000000000000000000000000000 DUP2 MSTORE POP SWAP1 POP PUSH2 0x117 JUMP JUMPDEST PUSH1 0x40 MLOAD DUP1 PUSH1 0x40 ADD PUSH1 0x40 MSTORE DUP1 PUSH1 0x4 DUP2 MSTORE PUSH1 0x20 ADD PUSH32 0x4661696C00000000000000000000000000000000000000000000000000000000 DUP2 MSTORE POP SWAP1 POP JUMPDEST SWAP2 SWAP1 POP JUMP JUMPDEST PUSH1 0x40 MLOAD DUP1 PUSH1 0x60 ADD PUSH1 0x40 MSTORE DUP1 DUP5 DUP2 MSTORE PUSH1 0x20 ADD DUP4 DUP2 MSTORE PUSH1 0x20 ADD DUP3 DUP2 MSTORE POP PUSH0 PUSH0 DUP6 DUP2 MSTORE PUSH1 0x20 ADD SWAP1 DUP2 MSTORE PUSH1 0x20 ADD PUSH0 KECCAK256 PUSH0 DUP3 ADD MLOAD DUP2 PUSH0 ADD SSTORE PUSH1 0x20 DUP3 ADD MLOAD DUP2 PUSH1 0x1 ADD SWAP1 DUP2 PUSH2 0x164 SWAP2 SWAP1 PUSH2 0x60B JUMP JUMPDEST POP PUSH1 0x40 DUP3 ADD MLOAD DUP2 PUSH1 0x2 ADD SSTORE SWAP1 POP POP POP POP POP JUMP JUMPDEST PUSH0 PUSH1 0x40 MLOAD SWAP1 POP SWAP1 JUMP JUMPDEST PUSH0 PUSH0 REVERT JUMPDEST PUSH0 PUSH0 REVERT JUMPDEST PUSH0 DUP2 SWAP1 POP SWAP2 SWAP1 POP JUMP JUMPDEST PUSH2 0x19A DUP2 PUSH2 0x188 JUMP JUMPDEST DUP2 EQ PUSH2 0x1A4 JUMPI PUSH0 PUSH0 REVERT JUMPDEST POP JUMP JUMPDEST PUSH0 DUP2 CALLDATALOAD SWAP1 POP PUSH2 0x1B5 DUP2 PUSH2 0x191 JUMP JUMPDEST SWAP3 SWAP2 POP POP JUMP JUMPDEST PUSH0 PUSH1 0x20 DUP3 DUP5 SUB SLT ISZERO PUSH2 0x1D0 JUMPI PUSH2 0x1CF PUSH2 0x180 JUMP JUMPDEST JUMPDEST PUSH0 PUSH2 0x1DD DUP5 DUP3 DUP6 ADD PUSH2 0x1A7 JUMP JUMPDEST SWAP2 POP POP SWAP3 SWAP2 POP POP JUMP JUMPDEST PUSH0 DUP2 MLOAD SWAP1 POP SWAP2 SWAP1 POP JUMP JUMPDEST PUSH0 DUP3 DUP3 MSTORE PUSH1 0x20 DUP3 ADD SWAP1 POP SWAP3 SWAP2 POP POP JUMP JUMPDEST DUP3 DUP2 DUP4 MCOPY PUSH0 DUP4 DUP4 ADD MSTORE POP POP POP JUMP JUMPDEST PUSH0 PUSH1 0x1F NOT PUSH1 0x1F DUP4 ADD AND SWAP1 POP SWAP2 SWAP1 POP JUMP JUMPDEST PUSH0 PUSH2 0x228 DUP3 PUSH2 0x1E6 JUMP JUMPDEST PUSH2 0x232 DUP2 DUP6 PUSH2 0x1F0 JUMP JUMPDEST SWAP4 POP PUSH2 0x242 DUP2 DUP6 PUSH1 0x20 DUP7 ADD PUSH2 0x200 JUMP JUMPDEST PUSH2 0x24B DUP2 PUSH2 0x20E JUMP JUMPDEST DUP5 ADD SWAP2 POP POP SWAP3 SWAP2 POP POP JUMP JUMPDEST PUSH0 PUSH1 0x20 DUP3 ADD SWAP1 POP DUP2 DUP2 SUB PUSH0 DUP4 ADD MSTORE PUSH2 0x26E DUP2 DUP5 PUSH2 0x21E JUMP JUMPDEST SWAP1 POP SWAP3 SWAP2 POP POP JUMP JUMPDEST PUSH0 PUSH0 REVERT JUMPDEST PUSH0 PUSH0 REVERT JUMPDEST PUSH32 0x4E487B7100000000000000000000000000000000000000000000000000000000 PUSH0 MSTORE PUSH1 0x41 PUSH1 0x4 MSTORE PUSH1 0x24 PUSH0 REVERT JUMPDEST PUSH2 0x2B4 DUP3 PUSH2 0x20E JUMP JUMPDEST DUP2 ADD DUP2 DUP2 LT PUSH8 0xFFFFFFFFFFFFFFFF DUP3 GT OR ISZERO PUSH2 0x2D3 JUMPI PUSH2 0x2D2 PUSH2 0x27E JUMP JUMPDEST JUMPDEST DUP1 PUSH1 0x40 MSTORE POP POP POP JUMP JUMPDEST PUSH0 PUSH2 0x2E5 PUSH2 0x177 JUMP JUMPDEST SWAP1 POP PUSH2 0x2F1 DUP3 DUP3 PUSH2 0x2AB JUMP JUMPDEST SWAP2 SWAP1 POP JUMP JUMPDEST PUSH0 PUSH8 0xFFFFFFFFFFFFFFFF DUP3 GT ISZERO PUSH2 0x310 JUMPI PUSH2 0x30F PUSH2 0x27E JUMP JUMPDEST JUMPDEST PUSH2 0x319 DUP3 PUSH2 0x20E JUMP JUMPDEST SWAP1 POP PUSH1 0x20 DUP2 ADD SWAP1 POP SWAP2 SWAP1 POP JUMP JUMPDEST DUP3 DUP2 DUP4 CALLDATACOPY PUSH0 DUP4 DUP4 ADD MSTORE POP POP POP JUMP JUMPDEST PUSH0 PUSH2 0x346 PUSH2 0x341 DUP5 PUSH2 0x2F6 JUMP JUMPDEST PUSH2 0x2DC JUMP JUMPDEST SWAP1 POP DUP3 DUP2 MSTORE PUSH1 0x20 DUP2 ADD DUP5 DUP5 DUP5 ADD GT ISZERO PUSH2 0x362 JUMPI PUSH2 0x361 PUSH2 0x27A JUMP JUMPDEST JUMPDEST PUSH2 0x36D DUP5 DUP3 DUP6 PUSH2 0x326 JUMP JUMPDEST POP SWAP4 SWAP3 POP POP POP JUMP JUMPDEST PUSH0 DUP3 PUSH1 0x1F DUP4 ADD SLT PUSH2 0x389 JUMPI PUSH2 0x388 PUSH2 0x276 JUMP JUMPDEST JUMPDEST DUP2 CALLDATALOAD PUSH2 0x399 DUP5 DUP3 PUSH1 0x20 DUP7 ADD PUSH2 0x334 JUMP JUMPDEST SWAP2 POP POP SWAP3 SWAP2 POP POP JUMP JUMPDEST PUSH0 PUSH0 PUSH0 PUSH1 0x60 DUP5 DUP7 SUB SLT ISZERO PUSH2 0x3B9 JUMPI PUSH2 0x3B8 PUSH2 0x180 JUMP JUMPDEST JUMPDEST PUSH0 PUSH2 0x3C6 DUP7 DUP3 DUP8 ADD PUSH2 0x1A7 JUMP JUMPDEST SWAP4 POP POP PUSH1 0x20 DUP5 ADD CALLDATALOAD PUSH8 0xFFFFFFFFFFFFFFFF DUP2 GT ISZERO PUSH2 0x3E7 JUMPI PUSH2 0x3E6 PUSH2 0x184 JUMP JUMPDEST JUMPDEST PUSH2 0x3F3 DUP7 DUP3 DUP8 ADD PUSH2 0x375 JUMP JUMPDEST SWAP3 POP POP PUSH1 0x40 PUSH2 0x404 DUP7 DUP3 DUP8 ADD PUSH2 0x1A7 JUMP JUMPDEST SWAP2 POP POP SWAP3 POP SWAP3 POP SWAP3 JUMP JUMPDEST PUSH32 0x4E487B7100000000000000000000000000000000000000000000000000000000 PUSH0 MSTORE PUSH1 0x22 PUSH1 0x4 MSTORE PUSH1 0x24 PUSH0 REVERT JUMPDEST PUSH0 PUSH1 0x2 DUP3 DIV SWAP1 POP PUSH1 0x1 DUP3 AND DUP1 PUSH2 0x452 JUMPI PUSH1 0x7F DUP3 AND SWAP2 POP JUMPDEST PUSH1 0x20 DUP3 LT DUP2 SUB PUSH2 0x465 JUMPI PUSH2 0x464 PUSH2 0x40E JUMP JUMPDEST JUMPDEST POP SWAP2 SWAP1 POP JUMP JUMPDEST PUSH0 DUP2 SWAP1 POP DUP2 PUSH0 MSTORE PUSH1 0x20 PUSH0 KECCAK256 SWAP1 POP SWAP2 SWAP1 POP JUMP JUMPDEST PUSH0 PUSH1 0x20 PUSH1 0x1F DUP4 ADD DIV SWAP1 POP SWAP2 SWAP1 POP JUMP JUMPDEST PUSH0 DUP3 DUP3 SHL SWAP1 POP SWAP3 SWAP2 POP POP JUMP JUMPDEST PUSH0 PUSH1 0x8 DUP4 MUL PUSH2 0x4C7 PUSH32 0xFFFFFFFFFFFFFFFFFFFFFFFFFFFFFFFFFFFFFFFFFFFFFFFFFFFFFFFFFFFFFFFF DUP3 PUSH2 0x48C JUMP JUMPDEST PUSH2 0x4D1 DUP7 DUP4 PUSH2 0x48C JUMP JUMPDEST SWAP6 POP DUP1 NOT DUP5 AND SWAP4 POP DUP1 DUP7 AND DUP5 OR SWAP3 POP POP POP SWAP4 SWAP3 POP POP POP JUMP JUMPDEST PUSH0 DUP2 SWAP1 POP SWAP2 SWAP1 POP JUMP JUMPDEST PUSH0 PUSH2 0x50C PUSH2 0x507 PUSH2 0x502 DUP5 PUSH2 0x188 JUMP JUMPDEST PUSH2 0x4E9 JUMP JUMPDEST PUSH2 0x188 JUMP JUMPDEST SWAP1 POP SWAP2 SWAP1 POP JUMP JUMPDEST PUSH0 DUP2 SWAP1 POP SWAP2 SWAP1 POP JUMP JUMPDEST PUSH2 0x525 DUP4 PUSH2 0x4F2 JUMP JUMPDEST PUSH2 0x539 PUSH2 0x531 DUP3 PUSH2 0x513 JUMP JUMPDEST DUP5 DUP5 SLOAD PUSH2 0x498 JUMP JUMPDEST DUP3 SSTORE POP POP POP POP JUMP JUMPDEST PUSH0 PUSH0 SWAP1 POP SWAP1 JUMP JUMPDEST PUSH2 0x550 PUSH2 0x541 JUMP JUMPDEST PUSH2 0x55B DUP2 DUP5 DUP5 PUSH2 0x51C JUMP JUMPDEST POP POP POP JUMP JUMPDEST JUMPDEST DUP2 DUP2 LT ISZERO PUSH2 0x57E JUMPI PUSH2 0x573 PUSH0 DUP3 PUSH2 0x548 JUMP JUMPDEST PUSH1 0x1 DUP2 ADD SWAP1 POP PUSH2 0x561 JUMP JUMPDEST POP POP JUMP JUMPDEST PUSH1 0x1F DUP3 GT ISZERO PUSH2 0x5C3 JUMPI PUSH2 0x594 DUP2 PUSH2 0x46B JUMP JUMPDEST PUSH2 0x59D DUP5 PUSH2 0x47D JUMP JUMPDEST DUP2 ADD PUSH1 0x20 DUP6 LT ISZERO PUSH2 0x5AC JUMPI DUP2 SWAP1 POP JUMPDEST PUSH2 0x5C0 PUSH2 0x5B8 DUP6 PUSH2 0x47D JUMP JUMPDEST DUP4 ADD DUP3 PUSH2 0x560 JUMP JUMPDEST POP POP JUMPDEST POP POP POP JUMP JUMPDEST PUSH0 DUP3 DUP3 SHR SWAP1 POP SWAP3 SWAP2 POP POP JUMP JUMPDEST PUSH0 PUSH2 0x5E3 PUSH0 NOT DUP5 PUSH1 0x8 MUL PUSH2 0x5C8 JUMP JUMPDEST NOT DUP1 DUP4 AND SWAP2 POP POP SWAP3 SWAP2 POP POP JUMP JUMPDEST PUSH0 PUSH2 0x5FB DUP4 DUP4 PUSH2 0x5D4 JUMP JUMPDEST SWAP2 POP DUP3 PUSH1 0x2 MUL DUP3 OR SWAP1 POP SWAP3 SWAP2 POP POP JUMP JUMPDEST PUSH2 0x614 DUP3 PUSH2 0x1E6 JUMP JUMPDEST PUSH8 0xFFFFFFFFFFFFFFFF DUP2 GT ISZERO PUSH2 0x62D JUMPI PUSH2 0x62C PUSH2 0x27E JUMP JUMPDEST JUMPDEST PUSH2 0x637 DUP3 SLOAD PUSH2 0x43B JUMP JUMPDEST PUSH2 0x642 DUP3 DUP3 DUP6 PUSH2 0x582 JUMP JUMPDEST PUSH0 PUSH1 0x20 SWAP1 POP PUSH1 0x1F DUP4 GT PUSH1 0x1 DUP2 EQ PUSH2 0x673 JUMPI PUSH0 DUP5 ISZERO PUSH2 0x661 JUMPI DUP3 DUP8 ADD MLOAD SWAP1 POP JUMPDEST PUSH2 0x66B DUP6 DUP3 PUSH2 0x5F0 JUMP JUMPDEST DUP7 SSTORE POP PUSH2 0x6D2 JUMP JUMPDEST PUSH1 0x1F NOT DUP5 AND PUSH2 0x681 DUP7 PUSH2 0x46B JUMP JUMPDEST PUSH0 JUMPDEST DUP3 DUP2 LT ISZERO PUSH2 0x6A8 JUMPI DUP5 DUP10 ADD MLOAD DUP3 SSTORE PUSH1 0x1 DUP3 ADD SWAP2 POP PUSH1 0x20 DUP6 ADD SWAP5 POP PUSH1 0x20 DUP2 ADD SWAP1 POP PUSH2 0x683 JUMP JUMPDEST DUP7 DUP4 LT ISZERO PUSH2 0x6C5 JUMPI DUP5 DUP10 ADD MLOAD PUSH2 0x6C1 PUSH1 0x1F DUP10 AND DUP3 PUSH2 0x5D4 JUMP JUMPDEST DUP4 SSTORE POP JUMPDEST PUSH1 0x1 PUSH1 0x2 DUP9 MUL ADD DUP9 SSTORE POP POP POP JUMPDEST POP POP POP POP POP POP JUMP INVALID LOG2 PUSH5 0x6970667358 0x22 SLT KECCAK256 SWAP14 0xB5 0xF6 MULMOD 0xB7 0xC8 0xD7 DUP10 0x2F 0x25 0xF6 0xE2 0xB5 PUSH13 0xD14D76527AF6B3983BC637FBDB BLOBBASEFEE 0xD3 0xB1 0xA9 0xE2 PUSH5 0x736F6C6343 STOP ADDMOD 0x1F STOP CALLER "
				},
				"gasEstimates": {
					"creation": {
						"codeDepositCost": "361600",
						"executionCost": "397",
						"totalCost": "361997"
					},
					"external": {
						"addStudent(uint256,string,uint256)": "infinite",
						"getStudent(uint256)": "infinite"
					}
				},
				"methodIdentifiers": {
					"addStudent(uint256,string,uint256)": "c1bea1db",
					"getStudent(uint256)": "642f9163"
				}
			},
			"storageLayout": {
				"storage": [
					{
						"astId": 13,
						"contract": "Class_8 (20.3.26)/ifElse.sol:StudentDetail",
						"label": "S1",
						"offset": 0,
						"slot": "0",
						"type": "t_mapping(t_uint256,t_struct(Student)8_storage)"
					}
				],
				"types": {
					"t_mapping(t_uint256,t_struct(Student)8_storage)": {
						"encoding": "mapping",
						"key": "t_uint256",
						"label": "mapping(uint256 => struct StudentDetail.Student)",
						"numberOfBytes": "32",
						"value": "t_struct(Student)8_storage"
					},
					"t_string_storage": {
						"encoding": "bytes",
						"label": "string",
						"numberOfBytes": "32"
					},
					"t_struct(Student)8_storage": {
						"encoding": "inplace",
						"label": "struct StudentDetail.Student",
						"members": [
							{
								"astId": 3,
								"contract": "Class_8 (20.3.26)/ifElse.sol:StudentDetail",
								"label": "id",
								"offset": 0,
								"slot": "0",
								"type": "t_uint256"
							},
							{
								"astId": 5,
								"contract": "Class_8 (20.3.26)/ifElse.sol:StudentDetail",
								"label": "name",
								"offset": 0,
								"slot": "1",
								"type": "t_string_storage"
							},
							{
								"astId": 7,
								"contract": "Class_8 (20.3.26)/ifElse.sol:StudentDetail",
								"label": "mark",
								"offset": 0,
								"slot": "2",
								"type": "t_uint256"
							}
						],
						"numberOfBytes": "96"
					},
					"t_uint256": {
						"encoding": "inplace",
						"label": "uint256",
						"numberOfBytes": "32"
					}
				}
			},
			"userdoc": {
				"kind": "user",
				"methods": {},
				"version": 1
			}
		}
	}
}