{
	"Class_Practice/intUintEx.sol": {
		"IntegerExample": {
			"abi": [
				{
					"inputs": [],
					"stateMutability": "nonpayable",
					"type": "constructor"
				},
				{
					"inputs": [],
					"name": "TotalAmount",
					"outputs": [
						{
							"internalType": "int256",
							"name": "",
							"type": "int256"
						}
					],
					"stateMutability": "view",
					"type": "function"
				},
				{
					"inputs": [],
					"name": "balance",
					"outputs": [
						{
							"internalType": "uint256",
							"name": "",
							"type": "uint256"
						}
					],
					"stateMutability": "view",
					"type": "function"
				},
				{
					"inputs": [
						{
							"internalType": "uint256",
							"name": "amount",
							"type": "uint256"
						}
					],
					"name": "deposit",
					"outputs": [],
					"stateMutability": "nonpayable",
					"type": "function"
				},
				{
					"inputs": [],
					"name": "getValues",
					"outputs": [
						{
							"internalType": "uint256",
							"name": "",
							"type": "uint256"
						},
						{
							"internalType": "int256",
							"name": "",
							"type": "int256"
						},
						{
							"internalType": "int256",
							"name": "",
							"type": "int256"
						}
					],
					"stateMutability": "view",
					"type": "function"
				},
				{
					"inputs": [],
					"name": "profitOrLoss",
					"outputs": [
						{
							"internalType": "int256",
							"name": "",
							"type": "int256"
						}
					],
					"stateMutability": "view",
					"type": "function"
				},
				{
					"inputs": [],
					"name": "sum",
					"outputs": [],
					"stateMutability": "nonpayable",
					"type": "function"
				},
				{
					"inputs": [
						{
							"internalType": "int256",
							"name": "amount",
							"type": "int256"
						}
					],
					"name": "updateProfit",
					"outputs": [],
					"stateMutability": "nonpayable",
					"type": "function"
				}
			],
			"devdoc": {
				"kind": "dev",
				"methods": {},
				"version": 1
			},
			"evm": {
				"assembly": "    /* \"Class_Practice/intUintEx.sol\":87:909  contract IntegerExample {... */\n  mstore(0x40, 0x80)\n    /* \"Class_Practice/intUintEx.sol\":297:416  constructor() {... */\n  callvalue\n  dup1\n  iszero\n  tag_1\n  jumpi\n  revert(0x00, 0x00)\ntag_1:\n  pop\n    /* \"Class_Practice/intUintEx.sol\":332:336  1000 */\n  0x03e8\n    /* \"Class_Practice/intUintEx.sol\":322:329  balance */\n  0x00\n    /* \"Class_Practice/intUintEx.sol\":322:336  balance = 1000 */\n  dup2\n  swap1\n  sstore\n  pop\n    /* \"Class_Practice/intUintEx.sol\":385:389  -200 */\n  0xffffffffffffffffffffffffffffffffffffffffffffffffffffffffffffff38\n    /* \"Class_Practice/intUintEx.sol\":370:382  profitOrLoss */\n  0x01\n    /* \"Class_Practice/intUintEx.sol\":370:389  profitOrLoss = -200 */\n  dup2\n  swap1\n  sstore\n  pop\n    /* \"Class_Practice/intUintEx.sol\":87:909  contract IntegerExample {... */\n  dataSize(sub_0)\n  dup1\n  dataOffset(sub_0)\n  0x00\n  codecopy\n  0x00\n  return\nstop\n\nsub_0: assembly {\n        /* \"Class_Practice/intUintEx.sol\":87:909  contract IntegerExample {... */\n      mstore(0x40, 0x80)\n      callvalue\n      dup1\n      iszero\n      tag_1\n      jumpi\n      revert(0x00, 0x00)\n    tag_1:\n      pop\n      jumpi(tag_2, lt(calldatasize, 0x04))\n      shr(0xe0, calldataload(0x00))\n      dup1\n      0xb69ef8a8\n      gt\n      tag_10\n      jumpi\n      dup1\n      0xb69ef8a8\n      eq\n      tag_6\n      jumpi\n      dup1\n      0xb6b55f25\n      eq\n      tag_7\n      jumpi\n      dup1\n      0xbf634405\n      eq\n      tag_8\n      jumpi\n      dup1\n      0xced4ffd0\n      eq\n      tag_9\n      jumpi\n      jump(tag_2)\n    tag_10:\n      dup1\n      0x19eb4a90\n      eq\n      tag_3\n      jumpi\n      dup1\n      0x7eb9f571\n      eq\n      tag_4\n      jumpi\n      dup1\n      0x853255cc\n      eq\n      tag_5\n      jumpi\n    tag_2:\n      revert(0x00, 0x00)\n        /* \"Class_Practice/intUintEx.sol\":784:904  function getValues() public view returns (uint, int, int) {... */\n    tag_3:\n      tag_11\n      tag_12\n      jump\t// in\n    tag_11:\n      mload(0x40)\n      tag_13\n      swap4\n      swap3\n      swap2\n      swap1\n      tag_14\n      jump\t// in\n    tag_13:\n      mload(0x40)\n      dup1\n      swap2\n      sub\n      swap1\n      return\n        /* \"Class_Practice/intUintEx.sol\":266:288  int public TotalAmount */\n    tag_4:\n      tag_15\n      tag_16\n      jump\t// in\n    tag_15:\n      mload(0x40)\n      tag_17\n      swap2\n      swap1\n      tag_18\n      jump\t// in\n    tag_17:\n      mload(0x40)\n      dup1\n      swap2\n      sub\n      swap1\n      return\n        /* \"Class_Practice/intUintEx.sol\":668:749  function sum() public{... */\n    tag_5:\n      tag_19\n      tag_20\n      jump\t// in\n    tag_19:\n      stop\n        /* \"Class_Practice/intUintEx.sol\":161:180  uint public balance */\n    tag_6:\n      tag_21\n      tag_22\n      jump\t// in\n    tag_21:\n      mload(0x40)\n      tag_23\n      swap2\n      swap1\n      tag_24\n      jump\t// in\n    tag_23:\n      mload(0x40)\n      dup1\n      swap2\n      sub\n      swap1\n      return\n        /* \"Class_Practice/intUintEx.sol\":461:534  function deposit(uint amount) public {... */\n    tag_7:\n      tag_25\n      0x04\n      dup1\n      calldatasize\n      sub\n      dup2\n      add\n      swap1\n      tag_26\n      swap2\n      swap1\n      tag_27\n      jump\t// in\n    tag_26:\n      tag_28\n      jump\t// in\n    tag_25:\n      stop\n        /* \"Class_Practice/intUintEx.sol\":234:257  int public profitOrLoss */\n    tag_8:\n      tag_29\n      tag_30\n      jump\t// in\n    tag_29:\n      mload(0x40)\n      tag_31\n      swap2\n      swap1\n      tag_18\n      jump\t// in\n    tag_31:\n      mload(0x40)\n      dup1\n      swap2\n      sub\n      swap1\n      return\n        /* \"Class_Practice/intUintEx.sol\":578:660  function updateProfit(int amount) public {... */\n    tag_9:\n      tag_32\n      0x04\n      dup1\n      calldatasize\n      sub\n      dup2\n      add\n      swap1\n      tag_33\n      swap2\n      swap1\n      tag_34\n      jump\t// in\n    tag_33:\n      tag_35\n      jump\t// in\n    tag_32:\n      stop\n        /* \"Class_Practice/intUintEx.sol\":784:904  function getValues() public view returns (uint, int, int) {... */\n    tag_12:\n        /* \"Class_Practice/intUintEx.sol\":826:830  uint */\n      0x00\n        /* \"Class_Practice/intUintEx.sol\":832:835  int */\n      0x00\n        /* \"Class_Practice/intUintEx.sol\":837:840  int */\n      0x00\n        /* \"Class_Practice/intUintEx.sol\":861:868  balance */\n      sload(0x00)\n        /* \"Class_Practice/intUintEx.sol\":870:882  profitOrLoss */\n      sload(0x01)\n        /* \"Class_Practice/intUintEx.sol\":884:895  TotalAmount */\n      sload(0x02)\n        /* \"Class_Practice/intUintEx.sol\":853:896  return (balance, profitOrLoss, TotalAmount) */\n      swap3\n      pop\n      swap3\n      pop\n      swap3\n      pop\n        /* \"Class_Practice/intUintEx.sol\":784:904  function getValues() public view returns (uint, int, int) {... */\n      swap1\n      swap2\n      swap3\n      jump\t// out\n        /* \"Class_Practice/intUintEx.sol\":266:288  int public TotalAmount */\n    tag_16:\n      sload(0x02)\n      dup2\n      jump\t// out\n        /* \"Class_Practice/intUintEx.sol\":668:749  function sum() public{... */\n    tag_20:\n        /* \"Class_Practice/intUintEx.sol\":729:741  profitOrLoss */\n      sload(0x01)\n        /* \"Class_Practice/intUintEx.sol\":718:725  balance */\n      sload(0x00)\n        /* \"Class_Practice/intUintEx.sol\":714:741  int(balance) + profitOrLoss */\n      tag_38\n      swap2\n      swap1\n      tag_39\n      jump\t// in\n    tag_38:\n        /* \"Class_Practice/intUintEx.sol\":700:711  TotalAmount */\n      0x02\n        /* \"Class_Practice/intUintEx.sol\":700:741  TotalAmount = int(balance) + profitOrLoss */\n      dup2\n      swap1\n      sstore\n      pop\n        /* \"Class_Practice/intUintEx.sol\":668:749  function sum() public{... */\n      jump\t// out\n        /* \"Class_Practice/intUintEx.sol\":161:180  uint public balance */\n    tag_22:\n      sload(0x00)\n      dup2\n      jump\t// out\n        /* \"Class_Practice/intUintEx.sol\":461:534  function deposit(uint amount) public {... */\n    tag_28:\n        /* \"Class_Practice/intUintEx.sol\":520:526  amount */\n      dup1\n        /* \"Class_Practice/intUintEx.sol\":509:516  balance */\n      0x00\n      0x00\n        /* \"Class_Practice/intUintEx.sol\":509:526  balance += amount */\n      dup3\n      dup3\n      sload\n      tag_41\n      swap2\n      swap1\n      tag_42\n      jump\t// in\n    tag_41:\n      swap3\n      pop\n      pop\n      dup2\n      swap1\n      sstore\n      pop\n        /* \"Class_Practice/intUintEx.sol\":461:534  function deposit(uint amount) public {... */\n      pop\n      jump\t// out\n        /* \"Class_Practice/intUintEx.sol\":234:257  int public profitOrLoss */\n    tag_30:\n      sload(0x01)\n      dup2\n      jump\t// out\n        /* \"Class_Practice/intUintEx.sol\":578:660  function updateProfit(int amount) public {... */\n    tag_35:\n        /* \"Class_Practice/intUintEx.sol\":646:652  amount */\n      dup1\n        /* \"Class_Practice/intUintEx.sol\":630:642  profitOrLoss */\n      0x01\n      0x00\n        /* \"Class_Practice/intUintEx.sol\":630:652  profitOrLoss += amount */\n      dup3\n      dup3\n      sload\n      tag_44\n      swap2\n      swap1\n      tag_39\n      jump\t// in\n    tag_44:\n      swap3\n      pop\n      pop\n      dup2\n      swap1\n      sstore\n      pop\n        /* \"Class_Practice/intUintEx.sol\":578:660  function updateProfit(int amount) public {... */\n      pop\n      jump\t// out\n        /* \"#utility.yul\":7:84   */\n    tag_45:\n        /* \"#utility.yul\":44:51   */\n      0x00\n        /* \"#utility.yul\":73:78   */\n      dup2\n        /* \"#utility.yul\":62:78   */\n      swap1\n      pop\n        /* \"#utility.yul\":7:84   */\n      swap2\n      swap1\n      pop\n      jump\t// out\n        /* \"#utility.yul\":90:208   */\n    tag_46:\n        /* \"#utility.yul\":177:201   */\n      tag_60\n        /* \"#utility.yul\":195:200   */\n      dup2\n        /* \"#utility.yul\":177:201   */\n      tag_45\n      jump\t// in\n    tag_60:\n        /* \"#utility.yul\":172:175   */\n      dup3\n        /* \"#utility.yul\":165:202   */\n      mstore\n        /* \"#utility.yul\":90:208   */\n      pop\n      pop\n      jump\t// out\n        /* \"#utility.yul\":214:290   */\n    tag_47:\n        /* \"#utility.yul\":250:257   */\n      0x00\n        /* \"#utility.yul\":279:284   */\n      dup2\n        /* \"#utility.yul\":268:284   */\n      swap1\n      pop\n        /* \"#utility.yul\":214:290   */\n      swap2\n      swap1\n      pop\n      jump\t// out\n        /* \"#utility.yul\":296:411   */\n    tag_48:\n        /* \"#utility.yul\":381:404   */\n      tag_63\n        /* \"#utility.yul\":398:403   */\n      dup2\n        /* \"#utility.yul\":381:404   */\n      tag_47\n      jump\t// in\n    tag_63:\n        /* \"#utility.yul\":376:379   */\n      dup3\n        /* \"#utility.yul\":369:405   */\n      mstore\n        /* \"#utility.yul\":296:411   */\n      pop\n      pop\n      jump\t// out\n        /* \"#utility.yul\":417:851   */\n    tag_14:\n        /* \"#utility.yul\":562:566   */\n      0x00\n        /* \"#utility.yul\":600:602   */\n      0x60\n        /* \"#utility.yul\":589:598   */\n      dup3\n        /* \"#utility.yul\":585:603   */\n      add\n        /* \"#utility.yul\":577:603   */\n      swap1\n      pop\n        /* \"#utility.yul\":613:684   */\n      tag_65\n        /* \"#utility.yul\":681:682   */\n      0x00\n        /* \"#utility.yul\":670:679   */\n      dup4\n        /* \"#utility.yul\":666:683   */\n      add\n        /* \"#utility.yul\":657:663   */\n      dup7\n        /* \"#utility.yul\":613:684   */\n      tag_46\n      jump\t// in\n    tag_65:\n        /* \"#utility.yul\":694:764   */\n      tag_66\n        /* \"#utility.yul\":760:762   */\n      0x20\n        /* \"#utility.yul\":749:758   */\n      dup4\n        /* \"#utility.yul\":745:763   */\n      add\n        /* \"#utility.yul\":736:742   */\n      dup6\n        /* \"#utility.yul\":694:764   */\n      tag_48\n      jump\t// in\n    tag_66:\n        /* \"#utility.yul\":774:844   */\n      tag_67\n        /* \"#utility.yul\":840:842   */\n      0x40\n        /* \"#utility.yul\":829:838   */\n      dup4\n        /* \"#utility.yul\":825:843   */\n      add\n        /* \"#utility.yul\":816:822   */\n      dup5\n        /* \"#utility.yul\":774:844   */\n      tag_48\n      jump\t// in\n    tag_67:\n        /* \"#utility.yul\":417:851   */\n      swap5\n      swap4\n      pop\n      pop\n      pop\n      pop\n      jump\t// out\n        /* \"#utility.yul\":857:1075   */\n    tag_18:\n        /* \"#utility.yul\":948:952   */\n      0x00\n        /* \"#utility.yul\":986:988   */\n      0x20\n        /* \"#utility.yul\":975:984   */\n      dup3\n        /* \"#utility.yul\":971:989   */\n      add\n        /* \"#utility.yul\":963:989   */\n      swap1\n      pop\n        /* \"#utility.yul\":999:1068   */\n      tag_69\n        /* \"#utility.yul\":1065:1066   */\n      0x00\n        /* \"#utility.yul\":1054:1063   */\n      dup4\n        /* \"#utility.yul\":1050:1067   */\n      add\n        /* \"#utility.yul\":1041:1047   */\n      dup5\n        /* \"#utility.yul\":999:1068   */\n      tag_48\n      jump\t// in\n    tag_69:\n        /* \"#utility.yul\":857:1075   */\n      swap3\n      swap2\n      pop\n      pop\n      jump\t// out\n        /* \"#utility.yul\":1081:1303   */\n    tag_24:\n        /* \"#utility.yul\":1174:1178   */\n      0x00\n        /* \"#utility.yul\":1212:1214   */\n      0x20\n        /* \"#utility.yul\":1201:1210   */\n      dup3\n        /* \"#utility.yul\":1197:1215   */\n      add\n        /* \"#utility.yul\":1189:1215   */\n      swap1\n      pop\n        /* \"#utility.yul\":1225:1296   */\n      tag_71\n        /* \"#utility.yul\":1293:1294   */\n      0x00\n        /* \"#utility.yul\":1282:1291   */\n      dup4\n        /* \"#utility.yul\":1278:1295   */\n      add\n        /* \"#utility.yul\":1269:1275   */\n      dup5\n        /* \"#utility.yul\":1225:1296   */\n      tag_46\n      jump\t// in\n    tag_71:\n        /* \"#utility.yul\":1081:1303   */\n      swap3\n      swap2\n      pop\n      pop\n      jump\t// out\n        /* \"#utility.yul\":1390:1507   */\n    tag_50:\n        /* \"#utility.yul\":1499:1500   */\n      0x00\n        /* \"#utility.yul\":1496:1497   */\n      0x00\n        /* \"#utility.yul\":1489:1501   */\n      revert\n        /* \"#utility.yul\":1636:1758   */\n    tag_52:\n        /* \"#utility.yul\":1709:1733   */\n      tag_76\n        /* \"#utility.yul\":1727:1732   */\n      dup2\n        /* \"#utility.yul\":1709:1733   */\n      tag_45\n      jump\t// in\n    tag_76:\n        /* \"#utility.yul\":1702:1707   */\n      dup2\n        /* \"#utility.yul\":1699:1734   */\n      eq\n        /* \"#utility.yul\":1689:1752   */\n      tag_77\n      jumpi\n        /* \"#utility.yul\":1748:1749   */\n      0x00\n        /* \"#utility.yul\":1745:1746   */\n      0x00\n        /* \"#utility.yul\":1738:1750   */\n      revert\n        /* \"#utility.yul\":1689:1752   */\n    tag_77:\n        /* \"#utility.yul\":1636:1758   */\n      pop\n      jump\t// out\n        /* \"#utility.yul\":1764:1903   */\n    tag_53:\n        /* \"#utility.yul\":1810:1815   */\n      0x00\n        /* \"#utility.yul\":1848:1854   */\n      dup2\n        /* \"#utility.yul\":1835:1855   */\n      calldataload\n        /* \"#utility.yul\":1826:1855   */\n      swap1\n      pop\n        /* \"#utility.yul\":1864:1897   */\n      tag_79\n        /* \"#utility.yul\":1891:1896   */\n      dup2\n        /* \"#utility.yul\":1864:1897   */\n      tag_52\n      jump\t// in\n    tag_79:\n        /* \"#utility.yul\":1764:1903   */\n      swap3\n      swap2\n      pop\n      pop\n      jump\t// out\n        /* \"#utility.yul\":1909:2238   */\n    tag_27:\n        /* \"#utility.yul\":1968:1974   */\n      0x00\n        /* \"#utility.yul\":2017:2019   */\n      0x20\n        /* \"#utility.yul\":2005:2014   */\n      dup3\n        /* \"#utility.yul\":1996:2003   */\n      dup5\n        /* \"#utility.yul\":1992:2015   */\n      sub\n        /* \"#utility.yul\":1988:2020   */\n      slt\n        /* \"#utility.yul\":1985:2104   */\n      iszero\n      tag_81\n      jumpi\n        /* \"#utility.yul\":2023:2102   */\n      tag_82\n      tag_50\n      jump\t// in\n    tag_82:\n        /* \"#utility.yul\":1985:2104   */\n    tag_81:\n        /* \"#utility.yul\":2143:2144   */\n      0x00\n        /* \"#utility.yul\":2168:2221   */\n      tag_83\n        /* \"#utility.yul\":2213:2220   */\n      dup5\n        /* \"#utility.yul\":2204:2210   */\n      dup3\n        /* \"#utility.yul\":2193:2202   */\n      dup6\n        /* \"#utility.yul\":2189:2211   */\n      add\n        /* \"#utility.yul\":2168:2221   */\n      tag_53\n      jump\t// in\n    tag_83:\n        /* \"#utility.yul\":2158:2221   */\n      swap2\n      pop\n        /* \"#utility.yul\":2114:2231   */\n      pop\n        /* \"#utility.yul\":1909:2238   */\n      swap3\n      swap2\n      pop\n      pop\n      jump\t// out\n        /* \"#utility.yul\":2244:2364   */\n    tag_54:\n        /* \"#utility.yul\":2316:2339   */\n      tag_85\n        /* \"#utility.yul\":2333:2338   */\n      dup2\n        /* \"#utility.yul\":2316:2339   */\n      tag_47\n      jump\t// in\n    tag_85:\n        /* \"#utility.yul\":2309:2314   */\n      dup2\n        /* \"#utility.yul\":2306:2340   */\n      eq\n        /* \"#utility.yul\":2296:2358   */\n      tag_86\n      jumpi\n        /* \"#utility.yul\":2354:2355   */\n      0x00\n        /* \"#utility.yul\":2351:2352   */\n      0x00\n        /* \"#utility.yul\":2344:2356   */\n      revert\n        /* \"#utility.yul\":2296:2358   */\n    tag_86:\n        /* \"#utility.yul\":2244:2364   */\n      pop\n      jump\t// out\n        /* \"#utility.yul\":2370:2507   */\n    tag_55:\n        /* \"#utility.yul\":2415:2420   */\n      0x00\n        /* \"#utility.yul\":2453:2459   */\n      dup2\n        /* \"#utility.yul\":2440:2460   */\n      calldataload\n        /* \"#utility.yul\":2431:2460   */\n      swap1\n      pop\n        /* \"#utility.yul\":2469:2501   */\n      tag_88\n        /* \"#utility.yul\":2495:2500   */\n      dup2\n        /* \"#utility.yul\":2469:2501   */\n      tag_54\n      jump\t// in\n    tag_88:\n        /* \"#utility.yul\":2370:2507   */\n      swap3\n      swap2\n      pop\n      pop\n      jump\t// out\n        /* \"#utility.yul\":2513:2840   */\n    tag_34:\n        /* \"#utility.yul\":2571:2577   */\n      0x00\n        /* \"#utility.yul\":2620:2622   */\n      0x20\n        /* \"#utility.yul\":2608:2617   */\n      dup3\n        /* \"#utility.yul\":2599:2606   */\n      dup5\n        /* \"#utility.yul\":2595:2618   */\n      sub\n        /* \"#utility.yul\":2591:2623   */\n      slt\n        /* \"#utility.yul\":2588:2707   */\n      iszero\n      tag_90\n      jumpi\n        /* \"#utility.yul\":2626:2705   */\n      tag_91\n      tag_50\n      jump\t// in\n    tag_91:\n        /* \"#utility.yul\":2588:2707   */\n    tag_90:\n        /* \"#utility.yul\":2746:2747   */\n      0x00\n        /* \"#utility.yul\":2771:2823   */\n      tag_92\n        /* \"#utility.yul\":2815:2822   */\n      dup5\n        /* \"#utility.yul\":2806:2812   */\n      dup3\n        /* \"#utility.yul\":2795:2804   */\n      dup6\n        /* \"#utility.yul\":2791:2813   */\n      add\n        /* \"#utility.yul\":2771:2823   */\n      tag_55\n      jump\t// in\n    tag_92:\n        /* \"#utility.yul\":2761:2823   */\n      swap2\n      pop\n        /* \"#utility.yul\":2717:2833   */\n      pop\n        /* \"#utility.yul\":2513:2840   */\n      swap3\n      swap2\n      pop\n      pop\n      jump\t// out\n        /* \"#utility.yul\":2846:3026   */\n    tag_56:\n        /* \"#utility.yul\":2894:2971   */\n      0x4e487b7100000000000000000000000000000000000000000000000000000000\n        /* \"#utility.yul\":2891:2892   */\n      0x00\n        /* \"#utility.yul\":2884:2972   */\n      mstore\n        /* \"#utility.yul\":2991:2995   */\n      0x11\n        /* \"#utility.yul\":2988:2989   */\n      0x04\n        /* \"#utility.yul\":2981:2996   */\n      mstore\n        /* \"#utility.yul\":3015:3019   */\n      0x24\n        /* \"#utility.yul\":3012:3013   */\n      0x00\n        /* \"#utility.yul\":3005:3020   */\n      revert\n        /* \"#utility.yul\":3032:3407   */\n    tag_39:\n        /* \"#utility.yul\":3071:3074   */\n      0x00\n        /* \"#utility.yul\":3090:3109   */\n      tag_95\n        /* \"#utility.yul\":3107:3108   */\n      dup3\n        /* \"#utility.yul\":3090:3109   */\n      tag_47\n      jump\t// in\n    tag_95:\n        /* \"#utility.yul\":3085:3109   */\n      swap2\n      pop\n        /* \"#utility.yul\":3123:3142   */\n      tag_96\n        /* \"#utility.yul\":3140:3141   */\n      dup4\n        /* \"#utility.yul\":3123:3142   */\n      tag_47\n      jump\t// in\n    tag_96:\n        /* \"#utility.yul\":3118:3142   */\n      swap3\n      pop\n        /* \"#utility.yul\":3165:3166   */\n      dup3\n        /* \"#utility.yul\":3162:3163   */\n      dup3\n        /* \"#utility.yul\":3158:3167   */\n      add\n        /* \"#utility.yul\":3151:3167   */\n      swap1\n      pop\n        /* \"#utility.yul\":3363:3364   */\n      dup3\n        /* \"#utility.yul\":3358:3361   */\n      dup2\n        /* \"#utility.yul\":3354:3365   */\n      slt\n        /* \"#utility.yul\":3347:3366   */\n      iszero\n        /* \"#utility.yul\":3343:3344   */\n      0x00\n        /* \"#utility.yul\":3340:3341   */\n      dup4\n        /* \"#utility.yul\":3336:3345   */\n      slt\n        /* \"#utility.yul\":3332:3367   */\n      and\n        /* \"#utility.yul\":3315:3316   */\n      dup4\n        /* \"#utility.yul\":3310:3313   */\n      dup3\n        /* \"#utility.yul\":3306:3317   */\n      slt\n        /* \"#utility.yul\":3301:3302   */\n      0x00\n        /* \"#utility.yul\":3298:3299   */\n      dup5\n        /* \"#utility.yul\":3294:3303   */\n      slt\n        /* \"#utility.yul\":3287:3304   */\n      iszero\n        /* \"#utility.yul\":3283:3318   */\n      and\n        /* \"#utility.yul\":3267:3377   */\n      or\n        /* \"#utility.yul\":3264:3400   */\n      iszero\n      tag_97\n      jumpi\n        /* \"#utility.yul\":3380:3398   */\n      tag_98\n      tag_56\n      jump\t// in\n    tag_98:\n        /* \"#utility.yul\":3264:3400   */\n    tag_97:\n        /* \"#utility.yul\":3032:3407   */\n      swap3\n      swap2\n      pop\n      pop\n      jump\t// out\n        /* \"#utility.yul\":3413:3604   */\n    tag_42:\n        /* \"#utility.yul\":3453:3456   */\n      0x00\n        /* \"#utility.yul\":3472:3492   */\n      tag_100\n        /* \"#utility.yul\":3490:3491   */\n      dup3\n        /* \"#utility.yul\":3472:3492   */\n      tag_45\n      jump\t// in\n    tag_100:\n        /* \"#utility.yul\":3467:3492   */\n      swap2\n      pop\n        /* \"#utility.yul\":3506:3526   */\n      tag_101\n        /* \"#utility.yul\":3524:3525   */\n      dup4\n        /* \"#utility.yul\":3506:3526   */\n      tag_45\n      jump\t// in\n    tag_101:\n        /* \"#utility.yul\":3501:3526   */\n      swap3\n      pop\n        /* \"#utility.yul\":3549:3550   */\n      dup3\n        /* \"#utility.yul\":3546:3547   */\n      dup3\n        /* \"#utility.yul\":3542:3551   */\n      add\n        /* \"#utility.yul\":3535:3551   */\n      swap1\n      pop\n        /* \"#utility.yul\":3570:3573   */\n      dup1\n        /* \"#utility.yul\":3567:3568   */\n      dup3\n        /* \"#utility.yul\":3564:3574   */\n      gt\n        /* \"#utility.yul\":3561:3597   */\n      iszero\n      tag_102\n      jumpi\n        /* \"#utility.yul\":3577:3595   */\n      tag_103\n      tag_56\n      jump\t// in\n    tag_103:\n        /* \"#utility.yul\":3561:3597   */\n    tag_102:\n        /* \"#utility.yul\":3413:3604   */\n      swap3\n      swap2\n      pop\n      pop\n      jump\t// out\n\n    auxdata: 0xa26469706673582212208eb5e2d4d944437ccb28a6e020d8f48915c3ebb3d9dd8446c7fd2c0f62ed3fda64736f6c634300081f0033\n}\n",
				"bytecode": {
					"linkReferences": {},
					"object": "6080604052348015600e575f5ffd5b506103e85f819055507fffffffffffffffffffffffffffffffffffffffffffffffffffffffffffffff386001819055506103ca8061004b5f395ff3fe608060405234801561000f575f5ffd5b506004361061007b575f3560e01c8063b69ef8a811610059578063b69ef8a8146100c7578063b6b55f25146100e5578063bf63440514610101578063ced4ffd01461011f5761007b565b806319eb4a901461007f5780637eb9f5711461009f578063853255cc146100bd575b5f5ffd5b61008761013b565b604051610096939291906101de565b60405180910390f35b6100a7610151565b6040516100b49190610213565b60405180910390f35b6100c5610157565b005b6100cf61016e565b6040516100dc919061022c565b60405180910390f35b6100ff60048036038101906100fa9190610273565b610173565b005b61010961018d565b6040516101169190610213565b60405180910390f35b610139600480360381019061013491906102c8565b610193565b005b5f5f5f5f54600154600254925092509250909192565b60025481565b6001545f546101669190610320565b600281905550565b5f5481565b805f5f8282546101839190610361565b9250508190555050565b60015481565b8060015f8282546101a49190610320565b9250508190555050565b5f819050919050565b6101c0816101ae565b82525050565b5f819050919050565b6101d8816101c6565b82525050565b5f6060820190506101f15f8301866101b7565b6101fe60208301856101cf565b61020b60408301846101cf565b949350505050565b5f6020820190506102265f8301846101cf565b92915050565b5f60208201905061023f5f8301846101b7565b92915050565b5f5ffd5b610252816101ae565b811461025c575f5ffd5b50565b5f8135905061026d81610249565b92915050565b5f6020828403121561028857610287610245565b5b5f6102958482850161025f565b91505092915050565b6102a7816101c6565b81146102b1575f5ffd5b50565b5f813590506102c28161029e565b92915050565b5f602082840312156102dd576102dc610245565b5b5f6102ea848285016102b4565b91505092915050565b7f4e487b71000000000000000000000000000000000000000000000000000000005f52601160045260245ffd5b5f61032a826101c6565b9150610335836101c6565b92508282019050828112155f8312168382125f84121516171561035b5761035a6102f3565b5b92915050565b5f61036b826101ae565b9150610376836101ae565b925082820190508082111561038e5761038d6102f3565b5b9291505056fea26469706673582212208eb5e2d4d944437ccb28a6e020d8f48915c3ebb3d9dd8446c7fd2c0f62ed3fda64736f6c634300081f0033",
					"opcodes": "PUSH1 0x80 PUSH1 0x40 MSTORE CALLVALUE DUP1 ISZERO PUSH1 0xE JUMPI PUSH0 PUSH0 REVERT JUMPDEST POP PUSH2 0x3E8 PUSH0 DUP2 SWAP1 SSTORE POP PUSH32 0xFFFFFFFFFFFFFFFFFFFFFFFFFFFFFFFFFFFFFFFFFFFFFFFFFFFFFFFFFFFFFF38 PUSH1 0x1 DUP2 SWAP1 SSTORE POP PUSH2 0x3CA DUP1 PUSH2 0x4B PUSH0 CODECOPY PUSH0 RETURN INVALID PUSH1 0x80 PUSH1 0x40 MSTORE CALLVALUE DUP1 ISZERO PUSH2 0xF JUMPI PUSH0 PUSH0 REVERT JUMPDEST POP PUSH1 0x4 CALLDATASIZE LT PUSH2 0x7B JUMPI PUSH0 CALLDATALOAD PUSH1 0xE0 SHR DUP1 PUSH4 0xB69EF8A8 GT PUSH2 0x59 JUMPI DUP1 PUSH4 0xB69EF8A8 EQ PUSH2 0xC7 JUMPI DUP1 PUSH4 0xB6B55F25 EQ PUSH2 0xE5 JUMPI DUP1 PUSH4 0xBF634405 EQ PUSH2 0x101 JUMPI DUP1 PUSH4 0xCED4FFD0 EQ PUSH2 0x11F JUMPI PUSH2 0x7B JUMP JUMPDEST DUP1 PUSH4 0x19EB4A90 EQ PUSH2 0x7F JUMPI DUP1 PUSH4 0x7EB9F571 EQ PUSH2 0x9F JUMPI DUP1 PUSH4 0x853255CC EQ PUSH2 0xBD JUMPI JUMPDEST PUSH0 PUSH0 REVERT JUMPDEST PUSH2 0x87 PUSH2 0x13B JUMP JUMPDEST PUSH1 0x40 MLOAD PUSH2 0x96 SWAP4 SWAP3 SWAP2 SWAP1 PUSH2 0x1DE JUMP JUMPDEST PUSH1 0x40 MLOAD DUP1 SWAP2 SUB SWAP1 RETURN JUMPDEST PUSH2 0xA7 PUSH2 0x151 JUMP JUMPDEST PUSH1 0x40 MLOAD PUSH2 0xB4 SWAP2 SWAP1 PUSH2 0x213 JUMP JUMPDEST PUSH1 0x40 MLOAD DUP1 SWAP2 SUB SWAP1 RETURN JUMPDEST PUSH2 0xC5 PUSH2 0x157 JUMP JUMPDEST STOP JUMPDEST PUSH2 0xCF PUSH2 0x16E JUMP JUMPDEST PUSH1 0x40 MLOAD PUSH2 0xDC SWAP2 SWAP1 PUSH2 0x22C JUMP JUMPDEST PUSH1 0x40 MLOAD DUP1 SWAP2 SUB SWAP1 RETURN JUMPDEST PUSH2 0xFF PUSH1 0x4 DUP1 CALLDATASIZE SUB DUP2 ADD SWAP1 PUSH2 0xFA SWAP2 SWAP1 PUSH2 0x273 JUMP JUMPDEST PUSH2 0x173 JUMP JUMPDEST STOP JUMPDEST PUSH2 0x109 PUSH2 0x18D JUMP JUMPDEST PUSH1 0x40 MLOAD PUSH2 0x116 SWAP2 SWAP1 PUSH2 0x213 JUMP JUMPDEST PUSH1 0x40 MLOAD DUP1 SWAP2 SUB SWAP1 RETURN JUMPDEST PUSH2 0x139 PUSH1 0x4 DUP1 CALLDATASIZE SUB DUP2 ADD SWAP1 PUSH2 0x134 SWAP2 SWAP1 PUSH2 0x2C8 JUMP JUMPDEST PUSH2 0x193 JUMP JUMPDEST STOP JUMPDEST PUSH0 PUSH0 PUSH0 PUSH0 SLOAD PUSH1 0x1 SLOAD PUSH1 0x2 SLOAD SWAP3 POP SWAP3 POP SWAP3 POP SWAP1 SWAP2 SWAP3 JUMP JUMPDEST PUSH1 0x2 SLOAD DUP2 JUMP JUMPDEST PUSH1 0x1 SLOAD PUSH0 SLOAD PUSH2 0x166 SWAP2 SWAP1 PUSH2 0x320 JUMP JUMPDEST PUSH1 0x2 DUP2 SWAP1 SSTORE POP JUMP JUMPDEST PUSH0 SLOAD DUP2 JUMP JUMPDEST DUP1 PUSH0 PUSH0 DUP3 DUP3 SLOAD PUSH2 0x183 SWAP2 SWAP1 PUSH2 0x361 JUMP JUMPDEST SWAP3 POP POP DUP2 SWAP1 SSTORE POP POP JUMP JUMPDEST PUSH1 0x1 SLOAD DUP2 JUMP JUMPDEST DUP1 PUSH1 0x1 PUSH0 DUP3 DUP3 SLOAD PUSH2 0x1A4 SWAP2 SWAP1 PUSH2 0x320 JUMP JUMPDEST SWAP3 POP POP DUP2 SWAP1 SSTORE POP POP JUMP JUMPDEST PUSH0 DUP2 SWAP1 POP SWAP2 SWAP1 POP JUMP JUMPDEST PUSH2 0x1C0 DUP2 PUSH2 0x1AE JUMP JUMPDEST DUP3 MSTORE POP POP JUMP JUMPDEST PUSH0 DUP2 SWAP1 POP SWAP2 SWAP1 POP JUMP JUMPDEST PUSH2 0x1D8 DUP2 PUSH2 0x1C6 JUMP JUMPDEST DUP3 MSTORE POP POP JUMP JUMPDEST PUSH0 PUSH1 0x60 DUP3 ADD SWAP1 POP PUSH2 0x1F1 PUSH0 DUP4 ADD DUP7 PUSH2 0x1B7 JUMP JUMPDEST PUSH2 0x1FE PUSH1 0x20 DUP4 ADD DUP6 PUSH2 0x1CF JUMP JUMPDEST PUSH2 0x20B PUSH1 0x40 DUP4 ADD DUP5 PUSH2 0x1CF JUMP JUMPDEST SWAP5 SWAP4 POP POP POP POP JUMP JUMPDEST PUSH0 PUSH1 0x20 DUP3 ADD SWAP1 POP PUSH2 0x226 PUSH0 DUP4 ADD DUP5 PUSH2 0x1CF JUMP JUMPDEST SWAP3 SWAP2 POP POP JUMP JUMPDEST PUSH0 PUSH1 0x20 DUP3 ADD SWAP1 POP PUSH2 0x23F PUSH0 DUP4 ADD DUP5 PUSH2 0x1B7 JUMP JUMPDEST SWAP3 SWAP2 POP POP JUMP JUMPDEST PUSH0 PUSH0 REVERT JUMPDEST PUSH2 0x252 DUP2 PUSH2 0x1AE JUMP JUMPDEST DUP2 EQ PUSH2 0x25C JUMPI PUSH0 PUSH0 REVERT JUMPDEST POP JUMP JUMPDEST PUSH0 DUP2 CALLDATALOAD SWAP1 POP PUSH2 0x26D DUP2 PUSH2 0x249 JUMP JUMPDEST SWAP3 SWAP2 POP POP JUMP JUMPDEST PUSH0 PUSH1 0x20 DUP3 DUP5 SUB SLT ISZERO PUSH2 0x288 JUMPI PUSH2 0x287 PUSH2 0x245 JUMP JUMPDEST JUMPDEST PUSH0 PUSH2 0x295 DUP5 DUP3 DUP6 ADD PUSH2 0x25F JUMP JUMPDEST SWAP2 POP POP SWAP3 SWAP2 POP POP JUMP JUMPDEST PUSH2 0x2A7 DUP2 PUSH2 0x1C6 JUMP JUMPDEST DUP2 EQ PUSH2 0x2B1 JUMPI PUSH0 PUSH0 REVERT JUMPDEST POP JUMP JUMPDEST PUSH0 DUP2 CALLDATALOAD SWAP1 POP PUSH2 0x2C2 DUP2 PUSH2 0x29E JUMP JUMPDEST SWAP3 SWAP2 POP POP JUMP JUMPDEST PUSH0 PUSH1 0x20 DUP3 DUP5 SUB SLT ISZERO PUSH2 0x2DD JUMPI PUSH2 0x2DC PUSH2 0x245 JUMP JUMPDEST JUMPDEST PUSH0 PUSH2 0x2EA DUP5 DUP3 DUP6 ADD PUSH2 0x2B4 JUMP JUMPDEST SWAP2 POP POP SWAP3 SWAP2 POP POP JUMP JUMPDEST PUSH32 0x4E487B7100000000000000000000000000000000000000000000000000000000 PUSH0 MSTORE PUSH1 0x11 PUSH1 0x4 MSTORE PUSH1 0x24 PUSH0 REVERT JUMPDEST PUSH0 PUSH2 0x32A DUP3 PUSH2 0x1C6 JUMP JUMPDEST SWAP2 POP PUSH2 0x335 DUP4 PUSH2 0x1C6 JUMP JUMPDEST SWAP3 POP DUP3 DUP3 ADD SWAP1 POP DUP3 DUP2 SLT ISZERO PUSH0 DUP4 SLT AND DUP4 DUP3 SLT PUSH0 DUP5 SLT ISZERO AND OR ISZERO PUSH2 0x35B JUMPI PUSH2 0x35A PUSH2 0x2F3 JUMP JUMPDEST JUMPDEST SWAP3 SWAP2 POP POP JUMP JUMPDEST PUSH0 PUSH2 0x36B DUP3 PUSH2 0x1AE JUMP JUMPDEST SWAP2 POP PUSH2 0x376 DUP4 PUSH2 0x1AE JUMP JUMPDEST SWAP3 POP DUP3 DUP3 ADD SWAP1 POP DUP1 DUP3 GT ISZERO PUSH2 0x38E JUMPI PUSH2 0x38D PUSH2 0x2F3 JUMP JUMPDEST JUMPDEST SWAP3 SWAP2 POP POP JUMP INVALID LOG2 PUSH5 0x6970667358 0x22 SLT KECCAK256 DUP15 0xB5 0xE2 0xD4 0xD9 PREVRANDAO NUMBER PUSH29 0xCB28A6E020D8F48915C3EBB3D9DD8446C7FD2C0F62ED3FDA64736F6C63 NUMBER STOP ADDMOD 0x1F STOP CALLER "
				},
				"gasEstimates": {
					"creation": {
						"codeDepositCost": "194000",
						"executionCost": "44463",
						"totalCost": "238463"
					},
					"external": {
						"TotalAmount()": "2448",
						"balance()": "2424",
						"deposit(uint256)": "infinite",
						"getValues()": "infinite",
						"profitOrLoss()": "2469",
						"sum()": "infinite",
						"updateProfit(int256)": "infinite"
					}
				},
				"methodIdentifiers": {
					"TotalAmount()": "7eb9f571",
					"balance()": "b69ef8a8",
					"deposit(uint256)": "b6b55f25",
					"getValues()": "19eb4a90",
					"profitOrLoss()": "bf634405",
					"sum()": "853255cc",
					"updateProfit(int256)": "ced4ffd0"
				}
			},
			"storageLayout": {
				"storage": [
					{
						"astId": 3,
						"contract": "Class_Practice/intUintEx.sol:IntegerExample",
						"label": "balance",
						"offset": 0,
						"slot": "0",
						"type": "t_uint256"
					},
					{
						"astId": 5,
						"contract": "Class_Practice/intUintEx.sol:IntegerExample",
						"label": "profitOrLoss",
						"offset": 0,
						"slot": "1",
						"type": "t_int256"
					},
					{
						"astId": 7,
						"contract": "Class_Practice/intUintEx.sol:IntegerExample",
						"label": "TotalAmount",
						"offset": 0,
						"slot": "2",
						"type": "t_int256"
					}
				],
				"types": {
					"t_int256": {
						"encoding": "inplace",
						"label": "int256",
						"numberOfBytes": "32"
					},
					"t_uint256": {
						"encoding": "inplace",
						"label": "uint256",
						"numberOfBytes": "32"
					}
				}
			},
			"userdoc": {
				"kind": "user",
				"methods": {},
				"version": 1
			}
		}
	}
}