{
	"class_7 (18.3.26)/PatientstructMappingEnum.sol": {
		"PatientData": {
			"abi": [
				{
					"inputs": [
						{
							"internalType": "uint256",
							"name": "_id",
							"type": "uint256"
						}
					],
					"name": "getPatient",
					"outputs": [
						{
							"internalType": "uint256",
							"name": "",
							"type": "uint256"
						},
						{
							"internalType": "string",
							"name": "",
							"type": "string"
						},
						{
							"internalType": "string",
							"name": "",
							"type": "string"
						},
						{
							"internalType": "enum PatientData.CheckupStatus",
							"name": "",
							"type": "uint8"
						}
					],
					"stateMutability": "view",
					"type": "function"
				},
				{
					"inputs": [
						{
							"internalType": "uint256",
							"name": "",
							"type": "uint256"
						}
					],
					"name": "patients",
					"outputs": [
						{
							"internalType": "uint256",
							"name": "id",
							"type": "uint256"
						},
						{
							"internalType": "string",
							"name": "name",
							"type": "string"
						},
						{
							"internalType": "string",
							"name": "diseaseDescription",
							"type": "string"
						},
						{
							"internalType": "enum PatientData.CheckupStatus",
							"name": "status",
							"type": "uint8"
						}
					],
					"stateMutability": "view",
					"type": "function"
				},
				{
					"inputs": [
						{
							"internalType": "uint256",
							"name": "_id",
							"type": "uint256"
						},
						{
							"internalType": "string",
							"name": "_name",
							"type": "string"
						},
						{
							"internalType": "string",
							"name": "_diseaseDescription",
							"type": "string"
						},
						{
							"internalType": "enum PatientData.CheckupStatus",
							"name": "_status",
							"type": "uint8"
						}
					],
					"name": "setPatient",
					"outputs": [],
					"stateMutability": "nonpayable",
					"type": "function"
				}
			],
			"devdoc": {
				"kind": "dev",
				"methods": {},
				"version": 1
			},
			"evm": {
				"assembly": "    /* \"class_7 (18.3.26)/PatientstructMappingEnum.sol\":115:1015  contract PatientData {... */\n  mstore(0x40, 0x80)\n  callvalue\n  dup1\n  iszero\n  tag_1\n  jumpi\n  revert(0x00, 0x00)\ntag_1:\n  pop\n  dataSize(sub_0)\n  dup1\n  dataOffset(sub_0)\n  0x00\n  codecopy\n  0x00\n  return\nstop\n\nsub_0: assembly {\n        /* \"class_7 (18.3.26)/PatientstructMappingEnum.sol\":115:1015  contract PatientData {... */\n      mstore(0x40, 0x80)\n      callvalue\n      dup1\n      iszero\n      tag_1\n      jumpi\n      revert(0x00, 0x00)\n    tag_1:\n      pop\n      jumpi(tag_2, lt(calldatasize, 0x04))\n      shr(0xe0, calldataload(0x00))\n      dup1\n      0x7d3a6796\n      eq\n      tag_3\n      jumpi\n      dup1\n      0x93119a83\n      eq\n      tag_4\n      jumpi\n      dup1\n      0xda11c330\n      eq\n      tag_5\n      jumpi\n    tag_2:\n      revert(0x00, 0x00)\n        /* \"class_7 (18.3.26)/PatientstructMappingEnum.sol\":770:1012  function getPatient(uint _id) ... */\n    tag_3:\n      tag_6\n      0x04\n      dup1\n      calldatasize\n      sub\n      dup2\n      add\n      swap1\n      tag_7\n      swap2\n      swap1\n      tag_8\n      jump\t// in\n    tag_7:\n      tag_9\n      jump\t// in\n    tag_6:\n      mload(0x40)\n      tag_10\n      swap5\n      swap4\n      swap3\n      swap2\n      swap1\n      tag_11\n      jump\t// in\n    tag_10:\n      mload(0x40)\n      dup1\n      swap2\n      sub\n      swap1\n      return\n        /* \"class_7 (18.3.26)/PatientstructMappingEnum.sol\":428:468  mapping(uint => Patient) public patients */\n    tag_4:\n      tag_12\n      0x04\n      dup1\n      calldatasize\n      sub\n      dup2\n      add\n      swap1\n      tag_13\n      swap2\n      swap1\n      tag_8\n      jump\t// in\n    tag_13:\n      tag_14\n      jump\t// in\n    tag_12:\n      mload(0x40)\n      tag_15\n      swap5\n      swap4\n      swap3\n      swap2\n      swap1\n      tag_11\n      jump\t// in\n    tag_15:\n      mload(0x40)\n      dup1\n      swap2\n      sub\n      swap1\n      return\n        /* \"class_7 (18.3.26)/PatientstructMappingEnum.sol\":498:741  function setPatient(... */\n    tag_5:\n      tag_16\n      0x04\n      dup1\n      calldatasize\n      sub\n      dup2\n      add\n      swap1\n      tag_17\n      swap2\n      swap1\n      tag_18\n      jump\t// in\n    tag_17:\n      tag_19\n      jump\t// in\n    tag_16:\n      stop\n        /* \"class_7 (18.3.26)/PatientstructMappingEnum.sol\":770:1012  function getPatient(uint _id) ... */\n    tag_9:\n        /* \"class_7 (18.3.26)/PatientstructMappingEnum.sol\":840:844  uint */\n      0x00\n        /* \"class_7 (18.3.26)/PatientstructMappingEnum.sol\":846:859  string memory */\n      0x60\n        /* \"class_7 (18.3.26)/PatientstructMappingEnum.sol\":861:874  string memory */\n      dup1\n        /* \"class_7 (18.3.26)/PatientstructMappingEnum.sol\":876:889  CheckupStatus */\n      0x00\n        /* \"class_7 (18.3.26)/PatientstructMappingEnum.sol\":908:924  Patient memory p */\n      0x00\n        /* \"class_7 (18.3.26)/PatientstructMappingEnum.sol\":927:935  patients */\n      0x00\n        /* \"class_7 (18.3.26)/PatientstructMappingEnum.sol\":927:940  patients[_id] */\n      0x00\n        /* \"class_7 (18.3.26)/PatientstructMappingEnum.sol\":936:939  _id */\n      dup8\n        /* \"class_7 (18.3.26)/PatientstructMappingEnum.sol\":927:940  patients[_id] */\n      dup2\n      mstore\n      0x20\n      add\n      swap1\n      dup2\n      mstore\n      0x20\n      add\n      0x00\n      keccak256\n        /* \"class_7 (18.3.26)/PatientstructMappingEnum.sol\":908:940  Patient memory p = patients[_id] */\n      mload(0x40)\n      dup1\n      0x80\n      add\n      0x40\n      mstore\n      swap1\n      dup2\n      0x00\n      dup3\n      add\n      sload\n      dup2\n      mstore\n      0x20\n      add\n      0x01\n      dup3\n      add\n      dup1\n      sload\n      tag_21\n      swap1\n      tag_22\n      jump\t// in\n    tag_21:\n      dup1\n      0x1f\n      add\n      0x20\n      dup1\n      swap2\n      div\n      mul\n      0x20\n      add\n      mload(0x40)\n      swap1\n      dup2\n      add\n      0x40\n      mstore\n      dup1\n      swap3\n      swap2\n      swap1\n      dup2\n      dup2\n      mstore\n      0x20\n      add\n      dup3\n      dup1\n      sload\n      tag_23\n      swap1\n      tag_22\n      jump\t// in\n    tag_23:\n      dup1\n      iszero\n      tag_24\n      jumpi\n      dup1\n      0x1f\n      lt\n      tag_25\n      jumpi\n      0x0100\n      dup1\n      dup4\n      sload\n      div\n      mul\n      dup4\n      mstore\n      swap2\n      0x20\n      add\n      swap2\n      jump(tag_24)\n    tag_25:\n      dup3\n      add\n      swap2\n      swap1\n      0x00\n      mstore\n      keccak256(0x00, 0x20)\n      swap1\n    tag_26:\n      dup2\n      sload\n      dup2\n      mstore\n      swap1\n      0x01\n      add\n      swap1\n      0x20\n      add\n      dup1\n      dup4\n      gt\n      tag_26\n      jumpi\n      dup3\n      swap1\n      sub\n      0x1f\n      and\n      dup3\n      add\n      swap2\n    tag_24:\n      pop\n      pop\n      pop\n      pop\n      pop\n      dup2\n      mstore\n      0x20\n      add\n      0x02\n      dup3\n      add\n      dup1\n      sload\n      tag_27\n      swap1\n      tag_22\n      jump\t// in\n    tag_27:\n      dup1\n      0x1f\n      add\n      0x20\n      dup1\n      swap2\n      div\n      mul\n      0x20\n      add\n      mload(0x40)\n      swap1\n      dup2\n      add\n      0x40\n      mstore\n      dup1\n      swap3\n      swap2\n      swap1\n      dup2\n      dup2\n      mstore\n      0x20\n      add\n      dup3\n      dup1\n      sload\n      tag_28\n      swap1\n      tag_22\n      jump\t// in\n    tag_28:\n      dup1\n      iszero\n      tag_29\n      jumpi\n      dup1\n      0x1f\n      lt\n      tag_30\n      jumpi\n      0x0100\n      dup1\n      dup4\n      sload\n      div\n      mul\n      dup4\n      mstore\n      swap2\n      0x20\n      add\n      swap2\n      jump(tag_29)\n    tag_30:\n      dup3\n      add\n      swap2\n      swap1\n      0x00\n      mstore\n      keccak256(0x00, 0x20)\n      swap1\n    tag_31:\n      dup2\n      sload\n      dup2\n      mstore\n      swap1\n      0x01\n      add\n      swap1\n      0x20\n      add\n      dup1\n      dup4\n      gt\n      tag_31\n      jumpi\n      dup3\n      swap1\n      sub\n      0x1f\n      and\n      dup3\n      add\n      swap2\n    tag_29:\n      pop\n      pop\n      pop\n      pop\n      pop\n      dup2\n      mstore\n      0x20\n      add\n      0x03\n      dup3\n      add\n      0x00\n      swap1\n      sload\n      swap1\n      0x0100\n      exp\n      swap1\n      div\n      0xff\n      and\n      0x01\n      dup2\n      gt\n      iszero\n      tag_32\n      jumpi\n      tag_33\n      tag_34\n      jump\t// in\n    tag_33:\n    tag_32:\n      0x01\n      dup2\n      gt\n      iszero\n      tag_35\n      jumpi\n      tag_36\n      tag_34\n      jump\t// in\n    tag_36:\n    tag_35:\n      dup2\n      mstore\n      pop\n      pop\n      swap1\n      pop\n        /* \"class_7 (18.3.26)/PatientstructMappingEnum.sol\":959:960  p */\n      dup1\n        /* \"class_7 (18.3.26)/PatientstructMappingEnum.sol\":959:963  p.id */\n      0x00\n      add\n      mload\n        /* \"class_7 (18.3.26)/PatientstructMappingEnum.sol\":965:966  p */\n      dup2\n        /* \"class_7 (18.3.26)/PatientstructMappingEnum.sol\":965:971  p.name */\n      0x20\n      add\n      mload\n        /* \"class_7 (18.3.26)/PatientstructMappingEnum.sol\":973:974  p */\n      dup3\n        /* \"class_7 (18.3.26)/PatientstructMappingEnum.sol\":973:993  p.diseaseDescription */\n      0x40\n      add\n      mload\n        /* \"class_7 (18.3.26)/PatientstructMappingEnum.sol\":995:996  p */\n      dup4\n        /* \"class_7 (18.3.26)/PatientstructMappingEnum.sol\":995:1003  p.status */\n      0x60\n      add\n      mload\n        /* \"class_7 (18.3.26)/PatientstructMappingEnum.sol\":951:1004  return (p.id, p.name, p.diseaseDescription, p.status) */\n      swap5\n      pop\n      swap5\n      pop\n      swap5\n      pop\n      swap5\n      pop\n      pop\n        /* \"class_7 (18.3.26)/PatientstructMappingEnum.sol\":770:1012  function getPatient(uint _id) ... */\n      swap2\n      swap4\n      pop\n      swap2\n      swap4\n      jump\t// out\n        /* \"class_7 (18.3.26)/PatientstructMappingEnum.sol\":428:468  mapping(uint => Patient) public patients */\n    tag_14:\n      mstore(0x20, 0x00)\n      dup1\n      0x00\n      mstore\n      keccak256(0x00, 0x40)\n      0x00\n      swap2\n      pop\n      swap1\n      pop\n      dup1\n      0x00\n      add\n      sload\n      swap1\n      dup1\n      0x01\n      add\n      dup1\n      sload\n      tag_37\n      swap1\n      tag_22\n      jump\t// in\n    tag_37:\n      dup1\n      0x1f\n      add\n      0x20\n      dup1\n      swap2\n      div\n      mul\n      0x20\n      add\n      mload(0x40)\n      swap1\n      dup2\n      add\n      0x40\n      mstore\n      dup1\n      swap3\n      swap2\n      swap1\n      dup2\n      dup2\n      mstore\n      0x20\n      add\n      dup3\n      dup1\n      sload\n      tag_38\n      swap1\n      tag_22\n      jump\t// in\n    tag_38:\n      dup1\n      iszero\n      tag_39\n      jumpi\n      dup1\n      0x1f\n      lt\n      tag_40\n      jumpi\n      0x0100\n      dup1\n      dup4\n      sload\n      div\n      mul\n      dup4\n      mstore\n      swap2\n      0x20\n      add\n      swap2\n      jump(tag_39)\n    tag_40:\n      dup3\n      add\n      swap2\n      swap1\n      0x00\n      mstore\n      keccak256(0x00, 0x20)\n      swap1\n    tag_41:\n      dup2\n      sload\n      dup2\n      mstore\n      swap1\n      0x01\n      add\n      swap1\n      0x20\n      add\n      dup1\n      dup4\n      gt\n      tag_41\n      jumpi\n      dup3\n      swap1\n      sub\n      0x1f\n      and\n      dup3\n      add\n      swap2\n    tag_39:\n      pop\n      pop\n      pop\n      pop\n      pop\n      swap1\n      dup1\n      0x02\n      add\n      dup1\n      sload\n      tag_42\n      swap1\n      tag_22\n      jump\t// in\n    tag_42:\n      dup1\n      0x1f\n      add\n      0x20\n      dup1\n      swap2\n      div\n      mul\n      0x20\n      add\n      mload(0x40)\n      swap1\n      dup2\n      add\n      0x40\n      mstore\n      dup1\n      swap3\n      swap2\n      swap1\n      dup2\n      dup2\n      mstore\n      0x20\n      add\n      dup3\n      dup1\n      sload\n      tag_43\n      swap1\n      tag_22\n      jump\t// in\n    tag_43:\n      dup1\n      iszero\n      tag_44\n      jumpi\n      dup1\n      0x1f\n      lt\n      tag_45\n      jumpi\n      0x0100\n      dup1\n      dup4\n      sload\n      div\n      mul\n      dup4\n      mstore\n      swap2\n      0x20\n      add\n      swap2\n      jump(tag_44)\n    tag_45:\n      dup3\n      add\n      swap2\n      swap1\n      0x00\n      mstore\n      keccak256(0x00, 0x20)\n      swap1\n    tag_46:\n      dup2\n      sload\n      dup2\n      mstore\n      swap1\n      0x01\n      add\n      swap1\n      0x20\n      add\n      dup1\n      dup4\n      gt\n      tag_46\n      jumpi\n      dup3\n      swap1\n      sub\n      0x1f\n      and\n      dup3\n      add\n      swap2\n    tag_44:\n      pop\n      pop\n      pop\n      pop\n      pop\n      swap1\n      dup1\n      0x03\n      add\n      0x00\n      swap1\n      sload\n      swap1\n      0x0100\n      exp\n      swap1\n      div\n      0xff\n      and\n      swap1\n      pop\n      dup5\n      jump\t// out\n        /* \"class_7 (18.3.26)/PatientstructMappingEnum.sol\":498:741  function setPatient(... */\n    tag_19:\n        /* \"class_7 (18.3.26)/PatientstructMappingEnum.sol\":684:733  Patient(_id, _name, _diseaseDescription, _status) */\n      mload(0x40)\n      dup1\n      0x80\n      add\n      0x40\n      mstore\n      dup1\n        /* \"class_7 (18.3.26)/PatientstructMappingEnum.sol\":692:695  _id */\n      dup6\n        /* \"class_7 (18.3.26)/PatientstructMappingEnum.sol\":684:733  Patient(_id, _name, _diseaseDescription, _status) */\n      dup2\n      mstore\n      0x20\n      add\n        /* \"class_7 (18.3.26)/PatientstructMappingEnum.sol\":697:702  _name */\n      dup5\n        /* \"class_7 (18.3.26)/PatientstructMappingEnum.sol\":684:733  Patient(_id, _name, _diseaseDescription, _status) */\n      dup2\n      mstore\n      0x20\n      add\n        /* \"class_7 (18.3.26)/PatientstructMappingEnum.sol\":704:723  _diseaseDescription */\n      dup4\n        /* \"class_7 (18.3.26)/PatientstructMappingEnum.sol\":684:733  Patient(_id, _name, _diseaseDescription, _status) */\n      dup2\n      mstore\n      0x20\n      add\n        /* \"class_7 (18.3.26)/PatientstructMappingEnum.sol\":725:732  _status */\n      dup3\n        /* \"class_7 (18.3.26)/PatientstructMappingEnum.sol\":684:733  Patient(_id, _name, _diseaseDescription, _status) */\n      0x01\n      dup2\n      gt\n      iszero\n      tag_48\n      jumpi\n      tag_49\n      tag_34\n      jump\t// in\n    tag_49:\n    tag_48:\n      dup2\n      mstore\n      pop\n        /* \"class_7 (18.3.26)/PatientstructMappingEnum.sol\":668:676  patients */\n      0x00\n        /* \"class_7 (18.3.26)/PatientstructMappingEnum.sol\":668:681  patients[_id] */\n      0x00\n        /* \"class_7 (18.3.26)/PatientstructMappingEnum.sol\":677:680  _id */\n      dup7\n        /* \"class_7 (18.3.26)/PatientstructMappingEnum.sol\":668:681  patients[_id] */\n      dup2\n      mstore\n      0x20\n      add\n      swap1\n      dup2\n      mstore\n      0x20\n      add\n      0x00\n      keccak256\n        /* \"class_7 (18.3.26)/PatientstructMappingEnum.sol\":668:733  patients[_id] = Patient(_id, _name, _diseaseDescription, _status) */\n      0x00\n      dup3\n      add\n      mload\n      dup2\n      0x00\n      add\n      sstore\n      0x20\n      dup3\n      add\n      mload\n      dup2\n      0x01\n      add\n      swap1\n      dup2\n      tag_50\n      swap2\n      swap1\n      tag_51\n      jump\t// in\n    tag_50:\n      pop\n      0x40\n      dup3\n      add\n      mload\n      dup2\n      0x02\n      add\n      swap1\n      dup2\n      tag_52\n      swap2\n      swap1\n      tag_51\n      jump\t// in\n    tag_52:\n      pop\n      0x60\n      dup3\n      add\n      mload\n      dup2\n      0x03\n      add\n      exp(0x0100, 0x00)\n      dup2\n      sload\n      dup2\n      0xff\n      mul\n      not\n      and\n      swap1\n      dup4\n      0x01\n      dup2\n      gt\n      iszero\n      tag_53\n      jumpi\n      tag_54\n      tag_34\n      jump\t// in\n    tag_54:\n    tag_53:\n      mul\n      or\n      swap1\n      sstore\n      pop\n      swap1\n      pop\n      pop\n        /* \"class_7 (18.3.26)/PatientstructMappingEnum.sol\":498:741  function setPatient(... */\n      pop\n      pop\n      pop\n      pop\n      jump\t// out\n        /* \"#utility.yul\":7:82   */\n    tag_55:\n        /* \"#utility.yul\":40:46   */\n      0x00\n        /* \"#utility.yul\":73:75   */\n      0x40\n        /* \"#utility.yul\":67:76   */\n      mload\n        /* \"#utility.yul\":57:76   */\n      swap1\n      pop\n        /* \"#utility.yul\":7:82   */\n      swap1\n      jump\t// out\n        /* \"#utility.yul\":88:205   */\n    tag_56:\n        /* \"#utility.yul\":197:198   */\n      0x00\n        /* \"#utility.yul\":194:195   */\n      0x00\n        /* \"#utility.yul\":187:199   */\n      revert\n        /* \"#utility.yul\":211:328   */\n    tag_57:\n        /* \"#utility.yul\":320:321   */\n      0x00\n        /* \"#utility.yul\":317:318   */\n      0x00\n        /* \"#utility.yul\":310:322   */\n      revert\n        /* \"#utility.yul\":334:411   */\n    tag_58:\n        /* \"#utility.yul\":371:378   */\n      0x00\n        /* \"#utility.yul\":400:405   */\n      dup2\n        /* \"#utility.yul\":389:405   */\n      swap1\n      pop\n        /* \"#utility.yul\":334:411   */\n      swap2\n      swap1\n      pop\n      jump\t// out\n        /* \"#utility.yul\":417:539   */\n    tag_59:\n        /* \"#utility.yul\":490:514   */\n      tag_104\n        /* \"#utility.yul\":508:513   */\n      dup2\n        /* \"#utility.yul\":490:514   */\n      tag_58\n      jump\t// in\n    tag_104:\n        /* \"#utility.yul\":483:488   */\n      dup2\n        /* \"#utility.yul\":480:515   */\n      eq\n        /* \"#utility.yul\":470:533   */\n      tag_105\n      jumpi\n        /* \"#utility.yul\":529:530   */\n      0x00\n        /* \"#utility.yul\":526:527   */\n      0x00\n        /* \"#utility.yul\":519:531   */\n      revert\n        /* \"#utility.yul\":470:533   */\n    tag_105:\n        /* \"#utility.yul\":417:539   */\n      pop\n      jump\t// out\n        /* \"#utility.yul\":545:684   */\n    tag_60:\n        /* \"#utility.yul\":591:596   */\n      0x00\n        /* \"#utility.yul\":629:635   */\n      dup2\n        /* \"#utility.yul\":616:636   */\n      calldataload\n        /* \"#utility.yul\":607:636   */\n      swap1\n      pop\n        /* \"#utility.yul\":645:678   */\n      tag_107\n        /* \"#utility.yul\":672:677   */\n      dup2\n        /* \"#utility.yul\":645:678   */\n      tag_59\n      jump\t// in\n    tag_107:\n        /* \"#utility.yul\":545:684   */\n      swap3\n      swap2\n      pop\n      pop\n      jump\t// out\n        /* \"#utility.yul\":690:1019   */\n    tag_8:\n        /* \"#utility.yul\":749:755   */\n      0x00\n        /* \"#utility.yul\":798:800   */\n      0x20\n        /* \"#utility.yul\":786:795   */\n      dup3\n        /* \"#utility.yul\":777:784   */\n      dup5\n        /* \"#utility.yul\":773:796   */\n      sub\n        /* \"#utility.yul\":769:801   */\n      slt\n        /* \"#utility.yul\":766:885   */\n      iszero\n      tag_109\n      jumpi\n        /* \"#utility.yul\":804:883   */\n      tag_110\n      tag_56\n      jump\t// in\n    tag_110:\n        /* \"#utility.yul\":766:885   */\n    tag_109:\n        /* \"#utility.yul\":924:925   */\n      0x00\n        /* \"#utility.yul\":949:1002   */\n      tag_111\n        /* \"#utility.yul\":994:1001   */\n      dup5\n        /* \"#utility.yul\":985:991   */\n      dup3\n        /* \"#utility.yul\":974:983   */\n      dup6\n        /* \"#utility.yul\":970:992   */\n      add\n        /* \"#utility.yul\":949:1002   */\n      tag_60\n      jump\t// in\n    tag_111:\n        /* \"#utility.yul\":939:1002   */\n      swap2\n      pop\n        /* \"#utility.yul\":895:1012   */\n      pop\n        /* \"#utility.yul\":690:1019   */\n      swap3\n      swap2\n      pop\n      pop\n      jump\t// out\n        /* \"#utility.yul\":1025:1143   */\n    tag_61:\n        /* \"#utility.yul\":1112:1136   */\n      tag_113\n        /* \"#utility.yul\":1130:1135   */\n      dup2\n        /* \"#utility.yul\":1112:1136   */\n      tag_58\n      jump\t// in\n    tag_113:\n        /* \"#utility.yul\":1107:1110   */\n      dup3\n        /* \"#utility.yul\":1100:1137   */\n      mstore\n        /* \"#utility.yul\":1025:1143   */\n      pop\n      pop\n      jump\t// out\n        /* \"#utility.yul\":1149:1248   */\n    tag_62:\n        /* \"#utility.yul\":1201:1207   */\n      0x00\n        /* \"#utility.yul\":1235:1240   */\n      dup2\n        /* \"#utility.yul\":1229:1241   */\n      mload\n        /* \"#utility.yul\":1219:1241   */\n      swap1\n      pop\n        /* \"#utility.yul\":1149:1248   */\n      swap2\n      swap1\n      pop\n      jump\t// out\n        /* \"#utility.yul\":1254:1423   */\n    tag_63:\n        /* \"#utility.yul\":1338:1349   */\n      0x00\n        /* \"#utility.yul\":1372:1378   */\n      dup3\n        /* \"#utility.yul\":1367:1370   */\n      dup3\n        /* \"#utility.yul\":1360:1379   */\n      mstore\n        /* \"#utility.yul\":1412:1416   */\n      0x20\n        /* \"#utility.yul\":1407:1410   */\n      dup3\n        /* \"#utility.yul\":1403:1417   */\n      add\n        /* \"#utility.yul\":1388:1417   */\n      swap1\n      pop\n        /* \"#utility.yul\":1254:1423   */\n      swap3\n      swap2\n      pop\n      pop\n      jump\t// out\n        /* \"#utility.yul\":1429:1568   */\n    tag_64:\n        /* \"#utility.yul\":1518:1524   */\n      dup3\n        /* \"#utility.yul\":1513:1516   */\n      dup2\n        /* \"#utility.yul\":1508:1511   */\n      dup4\n        /* \"#utility.yul\":1502:1525   */\n      mcopy\n        /* \"#utility.yul\":1559:1560   */\n      0x00\n        /* \"#utility.yul\":1550:1556   */\n      dup4\n        /* \"#utility.yul\":1545:1548   */\n      dup4\n        /* \"#utility.yul\":1541:1557   */\n      add\n        /* \"#utility.yul\":1534:1561   */\n      mstore\n        /* \"#utility.yul\":1429:1568   */\n      pop\n      pop\n      pop\n      jump\t// out\n        /* \"#utility.yul\":1574:1676   */\n    tag_65:\n        /* \"#utility.yul\":1615:1621   */\n      0x00\n        /* \"#utility.yul\":1666:1668   */\n      0x1f\n        /* \"#utility.yul\":1662:1669   */\n      not\n        /* \"#utility.yul\":1657:1659   */\n      0x1f\n        /* \"#utility.yul\":1650:1655   */\n      dup4\n        /* \"#utility.yul\":1646:1660   */\n      add\n        /* \"#utility.yul\":1642:1670   */\n      and\n        /* \"#utility.yul\":1632:1670   */\n      swap1\n      pop\n        /* \"#utility.yul\":1574:1676   */\n      swap2\n      swap1\n      pop\n      jump\t// out\n        /* \"#utility.yul\":1682:2059   */\n    tag_66:\n        /* \"#utility.yul\":1770:1773   */\n      0x00\n        /* \"#utility.yul\":1798:1837   */\n      tag_119\n        /* \"#utility.yul\":1831:1836   */\n      dup3\n        /* \"#utility.yul\":1798:1837   */\n      tag_62\n      jump\t// in\n    tag_119:\n        /* \"#utility.yul\":1853:1924   */\n      tag_120\n        /* \"#utility.yul\":1917:1923   */\n      dup2\n        /* \"#utility.yul\":1912:1915   */\n      dup6\n        /* \"#utility.yul\":1853:1924   */\n      tag_63\n      jump\t// in\n    tag_120:\n        /* \"#utility.yul\":1846:1924   */\n      swap4\n      pop\n        /* \"#utility.yul\":1933:1998   */\n      tag_121\n        /* \"#utility.yul\":1991:1997   */\n      dup2\n        /* \"#utility.yul\":1986:1989   */\n      dup6\n        /* \"#utility.yul\":1979:1983   */\n      0x20\n        /* \"#utility.yul\":1972:1977   */\n      dup7\n        /* \"#utility.yul\":1968:1984   */\n      add\n        /* \"#utility.yul\":1933:1998   */\n      tag_64\n      jump\t// in\n    tag_121:\n        /* \"#utility.yul\":2023:2052   */\n      tag_122\n        /* \"#utility.yul\":2045:2051   */\n      dup2\n        /* \"#utility.yul\":2023:2052   */\n      tag_65\n      jump\t// in\n    tag_122:\n        /* \"#utility.yul\":2018:2021   */\n      dup5\n        /* \"#utility.yul\":2014:2053   */\n      add\n        /* \"#utility.yul\":2007:2053   */\n      swap2\n      pop\n        /* \"#utility.yul\":1774:2059   */\n      pop\n        /* \"#utility.yul\":1682:2059   */\n      swap3\n      swap2\n      pop\n      pop\n      jump\t// out\n        /* \"#utility.yul\":2065:2245   */\n    tag_34:\n        /* \"#utility.yul\":2113:2190   */\n      0x4e487b7100000000000000000000000000000000000000000000000000000000\n        /* \"#utility.yul\":2110:2111   */\n      0x00\n        /* \"#utility.yul\":2103:2191   */\n      mstore\n        /* \"#utility.yul\":2210:2214   */\n      0x21\n        /* \"#utility.yul\":2207:2208   */\n      0x04\n        /* \"#utility.yul\":2200:2215   */\n      mstore\n        /* \"#utility.yul\":2234:2238   */\n      0x24\n        /* \"#utility.yul\":2231:2232   */\n      0x00\n        /* \"#utility.yul\":2224:2239   */\n      revert\n        /* \"#utility.yul\":2251:2371   */\n    tag_67:\n        /* \"#utility.yul\":2339:2340   */\n      0x02\n        /* \"#utility.yul\":2332:2337   */\n      dup2\n        /* \"#utility.yul\":2329:2341   */\n      lt\n        /* \"#utility.yul\":2319:2365   */\n      tag_125\n      jumpi\n        /* \"#utility.yul\":2345:2363   */\n      tag_126\n      tag_34\n      jump\t// in\n    tag_126:\n        /* \"#utility.yul\":2319:2365   */\n    tag_125:\n        /* \"#utility.yul\":2251:2371   */\n      pop\n      jump\t// out\n        /* \"#utility.yul\":2377:2518   */\n    tag_68:\n        /* \"#utility.yul\":2429:2436   */\n      0x00\n        /* \"#utility.yul\":2458:2463   */\n      dup2\n        /* \"#utility.yul\":2447:2463   */\n      swap1\n      pop\n        /* \"#utility.yul\":2464:2512   */\n      tag_128\n        /* \"#utility.yul\":2506:2511   */\n      dup3\n        /* \"#utility.yul\":2464:2512   */\n      tag_67\n      jump\t// in\n    tag_128:\n        /* \"#utility.yul\":2377:2518   */\n      swap2\n      swap1\n      pop\n      jump\t// out\n        /* \"#utility.yul\":2524:2665   */\n    tag_69:\n        /* \"#utility.yul\":2587:2596   */\n      0x00\n        /* \"#utility.yul\":2620:2659   */\n      tag_130\n        /* \"#utility.yul\":2653:2658   */\n      dup3\n        /* \"#utility.yul\":2620:2659   */\n      tag_68\n      jump\t// in\n    tag_130:\n        /* \"#utility.yul\":2607:2659   */\n      swap1\n      pop\n        /* \"#utility.yul\":2524:2665   */\n      swap2\n      swap1\n      pop\n      jump\t// out\n        /* \"#utility.yul\":2671:2828   */\n    tag_70:\n        /* \"#utility.yul\":2771:2821   */\n      tag_132\n        /* \"#utility.yul\":2815:2820   */\n      dup2\n        /* \"#utility.yul\":2771:2821   */\n      tag_69\n      jump\t// in\n    tag_132:\n        /* \"#utility.yul\":2766:2769   */\n      dup3\n        /* \"#utility.yul\":2759:2822   */\n      mstore\n        /* \"#utility.yul\":2671:2828   */\n      pop\n      pop\n      jump\t// out\n        /* \"#utility.yul\":2834:3595   */\n    tag_11:\n        /* \"#utility.yul\":3064:3068   */\n      0x00\n        /* \"#utility.yul\":3102:3105   */\n      0x80\n        /* \"#utility.yul\":3091:3100   */\n      dup3\n        /* \"#utility.yul\":3087:3106   */\n      add\n        /* \"#utility.yul\":3079:3106   */\n      swap1\n      pop\n        /* \"#utility.yul\":3116:3187   */\n      tag_134\n        /* \"#utility.yul\":3184:3185   */\n      0x00\n        /* \"#utility.yul\":3173:3182   */\n      dup4\n        /* \"#utility.yul\":3169:3186   */\n      add\n        /* \"#utility.yul\":3160:3166   */\n      dup8\n        /* \"#utility.yul\":3116:3187   */\n      tag_61\n      jump\t// in\n    tag_134:\n        /* \"#utility.yul\":3234:3243   */\n      dup2\n        /* \"#utility.yul\":3228:3232   */\n      dup2\n        /* \"#utility.yul\":3224:3244   */\n      sub\n        /* \"#utility.yul\":3219:3221   */\n      0x20\n        /* \"#utility.yul\":3208:3217   */\n      dup4\n        /* \"#utility.yul\":3204:3222   */\n      add\n        /* \"#utility.yul\":3197:3245   */\n      mstore\n        /* \"#utility.yul\":3262:3340   */\n      tag_135\n        /* \"#utility.yul\":3335:3339   */\n      dup2\n        /* \"#utility.yul\":3326:3332   */\n      dup7\n        /* \"#utility.yul\":3262:3340   */\n      tag_66\n      jump\t// in\n    tag_135:\n        /* \"#utility.yul\":3254:3340   */\n      swap1\n      pop\n        /* \"#utility.yul\":3387:3396   */\n      dup2\n        /* \"#utility.yul\":3381:3385   */\n      dup2\n        /* \"#utility.yul\":3377:3397   */\n      sub\n        /* \"#utility.yul\":3372:3374   */\n      0x40\n        /* \"#utility.yul\":3361:3370   */\n      dup4\n        /* \"#utility.yul\":3357:3375   */\n      add\n        /* \"#utility.yul\":3350:3398   */\n      mstore\n        /* \"#utility.yul\":3415:3493   */\n      tag_136\n        /* \"#utility.yul\":3488:3492   */\n      dup2\n        /* \"#utility.yul\":3479:3485   */\n      dup6\n        /* \"#utility.yul\":3415:3493   */\n      tag_66\n      jump\t// in\n    tag_136:\n        /* \"#utility.yul\":3407:3493   */\n      swap1\n      pop\n        /* \"#utility.yul\":3503:3588   */\n      tag_137\n        /* \"#utility.yul\":3584:3586   */\n      0x60\n        /* \"#utility.yul\":3573:3582   */\n      dup4\n        /* \"#utility.yul\":3569:3587   */\n      add\n        /* \"#utility.yul\":3560:3566   */\n      dup5\n        /* \"#utility.yul\":3503:3588   */\n      tag_70\n      jump\t// in\n    tag_137:\n        /* \"#utility.yul\":2834:3595   */\n      swap6\n      swap5\n      pop\n      pop\n      pop\n      pop\n      pop\n      jump\t// out\n        /* \"#utility.yul\":3601:3718   */\n    tag_71:\n        /* \"#utility.yul\":3710:3711   */\n      0x00\n        /* \"#utility.yul\":3707:3708   */\n      0x00\n        /* \"#utility.yul\":3700:3712   */\n      revert\n        /* \"#utility.yul\":3724:3841   */\n    tag_72:\n        /* \"#utility.yul\":3833:3834   */\n      0x00\n        /* \"#utility.yul\":3830:3831   */\n      0x00\n        /* \"#utility.yul\":3823:3835   */\n      revert\n        /* \"#utility.yul\":3847:4027   */\n    tag_73:\n        /* \"#utility.yul\":3895:3972   */\n      0x4e487b7100000000000000000000000000000000000000000000000000000000\n        /* \"#utility.yul\":3892:3893   */\n      0x00\n        /* \"#utility.yul\":3885:3973   */\n      mstore\n        /* \"#utility.yul\":3992:3996   */\n      0x41\n        /* \"#utility.yul\":3989:3990   */\n      0x04\n        /* \"#utility.yul\":3982:3997   */\n      mstore\n        /* \"#utility.yul\":4016:4020   */\n      0x24\n        /* \"#utility.yul\":4013:4014   */\n      0x00\n        /* \"#utility.yul\":4006:4021   */\n      revert\n        /* \"#utility.yul\":4033:4314   */\n    tag_74:\n        /* \"#utility.yul\":4116:4143   */\n      tag_142\n        /* \"#utility.yul\":4138:4142   */\n      dup3\n        /* \"#utility.yul\":4116:4143   */\n      tag_65\n      jump\t// in\n    tag_142:\n        /* \"#utility.yul\":4108:4114   */\n      dup2\n        /* \"#utility.yul\":4104:4144   */\n      add\n        /* \"#utility.yul\":4246:4252   */\n      dup2\n        /* \"#utility.yul\":4234:4244   */\n      dup2\n        /* \"#utility.yul\":4231:4253   */\n      lt\n        /* \"#utility.yul\":4210:4228   */\n      0xffffffffffffffff\n        /* \"#utility.yul\":4198:4208   */\n      dup3\n        /* \"#utility.yul\":4195:4229   */\n      gt\n        /* \"#utility.yul\":4192:4254   */\n      or\n        /* \"#utility.yul\":4189:4277   */\n      iszero\n      tag_143\n      jumpi\n        /* \"#utility.yul\":4257:4275   */\n      tag_144\n      tag_73\n      jump\t// in\n    tag_144:\n        /* \"#utility.yul\":4189:4277   */\n    tag_143:\n        /* \"#utility.yul\":4297:4307   */\n      dup1\n        /* \"#utility.yul\":4293:4295   */\n      0x40\n        /* \"#utility.yul\":4286:4308   */\n      mstore\n        /* \"#utility.yul\":4076:4314   */\n      pop\n        /* \"#utility.yul\":4033:4314   */\n      pop\n      pop\n      jump\t// out\n        /* \"#utility.yul\":4320:4449   */\n    tag_75:\n        /* \"#utility.yul\":4354:4360   */\n      0x00\n        /* \"#utility.yul\":4381:4401   */\n      tag_146\n      tag_55\n      jump\t// in\n    tag_146:\n        /* \"#utility.yul\":4371:4401   */\n      swap1\n      pop\n        /* \"#utility.yul\":4410:4443   */\n      tag_147\n        /* \"#utility.yul\":4438:4442   */\n      dup3\n        /* \"#utility.yul\":4430:4436   */\n      dup3\n        /* \"#utility.yul\":4410:4443   */\n      tag_74\n      jump\t// in\n    tag_147:\n        /* \"#utility.yul\":4320:4449   */\n      swap2\n      swap1\n      pop\n      jump\t// out\n        /* \"#utility.yul\":4455:4763   */\n    tag_76:\n        /* \"#utility.yul\":4517:4521   */\n      0x00\n        /* \"#utility.yul\":4607:4625   */\n      0xffffffffffffffff\n        /* \"#utility.yul\":4599:4605   */\n      dup3\n        /* \"#utility.yul\":4596:4626   */\n      gt\n        /* \"#utility.yul\":4593:4649   */\n      iszero\n      tag_149\n      jumpi\n        /* \"#utility.yul\":4629:4647   */\n      tag_150\n      tag_73\n      jump\t// in\n    tag_150:\n        /* \"#utility.yul\":4593:4649   */\n    tag_149:\n        /* \"#utility.yul\":4667:4696   */\n      tag_151\n        /* \"#utility.yul\":4689:4695   */\n      dup3\n        /* \"#utility.yul\":4667:4696   */\n      tag_65\n      jump\t// in\n    tag_151:\n        /* \"#utility.yul\":4659:4696   */\n      swap1\n      pop\n        /* \"#utility.yul\":4751:4755   */\n      0x20\n        /* \"#utility.yul\":4745:4749   */\n      dup2\n        /* \"#utility.yul\":4741:4756   */\n      add\n        /* \"#utility.yul\":4733:4756   */\n      swap1\n      pop\n        /* \"#utility.yul\":4455:4763   */\n      swap2\n      swap1\n      pop\n      jump\t// out\n        /* \"#utility.yul\":4769:4917   */\n    tag_77:\n        /* \"#utility.yul\":4867:4873   */\n      dup3\n        /* \"#utility.yul\":4862:4865   */\n      dup2\n        /* \"#utility.yul\":4857:4860   */\n      dup4\n        /* \"#utility.yul\":4844:4874   */\n      calldatacopy\n        /* \"#utility.yul\":4908:4909   */\n      0x00\n        /* \"#utility.yul\":4899:4905   */\n      dup4\n        /* \"#utility.yul\":4894:4897   */\n      dup4\n        /* \"#utility.yul\":4890:4906   */\n      add\n        /* \"#utility.yul\":4883:4910   */\n      mstore\n        /* \"#utility.yul\":4769:4917   */\n      pop\n      pop\n      pop\n      jump\t// out\n        /* \"#utility.yul\":4923:5348   */\n    tag_78:\n        /* \"#utility.yul\":5001:5006   */\n      0x00\n        /* \"#utility.yul\":5026:5092   */\n      tag_154\n        /* \"#utility.yul\":5042:5091   */\n      tag_155\n        /* \"#utility.yul\":5084:5090   */\n      dup5\n        /* \"#utility.yul\":5042:5091   */\n      tag_76\n      jump\t// in\n    tag_155:\n        /* \"#utility.yul\":5026:5092   */\n      tag_75\n      jump\t// in\n    tag_154:\n        /* \"#utility.yul\":5017:5092   */\n      swap1\n      pop\n        /* \"#utility.yul\":5115:5121   */\n      dup3\n        /* \"#utility.yul\":5108:5113   */\n      dup2\n        /* \"#utility.yul\":5101:5122   */\n      mstore\n        /* \"#utility.yul\":5153:5157   */\n      0x20\n        /* \"#utility.yul\":5146:5151   */\n      dup2\n        /* \"#utility.yul\":5142:5158   */\n      add\n        /* \"#utility.yul\":5191:5194   */\n      dup5\n        /* \"#utility.yul\":5182:5188   */\n      dup5\n        /* \"#utility.yul\":5177:5180   */\n      dup5\n        /* \"#utility.yul\":5173:5189   */\n      add\n        /* \"#utility.yul\":5170:5195   */\n      gt\n        /* \"#utility.yul\":5167:5279   */\n      iszero\n      tag_156\n      jumpi\n        /* \"#utility.yul\":5198:5277   */\n      tag_157\n      tag_72\n      jump\t// in\n    tag_157:\n        /* \"#utility.yul\":5167:5279   */\n    tag_156:\n        /* \"#utility.yul\":5288:5342   */\n      tag_158\n        /* \"#utility.yul\":5335:5341   */\n      dup5\n        /* \"#utility.yul\":5330:5333   */\n      dup3\n        /* \"#utility.yul\":5325:5328   */\n      dup6\n        /* \"#utility.yul\":5288:5342   */\n      tag_77\n      jump\t// in\n    tag_158:\n        /* \"#utility.yul\":5007:5348   */\n      pop\n        /* \"#utility.yul\":4923:5348   */\n      swap4\n      swap3\n      pop\n      pop\n      pop\n      jump\t// out\n        /* \"#utility.yul\":5368:5708   */\n    tag_79:\n        /* \"#utility.yul\":5424:5429   */\n      0x00\n        /* \"#utility.yul\":5473:5476   */\n      dup3\n        /* \"#utility.yul\":5466:5470   */\n      0x1f\n        /* \"#utility.yul\":5458:5464   */\n      dup4\n        /* \"#utility.yul\":5454:5471   */\n      add\n        /* \"#utility.yul\":5450:5477   */\n      slt\n        /* \"#utility.yul\":5440:5562   */\n      tag_160\n      jumpi\n        /* \"#utility.yul\":5481:5560   */\n      tag_161\n      tag_71\n      jump\t// in\n    tag_161:\n        /* \"#utility.yul\":5440:5562   */\n    tag_160:\n        /* \"#utility.yul\":5598:5604   */\n      dup2\n        /* \"#utility.yul\":5585:5605   */\n      calldataload\n        /* \"#utility.yul\":5623:5702   */\n      tag_162\n        /* \"#utility.yul\":5698:5701   */\n      dup5\n        /* \"#utility.yul\":5690:5696   */\n      dup3\n        /* \"#utility.yul\":5683:5687   */\n      0x20\n        /* \"#utility.yul\":5675:5681   */\n      dup7\n        /* \"#utility.yul\":5671:5688   */\n      add\n        /* \"#utility.yul\":5623:5702   */\n      tag_78\n      jump\t// in\n    tag_162:\n        /* \"#utility.yul\":5614:5702   */\n      swap2\n      pop\n        /* \"#utility.yul\":5430:5708   */\n      pop\n        /* \"#utility.yul\":5368:5708   */\n      swap3\n      swap2\n      pop\n      pop\n      jump\t// out\n        /* \"#utility.yul\":5714:5828   */\n    tag_80:\n        /* \"#utility.yul\":5802:5803   */\n      0x02\n        /* \"#utility.yul\":5795:5800   */\n      dup2\n        /* \"#utility.yul\":5792:5804   */\n      lt\n        /* \"#utility.yul\":5782:5822   */\n      tag_164\n      jumpi\n        /* \"#utility.yul\":5818:5819   */\n      0x00\n        /* \"#utility.yul\":5815:5816   */\n      0x00\n        /* \"#utility.yul\":5808:5820   */\n      revert\n        /* \"#utility.yul\":5782:5822   */\n    tag_164:\n        /* \"#utility.yul\":5714:5828   */\n      pop\n      jump\t// out\n        /* \"#utility.yul\":5834:6003   */\n    tag_81:\n        /* \"#utility.yul\":5895:5900   */\n      0x00\n        /* \"#utility.yul\":5933:5939   */\n      dup2\n        /* \"#utility.yul\":5920:5940   */\n      calldataload\n        /* \"#utility.yul\":5911:5940   */\n      swap1\n      pop\n        /* \"#utility.yul\":5949:5997   */\n      tag_166\n        /* \"#utility.yul\":5991:5996   */\n      dup2\n        /* \"#utility.yul\":5949:5997   */\n      tag_80\n      jump\t// in\n    tag_166:\n        /* \"#utility.yul\":5834:6003   */\n      swap3\n      swap2\n      pop\n      pop\n      jump\t// out\n        /* \"#utility.yul\":6009:7164   */\n    tag_18:\n        /* \"#utility.yul\":6130:6136   */\n      0x00\n        /* \"#utility.yul\":6138:6144   */\n      0x00\n        /* \"#utility.yul\":6146:6152   */\n      0x00\n        /* \"#utility.yul\":6154:6160   */\n      0x00\n        /* \"#utility.yul\":6203:6206   */\n      0x80\n        /* \"#utility.yul\":6191:6200   */\n      dup6\n        /* \"#utility.yul\":6182:6189   */\n      dup8\n        /* \"#utility.yul\":6178:6201   */\n      sub\n        /* \"#utility.yul\":6174:6207   */\n      slt\n        /* \"#utility.yul\":6171:6291   */\n      iszero\n      tag_168\n      jumpi\n        /* \"#utility.yul\":6210:6289   */\n      tag_169\n      tag_56\n      jump\t// in\n    tag_169:\n        /* \"#utility.yul\":6171:6291   */\n    tag_168:\n        /* \"#utility.yul\":6330:6331   */\n      0x00\n        /* \"#utility.yul\":6355:6408   */\n      tag_170\n        /* \"#utility.yul\":6400:6407   */\n      dup8\n        /* \"#utility.yul\":6391:6397   */\n      dup3\n        /* \"#utility.yul\":6380:6389   */\n      dup9\n        /* \"#utility.yul\":6376:6398   */\n      add\n        /* \"#utility.yul\":6355:6408   */\n      tag_60\n      jump\t// in\n    tag_170:\n        /* \"#utility.yul\":6345:6408   */\n      swap5\n      pop\n        /* \"#utility.yul\":6301:6418   */\n      pop\n        /* \"#utility.yul\":6485:6487   */\n      0x20\n        /* \"#utility.yul\":6474:6483   */\n      dup6\n        /* \"#utility.yul\":6470:6488   */\n      add\n        /* \"#utility.yul\":6457:6489   */\n      calldataload\n        /* \"#utility.yul\":6516:6534   */\n      0xffffffffffffffff\n        /* \"#utility.yul\":6508:6514   */\n      dup2\n        /* \"#utility.yul\":6505:6535   */\n      gt\n        /* \"#utility.yul\":6502:6619   */\n      iszero\n      tag_171\n      jumpi\n        /* \"#utility.yul\":6538:6617   */\n      tag_172\n      tag_57\n      jump\t// in\n    tag_172:\n        /* \"#utility.yul\":6502:6619   */\n    tag_171:\n        /* \"#utility.yul\":6643:6706   */\n      tag_173\n        /* \"#utility.yul\":6698:6705   */\n      dup8\n        /* \"#utility.yul\":6689:6695   */\n      dup3\n        /* \"#utility.yul\":6678:6687   */\n      dup9\n        /* \"#utility.yul\":6674:6696   */\n      add\n        /* \"#utility.yul\":6643:6706   */\n      tag_79\n      jump\t// in\n    tag_173:\n        /* \"#utility.yul\":6633:6706   */\n      swap4\n      pop\n        /* \"#utility.yul\":6428:6716   */\n      pop\n        /* \"#utility.yul\":6783:6785   */\n      0x40\n        /* \"#utility.yul\":6772:6781   */\n      dup6\n        /* \"#utility.yul\":6768:6786   */\n      add\n        /* \"#utility.yul\":6755:6787   */\n      calldataload\n        /* \"#utility.yul\":6814:6832   */\n      0xffffffffffffffff\n        /* \"#utility.yul\":6806:6812   */\n      dup2\n        /* \"#utility.yul\":6803:6833   */\n      gt\n        /* \"#utility.yul\":6800:6917   */\n      iszero\n      tag_174\n      jumpi\n        /* \"#utility.yul\":6836:6915   */\n      tag_175\n      tag_57\n      jump\t// in\n    tag_175:\n        /* \"#utility.yul\":6800:6917   */\n    tag_174:\n        /* \"#utility.yul\":6941:7004   */\n      tag_176\n        /* \"#utility.yul\":6996:7003   */\n      dup8\n        /* \"#utility.yul\":6987:6993   */\n      dup3\n        /* \"#utility.yul\":6976:6985   */\n      dup9\n        /* \"#utility.yul\":6972:6994   */\n      add\n        /* \"#utility.yul\":6941:7004   */\n      tag_79\n      jump\t// in\n    tag_176:\n        /* \"#utility.yul\":6931:7004   */\n      swap3\n      pop\n        /* \"#utility.yul\":6726:7014   */\n      pop\n        /* \"#utility.yul\":7053:7055   */\n      0x60\n        /* \"#utility.yul\":7079:7147   */\n      tag_177\n        /* \"#utility.yul\":7139:7146   */\n      dup8\n        /* \"#utility.yul\":7130:7136   */\n      dup3\n        /* \"#utility.yul\":7119:7128   */\n      dup9\n        /* \"#utility.yul\":7115:7137   */\n      add\n        /* \"#utility.yul\":7079:7147   */\n      tag_81\n      jump\t// in\n    tag_177:\n        /* \"#utility.yul\":7069:7147   */\n      swap2\n      pop\n        /* \"#utility.yul\":7024:7157   */\n      pop\n        /* \"#utility.yul\":6009:7164   */\n      swap3\n      swap6\n      swap2\n      swap5\n      pop\n      swap3\n      pop\n      jump\t// out\n        /* \"#utility.yul\":7170:7350   */\n    tag_82:\n        /* \"#utility.yul\":7218:7295   */\n      0x4e487b7100000000000000000000000000000000000000000000000000000000\n        /* \"#utility.yul\":7215:7216   */\n      0x00\n        /* \"#utility.yul\":7208:7296   */\n      mstore\n        /* \"#utility.yul\":7315:7319   */\n      0x22\n        /* \"#utility.yul\":7312:7313   */\n      0x04\n        /* \"#utility.yul\":7305:7320   */\n      mstore\n        /* \"#utility.yul\":7339:7343   */\n      0x24\n        /* \"#utility.yul\":7336:7337   */\n      0x00\n        /* \"#utility.yul\":7329:7344   */\n      revert\n        /* \"#utility.yul\":7356:7676   */\n    tag_22:\n        /* \"#utility.yul\":7400:7406   */\n      0x00\n        /* \"#utility.yul\":7437:7438   */\n      0x02\n        /* \"#utility.yul\":7431:7435   */\n      dup3\n        /* \"#utility.yul\":7427:7439   */\n      div\n        /* \"#utility.yul\":7417:7439   */\n      swap1\n      pop\n        /* \"#utility.yul\":7484:7485   */\n      0x01\n        /* \"#utility.yul\":7478:7482   */\n      dup3\n        /* \"#utility.yul\":7474:7486   */\n      and\n        /* \"#utility.yul\":7505:7523   */\n      dup1\n        /* \"#utility.yul\":7495:7576   */\n      tag_180\n      jumpi\n        /* \"#utility.yul\":7561:7565   */\n      0x7f\n        /* \"#utility.yul\":7553:7559   */\n      dup3\n        /* \"#utility.yul\":7549:7566   */\n      and\n        /* \"#utility.yul\":7539:7566   */\n      swap2\n      pop\n        /* \"#utility.yul\":7495:7576   */\n    tag_180:\n        /* \"#utility.yul\":7623:7625   */\n      0x20\n        /* \"#utility.yul\":7615:7621   */\n      dup3\n        /* \"#utility.yul\":7612:7626   */\n      lt\n        /* \"#utility.yul\":7592:7610   */\n      dup2\n        /* \"#utility.yul\":7589:7627   */\n      sub\n        /* \"#utility.yul\":7586:7670   */\n      tag_181\n      jumpi\n        /* \"#utility.yul\":7642:7660   */\n      tag_182\n      tag_82\n      jump\t// in\n    tag_182:\n        /* \"#utility.yul\":7586:7670   */\n    tag_181:\n        /* \"#utility.yul\":7407:7676   */\n      pop\n        /* \"#utility.yul\":7356:7676   */\n      swap2\n      swap1\n      pop\n      jump\t// out\n        /* \"#utility.yul\":7682:7823   */\n    tag_83:\n        /* \"#utility.yul\":7731:7735   */\n      0x00\n        /* \"#utility.yul\":7754:7757   */\n      dup2\n        /* \"#utility.yul\":7746:7757   */\n      swap1\n      pop\n        /* \"#utility.yul\":7777:7780   */\n      dup2\n        /* \"#utility.yul\":7774:7775   */\n      0x00\n        /* \"#utility.yul\":7767:7781   */\n      mstore\n        /* \"#utility.yul\":7811:7815   */\n      0x20\n        /* \"#utility.yul\":7808:7809   */\n      0x00\n        /* \"#utility.yul\":7798:7816   */\n      keccak256\n        /* \"#utility.yul\":7790:7816   */\n      swap1\n      pop\n        /* \"#utility.yul\":7682:7823   */\n      swap2\n      swap1\n      pop\n      jump\t// out\n        /* \"#utility.yul\":7829:7922   */\n    tag_84:\n        /* \"#utility.yul\":7866:7872   */\n      0x00\n        /* \"#utility.yul\":7913:7915   */\n      0x20\n        /* \"#utility.yul\":7908:7910   */\n      0x1f\n        /* \"#utility.yul\":7901:7906   */\n      dup4\n        /* \"#utility.yul\":7897:7911   */\n      add\n        /* \"#utility.yul\":7893:7916   */\n      div\n        /* \"#utility.yul\":7883:7916   */\n      swap1\n      pop\n        /* \"#utility.yul\":7829:7922   */\n      swap2\n      swap1\n      pop\n      jump\t// out\n        /* \"#utility.yul\":7928:8035   */\n    tag_85:\n        /* \"#utility.yul\":7972:7980   */\n      0x00\n        /* \"#utility.yul\":8022:8027   */\n      dup3\n        /* \"#utility.yul\":8016:8020   */\n      dup3\n        /* \"#utility.yul\":8012:8028   */\n      shl\n        /* \"#utility.yul\":7991:8028   */\n      swap1\n      pop\n        /* \"#utility.yul\":7928:8035   */\n      swap3\n      swap2\n      pop\n      pop\n      jump\t// out\n        /* \"#utility.yul\":8041:8434   */\n    tag_86:\n        /* \"#utility.yul\":8110:8116   */\n      0x00\n        /* \"#utility.yul\":8160:8161   */\n      0x08\n        /* \"#utility.yul\":8148:8158   */\n      dup4\n        /* \"#utility.yul\":8144:8162   */\n      mul\n        /* \"#utility.yul\":8183:8280   */\n      tag_187\n        /* \"#utility.yul\":8213:8279   */\n      0xffffffffffffffffffffffffffffffffffffffffffffffffffffffffffffffff\n        /* \"#utility.yul\":8202:8211   */\n      dup3\n        /* \"#utility.yul\":8183:8280   */\n      tag_85\n      jump\t// in\n    tag_187:\n        /* \"#utility.yul\":8301:8340   */\n      tag_188\n        /* \"#utility.yul\":8331:8339   */\n      dup7\n        /* \"#utility.yul\":8320:8329   */\n      dup4\n        /* \"#utility.yul\":8301:8340   */\n      tag_85\n      jump\t// in\n    tag_188:\n        /* \"#utility.yul\":8289:8340   */\n      swap6\n      pop\n        /* \"#utility.yul\":8373:8377   */\n      dup1\n        /* \"#utility.yul\":8369:8378   */\n      not\n        /* \"#utility.yul\":8362:8367   */\n      dup5\n        /* \"#utility.yul\":8358:8379   */\n      and\n        /* \"#utility.yul\":8349:8379   */\n      swap4\n      pop\n        /* \"#utility.yul\":8422:8426   */\n      dup1\n        /* \"#utility.yul\":8412:8420   */\n      dup7\n        /* \"#utility.yul\":8408:8427   */\n      and\n        /* \"#utility.yul\":8401:8406   */\n      dup5\n        /* \"#utility.yul\":8398:8428   */\n      or\n        /* \"#utility.yul\":8388:8428   */\n      swap3\n      pop\n        /* \"#utility.yul\":8117:8434   */\n      pop\n      pop\n        /* \"#utility.yul\":8041:8434   */\n      swap4\n      swap3\n      pop\n      pop\n      pop\n      jump\t// out\n        /* \"#utility.yul\":8440:8500   */\n    tag_87:\n        /* \"#utility.yul\":8468:8471   */\n      0x00\n        /* \"#utility.yul\":8489:8494   */\n      dup2\n        /* \"#utility.yul\":8482:8494   */\n      swap1\n      pop\n        /* \"#utility.yul\":8440:8500   */\n      swap2\n      swap1\n      pop\n      jump\t// out\n        /* \"#utility.yul\":8506:8648   */\n    tag_88:\n        /* \"#utility.yul\":8556:8565   */\n      0x00\n        /* \"#utility.yul\":8589:8642   */\n      tag_191\n        /* \"#utility.yul\":8607:8641   */\n      tag_192\n        /* \"#utility.yul\":8616:8640   */\n      tag_193\n        /* \"#utility.yul\":8634:8639   */\n      dup5\n        /* \"#utility.yul\":8616:8640   */\n      tag_58\n      jump\t// in\n    tag_193:\n        /* \"#utility.yul\":8607:8641   */\n      tag_87\n      jump\t// in\n    tag_192:\n        /* \"#utility.yul\":8589:8642   */\n      tag_58\n      jump\t// in\n    tag_191:\n        /* \"#utility.yul\":8576:8642   */\n      swap1\n      pop\n        /* \"#utility.yul\":8506:8648   */\n      swap2\n      swap1\n      pop\n      jump\t// out\n        /* \"#utility.yul\":8654:8729   */\n    tag_89:\n        /* \"#utility.yul\":8697:8700   */\n      0x00\n        /* \"#utility.yul\":8718:8723   */\n      dup2\n        /* \"#utility.yul\":8711:8723   */\n      swap1\n      pop\n        /* \"#utility.yul\":8654:8729   */\n      swap2\n      swap1\n      pop\n      jump\t// out\n        /* \"#utility.yul\":8735:9004   */\n    tag_90:\n        /* \"#utility.yul\":8845:8884   */\n      tag_196\n        /* \"#utility.yul\":8876:8883   */\n      dup4\n        /* \"#utility.yul\":8845:8884   */\n      tag_88\n      jump\t// in\n    tag_196:\n        /* \"#utility.yul\":8906:8997   */\n      tag_197\n        /* \"#utility.yul\":8955:8996   */\n      tag_198\n        /* \"#utility.yul\":8979:8995   */\n      dup3\n        /* \"#utility.yul\":8955:8996   */\n      tag_89\n      jump\t// in\n    tag_198:\n        /* \"#utility.yul\":8947:8953   */\n      dup5\n        /* \"#utility.yul\":8940:8944   */\n      dup5\n        /* \"#utility.yul\":8934:8945   */\n      sload\n        /* \"#utility.yul\":8906:8997   */\n      tag_86\n      jump\t// in\n    tag_197:\n        /* \"#utility.yul\":8900:8904   */\n      dup3\n        /* \"#utility.yul\":8893:8998   */\n      sstore\n        /* \"#utility.yul\":8811:9004   */\n      pop\n        /* \"#utility.yul\":8735:9004   */\n      pop\n      pop\n      pop\n      jump\t// out\n        /* \"#utility.yul\":9010:9083   */\n    tag_91:\n        /* \"#utility.yul\":9055:9058   */\n      0x00\n        /* \"#utility.yul\":9076:9077   */\n      0x00\n        /* \"#utility.yul\":9069:9077   */\n      swap1\n      pop\n        /* \"#utility.yul\":9010:9083   */\n      swap1\n      jump\t// out\n        /* \"#utility.yul\":9089:9278   */\n    tag_92:\n        /* \"#utility.yul\":9166:9198   */\n      tag_201\n      tag_91\n      jump\t// in\n    tag_201:\n        /* \"#utility.yul\":9207:9272   */\n      tag_202\n        /* \"#utility.yul\":9265:9271   */\n      dup2\n        /* \"#utility.yul\":9257:9263   */\n      dup5\n        /* \"#utility.yul\":9251:9255   */\n      dup5\n        /* \"#utility.yul\":9207:9272   */\n      tag_90\n      jump\t// in\n    tag_202:\n        /* \"#utility.yul\":9142:9278   */\n      pop\n        /* \"#utility.yul\":9089:9278   */\n      pop\n      pop\n      jump\t// out\n        /* \"#utility.yul\":9284:9470   */\n    tag_93:\n        /* \"#utility.yul\":9344:9464   */\n    tag_204:\n        /* \"#utility.yul\":9361:9364   */\n      dup2\n        /* \"#utility.yul\":9354:9359   */\n      dup2\n        /* \"#utility.yul\":9351:9365   */\n      lt\n        /* \"#utility.yul\":9344:9464   */\n      iszero\n      tag_206\n      jumpi\n        /* \"#utility.yul\":9415:9454   */\n      tag_207\n        /* \"#utility.yul\":9452:9453   */\n      0x00\n        /* \"#utility.yul\":9445:9450   */\n      dup3\n        /* \"#utility.yul\":9415:9454   */\n      tag_92\n      jump\t// in\n    tag_207:\n        /* \"#utility.yul\":9388:9389   */\n      0x01\n        /* \"#utility.yul\":9381:9386   */\n      dup2\n        /* \"#utility.yul\":9377:9390   */\n      add\n        /* \"#utility.yul\":9368:9390   */\n      swap1\n      pop\n        /* \"#utility.yul\":9344:9464   */\n      jump(tag_204)\n    tag_206:\n        /* \"#utility.yul\":9284:9470   */\n      pop\n      pop\n      jump\t// out\n        /* \"#utility.yul\":9476:10019   */\n    tag_94:\n        /* \"#utility.yul\":9577:9579   */\n      0x1f\n        /* \"#utility.yul\":9572:9575   */\n      dup3\n        /* \"#utility.yul\":9569:9580   */\n      gt\n        /* \"#utility.yul\":9566:10012   */\n      iszero\n      tag_209\n      jumpi\n        /* \"#utility.yul\":9611:9649   */\n      tag_210\n        /* \"#utility.yul\":9643:9648   */\n      dup2\n        /* \"#utility.yul\":9611:9649   */\n      tag_83\n      jump\t// in\n    tag_210:\n        /* \"#utility.yul\":9695:9724   */\n      tag_211\n        /* \"#utility.yul\":9713:9723   */\n      dup5\n        /* \"#utility.yul\":9695:9724   */\n      tag_84\n      jump\t// in\n    tag_211:\n        /* \"#utility.yul\":9685:9693   */\n      dup2\n        /* \"#utility.yul\":9681:9725   */\n      add\n        /* \"#utility.yul\":9878:9880   */\n      0x20\n        /* \"#utility.yul\":9866:9876   */\n      dup6\n        /* \"#utility.yul\":9863:9881   */\n      lt\n        /* \"#utility.yul\":9860:9909   */\n      iszero\n      tag_212\n      jumpi\n        /* \"#utility.yul\":9899:9907   */\n      dup2\n        /* \"#utility.yul\":9884:9907   */\n      swap1\n      pop\n        /* \"#utility.yul\":9860:9909   */\n    tag_212:\n        /* \"#utility.yul\":9922:10002   */\n      tag_213\n        /* \"#utility.yul\":9978:10000   */\n      tag_214\n        /* \"#utility.yul\":9996:9999   */\n      dup6\n        /* \"#utility.yul\":9978:10000   */\n      tag_84\n      jump\t// in\n    tag_214:\n        /* \"#utility.yul\":9968:9976   */\n      dup4\n        /* \"#utility.yul\":9964:10001   */\n      add\n        /* \"#utility.yul\":9951:9962   */\n      dup3\n        /* \"#utility.yul\":9922:10002   */\n      tag_93\n      jump\t// in\n    tag_213:\n        /* \"#utility.yul\":9581:10012   */\n      pop\n      pop\n        /* \"#utility.yul\":9566:10012   */\n    tag_209:\n        /* \"#utility.yul\":9476:10019   */\n      pop\n      pop\n      pop\n      jump\t// out\n        /* \"#utility.yul\":10025:10142   */\n    tag_95:\n        /* \"#utility.yul\":10079:10087   */\n      0x00\n        /* \"#utility.yul\":10129:10134   */\n      dup3\n        /* \"#utility.yul\":10123:10127   */\n      dup3\n        /* \"#utility.yul\":10119:10135   */\n      shr\n        /* \"#utility.yul\":10098:10135   */\n      swap1\n      pop\n        /* \"#utility.yul\":10025:10142   */\n      swap3\n      swap2\n      pop\n      pop\n      jump\t// out\n        /* \"#utility.yul\":10148:10317   */\n    tag_96:\n        /* \"#utility.yul\":10192:10198   */\n      0x00\n        /* \"#utility.yul\":10225:10276   */\n      tag_217\n        /* \"#utility.yul\":10273:10274   */\n      0x00\n        /* \"#utility.yul\":10269:10275   */\n      not\n        /* \"#utility.yul\":10261:10266   */\n      dup5\n        /* \"#utility.yul\":10258:10259   */\n      0x08\n        /* \"#utility.yul\":10254:10267   */\n      mul\n        /* \"#utility.yul\":10225:10276   */\n      tag_95\n      jump\t// in\n    tag_217:\n        /* \"#utility.yul\":10221:10277   */\n      not\n        /* \"#utility.yul\":10306:10310   */\n      dup1\n        /* \"#utility.yul\":10300:10304   */\n      dup4\n        /* \"#utility.yul\":10296:10311   */\n      and\n        /* \"#utility.yul\":10286:10311   */\n      swap2\n      pop\n        /* \"#utility.yul\":10199:10317   */\n      pop\n        /* \"#utility.yul\":10148:10317   */\n      swap3\n      swap2\n      pop\n      pop\n      jump\t// out\n        /* \"#utility.yul\":10322:10617   */\n    tag_97:\n        /* \"#utility.yul\":10398:10402   */\n      0x00\n        /* \"#utility.yul\":10544:10573   */\n      tag_219\n        /* \"#utility.yul\":10569:10572   */\n      dup4\n        /* \"#utility.yul\":10563:10567   */\n      dup4\n        /* \"#utility.yul\":10544:10573   */\n      tag_96\n      jump\t// in\n    tag_219:\n        /* \"#utility.yul\":10536:10573   */\n      swap2\n      pop\n        /* \"#utility.yul\":10606:10609   */\n      dup3\n        /* \"#utility.yul\":10603:10604   */\n      0x02\n        /* \"#utility.yul\":10599:10610   */\n      mul\n        /* \"#utility.yul\":10593:10597   */\n      dup3\n        /* \"#utility.yul\":10590:10611   */\n      or\n        /* \"#utility.yul\":10582:10611   */\n      swap1\n      pop\n        /* \"#utility.yul\":10322:10617   */\n      swap3\n      swap2\n      pop\n      pop\n      jump\t// out\n        /* \"#utility.yul\":10622:12017   */\n    tag_51:\n        /* \"#utility.yul\":10739:10776   */\n      tag_221\n        /* \"#utility.yul\":10772:10775   */\n      dup3\n        /* \"#utility.yul\":10739:10776   */\n      tag_62\n      jump\t// in\n    tag_221:\n        /* \"#utility.yul\":10841:10859   */\n      0xffffffffffffffff\n        /* \"#utility.yul\":10833:10839   */\n      dup2\n        /* \"#utility.yul\":10830:10860   */\n      gt\n        /* \"#utility.yul\":10827:10883   */\n      iszero\n      tag_222\n      jumpi\n        /* \"#utility.yul\":10863:10881   */\n      tag_223\n      tag_73\n      jump\t// in\n    tag_223:\n        /* \"#utility.yul\":10827:10883   */\n    tag_222:\n        /* \"#utility.yul\":10907:10945   */\n      tag_224\n        /* \"#utility.yul\":10939:10943   */\n      dup3\n        /* \"#utility.yul\":10933:10944   */\n      sload\n        /* \"#utility.yul\":10907:10945   */\n      tag_22\n      jump\t// in\n    tag_224:\n        /* \"#utility.yul\":10992:11059   */\n      tag_225\n        /* \"#utility.yul\":11052:11058   */\n      dup3\n        /* \"#utility.yul\":11044:11050   */\n      dup3\n        /* \"#utility.yul\":11038:11042   */\n      dup6\n        /* \"#utility.yul\":10992:11059   */\n      tag_94\n      jump\t// in\n    tag_225:\n        /* \"#utility.yul\":11086:11087   */\n      0x00\n        /* \"#utility.yul\":11110:11114   */\n      0x20\n        /* \"#utility.yul\":11097:11114   */\n      swap1\n      pop\n        /* \"#utility.yul\":11142:11144   */\n      0x1f\n        /* \"#utility.yul\":11134:11140   */\n      dup4\n        /* \"#utility.yul\":11131:11145   */\n      gt\n        /* \"#utility.yul\":11159:11160   */\n      0x01\n        /* \"#utility.yul\":11154:11772   */\n      dup2\n      eq\n      tag_227\n      jumpi\n        /* \"#utility.yul\":11816:11817   */\n      0x00\n        /* \"#utility.yul\":11833:11839   */\n      dup5\n        /* \"#utility.yul\":11830:11907   */\n      iszero\n      tag_228\n      jumpi\n        /* \"#utility.yul\":11882:11891   */\n      dup3\n        /* \"#utility.yul\":11877:11880   */\n      dup8\n        /* \"#utility.yul\":11873:11892   */\n      add\n        /* \"#utility.yul\":11867:11893   */\n      mload\n        /* \"#utility.yul\":11858:11893   */\n      swap1\n      pop\n        /* \"#utility.yul\":11830:11907   */\n    tag_228:\n        /* \"#utility.yul\":11933:12000   */\n      tag_229\n        /* \"#utility.yul\":11993:11999   */\n      dup6\n        /* \"#utility.yul\":11986:11991   */\n      dup3\n        /* \"#utility.yul\":11933:12000   */\n      tag_97\n      jump\t// in\n    tag_229:\n        /* \"#utility.yul\":11927:11931   */\n      dup7\n        /* \"#utility.yul\":11920:12001   */\n      sstore\n        /* \"#utility.yul\":11789:12011   */\n      pop\n        /* \"#utility.yul\":11124:12011   */\n      jump(tag_226)\n        /* \"#utility.yul\":11154:11772   */\n    tag_227:\n        /* \"#utility.yul\":11206:11210   */\n      0x1f\n        /* \"#utility.yul\":11202:11211   */\n      not\n        /* \"#utility.yul\":11194:11200   */\n      dup5\n        /* \"#utility.yul\":11190:11212   */\n      and\n        /* \"#utility.yul\":11240:11277   */\n      tag_230\n        /* \"#utility.yul\":11272:11276   */\n      dup7\n        /* \"#utility.yul\":11240:11277   */\n      tag_83\n      jump\t// in\n    tag_230:\n        /* \"#utility.yul\":11299:11300   */\n      0x00\n        /* \"#utility.yul\":11313:11521   */\n    tag_231:\n        /* \"#utility.yul\":11327:11334   */\n      dup3\n        /* \"#utility.yul\":11324:11325   */\n      dup2\n        /* \"#utility.yul\":11321:11335   */\n      lt\n        /* \"#utility.yul\":11313:11521   */\n      iszero\n      tag_233\n      jumpi\n        /* \"#utility.yul\":11406:11415   */\n      dup5\n        /* \"#utility.yul\":11401:11404   */\n      dup10\n        /* \"#utility.yul\":11397:11416   */\n      add\n        /* \"#utility.yul\":11391:11417   */\n      mload\n        /* \"#utility.yul\":11383:11389   */\n      dup3\n        /* \"#utility.yul\":11376:11418   */\n      sstore\n        /* \"#utility.yul\":11457:11458   */\n      0x01\n        /* \"#utility.yul\":11449:11455   */\n      dup3\n        /* \"#utility.yul\":11445:11459   */\n      add\n        /* \"#utility.yul\":11435:11459   */\n      swap2\n      pop\n        /* \"#utility.yul\":11504:11506   */\n      0x20\n        /* \"#utility.yul\":11493:11502   */\n      dup6\n        /* \"#utility.yul\":11489:11507   */\n      add\n        /* \"#utility.yul\":11476:11507   */\n      swap5\n      pop\n        /* \"#utility.yul\":11350:11354   */\n      0x20\n        /* \"#utility.yul\":11347:11348   */\n      dup2\n        /* \"#utility.yul\":11343:11355   */\n      add\n        /* \"#utility.yul\":11338:11355   */\n      swap1\n      pop\n        /* \"#utility.yul\":11313:11521   */\n      jump(tag_231)\n    tag_233:\n        /* \"#utility.yul\":11549:11555   */\n      dup7\n        /* \"#utility.yul\":11540:11547   */\n      dup4\n        /* \"#utility.yul\":11537:11556   */\n      lt\n        /* \"#utility.yul\":11534:11713   */\n      iszero\n      tag_234\n      jumpi\n        /* \"#utility.yul\":11607:11616   */\n      dup5\n        /* \"#utility.yul\":11602:11605   */\n      dup10\n        /* \"#utility.yul\":11598:11617   */\n      add\n        /* \"#utility.yul\":11592:11618   */\n      mload\n        /* \"#utility.yul\":11650:11698   */\n      tag_235\n        /* \"#utility.yul\":11692:11696   */\n      0x1f\n        /* \"#utility.yul\":11684:11690   */\n      dup10\n        /* \"#utility.yul\":11680:11697   */\n      and\n        /* \"#utility.yul\":11669:11678   */\n      dup3\n        /* \"#utility.yul\":11650:11698   */\n      tag_96\n      jump\t// in\n    tag_235:\n        /* \"#utility.yul\":11642:11648   */\n      dup4\n        /* \"#utility.yul\":11635:11699   */\n      sstore\n        /* \"#utility.yul\":11557:11713   */\n      pop\n        /* \"#utility.yul\":11534:11713   */\n    tag_234:\n        /* \"#utility.yul\":11759:11760   */\n      0x01\n        /* \"#utility.yul\":11755:11756   */\n      0x02\n        /* \"#utility.yul\":11747:11753   */\n      dup9\n        /* \"#utility.yul\":11743:11757   */\n      mul\n        /* \"#utility.yul\":11739:11761   */\n      add\n        /* \"#utility.yul\":11733:11737   */\n      dup9\n        /* \"#utility.yul\":11726:11762   */\n      sstore\n        /* \"#utility.yul\":11161:11772   */\n      pop\n      pop\n      pop\n        /* \"#utility.yul\":11124:12011   */\n    tag_226:\n      pop\n        /* \"#utility.yul\":10714:12017   */\n      pop\n      pop\n      pop\n        /* \"#utility.yul\":10622:12017   */\n      pop\n      pop\n      jump\t// out\n\n    auxdata: 0xa264697066735822122010b38bdafecbfe695867d9db9677d576d785277821ff4140e334af8d1350d01f64736f6c634300081f0033\n}\n",
				"bytecode": {
					"linkReferences": {},
					"object": "6080604052348015600e575f5ffd5b50610aff8061001c5f395ff3fe608060405234801561000f575f5ffd5b506004361061003f575f3560e01c80637d3a67961461004357806393119a8314610076578063da11c330146100a9575b5f5ffd5b61005d600480360381019061005891906104a4565b6100c5565b60405161006d94939291906105c1565b60405180910390f35b610090600480360381019061008b91906104a4565b61026e565b6040516100a094939291906105c1565b60405180910390f35b6100c360048036038101906100be9190610761565b6103b1565b005b5f6060805f5f5f5f8781526020019081526020015f206040518060800160405290815f82015481526020016001820180546100ff9061082a565b80601f016020809104026020016040519081016040528092919081815260200182805461012b9061082a565b80156101765780601f1061014d57610100808354040283529160200191610176565b820191905f5260205f20905b81548152906001019060200180831161015957829003601f168201915b5050505050815260200160028201805461018f9061082a565b80601f01602080910402602001604051908101604052809291908181526020018280546101bb9061082a565b80156102065780601f106101dd57610100808354040283529160200191610206565b820191905f5260205f20905b8154815290600101906020018083116101e957829003601f168201915b50505050508152602001600382015f9054906101000a900460ff1660018111156102335761023261054e565b5b60018111156102455761024461054e565b5b815250509050805f01518160200151826040015183606001519450945094509450509193509193565b5f602052805f5260405f205f91509050805f0154908060010180546102929061082a565b80601f01602080910402602001604051908101604052809291908181526020018280546102be9061082a565b80156103095780601f106102e057610100808354040283529160200191610309565b820191905f5260205f20905b8154815290600101906020018083116102ec57829003601f168201915b50505050509080600201805461031e9061082a565b80601f016020809104026020016040519081016040528092919081815260200182805461034a9061082a565b80156103955780601f1061036c57610100808354040283529160200191610395565b820191905f5260205f20905b81548152906001019060200180831161037857829003601f168201915b505050505090806003015f9054906101000a900460ff16905084565b60405180608001604052808581526020018481526020018381526020018260018111156103e1576103e061054e565b5b8152505f5f8681526020019081526020015f205f820151815f0155602082015181600101908161041191906109fa565b50604082015181600201908161042791906109fa565b506060820151816003015f6101000a81548160ff021916908360018111156104525761045161054e565b5b021790555090505050505050565b5f604051905090565b5f5ffd5b5f5ffd5b5f819050919050565b61048381610471565b811461048d575f5ffd5b50565b5f8135905061049e8161047a565b92915050565b5f602082840312156104b9576104b8610469565b5b5f6104c684828501610490565b91505092915050565b6104d881610471565b82525050565b5f81519050919050565b5f82825260208201905092915050565b8281835e5f83830152505050565b5f601f19601f8301169050919050565b5f610520826104de565b61052a81856104e8565b935061053a8185602086016104f8565b61054381610506565b840191505092915050565b7f4e487b71000000000000000000000000000000000000000000000000000000005f52602160045260245ffd5b6002811061058c5761058b61054e565b5b50565b5f81905061059c8261057b565b919050565b5f6105ab8261058f565b9050919050565b6105bb816105a1565b82525050565b5f6080820190506105d45f8301876104cf565b81810360208301526105e68186610516565b905081810360408301526105fa8185610516565b905061060960608301846105b2565b95945050505050565b5f5ffd5b5f5ffd5b7f4e487b71000000000000000000000000000000000000000000000000000000005f52604160045260245ffd5b61065082610506565b810181811067ffffffffffffffff8211171561066f5761066e61061a565b5b80604052505050565b5f610681610460565b905061068d8282610647565b919050565b5f67ffffffffffffffff8211156106ac576106ab61061a565b5b6106b582610506565b9050602081019050919050565b828183375f83830152505050565b5f6106e26106dd84610692565b610678565b9050828152602081018484840111156106fe576106fd610616565b5b6107098482856106c2565b509392505050565b5f82601f83011261072557610724610612565b5b81356107358482602086016106d0565b91505092915050565b6002811061074a575f5ffd5b50565b5f8135905061075b8161073e565b92915050565b5f5f5f5f6080858703121561077957610778610469565b5b5f61078687828801610490565b945050602085013567ffffffffffffffff8111156107a7576107a661046d565b5b6107b387828801610711565b935050604085013567ffffffffffffffff8111156107d4576107d361046d565b5b6107e087828801610711565b92505060606107f18782880161074d565b91505092959194509250565b7f4e487b71000000000000000000000000000000000000000000000000000000005f52602260045260245ffd5b5f600282049050600182168061084157607f821691505b602082108103610854576108536107fd565b5b50919050565b5f819050815f5260205f209050919050565b5f6020601f8301049050919050565b5f82821b905092915050565b5f600883026108b67fffffffffffffffffffffffffffffffffffffffffffffffffffffffffffffffff8261087b565b6108c0868361087b565b95508019841693508086168417925050509392505050565b5f819050919050565b5f6108fb6108f66108f184610471565b6108d8565b610471565b9050919050565b5f819050919050565b610914836108e1565b61092861092082610902565b848454610887565b825550505050565b5f5f905090565b61093f610930565b61094a81848461090b565b505050565b5b8181101561096d576109625f82610937565b600181019050610950565b5050565b601f8211156109b2576109838161085a565b61098c8461086c565b8101602085101561099b578190505b6109af6109a78561086c565b83018261094f565b50505b505050565b5f82821c905092915050565b5f6109d25f19846008026109b7565b1980831691505092915050565b5f6109ea83836109c3565b9150826002028217905092915050565b610a03826104de565b67ffffffffffffffff811115610a1c57610a1b61061a565b5b610a26825461082a565b610a31828285610971565b5f60209050601f831160018114610a62575f8415610a50578287015190505b610a5a85826109df565b865550610ac1565b601f198416610a708661085a565b5f5b82811015610a9757848901518255600182019150602085019450602081019050610a72565b86831015610ab45784890151610ab0601f8916826109c3565b8355505b6001600288020188555050505b50505050505056fea264697066735822122010b38bdafecbfe695867d9db9677d576d785277821ff4140e334af8d1350d01f64736f6c634300081f0033",
					"opcodes": "PUSH1 0x80 PUSH1 0x40 MSTORE CALLVALUE DUP1 ISZERO PUSH1 0xE JUMPI PUSH0 PUSH0 REVERT JUMPDEST POP PUSH2 0xAFF DUP1 PUSH2 0x1C PUSH0 CODECOPY PUSH0 RETURN INVALID PUSH1 0x80 PUSH1 0x40 MSTORE CALLVALUE DUP1 ISZERO PUSH2 0xF JUMPI PUSH0 PUSH0 REVERT JUMPDEST POP PUSH1 0x4 CALLDATASIZE LT PUSH2 0x3F JUMPI PUSH0 CALLDATALOAD PUSH1 0xE0 SHR DUP1 PUSH4 0x7D3A6796 EQ PUSH2 0x43 JUMPI DUP1 PUSH4 0x93119A83 EQ PUSH2 0x76 JUMPI DUP1 PUSH4 0xDA11C330 EQ PUSH2 0xA9 JUMPI JUMPDEST PUSH0 PUSH0 REVERT JUMPDEST PUSH2 0x5D PUSH1 0x4 DUP1 CALLDATASIZE SUB DUP2 ADD SWAP1 PUSH2 0x58 SWAP2 SWAP1 PUSH2 0x4A4 JUMP JUMPDEST PUSH2 0xC5 JUMP JUMPDEST PUSH1 0x40 MLOAD PUSH2 0x6D SWAP5 SWAP4 SWAP3 SWAP2 SWAP1 PUSH2 0x5C1 JUMP JUMPDEST PUSH1 0x40 MLOAD DUP1 SWAP2 SUB SWAP1 RETURN JUMPDEST PUSH2 0x90 PUSH1 0x4 DUP1 CALLDATASIZE SUB DUP2 ADD SWAP1 PUSH2 0x8B SWAP2 SWAP1 PUSH2 0x4A4 JUMP JUMPDEST PUSH2 0x26E JUMP JUMPDEST PUSH1 0x40 MLOAD PUSH2 0xA0 SWAP5 SWAP4 SWAP3 SWAP2 SWAP1 PUSH2 0x5C1 JUMP JUMPDEST PUSH1 0x40 MLOAD DUP1 SWAP2 SUB SWAP1 RETURN JUMPDEST PUSH2 0xC3 PUSH1 0x4 DUP1 CALLDATASIZE SUB DUP2 ADD SWAP1 PUSH2 0xBE SWAP2 SWAP1 PUSH2 0x761 JUMP JUMPDEST PUSH2 0x3B1 JUMP JUMPDEST STOP JUMPDEST PUSH0 PUSH1 0x60 DUP1 PUSH0 PUSH0 PUSH0 PUSH0 DUP8 DUP2 MSTORE PUSH1 0x20 ADD SWAP1 DUP2 MSTORE PUSH1 0x20 ADD PUSH0 KECCAK256 PUSH1 0x40 MLOAD DUP1 PUSH1 0x80 ADD PUSH1 0x40 MSTORE SWAP1 DUP2 PUSH0 DUP3 ADD SLOAD DUP2 MSTORE PUSH1 0x20 ADD PUSH1 0x1 DUP3 ADD DUP1 SLOAD PUSH2 0xFF SWAP1 PUSH2 0x82A JUMP JUMPDEST DUP1 PUSH1 0x1F ADD PUSH1 0x20 DUP1 SWAP2 DIV MUL PUSH1 0x20 ADD PUSH1 0x40 MLOAD SWAP1 DUP2 ADD PUSH1 0x40 MSTORE DUP1 SWAP3 SWAP2 SWAP1 DUP2 DUP2 MSTORE PUSH1 0x20 ADD DUP3 DUP1 SLOAD PUSH2 0x12B SWAP1 PUSH2 0x82A JUMP JUMPDEST DUP1 ISZERO PUSH2 0x176 JUMPI DUP1 PUSH1 0x1F LT PUSH2 0x14D JUMPI PUSH2 0x100 DUP1 DUP4 SLOAD DIV MUL DUP4 MSTORE SWAP2 PUSH1 0x20 ADD SWAP2 PUSH2 0x176 JUMP JUMPDEST DUP3 ADD SWAP2 SWAP1 PUSH0 MSTORE PUSH1 0x20 PUSH0 KECCAK256 SWAP1 JUMPDEST DUP2 SLOAD DUP2 MSTORE SWAP1 PUSH1 0x1 ADD SWAP1 PUSH1 0x20 ADD DUP1 DUP4 GT PUSH2 0x159 JUMPI DUP3 SWAP1 SUB PUSH1 0x1F AND DUP3 ADD SWAP2 JUMPDEST POP POP POP POP POP DUP2 MSTORE PUSH1 0x20 ADD PUSH1 0x2 DUP3 ADD DUP1 SLOAD PUSH2 0x18F SWAP1 PUSH2 0x82A JUMP JUMPDEST DUP1 PUSH1 0x1F ADD PUSH1 0x20 DUP1 SWAP2 DIV MUL PUSH1 0x20 ADD PUSH1 0x40 MLOAD SWAP1 DUP2 ADD PUSH1 0x40 MSTORE DUP1 SWAP3 SWAP2 SWAP1 DUP2 DUP2 MSTORE PUSH1 0x20 ADD DUP3 DUP1 SLOAD PUSH2 0x1BB SWAP1 PUSH2 0x82A JUMP JUMPDEST DUP1 ISZERO PUSH2 0x206 JUMPI DUP1 PUSH1 0x1F LT PUSH2 0x1DD JUMPI PUSH2 0x100 DUP1 DUP4 SLOAD DIV MUL DUP4 MSTORE SWAP2 PUSH1 0x20 ADD SWAP2 PUSH2 0x206 JUMP JUMPDEST DUP3 ADD SWAP2 SWAP1 PUSH0 MSTORE PUSH1 0x20 PUSH0 KECCAK256 SWAP1 JUMPDEST DUP2 SLOAD DUP2 MSTORE SWAP1 PUSH1 0x1 ADD SWAP1 PUSH1 0x20 ADD DUP1 DUP4 GT PUSH2 0x1E9 JUMPI DUP3 SWAP1 SUB PUSH1 0x1F AND DUP3 ADD SWAP2 JUMPDEST POP POP POP POP POP DUP2 MSTORE PUSH1 0x20 ADD PUSH1 0x3 DUP3 ADD PUSH0 SWAP1 SLOAD SWAP1 PUSH2 0x100 EXP SWAP1 DIV PUSH1 0xFF AND PUSH1 0x1 DUP2 GT ISZERO PUSH2 0x233 JUMPI PUSH2 0x232 PUSH2 0x54E JUMP JUMPDEST JUMPDEST PUSH1 0x1 DUP2 GT ISZERO PUSH2 0x245 JUMPI PUSH2 0x244 PUSH2 0x54E JUMP JUMPDEST JUMPDEST DUP2 MSTORE POP POP SWAP1 POP DUP1 PUSH0 ADD MLOAD DUP2 PUSH1 0x20 ADD MLOAD DUP3 PUSH1 0x40 ADD MLOAD DUP4 PUSH1 0x60 ADD MLOAD SWAP5 POP SWAP5 POP SWAP5 POP SWAP5 POP POP SWAP2 SWAP4 POP SWAP2 SWAP4 JUMP JUMPDEST PUSH0 PUSH1 0x20 MSTORE DUP1 PUSH0 MSTORE PUSH1 0x40 PUSH0 KECCAK256 PUSH0 SWAP2 POP SWAP1 POP DUP1 PUSH0 ADD SLOAD SWAP1 DUP1 PUSH1 0x1 ADD DUP1 SLOAD PUSH2 0x292 SWAP1 PUSH2 0x82A JUMP JUMPDEST DUP1 PUSH1 0x1F ADD PUSH1 0x20 DUP1 SWAP2 DIV MUL PUSH1 0x20 ADD PUSH1 0x40 MLOAD SWAP1 DUP2 ADD PUSH1 0x40 MSTORE DUP1 SWAP3 SWAP2 SWAP1 DUP2 DUP2 MSTORE PUSH1 0x20 ADD DUP3 DUP1 SLOAD PUSH2 0x2BE SWAP1 PUSH2 0x82A JUMP JUMPDEST DUP1 ISZERO PUSH2 0x309 JUMPI DUP1 PUSH1 0x1F LT PUSH2 0x2E0 JUMPI PUSH2 0x100 DUP1 DUP4 SLOAD DIV MUL DUP4 MSTORE SWAP2 PUSH1 0x20 ADD SWAP2 PUSH2 0x309 JUMP JUMPDEST DUP3 ADD SWAP2 SWAP1 PUSH0 MSTORE PUSH1 0x20 PUSH0 KECCAK256 SWAP1 JUMPDEST DUP2 SLOAD DUP2 MSTORE SWAP1 PUSH1 0x1 ADD SWAP1 PUSH1 0x20 ADD DUP1 DUP4 GT PUSH2 0x2EC JUMPI DUP3 SWAP1 SUB PUSH1 0x1F AND DUP3 ADD SWAP2 JUMPDEST POP POP POP POP POP SWAP1 DUP1 PUSH1 0x2 ADD DUP1 SLOAD PUSH2 0x31E SWAP1 PUSH2 0x82A JUMP JUMPDEST DUP1 PUSH1 0x1F ADD PUSH1 0x20 DUP1 SWAP2 DIV MUL PUSH1 0x20 ADD PUSH1 0x40 MLOAD SWAP1 DUP2 ADD PUSH1 0x40 MSTORE DUP1 SWAP3 SWAP2 SWAP1 DUP2 DUP2 MSTORE PUSH1 0x20 ADD DUP3 DUP1 SLOAD PUSH2 0x34A SWAP1 PUSH2 0x82A JUMP JUMPDEST DUP1 ISZERO PUSH2 0x395 JUMPI DUP1 PUSH1 0x1F LT PUSH2 0x36C JUMPI PUSH2 0x100 DUP1 DUP4 SLOAD DIV MUL DUP4 MSTORE SWAP2 PUSH1 0x20 ADD SWAP2 PUSH2 0x395 JUMP JUMPDEST DUP3 ADD SWAP2 SWAP1 PUSH0 MSTORE PUSH1 0x20 PUSH0 KECCAK256 SWAP1 JUMPDEST DUP2 SLOAD DUP2 MSTORE SWAP1 PUSH1 0x1 ADD SWAP1 PUSH1 0x20 ADD DUP1 DUP4 GT PUSH2 0x378 JUMPI DUP3 SWAP1 SUB PUSH1 0x1F AND DUP3 ADD SWAP2 JUMPDEST POP POP POP POP POP SWAP1 DUP1 PUSH1 0x3 ADD PUSH0 SWAP1 SLOAD SWAP1 PUSH2 0x100 EXP SWAP1 DIV PUSH1 0xFF AND SWAP1 POP DUP5 JUMP JUMPDEST PUSH1 0x40 MLOAD DUP1 PUSH1 0x80 ADD PUSH1 0x40 MSTORE DUP1 DUP6 DUP2 MSTORE PUSH1 0x20 ADD DUP5 DUP2 MSTORE PUSH1 0x20 ADD DUP4 DUP2 MSTORE PUSH1 0x20 ADD DUP3 PUSH1 0x1 DUP2 GT ISZERO PUSH2 0x3E1 JUMPI PUSH2 0x3E0 PUSH2 0x54E JUMP JUMPDEST JUMPDEST DUP2 MSTORE POP PUSH0 PUSH0 DUP7 DUP2 MSTORE PUSH1 0x20 ADD SWAP1 DUP2 MSTORE PUSH1 0x20 ADD PUSH0 KECCAK256 PUSH0 DUP3 ADD MLOAD DUP2 PUSH0 ADD SSTORE PUSH1 0x20 DUP3 ADD MLOAD DUP2 PUSH1 0x1 ADD SWAP1 DUP2 PUSH2 0x411 SWAP2 SWAP1 PUSH2 0x9FA JUMP JUMPDEST POP PUSH1 0x40 DUP3 ADD MLOAD DUP2 PUSH1 0x2 ADD SWAP1 DUP2 PUSH2 0x427 SWAP2 SWAP1 PUSH2 0x9FA JUMP JUMPDEST POP PUSH1 0x60 DUP3 ADD MLOAD DUP2 PUSH1 0x3 ADD PUSH0 PUSH2 0x100 EXP DUP2 SLOAD DUP2 PUSH1 0xFF MUL NOT AND SWAP1 DUP4 PUSH1 0x1 DUP2 GT ISZERO PUSH2 0x452 JUMPI PUSH2 0x451 PUSH2 0x54E JUMP JUMPDEST JUMPDEST MUL OR SWAP1 SSTORE POP SWAP1 POP POP POP POP POP POP JUMP JUMPDEST PUSH0 PUSH1 0x40 MLOAD SWAP1 POP SWAP1 JUMP JUMPDEST PUSH0 PUSH0 REVERT JUMPDEST PUSH0 PUSH0 REVERT JUMPDEST PUSH0 DUP2 SWAP1 POP SWAP2 SWAP1 POP JUMP JUMPDEST PUSH2 0x483 DUP2 PUSH2 0x471 JUMP JUMPDEST DUP2 EQ PUSH2 0x48D JUMPI PUSH0 PUSH0 REVERT JUMPDEST POP JUMP JUMPDEST PUSH0 DUP2 CALLDATALOAD SWAP1 POP PUSH2 0x49E DUP2 PUSH2 0x47A JUMP JUMPDEST SWAP3 SWAP2 POP POP JUMP JUMPDEST PUSH0 PUSH1 0x20 DUP3 DUP5 SUB SLT ISZERO PUSH2 0x4B9 JUMPI PUSH2 0x4B8 PUSH2 0x469 JUMP JUMPDEST JUMPDEST PUSH0 PUSH2 0x4C6 DUP5 DUP3 DUP6 ADD PUSH2 0x490 JUMP JUMPDEST SWAP2 POP POP SWAP3 SWAP2 POP POP JUMP JUMPDEST PUSH2 0x4D8 DUP2 PUSH2 0x471 JUMP JUMPDEST DUP3 MSTORE POP POP JUMP JUMPDEST PUSH0 DUP2 MLOAD SWAP1 POP SWAP2 SWAP1 POP JUMP JUMPDEST PUSH0 DUP3 DUP3 MSTORE PUSH1 0x20 DUP3 ADD SWAP1 POP SWAP3 SWAP2 POP POP JUMP JUMPDEST DUP3 DUP2 DUP4 MCOPY PUSH0 DUP4 DUP4 ADD MSTORE POP POP POP JUMP JUMPDEST PUSH0 PUSH1 0x1F NOT PUSH1 0x1F DUP4 ADD AND SWAP1 POP SWAP2 SWAP1 POP JUMP JUMPDEST PUSH0 PUSH2 0x520 DUP3 PUSH2 0x4DE JUMP JUMPDEST PUSH2 0x52A DUP2 DUP6 PUSH2 0x4E8 JUMP JUMPDEST SWAP4 POP PUSH2 0x53A DUP2 DUP6 PUSH1 0x20 DUP7 ADD PUSH2 0x4F8 JUMP JUMPDEST PUSH2 0x543 DUP2 PUSH2 0x506 JUMP JUMPDEST DUP5 ADD SWAP2 POP POP SWAP3 SWAP2 POP POP JUMP JUMPDEST PUSH32 0x4E487B7100000000000000000000000000000000000000000000000000000000 PUSH0 MSTORE PUSH1 0x21 PUSH1 0x4 MSTORE PUSH1 0x24 PUSH0 REVERT JUMPDEST PUSH1 0x2 DUP2 LT PUSH2 0x58C JUMPI PUSH2 0x58B PUSH2 0x54E JUMP JUMPDEST JUMPDEST POP JUMP JUMPDEST PUSH0 DUP2 SWAP1 POP PUSH2 0x59C DUP3 PUSH2 0x57B JUMP JUMPDEST SWAP2 SWAP1 POP JUMP JUMPDEST PUSH0 PUSH2 0x5AB DUP3 PUSH2 0x58F JUMP JUMPDEST SWAP1 POP SWAP2 SWAP1 POP JUMP JUMPDEST PUSH2 0x5BB DUP2 PUSH2 0x5A1 JUMP JUMPDEST DUP3 MSTORE POP POP JUMP JUMPDEST PUSH0 PUSH1 0x80 DUP3 ADD SWAP1 POP PUSH2 0x5D4 PUSH0 DUP4 ADD DUP8 PUSH2 0x4CF JUMP JUMPDEST DUP2 DUP2 SUB PUSH1 0x20 DUP4 ADD MSTORE PUSH2 0x5E6 DUP2 DUP7 PUSH2 0x516 JUMP JUMPDEST SWAP1 POP DUP2 DUP2 SUB PUSH1 0x40 DUP4 ADD MSTORE PUSH2 0x5FA DUP2 DUP6 PUSH2 0x516 JUMP JUMPDEST SWAP1 POP PUSH2 0x609 PUSH1 0x60 DUP4 ADD DUP5 PUSH2 0x5B2 JUMP JUMPDEST SWAP6 SWAP5 POP POP POP POP POP JUMP JUMPDEST PUSH0 PUSH0 REVERT JUMPDEST PUSH0 PUSH0 REVERT JUMPDEST PUSH32 0x4E487B7100000000000000000000000000000000000000000000000000000000 PUSH0 MSTORE PUSH1 0x41 PUSH1 0x4 MSTORE PUSH1 0x24 PUSH0 REVERT JUMPDEST PUSH2 0x650 DUP3 PUSH2 0x506 JUMP JUMPDEST DUP2 ADD DUP2 DUP2 LT PUSH8 0xFFFFFFFFFFFFFFFF DUP3 GT OR ISZERO PUSH2 0x66F JUMPI PUSH2 0x66E PUSH2 0x61A JUMP JUMPDEST JUMPDEST DUP1 PUSH1 0x40 MSTORE POP POP POP JUMP JUMPDEST PUSH0 PUSH2 0x681 PUSH2 0x460 JUMP JUMPDEST SWAP1 POP PUSH2 0x68D DUP3 DUP3 PUSH2 0x647 JUMP JUMPDEST SWAP2 SWAP1 POP JUMP JUMPDEST PUSH0 PUSH8 0xFFFFFFFFFFFFFFFF DUP3 GT ISZERO PUSH2 0x6AC JUMPI PUSH2 0x6AB PUSH2 0x61A JUMP JUMPDEST JUMPDEST PUSH2 0x6B5 DUP3 PUSH2 0x506 JUMP JUMPDEST SWAP1 POP PUSH1 0x20 DUP2 ADD SWAP1 POP SWAP2 SWAP1 POP JUMP JUMPDEST DUP3 DUP2 DUP4 CALLDATACOPY PUSH0 DUP4 DUP4 ADD MSTORE POP POP POP JUMP JUMPDEST PUSH0 PUSH2 0x6E2 PUSH2 0x6DD DUP5 PUSH2 0x692 JUMP JUMPDEST PUSH2 0x678 JUMP JUMPDEST SWAP1 POP DUP3 DUP2 MSTORE PUSH1 0x20 DUP2 ADD DUP5 DUP5 DUP5 ADD GT ISZERO PUSH2 0x6FE JUMPI PUSH2 0x6FD PUSH2 0x616 JUMP JUMPDEST JUMPDEST PUSH2 0x709 DUP5 DUP3 DUP6 PUSH2 0x6C2 JUMP JUMPDEST POP SWAP4 SWAP3 POP POP POP JUMP JUMPDEST PUSH0 DUP3 PUSH1 0x1F DUP4 ADD SLT PUSH2 0x725 JUMPI PUSH2 0x724 PUSH2 0x612 JUMP JUMPDEST JUMPDEST DUP2 CALLDATALOAD PUSH2 0x735 DUP5 DUP3 PUSH1 0x20 DUP7 ADD PUSH2 0x6D0 JUMP JUMPDEST SWAP2 POP POP SWAP3 SWAP2 POP POP JUMP JUMPDEST PUSH1 0x2 DUP2 LT PUSH2 0x74A JUMPI PUSH0 PUSH0 REVERT JUMPDEST POP JUMP JUMPDEST PUSH0 DUP2 CALLDATALOAD SWAP1 POP PUSH2 0x75B DUP2 PUSH2 0x73E JUMP JUMPDEST SWAP3 SWAP2 POP POP JUMP JUMPDEST PUSH0 PUSH0 PUSH0 PUSH0 PUSH1 0x80 DUP6 DUP8 SUB SLT ISZERO PUSH2 0x779 JUMPI PUSH2 0x778 PUSH2 0x469 JUMP JUMPDEST JUMPDEST PUSH0 PUSH2 0x786 DUP8 DUP3 DUP9 ADD PUSH2 0x490 JUMP JUMPDEST SWAP5 POP POP PUSH1 0x20 DUP6 ADD CALLDATALOAD PUSH8 0xFFFFFFFFFFFFFFFF DUP2 GT ISZERO PUSH2 0x7A7 JUMPI PUSH2 0x7A6 PUSH2 0x46D JUMP JUMPDEST JUMPDEST PUSH2 0x7B3 DUP8 DUP3 DUP9 ADD PUSH2 0x711 JUMP JUMPDEST SWAP4 POP POP PUSH1 0x40 DUP6 ADD CALLDATALOAD PUSH8 0xFFFFFFFFFFFFFFFF DUP2 GT ISZERO PUSH2 0x7D4 JUMPI PUSH2 0x7D3 PUSH2 0x46D JUMP JUMPDEST JUMPDEST PUSH2 0x7E0 DUP8 DUP3 DUP9 ADD PUSH2 0x711 JUMP JUMPDEST SWAP3 POP POP PUSH1 0x60 PUSH2 0x7F1 DUP8 DUP3 DUP9 ADD PUSH2 0x74D JUMP JUMPDEST SWAP2 POP POP SWAP3 SWAP6 SWAP2 SWAP5 POP SWAP3 POP JUMP JUMPDEST PUSH32 0x4E487B7100000000000000000000000000000000000000000000000000000000 PUSH0 MSTORE PUSH1 0x22 PUSH1 0x4 MSTORE PUSH1 0x24 PUSH0 REVERT JUMPDEST PUSH0 PUSH1 0x2 DUP3 DIV SWAP1 POP PUSH1 0x1 DUP3 AND DUP1 PUSH2 0x841 JUMPI PUSH1 0x7F DUP3 AND SWAP2 POP JUMPDEST PUSH1 0x20 DUP3 LT DUP2 SUB PUSH2 0x854 JUMPI PUSH2 0x853 PUSH2 0x7FD JUMP JUMPDEST JUMPDEST POP SWAP2 SWAP1 POP JUMP JUMPDEST PUSH0 DUP2 SWAP1 POP DUP2 PUSH0 MSTORE PUSH1 0x20 PUSH0 KECCAK256 SWAP1 POP SWAP2 SWAP1 POP JUMP JUMPDEST PUSH0 PUSH1 0x20 PUSH1 0x1F DUP4 ADD DIV SWAP1 POP SWAP2 SWAP1 POP JUMP JUMPDEST PUSH0 DUP3 DUP3 SHL SWAP1 POP SWAP3 SWAP2 POP POP JUMP JUMPDEST PUSH0 PUSH1 0x8 DUP4 MUL PUSH2 0x8B6 PUSH32 0xFFFFFFFFFFFFFFFFFFFFFFFFFFFFFFFFFFFFFFFFFFFFFFFFFFFFFFFFFFFFFFFF DUP3 PUSH2 0x87B JUMP JUMPDEST PUSH2 0x8C0 DUP7 DUP4 PUSH2 0x87B JUMP JUMPDEST SWAP6 POP DUP1 NOT DUP5 AND SWAP4 POP DUP1 DUP7 AND DUP5 OR SWAP3 POP POP POP SWAP4 SWAP3 POP POP POP JUMP JUMPDEST PUSH0 DUP2 SWAP1 POP SWAP2 SWAP1 POP JUMP JUMPDEST PUSH0 PUSH2 0x8FB PUSH2 0x8F6 PUSH2 0x8F1 DUP5 PUSH2 0x471 JUMP JUMPDEST PUSH2 0x8D8 JUMP JUMPDEST PUSH2 0x471 JUMP JUMPDEST SWAP1 POP SWAP2 SWAP1 POP JUMP JUMPDEST PUSH0 DUP2 SWAP1 POP SWAP2 SWAP1 POP JUMP JUMPDEST PUSH2 0x914 DUP4 PUSH2 0x8E1 JUMP JUMPDEST PUSH2 0x928 PUSH2 0x920 DUP3 PUSH2 0x902 JUMP JUMPDEST DUP5 DUP5 SLOAD PUSH2 0x887 JUMP JUMPDEST DUP3 SSTORE POP POP POP POP JUMP JUMPDEST PUSH0 PUSH0 SWAP1 POP SWAP1 JUMP JUMPDEST PUSH2 0x93F PUSH2 0x930 JUMP JUMPDEST PUSH2 0x94A DUP2 DUP5 DUP5 PUSH2 0x90B JUMP JUMPDEST POP POP POP JUMP JUMPDEST JUMPDEST DUP2 DUP2 LT ISZERO PUSH2 0x96D JUMPI PUSH2 0x962 PUSH0 DUP3 PUSH2 0x937 JUMP JUMPDEST PUSH1 0x1 DUP2 ADD SWAP1 POP PUSH2 0x950 JUMP JUMPDEST POP POP JUMP JUMPDEST PUSH1 0x1F DUP3 GT ISZERO PUSH2 0x9B2 JUMPI PUSH2 0x983 DUP2 PUSH2 0x85A JUMP JUMPDEST PUSH2 0x98C DUP5 PUSH2 0x86C JUMP JUMPDEST DUP2 ADD PUSH1 0x20 DUP6 LT ISZERO PUSH2 0x99B JUMPI DUP2 SWAP1 POP JUMPDEST PUSH2 0x9AF PUSH2 0x9A7 DUP6 PUSH2 0x86C JUMP JUMPDEST DUP4 ADD DUP3 PUSH2 0x94F JUMP JUMPDEST POP POP JUMPDEST POP POP POP JUMP JUMPDEST PUSH0 DUP3 DUP3 SHR SWAP1 POP SWAP3 SWAP2 POP POP JUMP JUMPDEST PUSH0 PUSH2 0x9D2 PUSH0 NOT DUP5 PUSH1 0x8 MUL PUSH2 0x9B7 JUMP JUMPDEST NOT DUP1 DUP4 AND SWAP2 POP POP SWAP3 SWAP2 POP POP JUMP JUMPDEST PUSH0 PUSH2 0x9EA DUP4 DUP4 PUSH2 0x9C3 JUMP JUMPDEST SWAP2 POP DUP3 PUSH1 0x2 MUL DUP3 OR SWAP1 POP SWAP3 SWAP2 POP POP JUMP JUMPDEST PUSH2 0xA03 DUP3 PUSH2 0x4DE JUMP JUMPDEST PUSH8 0xFFFFFFFFFFFFFFFF DUP2 GT ISZERO PUSH2 0xA1C JUMPI PUSH2 0xA1B PUSH2 0x61A JUMP JUMPDEST JUMPDEST PUSH2 0xA26 DUP3 SLOAD PUSH2 0x82A JUMP JUMPDEST PUSH2 0xA31 DUP3 DUP3 DUP6 PUSH2 0x971 JUMP JUMPDEST PUSH0 PUSH1 0x20 SWAP1 POP PUSH1 0x1F DUP4 GT PUSH1 0x1 DUP2 EQ PUSH2 0xA62 JUMPI PUSH0 DUP5 ISZERO PUSH2 0xA50 JUMPI DUP3 DUP8 ADD MLOAD SWAP1 POP JUMPDEST PUSH2 0xA5A DUP6 DUP3 PUSH2 0x9DF JUMP JUMPDEST DUP7 SSTORE POP PUSH2 0xAC1 JUMP JUMPDEST PUSH1 0x1F NOT DUP5 AND PUSH2 0xA70 DUP7 PUSH2 0x85A JUMP JUMPDEST PUSH0 JUMPDEST DUP3 DUP2 LT ISZERO PUSH2 0xA97 JUMPI DUP5 DUP10 ADD MLOAD DUP3 SSTORE PUSH1 0x1 DUP3 ADD SWAP2 POP PUSH1 0x20 DUP6 ADD SWAP5 POP PUSH1 0x20 DUP2 ADD SWAP1 POP PUSH2 0xA72 JUMP JUMPDEST DUP7 DUP4 LT ISZERO PUSH2 0xAB4 JUMPI DUP5 DUP10 ADD MLOAD PUSH2 0xAB0 PUSH1 0x1F DUP10 AND DUP3 PUSH2 0x9C3 JUMP JUMPDEST DUP4 SSTORE POP JUMPDEST PUSH1 0x1 PUSH1 0x2 DUP9 MUL ADD DUP9 SSTORE POP POP POP JUMPDEST POP POP POP POP POP POP JUMP INVALID LOG2 PUSH5 0x6970667358 0x22 SLT KECCAK256 LT 0xB3 DUP12 0xDA INVALID 0xCB INVALID PUSH10 0x5867D9DB9677D576D785 0x27 PUSH25 0x21FF4140E334AF8D1350D01F64736F6C634300081F00330000 "
				},
				"gasEstimates": {
					"creation": {
						"codeDepositCost": "563000",
						"executionCost": "592",
						"totalCost": "563592"
					},
					"external": {
						"getPatient(uint256)": "infinite",
						"patients(uint256)": "infinite",
						"setPatient(uint256,string,string,uint8)": "infinite"
					}
				},
				"methodIdentifiers": {
					"getPatient(uint256)": "7d3a6796",
					"patients(uint256)": "93119a83",
					"setPatient(uint256,string,string,uint8)": "da11c330"
				}
			},
			"storageLayout": {
				"storage": [
					{
						"astId": 19,
						"contract": "class_7 (18.3.26)/PatientstructMappingEnum.sol:PatientData",
						"label": "patients",
						"offset": 0,
						"slot": "0",
						"type": "t_mapping(t_uint256,t_struct(Patient)14_storage)"
					}
				],
				"types": {
					"t_enum(CheckupStatus)4": {
						"encoding": "inplace",
						"label": "enum PatientData.CheckupStatus",
						"numberOfBytes": "1"
					},
					"t_mapping(t_uint256,t_struct(Patient)14_storage)": {
						"encoding": "mapping",
						"key": "t_uint256",
						"label": "mapping(uint256 => struct PatientData.Patient)",
						"numberOfBytes": "32",
						"value": "t_struct(Patient)14_storage"
					},
					"t_string_storage": {
						"encoding": "bytes",
						"label": "string",
						"numberOfBytes": "32"
					},
					"t_struct(Patient)14_storage": {
						"encoding": "inplace",
						"label": "struct PatientData.Patient",
						"members": [
							{
								"astId": 6,
								"contract": "class_7 (18.3.26)/PatientstructMappingEnum.sol:PatientData",
								"label": "id",
								"offset": 0,
								"slot": "0",
								"type": "t_uint256"
							},
							{
								"astId": 8,
								"contract": "class_7 (18.3.26)/PatientstructMappingEnum.sol:PatientData",
								"label": "name",
								"offset": 0,
								"slot": "1",
								"type": "t_string_storage"
							},
							{
								"astId": 10,
								"contract": "class_7 (18.3.26)/PatientstructMappingEnum.sol:PatientData",
								"label": "diseaseDescription",
								"offset": 0,
								"slot": "2",
								"type": "t_string_storage"
							},
							{
								"astId": 13,
								"contract": "class_7 (18.3.26)/PatientstructMappingEnum.sol:PatientData",
								"label": "status",
								"offset": 0,
								"slot": "3",
								"type": "t_enum(CheckupStatus)4"
							}
						],
						"numberOfBytes": "128"
					},
					"t_uint256": {
						"encoding": "inplace",
						"label": "uint256",
						"numberOfBytes": "32"
					}
				}
			},
			"userdoc": {
				"kind": "user",
				"methods": {},
				"version": 1
			}
		}
	}
}