{
	"data": {
		"bytecode": {
			"linkReferences": {},
			"object": "6080604052348015600e575f5ffd5b5060ef8061001b5f395ff3fe6080604052348015600e575f5ffd5b50600436106026575f3560e01c80635b0c8d7014602a575b5f5ffd5b60406004803603810190603c91906093565b6042565b005b805f5f6101000a81548160ff021916908360ff16021790555050565b5f5ffd5b5f60ff82169050919050565b6075816062565b8114607e575f5ffd5b50565b5f81359050608d81606e565b92915050565b5f6020828403121560a55760a4605e565b5b5f60b0848285016081565b9150509291505056fea26469706673582212208044562a8f4cc40a2b0d1adcfa6dac8b643ce543431cfa2be114048adf29167464736f6c634300081f0033",
			"opcodes": "PUSH1 0x80 PUSH1 0x40 MSTORE CALLVALUE DUP1 ISZERO PUSH1 0xE JUMPI PUSH0 PUSH0 REVERT JUMPDEST POP PUSH1 0xEF DUP1 PUSH2 0x1B PUSH0 CODECOPY PUSH0 RETURN INVALID PUSH1 0x80 PUSH1 0x40 MSTORE CALLVALUE DUP1 ISZERO PUSH1 0xE JUMPI PUSH0 PUSH0 REVERT JUMPDEST POP PUSH1 0x4 CALLDATASIZE LT PUSH1 0x26 JUMPI PUSH0 CALLDATALOAD PUSH1 0xE0 SHR DUP1 PUSH4 0x5B0C8D70 EQ PUSH1 0x2A JUMPI JUMPDEST PUSH0 PUSH0 REVERT JUMPDEST PUSH1 0x40 PUSH1 0x4 DUP1 CALLDATASIZE SUB DUP2 ADD SWAP1 PUSH1 0x3C SWAP2 SWAP1 PUSH1 0x93 JUMP JUMPDEST PUSH1 0x42 JUMP JUMPDEST STOP JUMPDEST DUP1 PUSH0 PUSH0 PUSH2 0x100 EXP DUP2 SLOAD DUP2 PUSH1 0xFF MUL NOT AND SWAP1 DUP4 PUSH1 0xFF AND MUL OR SWAP1 SSTORE POP POP JUMP JUMPDEST PUSH0 PUSH0 REVERT JUMPDEST PUSH0 PUSH1 0xFF DUP3 AND SWAP1 POP SWAP2 SWAP1 POP JUMP JUMPDEST PUSH1 0x75 DUP2 PUSH1 0x62 JUMP JUMPDEST DUP2 EQ PUSH1 0x7E JUMPI PUSH0 PUSH0 REVERT JUMPDEST POP JUMP JUMPDEST PUSH0 DUP2 CALLDATALOAD SWAP1 POP PUSH1 0x8D DUP2 PUSH1 0x6E JUMP JUMPDEST SWAP3 SWAP2 POP POP JUMP JUMPDEST PUSH0 PUSH1 0x20 DUP3 DUP5 SUB SLT ISZERO PUSH1 0xA5 JUMPI PUSH1 0xA4 PUSH1 0x5E JUMP JUMPDEST JUMPDEST PUSH0 PUSH1 0xB0 DUP5 DUP3 DUP6 ADD PUSH1 0x81 JUMP JUMPDEST SWAP2 POP POP SWAP3 SWAP2 POP POP JUMP INVALID LOG2 PUSH5 0x6970667358 0x22 SLT KECCAK256 DUP1 PREVRANDAO JUMP 0x2A DUP16 0x4C 0xC4 EXP 0x2B 0xD BYTE 0xDC STATICCALL PUSH14 0xAC8B643CE543431CFA2BE114048A 0xDF 0x29 AND PUSH21 0x64736F6C634300081F003300000000000000000000 "
		},
		"gasEstimates": {
			"creation": {
				"codeDepositCost": "47800",
				"executionCost": "97",
				"totalCost": "47897"
			},
			"external": {
				"setAge(uint8)": "24650"
			}
		},
		"methodIdentifiers": {
			"setAge(uint8)": "5b0c8d70"
		}
	},
	"abi": [
		{
			"inputs": [
				{
					"internalType": "uint8",
					"name": "_age",
					"type": "uint8"
				}
			],
			"name": "setAge",
			"outputs": [],
			"stateMutability": "nonpayable",
			"type": "function"
		}
	]
}