{
	"data": {
		"bytecode": {
			"linkReferences": {},
			"object": "6080604052348015600e575f5ffd5b506108d18061001c5f395ff3fe608060405234801561000f575f5ffd5b506004361061004a575f3560e01c80632a1fd42c1461004e57806347064d6a1461007e57806373d4a13a1461009a578063be1c766b146100b8575b5f5ffd5b61006860048036038101906100639190610281565b6100d6565b60405161007591906102e6565b60405180910390f35b6100986004803603810190610093919061043b565b61018c565b005b6100a261019e565b6040516100af91906104e2565b60405180910390f35b6100c0610229565b6040516100cd9190610511565b60405180910390f35b5f5f80546100e390610557565b90508210610126576040517f08c379a000000000000000000000000000000000000000000000000000000000815260040161011d906105e1565b60405180910390fd5b5f82815461013390610557565b8110610142576101416105ff565b5b81546001161561015f57905f5260205f2090602091828204019190065b9054901a7f0100000000000000000000000000000000000000000000000000000000000000029050919050565b805f908161019a91906107cc565b5050565b5f80546101aa90610557565b80601f01602080910402602001604051908101604052809291908181526020018280546101d690610557565b80156102215780601f106101f857610100808354040283529160200191610221565b820191905f5260205f20905b81548152906001019060200180831161020457829003601f168201915b505050505081565b5f5f805461023690610557565b9050905090565b5f604051905090565b5f5ffd5b5f5ffd5b5f819050919050565b6102608161024e565b811461026a575f5ffd5b50565b5f8135905061027b81610257565b92915050565b5f6020828403121561029657610295610246565b5b5f6102a38482850161026d565b91505092915050565b5f7fff0000000000000000000000000000000000000000000000000000000000000082169050919050565b6102e0816102ac565b82525050565b5f6020820190506102f95f8301846102d7565b92915050565b5f5ffd5b5f5ffd5b5f601f19601f8301169050919050565b7f4e487b71000000000000000000000000000000000000000000000000000000005f52604160045260245ffd5b61034d82610307565b810181811067ffffffffffffffff8211171561036c5761036b610317565b5b80604052505050565b5f61037e61023d565b905061038a8282610344565b919050565b5f67ffffffffffffffff8211156103a9576103a8610317565b5b6103b282610307565b9050602081019050919050565b828183375f83830152505050565b5f6103df6103da8461038f565b610375565b9050828152602081018484840111156103fb576103fa610303565b5b6104068482856103bf565b509392505050565b5f82601f830112610422576104216102ff565b5b81356104328482602086016103cd565b91505092915050565b5f602082840312156104505761044f610246565b5b5f82013567ffffffffffffffff81111561046d5761046c61024a565b5b6104798482850161040e565b91505092915050565b5f81519050919050565b5f82825260208201905092915050565b8281835e5f83830152505050565b5f6104b482610482565b6104be818561048c565b93506104ce81856020860161049c565b6104d781610307565b840191505092915050565b5f6020820190508181035f8301526104fa81846104aa565b905092915050565b61050b8161024e565b82525050565b5f6020820190506105245f830184610502565b92915050565b7f4e487b71000000000000000000000000000000000000000000000000000000005f52602260045260245ffd5b5f600282049050600182168061056e57607f821691505b6020821081036105815761058061052a565b5b50919050565b5f82825260208201905092915050565b7f496e646578206f7574206f662072616e676500000000000000000000000000005f82015250565b5f6105cb601283610587565b91506105d682610597565b602082019050919050565b5f6020820190508181035f8301526105f8816105bf565b9050919050565b7f4e487b71000000000000000000000000000000000000000000000000000000005f52603260045260245ffd5b5f819050815f5260205f209050919050565b5f6020601f8301049050919050565b5f82821b905092915050565b5f600883026106887fffffffffffffffffffffffffffffffffffffffffffffffffffffffffffffffff8261064d565b610692868361064d565b95508019841693508086168417925050509392505050565b5f819050919050565b5f6106cd6106c86106c38461024e565b6106aa565b61024e565b9050919050565b5f819050919050565b6106e6836106b3565b6106fa6106f2826106d4565b848454610659565b825550505050565b5f5f905090565b610711610702565b61071c8184846106dd565b505050565b5b8181101561073f576107345f82610709565b600181019050610722565b5050565b601f821115610784576107558161062c565b61075e8461063e565b8101602085101561076d578190505b6107816107798561063e565b830182610721565b50505b505050565b5f82821c905092915050565b5f6107a45f1984600802610789565b1980831691505092915050565b5f6107bc8383610795565b9150826002028217905092915050565b6107d582610482565b67ffffffffffffffff8111156107ee576107ed610317565b5b6107f88254610557565b610803828285610743565b5f60209050601f831160018114610834575f8415610822578287015190505b61082c85826107b1565b865550610893565b601f1984166108428661062c565b5f5b8281101561086957848901518255600182019150602085019450602081019050610844565b868310156108865784890151610882601f891682610795565b8355505b6001600288020188555050505b50505050505056fea264697066735822122049b4e1320fefed48a294f913716182c0bee0ef3147ec5d83f36b6af9180f584f64736f6c634300081f0033",
			"opcodes": "PUSH1 0x80 PUSH1 0x40 MSTORE CALLVALUE DUP1 ISZERO PUSH1 0xE JUMPI PUSH0 PUSH0 REVERT JUMPDEST POP PUSH2 0x8D1 DUP1 PUSH2 0x1C PUSH0 CODECOPY PUSH0 RETURN INVALID PUSH1 0x80 PUSH1 0x40 MSTORE CALLVALUE DUP1 ISZERO PUSH2 0xF JUMPI PUSH0 PUSH0 REVERT JUMPDEST POP PUSH1 0x4 CALLDATASIZE LT PUSH2 0x4A JUMPI PUSH0 CALLDATALOAD PUSH1 0xE0 SHR DUP1 PUSH4 0x2A1FD42C EQ PUSH2 0x4E JUMPI DUP1 PUSH4 0x47064D6A EQ PUSH2 0x7E JUMPI DUP1 PUSH4 0x73D4A13A EQ PUSH2 0x9A JUMPI DUP1 PUSH4 0xBE1C766B EQ PUSH2 0xB8 JUMPI JUMPDEST PUSH0 PUSH0 REVERT JUMPDEST PUSH2 0x68 PUSH1 0x4 DUP1 CALLDATASIZE SUB DUP2 ADD SWAP1 PUSH2 0x63 SWAP2 SWAP1 PUSH2 0x281 JUMP JUMPDEST PUSH2 0xD6 JUMP JUMPDEST PUSH1 0x40 MLOAD PUSH2 0x75 SWAP2 SWAP1 PUSH2 0x2E6 JUMP JUMPDEST PUSH1 0x40 MLOAD DUP1 SWAP2 SUB SWAP1 RETURN JUMPDEST PUSH2 0x98 PUSH1 0x4 DUP1 CALLDATASIZE SUB DUP2 ADD SWAP1 PUSH2 0x93 SWAP2 SWAP1 PUSH2 0x43B JUMP JUMPDEST PUSH2 0x18C JUMP JUMPDEST STOP JUMPDEST PUSH2 0xA2 PUSH2 0x19E JUMP JUMPDEST PUSH1 0x40 MLOAD PUSH2 0xAF SWAP2 SWAP1 PUSH2 0x4E2 JUMP JUMPDEST PUSH1 0x40 MLOAD DUP1 SWAP2 SUB SWAP1 RETURN JUMPDEST PUSH2 0xC0 PUSH2 0x229 JUMP JUMPDEST PUSH1 0x40 MLOAD PUSH2 0xCD SWAP2 SWAP1 PUSH2 0x511 JUMP JUMPDEST PUSH1 0x40 MLOAD DUP1 SWAP2 SUB SWAP1 RETURN JUMPDEST PUSH0 PUSH0 DUP1 SLOAD PUSH2 0xE3 SWAP1 PUSH2 0x557 JUMP JUMPDEST SWAP1 POP DUP3 LT PUSH2 0x126 JUMPI PUSH1 0x40 MLOAD PUSH32 0x8C379A000000000000000000000000000000000000000000000000000000000 DUP2 MSTORE PUSH1 0x4 ADD PUSH2 0x11D SWAP1 PUSH2 0x5E1 JUMP JUMPDEST PUSH1 0x40 MLOAD DUP1 SWAP2 SUB SWAP1 REVERT JUMPDEST PUSH0 DUP3 DUP2 SLOAD PUSH2 0x133 SWAP1 PUSH2 0x557 JUMP JUMPDEST DUP2 LT PUSH2 0x142 JUMPI PUSH2 0x141 PUSH2 0x5FF JUMP JUMPDEST JUMPDEST DUP2 SLOAD PUSH1 0x1 AND ISZERO PUSH2 0x15F JUMPI SWAP1 PUSH0 MSTORE PUSH1 0x20 PUSH0 KECCAK256 SWAP1 PUSH1 0x20 SWAP2 DUP3 DUP3 DIV ADD SWAP2 SWAP1 MOD JUMPDEST SWAP1 SLOAD SWAP1 BYTE PUSH32 0x100000000000000000000000000000000000000000000000000000000000000 MUL SWAP1 POP SWAP2 SWAP1 POP JUMP JUMPDEST DUP1 PUSH0 SWAP1 DUP2 PUSH2 0x19A SWAP2 SWAP1 PUSH2 0x7CC JUMP JUMPDEST POP POP JUMP JUMPDEST PUSH0 DUP1 SLOAD PUSH2 0x1AA SWAP1 PUSH2 0x557 JUMP JUMPDEST DUP1 PUSH1 0x1F ADD PUSH1 0x20 DUP1 SWAP2 DIV MUL PUSH1 0x20 ADD PUSH1 0x40 MLOAD SWAP1 DUP2 ADD PUSH1 0x40 MSTORE DUP1 SWAP3 SWAP2 SWAP1 DUP2 DUP2 MSTORE PUSH1 0x20 ADD DUP3 DUP1 SLOAD PUSH2 0x1D6 SWAP1 PUSH2 0x557 JUMP JUMPDEST DUP1 ISZERO PUSH2 0x221 JUMPI DUP1 PUSH1 0x1F LT PUSH2 0x1F8 JUMPI PUSH2 0x100 DUP1 DUP4 SLOAD DIV MUL DUP4 MSTORE SWAP2 PUSH1 0x20 ADD SWAP2 PUSH2 0x221 JUMP JUMPDEST DUP3 ADD SWAP2 SWAP1 PUSH0 MSTORE PUSH1 0x20 PUSH0 KECCAK256 SWAP1 JUMPDEST DUP2 SLOAD DUP2 MSTORE SWAP1 PUSH1 0x1 ADD SWAP1 PUSH1 0x20 ADD DUP1 DUP4 GT PUSH2 0x204 JUMPI DUP3 SWAP1 SUB PUSH1 0x1F AND DUP3 ADD SWAP2 JUMPDEST POP POP POP POP POP DUP2 JUMP JUMPDEST PUSH0 PUSH0 DUP1 SLOAD PUSH2 0x236 SWAP1 PUSH2 0x557 JUMP JUMPDEST SWAP1 POP SWAP1 POP SWAP1 JUMP JUMPDEST PUSH0 PUSH1 0x40 MLOAD SWAP1 POP SWAP1 JUMP JUMPDEST PUSH0 PUSH0 REVERT JUMPDEST PUSH0 PUSH0 REVERT JUMPDEST PUSH0 DUP2 SWAP1 POP SWAP2 SWAP1 POP JUMP JUMPDEST PUSH2 0x260 DUP2 PUSH2 0x24E JUMP JUMPDEST DUP2 EQ PUSH2 0x26A JUMPI PUSH0 PUSH0 REVERT JUMPDEST POP JUMP JUMPDEST PUSH0 DUP2 CALLDATALOAD SWAP1 POP PUSH2 0x27B DUP2 PUSH2 0x257 JUMP JUMPDEST SWAP3 SWAP2 POP POP JUMP JUMPDEST PUSH0 PUSH1 0x20 DUP3 DUP5 SUB SLT ISZERO PUSH2 0x296 JUMPI PUSH2 0x295 PUSH2 0x246 JUMP JUMPDEST JUMPDEST PUSH0 PUSH2 0x2A3 DUP5 DUP3 DUP6 ADD PUSH2 0x26D JUMP JUMPDEST SWAP2 POP POP SWAP3 SWAP2 POP POP JUMP JUMPDEST PUSH0 PUSH32 0xFF00000000000000000000000000000000000000000000000000000000000000 DUP3 AND SWAP1 POP SWAP2 SWAP1 POP JUMP JUMPDEST PUSH2 0x2E0 DUP2 PUSH2 0x2AC JUMP JUMPDEST DUP3 MSTORE POP POP JUMP JUMPDEST PUSH0 PUSH1 0x20 DUP3 ADD SWAP1 POP PUSH2 0x2F9 PUSH0 DUP4 ADD DUP5 PUSH2 0x2D7 JUMP JUMPDEST SWAP3 SWAP2 POP POP JUMP JUMPDEST PUSH0 PUSH0 REVERT JUMPDEST PUSH0 PUSH0 REVERT JUMPDEST PUSH0 PUSH1 0x1F NOT PUSH1 0x1F DUP4 ADD AND SWAP1 POP SWAP2 SWAP1 POP JUMP JUMPDEST PUSH32 0x4E487B7100000000000000000000000000000000000000000000000000000000 PUSH0 MSTORE PUSH1 0x41 PUSH1 0x4 MSTORE PUSH1 0x24 PUSH0 REVERT JUMPDEST PUSH2 0x34D DUP3 PUSH2 0x307 JUMP JUMPDEST DUP2 ADD DUP2 DUP2 LT PUSH8 0xFFFFFFFFFFFFFFFF DUP3 GT OR ISZERO PUSH2 0x36C JUMPI PUSH2 0x36B PUSH2 0x317 JUMP JUMPDEST JUMPDEST DUP1 PUSH1 0x40 MSTORE POP POP POP JUMP JUMPDEST PUSH0 PUSH2 0x37E PUSH2 0x23D JUMP JUMPDEST SWAP1 POP PUSH2 0x38A DUP3 DUP3 PUSH2 0x344 JUMP JUMPDEST SWAP2 SWAP1 POP JUMP JUMPDEST PUSH0 PUSH8 0xFFFFFFFFFFFFFFFF DUP3 GT ISZERO PUSH2 0x3A9 JUMPI PUSH2 0x3A8 PUSH2 0x317 JUMP JUMPDEST JUMPDEST PUSH2 0x3B2 DUP3 PUSH2 0x307 JUMP JUMPDEST SWAP1 POP PUSH1 0x20 DUP2 ADD SWAP1 POP SWAP2 SWAP1 POP JUMP JUMPDEST DUP3 DUP2 DUP4 CALLDATACOPY PUSH0 DUP4 DUP4 ADD MSTORE POP POP POP JUMP JUMPDEST PUSH0 PUSH2 0x3DF PUSH2 0x3DA DUP5 PUSH2 0x38F JUMP JUMPDEST PUSH2 0x375 JUMP JUMPDEST SWAP1 POP DUP3 DUP2 MSTORE PUSH1 0x20 DUP2 ADD DUP5 DUP5 DUP5 ADD GT ISZERO PUSH2 0x3FB JUMPI PUSH2 0x3FA PUSH2 0x303 JUMP JUMPDEST JUMPDEST PUSH2 0x406 DUP5 DUP3 DUP6 PUSH2 0x3BF JUMP JUMPDEST POP SWAP4 SWAP3 POP POP POP JUMP JUMPDEST PUSH0 DUP3 PUSH1 0x1F DUP4 ADD SLT PUSH2 0x422 JUMPI PUSH2 0x421 PUSH2 0x2FF JUMP JUMPDEST JUMPDEST DUP2 CALLDATALOAD PUSH2 0x432 DUP5 DUP3 PUSH1 0x20 DUP7 ADD PUSH2 0x3CD JUMP JUMPDEST SWAP2 POP POP SWAP3 SWAP2 POP POP JUMP JUMPDEST PUSH0 PUSH1 0x20 DUP3 DUP5 SUB SLT ISZERO PUSH2 0x450 JUMPI PUSH2 0x44F PUSH2 0x246 JUMP JUMPDEST JUMPDEST PUSH0 DUP3 ADD CALLDATALOAD PUSH8 0xFFFFFFFFFFFFFFFF DUP2 GT ISZERO PUSH2 0x46D JUMPI PUSH2 0x46C PUSH2 0x24A JUMP JUMPDEST JUMPDEST PUSH2 0x479 DUP5 DUP3 DUP6 ADD PUSH2 0x40E JUMP JUMPDEST SWAP2 POP POP SWAP3 SWAP2 POP POP JUMP JUMPDEST PUSH0 DUP2 MLOAD SWAP1 POP SWAP2 SWAP1 POP JUMP JUMPDEST PUSH0 DUP3 DUP3 MSTORE PUSH1 0x20 DUP3 ADD SWAP1 POP SWAP3 SWAP2 POP POP JUMP JUMPDEST DUP3 DUP2 DUP4 MCOPY PUSH0 DUP4 DUP4 ADD MSTORE POP POP POP JUMP JUMPDEST PUSH0 PUSH2 0x4B4 DUP3 PUSH2 0x482 JUMP JUMPDEST PUSH2 0x4BE DUP2 DUP6 PUSH2 0x48C JUMP JUMPDEST SWAP4 POP PUSH2 0x4CE DUP2 DUP6 PUSH1 0x20 DUP7 ADD PUSH2 0x49C JUMP JUMPDEST PUSH2 0x4D7 DUP2 PUSH2 0x307 JUMP JUMPDEST DUP5 ADD SWAP2 POP POP SWAP3 SWAP2 POP POP JUMP JUMPDEST PUSH0 PUSH1 0x20 DUP3 ADD SWAP1 POP DUP2 DUP2 SUB PUSH0 DUP4 ADD MSTORE PUSH2 0x4FA DUP2 DUP5 PUSH2 0x4AA JUMP JUMPDEST SWAP1 POP SWAP3 SWAP2 POP POP JUMP JUMPDEST PUSH2 0x50B DUP2 PUSH2 0x24E JUMP JUMPDEST DUP3 MSTORE POP POP JUMP JUMPDEST PUSH0 PUSH1 0x20 DUP3 ADD SWAP1 POP PUSH2 0x524 PUSH0 DUP4 ADD DUP5 PUSH2 0x502 JUMP JUMPDEST SWAP3 SWAP2 POP POP JUMP JUMPDEST PUSH32 0x4E487B7100000000000000000000000000000000000000000000000000000000 PUSH0 MSTORE PUSH1 0x22 PUSH1 0x4 MSTORE PUSH1 0x24 PUSH0 REVERT JUMPDEST PUSH0 PUSH1 0x2 DUP3 DIV SWAP1 POP PUSH1 0x1 DUP3 AND DUP1 PUSH2 0x56E JUMPI PUSH1 0x7F DUP3 AND SWAP2 POP JUMPDEST PUSH1 0x20 DUP3 LT DUP2 SUB PUSH2 0x581 JUMPI PUSH2 0x580 PUSH2 0x52A JUMP JUMPDEST JUMPDEST POP SWAP2 SWAP1 POP JUMP JUMPDEST PUSH0 DUP3 DUP3 MSTORE PUSH1 0x20 DUP3 ADD SWAP1 POP SWAP3 SWAP2 POP POP JUMP JUMPDEST PUSH32 0x496E646578206F7574206F662072616E67650000000000000000000000000000 PUSH0 DUP3 ADD MSTORE POP JUMP JUMPDEST PUSH0 PUSH2 0x5CB PUSH1 0x12 DUP4 PUSH2 0x587 JUMP JUMPDEST SWAP2 POP PUSH2 0x5D6 DUP3 PUSH2 0x597 JUMP JUMPDEST PUSH1 0x20 DUP3 ADD SWAP1 POP SWAP2 SWAP1 POP JUMP JUMPDEST PUSH0 PUSH1 0x20 DUP3 ADD SWAP1 POP DUP2 DUP2 SUB PUSH0 DUP4 ADD MSTORE PUSH2 0x5F8 DUP2 PUSH2 0x5BF JUMP JUMPDEST SWAP1 POP SWAP2 SWAP1 POP JUMP JUMPDEST PUSH32 0x4E487B7100000000000000000000000000000000000000000000000000000000 PUSH0 MSTORE PUSH1 0x32 PUSH1 0x4 MSTORE PUSH1 0x24 PUSH0 REVERT JUMPDEST PUSH0 DUP2 SWAP1 POP DUP2 PUSH0 MSTORE PUSH1 0x20 PUSH0 KECCAK256 SWAP1 POP SWAP2 SWAP1 POP JUMP JUMPDEST PUSH0 PUSH1 0x20 PUSH1 0x1F DUP4 ADD DIV SWAP1 POP SWAP2 SWAP1 POP JUMP JUMPDEST PUSH0 DUP3 DUP3 SHL SWAP1 POP SWAP3 SWAP2 POP POP JUMP JUMPDEST PUSH0 PUSH1 0x8 DUP4 MUL PUSH2 0x688 PUSH32 0xFFFFFFFFFFFFFFFFFFFFFFFFFFFFFFFFFFFFFFFFFFFFFFFFFFFFFFFFFFFFFFFF DUP3 PUSH2 0x64D JUMP JUMPDEST PUSH2 0x692 DUP7 DUP4 PUSH2 0x64D JUMP JUMPDEST SWAP6 POP DUP1 NOT DUP5 AND SWAP4 POP DUP1 DUP7 AND DUP5 OR SWAP3 POP POP POP SWAP4 SWAP3 POP POP POP JUMP JUMPDEST PUSH0 DUP2 SWAP1 POP SWAP2 SWAP1 POP JUMP JUMPDEST PUSH0 PUSH2 0x6CD PUSH2 0x6C8 PUSH2 0x6C3 DUP5 PUSH2 0x24E JUMP JUMPDEST PUSH2 0x6AA JUMP JUMPDEST PUSH2 0x24E JUMP JUMPDEST SWAP1 POP SWAP2 SWAP1 POP JUMP JUMPDEST PUSH0 DUP2 SWAP1 POP SWAP2 SWAP1 POP JUMP JUMPDEST PUSH2 0x6E6 DUP4 PUSH2 0x6B3 JUMP JUMPDEST PUSH2 0x6FA PUSH2 0x6F2 DUP3 PUSH2 0x6D4 JUMP JUMPDEST DUP5 DUP5 SLOAD PUSH2 0x659 JUMP JUMPDEST DUP3 SSTORE POP POP POP POP JUMP JUMPDEST PUSH0 PUSH0 SWAP1 POP SWAP1 JUMP JUMPDEST PUSH2 0x711 PUSH2 0x702 JUMP JUMPDEST PUSH2 0x71C DUP2 DUP5 DUP5 PUSH2 0x6DD JUMP JUMPDEST POP POP POP JUMP JUMPDEST JUMPDEST DUP2 DUP2 LT ISZERO PUSH2 0x73F JUMPI PUSH2 0x734 PUSH0 DUP3 PUSH2 0x709 JUMP JUMPDEST PUSH1 0x1 DUP2 ADD SWAP1 POP PUSH2 0x722 JUMP JUMPDEST POP POP JUMP JUMPDEST PUSH1 0x1F DUP3 GT ISZERO PUSH2 0x784 JUMPI PUSH2 0x755 DUP2 PUSH2 0x62C JUMP JUMPDEST PUSH2 0x75E DUP5 PUSH2 0x63E JUMP JUMPDEST DUP2 ADD PUSH1 0x20 DUP6 LT ISZERO PUSH2 0x76D JUMPI DUP2 SWAP1 POP JUMPDEST PUSH2 0x781 PUSH2 0x779 DUP6 PUSH2 0x63E JUMP JUMPDEST DUP4 ADD DUP3 PUSH2 0x721 JUMP JUMPDEST POP POP JUMPDEST POP POP POP JUMP JUMPDEST PUSH0 DUP3 DUP3 SHR SWAP1 POP SWAP3 SWAP2 POP POP JUMP JUMPDEST PUSH0 PUSH2 0x7A4 PUSH0 NOT DUP5 PUSH1 0x8 MUL PUSH2 0x789 JUMP JUMPDEST NOT DUP1 DUP4 AND SWAP2 POP POP SWAP3 SWAP2 POP POP JUMP JUMPDEST PUSH0 PUSH2 0x7BC DUP4 DUP4 PUSH2 0x795 JUMP JUMPDEST SWAP2 POP DUP3 PUSH1 0x2 MUL DUP3 OR SWAP1 POP SWAP3 SWAP2 POP POP JUMP JUMPDEST PUSH2 0x7D5 DUP3 PUSH2 0x482 JUMP JUMPDEST PUSH8 0xFFFFFFFFFFFFFFFF DUP2 GT ISZERO PUSH2 0x7EE JUMPI PUSH2 0x7ED PUSH2 0x317 JUMP JUMPDEST JUMPDEST PUSH2 0x7F8 DUP3 SLOAD PUSH2 0x557 JUMP JUMPDEST PUSH2 0x803 DUP3 DUP3 DUP6 PUSH2 0x743 JUMP JUMPDEST PUSH0 PUSH1 0x20 SWAP1 POP PUSH1 0x1F DUP4 GT PUSH1 0x1 DUP2 EQ PUSH2 0x834 JUMPI PUSH0 DUP5 ISZERO PUSH2 0x822 JUMPI DUP3 DUP8 ADD MLOAD SWAP1 POP JUMPDEST PUSH2 0x82C DUP6 DUP3 PUSH2 0x7B1 JUMP JUMPDEST DUP7 SSTORE POP PUSH2 0x893 JUMP JUMPDEST PUSH1 0x1F NOT DUP5 AND PUSH2 0x842 DUP7 PUSH2 0x62C JUMP JUMPDEST PUSH0 JUMPDEST DUP3 DUP2 LT ISZERO PUSH2 0x869 JUMPI DUP5 DUP10 ADD MLOAD DUP3 SSTORE PUSH1 0x1 DUP3 ADD SWAP2 POP PUSH1 0x20 DUP6 ADD SWAP5 POP PUSH1 0x20 DUP2 ADD SWAP1 POP PUSH2 0x844 JUMP JUMPDEST DUP7 DUP4 LT ISZERO PUSH2 0x886 JUMPI DUP5 DUP10 ADD MLOAD PUSH2 0x882 PUSH1 0x1F DUP10 AND DUP3 PUSH2 0x795 JUMP JUMPDEST DUP4 SSTORE POP JUMPDEST PUSH1 0x1 PUSH1 0x2 DUP9 MUL ADD DUP9 SSTORE POP POP POP JUMPDEST POP POP POP POP POP POP JUMP INVALID LOG2 PUSH5 0x6970667358 0x22 SLT KECCAK256 BLOBHASH 0xB4 RJUMPI 0x320F 0xEF 0xED BASEFEE LOG2 SWAP5 EXTDELEGATECALL SGT PUSH18 0x6182C0BEE0EF3147EC5D83F36B6AF9180F58 0x4F PUSH5 0x736F6C6343 STOP ADDMOD 0x1F STOP CALLER "
		},
		"gasEstimates": {
			"creation": {
				"codeDepositCost": "451400",
				"executionCost": "484",
				"totalCost": "451884"
			},
			"external": {
				"data()": "infinite",
				"getByte(uint256)": "infinite",
				"getLength()": "2607",
				"setData(string)": "infinite"
			}
		},
		"methodIdentifiers": {
			"data()": "73d4a13a",
			"getByte(uint256)": "2a1fd42c",
			"getLength()": "be1c766b",
			"setData(string)": "47064d6a"
		}
	},
	"abi": [
		{
			"inputs": [],
			"name": "data",
			"outputs": [
				{
					"internalType": "bytes",
					"name": "",
					"type": "bytes"
				}
			],
			"stateMutability": "view",
			"type": "function"
		},
		{
			"inputs": [
				{
					"internalType": "uint256",
					"name": "index",
					"type": "uint256"
				}
			],
			"name": "getByte",
			"outputs": [
				{
					"internalType": "bytes1",
					"name": "",
					"type": "bytes1"
				}
			],
			"stateMutability": "view",
			"type": "function"
		},
		{
			"inputs": [],
			"name": "getLength",
			"outputs": [
				{
					"internalType": "uint256",
					"name": "",
					"type": "uint256"
				}
			],
			"stateMutability": "view",
			"type": "function"
		},
		{
			"inputs": [
				{
					"internalType": "string",
					"name": "_text",
					"type": "string"
				}
			],
			"name": "setData",
			"outputs": [],
			"stateMutability": "nonpayable",
			"type": "function"
		}
	]
}