{
	"data": {
		"bytecode": {
			"linkReferences": {},
			"object": "6080604052348015600e575f5ffd5b50600160025f6101000a81548160ff021916908315150217905550611290806100365f395ff3fe608060405234801561000f575f5ffd5b50600436106100f3575f3560e01c806365ac2320116100955780639624b8a7116100645780639624b8a71461023a57806398c5139414610258578063b6b55f2514610276578063ec36d35e14610292576100f3565b806365ac2320146101d85780637ed6c926146101f65780637fd25e6f1461021257806386f5471214610230576100f3565b8063295795e2116100d1578063295795e21461014f5780632e1a7d4d1461016b5780633e116de514610187578063533092ef146101b7576100f3565b80630bf6cc08146100f75780630dccd51e1461011557806318976fa214610145575b5f5ffd5b6100ff6102b0565b60405161010c9190610747565b60405180910390f35b61012f600480360381019061012a919061079b565b6102b6565b60405161013c9190610800565b60405180910390f35b61014d61036e565b005b61016960048036038101906101649190610955565b610389565b005b6101856004803603810190610180919061079b565b61039b565b005b6101a1600480360381019061019c9190610955565b610461565b6040516101ae91906109b6565b60405180910390f35b6101bf610488565b6040516101cf9493929190610a47565b60405180910390f35b6101e061053b565b6040516101ed9190610a91565b60405180910390f35b610210600480360381019061020b9190610955565b6105c6565b005b61021a6105d9565b6040516102279190610b03565b60405180910390f35b610238610665565b005b610242610681565b60405161024f9190610747565b60405180910390f35b610260610696565b60405161026d9190610b23565b60405180910390f35b610290600480360381019061028b919061079b565b61069c565b005b61029a61071d565b6040516102a791906109b6565b60405180910390f35b60015481565b5f600480546102c490610b69565b90508210610307576040517f08c379a00000000000000000000000000000000000000000000000000000000081526004016102fe90610be3565b60405180910390fd5b600482815461031590610b69565b811061032457610323610c01565b5b81546001161561034157905f5260205f2090602091828204019190065b9054901a7f0100000000000000000000000000000000000000000000000000000000000000029050919050565b5f60025f6101000a81548160ff021916908315150217905550565b805f90816103979190610dce565b5050565b60025f9054906101000a900460ff166103e9576040517f08c379a00000000000000000000000000000000000000000000000000000000081526004016103e090610ee7565b60405180910390fd5b60015481111561042e576040517f08c379a000000000000000000000000000000000000000000000000000000000815260040161042590610f4f565b60405180910390fd5b8060015f82825461043f9190610f9a565b925050819055508060035f8282546104579190610fcd565b9250508190555050565b5f81805190602001205f60405161047891906110a9565b6040518091039020149050919050565b60605f5f5f5f60015460035460025f9054906101000a900460ff168380546104af90610b69565b80601f01602080910402602001604051908101604052809291908181526020018280546104db90610b69565b80156105265780601f106104fd57610100808354040283529160200191610526565b820191905f5260205f20905b81548152906001019060200180831161050957829003601f168201915b50505050509350935093509350935090919293565b5f805461054790610b69565b80601f016020809104026020016040519081016040528092919081815260200182805461057390610b69565b80156105be5780601f10610595576101008083540402835291602001916105be565b820191905f5260205f20905b8154815290600101906020018083116105a157829003601f168201915b505050505081565b80600490816105d59190611117565b5050565b600480546105e690610b69565b80601f016020809104026020016040519081016040528092919081815260200182805461061290610b69565b801561065d5780601f106106345761010080835404028352916020019161065d565b820191905f5260205f20905b81548152906001019060200180831161064057829003601f168201915b505050505081565b600160025f6101000a81548160ff021916908315150217905550565b5f6004805461068f90610b69565b9050905090565b60035481565b60025f9054906101000a900460ff166106ea576040517f08c379a00000000000000000000000000000000000000000000000000000000081526004016106e190610ee7565b60405180910390fd5b8060015f8282546106fb91906111e6565b925050819055508060035f8282546107139190611219565b9250508190555050565b60025f9054906101000a900460ff1681565b5f819050919050565b6107418161072f565b82525050565b5f60208201905061075a5f830184610738565b92915050565b5f604051905090565b5f5ffd5b5f5ffd5b61077a8161072f565b8114610784575f5ffd5b50565b5f8135905061079581610771565b92915050565b5f602082840312156107b0576107af610769565b5b5f6107bd84828501610787565b91505092915050565b5f7fff0000000000000000000000000000000000000000000000000000000000000082169050919050565b6107fa816107c6565b82525050565b5f6020820190506108135f8301846107f1565b92915050565b5f5ffd5b5f5ffd5b5f601f19601f8301169050919050565b7f4e487b71000000000000000000000000000000000000000000000000000000005f52604160045260245ffd5b61086782610821565b810181811067ffffffffffffffff8211171561088657610885610831565b5b80604052505050565b5f610898610760565b90506108a4828261085e565b919050565b5f67ffffffffffffffff8211156108c3576108c2610831565b5b6108cc82610821565b9050602081019050919050565b828183375f83830152505050565b5f6108f96108f4846108a9565b61088f565b9050828152602081018484840111156109155761091461081d565b5b6109208482856108d9565b509392505050565b5f82601f83011261093c5761093b610819565b5b813561094c8482602086016108e7565b91505092915050565b5f6020828403121561096a57610969610769565b5b5f82013567ffffffffffffffff8111156109875761098661076d565b5b61099384828501610928565b91505092915050565b5f8115159050919050565b6109b08161099c565b82525050565b5f6020820190506109c95f8301846109a7565b92915050565b5f81519050919050565b5f82825260208201905092915050565b8281835e5f83830152505050565b5f610a01826109cf565b610a0b81856109d9565b9350610a1b8185602086016109e9565b610a2481610821565b840191505092915050565b5f819050919050565b610a4181610a2f565b82525050565b5f6080820190508181035f830152610a5f81876109f7565b9050610a6e6020830186610738565b610a7b6040830185610a38565b610a8860608301846109a7565b95945050505050565b5f6020820190508181035f830152610aa981846109f7565b905092915050565b5f81519050919050565b5f82825260208201905092915050565b5f610ad582610ab1565b610adf8185610abb565b9350610aef8185602086016109e9565b610af881610821565b840191505092915050565b5f6020820190508181035f830152610b1b8184610acb565b905092915050565b5f602082019050610b365f830184610a38565b92915050565b7f4e487b71000000000000000000000000000000000000000000000000000000005f52602260045260245ffd5b5f6002820490506001821680610b8057607f821691505b602082108103610b9357610b92610b3c565b5b50919050565b7f496e646578206f7574206f662072616e676500000000000000000000000000005f82015250565b5f610bcd6012836109d9565b9150610bd882610b99565b602082019050919050565b5f6020820190508181035f830152610bfa81610bc1565b9050919050565b7f4e487b71000000000000000000000000000000000000000000000000000000005f52603260045260245ffd5b5f819050815f5260205f209050919050565b5f6020601f8301049050919050565b5f82821b905092915050565b5f60088302610c8a7fffffffffffffffffffffffffffffffffffffffffffffffffffffffffffffffff82610c4f565b610c948683610c4f565b95508019841693508086168417925050509392505050565b5f819050919050565b5f610ccf610cca610cc58461072f565b610cac565b61072f565b9050919050565b5f819050919050565b610ce883610cb5565b610cfc610cf482610cd6565b848454610c5b565b825550505050565b5f5f905090565b610d13610d04565b610d1e818484610cdf565b505050565b5b81811015610d4157610d365f82610d0b565b600181019050610d24565b5050565b601f821115610d8657610d5781610c2e565b610d6084610c40565b81016020851015610d6f578190505b610d83610d7b85610c40565b830182610d23565b50505b505050565b5f82821c905092915050565b5f610da65f1984600802610d8b565b1980831691505092915050565b5f610dbe8383610d97565b9150826002028217905092915050565b610dd7826109cf565b67ffffffffffffffff811115610df057610def610831565b5b610dfa8254610b69565b610e05828285610d45565b5f60209050601f831160018114610e36575f8415610e24578287015190505b610e2e8582610db3565b865550610e95565b601f198416610e4486610c2e565b5f5b82811015610e6b57848901518255600182019150602085019450602081019050610e46565b86831015610e885784890151610e84601f891682610d97565b8355505b6001600288020188555050505b505050505050565b7f5661756c7420697320636c6f73656400000000000000000000000000000000005f82015250565b5f610ed1600f836109d9565b9150610edc82610e9d565b602082019050919050565b5f6020820190508181035f830152610efe81610ec5565b9050919050565b7f496e73756666696369656e742062616c616e63650000000000000000000000005f82015250565b5f610f396014836109d9565b9150610f4482610f05565b602082019050919050565b5f6020820190508181035f830152610f6681610f2d565b9050919050565b7f4e487b71000000000000000000000000000000000000000000000000000000005f52601160045260245ffd5b5f610fa48261072f565b9150610faf8361072f565b9250828203905081811115610fc757610fc6610f6d565b5b92915050565b5f610fd782610a2f565b9150610fe283610a2f565b925082820390508181125f8412168282135f85121516171561100757611006610f6d565b5b92915050565b5f81905092915050565b5f819050815f5260205f209050919050565b5f815461103581610b69565b61103f818661100d565b9450600182165f8114611059576001811461106e576110a0565b60ff19831686528115158202860193506110a0565b61107785611017565b5f5b8381101561109857815481890152600182019150602081019050611079565b838801955050505b50505092915050565b5f6110b48284611029565b915081905092915050565b5f819050815f5260205f209050919050565b601f821115611112576110e3816110bf565b6110ec84610c40565b810160208510156110fb578190505b61110f61110785610c40565b830182610d23565b50505b505050565b61112082610ab1565b67ffffffffffffffff81111561113957611138610831565b5b6111438254610b69565b61114e8282856110d1565b5f60209050601f83116001811461117f575f841561116d578287015190505b6111778582610db3565b8655506111de565b601f19841661118d866110bf565b5f5b828110156111b45784890151825560018201915060208501945060208101905061118f565b868310156111d157848901516111cd601f891682610d97565b8355505b6001600288020188555050505b505050505050565b5f6111f08261072f565b91506111fb8361072f565b925082820190508082111561121357611212610f6d565b5b92915050565b5f61122382610a2f565b915061122e83610a2f565b92508282019050828112155f8312168382125f84121516171561125457611253610f6d565b5b9291505056fea2646970667358221220abb8d9e23874e3e912a6841a27a07903cbe6ccb6e23d3a0d8ba6981ca3c81b5564736f6c634300081f0033",
			"opcodes": "PUSH1 0x80 PUSH1 0x40 MSTORE CALLVALUE DUP1 ISZERO PUSH1 0xE JUMPI PUSH0 PUSH0 REVERT JUMPDEST POP PUSH1 0x1 PUSH1 0x2 PUSH0 PUSH2 0x100 EXP DUP2 SLOAD DUP2 PUSH1 0xFF MUL NOT AND SWAP1 DUP4 ISZERO ISZERO MUL OR SWAP1 SSTORE POP PUSH2 0x1290 DUP1 PUSH2 0x36 PUSH0 CODECOPY PUSH0 RETURN INVALID PUSH1 0x80 PUSH1 0x40 MSTORE CALLVALUE DUP1 ISZERO PUSH2 0xF JUMPI PUSH0 PUSH0 REVERT JUMPDEST POP PUSH1 0x4 CALLDATASIZE LT PUSH2 0xF3 JUMPI PUSH0 CALLDATALOAD PUSH1 0xE0 SHR DUP1 PUSH4 0x65AC2320 GT PUSH2 0x95 JUMPI DUP1 PUSH4 0x9624B8A7 GT PUSH2 0x64 JUMPI DUP1 PUSH4 0x9624B8A7 EQ PUSH2 0x23A JUMPI DUP1 PUSH4 0x98C51394 EQ PUSH2 0x258 JUMPI DUP1 PUSH4 0xB6B55F25 EQ PUSH2 0x276 JUMPI DUP1 PUSH4 0xEC36D35E EQ PUSH2 0x292 JUMPI PUSH2 0xF3 JUMP JUMPDEST DUP1 PUSH4 0x65AC2320 EQ PUSH2 0x1D8 JUMPI DUP1 PUSH4 0x7ED6C926 EQ PUSH2 0x1F6 JUMPI DUP1 PUSH4 0x7FD25E6F EQ PUSH2 0x212 JUMPI DUP1 PUSH4 0x86F54712 EQ PUSH2 0x230 JUMPI PUSH2 0xF3 JUMP JUMPDEST DUP1 PUSH4 0x295795E2 GT PUSH2 0xD1 JUMPI DUP1 PUSH4 0x295795E2 EQ PUSH2 0x14F JUMPI DUP1 PUSH4 0x2E1A7D4D EQ PUSH2 0x16B JUMPI DUP1 PUSH4 0x3E116DE5 EQ PUSH2 0x187 JUMPI DUP1 PUSH4 0x533092EF EQ PUSH2 0x1B7 JUMPI PUSH2 0xF3 JUMP JUMPDEST DUP1 PUSH4 0xBF6CC08 EQ PUSH2 0xF7 JUMPI DUP1 PUSH4 0xDCCD51E EQ PUSH2 0x115 JUMPI DUP1 PUSH4 0x18976FA2 EQ PUSH2 0x145 JUMPI JUMPDEST PUSH0 PUSH0 REVERT JUMPDEST PUSH2 0xFF PUSH2 0x2B0 JUMP JUMPDEST PUSH1 0x40 MLOAD PUSH2 0x10C SWAP2 SWAP1 PUSH2 0x747 JUMP JUMPDEST PUSH1 0x40 MLOAD DUP1 SWAP2 SUB SWAP1 RETURN JUMPDEST PUSH2 0x12F PUSH1 0x4 DUP1 CALLDATASIZE SUB DUP2 ADD SWAP1 PUSH2 0x12A SWAP2 SWAP1 PUSH2 0x79B JUMP JUMPDEST PUSH2 0x2B6 JUMP JUMPDEST PUSH1 0x40 MLOAD PUSH2 0x13C SWAP2 SWAP1 PUSH2 0x800 JUMP JUMPDEST PUSH1 0x40 MLOAD DUP1 SWAP2 SUB SWAP1 RETURN JUMPDEST PUSH2 0x14D PUSH2 0x36E JUMP JUMPDEST STOP JUMPDEST PUSH2 0x169 PUSH1 0x4 DUP1 CALLDATASIZE SUB DUP2 ADD SWAP1 PUSH2 0x164 SWAP2 SWAP1 PUSH2 0x955 JUMP JUMPDEST PUSH2 0x389 JUMP JUMPDEST STOP JUMPDEST PUSH2 0x185 PUSH1 0x4 DUP1 CALLDATASIZE SUB DUP2 ADD SWAP1 PUSH2 0x180 SWAP2 SWAP1 PUSH2 0x79B JUMP JUMPDEST PUSH2 0x39B JUMP JUMPDEST STOP JUMPDEST PUSH2 0x1A1 PUSH1 0x4 DUP1 CALLDATASIZE SUB DUP2 ADD SWAP1 PUSH2 0x19C SWAP2 SWAP1 PUSH2 0x955 JUMP JUMPDEST PUSH2 0x461 JUMP JUMPDEST PUSH1 0x40 MLOAD PUSH2 0x1AE SWAP2 SWAP1 PUSH2 0x9B6 JUMP JUMPDEST PUSH1 0x40 MLOAD DUP1 SWAP2 SUB SWAP1 RETURN JUMPDEST PUSH2 0x1BF PUSH2 0x488 JUMP JUMPDEST PUSH1 0x40 MLOAD PUSH2 0x1CF SWAP5 SWAP4 SWAP3 SWAP2 SWAP1 PUSH2 0xA47 JUMP JUMPDEST PUSH1 0x40 MLOAD DUP1 SWAP2 SUB SWAP1 RETURN JUMPDEST PUSH2 0x1E0 PUSH2 0x53B JUMP JUMPDEST PUSH1 0x40 MLOAD PUSH2 0x1ED SWAP2 SWAP1 PUSH2 0xA91 JUMP JUMPDEST PUSH1 0x40 MLOAD DUP1 SWAP2 SUB SWAP1 RETURN JUMPDEST PUSH2 0x210 PUSH1 0x4 DUP1 CALLDATASIZE SUB DUP2 ADD SWAP1 PUSH2 0x20B SWAP2 SWAP1 PUSH2 0x955 JUMP JUMPDEST PUSH2 0x5C6 JUMP JUMPDEST STOP JUMPDEST PUSH2 0x21A PUSH2 0x5D9 JUMP JUMPDEST PUSH1 0x40 MLOAD PUSH2 0x227 SWAP2 SWAP1 PUSH2 0xB03 JUMP JUMPDEST PUSH1 0x40 MLOAD DUP1 SWAP2 SUB SWAP1 RETURN JUMPDEST PUSH2 0x238 PUSH2 0x665 JUMP JUMPDEST STOP JUMPDEST PUSH2 0x242 PUSH2 0x681 JUMP JUMPDEST PUSH1 0x40 MLOAD PUSH2 0x24F SWAP2 SWAP1 PUSH2 0x747 JUMP JUMPDEST PUSH1 0x40 MLOAD DUP1 SWAP2 SUB SWAP1 RETURN JUMPDEST PUSH2 0x260 PUSH2 0x696 JUMP JUMPDEST PUSH1 0x40 MLOAD PUSH2 0x26D SWAP2 SWAP1 PUSH2 0xB23 JUMP JUMPDEST PUSH1 0x40 MLOAD DUP1 SWAP2 SUB SWAP1 RETURN JUMPDEST PUSH2 0x290 PUSH1 0x4 DUP1 CALLDATASIZE SUB DUP2 ADD SWAP1 PUSH2 0x28B SWAP2 SWAP1 PUSH2 0x79B JUMP JUMPDEST PUSH2 0x69C JUMP JUMPDEST STOP JUMPDEST PUSH2 0x29A PUSH2 0x71D JUMP JUMPDEST PUSH1 0x40 MLOAD PUSH2 0x2A7 SWAP2 SWAP1 PUSH2 0x9B6 JUMP JUMPDEST PUSH1 0x40 MLOAD DUP1 SWAP2 SUB SWAP1 RETURN JUMPDEST PUSH1 0x1 SLOAD DUP2 JUMP JUMPDEST PUSH0 PUSH1 0x4 DUP1 SLOAD PUSH2 0x2C4 SWAP1 PUSH2 0xB69 JUMP JUMPDEST SWAP1 POP DUP3 LT PUSH2 0x307 JUMPI PUSH1 0x40 MLOAD PUSH32 0x8C379A000000000000000000000000000000000000000000000000000000000 DUP2 MSTORE PUSH1 0x4 ADD PUSH2 0x2FE SWAP1 PUSH2 0xBE3 JUMP JUMPDEST PUSH1 0x40 MLOAD DUP1 SWAP2 SUB SWAP1 REVERT JUMPDEST PUSH1 0x4 DUP3 DUP2 SLOAD PUSH2 0x315 SWAP1 PUSH2 0xB69 JUMP JUMPDEST DUP2 LT PUSH2 0x324 JUMPI PUSH2 0x323 PUSH2 0xC01 JUMP JUMPDEST JUMPDEST DUP2 SLOAD PUSH1 0x1 AND ISZERO PUSH2 0x341 JUMPI SWAP1 PUSH0 MSTORE PUSH1 0x20 PUSH0 KECCAK256 SWAP1 PUSH1 0x20 SWAP2 DUP3 DUP3 DIV ADD SWAP2 SWAP1 MOD JUMPDEST SWAP1 SLOAD SWAP1 BYTE PUSH32 0x100000000000000000000000000000000000000000000000000000000000000 MUL SWAP1 POP SWAP2 SWAP1 POP JUMP JUMPDEST PUSH0 PUSH1 0x2 PUSH0 PUSH2 0x100 EXP DUP2 SLOAD DUP2 PUSH1 0xFF MUL NOT AND SWAP1 DUP4 ISZERO ISZERO MUL OR SWAP1 SSTORE POP JUMP JUMPDEST DUP1 PUSH0 SWAP1 DUP2 PUSH2 0x397 SWAP2 SWAP1 PUSH2 0xDCE JUMP JUMPDEST POP POP JUMP JUMPDEST PUSH1 0x2 PUSH0 SWAP1 SLOAD SWAP1 PUSH2 0x100 EXP SWAP1 DIV PUSH1 0xFF AND PUSH2 0x3E9 JUMPI PUSH1 0x40 MLOAD PUSH32 0x8C379A000000000000000000000000000000000000000000000000000000000 DUP2 MSTORE PUSH1 0x4 ADD PUSH2 0x3E0 SWAP1 PUSH2 0xEE7 JUMP JUMPDEST PUSH1 0x40 MLOAD DUP1 SWAP2 SUB SWAP1 REVERT JUMPDEST PUSH1 0x1 SLOAD DUP2 GT ISZERO PUSH2 0x42E JUMPI PUSH1 0x40 MLOAD PUSH32 0x8C379A000000000000000000000000000000000000000000000000000000000 DUP2 MSTORE PUSH1 0x4 ADD PUSH2 0x425 SWAP1 PUSH2 0xF4F JUMP JUMPDEST PUSH1 0x40 MLOAD DUP1 SWAP2 SUB SWAP1 REVERT JUMPDEST DUP1 PUSH1 0x1 PUSH0 DUP3 DUP3 SLOAD PUSH2 0x43F SWAP2 SWAP1 PUSH2 0xF9A JUMP JUMPDEST SWAP3 POP POP DUP2 SWAP1 SSTORE POP DUP1 PUSH1 0x3 PUSH0 DUP3 DUP3 SLOAD PUSH2 0x457 SWAP2 SWAP1 PUSH2 0xFCD JUMP JUMPDEST SWAP3 POP POP DUP2 SWAP1 SSTORE POP POP JUMP JUMPDEST PUSH0 DUP2 DUP1 MLOAD SWAP1 PUSH1 0x20 ADD KECCAK256 PUSH0 PUSH1 0x40 MLOAD PUSH2 0x478 SWAP2 SWAP1 PUSH2 0x10A9 JUMP JUMPDEST PUSH1 0x40 MLOAD DUP1 SWAP2 SUB SWAP1 KECCAK256 EQ SWAP1 POP SWAP2 SWAP1 POP JUMP JUMPDEST PUSH1 0x60 PUSH0 PUSH0 PUSH0 PUSH0 PUSH1 0x1 SLOAD PUSH1 0x3 SLOAD PUSH1 0x2 PUSH0 SWAP1 SLOAD SWAP1 PUSH2 0x100 EXP SWAP1 DIV PUSH1 0xFF AND DUP4 DUP1 SLOAD PUSH2 0x4AF SWAP1 PUSH2 0xB69 JUMP JUMPDEST DUP1 PUSH1 0x1F ADD PUSH1 0x20 DUP1 SWAP2 DIV MUL PUSH1 0x20 ADD PUSH1 0x40 MLOAD SWAP1 DUP2 ADD PUSH1 0x40 MSTORE DUP1 SWAP3 SWAP2 SWAP1 DUP2 DUP2 MSTORE PUSH1 0x20 ADD DUP3 DUP1 SLOAD PUSH2 0x4DB SWAP1 PUSH2 0xB69 JUMP JUMPDEST DUP1 ISZERO PUSH2 0x526 JUMPI DUP1 PUSH1 0x1F LT PUSH2 0x4FD JUMPI PUSH2 0x100 DUP1 DUP4 SLOAD DIV MUL DUP4 MSTORE SWAP2 PUSH1 0x20 ADD SWAP2 PUSH2 0x526 JUMP JUMPDEST DUP3 ADD SWAP2 SWAP1 PUSH0 MSTORE PUSH1 0x20 PUSH0 KECCAK256 SWAP1 JUMPDEST DUP2 SLOAD DUP2 MSTORE SWAP1 PUSH1 0x1 ADD SWAP1 PUSH1 0x20 ADD DUP1 DUP4 GT PUSH2 0x509 JUMPI DUP3 SWAP1 SUB PUSH1 0x1F AND DUP3 ADD SWAP2 JUMPDEST POP POP POP POP POP SWAP4 POP SWAP4 POP SWAP4 POP SWAP4 POP SWAP4 POP SWAP1 SWAP2 SWAP3 SWAP4 JUMP JUMPDEST PUSH0 DUP1 SLOAD PUSH2 0x547 SWAP1 PUSH2 0xB69 JUMP JUMPDEST DUP1 PUSH1 0x1F ADD PUSH1 0x20 DUP1 SWAP2 DIV MUL PUSH1 0x20 ADD PUSH1 0x40 MLOAD SWAP1 DUP2 ADD PUSH1 0x40 MSTORE DUP1 SWAP3 SWAP2 SWAP1 DUP2 DUP2 MSTORE PUSH1 0x20 ADD DUP3 DUP1 SLOAD PUSH2 0x573 SWAP1 PUSH2 0xB69 JUMP JUMPDEST DUP1 ISZERO PUSH2 0x5BE JUMPI DUP1 PUSH1 0x1F LT PUSH2 0x595 JUMPI PUSH2 0x100 DUP1 DUP4 SLOAD DIV MUL DUP4 MSTORE SWAP2 PUSH1 0x20 ADD SWAP2 PUSH2 0x5BE JUMP JUMPDEST DUP3 ADD SWAP2 SWAP1 PUSH0 MSTORE PUSH1 0x20 PUSH0 KECCAK256 SWAP1 JUMPDEST DUP2 SLOAD DUP2 MSTORE SWAP1 PUSH1 0x1 ADD SWAP1 PUSH1 0x20 ADD DUP1 DUP4 GT PUSH2 0x5A1 JUMPI DUP3 SWAP1 SUB PUSH1 0x1F AND DUP3 ADD SWAP2 JUMPDEST POP POP POP POP POP DUP2 JUMP JUMPDEST DUP1 PUSH1 0x4 SWAP1 DUP2 PUSH2 0x5D5 SWAP2 SWAP1 PUSH2 0x1117 JUMP JUMPDEST POP POP JUMP JUMPDEST PUSH1 0x4 DUP1 SLOAD PUSH2 0x5E6 SWAP1 PUSH2 0xB69 JUMP JUMPDEST DUP1 PUSH1 0x1F ADD PUSH1 0x20 DUP1 SWAP2 DIV MUL PUSH1 0x20 ADD PUSH1 0x40 MLOAD SWAP1 DUP2 ADD PUSH1 0x40 MSTORE DUP1 SWAP3 SWAP2 SWAP1 DUP2 DUP2 MSTORE PUSH1 0x20 ADD DUP3 DUP1 SLOAD PUSH2 0x612 SWAP1 PUSH2 0xB69 JUMP JUMPDEST DUP1 ISZERO PUSH2 0x65D JUMPI DUP1 PUSH1 0x1F LT PUSH2 0x634 JUMPI PUSH2 0x100 DUP1 DUP4 SLOAD DIV MUL DUP4 MSTORE SWAP2 PUSH1 0x20 ADD SWAP2 PUSH2 0x65D JUMP JUMPDEST DUP3 ADD SWAP2 SWAP1 PUSH0 MSTORE PUSH1 0x20 PUSH0 KECCAK256 SWAP1 JUMPDEST DUP2 SLOAD DUP2 MSTORE SWAP1 PUSH1 0x1 ADD SWAP1 PUSH1 0x20 ADD DUP1 DUP4 GT PUSH2 0x640 JUMPI DUP3 SWAP1 SUB PUSH1 0x1F AND DUP3 ADD SWAP2 JUMPDEST POP POP POP POP POP DUP2 JUMP JUMPDEST PUSH1 0x1 PUSH1 0x2 PUSH0 PUSH2 0x100 EXP DUP2 SLOAD DUP2 PUSH1 0xFF MUL NOT AND SWAP1 DUP4 ISZERO ISZERO MUL OR SWAP1 SSTORE POP JUMP JUMPDEST PUSH0 PUSH1 0x4 DUP1 SLOAD PUSH2 0x68F SWAP1 PUSH2 0xB69 JUMP JUMPDEST SWAP1 POP SWAP1 POP SWAP1 JUMP JUMPDEST PUSH1 0x3 SLOAD DUP2 JUMP JUMPDEST PUSH1 0x2 PUSH0 SWAP1 SLOAD SWAP1 PUSH2 0x100 EXP SWAP1 DIV PUSH1 0xFF AND PUSH2 0x6EA JUMPI PUSH1 0x40 MLOAD PUSH32 0x8C379A000000000000000000000000000000000000000000000000000000000 DUP2 MSTORE PUSH1 0x4 ADD PUSH2 0x6E1 SWAP1 PUSH2 0xEE7 JUMP JUMPDEST PUSH1 0x40 MLOAD DUP1 SWAP2 SUB SWAP1 REVERT JUMPDEST DUP1 PUSH1 0x1 PUSH0 DUP3 DUP3 SLOAD PUSH2 0x6FB SWAP2 SWAP1 PUSH2 0x11E6 JUMP JUMPDEST SWAP3 POP POP DUP2 SWAP1 SSTORE POP DUP1 PUSH1 0x3 PUSH0 DUP3 DUP3 SLOAD PUSH2 0x713 SWAP2 SWAP1 PUSH2 0x1219 JUMP JUMPDEST SWAP3 POP POP DUP2 SWAP1 SSTORE POP POP JUMP JUMPDEST PUSH1 0x2 PUSH0 SWAP1 SLOAD SWAP1 PUSH2 0x100 EXP SWAP1 DIV PUSH1 0xFF AND DUP2 JUMP JUMPDEST PUSH0 DUP2 SWAP1 POP SWAP2 SWAP1 POP JUMP JUMPDEST PUSH2 0x741 DUP2 PUSH2 0x72F JUMP JUMPDEST DUP3 MSTORE POP POP JUMP JUMPDEST PUSH0 PUSH1 0x20 DUP3 ADD SWAP1 POP PUSH2 0x75A PUSH0 DUP4 ADD DUP5 PUSH2 0x738 JUMP JUMPDEST SWAP3 SWAP2 POP POP JUMP JUMPDEST PUSH0 PUSH1 0x40 MLOAD SWAP1 POP SWAP1 JUMP JUMPDEST PUSH0 PUSH0 REVERT JUMPDEST PUSH0 PUSH0 REVERT JUMPDEST PUSH2 0x77A DUP2 PUSH2 0x72F JUMP JUMPDEST DUP2 EQ PUSH2 0x784 JUMPI PUSH0 PUSH0 REVERT JUMPDEST POP JUMP JUMPDEST PUSH0 DUP2 CALLDATALOAD SWAP1 POP PUSH2 0x795 DUP2 PUSH2 0x771 JUMP JUMPDEST SWAP3 SWAP2 POP POP JUMP JUMPDEST PUSH0 PUSH1 0x20 DUP3 DUP5 SUB SLT ISZERO PUSH2 0x7B0 JUMPI PUSH2 0x7AF PUSH2 0x769 JUMP JUMPDEST JUMPDEST PUSH0 PUSH2 0x7BD DUP5 DUP3 DUP6 ADD PUSH2 0x787 JUMP JUMPDEST SWAP2 POP POP SWAP3 SWAP2 POP POP JUMP JUMPDEST PUSH0 PUSH32 0xFF00000000000000000000000000000000000000000000000000000000000000 DUP3 AND SWAP1 POP SWAP2 SWAP1 POP JUMP JUMPDEST PUSH2 0x7FA DUP2 PUSH2 0x7C6 JUMP JUMPDEST DUP3 MSTORE POP POP JUMP JUMPDEST PUSH0 PUSH1 0x20 DUP3 ADD SWAP1 POP PUSH2 0x813 PUSH0 DUP4 ADD DUP5 PUSH2 0x7F1 JUMP JUMPDEST SWAP3 SWAP2 POP POP JUMP JUMPDEST PUSH0 PUSH0 REVERT JUMPDEST PUSH0 PUSH0 REVERT JUMPDEST PUSH0 PUSH1 0x1F NOT PUSH1 0x1F DUP4 ADD AND SWAP1 POP SWAP2 SWAP1 POP JUMP JUMPDEST PUSH32 0x4E487B7100000000000000000000000000000000000000000000000000000000 PUSH0 MSTORE PUSH1 0x41 PUSH1 0x4 MSTORE PUSH1 0x24 PUSH0 REVERT JUMPDEST PUSH2 0x867 DUP3 PUSH2 0x821 JUMP JUMPDEST DUP2 ADD DUP2 DUP2 LT PUSH8 0xFFFFFFFFFFFFFFFF DUP3 GT OR ISZERO PUSH2 0x886 JUMPI PUSH2 0x885 PUSH2 0x831 JUMP JUMPDEST JUMPDEST DUP1 PUSH1 0x40 MSTORE POP POP POP JUMP JUMPDEST PUSH0 PUSH2 0x898 PUSH2 0x760 JUMP JUMPDEST SWAP1 POP PUSH2 0x8A4 DUP3 DUP3 PUSH2 0x85E JUMP JUMPDEST SWAP2 SWAP1 POP JUMP JUMPDEST PUSH0 PUSH8 0xFFFFFFFFFFFFFFFF DUP3 GT ISZERO PUSH2 0x8C3 JUMPI PUSH2 0x8C2 PUSH2 0x831 JUMP JUMPDEST JUMPDEST PUSH2 0x8CC DUP3 PUSH2 0x821 JUMP JUMPDEST SWAP1 POP PUSH1 0x20 DUP2 ADD SWAP1 POP SWAP2 SWAP1 POP JUMP JUMPDEST DUP3 DUP2 DUP4 CALLDATACOPY PUSH0 DUP4 DUP4 ADD MSTORE POP POP POP JUMP JUMPDEST PUSH0 PUSH2 0x8F9 PUSH2 0x8F4 DUP5 PUSH2 0x8A9 JUMP JUMPDEST PUSH2 0x88F JUMP JUMPDEST SWAP1 POP DUP3 DUP2 MSTORE PUSH1 0x20 DUP2 ADD DUP5 DUP5 DUP5 ADD GT ISZERO PUSH2 0x915 JUMPI PUSH2 0x914 PUSH2 0x81D JUMP JUMPDEST JUMPDEST PUSH2 0x920 DUP5 DUP3 DUP6 PUSH2 0x8D9 JUMP JUMPDEST POP SWAP4 SWAP3 POP POP POP JUMP JUMPDEST PUSH0 DUP3 PUSH1 0x1F DUP4 ADD SLT PUSH2 0x93C JUMPI PUSH2 0x93B PUSH2 0x819 JUMP JUMPDEST JUMPDEST DUP2 CALLDATALOAD PUSH2 0x94C DUP5 DUP3 PUSH1 0x20 DUP7 ADD PUSH2 0x8E7 JUMP JUMPDEST SWAP2 POP POP SWAP3 SWAP2 POP POP JUMP JUMPDEST PUSH0 PUSH1 0x20 DUP3 DUP5 SUB SLT ISZERO PUSH2 0x96A JUMPI PUSH2 0x969 PUSH2 0x769 JUMP JUMPDEST JUMPDEST PUSH0 DUP3 ADD CALLDATALOAD PUSH8 0xFFFFFFFFFFFFFFFF DUP2 GT ISZERO PUSH2 0x987 JUMPI PUSH2 0x986 PUSH2 0x76D JUMP JUMPDEST JUMPDEST PUSH2 0x993 DUP5 DUP3 DUP6 ADD PUSH2 0x928 JUMP JUMPDEST SWAP2 POP POP SWAP3 SWAP2 POP POP JUMP JUMPDEST PUSH0 DUP2 ISZERO ISZERO SWAP1 POP SWAP2 SWAP1 POP JUMP JUMPDEST PUSH2 0x9B0 DUP2 PUSH2 0x99C JUMP JUMPDEST DUP3 MSTORE POP POP JUMP JUMPDEST PUSH0 PUSH1 0x20 DUP3 ADD SWAP1 POP PUSH2 0x9C9 PUSH0 DUP4 ADD DUP5 PUSH2 0x9A7 JUMP JUMPDEST SWAP3 SWAP2 POP POP JUMP JUMPDEST PUSH0 DUP2 MLOAD SWAP1 POP SWAP2 SWAP1 POP JUMP JUMPDEST PUSH0 DUP3 DUP3 MSTORE PUSH1 0x20 DUP3 ADD SWAP1 POP SWAP3 SWAP2 POP POP JUMP JUMPDEST DUP3 DUP2 DUP4 MCOPY PUSH0 DUP4 DUP4 ADD MSTORE POP POP POP JUMP JUMPDEST PUSH0 PUSH2 0xA01 DUP3 PUSH2 0x9CF JUMP JUMPDEST PUSH2 0xA0B DUP2 DUP6 PUSH2 0x9D9 JUMP JUMPDEST SWAP4 POP PUSH2 0xA1B DUP2 DUP6 PUSH1 0x20 DUP7 ADD PUSH2 0x9E9 JUMP JUMPDEST PUSH2 0xA24 DUP2 PUSH2 0x821 JUMP JUMPDEST DUP5 ADD SWAP2 POP POP SWAP3 SWAP2 POP POP JUMP JUMPDEST PUSH0 DUP2 SWAP1 POP SWAP2 SWAP1 POP JUMP JUMPDEST PUSH2 0xA41 DUP2 PUSH2 0xA2F JUMP JUMPDEST DUP3 MSTORE POP POP JUMP JUMPDEST PUSH0 PUSH1 0x80 DUP3 ADD SWAP1 POP DUP2 DUP2 SUB PUSH0 DUP4 ADD MSTORE PUSH2 0xA5F DUP2 DUP8 PUSH2 0x9F7 JUMP JUMPDEST SWAP1 POP PUSH2 0xA6E PUSH1 0x20 DUP4 ADD DUP7 PUSH2 0x738 JUMP JUMPDEST PUSH2 0xA7B PUSH1 0x40 DUP4 ADD DUP6 PUSH2 0xA38 JUMP JUMPDEST PUSH2 0xA88 PUSH1 0x60 DUP4 ADD DUP5 PUSH2 0x9A7 JUMP JUMPDEST SWAP6 SWAP5 POP POP POP POP POP JUMP JUMPDEST PUSH0 PUSH1 0x20 DUP3 ADD SWAP1 POP DUP2 DUP2 SUB PUSH0 DUP4 ADD MSTORE PUSH2 0xAA9 DUP2 DUP5 PUSH2 0x9F7 JUMP JUMPDEST SWAP1 POP SWAP3 SWAP2 POP POP JUMP JUMPDEST PUSH0 DUP2 MLOAD SWAP1 POP SWAP2 SWAP1 POP JUMP JUMPDEST PUSH0 DUP3 DUP3 MSTORE PUSH1 0x20 DUP3 ADD SWAP1 POP SWAP3 SWAP2 POP POP JUMP JUMPDEST PUSH0 PUSH2 0xAD5 DUP3 PUSH2 0xAB1 JUMP JUMPDEST PUSH2 0xADF DUP2 DUP6 PUSH2 0xABB JUMP JUMPDEST SWAP4 POP PUSH2 0xAEF DUP2 DUP6 PUSH1 0x20 DUP7 ADD PUSH2 0x9E9 JUMP JUMPDEST PUSH2 0xAF8 DUP2 PUSH2 0x821 JUMP JUMPDEST DUP5 ADD SWAP2 POP POP SWAP3 SWAP2 POP POP JUMP JUMPDEST PUSH0 PUSH1 0x20 DUP3 ADD SWAP1 POP DUP2 DUP2 SUB PUSH0 DUP4 ADD MSTORE PUSH2 0xB1B DUP2 DUP5 PUSH2 0xACB JUMP JUMPDEST SWAP1 POP SWAP3 SWAP2 POP POP JUMP JUMPDEST PUSH0 PUSH1 0x20 DUP3 ADD SWAP1 POP PUSH2 0xB36 PUSH0 DUP4 ADD DUP5 PUSH2 0xA38 JUMP JUMPDEST SWAP3 SWAP2 POP POP JUMP JUMPDEST PUSH32 0x4E487B7100000000000000000000000000000000000000000000000000000000 PUSH0 MSTORE PUSH1 0x22 PUSH1 0x4 MSTORE PUSH1 0x24 PUSH0 REVERT JUMPDEST PUSH0 PUSH1 0x2 DUP3 DIV SWAP1 POP PUSH1 0x1 DUP3 AND DUP1 PUSH2 0xB80 JUMPI PUSH1 0x7F DUP3 AND SWAP2 POP JUMPDEST PUSH1 0x20 DUP3 LT DUP2 SUB PUSH2 0xB93 JUMPI PUSH2 0xB92 PUSH2 0xB3C JUMP JUMPDEST JUMPDEST POP SWAP2 SWAP1 POP JUMP JUMPDEST PUSH32 0x496E646578206F7574206F662072616E67650000000000000000000000000000 PUSH0 DUP3 ADD MSTORE POP JUMP JUMPDEST PUSH0 PUSH2 0xBCD PUSH1 0x12 DUP4 PUSH2 0x9D9 JUMP JUMPDEST SWAP2 POP PUSH2 0xBD8 DUP3 PUSH2 0xB99 JUMP JUMPDEST PUSH1 0x20 DUP3 ADD SWAP1 POP SWAP2 SWAP1 POP JUMP JUMPDEST PUSH0 PUSH1 0x20 DUP3 ADD SWAP1 POP DUP2 DUP2 SUB PUSH0 DUP4 ADD MSTORE PUSH2 0xBFA DUP2 PUSH2 0xBC1 JUMP JUMPDEST SWAP1 POP SWAP2 SWAP1 POP JUMP JUMPDEST PUSH32 0x4E487B7100000000000000000000000000000000000000000000000000000000 PUSH0 MSTORE PUSH1 0x32 PUSH1 0x4 MSTORE PUSH1 0x24 PUSH0 REVERT JUMPDEST PUSH0 DUP2 SWAP1 POP DUP2 PUSH0 MSTORE PUSH1 0x20 PUSH0 KECCAK256 SWAP1 POP SWAP2 SWAP1 POP JUMP JUMPDEST PUSH0 PUSH1 0x20 PUSH1 0x1F DUP4 ADD DIV SWAP1 POP SWAP2 SWAP1 POP JUMP JUMPDEST PUSH0 DUP3 DUP3 SHL SWAP1 POP SWAP3 SWAP2 POP POP JUMP JUMPDEST PUSH0 PUSH1 0x8 DUP4 MUL PUSH2 0xC8A PUSH32 0xFFFFFFFFFFFFFFFFFFFFFFFFFFFFFFFFFFFFFFFFFFFFFFFFFFFFFFFFFFFFFFFF DUP3 PUSH2 0xC4F JUMP JUMPDEST PUSH2 0xC94 DUP7 DUP4 PUSH2 0xC4F JUMP JUMPDEST SWAP6 POP DUP1 NOT DUP5 AND SWAP4 POP DUP1 DUP7 AND DUP5 OR SWAP3 POP POP POP SWAP4 SWAP3 POP POP POP JUMP JUMPDEST PUSH0 DUP2 SWAP1 POP SWAP2 SWAP1 POP JUMP JUMPDEST PUSH0 PUSH2 0xCCF PUSH2 0xCCA PUSH2 0xCC5 DUP5 PUSH2 0x72F JUMP JUMPDEST PUSH2 0xCAC JUMP JUMPDEST PUSH2 0x72F JUMP JUMPDEST SWAP1 POP SWAP2 SWAP1 POP JUMP JUMPDEST PUSH0 DUP2 SWAP1 POP SWAP2 SWAP1 POP JUMP JUMPDEST PUSH2 0xCE8 DUP4 PUSH2 0xCB5 JUMP JUMPDEST PUSH2 0xCFC PUSH2 0xCF4 DUP3 PUSH2 0xCD6 JUMP JUMPDEST DUP5 DUP5 SLOAD PUSH2 0xC5B JUMP JUMPDEST DUP3 SSTORE POP POP POP POP JUMP JUMPDEST PUSH0 PUSH0 SWAP1 POP SWAP1 JUMP JUMPDEST PUSH2 0xD13 PUSH2 0xD04 JUMP JUMPDEST PUSH2 0xD1E DUP2 DUP5 DUP5 PUSH2 0xCDF JUMP JUMPDEST POP POP POP JUMP JUMPDEST JUMPDEST DUP2 DUP2 LT ISZERO PUSH2 0xD41 JUMPI PUSH2 0xD36 PUSH0 DUP3 PUSH2 0xD0B JUMP JUMPDEST PUSH1 0x1 DUP2 ADD SWAP1 POP PUSH2 0xD24 JUMP JUMPDEST POP POP JUMP JUMPDEST PUSH1 0x1F DUP3 GT ISZERO PUSH2 0xD86 JUMPI PUSH2 0xD57 DUP2 PUSH2 0xC2E JUMP JUMPDEST PUSH2 0xD60 DUP5 PUSH2 0xC40 JUMP JUMPDEST DUP2 ADD PUSH1 0x20 DUP6 LT ISZERO PUSH2 0xD6F JUMPI DUP2 SWAP1 POP JUMPDEST PUSH2 0xD83 PUSH2 0xD7B DUP6 PUSH2 0xC40 JUMP JUMPDEST DUP4 ADD DUP3 PUSH2 0xD23 JUMP JUMPDEST POP POP JUMPDEST POP POP POP JUMP JUMPDEST PUSH0 DUP3 DUP3 SHR SWAP1 POP SWAP3 SWAP2 POP POP JUMP JUMPDEST PUSH0 PUSH2 0xDA6 PUSH0 NOT DUP5 PUSH1 0x8 MUL PUSH2 0xD8B JUMP JUMPDEST NOT DUP1 DUP4 AND SWAP2 POP POP SWAP3 SWAP2 POP POP JUMP JUMPDEST PUSH0 PUSH2 0xDBE DUP4 DUP4 PUSH2 0xD97 JUMP JUMPDEST SWAP2 POP DUP3 PUSH1 0x2 MUL DUP3 OR SWAP1 POP SWAP3 SWAP2 POP POP JUMP JUMPDEST PUSH2 0xDD7 DUP3 PUSH2 0x9CF JUMP JUMPDEST PUSH8 0xFFFFFFFFFFFFFFFF DUP2 GT ISZERO PUSH2 0xDF0 JUMPI PUSH2 0xDEF PUSH2 0x831 JUMP JUMPDEST JUMPDEST PUSH2 0xDFA DUP3 SLOAD PUSH2 0xB69 JUMP JUMPDEST PUSH2 0xE05 DUP3 DUP3 DUP6 PUSH2 0xD45 JUMP JUMPDEST PUSH0 PUSH1 0x20 SWAP1 POP PUSH1 0x1F DUP4 GT PUSH1 0x1 DUP2 EQ PUSH2 0xE36 JUMPI PUSH0 DUP5 ISZERO PUSH2 0xE24 JUMPI DUP3 DUP8 ADD MLOAD SWAP1 POP JUMPDEST PUSH2 0xE2E DUP6 DUP3 PUSH2 0xDB3 JUMP JUMPDEST DUP7 SSTORE POP PUSH2 0xE95 JUMP JUMPDEST PUSH1 0x1F NOT DUP5 AND PUSH2 0xE44 DUP7 PUSH2 0xC2E JUMP JUMPDEST PUSH0 JUMPDEST DUP3 DUP2 LT ISZERO PUSH2 0xE6B JUMPI DUP5 DUP10 ADD MLOAD DUP3 SSTORE PUSH1 0x1 DUP3 ADD SWAP2 POP PUSH1 0x20 DUP6 ADD SWAP5 POP PUSH1 0x20 DUP2 ADD SWAP1 POP PUSH2 0xE46 JUMP JUMPDEST DUP7 DUP4 LT ISZERO PUSH2 0xE88 JUMPI DUP5 DUP10 ADD MLOAD PUSH2 0xE84 PUSH1 0x1F DUP10 AND DUP3 PUSH2 0xD97 JUMP JUMPDEST DUP4 SSTORE POP JUMPDEST PUSH1 0x1 PUSH1 0x2 DUP9 MUL ADD DUP9 SSTORE POP POP POP JUMPDEST POP POP POP POP POP POP JUMP JUMPDEST PUSH32 0x5661756C7420697320636C6F7365640000000000000000000000000000000000 PUSH0 DUP3 ADD MSTORE POP JUMP JUMPDEST PUSH0 PUSH2 0xED1 PUSH1 0xF DUP4 PUSH2 0x9D9 JUMP JUMPDEST SWAP2 POP PUSH2 0xEDC DUP3 PUSH2 0xE9D JUMP JUMPDEST PUSH1 0x20 DUP3 ADD SWAP1 POP SWAP2 SWAP1 POP JUMP JUMPDEST PUSH0 PUSH1 0x20 DUP3 ADD SWAP1 POP DUP2 DUP2 SUB PUSH0 DUP4 ADD MSTORE PUSH2 0xEFE DUP2 PUSH2 0xEC5 JUMP JUMPDEST SWAP1 POP SWAP2 SWAP1 POP JUMP JUMPDEST PUSH32 0x496E73756666696369656E742062616C616E6365000000000000000000000000 PUSH0 DUP3 ADD MSTORE POP JUMP JUMPDEST PUSH0 PUSH2 0xF39 PUSH1 0x14 DUP4 PUSH2 0x9D9 JUMP JUMPDEST SWAP2 POP PUSH2 0xF44 DUP3 PUSH2 0xF05 JUMP JUMPDEST PUSH1 0x20 DUP3 ADD SWAP1 POP SWAP2 SWAP1 POP JUMP JUMPDEST PUSH0 PUSH1 0x20 DUP3 ADD SWAP1 POP DUP2 DUP2 SUB PUSH0 DUP4 ADD MSTORE PUSH2 0xF66 DUP2 PUSH2 0xF2D JUMP JUMPDEST SWAP1 POP SWAP2 SWAP1 POP JUMP JUMPDEST PUSH32 0x4E487B7100000000000000000000000000000000000000000000000000000000 PUSH0 MSTORE PUSH1 0x11 PUSH1 0x4 MSTORE PUSH1 0x24 PUSH0 REVERT JUMPDEST PUSH0 PUSH2 0xFA4 DUP3 PUSH2 0x72F JUMP JUMPDEST SWAP2 POP PUSH2 0xFAF DUP4 PUSH2 0x72F JUMP JUMPDEST SWAP3 POP DUP3 DUP3 SUB SWAP1 POP DUP2 DUP2 GT ISZERO PUSH2 0xFC7 JUMPI PUSH2 0xFC6 PUSH2 0xF6D JUMP JUMPDEST JUMPDEST SWAP3 SWAP2 POP POP JUMP JUMPDEST PUSH0 PUSH2 0xFD7 DUP3 PUSH2 0xA2F JUMP JUMPDEST SWAP2 POP PUSH2 0xFE2 DUP4 PUSH2 0xA2F JUMP JUMPDEST SWAP3 POP DUP3 DUP3 SUB SWAP1 POP DUP2 DUP2 SLT PUSH0 DUP5 SLT AND DUP3 DUP3 SGT PUSH0 DUP6 SLT ISZERO AND OR ISZERO PUSH2 0x1007 JUMPI PUSH2 0x1006 PUSH2 0xF6D JUMP JUMPDEST JUMPDEST SWAP3 SWAP2 POP POP JUMP JUMPDEST PUSH0 DUP2 SWAP1 POP SWAP3 SWAP2 POP POP JUMP JUMPDEST PUSH0 DUP2 SWAP1 POP DUP2 PUSH0 MSTORE PUSH1 0x20 PUSH0 KECCAK256 SWAP1 POP SWAP2 SWAP1 POP JUMP JUMPDEST PUSH0 DUP2 SLOAD PUSH2 0x1035 DUP2 PUSH2 0xB69 JUMP JUMPDEST PUSH2 0x103F DUP2 DUP7 PUSH2 0x100D JUMP JUMPDEST SWAP5 POP PUSH1 0x1 DUP3 AND PUSH0 DUP2 EQ PUSH2 0x1059 JUMPI PUSH1 0x1 DUP2 EQ PUSH2 0x106E JUMPI PUSH2 0x10A0 JUMP JUMPDEST PUSH1 0xFF NOT DUP4 AND DUP7 MSTORE DUP2 ISZERO ISZERO DUP3 MUL DUP7 ADD SWAP4 POP PUSH2 0x10A0 JUMP JUMPDEST PUSH2 0x1077 DUP6 PUSH2 0x1017 JUMP JUMPDEST PUSH0 JUMPDEST DUP4 DUP2 LT ISZERO PUSH2 0x1098 JUMPI DUP2 SLOAD DUP2 DUP10 ADD MSTORE PUSH1 0x1 DUP3 ADD SWAP2 POP PUSH1 0x20 DUP2 ADD SWAP1 POP PUSH2 0x1079 JUMP JUMPDEST DUP4 DUP9 ADD SWAP6 POP POP POP JUMPDEST POP POP POP SWAP3 SWAP2 POP POP JUMP JUMPDEST PUSH0 PUSH2 0x10B4 DUP3 DUP5 PUSH2 0x1029 JUMP JUMPDEST SWAP2 POP DUP2 SWAP1 POP SWAP3 SWAP2 POP POP JUMP JUMPDEST PUSH0 DUP2 SWAP1 POP DUP2 PUSH0 MSTORE PUSH1 0x20 PUSH0 KECCAK256 SWAP1 POP SWAP2 SWAP1 POP JUMP JUMPDEST PUSH1 0x1F DUP3 GT ISZERO PUSH2 0x1112 JUMPI PUSH2 0x10E3 DUP2 PUSH2 0x10BF JUMP JUMPDEST PUSH2 0x10EC DUP5 PUSH2 0xC40 JUMP JUMPDEST DUP2 ADD PUSH1 0x20 DUP6 LT ISZERO PUSH2 0x10FB JUMPI DUP2 SWAP1 POP JUMPDEST PUSH2 0x110F PUSH2 0x1107 DUP6 PUSH2 0xC40 JUMP JUMPDEST DUP4 ADD DUP3 PUSH2 0xD23 JUMP JUMPDEST POP POP JUMPDEST POP POP POP JUMP JUMPDEST PUSH2 0x1120 DUP3 PUSH2 0xAB1 JUMP JUMPDEST PUSH8 0xFFFFFFFFFFFFFFFF DUP2 GT ISZERO PUSH2 0x1139 JUMPI PUSH2 0x1138 PUSH2 0x831 JUMP JUMPDEST JUMPDEST PUSH2 0x1143 DUP3 SLOAD PUSH2 0xB69 JUMP JUMPDEST PUSH2 0x114E DUP3 DUP3 DUP6 PUSH2 0x10D1 JUMP JUMPDEST PUSH0 PUSH1 0x20 SWAP1 POP PUSH1 0x1F DUP4 GT PUSH1 0x1 DUP2 EQ PUSH2 0x117F JUMPI PUSH0 DUP5 ISZERO PUSH2 0x116D JUMPI DUP3 DUP8 ADD MLOAD SWAP1 POP JUMPDEST PUSH2 0x1177 DUP6 DUP3 PUSH2 0xDB3 JUMP JUMPDEST DUP7 SSTORE POP PUSH2 0x11DE JUMP JUMPDEST PUSH1 0x1F NOT DUP5 AND PUSH2 0x118D DUP7 PUSH2 0x10BF JUMP JUMPDEST PUSH0 JUMPDEST DUP3 DUP2 LT ISZERO PUSH2 0x11B4 JUMPI DUP5 DUP10 ADD MLOAD DUP3 SSTORE PUSH1 0x1 DUP3 ADD SWAP2 POP PUSH1 0x20 DUP6 ADD SWAP5 POP PUSH1 0x20 DUP2 ADD SWAP1 POP PUSH2 0x118F JUMP JUMPDEST DUP7 DUP4 LT ISZERO PUSH2 0x11D1 JUMPI DUP5 DUP10 ADD MLOAD PUSH2 0x11CD PUSH1 0x1F DUP10 AND DUP3 PUSH2 0xD97 JUMP JUMPDEST DUP4 SSTORE POP JUMPDEST PUSH1 0x1 PUSH1 0x2 DUP9 MUL ADD DUP9 SSTORE POP POP POP JUMPDEST POP POP POP POP POP POP JUMP JUMPDEST PUSH0 PUSH2 0x11F0 DUP3 PUSH2 0x72F JUMP JUMPDEST SWAP2 POP PUSH2 0x11FB DUP4 PUSH2 0x72F JUMP JUMPDEST SWAP3 POP DUP3 DUP3 ADD SWAP1 POP DUP1 DUP3 GT ISZERO PUSH2 0x1213 JUMPI PUSH2 0x1212 PUSH2 0xF6D JUMP JUMPDEST JUMPDEST SWAP3 SWAP2 POP POP JUMP JUMPDEST PUSH0 PUSH2 0x1223 DUP3 PUSH2 0xA2F JUMP JUMPDEST SWAP2 POP PUSH2 0x122E DUP4 PUSH2 0xA2F JUMP JUMPDEST SWAP3 POP DUP3 DUP3 ADD SWAP1 POP DUP3 DUP2 SLT ISZERO PUSH0 DUP4 SLT AND DUP4 DUP3 SLT PUSH0 DUP5 SLT ISZERO AND OR ISZERO PUSH2 0x1254 JUMPI PUSH2 0x1253 PUSH2 0xF6D JUMP JUMPDEST JUMPDEST SWAP3 SWAP2 POP POP JUMP INVALID LOG2 PUSH5 0x6970667358 0x22 SLT KECCAK256 0xAB 0xB8 0xD9 0xE2 CODESIZE PUSH21 0xE3E912A6841A27A07903CBE6CCB6E23D3A0D8BA698 SHR LOG3 0xC8 SHL SSTORE PUSH5 0x736F6C6343 STOP ADDMOD 0x1F STOP CALLER "
		},
		"gasEstimates": {
			"creation": {
				"codeDepositCost": "950400",
				"executionCost": "25252",
				"totalCost": "975652"
			},
			"external": {
				"closeVault()": "24476",
				"deposit(uint256)": "infinite",
				"getSecretByte(uint256)": "infinite",
				"getSecretLength()": "2586",
				"getVaultDetails()": "infinite",
				"isVaultOpen()": "2554",
				"netTransaction()": "2469",
				"openVault()": "24498",
				"ownerName()": "infinite",
				"secretCode()": "infinite",
				"setOwnerName(string)": "infinite",
				"setSecret(string)": "infinite",
				"vaultBalance()": "2449",
				"verifyOwner(string)": "infinite",
				"withdraw(uint256)": "infinite"
			}
		},
		"methodIdentifiers": {
			"closeVault()": "18976fa2",
			"deposit(uint256)": "b6b55f25",
			"getSecretByte(uint256)": "0dccd51e",
			"getSecretLength()": "9624b8a7",
			"getVaultDetails()": "533092ef",
			"isVaultOpen()": "ec36d35e",
			"netTransaction()": "98c51394",
			"openVault()": "86f54712",
			"ownerName()": "65ac2320",
			"secretCode()": "7fd25e6f",
			"setOwnerName(string)": "295795e2",
			"setSecret(string)": "7ed6c926",
			"vaultBalance()": "0bf6cc08",
			"verifyOwner(string)": "3e116de5",
			"withdraw(uint256)": "2e1a7d4d"
		}
	},
	"abi": [
		{
			"inputs": [],
			"stateMutability": "nonpayable",
			"type": "constructor"
		},
		{
			"inputs": [],
			"name": "closeVault",
			"outputs": [],
			"stateMutability": "nonpayable",
			"type": "function"
		},
		{
			"inputs": [
				{
					"internalType": "uint256",
					"name": "amount",
					"type": "uint256"
				}
			],
			"name": "deposit",
			"outputs": [],
			"stateMutability": "nonpayable",
			"type": "function"
		},
		{
			"inputs": [
				{
					"internalType": "uint256",
					"name": "index",
					"type": "uint256"
				}
			],
			"name": "getSecretByte",
			"outputs": [
				{
					"internalType": "bytes1",
					"name": "",
					"type": "bytes1"
				}
			],
			"stateMutability": "view",
			"type": "function"
		},
		{
			"inputs": [],
			"name": "getSecretLength",
			"outputs": [
				{
					"internalType": "uint256",
					"name": "",
					"type": "uint256"
				}
			],
			"stateMutability": "view",
			"type": "function"
		},
		{
			"inputs": [],
			"name": "getVaultDetails",
			"outputs": [
				{
					"internalType": "string",
					"name": "",
					"type": "string"
				},
				{
					"internalType": "uint256",
					"name": "",
					"type": "uint256"
				},
				{
					"internalType": "int256",
					"name": "",
					"type": "int256"
				},
				{
					"internalType": "bool",
					"name": "",
					"type": "bool"
				}
			],
			"stateMutability": "view",
			"type": "function"
		},
		{
			"inputs": [],
			"name": "isVaultOpen",
			"outputs": [
				{
					"internalType": "bool",
					"name": "",
					"type": "bool"
				}
			],
			"stateMutability": "view",
			"type": "function"
		},
		{
			"inputs": [],
			"name": "netTransaction",
			"outputs": [
				{
					"internalType": "int256",
					"name": "",
					"type": "int256"
				}
			],
			"stateMutability": "view",
			"type": "function"
		},
		{
			"inputs": [],
			"name": "openVault",
			"outputs": [],
			"stateMutability": "nonpayable",
			"type": "function"
		},
		{
			"inputs": [],
			"name": "ownerName",
			"outputs": [
				{
					"internalType": "string",
					"name": "",
					"type": "string"
				}
			],
			"stateMutability": "view",
			"type": "function"
		},
		{
			"inputs": [],
			"name": "secretCode",
			"outputs": [
				{
					"internalType": "bytes",
					"name": "",
					"type": "bytes"
				}
			],
			"stateMutability": "view",
			"type": "function"
		},
		{
			"inputs": [
				{
					"internalType": "string",
					"name": "_name",
					"type": "string"
				}
			],
			"name": "setOwnerName",
			"outputs": [],
			"stateMutability": "nonpayable",
			"type": "function"
		},
		{
			"inputs": [
				{
					"internalType": "string",
					"name": "_code",
					"type": "string"
				}
			],
			"name": "setSecret",
			"outputs": [],
			"stateMutability": "nonpayable",
			"type": "function"
		},
		{
			"inputs": [],
			"name": "vaultBalance",
			"outputs": [
				{
					"internalType": "uint256",
					"name": "",
					"type": "uint256"
				}
			],
			"stateMutability": "view",
			"type": "function"
		},
		{
			"inputs": [
				{
					"internalType": "string",
					"name": "_name",
					"type": "string"
				}
			],
			"name": "verifyOwner",
			"outputs": [
				{
					"internalType": "bool",
					"name": "",
					"type": "bool"
				}
			],
			"stateMutability": "view",
			"type": "function"
		},
		{
			"inputs": [
				{
					"internalType": "uint256",
					"name": "amount",
					"type": "uint256"
				}
			],
			"name": "withdraw",
			"outputs": [],
			"stateMutability": "nonpayable",
			"type": "function"
		}
	]
}