{
	"data": {
		"bytecode": {
			"linkReferences": {},
			"object": "6080604052348015600e575f5ffd5b50335f5f6101000a81548173ffffffffffffffffffffffffffffffffffffffff021916908373ffffffffffffffffffffffffffffffffffffffff160217905550610de78061005b5f395ff3fe608060405234801561000f575f5ffd5b506004361061004a575f3560e01c80637d3a67961461004e578063afb0d07e14610081578063b4a99a4e1461009d578063d1eafe7a146100bb575b5f5ffd5b610068600480360381019061006391906105fc565b6100d7565b6040516100789493929190610719565b60405180910390f35b61009b600480360381019061009691906108b9565b610281565b005b6100a5610414565b6040516100b29190610994565b60405180910390f35b6100d560048036038101906100d091906108b9565b610438565b005b5f6060805f5f60015f8781526020019081526020015f206040518060800160405290815f8201548152602001600182018054610112906109da565b80601f016020809104026020016040519081016040528092919081815260200182805461013e906109da565b80156101895780601f1061016057610100808354040283529160200191610189565b820191905f5260205f20905b81548152906001019060200180831161016c57829003601f168201915b505050505081526020016002820180546101a2906109da565b80601f01602080910402602001604051908101604052809291908181526020018280546101ce906109da565b80156102195780601f106101f057610100808354040283529160200191610219565b820191905f5260205f20905b8154815290600101906020018083116101fc57829003601f168201915b50505050508152602001600382015f9054906101000a900460ff166001811115610246576102456106a6565b5b6001811115610258576102576106a6565b5b815250509050805f01518160200151826040015183606001519450945094509450509193509193565b5f5f9054906101000a900473ffffffffffffffffffffffffffffffffffffffff1673ffffffffffffffffffffffffffffffffffffffff163373ffffffffffffffffffffffffffffffffffffffff161461030f576040517f08c379a000000000000000000000000000000000000000000000000000000000815260040161030690610a54565b60405180910390fd5b5f60015f8681526020019081526020015f205f015403610364576040517f08c379a000000000000000000000000000000000000000000000000000000000815260040161035b90610abc565b60405180910390fd5b6040518060800160405280858152602001848152602001838152602001826001811115610394576103936106a6565b5b81525060015f8681526020019081526020015f205f820151815f015560208201518160010190816103c59190610c7a565b5060408201518160020190816103db9190610c7a565b506060820151816003015f6101000a81548160ff02191690836001811115610406576104056106a6565b5b021790555090505050505050565b5f5f9054906101000a900473ffffffffffffffffffffffffffffffffffffffff1681565b5f5f9054906101000a900473ffffffffffffffffffffffffffffffffffffffff1673ffffffffffffffffffffffffffffffffffffffff163373ffffffffffffffffffffffffffffffffffffffff16146104c6576040517f08c379a00000000000000000000000000000000000000000000000000000000081526004016104bd90610a54565b60405180910390fd5b5f8403610508576040517f08c379a00000000000000000000000000000000000000000000000000000000081526004016104ff90610d93565b60405180910390fd5b6040518060800160405280858152602001848152602001838152602001826001811115610538576105376106a6565b5b81525060015f8681526020019081526020015f205f820151815f015560208201518160010190816105699190610c7a565b50604082015181600201908161057f9190610c7a565b506060820151816003015f6101000a81548160ff021916908360018111156105aa576105a96106a6565b5b021790555090505050505050565b5f604051905090565b5f5ffd5b5f5ffd5b5f819050919050565b6105db816105c9565b81146105e5575f5ffd5b50565b5f813590506105f6816105d2565b92915050565b5f60208284031215610611576106106105c1565b5b5f61061e848285016105e8565b91505092915050565b610630816105c9565b82525050565b5f81519050919050565b5f82825260208201905092915050565b8281835e5f83830152505050565b5f601f19601f8301169050919050565b5f61067882610636565b6106828185610640565b9350610692818560208601610650565b61069b8161065e565b840191505092915050565b7f4e487b71000000000000000000000000000000000000000000000000000000005f52602160045260245ffd5b600281106106e4576106e36106a6565b5b50565b5f8190506106f4826106d3565b919050565b5f610703826106e7565b9050919050565b610713816106f9565b82525050565b5f60808201905061072c5f830187610627565b818103602083015261073e818661066e565b90508181036040830152610752818561066e565b9050610761606083018461070a565b95945050505050565b5f5ffd5b5f5ffd5b7f4e487b71000000000000000000000000000000000000000000000000000000005f52604160045260245ffd5b6107a88261065e565b810181811067ffffffffffffffff821117156107c7576107c6610772565b5b80604052505050565b5f6107d96105b8565b90506107e5828261079f565b919050565b5f67ffffffffffffffff82111561080457610803610772565b5b61080d8261065e565b9050602081019050919050565b828183375f83830152505050565b5f61083a610835846107ea565b6107d0565b9050828152602081018484840111156108565761085561076e565b5b61086184828561081a565b509392505050565b5f82601f83011261087d5761087c61076a565b5b813561088d848260208601610828565b91505092915050565b600281106108a2575f5ffd5b50565b5f813590506108b381610896565b92915050565b5f5f5f5f608085870312156108d1576108d06105c1565b5b5f6108de878288016105e8565b945050602085013567ffffffffffffffff8111156108ff576108fe6105c5565b5b61090b87828801610869565b935050604085013567ffffffffffffffff81111561092c5761092b6105c5565b5b61093887828801610869565b9250506060610949878288016108a5565b91505092959194509250565b5f73ffffffffffffffffffffffffffffffffffffffff82169050919050565b5f61097e82610955565b9050919050565b61098e81610974565b82525050565b5f6020820190506109a75f830184610985565b92915050565b7f4e487b71000000000000000000000000000000000000000000000000000000005f52602260045260245ffd5b5f60028204905060018216806109f157607f821691505b602082108103610a0457610a036109ad565b5b50919050565b7f204e6f74204f776e6572000000000000000000000000000000000000000000005f82015250565b5f610a3e600a83610640565b9150610a4982610a0a565b602082019050919050565b5f6020820190508181035f830152610a6b81610a32565b9050919050565b7f4e6f7420666f756e6400000000000000000000000000000000000000000000005f82015250565b5f610aa6600983610640565b9150610ab182610a72565b602082019050919050565b5f6020820190508181035f830152610ad381610a9a565b9050919050565b5f819050815f5260205f209050919050565b5f6020601f8301049050919050565b5f82821b905092915050565b5f60088302610b367fffffffffffffffffffffffffffffffffffffffffffffffffffffffffffffffff82610afb565b610b408683610afb565b95508019841693508086168417925050509392505050565b5f819050919050565b5f610b7b610b76610b71846105c9565b610b58565b6105c9565b9050919050565b5f819050919050565b610b9483610b61565b610ba8610ba082610b82565b848454610b07565b825550505050565b5f5f905090565b610bbf610bb0565b610bca818484610b8b565b505050565b5b81811015610bed57610be25f82610bb7565b600181019050610bd0565b5050565b601f821115610c3257610c0381610ada565b610c0c84610aec565b81016020851015610c1b578190505b610c2f610c2785610aec565b830182610bcf565b50505b505050565b5f82821c905092915050565b5f610c525f1984600802610c37565b1980831691505092915050565b5f610c6a8383610c43565b9150826002028217905092915050565b610c8382610636565b67ffffffffffffffff811115610c9c57610c9b610772565b5b610ca682546109da565b610cb1828285610bf1565b5f60209050601f831160018114610ce2575f8415610cd0578287015190505b610cda8582610c5f565b865550610d41565b601f198416610cf086610ada565b5f5b82811015610d1757848901518255600182019150602085019450602081019050610cf2565b86831015610d345784890151610d30601f891682610c43565b8355505b6001600288020188555050505b505050505050565b7f20696e76616c69642049440000000000000000000000000000000000000000005f82015250565b5f610d7d600b83610640565b9150610d8882610d49565b602082019050919050565b5f6020820190508181035f830152610daa81610d71565b905091905056fea26469706673582212204ef5da6aeb431131b5f341950d282d12310fa983ca674832220054b2ee0dfddd64736f6c634300081f0033",
			"opcodes": "PUSH1 0x80 PUSH1 0x40 MSTORE CALLVALUE DUP1 ISZERO PUSH1 0xE JUMPI PUSH0 PUSH0 REVERT JUMPDEST POP CALLER PUSH0 PUSH0 PUSH2 0x100 EXP DUP2 SLOAD DUP2 PUSH20 0xFFFFFFFFFFFFFFFFFFFFFFFFFFFFFFFFFFFFFFFF MUL NOT AND SWAP1 DUP4 PUSH20 0xFFFFFFFFFFFFFFFFFFFFFFFFFFFFFFFFFFFFFFFF AND MUL OR SWAP1 SSTORE POP PUSH2 0xDE7 DUP1 PUSH2 0x5B PUSH0 CODECOPY PUSH0 RETURN INVALID PUSH1 0x80 PUSH1 0x40 MSTORE CALLVALUE DUP1 ISZERO PUSH2 0xF JUMPI PUSH0 PUSH0 REVERT JUMPDEST POP PUSH1 0x4 CALLDATASIZE LT PUSH2 0x4A JUMPI PUSH0 CALLDATALOAD PUSH1 0xE0 SHR DUP1 PUSH4 0x7D3A6796 EQ PUSH2 0x4E JUMPI DUP1 PUSH4 0xAFB0D07E EQ PUSH2 0x81 JUMPI DUP1 PUSH4 0xB4A99A4E EQ PUSH2 0x9D JUMPI DUP1 PUSH4 0xD1EAFE7A EQ PUSH2 0xBB JUMPI JUMPDEST PUSH0 PUSH0 REVERT JUMPDEST PUSH2 0x68 PUSH1 0x4 DUP1 CALLDATASIZE SUB DUP2 ADD SWAP1 PUSH2 0x63 SWAP2 SWAP1 PUSH2 0x5FC JUMP JUMPDEST PUSH2 0xD7 JUMP JUMPDEST PUSH1 0x40 MLOAD PUSH2 0x78 SWAP5 SWAP4 SWAP3 SWAP2 SWAP1 PUSH2 0x719 JUMP JUMPDEST PUSH1 0x40 MLOAD DUP1 SWAP2 SUB SWAP1 RETURN JUMPDEST PUSH2 0x9B PUSH1 0x4 DUP1 CALLDATASIZE SUB DUP2 ADD SWAP1 PUSH2 0x96 SWAP2 SWAP1 PUSH2 0x8B9 JUMP JUMPDEST PUSH2 0x281 JUMP JUMPDEST STOP JUMPDEST PUSH2 0xA5 PUSH2 0x414 JUMP JUMPDEST PUSH1 0x40 MLOAD PUSH2 0xB2 SWAP2 SWAP1 PUSH2 0x994 JUMP JUMPDEST PUSH1 0x40 MLOAD DUP1 SWAP2 SUB SWAP1 RETURN JUMPDEST PUSH2 0xD5 PUSH1 0x4 DUP1 CALLDATASIZE SUB DUP2 ADD SWAP1 PUSH2 0xD0 SWAP2 SWAP1 PUSH2 0x8B9 JUMP JUMPDEST PUSH2 0x438 JUMP JUMPDEST STOP JUMPDEST PUSH0 PUSH1 0x60 DUP1 PUSH0 PUSH0 PUSH1 0x1 PUSH0 DUP8 DUP2 MSTORE PUSH1 0x20 ADD SWAP1 DUP2 MSTORE PUSH1 0x20 ADD PUSH0 KECCAK256 PUSH1 0x40 MLOAD DUP1 PUSH1 0x80 ADD PUSH1 0x40 MSTORE SWAP1 DUP2 PUSH0 DUP3 ADD SLOAD DUP2 MSTORE PUSH1 0x20 ADD PUSH1 0x1 DUP3 ADD DUP1 SLOAD PUSH2 0x112 SWAP1 PUSH2 0x9DA JUMP JUMPDEST DUP1 PUSH1 0x1F ADD PUSH1 0x20 DUP1 SWAP2 DIV MUL PUSH1 0x20 ADD PUSH1 0x40 MLOAD SWAP1 DUP2 ADD PUSH1 0x40 MSTORE DUP1 SWAP3 SWAP2 SWAP1 DUP2 DUP2 MSTORE PUSH1 0x20 ADD DUP3 DUP1 SLOAD PUSH2 0x13E SWAP1 PUSH2 0x9DA JUMP JUMPDEST DUP1 ISZERO PUSH2 0x189 JUMPI DUP1 PUSH1 0x1F LT PUSH2 0x160 JUMPI PUSH2 0x100 DUP1 DUP4 SLOAD DIV MUL DUP4 MSTORE SWAP2 PUSH1 0x20 ADD SWAP2 PUSH2 0x189 JUMP JUMPDEST DUP3 ADD SWAP2 SWAP1 PUSH0 MSTORE PUSH1 0x20 PUSH0 KECCAK256 SWAP1 JUMPDEST DUP2 SLOAD DUP2 MSTORE SWAP1 PUSH1 0x1 ADD SWAP1 PUSH1 0x20 ADD DUP1 DUP4 GT PUSH2 0x16C JUMPI DUP3 SWAP1 SUB PUSH1 0x1F AND DUP3 ADD SWAP2 JUMPDEST POP POP POP POP POP DUP2 MSTORE PUSH1 0x20 ADD PUSH1 0x2 DUP3 ADD DUP1 SLOAD PUSH2 0x1A2 SWAP1 PUSH2 0x9DA JUMP JUMPDEST DUP1 PUSH1 0x1F ADD PUSH1 0x20 DUP1 SWAP2 DIV MUL PUSH1 0x20 ADD PUSH1 0x40 MLOAD SWAP1 DUP2 ADD PUSH1 0x40 MSTORE DUP1 SWAP3 SWAP2 SWAP1 DUP2 DUP2 MSTORE PUSH1 0x20 ADD DUP3 DUP1 SLOAD PUSH2 0x1CE SWAP1 PUSH2 0x9DA JUMP JUMPDEST DUP1 ISZERO PUSH2 0x219 JUMPI DUP1 PUSH1 0x1F LT PUSH2 0x1F0 JUMPI PUSH2 0x100 DUP1 DUP4 SLOAD DIV MUL DUP4 MSTORE SWAP2 PUSH1 0x20 ADD SWAP2 PUSH2 0x219 JUMP JUMPDEST DUP3 ADD SWAP2 SWAP1 PUSH0 MSTORE PUSH1 0x20 PUSH0 KECCAK256 SWAP1 JUMPDEST DUP2 SLOAD DUP2 MSTORE SWAP1 PUSH1 0x1 ADD SWAP1 PUSH1 0x20 ADD DUP1 DUP4 GT PUSH2 0x1FC JUMPI DUP3 SWAP1 SUB PUSH1 0x1F AND DUP3 ADD SWAP2 JUMPDEST POP POP POP POP POP DUP2 MSTORE PUSH1 0x20 ADD PUSH1 0x3 DUP3 ADD PUSH0 SWAP1 SLOAD SWAP1 PUSH2 0x100 EXP SWAP1 DIV PUSH1 0xFF AND PUSH1 0x1 DUP2 GT ISZERO PUSH2 0x246 JUMPI PUSH2 0x245 PUSH2 0x6A6 JUMP JUMPDEST JUMPDEST PUSH1 0x1 DUP2 GT ISZERO PUSH2 0x258 JUMPI PUSH2 0x257 PUSH2 0x6A6 JUMP JUMPDEST JUMPDEST DUP2 MSTORE POP POP SWAP1 POP DUP1 PUSH0 ADD MLOAD DUP2 PUSH1 0x20 ADD MLOAD DUP3 PUSH1 0x40 ADD MLOAD DUP4 PUSH1 0x60 ADD MLOAD SWAP5 POP SWAP5 POP SWAP5 POP SWAP5 POP POP SWAP2 SWAP4 POP SWAP2 SWAP4 JUMP JUMPDEST PUSH0 PUSH0 SWAP1 SLOAD SWAP1 PUSH2 0x100 EXP SWAP1 DIV PUSH20 0xFFFFFFFFFFFFFFFFFFFFFFFFFFFFFFFFFFFFFFFF AND PUSH20 0xFFFFFFFFFFFFFFFFFFFFFFFFFFFFFFFFFFFFFFFF AND CALLER PUSH20 0xFFFFFFFFFFFFFFFFFFFFFFFFFFFFFFFFFFFFFFFF AND EQ PUSH2 0x30F JUMPI PUSH1 0x40 MLOAD PUSH32 0x8C379A000000000000000000000000000000000000000000000000000000000 DUP2 MSTORE PUSH1 0x4 ADD PUSH2 0x306 SWAP1 PUSH2 0xA54 JUMP JUMPDEST PUSH1 0x40 MLOAD DUP1 SWAP2 SUB SWAP1 REVERT JUMPDEST PUSH0 PUSH1 0x1 PUSH0 DUP7 DUP2 MSTORE PUSH1 0x20 ADD SWAP1 DUP2 MSTORE PUSH1 0x20 ADD PUSH0 KECCAK256 PUSH0 ADD SLOAD SUB PUSH2 0x364 JUMPI PUSH1 0x40 MLOAD PUSH32 0x8C379A000000000000000000000000000000000000000000000000000000000 DUP2 MSTORE PUSH1 0x4 ADD PUSH2 0x35B SWAP1 PUSH2 0xABC JUMP JUMPDEST PUSH1 0x40 MLOAD DUP1 SWAP2 SUB SWAP1 REVERT JUMPDEST PUSH1 0x40 MLOAD DUP1 PUSH1 0x80 ADD PUSH1 0x40 MSTORE DUP1 DUP6 DUP2 MSTORE PUSH1 0x20 ADD DUP5 DUP2 MSTORE PUSH1 0x20 ADD DUP4 DUP2 MSTORE PUSH1 0x20 ADD DUP3 PUSH1 0x1 DUP2 GT ISZERO PUSH2 0x394 JUMPI PUSH2 0x393 PUSH2 0x6A6 JUMP JUMPDEST JUMPDEST DUP2 MSTORE POP PUSH1 0x1 PUSH0 DUP7 DUP2 MSTORE PUSH1 0x20 ADD SWAP1 DUP2 MSTORE PUSH1 0x20 ADD PUSH0 KECCAK256 PUSH0 DUP3 ADD MLOAD DUP2 PUSH0 ADD SSTORE PUSH1 0x20 DUP3 ADD MLOAD DUP2 PUSH1 0x1 ADD SWAP1 DUP2 PUSH2 0x3C5 SWAP2 SWAP1 PUSH2 0xC7A JUMP JUMPDEST POP PUSH1 0x40 DUP3 ADD MLOAD DUP2 PUSH1 0x2 ADD SWAP1 DUP2 PUSH2 0x3DB SWAP2 SWAP1 PUSH2 0xC7A JUMP JUMPDEST POP PUSH1 0x60 DUP3 ADD MLOAD DUP2 PUSH1 0x3 ADD PUSH0 PUSH2 0x100 EXP DUP2 SLOAD DUP2 PUSH1 0xFF MUL NOT AND SWAP1 DUP4 PUSH1 0x1 DUP2 GT ISZERO PUSH2 0x406 JUMPI PUSH2 0x405 PUSH2 0x6A6 JUMP JUMPDEST JUMPDEST MUL OR SWAP1 SSTORE POP SWAP1 POP POP POP POP POP POP JUMP JUMPDEST PUSH0 PUSH0 SWAP1 SLOAD SWAP1 PUSH2 0x100 EXP SWAP1 DIV PUSH20 0xFFFFFFFFFFFFFFFFFFFFFFFFFFFFFFFFFFFFFFFF AND DUP2 JUMP JUMPDEST PUSH0 PUSH0 SWAP1 SLOAD SWAP1 PUSH2 0x100 EXP SWAP1 DIV PUSH20 0xFFFFFFFFFFFFFFFFFFFFFFFFFFFFFFFFFFFFFFFF AND PUSH20 0xFFFFFFFFFFFFFFFFFFFFFFFFFFFFFFFFFFFFFFFF AND CALLER PUSH20 0xFFFFFFFFFFFFFFFFFFFFFFFFFFFFFFFFFFFFFFFF AND EQ PUSH2 0x4C6 JUMPI PUSH1 0x40 MLOAD PUSH32 0x8C379A000000000000000000000000000000000000000000000000000000000 DUP2 MSTORE PUSH1 0x4 ADD PUSH2 0x4BD SWAP1 PUSH2 0xA54 JUMP JUMPDEST PUSH1 0x40 MLOAD DUP1 SWAP2 SUB SWAP1 REVERT JUMPDEST PUSH0 DUP5 SUB PUSH2 0x508 JUMPI PUSH1 0x40 MLOAD PUSH32 0x8C379A000000000000000000000000000000000000000000000000000000000 DUP2 MSTORE PUSH1 0x4 ADD PUSH2 0x4FF SWAP1 PUSH2 0xD93 JUMP JUMPDEST PUSH1 0x40 MLOAD DUP1 SWAP2 SUB SWAP1 REVERT JUMPDEST PUSH1 0x40 MLOAD DUP1 PUSH1 0x80 ADD PUSH1 0x40 MSTORE DUP1 DUP6 DUP2 MSTORE PUSH1 0x20 ADD DUP5 DUP2 MSTORE PUSH1 0x20 ADD DUP4 DUP2 MSTORE PUSH1 0x20 ADD DUP3 PUSH1 0x1 DUP2 GT ISZERO PUSH2 0x538 JUMPI PUSH2 0x537 PUSH2 0x6A6 JUMP JUMPDEST JUMPDEST DUP2 MSTORE POP PUSH1 0x1 PUSH0 DUP7 DUP2 MSTORE PUSH1 0x20 ADD SWAP1 DUP2 MSTORE PUSH1 0x20 ADD PUSH0 KECCAK256 PUSH0 DUP3 ADD MLOAD DUP2 PUSH0 ADD SSTORE PUSH1 0x20 DUP3 ADD MLOAD DUP2 PUSH1 0x1 ADD SWAP1 DUP2 PUSH2 0x569 SWAP2 SWAP1 PUSH2 0xC7A JUMP JUMPDEST POP PUSH1 0x40 DUP3 ADD MLOAD DUP2 PUSH1 0x2 ADD SWAP1 DUP2 PUSH2 0x57F SWAP2 SWAP1 PUSH2 0xC7A JUMP JUMPDEST POP PUSH1 0x60 DUP3 ADD MLOAD DUP2 PUSH1 0x3 ADD PUSH0 PUSH2 0x100 EXP DUP2 SLOAD DUP2 PUSH1 0xFF MUL NOT AND SWAP1 DUP4 PUSH1 0x1 DUP2 GT ISZERO PUSH2 0x5AA JUMPI PUSH2 0x5A9 PUSH2 0x6A6 JUMP JUMPDEST JUMPDEST MUL OR SWAP1 SSTORE POP SWAP1 POP POP POP POP POP POP JUMP JUMPDEST PUSH0 PUSH1 0x40 MLOAD SWAP1 POP SWAP1 JUMP JUMPDEST PUSH0 PUSH0 REVERT JUMPDEST PUSH0 PUSH0 REVERT JUMPDEST PUSH0 DUP2 SWAP1 POP SWAP2 SWAP1 POP JUMP JUMPDEST PUSH2 0x5DB DUP2 PUSH2 0x5C9 JUMP JUMPDEST DUP2 EQ PUSH2 0x5E5 JUMPI PUSH0 PUSH0 REVERT JUMPDEST POP JUMP JUMPDEST PUSH0 DUP2 CALLDATALOAD SWAP1 POP PUSH2 0x5F6 DUP2 PUSH2 0x5D2 JUMP JUMPDEST SWAP3 SWAP2 POP POP JUMP JUMPDEST PUSH0 PUSH1 0x20 DUP3 DUP5 SUB SLT ISZERO PUSH2 0x611 JUMPI PUSH2 0x610 PUSH2 0x5C1 JUMP JUMPDEST JUMPDEST PUSH0 PUSH2 0x61E DUP5 DUP3 DUP6 ADD PUSH2 0x5E8 JUMP JUMPDEST SWAP2 POP POP SWAP3 SWAP2 POP POP JUMP JUMPDEST PUSH2 0x630 DUP2 PUSH2 0x5C9 JUMP JUMPDEST DUP3 MSTORE POP POP JUMP JUMPDEST PUSH0 DUP2 MLOAD SWAP1 POP SWAP2 SWAP1 POP JUMP JUMPDEST PUSH0 DUP3 DUP3 MSTORE PUSH1 0x20 DUP3 ADD SWAP1 POP SWAP3 SWAP2 POP POP JUMP JUMPDEST DUP3 DUP2 DUP4 MCOPY PUSH0 DUP4 DUP4 ADD MSTORE POP POP POP JUMP JUMPDEST PUSH0 PUSH1 0x1F NOT PUSH1 0x1F DUP4 ADD AND SWAP1 POP SWAP2 SWAP1 POP JUMP JUMPDEST PUSH0 PUSH2 0x678 DUP3 PUSH2 0x636 JUMP JUMPDEST PUSH2 0x682 DUP2 DUP6 PUSH2 0x640 JUMP JUMPDEST SWAP4 POP PUSH2 0x692 DUP2 DUP6 PUSH1 0x20 DUP7 ADD PUSH2 0x650 JUMP JUMPDEST PUSH2 0x69B DUP2 PUSH2 0x65E JUMP JUMPDEST DUP5 ADD SWAP2 POP POP SWAP3 SWAP2 POP POP JUMP JUMPDEST PUSH32 0x4E487B7100000000000000000000000000000000000000000000000000000000 PUSH0 MSTORE PUSH1 0x21 PUSH1 0x4 MSTORE PUSH1 0x24 PUSH0 REVERT JUMPDEST PUSH1 0x2 DUP2 LT PUSH2 0x6E4 JUMPI PUSH2 0x6E3 PUSH2 0x6A6 JUMP JUMPDEST JUMPDEST POP JUMP JUMPDEST PUSH0 DUP2 SWAP1 POP PUSH2 0x6F4 DUP3 PUSH2 0x6D3 JUMP JUMPDEST SWAP2 SWAP1 POP JUMP JUMPDEST PUSH0 PUSH2 0x703 DUP3 PUSH2 0x6E7 JUMP JUMPDEST SWAP1 POP SWAP2 SWAP1 POP JUMP JUMPDEST PUSH2 0x713 DUP2 PUSH2 0x6F9 JUMP JUMPDEST DUP3 MSTORE POP POP JUMP JUMPDEST PUSH0 PUSH1 0x80 DUP3 ADD SWAP1 POP PUSH2 0x72C PUSH0 DUP4 ADD DUP8 PUSH2 0x627 JUMP JUMPDEST DUP2 DUP2 SUB PUSH1 0x20 DUP4 ADD MSTORE PUSH2 0x73E DUP2 DUP7 PUSH2 0x66E JUMP JUMPDEST SWAP1 POP DUP2 DUP2 SUB PUSH1 0x40 DUP4 ADD MSTORE PUSH2 0x752 DUP2 DUP6 PUSH2 0x66E JUMP JUMPDEST SWAP1 POP PUSH2 0x761 PUSH1 0x60 DUP4 ADD DUP5 PUSH2 0x70A JUMP JUMPDEST SWAP6 SWAP5 POP POP POP POP POP JUMP JUMPDEST PUSH0 PUSH0 REVERT JUMPDEST PUSH0 PUSH0 REVERT JUMPDEST PUSH32 0x4E487B7100000000000000000000000000000000000000000000000000000000 PUSH0 MSTORE PUSH1 0x41 PUSH1 0x4 MSTORE PUSH1 0x24 PUSH0 REVERT JUMPDEST PUSH2 0x7A8 DUP3 PUSH2 0x65E JUMP JUMPDEST DUP2 ADD DUP2 DUP2 LT PUSH8 0xFFFFFFFFFFFFFFFF DUP3 GT OR ISZERO PUSH2 0x7C7 JUMPI PUSH2 0x7C6 PUSH2 0x772 JUMP JUMPDEST JUMPDEST DUP1 PUSH1 0x40 MSTORE POP POP POP JUMP JUMPDEST PUSH0 PUSH2 0x7D9 PUSH2 0x5B8 JUMP JUMPDEST SWAP1 POP PUSH2 0x7E5 DUP3 DUP3 PUSH2 0x79F JUMP JUMPDEST SWAP2 SWAP1 POP JUMP JUMPDEST PUSH0 PUSH8 0xFFFFFFFFFFFFFFFF DUP3 GT ISZERO PUSH2 0x804 JUMPI PUSH2 0x803 PUSH2 0x772 JUMP JUMPDEST JUMPDEST PUSH2 0x80D DUP3 PUSH2 0x65E JUMP JUMPDEST SWAP1 POP PUSH1 0x20 DUP2 ADD SWAP1 POP SWAP2 SWAP1 POP JUMP JUMPDEST DUP3 DUP2 DUP4 CALLDATACOPY PUSH0 DUP4 DUP4 ADD MSTORE POP POP POP JUMP JUMPDEST PUSH0 PUSH2 0x83A PUSH2 0x835 DUP5 PUSH2 0x7EA JUMP JUMPDEST PUSH2 0x7D0 JUMP JUMPDEST SWAP1 POP DUP3 DUP2 MSTORE PUSH1 0x20 DUP2 ADD DUP5 DUP5 DUP5 ADD GT ISZERO PUSH2 0x856 JUMPI PUSH2 0x855 PUSH2 0x76E JUMP JUMPDEST JUMPDEST PUSH2 0x861 DUP5 DUP3 DUP6 PUSH2 0x81A JUMP JUMPDEST POP SWAP4 SWAP3 POP POP POP JUMP JUMPDEST PUSH0 DUP3 PUSH1 0x1F DUP4 ADD SLT PUSH2 0x87D JUMPI PUSH2 0x87C PUSH2 0x76A JUMP JUMPDEST JUMPDEST DUP2 CALLDATALOAD PUSH2 0x88D DUP5 DUP3 PUSH1 0x20 DUP7 ADD PUSH2 0x828 JUMP JUMPDEST SWAP2 POP POP SWAP3 SWAP2 POP POP JUMP JUMPDEST PUSH1 0x2 DUP2 LT PUSH2 0x8A2 JUMPI PUSH0 PUSH0 REVERT JUMPDEST POP JUMP JUMPDEST PUSH0 DUP2 CALLDATALOAD SWAP1 POP PUSH2 0x8B3 DUP2 PUSH2 0x896 JUMP JUMPDEST SWAP3 SWAP2 POP POP JUMP JUMPDEST PUSH0 PUSH0 PUSH0 PUSH0 PUSH1 0x80 DUP6 DUP8 SUB SLT ISZERO PUSH2 0x8D1 JUMPI PUSH2 0x8D0 PUSH2 0x5C1 JUMP JUMPDEST JUMPDEST PUSH0 PUSH2 0x8DE DUP8 DUP3 DUP9 ADD PUSH2 0x5E8 JUMP JUMPDEST SWAP5 POP POP PUSH1 0x20 DUP6 ADD CALLDATALOAD PUSH8 0xFFFFFFFFFFFFFFFF DUP2 GT ISZERO PUSH2 0x8FF JUMPI PUSH2 0x8FE PUSH2 0x5C5 JUMP JUMPDEST JUMPDEST PUSH2 0x90B DUP8 DUP3 DUP9 ADD PUSH2 0x869 JUMP JUMPDEST SWAP4 POP POP PUSH1 0x40 DUP6 ADD CALLDATALOAD PUSH8 0xFFFFFFFFFFFFFFFF DUP2 GT ISZERO PUSH2 0x92C JUMPI PUSH2 0x92B PUSH2 0x5C5 JUMP JUMPDEST JUMPDEST PUSH2 0x938 DUP8 DUP3 DUP9 ADD PUSH2 0x869 JUMP JUMPDEST SWAP3 POP POP PUSH1 0x60 PUSH2 0x949 DUP8 DUP3 DUP9 ADD PUSH2 0x8A5 JUMP JUMPDEST SWAP2 POP POP SWAP3 SWAP6 SWAP2 SWAP5 POP SWAP3 POP JUMP JUMPDEST PUSH0 PUSH20 0xFFFFFFFFFFFFFFFFFFFFFFFFFFFFFFFFFFFFFFFF DUP3 AND SWAP1 POP SWAP2 SWAP1 POP JUMP JUMPDEST PUSH0 PUSH2 0x97E DUP3 PUSH2 0x955 JUMP JUMPDEST SWAP1 POP SWAP2 SWAP1 POP JUMP JUMPDEST PUSH2 0x98E DUP2 PUSH2 0x974 JUMP JUMPDEST DUP3 MSTORE POP POP JUMP JUMPDEST PUSH0 PUSH1 0x20 DUP3 ADD SWAP1 POP PUSH2 0x9A7 PUSH0 DUP4 ADD DUP5 PUSH2 0x985 JUMP JUMPDEST SWAP3 SWAP2 POP POP JUMP JUMPDEST PUSH32 0x4E487B7100000000000000000000000000000000000000000000000000000000 PUSH0 MSTORE PUSH1 0x22 PUSH1 0x4 MSTORE PUSH1 0x24 PUSH0 REVERT JUMPDEST PUSH0 PUSH1 0x2 DUP3 DIV SWAP1 POP PUSH1 0x1 DUP3 AND DUP1 PUSH2 0x9F1 JUMPI PUSH1 0x7F DUP3 AND SWAP2 POP JUMPDEST PUSH1 0x20 DUP3 LT DUP2 SUB PUSH2 0xA04 JUMPI PUSH2 0xA03 PUSH2 0x9AD JUMP JUMPDEST JUMPDEST POP SWAP2 SWAP1 POP JUMP JUMPDEST PUSH32 0x204E6F74204F776E657200000000000000000000000000000000000000000000 PUSH0 DUP3 ADD MSTORE POP JUMP JUMPDEST PUSH0 PUSH2 0xA3E PUSH1 0xA DUP4 PUSH2 0x640 JUMP JUMPDEST SWAP2 POP PUSH2 0xA49 DUP3 PUSH2 0xA0A JUMP JUMPDEST PUSH1 0x20 DUP3 ADD SWAP1 POP SWAP2 SWAP1 POP JUMP JUMPDEST PUSH0 PUSH1 0x20 DUP3 ADD SWAP1 POP DUP2 DUP2 SUB PUSH0 DUP4 ADD MSTORE PUSH2 0xA6B DUP2 PUSH2 0xA32 JUMP JUMPDEST SWAP1 POP SWAP2 SWAP1 POP JUMP JUMPDEST PUSH32 0x4E6F7420666F756E640000000000000000000000000000000000000000000000 PUSH0 DUP3 ADD MSTORE POP JUMP JUMPDEST PUSH0 PUSH2 0xAA6 PUSH1 0x9 DUP4 PUSH2 0x640 JUMP JUMPDEST SWAP2 POP PUSH2 0xAB1 DUP3 PUSH2 0xA72 JUMP JUMPDEST PUSH1 0x20 DUP3 ADD SWAP1 POP SWAP2 SWAP1 POP JUMP JUMPDEST PUSH0 PUSH1 0x20 DUP3 ADD SWAP1 POP DUP2 DUP2 SUB PUSH0 DUP4 ADD MSTORE PUSH2 0xAD3 DUP2 PUSH2 0xA9A JUMP JUMPDEST SWAP1 POP SWAP2 SWAP1 POP JUMP JUMPDEST PUSH0 DUP2 SWAP1 POP DUP2 PUSH0 MSTORE PUSH1 0x20 PUSH0 KECCAK256 SWAP1 POP SWAP2 SWAP1 POP JUMP JUMPDEST PUSH0 PUSH1 0x20 PUSH1 0x1F DUP4 ADD DIV SWAP1 POP SWAP2 SWAP1 POP JUMP JUMPDEST PUSH0 DUP3 DUP3 SHL SWAP1 POP SWAP3 SWAP2 POP POP JUMP JUMPDEST PUSH0 PUSH1 0x8 DUP4 MUL PUSH2 0xB36 PUSH32 0xFFFFFFFFFFFFFFFFFFFFFFFFFFFFFFFFFFFFFFFFFFFFFFFFFFFFFFFFFFFFFFFF DUP3 PUSH2 0xAFB JUMP JUMPDEST PUSH2 0xB40 DUP7 DUP4 PUSH2 0xAFB JUMP JUMPDEST SWAP6 POP DUP1 NOT DUP5 AND SWAP4 POP DUP1 DUP7 AND DUP5 OR SWAP3 POP POP POP SWAP4 SWAP3 POP POP POP JUMP JUMPDEST PUSH0 DUP2 SWAP1 POP SWAP2 SWAP1 POP JUMP JUMPDEST PUSH0 PUSH2 0xB7B PUSH2 0xB76 PUSH2 0xB71 DUP5 PUSH2 0x5C9 JUMP JUMPDEST PUSH2 0xB58 JUMP JUMPDEST PUSH2 0x5C9 JUMP JUMPDEST SWAP1 POP SWAP2 SWAP1 POP JUMP JUMPDEST PUSH0 DUP2 SWAP1 POP SWAP2 SWAP1 POP JUMP JUMPDEST PUSH2 0xB94 DUP4 PUSH2 0xB61 JUMP JUMPDEST PUSH2 0xBA8 PUSH2 0xBA0 DUP3 PUSH2 0xB82 JUMP JUMPDEST DUP5 DUP5 SLOAD PUSH2 0xB07 JUMP JUMPDEST DUP3 SSTORE POP POP POP POP JUMP JUMPDEST PUSH0 PUSH0 SWAP1 POP SWAP1 JUMP JUMPDEST PUSH2 0xBBF PUSH2 0xBB0 JUMP JUMPDEST PUSH2 0xBCA DUP2 DUP5 DUP5 PUSH2 0xB8B JUMP JUMPDEST POP POP POP JUMP JUMPDEST JUMPDEST DUP2 DUP2 LT ISZERO PUSH2 0xBED JUMPI PUSH2 0xBE2 PUSH0 DUP3 PUSH2 0xBB7 JUMP JUMPDEST PUSH1 0x1 DUP2 ADD SWAP1 POP PUSH2 0xBD0 JUMP JUMPDEST POP POP JUMP JUMPDEST PUSH1 0x1F DUP3 GT ISZERO PUSH2 0xC32 JUMPI PUSH2 0xC03 DUP2 PUSH2 0xADA JUMP JUMPDEST PUSH2 0xC0C DUP5 PUSH2 0xAEC JUMP JUMPDEST DUP2 ADD PUSH1 0x20 DUP6 LT ISZERO PUSH2 0xC1B JUMPI DUP2 SWAP1 POP JUMPDEST PUSH2 0xC2F PUSH2 0xC27 DUP6 PUSH2 0xAEC JUMP JUMPDEST DUP4 ADD DUP3 PUSH2 0xBCF JUMP JUMPDEST POP POP JUMPDEST POP POP POP JUMP JUMPDEST PUSH0 DUP3 DUP3 SHR SWAP1 POP SWAP3 SWAP2 POP POP JUMP JUMPDEST PUSH0 PUSH2 0xC52 PUSH0 NOT DUP5 PUSH1 0x8 MUL PUSH2 0xC37 JUMP JUMPDEST NOT DUP1 DUP4 AND SWAP2 POP POP SWAP3 SWAP2 POP POP JUMP JUMPDEST PUSH0 PUSH2 0xC6A DUP4 DUP4 PUSH2 0xC43 JUMP JUMPDEST SWAP2 POP DUP3 PUSH1 0x2 MUL DUP3 OR SWAP1 POP SWAP3 SWAP2 POP POP JUMP JUMPDEST PUSH2 0xC83 DUP3 PUSH2 0x636 JUMP JUMPDEST PUSH8 0xFFFFFFFFFFFFFFFF DUP2 GT ISZERO PUSH2 0xC9C JUMPI PUSH2 0xC9B PUSH2 0x772 JUMP JUMPDEST JUMPDEST PUSH2 0xCA6 DUP3 SLOAD PUSH2 0x9DA JUMP JUMPDEST PUSH2 0xCB1 DUP3 DUP3 DUP6 PUSH2 0xBF1 JUMP JUMPDEST PUSH0 PUSH1 0x20 SWAP1 POP PUSH1 0x1F DUP4 GT PUSH1 0x1 DUP2 EQ PUSH2 0xCE2 JUMPI PUSH0 DUP5 ISZERO PUSH2 0xCD0 JUMPI DUP3 DUP8 ADD MLOAD SWAP1 POP JUMPDEST PUSH2 0xCDA DUP6 DUP3 PUSH2 0xC5F JUMP JUMPDEST DUP7 SSTORE POP PUSH2 0xD41 JUMP JUMPDEST PUSH1 0x1F NOT DUP5 AND PUSH2 0xCF0 DUP7 PUSH2 0xADA JUMP JUMPDEST PUSH0 JUMPDEST DUP3 DUP2 LT ISZERO PUSH2 0xD17 JUMPI DUP5 DUP10 ADD MLOAD DUP3 SSTORE PUSH1 0x1 DUP3 ADD SWAP2 POP PUSH1 0x20 DUP6 ADD SWAP5 POP PUSH1 0x20 DUP2 ADD SWAP1 POP PUSH2 0xCF2 JUMP JUMPDEST DUP7 DUP4 LT ISZERO PUSH2 0xD34 JUMPI DUP5 DUP10 ADD MLOAD PUSH2 0xD30 PUSH1 0x1F DUP10 AND DUP3 PUSH2 0xC43 JUMP JUMPDEST DUP4 SSTORE POP JUMPDEST PUSH1 0x1 PUSH1 0x2 DUP9 MUL ADD DUP9 SSTORE POP POP POP JUMPDEST POP POP POP POP POP POP JUMP JUMPDEST PUSH32 0x20696E76616C6964204944000000000000000000000000000000000000000000 PUSH0 DUP3 ADD MSTORE POP JUMP JUMPDEST PUSH0 PUSH2 0xD7D PUSH1 0xB DUP4 PUSH2 0x640 JUMP JUMPDEST SWAP2 POP PUSH2 0xD88 DUP3 PUSH2 0xD49 JUMP JUMPDEST PUSH1 0x20 DUP3 ADD SWAP1 POP SWAP2 SWAP1 POP JUMP JUMPDEST PUSH0 PUSH1 0x20 DUP3 ADD SWAP1 POP DUP2 DUP2 SUB PUSH0 DUP4 ADD MSTORE PUSH2 0xDAA DUP2 PUSH2 0xD71 JUMP JUMPDEST SWAP1 POP SWAP2 SWAP1 POP JUMP INVALID LOG2 PUSH5 0x6970667358 0x22 SLT KECCAK256 0x4E CREATE2 0xDA PUSH11 0xEB431131B5F341950D282D SLT BALANCE 0xF 0xA9 DUP4 0xCA PUSH8 0x4832220054B2EE0D REVERT 0xDD PUSH5 0x736F6C6343 STOP ADDMOD 0x1F STOP CALLER "
		},
		"gasEstimates": {
			"creation": {
				"codeDepositCost": "711800",
				"executionCost": "25009",
				"totalCost": "736809"
			},
			"external": {
				"Owner()": "2529",
				"addPatient(uint256,string,string,uint8)": "infinite",
				"getPatient(uint256)": "infinite",
				"updatePatient(uint256,string,string,uint8)": "infinite"
			}
		},
		"methodIdentifiers": {
			"Owner()": "b4a99a4e",
			"addPatient(uint256,string,string,uint8)": "d1eafe7a",
			"getPatient(uint256)": "7d3a6796",
			"updatePatient(uint256,string,string,uint8)": "afb0d07e"
		}
	},
	"abi": [
		{
			"inputs": [],
			"stateMutability": "nonpayable",
			"type": "constructor"
		},
		{
			"inputs": [],
			"name": "Owner",
			"outputs": [
				{
					"internalType": "address",
					"name": "",
					"type": "address"
				}
			],
			"stateMutability": "view",
			"type": "function"
		},
		{
			"inputs": [
				{
					"internalType": "uint256",
					"name": "_id",
					"type": "uint256"
				},
				{
					"internalType": "string",
					"name": "_name",
					"type": "string"
				},
				{
					"internalType": "string",
					"name": "_bio",
					"type": "string"
				},
				{
					"internalType": "enum PatientDetails.Checkup",
					"name": "_status",
					"type": "uint8"
				}
			],
			"name": "addPatient",
			"outputs": [],
			"stateMutability": "nonpayable",
			"type": "function"
		},
		{
			"inputs": [
				{
					"internalType": "uint256",
					"name": "_id",
					"type": "uint256"
				}
			],
			"name": "getPatient",
			"outputs": [
				{
					"internalType": "uint256",
					"name": "",
					"type": "uint256"
				},
				{
					"internalType": "string",
					"name": "",
					"type": "string"
				},
				{
					"internalType": "string",
					"name": "",
					"type": "string"
				},
				{
					"internalType": "enum PatientDetails.Checkup",
					"name": "",
					"type": "uint8"
				}
			],
			"stateMutability": "view",
			"type": "function"
		},
		{
			"inputs": [
				{
					"internalType": "uint256",
					"name": "_id",
					"type": "uint256"
				},
				{
					"internalType": "string",
					"name": "_name",
					"type": "string"
				},
				{
					"internalType": "string",
					"name": "_bio",
					"type": "string"
				},
				{
					"internalType": "enum PatientDetails.Checkup",
					"name": "_status",
					"type": "uint8"
				}
			],
			"name": "updatePatient",
			"outputs": [],
			"stateMutability": "nonpayable",
			"type": "function"
		}
	]
}