{
	"data": {
		"bytecode": {
			"linkReferences": {},
			"object": "6080604052348015600e575f5ffd5b506108fd8061001c5f395ff3fe608060405234801561000f575f5ffd5b5060043610610034575f3560e01c8063ca440dca14610038578063dea4bda11461006b575b5f5ffd5b610052600480360381019061004d919061030b565b610087565b60405161006294939291906103b5565b60405180910390f35b61008560048036038101906100809190610532565b610239565b005b5f60605f60605f85815481106100a05761009f6105ce565b5b905f5260205f2090600402015f01545f86815481106100c2576100c16105ce565b5b905f5260205f2090600402016001015f87815481106100e4576100e36105ce565b5b905f5260205f209060040201600201545f8881548110610107576101066105ce565b5b905f5260205f20906004020160030182805461012290610628565b80601f016020809104026020016040519081016040528092919081815260200182805461014e90610628565b80156101995780601f1061017057610100808354040283529160200191610199565b820191905f5260205f20905b81548152906001019060200180831161017c57829003601f168201915b505050505092508080546101ac90610628565b80601f01602080910402602001604051908101604052809291908181526020018280546101d890610628565b80156102235780601f106101fa57610100808354040283529160200191610223565b820191905f5260205f20905b81548152906001019060200180831161020657829003601f168201915b5050505050905093509350935093509193509193565b5f604051806080016040528086815260200185815260200184815260200183815250908060018154018082558091505060019003905f5260205f2090600402015f909190919091505f820151815f0155602082015181600101908161029e91906107f8565b506040820151816002015560608201518160030190816102be91906107f8565b50505050505050565b5f604051905090565b5f5ffd5b5f5ffd5b5f819050919050565b6102ea816102d8565b81146102f4575f5ffd5b50565b5f81359050610305816102e1565b92915050565b5f602082840312156103205761031f6102d0565b5b5f61032d848285016102f7565b91505092915050565b61033f816102d8565b82525050565b5f81519050919050565b5f82825260208201905092915050565b8281835e5f83830152505050565b5f601f19601f8301169050919050565b5f61038782610345565b610391818561034f565b93506103a181856020860161035f565b6103aa8161036d565b840191505092915050565b5f6080820190506103c85f830187610336565b81810360208301526103da818661037d565b90506103e96040830185610336565b81810360608301526103fb818461037d565b905095945050505050565b5f5ffd5b5f5ffd5b7f4e487b71000000000000000000000000000000000000000000000000000000005f52604160045260245ffd5b6104448261036d565b810181811067ffffffffffffffff821117156104635761046261040e565b5b80604052505050565b5f6104756102c7565b9050610481828261043b565b919050565b5f67ffffffffffffffff8211156104a05761049f61040e565b5b6104a98261036d565b9050602081019050919050565b828183375f83830152505050565b5f6104d66104d184610486565b61046c565b9050828152602081018484840111156104f2576104f161040a565b5b6104fd8482856104b6565b509392505050565b5f82601f83011261051957610518610406565b5b81356105298482602086016104c4565b91505092915050565b5f5f5f5f6080858703121561054a576105496102d0565b5b5f610557878288016102f7565b945050602085013567ffffffffffffffff811115610578576105776102d4565b5b61058487828801610505565b9350506040610595878288016102f7565b925050606085013567ffffffffffffffff8111156105b6576105b56102d4565b5b6105c287828801610505565b91505092959194509250565b7f4e487b71000000000000000000000000000000000000000000000000000000005f52603260045260245ffd5b7f4e487b71000000000000000000000000000000000000000000000000000000005f52602260045260245ffd5b5f600282049050600182168061063f57607f821691505b602082108103610652576106516105fb565b5b50919050565b5f819050815f5260205f209050919050565b5f6020601f8301049050919050565b5f82821b905092915050565b5f600883026106b47fffffffffffffffffffffffffffffffffffffffffffffffffffffffffffffffff82610679565b6106be8683610679565b95508019841693508086168417925050509392505050565b5f819050919050565b5f6106f96106f46106ef846102d8565b6106d6565b6102d8565b9050919050565b5f819050919050565b610712836106df565b61072661071e82610700565b848454610685565b825550505050565b5f5f905090565b61073d61072e565b610748818484610709565b505050565b5b8181101561076b576107605f82610735565b60018101905061074e565b5050565b601f8211156107b05761078181610658565b61078a8461066a565b81016020851015610799578190505b6107ad6107a58561066a565b83018261074d565b50505b505050565b5f82821c905092915050565b5f6107d05f19846008026107b5565b1980831691505092915050565b5f6107e883836107c1565b9150826002028217905092915050565b61080182610345565b67ffffffffffffffff81111561081a5761081961040e565b5b6108248254610628565b61082f82828561076f565b5f60209050601f831160018114610860575f841561084e578287015190505b61085885826107dd565b8655506108bf565b601f19841661086e86610658565b5f5b8281101561089557848901518255600182019150602085019450602081019050610870565b868310156108b257848901516108ae601f8916826107c1565b8355505b6001600288020188555050505b50505050505056fea2646970667358221220866c2ef711293d6ff7a0fc467fa623ea23547c94178c0d6c7d9d7c743051f30f64736f6c634300081f0033",
			"opcodes": "PUSH1 0x80 PUSH1 0x40 MSTORE CALLVALUE DUP1 ISZERO PUSH1 0xE JUMPI PUSH0 PUSH0 REVERT JUMPDEST POP PUSH2 0x8FD DUP1 PUSH2 0x1C PUSH0 CODECOPY PUSH0 RETURN INVALID PUSH1 0x80 PUSH1 0x40 MSTORE CALLVALUE DUP1 ISZERO PUSH2 0xF JUMPI PUSH0 PUSH0 REVERT JUMPDEST POP PUSH1 0x4 CALLDATASIZE LT PUSH2 0x34 JUMPI PUSH0 CALLDATALOAD PUSH1 0xE0 SHR DUP1 PUSH4 0xCA440DCA EQ PUSH2 0x38 JUMPI DUP1 PUSH4 0xDEA4BDA1 EQ PUSH2 0x6B JUMPI JUMPDEST PUSH0 PUSH0 REVERT JUMPDEST PUSH2 0x52 PUSH1 0x4 DUP1 CALLDATASIZE SUB DUP2 ADD SWAP1 PUSH2 0x4D SWAP2 SWAP1 PUSH2 0x30B JUMP JUMPDEST PUSH2 0x87 JUMP JUMPDEST PUSH1 0x40 MLOAD PUSH2 0x62 SWAP5 SWAP4 SWAP3 SWAP2 SWAP1 PUSH2 0x3B5 JUMP JUMPDEST PUSH1 0x40 MLOAD DUP1 SWAP2 SUB SWAP1 RETURN JUMPDEST PUSH2 0x85 PUSH1 0x4 DUP1 CALLDATASIZE SUB DUP2 ADD SWAP1 PUSH2 0x80 SWAP2 SWAP1 PUSH2 0x532 JUMP JUMPDEST PUSH2 0x239 JUMP JUMPDEST STOP JUMPDEST PUSH0 PUSH1 0x60 PUSH0 PUSH1 0x60 PUSH0 DUP6 DUP2 SLOAD DUP2 LT PUSH2 0xA0 JUMPI PUSH2 0x9F PUSH2 0x5CE JUMP JUMPDEST JUMPDEST SWAP1 PUSH0 MSTORE PUSH1 0x20 PUSH0 KECCAK256 SWAP1 PUSH1 0x4 MUL ADD PUSH0 ADD SLOAD PUSH0 DUP7 DUP2 SLOAD DUP2 LT PUSH2 0xC2 JUMPI PUSH2 0xC1 PUSH2 0x5CE JUMP JUMPDEST JUMPDEST SWAP1 PUSH0 MSTORE PUSH1 0x20 PUSH0 KECCAK256 SWAP1 PUSH1 0x4 MUL ADD PUSH1 0x1 ADD PUSH0 DUP8 DUP2 SLOAD DUP2 LT PUSH2 0xE4 JUMPI PUSH2 0xE3 PUSH2 0x5CE JUMP JUMPDEST JUMPDEST SWAP1 PUSH0 MSTORE PUSH1 0x20 PUSH0 KECCAK256 SWAP1 PUSH1 0x4 MUL ADD PUSH1 0x2 ADD SLOAD PUSH0 DUP9 DUP2 SLOAD DUP2 LT PUSH2 0x107 JUMPI PUSH2 0x106 PUSH2 0x5CE JUMP JUMPDEST JUMPDEST SWAP1 PUSH0 MSTORE PUSH1 0x20 PUSH0 KECCAK256 SWAP1 PUSH1 0x4 MUL ADD PUSH1 0x3 ADD DUP3 DUP1 SLOAD PUSH2 0x122 SWAP1 PUSH2 0x628 JUMP JUMPDEST DUP1 PUSH1 0x1F ADD PUSH1 0x20 DUP1 SWAP2 DIV MUL PUSH1 0x20 ADD PUSH1 0x40 MLOAD SWAP1 DUP2 ADD PUSH1 0x40 MSTORE DUP1 SWAP3 SWAP2 SWAP1 DUP2 DUP2 MSTORE PUSH1 0x20 ADD DUP3 DUP1 SLOAD PUSH2 0x14E SWAP1 PUSH2 0x628 JUMP JUMPDEST DUP1 ISZERO PUSH2 0x199 JUMPI DUP1 PUSH1 0x1F LT PUSH2 0x170 JUMPI PUSH2 0x100 DUP1 DUP4 SLOAD DIV MUL DUP4 MSTORE SWAP2 PUSH1 0x20 ADD SWAP2 PUSH2 0x199 JUMP JUMPDEST DUP3 ADD SWAP2 SWAP1 PUSH0 MSTORE PUSH1 0x20 PUSH0 KECCAK256 SWAP1 JUMPDEST DUP2 SLOAD DUP2 MSTORE SWAP1 PUSH1 0x1 ADD SWAP1 PUSH1 0x20 ADD DUP1 DUP4 GT PUSH2 0x17C JUMPI DUP3 SWAP1 SUB PUSH1 0x1F AND DUP3 ADD SWAP2 JUMPDEST POP POP POP POP POP SWAP3 POP DUP1 DUP1 SLOAD PUSH2 0x1AC SWAP1 PUSH2 0x628 JUMP JUMPDEST DUP1 PUSH1 0x1F ADD PUSH1 0x20 DUP1 SWAP2 DIV MUL PUSH1 0x20 ADD PUSH1 0x40 MLOAD SWAP1 DUP2 ADD PUSH1 0x40 MSTORE DUP1 SWAP3 SWAP2 SWAP1 DUP2 DUP2 MSTORE PUSH1 0x20 ADD DUP3 DUP1 SLOAD PUSH2 0x1D8 SWAP1 PUSH2 0x628 JUMP JUMPDEST DUP1 ISZERO PUSH2 0x223 JUMPI DUP1 PUSH1 0x1F LT PUSH2 0x1FA JUMPI PUSH2 0x100 DUP1 DUP4 SLOAD DIV MUL DUP4 MSTORE SWAP2 PUSH1 0x20 ADD SWAP2 PUSH2 0x223 JUMP JUMPDEST DUP3 ADD SWAP2 SWAP1 PUSH0 MSTORE PUSH1 0x20 PUSH0 KECCAK256 SWAP1 JUMPDEST DUP2 SLOAD DUP2 MSTORE SWAP1 PUSH1 0x1 ADD SWAP1 PUSH1 0x20 ADD DUP1 DUP4 GT PUSH2 0x206 JUMPI DUP3 SWAP1 SUB PUSH1 0x1F AND DUP3 ADD SWAP2 JUMPDEST POP POP POP POP POP SWAP1 POP SWAP4 POP SWAP4 POP SWAP4 POP SWAP4 POP SWAP2 SWAP4 POP SWAP2 SWAP4 JUMP JUMPDEST PUSH0 PUSH1 0x40 MLOAD DUP1 PUSH1 0x80 ADD PUSH1 0x40 MSTORE DUP1 DUP7 DUP2 MSTORE PUSH1 0x20 ADD DUP6 DUP2 MSTORE PUSH1 0x20 ADD DUP5 DUP2 MSTORE PUSH1 0x20 ADD DUP4 DUP2 MSTORE POP SWAP1 DUP1 PUSH1 0x1 DUP2 SLOAD ADD DUP1 DUP3 SSTORE DUP1 SWAP2 POP POP PUSH1 0x1 SWAP1 SUB SWAP1 PUSH0 MSTORE PUSH1 0x20 PUSH0 KECCAK256 SWAP1 PUSH1 0x4 MUL ADD PUSH0 SWAP1 SWAP2 SWAP1 SWAP2 SWAP1 SWAP2 POP PUSH0 DUP3 ADD MLOAD DUP2 PUSH0 ADD SSTORE PUSH1 0x20 DUP3 ADD MLOAD DUP2 PUSH1 0x1 ADD SWAP1 DUP2 PUSH2 0x29E SWAP2 SWAP1 PUSH2 0x7F8 JUMP JUMPDEST POP PUSH1 0x40 DUP3 ADD MLOAD DUP2 PUSH1 0x2 ADD SSTORE PUSH1 0x60 DUP3 ADD MLOAD DUP2 PUSH1 0x3 ADD SWAP1 DUP2 PUSH2 0x2BE SWAP2 SWAP1 PUSH2 0x7F8 JUMP JUMPDEST POP POP POP POP POP POP POP JUMP JUMPDEST PUSH0 PUSH1 0x40 MLOAD SWAP1 POP SWAP1 JUMP JUMPDEST PUSH0 PUSH0 REVERT JUMPDEST PUSH0 PUSH0 REVERT JUMPDEST PUSH0 DUP2 SWAP1 POP SWAP2 SWAP1 POP JUMP JUMPDEST PUSH2 0x2EA DUP2 PUSH2 0x2D8 JUMP JUMPDEST DUP2 EQ PUSH2 0x2F4 JUMPI PUSH0 PUSH0 REVERT JUMPDEST POP JUMP JUMPDEST PUSH0 DUP2 CALLDATALOAD SWAP1 POP PUSH2 0x305 DUP2 PUSH2 0x2E1 JUMP JUMPDEST SWAP3 SWAP2 POP POP JUMP JUMPDEST PUSH0 PUSH1 0x20 DUP3 DUP5 SUB SLT ISZERO PUSH2 0x320 JUMPI PUSH2 0x31F PUSH2 0x2D0 JUMP JUMPDEST JUMPDEST PUSH0 PUSH2 0x32D DUP5 DUP3 DUP6 ADD PUSH2 0x2F7 JUMP JUMPDEST SWAP2 POP POP SWAP3 SWAP2 POP POP JUMP JUMPDEST PUSH2 0x33F DUP2 PUSH2 0x2D8 JUMP JUMPDEST DUP3 MSTORE POP POP JUMP JUMPDEST PUSH0 DUP2 MLOAD SWAP1 POP SWAP2 SWAP1 POP JUMP JUMPDEST PUSH0 DUP3 DUP3 MSTORE PUSH1 0x20 DUP3 ADD SWAP1 POP SWAP3 SWAP2 POP POP JUMP JUMPDEST DUP3 DUP2 DUP4 MCOPY PUSH0 DUP4 DUP4 ADD MSTORE POP POP POP JUMP JUMPDEST PUSH0 PUSH1 0x1F NOT PUSH1 0x1F DUP4 ADD AND SWAP1 POP SWAP2 SWAP1 POP JUMP JUMPDEST PUSH0 PUSH2 0x387 DUP3 PUSH2 0x345 JUMP JUMPDEST PUSH2 0x391 DUP2 DUP6 PUSH2 0x34F JUMP JUMPDEST SWAP4 POP PUSH2 0x3A1 DUP2 DUP6 PUSH1 0x20 DUP7 ADD PUSH2 0x35F JUMP JUMPDEST PUSH2 0x3AA DUP2 PUSH2 0x36D JUMP JUMPDEST DUP5 ADD SWAP2 POP POP SWAP3 SWAP2 POP POP JUMP JUMPDEST PUSH0 PUSH1 0x80 DUP3 ADD SWAP1 POP PUSH2 0x3C8 PUSH0 DUP4 ADD DUP8 PUSH2 0x336 JUMP JUMPDEST DUP2 DUP2 SUB PUSH1 0x20 DUP4 ADD MSTORE PUSH2 0x3DA DUP2 DUP7 PUSH2 0x37D JUMP JUMPDEST SWAP1 POP PUSH2 0x3E9 PUSH1 0x40 DUP4 ADD DUP6 PUSH2 0x336 JUMP JUMPDEST DUP2 DUP2 SUB PUSH1 0x60 DUP4 ADD MSTORE PUSH2 0x3FB DUP2 DUP5 PUSH2 0x37D JUMP JUMPDEST SWAP1 POP SWAP6 SWAP5 POP POP POP POP POP JUMP JUMPDEST PUSH0 PUSH0 REVERT JUMPDEST PUSH0 PUSH0 REVERT JUMPDEST PUSH32 0x4E487B7100000000000000000000000000000000000000000000000000000000 PUSH0 MSTORE PUSH1 0x41 PUSH1 0x4 MSTORE PUSH1 0x24 PUSH0 REVERT JUMPDEST PUSH2 0x444 DUP3 PUSH2 0x36D JUMP JUMPDEST DUP2 ADD DUP2 DUP2 LT PUSH8 0xFFFFFFFFFFFFFFFF DUP3 GT OR ISZERO PUSH2 0x463 JUMPI PUSH2 0x462 PUSH2 0x40E JUMP JUMPDEST JUMPDEST DUP1 PUSH1 0x40 MSTORE POP POP POP JUMP JUMPDEST PUSH0 PUSH2 0x475 PUSH2 0x2C7 JUMP JUMPDEST SWAP1 POP PUSH2 0x481 DUP3 DUP3 PUSH2 0x43B JUMP JUMPDEST SWAP2 SWAP1 POP JUMP JUMPDEST PUSH0 PUSH8 0xFFFFFFFFFFFFFFFF DUP3 GT ISZERO PUSH2 0x4A0 JUMPI PUSH2 0x49F PUSH2 0x40E JUMP JUMPDEST JUMPDEST PUSH2 0x4A9 DUP3 PUSH2 0x36D JUMP JUMPDEST SWAP1 POP PUSH1 0x20 DUP2 ADD SWAP1 POP SWAP2 SWAP1 POP JUMP JUMPDEST DUP3 DUP2 DUP4 CALLDATACOPY PUSH0 DUP4 DUP4 ADD MSTORE POP POP POP JUMP JUMPDEST PUSH0 PUSH2 0x4D6 PUSH2 0x4D1 DUP5 PUSH2 0x486 JUMP JUMPDEST PUSH2 0x46C JUMP JUMPDEST SWAP1 POP DUP3 DUP2 MSTORE PUSH1 0x20 DUP2 ADD DUP5 DUP5 DUP5 ADD GT ISZERO PUSH2 0x4F2 JUMPI PUSH2 0x4F1 PUSH2 0x40A JUMP JUMPDEST JUMPDEST PUSH2 0x4FD DUP5 DUP3 DUP6 PUSH2 0x4B6 JUMP JUMPDEST POP SWAP4 SWAP3 POP POP POP JUMP JUMPDEST PUSH0 DUP3 PUSH1 0x1F DUP4 ADD SLT PUSH2 0x519 JUMPI PUSH2 0x518 PUSH2 0x406 JUMP JUMPDEST JUMPDEST DUP2 CALLDATALOAD PUSH2 0x529 DUP5 DUP3 PUSH1 0x20 DUP7 ADD PUSH2 0x4C4 JUMP JUMPDEST SWAP2 POP POP SWAP3 SWAP2 POP POP JUMP JUMPDEST PUSH0 PUSH0 PUSH0 PUSH0 PUSH1 0x80 DUP6 DUP8 SUB SLT ISZERO PUSH2 0x54A JUMPI PUSH2 0x549 PUSH2 0x2D0 JUMP JUMPDEST JUMPDEST PUSH0 PUSH2 0x557 DUP8 DUP3 DUP9 ADD PUSH2 0x2F7 JUMP JUMPDEST SWAP5 POP POP PUSH1 0x20 DUP6 ADD CALLDATALOAD PUSH8 0xFFFFFFFFFFFFFFFF DUP2 GT ISZERO PUSH2 0x578 JUMPI PUSH2 0x577 PUSH2 0x2D4 JUMP JUMPDEST JUMPDEST PUSH2 0x584 DUP8 DUP3 DUP9 ADD PUSH2 0x505 JUMP JUMPDEST SWAP4 POP POP PUSH1 0x40 PUSH2 0x595 DUP8 DUP3 DUP9 ADD PUSH2 0x2F7 JUMP JUMPDEST SWAP3 POP POP PUSH1 0x60 DUP6 ADD CALLDATALOAD PUSH8 0xFFFFFFFFFFFFFFFF DUP2 GT ISZERO PUSH2 0x5B6 JUMPI PUSH2 0x5B5 PUSH2 0x2D4 JUMP JUMPDEST JUMPDEST PUSH2 0x5C2 DUP8 DUP3 DUP9 ADD PUSH2 0x505 JUMP JUMPDEST SWAP2 POP POP SWAP3 SWAP6 SWAP2 SWAP5 POP SWAP3 POP JUMP JUMPDEST PUSH32 0x4E487B7100000000000000000000000000000000000000000000000000000000 PUSH0 MSTORE PUSH1 0x32 PUSH1 0x4 MSTORE PUSH1 0x24 PUSH0 REVERT JUMPDEST PUSH32 0x4E487B7100000000000000000000000000000000000000000000000000000000 PUSH0 MSTORE PUSH1 0x22 PUSH1 0x4 MSTORE PUSH1 0x24 PUSH0 REVERT JUMPDEST PUSH0 PUSH1 0x2 DUP3 DIV SWAP1 POP PUSH1 0x1 DUP3 AND DUP1 PUSH2 0x63F JUMPI PUSH1 0x7F DUP3 AND SWAP2 POP JUMPDEST PUSH1 0x20 DUP3 LT DUP2 SUB PUSH2 0x652 JUMPI PUSH2 0x651 PUSH2 0x5FB JUMP JUMPDEST JUMPDEST POP SWAP2 SWAP1 POP JUMP JUMPDEST PUSH0 DUP2 SWAP1 POP DUP2 PUSH0 MSTORE PUSH1 0x20 PUSH0 KECCAK256 SWAP1 POP SWAP2 SWAP1 POP JUMP JUMPDEST PUSH0 PUSH1 0x20 PUSH1 0x1F DUP4 ADD DIV SWAP1 POP SWAP2 SWAP1 POP JUMP JUMPDEST PUSH0 DUP3 DUP3 SHL SWAP1 POP SWAP3 SWAP2 POP POP JUMP JUMPDEST PUSH0 PUSH1 0x8 DUP4 MUL PUSH2 0x6B4 PUSH32 0xFFFFFFFFFFFFFFFFFFFFFFFFFFFFFFFFFFFFFFFFFFFFFFFFFFFFFFFFFFFFFFFF DUP3 PUSH2 0x679 JUMP JUMPDEST PUSH2 0x6BE DUP7 DUP4 PUSH2 0x679 JUMP JUMPDEST SWAP6 POP DUP1 NOT DUP5 AND SWAP4 POP DUP1 DUP7 AND DUP5 OR SWAP3 POP POP POP SWAP4 SWAP3 POP POP POP JUMP JUMPDEST PUSH0 DUP2 SWAP1 POP SWAP2 SWAP1 POP JUMP JUMPDEST PUSH0 PUSH2 0x6F9 PUSH2 0x6F4 PUSH2 0x6EF DUP5 PUSH2 0x2D8 JUMP JUMPDEST PUSH2 0x6D6 JUMP JUMPDEST PUSH2 0x2D8 JUMP JUMPDEST SWAP1 POP SWAP2 SWAP1 POP JUMP JUMPDEST PUSH0 DUP2 SWAP1 POP SWAP2 SWAP1 POP JUMP JUMPDEST PUSH2 0x712 DUP4 PUSH2 0x6DF JUMP JUMPDEST PUSH2 0x726 PUSH2 0x71E DUP3 PUSH2 0x700 JUMP JUMPDEST DUP5 DUP5 SLOAD PUSH2 0x685 JUMP JUMPDEST DUP3 SSTORE POP POP POP POP JUMP JUMPDEST PUSH0 PUSH0 SWAP1 POP SWAP1 JUMP JUMPDEST PUSH2 0x73D PUSH2 0x72E JUMP JUMPDEST PUSH2 0x748 DUP2 DUP5 DUP5 PUSH2 0x709 JUMP JUMPDEST POP POP POP JUMP JUMPDEST JUMPDEST DUP2 DUP2 LT ISZERO PUSH2 0x76B JUMPI PUSH2 0x760 PUSH0 DUP3 PUSH2 0x735 JUMP JUMPDEST PUSH1 0x1 DUP2 ADD SWAP1 POP PUSH2 0x74E JUMP JUMPDEST POP POP JUMP JUMPDEST PUSH1 0x1F DUP3 GT ISZERO PUSH2 0x7B0 JUMPI PUSH2 0x781 DUP2 PUSH2 0x658 JUMP JUMPDEST PUSH2 0x78A DUP5 PUSH2 0x66A JUMP JUMPDEST DUP2 ADD PUSH1 0x20 DUP6 LT ISZERO PUSH2 0x799 JUMPI DUP2 SWAP1 POP JUMPDEST PUSH2 0x7AD PUSH2 0x7A5 DUP6 PUSH2 0x66A JUMP JUMPDEST DUP4 ADD DUP3 PUSH2 0x74D JUMP JUMPDEST POP POP JUMPDEST POP POP POP JUMP JUMPDEST PUSH0 DUP3 DUP3 SHR SWAP1 POP SWAP3 SWAP2 POP POP JUMP JUMPDEST PUSH0 PUSH2 0x7D0 PUSH0 NOT DUP5 PUSH1 0x8 MUL PUSH2 0x7B5 JUMP JUMPDEST NOT DUP1 DUP4 AND SWAP2 POP POP SWAP3 SWAP2 POP POP JUMP JUMPDEST PUSH0 PUSH2 0x7E8 DUP4 DUP4 PUSH2 0x7C1 JUMP JUMPDEST SWAP2 POP DUP3 PUSH1 0x2 MUL DUP3 OR SWAP1 POP SWAP3 SWAP2 POP POP JUMP JUMPDEST PUSH2 0x801 DUP3 PUSH2 0x345 JUMP JUMPDEST PUSH8 0xFFFFFFFFFFFFFFFF DUP2 GT ISZERO PUSH2 0x81A JUMPI PUSH2 0x819 PUSH2 0x40E JUMP JUMPDEST JUMPDEST PUSH2 0x824 DUP3 SLOAD PUSH2 0x628 JUMP JUMPDEST PUSH2 0x82F DUP3 DUP3 DUP6 PUSH2 0x76F JUMP JUMPDEST PUSH0 PUSH1 0x20 SWAP1 POP PUSH1 0x1F DUP4 GT PUSH1 0x1 DUP2 EQ PUSH2 0x860 JUMPI PUSH0 DUP5 ISZERO PUSH2 0x84E JUMPI DUP3 DUP8 ADD MLOAD SWAP1 POP JUMPDEST PUSH2 0x858 DUP6 DUP3 PUSH2 0x7DD JUMP JUMPDEST DUP7 SSTORE POP PUSH2 0x8BF JUMP JUMPDEST PUSH1 0x1F NOT DUP5 AND PUSH2 0x86E DUP7 PUSH2 0x658 JUMP JUMPDEST PUSH0 JUMPDEST DUP3 DUP2 LT ISZERO PUSH2 0x895 JUMPI DUP5 DUP10 ADD MLOAD DUP3 SSTORE PUSH1 0x1 DUP3 ADD SWAP2 POP PUSH1 0x20 DUP6 ADD SWAP5 POP PUSH1 0x20 DUP2 ADD SWAP1 POP PUSH2 0x870 JUMP JUMPDEST DUP7 DUP4 LT ISZERO PUSH2 0x8B2 JUMPI DUP5 DUP10 ADD MLOAD PUSH2 0x8AE PUSH1 0x1F DUP10 AND DUP3 PUSH2 0x7C1 JUMP JUMPDEST DUP4 SSTORE POP JUMPDEST PUSH1 0x1 PUSH1 0x2 DUP9 MUL ADD DUP9 SSTORE POP POP POP JUMPDEST POP POP POP POP POP POP JUMP INVALID LOG2 PUSH5 0x6970667358 0x22 SLT KECCAK256 DUP7 PUSH13 0x2EF711293D6FF7A0FC467FA623 0xEA 0x23 SLOAD PUSH29 0x94178C0D6C7D9D7C743051F30F64736F6C634300081F00330000000000 "
		},
		"gasEstimates": {
			"creation": {
				"codeDepositCost": "460200",
				"executionCost": "491",
				"totalCost": "460691"
			},
			"external": {
				"Details(uint256,string,uint256,string)": "infinite",
				"StudentDetails(uint256)": "infinite"
			}
		},
		"methodIdentifiers": {
			"Details(uint256,string,uint256,string)": "dea4bda1",
			"StudentDetails(uint256)": "ca440dca"
		}
	},
	"abi": [
		{
			"inputs": [
				{
					"internalType": "uint256",
					"name": "_rollno",
					"type": "uint256"
				},
				{
					"internalType": "string",
					"name": "_name",
					"type": "string"
				},
				{
					"internalType": "uint256",
					"name": "_age",
					"type": "uint256"
				},
				{
					"internalType": "string",
					"name": "_course",
					"type": "string"
				}
			],
			"name": "Details",
			"outputs": [],
			"stateMutability": "nonpayable",
			"type": "function"
		},
		{
			"inputs": [
				{
					"internalType": "uint256",
					"name": "index",
					"type": "uint256"
				}
			],
			"name": "StudentDetails",
			"outputs": [
				{
					"internalType": "uint256",
					"name": "",
					"type": "uint256"
				},
				{
					"internalType": "string",
					"name": "",
					"type": "string"
				},
				{
					"internalType": "uint256",
					"name": "",
					"type": "uint256"
				},
				{
					"internalType": "string",
					"name": "",
					"type": "string"
				}
			],
			"stateMutability": "view",
			"type": "function"
		}
	]
}