{
	"data": {
		"bytecode": {
			"linkReferences": {},
			"object": "6080604052348015600e575f5ffd5b506107e78061001c5f395ff3fe608060405234801561000f575f5ffd5b5060043610610034575f3560e01c8063294f2eee14610038578063962ccc8d14610057575b5f5ffd5b610040610073565b60405161004e92919061027f565b60405180910390f35b610071600480360381019061006c9190610424565b61019a565b005b6060805f6002015f60030181805461008a90610509565b80601f01602080910402602001604051908101604052809291908181526020018280546100b690610509565b80156101015780601f106100d857610100808354040283529160200191610101565b820191905f5260205f20905b8154815290600101906020018083116100e457829003601f168201915b5050505050915080805461011490610509565b80601f016020809104026020016040519081016040528092919081815260200182805461014090610509565b801561018b5780601f106101625761010080835404028352916020019161018b565b820191905f5260205f20905b81548152906001019060200180831161016e57829003601f168201915b50505050509050915091509091565b6040518060800160405280858152602001848152602001838152602001828152505f5f820151815f0190816101cf91906106e2565b506020820151816001015560408201518160020190816101ef91906106e2565b50606082015181600301908161020591906106e2565b5090505050505050565b5f81519050919050565b5f82825260208201905092915050565b8281835e5f83830152505050565b5f601f19601f8301169050919050565b5f6102518261020f565b61025b8185610219565b935061026b818560208601610229565b61027481610237565b840191505092915050565b5f6040820190508181035f8301526102978185610247565b905081810360208301526102ab8184610247565b90509392505050565b5f604051905090565b5f5ffd5b5f5ffd5b5f5ffd5b5f5ffd5b7f4e487b71000000000000000000000000000000000000000000000000000000005f52604160045260245ffd5b61030382610237565b810181811067ffffffffffffffff82111715610322576103216102cd565b5b80604052505050565b5f6103346102b4565b905061034082826102fa565b919050565b5f67ffffffffffffffff82111561035f5761035e6102cd565b5b61036882610237565b9050602081019050919050565b828183375f83830152505050565b5f61039561039084610345565b61032b565b9050828152602081018484840111156103b1576103b06102c9565b5b6103bc848285610375565b509392505050565b5f82601f8301126103d8576103d76102c5565b5b81356103e8848260208601610383565b91505092915050565b5f819050919050565b610403816103f1565b811461040d575f5ffd5b50565b5f8135905061041e816103fa565b92915050565b5f5f5f5f6080858703121561043c5761043b6102bd565b5b5f85013567ffffffffffffffff811115610459576104586102c1565b5b610465878288016103c4565b945050602061047687828801610410565b935050604085013567ffffffffffffffff811115610497576104966102c1565b5b6104a3878288016103c4565b925050606085013567ffffffffffffffff8111156104c4576104c36102c1565b5b6104d0878288016103c4565b91505092959194509250565b7f4e487b71000000000000000000000000000000000000000000000000000000005f52602260045260245ffd5b5f600282049050600182168061052057607f821691505b602082108103610533576105326104dc565b5b50919050565b5f819050815f5260205f209050919050565b5f6020601f8301049050919050565b5f82821b905092915050565b5f600883026105957fffffffffffffffffffffffffffffffffffffffffffffffffffffffffffffffff8261055a565b61059f868361055a565b95508019841693508086168417925050509392505050565b5f819050919050565b5f819050919050565b5f6105e36105de6105d9846105b7565b6105c0565b6105b7565b9050919050565b5f819050919050565b6105fc836105c9565b610610610608826105ea565b848454610566565b825550505050565b5f5f905090565b610627610618565b6106328184846105f3565b505050565b5b818110156106555761064a5f8261061f565b600181019050610638565b5050565b601f82111561069a5761066b81610539565b6106748461054b565b81016020851015610683578190505b61069761068f8561054b565b830182610637565b50505b505050565b5f82821c905092915050565b5f6106ba5f198460080261069f565b1980831691505092915050565b5f6106d283836106ab565b9150826002028217905092915050565b6106eb8261020f565b67ffffffffffffffff811115610704576107036102cd565b5b61070e8254610509565b610719828285610659565b5f60209050601f83116001811461074a575f8415610738578287015190505b61074285826106c7565b8655506107a9565b601f19841661075886610539565b5f5b8281101561077f5784890151825560018201915060208501945060208101905061075a565b8683101561079c5784890151610798601f8916826106ab565b8355505b6001600288020188555050505b50505050505056fea26469706673582212209a3a3c4b590bcbb484f10c6d82b1bc37adf45cd3e94bf5ac63ba44a58c92a7e964736f6c634300081f0033",
			"opcodes": "PUSH1 0x80 PUSH1 0x40 MSTORE CALLVALUE DUP1 ISZERO PUSH1 0xE JUMPI PUSH0 PUSH0 REVERT JUMPDEST POP PUSH2 0x7E7 DUP1 PUSH2 0x1C PUSH0 CODECOPY PUSH0 RETURN INVALID PUSH1 0x80 PUSH1 0x40 MSTORE CALLVALUE DUP1 ISZERO PUSH2 0xF JUMPI PUSH0 PUSH0 REVERT JUMPDEST POP PUSH1 0x4 CALLDATASIZE LT PUSH2 0x34 JUMPI PUSH0 CALLDATALOAD PUSH1 0xE0 SHR DUP1 PUSH4 0x294F2EEE EQ PUSH2 0x38 JUMPI DUP1 PUSH4 0x962CCC8D EQ PUSH2 0x57 JUMPI JUMPDEST PUSH0 PUSH0 REVERT JUMPDEST PUSH2 0x40 PUSH2 0x73 JUMP JUMPDEST PUSH1 0x40 MLOAD PUSH2 0x4E SWAP3 SWAP2 SWAP1 PUSH2 0x27F JUMP JUMPDEST PUSH1 0x40 MLOAD DUP1 SWAP2 SUB SWAP1 RETURN JUMPDEST PUSH2 0x71 PUSH1 0x4 DUP1 CALLDATASIZE SUB DUP2 ADD SWAP1 PUSH2 0x6C SWAP2 SWAP1 PUSH2 0x424 JUMP JUMPDEST PUSH2 0x19A JUMP JUMPDEST STOP JUMPDEST PUSH1 0x60 DUP1 PUSH0 PUSH1 0x2 ADD PUSH0 PUSH1 0x3 ADD DUP2 DUP1 SLOAD PUSH2 0x8A SWAP1 PUSH2 0x509 JUMP JUMPDEST DUP1 PUSH1 0x1F ADD PUSH1 0x20 DUP1 SWAP2 DIV MUL PUSH1 0x20 ADD PUSH1 0x40 MLOAD SWAP1 DUP2 ADD PUSH1 0x40 MSTORE DUP1 SWAP3 SWAP2 SWAP1 DUP2 DUP2 MSTORE PUSH1 0x20 ADD DUP3 DUP1 SLOAD PUSH2 0xB6 SWAP1 PUSH2 0x509 JUMP JUMPDEST DUP1 ISZERO PUSH2 0x101 JUMPI DUP1 PUSH1 0x1F LT PUSH2 0xD8 JUMPI PUSH2 0x100 DUP1 DUP4 SLOAD DIV MUL DUP4 MSTORE SWAP2 PUSH1 0x20 ADD SWAP2 PUSH2 0x101 JUMP JUMPDEST DUP3 ADD SWAP2 SWAP1 PUSH0 MSTORE PUSH1 0x20 PUSH0 KECCAK256 SWAP1 JUMPDEST DUP2 SLOAD DUP2 MSTORE SWAP1 PUSH1 0x1 ADD SWAP1 PUSH1 0x20 ADD DUP1 DUP4 GT PUSH2 0xE4 JUMPI DUP3 SWAP1 SUB PUSH1 0x1F AND DUP3 ADD SWAP2 JUMPDEST POP POP POP POP POP SWAP2 POP DUP1 DUP1 SLOAD PUSH2 0x114 SWAP1 PUSH2 0x509 JUMP JUMPDEST DUP1 PUSH1 0x1F ADD PUSH1 0x20 DUP1 SWAP2 DIV MUL PUSH1 0x20 ADD PUSH1 0x40 MLOAD SWAP1 DUP2 ADD PUSH1 0x40 MSTORE DUP1 SWAP3 SWAP2 SWAP1 DUP2 DUP2 MSTORE PUSH1 0x20 ADD DUP3 DUP1 SLOAD PUSH2 0x140 SWAP1 PUSH2 0x509 JUMP JUMPDEST DUP1 ISZERO PUSH2 0x18B JUMPI DUP1 PUSH1 0x1F LT PUSH2 0x162 JUMPI PUSH2 0x100 DUP1 DUP4 SLOAD DIV MUL DUP4 MSTORE SWAP2 PUSH1 0x20 ADD SWAP2 PUSH2 0x18B JUMP JUMPDEST DUP3 ADD SWAP2 SWAP1 PUSH0 MSTORE PUSH1 0x20 PUSH0 KECCAK256 SWAP1 JUMPDEST DUP2 SLOAD DUP2 MSTORE SWAP1 PUSH1 0x1 ADD SWAP1 PUSH1 0x20 ADD DUP1 DUP4 GT PUSH2 0x16E JUMPI DUP3 SWAP1 SUB PUSH1 0x1F AND DUP3 ADD SWAP2 JUMPDEST POP POP POP POP POP SWAP1 POP SWAP2 POP SWAP2 POP SWAP1 SWAP2 JUMP JUMPDEST PUSH1 0x40 MLOAD DUP1 PUSH1 0x80 ADD PUSH1 0x40 MSTORE DUP1 DUP6 DUP2 MSTORE PUSH1 0x20 ADD DUP5 DUP2 MSTORE PUSH1 0x20 ADD DUP4 DUP2 MSTORE PUSH1 0x20 ADD DUP3 DUP2 MSTORE POP PUSH0 PUSH0 DUP3 ADD MLOAD DUP2 PUSH0 ADD SWAP1 DUP2 PUSH2 0x1CF SWAP2 SWAP1 PUSH2 0x6E2 JUMP JUMPDEST POP PUSH1 0x20 DUP3 ADD MLOAD DUP2 PUSH1 0x1 ADD SSTORE PUSH1 0x40 DUP3 ADD MLOAD DUP2 PUSH1 0x2 ADD SWAP1 DUP2 PUSH2 0x1EF SWAP2 SWAP1 PUSH2 0x6E2 JUMP JUMPDEST POP PUSH1 0x60 DUP3 ADD MLOAD DUP2 PUSH1 0x3 ADD SWAP1 DUP2 PUSH2 0x205 SWAP2 SWAP1 PUSH2 0x6E2 JUMP JUMPDEST POP SWAP1 POP POP POP POP POP POP JUMP JUMPDEST PUSH0 DUP2 MLOAD SWAP1 POP SWAP2 SWAP1 POP JUMP JUMPDEST PUSH0 DUP3 DUP3 MSTORE PUSH1 0x20 DUP3 ADD SWAP1 POP SWAP3 SWAP2 POP POP JUMP JUMPDEST DUP3 DUP2 DUP4 MCOPY PUSH0 DUP4 DUP4 ADD MSTORE POP POP POP JUMP JUMPDEST PUSH0 PUSH1 0x1F NOT PUSH1 0x1F DUP4 ADD AND SWAP1 POP SWAP2 SWAP1 POP JUMP JUMPDEST PUSH0 PUSH2 0x251 DUP3 PUSH2 0x20F JUMP JUMPDEST PUSH2 0x25B DUP2 DUP6 PUSH2 0x219 JUMP JUMPDEST SWAP4 POP PUSH2 0x26B DUP2 DUP6 PUSH1 0x20 DUP7 ADD PUSH2 0x229 JUMP JUMPDEST PUSH2 0x274 DUP2 PUSH2 0x237 JUMP JUMPDEST DUP5 ADD SWAP2 POP POP SWAP3 SWAP2 POP POP JUMP JUMPDEST PUSH0 PUSH1 0x40 DUP3 ADD SWAP1 POP DUP2 DUP2 SUB PUSH0 DUP4 ADD MSTORE PUSH2 0x297 DUP2 DUP6 PUSH2 0x247 JUMP JUMPDEST SWAP1 POP DUP2 DUP2 SUB PUSH1 0x20 DUP4 ADD MSTORE PUSH2 0x2AB DUP2 DUP5 PUSH2 0x247 JUMP JUMPDEST SWAP1 POP SWAP4 SWAP3 POP POP POP JUMP JUMPDEST PUSH0 PUSH1 0x40 MLOAD SWAP1 POP SWAP1 JUMP JUMPDEST PUSH0 PUSH0 REVERT JUMPDEST PUSH0 PUSH0 REVERT JUMPDEST PUSH0 PUSH0 REVERT JUMPDEST PUSH0 PUSH0 REVERT JUMPDEST PUSH32 0x4E487B7100000000000000000000000000000000000000000000000000000000 PUSH0 MSTORE PUSH1 0x41 PUSH1 0x4 MSTORE PUSH1 0x24 PUSH0 REVERT JUMPDEST PUSH2 0x303 DUP3 PUSH2 0x237 JUMP JUMPDEST DUP2 ADD DUP2 DUP2 LT PUSH8 0xFFFFFFFFFFFFFFFF DUP3 GT OR ISZERO PUSH2 0x322 JUMPI PUSH2 0x321 PUSH2 0x2CD JUMP JUMPDEST JUMPDEST DUP1 PUSH1 0x40 MSTORE POP POP POP JUMP JUMPDEST PUSH0 PUSH2 0x334 PUSH2 0x2B4 JUMP JUMPDEST SWAP1 POP PUSH2 0x340 DUP3 DUP3 PUSH2 0x2FA JUMP JUMPDEST SWAP2 SWAP1 POP JUMP JUMPDEST PUSH0 PUSH8 0xFFFFFFFFFFFFFFFF DUP3 GT ISZERO PUSH2 0x35F JUMPI PUSH2 0x35E PUSH2 0x2CD JUMP JUMPDEST JUMPDEST PUSH2 0x368 DUP3 PUSH2 0x237 JUMP JUMPDEST SWAP1 POP PUSH1 0x20 DUP2 ADD SWAP1 POP SWAP2 SWAP1 POP JUMP JUMPDEST DUP3 DUP2 DUP4 CALLDATACOPY PUSH0 DUP4 DUP4 ADD MSTORE POP POP POP JUMP JUMPDEST PUSH0 PUSH2 0x395 PUSH2 0x390 DUP5 PUSH2 0x345 JUMP JUMPDEST PUSH2 0x32B JUMP JUMPDEST SWAP1 POP DUP3 DUP2 MSTORE PUSH1 0x20 DUP2 ADD DUP5 DUP5 DUP5 ADD GT ISZERO PUSH2 0x3B1 JUMPI PUSH2 0x3B0 PUSH2 0x2C9 JUMP JUMPDEST JUMPDEST PUSH2 0x3BC DUP5 DUP3 DUP6 PUSH2 0x375 JUMP JUMPDEST POP SWAP4 SWAP3 POP POP POP JUMP JUMPDEST PUSH0 DUP3 PUSH1 0x1F DUP4 ADD SLT PUSH2 0x3D8 JUMPI PUSH2 0x3D7 PUSH2 0x2C5 JUMP JUMPDEST JUMPDEST DUP2 CALLDATALOAD PUSH2 0x3E8 DUP5 DUP3 PUSH1 0x20 DUP7 ADD PUSH2 0x383 JUMP JUMPDEST SWAP2 POP POP SWAP3 SWAP2 POP POP JUMP JUMPDEST PUSH0 DUP2 SWAP1 POP SWAP2 SWAP1 POP JUMP JUMPDEST PUSH2 0x403 DUP2 PUSH2 0x3F1 JUMP JUMPDEST DUP2 EQ PUSH2 0x40D JUMPI PUSH0 PUSH0 REVERT JUMPDEST POP JUMP JUMPDEST PUSH0 DUP2 CALLDATALOAD SWAP1 POP PUSH2 0x41E DUP2 PUSH2 0x3FA JUMP JUMPDEST SWAP3 SWAP2 POP POP JUMP JUMPDEST PUSH0 PUSH0 PUSH0 PUSH0 PUSH1 0x80 DUP6 DUP8 SUB SLT ISZERO PUSH2 0x43C JUMPI PUSH2 0x43B PUSH2 0x2BD JUMP JUMPDEST JUMPDEST PUSH0 DUP6 ADD CALLDATALOAD PUSH8 0xFFFFFFFFFFFFFFFF DUP2 GT ISZERO PUSH2 0x459 JUMPI PUSH2 0x458 PUSH2 0x2C1 JUMP JUMPDEST JUMPDEST PUSH2 0x465 DUP8 DUP3 DUP9 ADD PUSH2 0x3C4 JUMP JUMPDEST SWAP5 POP POP PUSH1 0x20 PUSH2 0x476 DUP8 DUP3 DUP9 ADD PUSH2 0x410 JUMP JUMPDEST SWAP4 POP POP PUSH1 0x40 DUP6 ADD CALLDATALOAD PUSH8 0xFFFFFFFFFFFFFFFF DUP2 GT ISZERO PUSH2 0x497 JUMPI PUSH2 0x496 PUSH2 0x2C1 JUMP JUMPDEST JUMPDEST PUSH2 0x4A3 DUP8 DUP3 DUP9 ADD PUSH2 0x3C4 JUMP JUMPDEST SWAP3 POP POP PUSH1 0x60 DUP6 ADD CALLDATALOAD PUSH8 0xFFFFFFFFFFFFFFFF DUP2 GT ISZERO PUSH2 0x4C4 JUMPI PUSH2 0x4C3 PUSH2 0x2C1 JUMP JUMPDEST JUMPDEST PUSH2 0x4D0 DUP8 DUP3 DUP9 ADD PUSH2 0x3C4 JUMP JUMPDEST SWAP2 POP POP SWAP3 SWAP6 SWAP2 SWAP5 POP SWAP3 POP JUMP JUMPDEST PUSH32 0x4E487B7100000000000000000000000000000000000000000000000000000000 PUSH0 MSTORE PUSH1 0x22 PUSH1 0x4 MSTORE PUSH1 0x24 PUSH0 REVERT JUMPDEST PUSH0 PUSH1 0x2 DUP3 DIV SWAP1 POP PUSH1 0x1 DUP3 AND DUP1 PUSH2 0x520 JUMPI PUSH1 0x7F DUP3 AND SWAP2 POP JUMPDEST PUSH1 0x20 DUP3 LT DUP2 SUB PUSH2 0x533 JUMPI PUSH2 0x532 PUSH2 0x4DC JUMP JUMPDEST JUMPDEST POP SWAP2 SWAP1 POP JUMP JUMPDEST PUSH0 DUP2 SWAP1 POP DUP2 PUSH0 MSTORE PUSH1 0x20 PUSH0 KECCAK256 SWAP1 POP SWAP2 SWAP1 POP JUMP JUMPDEST PUSH0 PUSH1 0x20 PUSH1 0x1F DUP4 ADD DIV SWAP1 POP SWAP2 SWAP1 POP JUMP JUMPDEST PUSH0 DUP3 DUP3 SHL SWAP1 POP SWAP3 SWAP2 POP POP JUMP JUMPDEST PUSH0 PUSH1 0x8 DUP4 MUL PUSH2 0x595 PUSH32 0xFFFFFFFFFFFFFFFFFFFFFFFFFFFFFFFFFFFFFFFFFFFFFFFFFFFFFFFFFFFFFFFF DUP3 PUSH2 0x55A JUMP JUMPDEST PUSH2 0x59F DUP7 DUP4 PUSH2 0x55A JUMP JUMPDEST SWAP6 POP DUP1 NOT DUP5 AND SWAP4 POP DUP1 DUP7 AND DUP5 OR SWAP3 POP POP POP SWAP4 SWAP3 POP POP POP JUMP JUMPDEST PUSH0 DUP2 SWAP1 POP SWAP2 SWAP1 POP JUMP JUMPDEST PUSH0 DUP2 SWAP1 POP SWAP2 SWAP1 POP JUMP JUMPDEST PUSH0 PUSH2 0x5E3 PUSH2 0x5DE PUSH2 0x5D9 DUP5 PUSH2 0x5B7 JUMP JUMPDEST PUSH2 0x5C0 JUMP JUMPDEST PUSH2 0x5B7 JUMP JUMPDEST SWAP1 POP SWAP2 SWAP1 POP JUMP JUMPDEST PUSH0 DUP2 SWAP1 POP SWAP2 SWAP1 POP JUMP JUMPDEST PUSH2 0x5FC DUP4 PUSH2 0x5C9 JUMP JUMPDEST PUSH2 0x610 PUSH2 0x608 DUP3 PUSH2 0x5EA JUMP JUMPDEST DUP5 DUP5 SLOAD PUSH2 0x566 JUMP JUMPDEST DUP3 SSTORE POP POP POP POP JUMP JUMPDEST PUSH0 PUSH0 SWAP1 POP SWAP1 JUMP JUMPDEST PUSH2 0x627 PUSH2 0x618 JUMP JUMPDEST PUSH2 0x632 DUP2 DUP5 DUP5 PUSH2 0x5F3 JUMP JUMPDEST POP POP POP JUMP JUMPDEST JUMPDEST DUP2 DUP2 LT ISZERO PUSH2 0x655 JUMPI PUSH2 0x64A PUSH0 DUP3 PUSH2 0x61F JUMP JUMPDEST PUSH1 0x1 DUP2 ADD SWAP1 POP PUSH2 0x638 JUMP JUMPDEST POP POP JUMP JUMPDEST PUSH1 0x1F DUP3 GT ISZERO PUSH2 0x69A JUMPI PUSH2 0x66B DUP2 PUSH2 0x539 JUMP JUMPDEST PUSH2 0x674 DUP5 PUSH2 0x54B JUMP JUMPDEST DUP2 ADD PUSH1 0x20 DUP6 LT ISZERO PUSH2 0x683 JUMPI DUP2 SWAP1 POP JUMPDEST PUSH2 0x697 PUSH2 0x68F DUP6 PUSH2 0x54B JUMP JUMPDEST DUP4 ADD DUP3 PUSH2 0x637 JUMP JUMPDEST POP POP JUMPDEST POP POP POP JUMP JUMPDEST PUSH0 DUP3 DUP3 SHR SWAP1 POP SWAP3 SWAP2 POP POP JUMP JUMPDEST PUSH0 PUSH2 0x6BA PUSH0 NOT DUP5 PUSH1 0x8 MUL PUSH2 0x69F JUMP JUMPDEST NOT DUP1 DUP4 AND SWAP2 POP POP SWAP3 SWAP2 POP POP JUMP JUMPDEST PUSH0 PUSH2 0x6D2 DUP4 DUP4 PUSH2 0x6AB JUMP JUMPDEST SWAP2 POP DUP3 PUSH1 0x2 MUL DUP3 OR SWAP1 POP SWAP3 SWAP2 POP POP JUMP JUMPDEST PUSH2 0x6EB DUP3 PUSH2 0x20F JUMP JUMPDEST PUSH8 0xFFFFFFFFFFFFFFFF DUP2 GT ISZERO PUSH2 0x704 JUMPI PUSH2 0x703 PUSH2 0x2CD JUMP JUMPDEST JUMPDEST PUSH2 0x70E DUP3 SLOAD PUSH2 0x509 JUMP JUMPDEST PUSH2 0x719 DUP3 DUP3 DUP6 PUSH2 0x659 JUMP JUMPDEST PUSH0 PUSH1 0x20 SWAP1 POP PUSH1 0x1F DUP4 GT PUSH1 0x1 DUP2 EQ PUSH2 0x74A JUMPI PUSH0 DUP5 ISZERO PUSH2 0x738 JUMPI DUP3 DUP8 ADD MLOAD SWAP1 POP JUMPDEST PUSH2 0x742 DUP6 DUP3 PUSH2 0x6C7 JUMP JUMPDEST DUP7 SSTORE POP PUSH2 0x7A9 JUMP JUMPDEST PUSH1 0x1F NOT DUP5 AND PUSH2 0x758 DUP7 PUSH2 0x539 JUMP JUMPDEST PUSH0 JUMPDEST DUP3 DUP2 LT ISZERO PUSH2 0x77F JUMPI DUP5 DUP10 ADD MLOAD DUP3 SSTORE PUSH1 0x1 DUP3 ADD SWAP2 POP PUSH1 0x20 DUP6 ADD SWAP5 POP PUSH1 0x20 DUP2 ADD SWAP1 POP PUSH2 0x75A JUMP JUMPDEST DUP7 DUP4 LT ISZERO PUSH2 0x79C JUMPI DUP5 DUP10 ADD MLOAD PUSH2 0x798 PUSH1 0x1F DUP10 AND DUP3 PUSH2 0x6AB JUMP JUMPDEST DUP4 SSTORE POP JUMPDEST PUSH1 0x1 PUSH1 0x2 DUP9 MUL ADD DUP9 SSTORE POP POP POP JUMPDEST POP POP POP POP POP POP JUMP INVALID LOG2 PUSH5 0x6970667358 0x22 SLT KECCAK256 SWAP11 GASPRICE EXTCODECOPY 0x4B MSIZE SIGNEXTEND 0xCB 0xB4 DUP5 CALL 0xC PUSH14 0x82B1BC37ADF45CD3E94BF5AC63BA PREVRANDAO 0xA5 DUP13 SWAP3 0xA7 0xE9 PUSH5 0x736F6C6343 STOP ADDMOD 0x1F STOP CALLER "
		},
		"gasEstimates": {
			"creation": {
				"codeDepositCost": "404600",
				"executionCost": "441",
				"totalCost": "405041"
			},
			"external": {
				"getStudentDetail()": "infinite",
				"setStudentDetail(string,int256,string,string)": "infinite"
			}
		},
		"methodIdentifiers": {
			"getStudentDetail()": "294f2eee",
			"setStudentDetail(string,int256,string,string)": "962ccc8d"
		}
	},
	"abi": [
		{
			"inputs": [],
			"name": "getStudentDetail",
			"outputs": [
				{
					"internalType": "string",
					"name": "",
					"type": "string"
				},
				{
					"internalType": "string",
					"name": "",
					"type": "string"
				}
			],
			"stateMutability": "view",
			"type": "function"
		},
		{
			"inputs": [
				{
					"internalType": "string",
					"name": "_name",
					"type": "string"
				},
				{
					"internalType": "int256",
					"name": "_id",
					"type": "int256"
				},
				{
					"internalType": "string",
					"name": "_course",
					"type": "string"
				},
				{
					"internalType": "string",
					"name": "_duration",
					"type": "string"
				}
			],
			"name": "setStudentDetail",
			"outputs": [],
			"stateMutability": "nonpayable",
			"type": "function"
		}
	]
}