{
	"data": {
		"bytecode": {
			"linkReferences": {},
			"object": "6080604052348015600e575f5ffd5b50335f5f6101000a81548173ffffffffffffffffffffffffffffffffffffffff021916908373ffffffffffffffffffffffffffffffffffffffff1602179055506109a78061005b5f395ff3fe608060405234801561000f575f5ffd5b506004361061003f575f3560e01c8063b4a99a4e14610043578063b516149914610061578063e2552d871461007d575b5f5ffd5b61004b6100b0565b604051610058919061032e565b60405180910390f35b61007b600480360381019061007691906104fc565b6100d4565b005b610097600480360381019061009291906105ab565b610165565b6040516100a79493929190610654565b60405180910390f35b5f5f9054906101000a900473ffffffffffffffffffffffffffffffffffffffff1681565b604051806080016040528085815260200184815260200183815260200182151581525060015f8781526020019081526020015f205f820151815f01908161011b91906108a2565b50602082015181600101908161013191906108a2565b50604082015181600201556060820151816003015f6101000a81548160ff0219169083151502179055509050505050505050565b6060805f5f5f60015f8781526020019081526020015f206040518060800160405290815f82018054610196906106d2565b80601f01602080910402602001604051908101604052809291908181526020018280546101c2906106d2565b801561020d5780601f106101e45761010080835404028352916020019161020d565b820191905f5260205f20905b8154815290600101906020018083116101f057829003601f168201915b50505050508152602001600182018054610226906106d2565b80601f0160208091040260200160405190810160405280929190818152602001828054610252906106d2565b801561029d5780601f106102745761010080835404028352916020019161029d565b820191905f5260205f20905b81548152906001019060200180831161028057829003601f168201915b5050505050815260200160028201548152602001600382015f9054906101000a900460ff1615151515815250509050805f01518160200151826040015183606001519450945094509450509193509193565b5f73ffffffffffffffffffffffffffffffffffffffff82169050919050565b5f610318826102ef565b9050919050565b6103288161030e565b82525050565b5f6020820190506103415f83018461031f565b92915050565b5f604051905090565b5f5ffd5b5f5ffd5b5f819050919050565b61036a81610358565b8114610374575f5ffd5b50565b5f8135905061038581610361565b92915050565b5f5ffd5b5f5ffd5b5f601f19601f8301169050919050565b7f4e487b71000000000000000000000000000000000000000000000000000000005f52604160045260245ffd5b6103d982610393565b810181811067ffffffffffffffff821117156103f8576103f76103a3565b5b80604052505050565b5f61040a610347565b905061041682826103d0565b919050565b5f67ffffffffffffffff821115610435576104346103a3565b5b61043e82610393565b9050602081019050919050565b828183375f83830152505050565b5f61046b6104668461041b565b610401565b9050828152602081018484840111156104875761048661038f565b5b61049284828561044b565b509392505050565b5f82601f8301126104ae576104ad61038b565b5b81356104be848260208601610459565b91505092915050565b5f8115159050919050565b6104db816104c7565b81146104e5575f5ffd5b50565b5f813590506104f6816104d2565b92915050565b5f5f5f5f5f60a0868803121561051557610514610350565b5b5f61052288828901610377565b955050602086013567ffffffffffffffff81111561054357610542610354565b5b61054f8882890161049a565b945050604086013567ffffffffffffffff8111156105705761056f610354565b5b61057c8882890161049a565b935050606061058d88828901610377565b925050608061059e888289016104e8565b9150509295509295909350565b5f602082840312156105c0576105bf610350565b5b5f6105cd84828501610377565b91505092915050565b5f81519050919050565b5f82825260208201905092915050565b8281835e5f83830152505050565b5f610608826105d6565b61061281856105e0565b93506106228185602086016105f0565b61062b81610393565b840191505092915050565b61063f81610358565b82525050565b61064e816104c7565b82525050565b5f6080820190508181035f83015261066c81876105fe565b9050818103602083015261068081866105fe565b905061068f6040830185610636565b61069c6060830184610645565b95945050505050565b7f4e487b71000000000000000000000000000000000000000000000000000000005f52602260045260245ffd5b5f60028204905060018216806106e957607f821691505b6020821081036106fc576106fb6106a5565b5b50919050565b5f819050815f5260205f209050919050565b5f6020601f8301049050919050565b5f82821b905092915050565b5f6008830261075e7fffffffffffffffffffffffffffffffffffffffffffffffffffffffffffffffff82610723565b6107688683610723565b95508019841693508086168417925050509392505050565b5f819050919050565b5f6107a361079e61079984610358565b610780565b610358565b9050919050565b5f819050919050565b6107bc83610789565b6107d06107c8826107aa565b84845461072f565b825550505050565b5f5f905090565b6107e76107d8565b6107f28184846107b3565b505050565b5b818110156108155761080a5f826107df565b6001810190506107f8565b5050565b601f82111561085a5761082b81610702565b61083484610714565b81016020851015610843578190505b61085761084f85610714565b8301826107f7565b50505b505050565b5f82821c905092915050565b5f61087a5f198460080261085f565b1980831691505092915050565b5f610892838361086b565b9150826002028217905092915050565b6108ab826105d6565b67ffffffffffffffff8111156108c4576108c36103a3565b5b6108ce82546106d2565b6108d9828285610819565b5f60209050601f83116001811461090a575f84156108f8578287015190505b6109028582610887565b865550610969565b601f19841661091886610702565b5f5b8281101561093f5784890151825560018201915060208501945060208101905061091a565b8683101561095c5784890151610958601f89168261086b565b8355505b6001600288020188555050505b50505050505056fea264697066735822122039ee57c31799e92f8ebba2e7d83d92d562792304de5e8d599825c97c8c120bbd64736f6c634300081f0033",
			"opcodes": "PUSH1 0x80 PUSH1 0x40 MSTORE CALLVALUE DUP1 ISZERO PUSH1 0xE JUMPI PUSH0 PUSH0 REVERT JUMPDEST POP CALLER PUSH0 PUSH0 PUSH2 0x100 EXP DUP2 SLOAD DUP2 PUSH20 0xFFFFFFFFFFFFFFFFFFFFFFFFFFFFFFFFFFFFFFFF MUL NOT AND SWAP1 DUP4 PUSH20 0xFFFFFFFFFFFFFFFFFFFFFFFFFFFFFFFFFFFFFFFF AND MUL OR SWAP1 SSTORE POP PUSH2 0x9A7 DUP1 PUSH2 0x5B PUSH0 CODECOPY PUSH0 RETURN INVALID PUSH1 0x80 PUSH1 0x40 MSTORE CALLVALUE DUP1 ISZERO PUSH2 0xF JUMPI PUSH0 PUSH0 REVERT JUMPDEST POP PUSH1 0x4 CALLDATASIZE LT PUSH2 0x3F JUMPI PUSH0 CALLDATALOAD PUSH1 0xE0 SHR DUP1 PUSH4 0xB4A99A4E EQ PUSH2 0x43 JUMPI DUP1 PUSH4 0xB5161499 EQ PUSH2 0x61 JUMPI DUP1 PUSH4 0xE2552D87 EQ PUSH2 0x7D JUMPI JUMPDEST PUSH0 PUSH0 REVERT JUMPDEST PUSH2 0x4B PUSH2 0xB0 JUMP JUMPDEST PUSH1 0x40 MLOAD PUSH2 0x58 SWAP2 SWAP1 PUSH2 0x32E JUMP JUMPDEST PUSH1 0x40 MLOAD DUP1 SWAP2 SUB SWAP1 RETURN JUMPDEST PUSH2 0x7B PUSH1 0x4 DUP1 CALLDATASIZE SUB DUP2 ADD SWAP1 PUSH2 0x76 SWAP2 SWAP1 PUSH2 0x4FC JUMP JUMPDEST PUSH2 0xD4 JUMP JUMPDEST STOP JUMPDEST PUSH2 0x97 PUSH1 0x4 DUP1 CALLDATASIZE SUB DUP2 ADD SWAP1 PUSH2 0x92 SWAP2 SWAP1 PUSH2 0x5AB JUMP JUMPDEST PUSH2 0x165 JUMP JUMPDEST PUSH1 0x40 MLOAD PUSH2 0xA7 SWAP5 SWAP4 SWAP3 SWAP2 SWAP1 PUSH2 0x654 JUMP JUMPDEST PUSH1 0x40 MLOAD DUP1 SWAP2 SUB SWAP1 RETURN JUMPDEST PUSH0 PUSH0 SWAP1 SLOAD SWAP1 PUSH2 0x100 EXP SWAP1 DIV PUSH20 0xFFFFFFFFFFFFFFFFFFFFFFFFFFFFFFFFFFFFFFFF AND DUP2 JUMP JUMPDEST PUSH1 0x40 MLOAD DUP1 PUSH1 0x80 ADD PUSH1 0x40 MSTORE DUP1 DUP6 DUP2 MSTORE PUSH1 0x20 ADD DUP5 DUP2 MSTORE PUSH1 0x20 ADD DUP4 DUP2 MSTORE PUSH1 0x20 ADD DUP3 ISZERO ISZERO DUP2 MSTORE POP PUSH1 0x1 PUSH0 DUP8 DUP2 MSTORE PUSH1 0x20 ADD SWAP1 DUP2 MSTORE PUSH1 0x20 ADD PUSH0 KECCAK256 PUSH0 DUP3 ADD MLOAD DUP2 PUSH0 ADD SWAP1 DUP2 PUSH2 0x11B SWAP2 SWAP1 PUSH2 0x8A2 JUMP JUMPDEST POP PUSH1 0x20 DUP3 ADD MLOAD DUP2 PUSH1 0x1 ADD SWAP1 DUP2 PUSH2 0x131 SWAP2 SWAP1 PUSH2 0x8A2 JUMP JUMPDEST POP PUSH1 0x40 DUP3 ADD MLOAD DUP2 PUSH1 0x2 ADD SSTORE PUSH1 0x60 DUP3 ADD MLOAD DUP2 PUSH1 0x3 ADD PUSH0 PUSH2 0x100 EXP DUP2 SLOAD DUP2 PUSH1 0xFF MUL NOT AND SWAP1 DUP4 ISZERO ISZERO MUL OR SWAP1 SSTORE POP SWAP1 POP POP POP POP POP POP POP JUMP JUMPDEST PUSH1 0x60 DUP1 PUSH0 PUSH0 PUSH0 PUSH1 0x1 PUSH0 DUP8 DUP2 MSTORE PUSH1 0x20 ADD SWAP1 DUP2 MSTORE PUSH1 0x20 ADD PUSH0 KECCAK256 PUSH1 0x40 MLOAD DUP1 PUSH1 0x80 ADD PUSH1 0x40 MSTORE SWAP1 DUP2 PUSH0 DUP3 ADD DUP1 SLOAD PUSH2 0x196 SWAP1 PUSH2 0x6D2 JUMP JUMPDEST DUP1 PUSH1 0x1F ADD PUSH1 0x20 DUP1 SWAP2 DIV MUL PUSH1 0x20 ADD PUSH1 0x40 MLOAD SWAP1 DUP2 ADD PUSH1 0x40 MSTORE DUP1 SWAP3 SWAP2 SWAP1 DUP2 DUP2 MSTORE PUSH1 0x20 ADD DUP3 DUP1 SLOAD PUSH2 0x1C2 SWAP1 PUSH2 0x6D2 JUMP JUMPDEST DUP1 ISZERO PUSH2 0x20D JUMPI DUP1 PUSH1 0x1F LT PUSH2 0x1E4 JUMPI PUSH2 0x100 DUP1 DUP4 SLOAD DIV MUL DUP4 MSTORE SWAP2 PUSH1 0x20 ADD SWAP2 PUSH2 0x20D JUMP JUMPDEST DUP3 ADD SWAP2 SWAP1 PUSH0 MSTORE PUSH1 0x20 PUSH0 KECCAK256 SWAP1 JUMPDEST DUP2 SLOAD DUP2 MSTORE SWAP1 PUSH1 0x1 ADD SWAP1 PUSH1 0x20 ADD DUP1 DUP4 GT PUSH2 0x1F0 JUMPI DUP3 SWAP1 SUB PUSH1 0x1F AND DUP3 ADD SWAP2 JUMPDEST POP POP POP POP POP DUP2 MSTORE PUSH1 0x20 ADD PUSH1 0x1 DUP3 ADD DUP1 SLOAD PUSH2 0x226 SWAP1 PUSH2 0x6D2 JUMP JUMPDEST DUP1 PUSH1 0x1F ADD PUSH1 0x20 DUP1 SWAP2 DIV MUL PUSH1 0x20 ADD PUSH1 0x40 MLOAD SWAP1 DUP2 ADD PUSH1 0x40 MSTORE DUP1 SWAP3 SWAP2 SWAP1 DUP2 DUP2 MSTORE PUSH1 0x20 ADD DUP3 DUP1 SLOAD PUSH2 0x252 SWAP1 PUSH2 0x6D2 JUMP JUMPDEST DUP1 ISZERO PUSH2 0x29D JUMPI DUP1 PUSH1 0x1F LT PUSH2 0x274 JUMPI PUSH2 0x100 DUP1 DUP4 SLOAD DIV MUL DUP4 MSTORE SWAP2 PUSH1 0x20 ADD SWAP2 PUSH2 0x29D JUMP JUMPDEST DUP3 ADD SWAP2 SWAP1 PUSH0 MSTORE PUSH1 0x20 PUSH0 KECCAK256 SWAP1 JUMPDEST DUP2 SLOAD DUP2 MSTORE SWAP1 PUSH1 0x1 ADD SWAP1 PUSH1 0x20 ADD DUP1 DUP4 GT PUSH2 0x280 JUMPI DUP3 SWAP1 SUB PUSH1 0x1F AND DUP3 ADD SWAP2 JUMPDEST POP POP POP POP POP DUP2 MSTORE PUSH1 0x20 ADD PUSH1 0x2 DUP3 ADD SLOAD DUP2 MSTORE PUSH1 0x20 ADD PUSH1 0x3 DUP3 ADD PUSH0 SWAP1 SLOAD SWAP1 PUSH2 0x100 EXP SWAP1 DIV PUSH1 0xFF AND ISZERO ISZERO ISZERO ISZERO DUP2 MSTORE POP POP SWAP1 POP DUP1 PUSH0 ADD MLOAD DUP2 PUSH1 0x20 ADD MLOAD DUP3 PUSH1 0x40 ADD MLOAD DUP4 PUSH1 0x60 ADD MLOAD SWAP5 POP SWAP5 POP SWAP5 POP SWAP5 POP POP SWAP2 SWAP4 POP SWAP2 SWAP4 JUMP JUMPDEST PUSH0 PUSH20 0xFFFFFFFFFFFFFFFFFFFFFFFFFFFFFFFFFFFFFFFF DUP3 AND SWAP1 POP SWAP2 SWAP1 POP JUMP JUMPDEST PUSH0 PUSH2 0x318 DUP3 PUSH2 0x2EF JUMP JUMPDEST SWAP1 POP SWAP2 SWAP1 POP JUMP JUMPDEST PUSH2 0x328 DUP2 PUSH2 0x30E JUMP JUMPDEST DUP3 MSTORE POP POP JUMP JUMPDEST PUSH0 PUSH1 0x20 DUP3 ADD SWAP1 POP PUSH2 0x341 PUSH0 DUP4 ADD DUP5 PUSH2 0x31F JUMP JUMPDEST SWAP3 SWAP2 POP POP JUMP JUMPDEST PUSH0 PUSH1 0x40 MLOAD SWAP1 POP SWAP1 JUMP JUMPDEST PUSH0 PUSH0 REVERT JUMPDEST PUSH0 PUSH0 REVERT JUMPDEST PUSH0 DUP2 SWAP1 POP SWAP2 SWAP1 POP JUMP JUMPDEST PUSH2 0x36A DUP2 PUSH2 0x358 JUMP JUMPDEST DUP2 EQ PUSH2 0x374 JUMPI PUSH0 PUSH0 REVERT JUMPDEST POP JUMP JUMPDEST PUSH0 DUP2 CALLDATALOAD SWAP1 POP PUSH2 0x385 DUP2 PUSH2 0x361 JUMP JUMPDEST SWAP3 SWAP2 POP POP JUMP JUMPDEST PUSH0 PUSH0 REVERT JUMPDEST PUSH0 PUSH0 REVERT JUMPDEST PUSH0 PUSH1 0x1F NOT PUSH1 0x1F DUP4 ADD AND SWAP1 POP SWAP2 SWAP1 POP JUMP JUMPDEST PUSH32 0x4E487B7100000000000000000000000000000000000000000000000000000000 PUSH0 MSTORE PUSH1 0x41 PUSH1 0x4 MSTORE PUSH1 0x24 PUSH0 REVERT JUMPDEST PUSH2 0x3D9 DUP3 PUSH2 0x393 JUMP JUMPDEST DUP2 ADD DUP2 DUP2 LT PUSH8 0xFFFFFFFFFFFFFFFF DUP3 GT OR ISZERO PUSH2 0x3F8 JUMPI PUSH2 0x3F7 PUSH2 0x3A3 JUMP JUMPDEST JUMPDEST DUP1 PUSH1 0x40 MSTORE POP POP POP JUMP JUMPDEST PUSH0 PUSH2 0x40A PUSH2 0x347 JUMP JUMPDEST SWAP1 POP PUSH2 0x416 DUP3 DUP3 PUSH2 0x3D0 JUMP JUMPDEST SWAP2 SWAP1 POP JUMP JUMPDEST PUSH0 PUSH8 0xFFFFFFFFFFFFFFFF DUP3 GT ISZERO PUSH2 0x435 JUMPI PUSH2 0x434 PUSH2 0x3A3 JUMP JUMPDEST JUMPDEST PUSH2 0x43E DUP3 PUSH2 0x393 JUMP JUMPDEST SWAP1 POP PUSH1 0x20 DUP2 ADD SWAP1 POP SWAP2 SWAP1 POP JUMP JUMPDEST DUP3 DUP2 DUP4 CALLDATACOPY PUSH0 DUP4 DUP4 ADD MSTORE POP POP POP JUMP JUMPDEST PUSH0 PUSH2 0x46B PUSH2 0x466 DUP5 PUSH2 0x41B JUMP JUMPDEST PUSH2 0x401 JUMP JUMPDEST SWAP1 POP DUP3 DUP2 MSTORE PUSH1 0x20 DUP2 ADD DUP5 DUP5 DUP5 ADD GT ISZERO PUSH2 0x487 JUMPI PUSH2 0x486 PUSH2 0x38F JUMP JUMPDEST JUMPDEST PUSH2 0x492 DUP5 DUP3 DUP6 PUSH2 0x44B JUMP JUMPDEST POP SWAP4 SWAP3 POP POP POP JUMP JUMPDEST PUSH0 DUP3 PUSH1 0x1F DUP4 ADD SLT PUSH2 0x4AE JUMPI PUSH2 0x4AD PUSH2 0x38B JUMP JUMPDEST JUMPDEST DUP2 CALLDATALOAD PUSH2 0x4BE DUP5 DUP3 PUSH1 0x20 DUP7 ADD PUSH2 0x459 JUMP JUMPDEST SWAP2 POP POP SWAP3 SWAP2 POP POP JUMP JUMPDEST PUSH0 DUP2 ISZERO ISZERO SWAP1 POP SWAP2 SWAP1 POP JUMP JUMPDEST PUSH2 0x4DB DUP2 PUSH2 0x4C7 JUMP JUMPDEST DUP2 EQ PUSH2 0x4E5 JUMPI PUSH0 PUSH0 REVERT JUMPDEST POP JUMP JUMPDEST PUSH0 DUP2 CALLDATALOAD SWAP1 POP PUSH2 0x4F6 DUP2 PUSH2 0x4D2 JUMP JUMPDEST SWAP3 SWAP2 POP POP JUMP JUMPDEST PUSH0 PUSH0 PUSH0 PUSH0 PUSH0 PUSH1 0xA0 DUP7 DUP9 SUB SLT ISZERO PUSH2 0x515 JUMPI PUSH2 0x514 PUSH2 0x350 JUMP JUMPDEST JUMPDEST PUSH0 PUSH2 0x522 DUP9 DUP3 DUP10 ADD PUSH2 0x377 JUMP JUMPDEST SWAP6 POP POP PUSH1 0x20 DUP7 ADD CALLDATALOAD PUSH8 0xFFFFFFFFFFFFFFFF DUP2 GT ISZERO PUSH2 0x543 JUMPI PUSH2 0x542 PUSH2 0x354 JUMP JUMPDEST JUMPDEST PUSH2 0x54F DUP9 DUP3 DUP10 ADD PUSH2 0x49A JUMP JUMPDEST SWAP5 POP POP PUSH1 0x40 DUP7 ADD CALLDATALOAD PUSH8 0xFFFFFFFFFFFFFFFF DUP2 GT ISZERO PUSH2 0x570 JUMPI PUSH2 0x56F PUSH2 0x354 JUMP JUMPDEST JUMPDEST PUSH2 0x57C DUP9 DUP3 DUP10 ADD PUSH2 0x49A JUMP JUMPDEST SWAP4 POP POP PUSH1 0x60 PUSH2 0x58D DUP9 DUP3 DUP10 ADD PUSH2 0x377 JUMP JUMPDEST SWAP3 POP POP PUSH1 0x80 PUSH2 0x59E DUP9 DUP3 DUP10 ADD PUSH2 0x4E8 JUMP JUMPDEST SWAP2 POP POP SWAP3 SWAP6 POP SWAP3 SWAP6 SWAP1 SWAP4 POP JUMP JUMPDEST PUSH0 PUSH1 0x20 DUP3 DUP5 SUB SLT ISZERO PUSH2 0x5C0 JUMPI PUSH2 0x5BF PUSH2 0x350 JUMP JUMPDEST JUMPDEST PUSH0 PUSH2 0x5CD DUP5 DUP3 DUP6 ADD PUSH2 0x377 JUMP JUMPDEST SWAP2 POP POP SWAP3 SWAP2 POP POP JUMP JUMPDEST PUSH0 DUP2 MLOAD SWAP1 POP SWAP2 SWAP1 POP JUMP JUMPDEST PUSH0 DUP3 DUP3 MSTORE PUSH1 0x20 DUP3 ADD SWAP1 POP SWAP3 SWAP2 POP POP JUMP JUMPDEST DUP3 DUP2 DUP4 MCOPY PUSH0 DUP4 DUP4 ADD MSTORE POP POP POP JUMP JUMPDEST PUSH0 PUSH2 0x608 DUP3 PUSH2 0x5D6 JUMP JUMPDEST PUSH2 0x612 DUP2 DUP6 PUSH2 0x5E0 JUMP JUMPDEST SWAP4 POP PUSH2 0x622 DUP2 DUP6 PUSH1 0x20 DUP7 ADD PUSH2 0x5F0 JUMP JUMPDEST PUSH2 0x62B DUP2 PUSH2 0x393 JUMP JUMPDEST DUP5 ADD SWAP2 POP POP SWAP3 SWAP2 POP POP JUMP JUMPDEST PUSH2 0x63F DUP2 PUSH2 0x358 JUMP JUMPDEST DUP3 MSTORE POP POP JUMP JUMPDEST PUSH2 0x64E DUP2 PUSH2 0x4C7 JUMP JUMPDEST DUP3 MSTORE POP POP JUMP JUMPDEST PUSH0 PUSH1 0x80 DUP3 ADD SWAP1 POP DUP2 DUP2 SUB PUSH0 DUP4 ADD MSTORE PUSH2 0x66C DUP2 DUP8 PUSH2 0x5FE JUMP JUMPDEST SWAP1 POP DUP2 DUP2 SUB PUSH1 0x20 DUP4 ADD MSTORE PUSH2 0x680 DUP2 DUP7 PUSH2 0x5FE JUMP JUMPDEST SWAP1 POP PUSH2 0x68F PUSH1 0x40 DUP4 ADD DUP6 PUSH2 0x636 JUMP JUMPDEST PUSH2 0x69C PUSH1 0x60 DUP4 ADD DUP5 PUSH2 0x645 JUMP JUMPDEST SWAP6 SWAP5 POP POP POP POP POP JUMP JUMPDEST PUSH32 0x4E487B7100000000000000000000000000000000000000000000000000000000 PUSH0 MSTORE PUSH1 0x22 PUSH1 0x4 MSTORE PUSH1 0x24 PUSH0 REVERT JUMPDEST PUSH0 PUSH1 0x2 DUP3 DIV SWAP1 POP PUSH1 0x1 DUP3 AND DUP1 PUSH2 0x6E9 JUMPI PUSH1 0x7F DUP3 AND SWAP2 POP JUMPDEST PUSH1 0x20 DUP3 LT DUP2 SUB PUSH2 0x6FC JUMPI PUSH2 0x6FB PUSH2 0x6A5 JUMP JUMPDEST JUMPDEST POP SWAP2 SWAP1 POP JUMP JUMPDEST PUSH0 DUP2 SWAP1 POP DUP2 PUSH0 MSTORE PUSH1 0x20 PUSH0 KECCAK256 SWAP1 POP SWAP2 SWAP1 POP JUMP JUMPDEST PUSH0 PUSH1 0x20 PUSH1 0x1F DUP4 ADD DIV SWAP1 POP SWAP2 SWAP1 POP JUMP JUMPDEST PUSH0 DUP3 DUP3 SHL SWAP1 POP SWAP3 SWAP2 POP POP JUMP JUMPDEST PUSH0 PUSH1 0x8 DUP4 MUL PUSH2 0x75E PUSH32 0xFFFFFFFFFFFFFFFFFFFFFFFFFFFFFFFFFFFFFFFFFFFFFFFFFFFFFFFFFFFFFFFF DUP3 PUSH2 0x723 JUMP JUMPDEST PUSH2 0x768 DUP7 DUP4 PUSH2 0x723 JUMP JUMPDEST SWAP6 POP DUP1 NOT DUP5 AND SWAP4 POP DUP1 DUP7 AND DUP5 OR SWAP3 POP POP POP SWAP4 SWAP3 POP POP POP JUMP JUMPDEST PUSH0 DUP2 SWAP1 POP SWAP2 SWAP1 POP JUMP JUMPDEST PUSH0 PUSH2 0x7A3 PUSH2 0x79E PUSH2 0x799 DUP5 PUSH2 0x358 JUMP JUMPDEST PUSH2 0x780 JUMP JUMPDEST PUSH2 0x358 JUMP JUMPDEST SWAP1 POP SWAP2 SWAP1 POP JUMP JUMPDEST PUSH0 DUP2 SWAP1 POP SWAP2 SWAP1 POP JUMP JUMPDEST PUSH2 0x7BC DUP4 PUSH2 0x789 JUMP JUMPDEST PUSH2 0x7D0 PUSH2 0x7C8 DUP3 PUSH2 0x7AA JUMP JUMPDEST DUP5 DUP5 SLOAD PUSH2 0x72F JUMP JUMPDEST DUP3 SSTORE POP POP POP POP JUMP JUMPDEST PUSH0 PUSH0 SWAP1 POP SWAP1 JUMP JUMPDEST PUSH2 0x7E7 PUSH2 0x7D8 JUMP JUMPDEST PUSH2 0x7F2 DUP2 DUP5 DUP5 PUSH2 0x7B3 JUMP JUMPDEST POP POP POP JUMP JUMPDEST JUMPDEST DUP2 DUP2 LT ISZERO PUSH2 0x815 JUMPI PUSH2 0x80A PUSH0 DUP3 PUSH2 0x7DF JUMP JUMPDEST PUSH1 0x1 DUP2 ADD SWAP1 POP PUSH2 0x7F8 JUMP JUMPDEST POP POP JUMP JUMPDEST PUSH1 0x1F DUP3 GT ISZERO PUSH2 0x85A JUMPI PUSH2 0x82B DUP2 PUSH2 0x702 JUMP JUMPDEST PUSH2 0x834 DUP5 PUSH2 0x714 JUMP JUMPDEST DUP2 ADD PUSH1 0x20 DUP6 LT ISZERO PUSH2 0x843 JUMPI DUP2 SWAP1 POP JUMPDEST PUSH2 0x857 PUSH2 0x84F DUP6 PUSH2 0x714 JUMP JUMPDEST DUP4 ADD DUP3 PUSH2 0x7F7 JUMP JUMPDEST POP POP JUMPDEST POP POP POP JUMP JUMPDEST PUSH0 DUP3 DUP3 SHR SWAP1 POP SWAP3 SWAP2 POP POP JUMP JUMPDEST PUSH0 PUSH2 0x87A PUSH0 NOT DUP5 PUSH1 0x8 MUL PUSH2 0x85F JUMP JUMPDEST NOT DUP1 DUP4 AND SWAP2 POP POP SWAP3 SWAP2 POP POP JUMP JUMPDEST PUSH0 PUSH2 0x892 DUP4 DUP4 PUSH2 0x86B JUMP JUMPDEST SWAP2 POP DUP3 PUSH1 0x2 MUL DUP3 OR SWAP1 POP SWAP3 SWAP2 POP POP JUMP JUMPDEST PUSH2 0x8AB DUP3 PUSH2 0x5D6 JUMP JUMPDEST PUSH8 0xFFFFFFFFFFFFFFFF DUP2 GT ISZERO PUSH2 0x8C4 JUMPI PUSH2 0x8C3 PUSH2 0x3A3 JUMP JUMPDEST JUMPDEST PUSH2 0x8CE DUP3 SLOAD PUSH2 0x6D2 JUMP JUMPDEST PUSH2 0x8D9 DUP3 DUP3 DUP6 PUSH2 0x819 JUMP JUMPDEST PUSH0 PUSH1 0x20 SWAP1 POP PUSH1 0x1F DUP4 GT PUSH1 0x1 DUP2 EQ PUSH2 0x90A JUMPI PUSH0 DUP5 ISZERO PUSH2 0x8F8 JUMPI DUP3 DUP8 ADD MLOAD SWAP1 POP JUMPDEST PUSH2 0x902 DUP6 DUP3 PUSH2 0x887 JUMP JUMPDEST DUP7 SSTORE POP PUSH2 0x969 JUMP JUMPDEST PUSH1 0x1F NOT DUP5 AND PUSH2 0x918 DUP7 PUSH2 0x702 JUMP JUMPDEST PUSH0 JUMPDEST DUP3 DUP2 LT ISZERO PUSH2 0x93F JUMPI DUP5 DUP10 ADD MLOAD DUP3 SSTORE PUSH1 0x1 DUP3 ADD SWAP2 POP PUSH1 0x20 DUP6 ADD SWAP5 POP PUSH1 0x20 DUP2 ADD SWAP1 POP PUSH2 0x91A JUMP JUMPDEST DUP7 DUP4 LT ISZERO PUSH2 0x95C JUMPI DUP5 DUP10 ADD MLOAD PUSH2 0x958 PUSH1 0x1F DUP10 AND DUP3 PUSH2 0x86B JUMP JUMPDEST DUP4 SSTORE POP JUMPDEST PUSH1 0x1 PUSH1 0x2 DUP9 MUL ADD DUP9 SSTORE POP POP POP JUMPDEST POP POP POP POP POP POP JUMP INVALID LOG2 PUSH5 0x6970667358 0x22 SLT KECCAK256 CODECOPY RETURNCONTRACT 0x57 0xC3 OR SWAP10 0xE9 0x2F DUP15 0xBB LOG2 SWAPN 0xD8 RETURNDATASIZE SWAP3 0xD5 PUSH3 0x792304 0xDE MCOPY DUP14 MSIZE SWAP9 0x25 0xC9 PUSH29 0x8C120BBD64736F6C634300081F00330000000000000000000000000000 "
		},
		"gasEstimates": {
			"creation": {
				"codeDepositCost": "494200",
				"executionCost": "24792",
				"totalCost": "518992"
			},
			"external": {
				"Owner()": "2485",
				"getpat(uint256)": "infinite",
				"setpat(uint256,string,string,uint256,bool)": "infinite"
			}
		},
		"methodIdentifiers": {
			"Owner()": "b4a99a4e",
			"getpat(uint256)": "e2552d87",
			"setpat(uint256,string,string,uint256,bool)": "b5161499"
		}
	},
	"abi": [
		{
			"inputs": [],
			"stateMutability": "nonpayable",
			"type": "constructor"
		},
		{
			"inputs": [],
			"name": "Owner",
			"outputs": [
				{
					"internalType": "address",
					"name": "",
					"type": "address"
				}
			],
			"stateMutability": "view",
			"type": "function"
		},
		{
			"inputs": [
				{
					"internalType": "uint256",
					"name": "key",
					"type": "uint256"
				}
			],
			"name": "getpat",
			"outputs": [
				{
					"internalType": "string",
					"name": "",
					"type": "string"
				},
				{
					"internalType": "string",
					"name": "",
					"type": "string"
				},
				{
					"internalType": "uint256",
					"name": "",
					"type": "uint256"
				},
				{
					"internalType": "bool",
					"name": "",
					"type": "bool"
				}
			],
			"stateMutability": "view",
			"type": "function"
		},
		{
			"inputs": [
				{
					"internalType": "uint256",
					"name": "key",
					"type": "uint256"
				},
				{
					"internalType": "string",
					"name": "_name",
					"type": "string"
				},
				{
					"internalType": "string",
					"name": "_course",
					"type": "string"
				},
				{
					"internalType": "uint256",
					"name": "_phno",
					"type": "uint256"
				},
				{
					"internalType": "bool",
					"name": "_fee",
					"type": "bool"
				}
			],
			"name": "setpat",
			"outputs": [],
			"stateMutability": "nonpayable",
			"type": "function"
		}
	]
}