{
	"data": {
		"bytecode": {
			"linkReferences": {},
			"object": "6080604052348015600e575f5ffd5b506109008061001c5f395ff3fe608060405234801561000f575f5ffd5b5060043610610034575f3560e01c80633067001914610038578063f46748a414610054575b5f5ffd5b610052600480360381019061004d9190610455565b610087565b005b61006e60048036038101906100699190610504565b610117565b60405161007e94939291906105ad565b60405180910390f35b60405180608001604052808581526020018481526020018381526020018215158152505f5f8781526020019081526020015f205f820151815f0190816100cd91906107fb565b5060208201518160010190816100e391906107fb565b50604082015181600201556060820151816003015f6101000a81548160ff0219169083151502179055509050505050505050565b6060805f5f5f5f5f8781526020019081526020015f206040518060800160405290815f820180546101479061062b565b80601f01602080910402602001604051908101604052809291908181526020018280546101739061062b565b80156101be5780601f10610195576101008083540402835291602001916101be565b820191905f5260205f20905b8154815290600101906020018083116101a157829003601f168201915b505050505081526020016001820180546101d79061062b565b80601f01602080910402602001604051908101604052809291908181526020018280546102039061062b565b801561024e5780601f106102255761010080835404028352916020019161024e565b820191905f5260205f20905b81548152906001019060200180831161023157829003601f168201915b5050505050815260200160028201548152602001600382015f9054906101000a900460ff1615151515815250509050805f01518160200151826040015183606001519450945094509450509193509193565b5f604051905090565b5f5ffd5b5f5ffd5b5f819050919050565b6102c3816102b1565b81146102cd575f5ffd5b50565b5f813590506102de816102ba565b92915050565b5f5ffd5b5f5ffd5b5f601f19601f8301169050919050565b7f4e487b71000000000000000000000000000000000000000000000000000000005f52604160045260245ffd5b610332826102ec565b810181811067ffffffffffffffff82111715610351576103506102fc565b5b80604052505050565b5f6103636102a0565b905061036f8282610329565b919050565b5f67ffffffffffffffff82111561038e5761038d6102fc565b5b610397826102ec565b9050602081019050919050565b828183375f83830152505050565b5f6103c46103bf84610374565b61035a565b9050828152602081018484840111156103e0576103df6102e8565b5b6103eb8482856103a4565b509392505050565b5f82601f830112610407576104066102e4565b5b81356104178482602086016103b2565b91505092915050565b5f8115159050919050565b61043481610420565b811461043e575f5ffd5b50565b5f8135905061044f8161042b565b92915050565b5f5f5f5f5f60a0868803121561046e5761046d6102a9565b5b5f61047b888289016102d0565b955050602086013567ffffffffffffffff81111561049c5761049b6102ad565b5b6104a8888289016103f3565b945050604086013567ffffffffffffffff8111156104c9576104c86102ad565b5b6104d5888289016103f3565b93505060606104e6888289016102d0565b92505060806104f788828901610441565b9150509295509295909350565b5f60208284031215610519576105186102a9565b5b5f610526848285016102d0565b91505092915050565b5f81519050919050565b5f82825260208201905092915050565b8281835e5f83830152505050565b5f6105618261052f565b61056b8185610539565b935061057b818560208601610549565b610584816102ec565b840191505092915050565b610598816102b1565b82525050565b6105a781610420565b82525050565b5f6080820190508181035f8301526105c58187610557565b905081810360208301526105d98186610557565b90506105e8604083018561058f565b6105f5606083018461059e565b95945050505050565b7f4e487b71000000000000000000000000000000000000000000000000000000005f52602260045260245ffd5b5f600282049050600182168061064257607f821691505b602082108103610655576106546105fe565b5b50919050565b5f819050815f5260205f209050919050565b5f6020601f8301049050919050565b5f82821b905092915050565b5f600883026106b77fffffffffffffffffffffffffffffffffffffffffffffffffffffffffffffffff8261067c565b6106c1868361067c565b95508019841693508086168417925050509392505050565b5f819050919050565b5f6106fc6106f76106f2846102b1565b6106d9565b6102b1565b9050919050565b5f819050919050565b610715836106e2565b61072961072182610703565b848454610688565b825550505050565b5f5f905090565b610740610731565b61074b81848461070c565b505050565b5b8181101561076e576107635f82610738565b600181019050610751565b5050565b601f8211156107b3576107848161065b565b61078d8461066d565b8101602085101561079c578190505b6107b06107a88561066d565b830182610750565b50505b505050565b5f82821c905092915050565b5f6107d35f19846008026107b8565b1980831691505092915050565b5f6107eb83836107c4565b9150826002028217905092915050565b6108048261052f565b67ffffffffffffffff81111561081d5761081c6102fc565b5b610827825461062b565b610832828285610772565b5f60209050601f831160018114610863575f8415610851578287015190505b61085b85826107e0565b8655506108c2565b601f1984166108718661065b565b5f5b8281101561089857848901518255600182019150602085019450602081019050610873565b868310156108b557848901516108b1601f8916826107c4565b8355505b6001600288020188555050505b50505050505056fea2646970667358221220a97b63480ac66ec1ccb50a0d299909084a69d382c17af0c572f37edd8f18bcbd64736f6c634300081f0033",
			"opcodes": "PUSH1 0x80 PUSH1 0x40 MSTORE CALLVALUE DUP1 ISZERO PUSH1 0xE JUMPI PUSH0 PUSH0 REVERT JUMPDEST POP PUSH2 0x900 DUP1 PUSH2 0x1C PUSH0 CODECOPY PUSH0 RETURN INVALID PUSH1 0x80 PUSH1 0x40 MSTORE CALLVALUE DUP1 ISZERO PUSH2 0xF JUMPI PUSH0 PUSH0 REVERT JUMPDEST POP PUSH1 0x4 CALLDATASIZE LT PUSH2 0x34 JUMPI PUSH0 CALLDATALOAD PUSH1 0xE0 SHR DUP1 PUSH4 0x30670019 EQ PUSH2 0x38 JUMPI DUP1 PUSH4 0xF46748A4 EQ PUSH2 0x54 JUMPI JUMPDEST PUSH0 PUSH0 REVERT JUMPDEST PUSH2 0x52 PUSH1 0x4 DUP1 CALLDATASIZE SUB DUP2 ADD SWAP1 PUSH2 0x4D SWAP2 SWAP1 PUSH2 0x455 JUMP JUMPDEST PUSH2 0x87 JUMP JUMPDEST STOP JUMPDEST PUSH2 0x6E PUSH1 0x4 DUP1 CALLDATASIZE SUB DUP2 ADD SWAP1 PUSH2 0x69 SWAP2 SWAP1 PUSH2 0x504 JUMP JUMPDEST PUSH2 0x117 JUMP JUMPDEST PUSH1 0x40 MLOAD PUSH2 0x7E SWAP5 SWAP4 SWAP3 SWAP2 SWAP1 PUSH2 0x5AD JUMP JUMPDEST PUSH1 0x40 MLOAD DUP1 SWAP2 SUB SWAP1 RETURN JUMPDEST PUSH1 0x40 MLOAD DUP1 PUSH1 0x80 ADD PUSH1 0x40 MSTORE DUP1 DUP6 DUP2 MSTORE PUSH1 0x20 ADD DUP5 DUP2 MSTORE PUSH1 0x20 ADD DUP4 DUP2 MSTORE PUSH1 0x20 ADD DUP3 ISZERO ISZERO DUP2 MSTORE POP PUSH0 PUSH0 DUP8 DUP2 MSTORE PUSH1 0x20 ADD SWAP1 DUP2 MSTORE PUSH1 0x20 ADD PUSH0 KECCAK256 PUSH0 DUP3 ADD MLOAD DUP2 PUSH0 ADD SWAP1 DUP2 PUSH2 0xCD SWAP2 SWAP1 PUSH2 0x7FB JUMP JUMPDEST POP PUSH1 0x20 DUP3 ADD MLOAD DUP2 PUSH1 0x1 ADD SWAP1 DUP2 PUSH2 0xE3 SWAP2 SWAP1 PUSH2 0x7FB JUMP JUMPDEST POP PUSH1 0x40 DUP3 ADD MLOAD DUP2 PUSH1 0x2 ADD SSTORE PUSH1 0x60 DUP3 ADD MLOAD DUP2 PUSH1 0x3 ADD PUSH0 PUSH2 0x100 EXP DUP2 SLOAD DUP2 PUSH1 0xFF MUL NOT AND SWAP1 DUP4 ISZERO ISZERO MUL OR SWAP1 SSTORE POP SWAP1 POP POP POP POP POP POP POP JUMP JUMPDEST PUSH1 0x60 DUP1 PUSH0 PUSH0 PUSH0 PUSH0 PUSH0 DUP8 DUP2 MSTORE PUSH1 0x20 ADD SWAP1 DUP2 MSTORE PUSH1 0x20 ADD PUSH0 KECCAK256 PUSH1 0x40 MLOAD DUP1 PUSH1 0x80 ADD PUSH1 0x40 MSTORE SWAP1 DUP2 PUSH0 DUP3 ADD DUP1 SLOAD PUSH2 0x147 SWAP1 PUSH2 0x62B JUMP JUMPDEST DUP1 PUSH1 0x1F ADD PUSH1 0x20 DUP1 SWAP2 DIV MUL PUSH1 0x20 ADD PUSH1 0x40 MLOAD SWAP1 DUP2 ADD PUSH1 0x40 MSTORE DUP1 SWAP3 SWAP2 SWAP1 DUP2 DUP2 MSTORE PUSH1 0x20 ADD DUP3 DUP1 SLOAD PUSH2 0x173 SWAP1 PUSH2 0x62B JUMP JUMPDEST DUP1 ISZERO PUSH2 0x1BE JUMPI DUP1 PUSH1 0x1F LT PUSH2 0x195 JUMPI PUSH2 0x100 DUP1 DUP4 SLOAD DIV MUL DUP4 MSTORE SWAP2 PUSH1 0x20 ADD SWAP2 PUSH2 0x1BE JUMP JUMPDEST DUP3 ADD SWAP2 SWAP1 PUSH0 MSTORE PUSH1 0x20 PUSH0 KECCAK256 SWAP1 JUMPDEST DUP2 SLOAD DUP2 MSTORE SWAP1 PUSH1 0x1 ADD SWAP1 PUSH1 0x20 ADD DUP1 DUP4 GT PUSH2 0x1A1 JUMPI DUP3 SWAP1 SUB PUSH1 0x1F AND DUP3 ADD SWAP2 JUMPDEST POP POP POP POP POP DUP2 MSTORE PUSH1 0x20 ADD PUSH1 0x1 DUP3 ADD DUP1 SLOAD PUSH2 0x1D7 SWAP1 PUSH2 0x62B JUMP JUMPDEST DUP1 PUSH1 0x1F ADD PUSH1 0x20 DUP1 SWAP2 DIV MUL PUSH1 0x20 ADD PUSH1 0x40 MLOAD SWAP1 DUP2 ADD PUSH1 0x40 MSTORE DUP1 SWAP3 SWAP2 SWAP1 DUP2 DUP2 MSTORE PUSH1 0x20 ADD DUP3 DUP1 SLOAD PUSH2 0x203 SWAP1 PUSH2 0x62B JUMP JUMPDEST DUP1 ISZERO PUSH2 0x24E JUMPI DUP1 PUSH1 0x1F LT PUSH2 0x225 JUMPI PUSH2 0x100 DUP1 DUP4 SLOAD DIV MUL DUP4 MSTORE SWAP2 PUSH1 0x20 ADD SWAP2 PUSH2 0x24E JUMP JUMPDEST DUP3 ADD SWAP2 SWAP1 PUSH0 MSTORE PUSH1 0x20 PUSH0 KECCAK256 SWAP1 JUMPDEST DUP2 SLOAD DUP2 MSTORE SWAP1 PUSH1 0x1 ADD SWAP1 PUSH1 0x20 ADD DUP1 DUP4 GT PUSH2 0x231 JUMPI DUP3 SWAP1 SUB PUSH1 0x1F AND DUP3 ADD SWAP2 JUMPDEST POP POP POP POP POP DUP2 MSTORE PUSH1 0x20 ADD PUSH1 0x2 DUP3 ADD SLOAD DUP2 MSTORE PUSH1 0x20 ADD PUSH1 0x3 DUP3 ADD PUSH0 SWAP1 SLOAD SWAP1 PUSH2 0x100 EXP SWAP1 DIV PUSH1 0xFF AND ISZERO ISZERO ISZERO ISZERO DUP2 MSTORE POP POP SWAP1 POP DUP1 PUSH0 ADD MLOAD DUP2 PUSH1 0x20 ADD MLOAD DUP3 PUSH1 0x40 ADD MLOAD DUP4 PUSH1 0x60 ADD MLOAD SWAP5 POP SWAP5 POP SWAP5 POP SWAP5 POP POP SWAP2 SWAP4 POP SWAP2 SWAP4 JUMP JUMPDEST PUSH0 PUSH1 0x40 MLOAD SWAP1 POP SWAP1 JUMP JUMPDEST PUSH0 PUSH0 REVERT JUMPDEST PUSH0 PUSH0 REVERT JUMPDEST PUSH0 DUP2 SWAP1 POP SWAP2 SWAP1 POP JUMP JUMPDEST PUSH2 0x2C3 DUP2 PUSH2 0x2B1 JUMP JUMPDEST DUP2 EQ PUSH2 0x2CD JUMPI PUSH0 PUSH0 REVERT JUMPDEST POP JUMP JUMPDEST PUSH0 DUP2 CALLDATALOAD SWAP1 POP PUSH2 0x2DE DUP2 PUSH2 0x2BA JUMP JUMPDEST SWAP3 SWAP2 POP POP JUMP JUMPDEST PUSH0 PUSH0 REVERT JUMPDEST PUSH0 PUSH0 REVERT JUMPDEST PUSH0 PUSH1 0x1F NOT PUSH1 0x1F DUP4 ADD AND SWAP1 POP SWAP2 SWAP1 POP JUMP JUMPDEST PUSH32 0x4E487B7100000000000000000000000000000000000000000000000000000000 PUSH0 MSTORE PUSH1 0x41 PUSH1 0x4 MSTORE PUSH1 0x24 PUSH0 REVERT JUMPDEST PUSH2 0x332 DUP3 PUSH2 0x2EC JUMP JUMPDEST DUP2 ADD DUP2 DUP2 LT PUSH8 0xFFFFFFFFFFFFFFFF DUP3 GT OR ISZERO PUSH2 0x351 JUMPI PUSH2 0x350 PUSH2 0x2FC JUMP JUMPDEST JUMPDEST DUP1 PUSH1 0x40 MSTORE POP POP POP JUMP JUMPDEST PUSH0 PUSH2 0x363 PUSH2 0x2A0 JUMP JUMPDEST SWAP1 POP PUSH2 0x36F DUP3 DUP3 PUSH2 0x329 JUMP JUMPDEST SWAP2 SWAP1 POP JUMP JUMPDEST PUSH0 PUSH8 0xFFFFFFFFFFFFFFFF DUP3 GT ISZERO PUSH2 0x38E JUMPI PUSH2 0x38D PUSH2 0x2FC JUMP JUMPDEST JUMPDEST PUSH2 0x397 DUP3 PUSH2 0x2EC JUMP JUMPDEST SWAP1 POP PUSH1 0x20 DUP2 ADD SWAP1 POP SWAP2 SWAP1 POP JUMP JUMPDEST DUP3 DUP2 DUP4 CALLDATACOPY PUSH0 DUP4 DUP4 ADD MSTORE POP POP POP JUMP JUMPDEST PUSH0 PUSH2 0x3C4 PUSH2 0x3BF DUP5 PUSH2 0x374 JUMP JUMPDEST PUSH2 0x35A JUMP JUMPDEST SWAP1 POP DUP3 DUP2 MSTORE PUSH1 0x20 DUP2 ADD DUP5 DUP5 DUP5 ADD GT ISZERO PUSH2 0x3E0 JUMPI PUSH2 0x3DF PUSH2 0x2E8 JUMP JUMPDEST JUMPDEST PUSH2 0x3EB DUP5 DUP3 DUP6 PUSH2 0x3A4 JUMP JUMPDEST POP SWAP4 SWAP3 POP POP POP JUMP JUMPDEST PUSH0 DUP3 PUSH1 0x1F DUP4 ADD SLT PUSH2 0x407 JUMPI PUSH2 0x406 PUSH2 0x2E4 JUMP JUMPDEST JUMPDEST DUP2 CALLDATALOAD PUSH2 0x417 DUP5 DUP3 PUSH1 0x20 DUP7 ADD PUSH2 0x3B2 JUMP JUMPDEST SWAP2 POP POP SWAP3 SWAP2 POP POP JUMP JUMPDEST PUSH0 DUP2 ISZERO ISZERO SWAP1 POP SWAP2 SWAP1 POP JUMP JUMPDEST PUSH2 0x434 DUP2 PUSH2 0x420 JUMP JUMPDEST DUP2 EQ PUSH2 0x43E JUMPI PUSH0 PUSH0 REVERT JUMPDEST POP JUMP JUMPDEST PUSH0 DUP2 CALLDATALOAD SWAP1 POP PUSH2 0x44F DUP2 PUSH2 0x42B JUMP JUMPDEST SWAP3 SWAP2 POP POP JUMP JUMPDEST PUSH0 PUSH0 PUSH0 PUSH0 PUSH0 PUSH1 0xA0 DUP7 DUP9 SUB SLT ISZERO PUSH2 0x46E JUMPI PUSH2 0x46D PUSH2 0x2A9 JUMP JUMPDEST JUMPDEST PUSH0 PUSH2 0x47B DUP9 DUP3 DUP10 ADD PUSH2 0x2D0 JUMP JUMPDEST SWAP6 POP POP PUSH1 0x20 DUP7 ADD CALLDATALOAD PUSH8 0xFFFFFFFFFFFFFFFF DUP2 GT ISZERO PUSH2 0x49C JUMPI PUSH2 0x49B PUSH2 0x2AD JUMP JUMPDEST JUMPDEST PUSH2 0x4A8 DUP9 DUP3 DUP10 ADD PUSH2 0x3F3 JUMP JUMPDEST SWAP5 POP POP PUSH1 0x40 DUP7 ADD CALLDATALOAD PUSH8 0xFFFFFFFFFFFFFFFF DUP2 GT ISZERO PUSH2 0x4C9 JUMPI PUSH2 0x4C8 PUSH2 0x2AD JUMP JUMPDEST JUMPDEST PUSH2 0x4D5 DUP9 DUP3 DUP10 ADD PUSH2 0x3F3 JUMP JUMPDEST SWAP4 POP POP PUSH1 0x60 PUSH2 0x4E6 DUP9 DUP3 DUP10 ADD PUSH2 0x2D0 JUMP JUMPDEST SWAP3 POP POP PUSH1 0x80 PUSH2 0x4F7 DUP9 DUP3 DUP10 ADD PUSH2 0x441 JUMP JUMPDEST SWAP2 POP POP SWAP3 SWAP6 POP SWAP3 SWAP6 SWAP1 SWAP4 POP JUMP JUMPDEST PUSH0 PUSH1 0x20 DUP3 DUP5 SUB SLT ISZERO PUSH2 0x519 JUMPI PUSH2 0x518 PUSH2 0x2A9 JUMP JUMPDEST JUMPDEST PUSH0 PUSH2 0x526 DUP5 DUP3 DUP6 ADD PUSH2 0x2D0 JUMP JUMPDEST SWAP2 POP POP SWAP3 SWAP2 POP POP JUMP JUMPDEST PUSH0 DUP2 MLOAD SWAP1 POP SWAP2 SWAP1 POP JUMP JUMPDEST PUSH0 DUP3 DUP3 MSTORE PUSH1 0x20 DUP3 ADD SWAP1 POP SWAP3 SWAP2 POP POP JUMP JUMPDEST DUP3 DUP2 DUP4 MCOPY PUSH0 DUP4 DUP4 ADD MSTORE POP POP POP JUMP JUMPDEST PUSH0 PUSH2 0x561 DUP3 PUSH2 0x52F JUMP JUMPDEST PUSH2 0x56B DUP2 DUP6 PUSH2 0x539 JUMP JUMPDEST SWAP4 POP PUSH2 0x57B DUP2 DUP6 PUSH1 0x20 DUP7 ADD PUSH2 0x549 JUMP JUMPDEST PUSH2 0x584 DUP2 PUSH2 0x2EC JUMP JUMPDEST DUP5 ADD SWAP2 POP POP SWAP3 SWAP2 POP POP JUMP JUMPDEST PUSH2 0x598 DUP2 PUSH2 0x2B1 JUMP JUMPDEST DUP3 MSTORE POP POP JUMP JUMPDEST PUSH2 0x5A7 DUP2 PUSH2 0x420 JUMP JUMPDEST DUP3 MSTORE POP POP JUMP JUMPDEST PUSH0 PUSH1 0x80 DUP3 ADD SWAP1 POP DUP2 DUP2 SUB PUSH0 DUP4 ADD MSTORE PUSH2 0x5C5 DUP2 DUP8 PUSH2 0x557 JUMP JUMPDEST SWAP1 POP DUP2 DUP2 SUB PUSH1 0x20 DUP4 ADD MSTORE PUSH2 0x5D9 DUP2 DUP7 PUSH2 0x557 JUMP JUMPDEST SWAP1 POP PUSH2 0x5E8 PUSH1 0x40 DUP4 ADD DUP6 PUSH2 0x58F JUMP JUMPDEST PUSH2 0x5F5 PUSH1 0x60 DUP4 ADD DUP5 PUSH2 0x59E JUMP JUMPDEST SWAP6 SWAP5 POP POP POP POP POP JUMP JUMPDEST PUSH32 0x4E487B7100000000000000000000000000000000000000000000000000000000 PUSH0 MSTORE PUSH1 0x22 PUSH1 0x4 MSTORE PUSH1 0x24 PUSH0 REVERT JUMPDEST PUSH0 PUSH1 0x2 DUP3 DIV SWAP1 POP PUSH1 0x1 DUP3 AND DUP1 PUSH2 0x642 JUMPI PUSH1 0x7F DUP3 AND SWAP2 POP JUMPDEST PUSH1 0x20 DUP3 LT DUP2 SUB PUSH2 0x655 JUMPI PUSH2 0x654 PUSH2 0x5FE JUMP JUMPDEST JUMPDEST POP SWAP2 SWAP1 POP JUMP JUMPDEST PUSH0 DUP2 SWAP1 POP DUP2 PUSH0 MSTORE PUSH1 0x20 PUSH0 KECCAK256 SWAP1 POP SWAP2 SWAP1 POP JUMP JUMPDEST PUSH0 PUSH1 0x20 PUSH1 0x1F DUP4 ADD DIV SWAP1 POP SWAP2 SWAP1 POP JUMP JUMPDEST PUSH0 DUP3 DUP3 SHL SWAP1 POP SWAP3 SWAP2 POP POP JUMP JUMPDEST PUSH0 PUSH1 0x8 DUP4 MUL PUSH2 0x6B7 PUSH32 0xFFFFFFFFFFFFFFFFFFFFFFFFFFFFFFFFFFFFFFFFFFFFFFFFFFFFFFFFFFFFFFFF DUP3 PUSH2 0x67C JUMP JUMPDEST PUSH2 0x6C1 DUP7 DUP4 PUSH2 0x67C JUMP JUMPDEST SWAP6 POP DUP1 NOT DUP5 AND SWAP4 POP DUP1 DUP7 AND DUP5 OR SWAP3 POP POP POP SWAP4 SWAP3 POP POP POP JUMP JUMPDEST PUSH0 DUP2 SWAP1 POP SWAP2 SWAP1 POP JUMP JUMPDEST PUSH0 PUSH2 0x6FC PUSH2 0x6F7 PUSH2 0x6F2 DUP5 PUSH2 0x2B1 JUMP JUMPDEST PUSH2 0x6D9 JUMP JUMPDEST PUSH2 0x2B1 JUMP JUMPDEST SWAP1 POP SWAP2 SWAP1 POP JUMP JUMPDEST PUSH0 DUP2 SWAP1 POP SWAP2 SWAP1 POP JUMP JUMPDEST PUSH2 0x715 DUP4 PUSH2 0x6E2 JUMP JUMPDEST PUSH2 0x729 PUSH2 0x721 DUP3 PUSH2 0x703 JUMP JUMPDEST DUP5 DUP5 SLOAD PUSH2 0x688 JUMP JUMPDEST DUP3 SSTORE POP POP POP POP JUMP JUMPDEST PUSH0 PUSH0 SWAP1 POP SWAP1 JUMP JUMPDEST PUSH2 0x740 PUSH2 0x731 JUMP JUMPDEST PUSH2 0x74B DUP2 DUP5 DUP5 PUSH2 0x70C JUMP JUMPDEST POP POP POP JUMP JUMPDEST JUMPDEST DUP2 DUP2 LT ISZERO PUSH2 0x76E JUMPI PUSH2 0x763 PUSH0 DUP3 PUSH2 0x738 JUMP JUMPDEST PUSH1 0x1 DUP2 ADD SWAP1 POP PUSH2 0x751 JUMP JUMPDEST POP POP JUMP JUMPDEST PUSH1 0x1F DUP3 GT ISZERO PUSH2 0x7B3 JUMPI PUSH2 0x784 DUP2 PUSH2 0x65B JUMP JUMPDEST PUSH2 0x78D DUP5 PUSH2 0x66D JUMP JUMPDEST DUP2 ADD PUSH1 0x20 DUP6 LT ISZERO PUSH2 0x79C JUMPI DUP2 SWAP1 POP JUMPDEST PUSH2 0x7B0 PUSH2 0x7A8 DUP6 PUSH2 0x66D JUMP JUMPDEST DUP4 ADD DUP3 PUSH2 0x750 JUMP JUMPDEST POP POP JUMPDEST POP POP POP JUMP JUMPDEST PUSH0 DUP3 DUP3 SHR SWAP1 POP SWAP3 SWAP2 POP POP JUMP JUMPDEST PUSH0 PUSH2 0x7D3 PUSH0 NOT DUP5 PUSH1 0x8 MUL PUSH2 0x7B8 JUMP JUMPDEST NOT DUP1 DUP4 AND SWAP2 POP POP SWAP3 SWAP2 POP POP JUMP JUMPDEST PUSH0 PUSH2 0x7EB DUP4 DUP4 PUSH2 0x7C4 JUMP JUMPDEST SWAP2 POP DUP3 PUSH1 0x2 MUL DUP3 OR SWAP1 POP SWAP3 SWAP2 POP POP JUMP JUMPDEST PUSH2 0x804 DUP3 PUSH2 0x52F JUMP JUMPDEST PUSH8 0xFFFFFFFFFFFFFFFF DUP2 GT ISZERO PUSH2 0x81D JUMPI PUSH2 0x81C PUSH2 0x2FC JUMP JUMPDEST JUMPDEST PUSH2 0x827 DUP3 SLOAD PUSH2 0x62B JUMP JUMPDEST PUSH2 0x832 DUP3 DUP3 DUP6 PUSH2 0x772 JUMP JUMPDEST PUSH0 PUSH1 0x20 SWAP1 POP PUSH1 0x1F DUP4 GT PUSH1 0x1 DUP2 EQ PUSH2 0x863 JUMPI PUSH0 DUP5 ISZERO PUSH2 0x851 JUMPI DUP3 DUP8 ADD MLOAD SWAP1 POP JUMPDEST PUSH2 0x85B DUP6 DUP3 PUSH2 0x7E0 JUMP JUMPDEST DUP7 SSTORE POP PUSH2 0x8C2 JUMP JUMPDEST PUSH1 0x1F NOT DUP5 AND PUSH2 0x871 DUP7 PUSH2 0x65B JUMP JUMPDEST PUSH0 JUMPDEST DUP3 DUP2 LT ISZERO PUSH2 0x898 JUMPI DUP5 DUP10 ADD MLOAD DUP3 SSTORE PUSH1 0x1 DUP3 ADD SWAP2 POP PUSH1 0x20 DUP6 ADD SWAP5 POP PUSH1 0x20 DUP2 ADD SWAP1 POP PUSH2 0x873 JUMP JUMPDEST DUP7 DUP4 LT ISZERO PUSH2 0x8B5 JUMPI DUP5 DUP10 ADD MLOAD PUSH2 0x8B1 PUSH1 0x1F DUP10 AND DUP3 PUSH2 0x7C4 JUMP JUMPDEST DUP4 SSTORE POP JUMPDEST PUSH1 0x1 PUSH1 0x2 DUP9 MUL ADD DUP9 SSTORE POP POP POP JUMPDEST POP POP POP POP POP POP JUMP INVALID LOG2 PUSH5 0x6970667358 0x22 SLT KECCAK256 0xA9 PUSH28 0x63480AC66EC1CCB50A0D299909084A69D382C17AF0C572F37EDD8F18 0xBC 0xBD PUSH5 0x736F6C6343 STOP ADDMOD 0x1F STOP CALLER "
		},
		"gasEstimates": {
			"creation": {
				"codeDepositCost": "460800",
				"executionCost": "491",
				"totalCost": "461291"
			},
			"external": {
				"AddMem(uint256,string,string,uint256,bool)": "infinite",
				"getMem(uint256)": "infinite"
			}
		},
		"methodIdentifiers": {
			"AddMem(uint256,string,string,uint256,bool)": "30670019",
			"getMem(uint256)": "f46748a4"
		}
	},
	"abi": [
		{
			"inputs": [
				{
					"internalType": "uint256",
					"name": "key",
					"type": "uint256"
				},
				{
					"internalType": "string",
					"name": "_name",
					"type": "string"
				},
				{
					"internalType": "string",
					"name": "_course",
					"type": "string"
				},
				{
					"internalType": "uint256",
					"name": "_Phno",
					"type": "uint256"
				},
				{
					"internalType": "bool",
					"name": "_fee",
					"type": "bool"
				}
			],
			"name": "AddMem",
			"outputs": [],
			"stateMutability": "nonpayable",
			"type": "function"
		},
		{
			"inputs": [
				{
					"internalType": "uint256",
					"name": "key",
					"type": "uint256"
				}
			],
			"name": "getMem",
			"outputs": [
				{
					"internalType": "string",
					"name": "",
					"type": "string"
				},
				{
					"internalType": "string",
					"name": "",
					"type": "string"
				},
				{
					"internalType": "uint256",
					"name": "",
					"type": "uint256"
				},
				{
					"internalType": "bool",
					"name": "",
					"type": "bool"
				}
			],
			"stateMutability": "view",
			"type": "function"
		}
	]
}