{
	"data": {
		"bytecode": {
			"linkReferences": {},
			"object": "6080604052348015600e575f5ffd5b506107da8061001c5f395ff3fe608060405234801561000f575f5ffd5b506004361061004a575f3560e01c8063295795e21461004e5780633e116de51461006a57806365ac23201461009a578063be1c766b146100b8575b5f5ffd5b610068600480360381019061006391906102fb565b6100d6565b005b610084600480360381019061007f91906102fb565b6100e8565b604051610091919061035c565b60405180910390f35b6100a261010f565b6040516100af91906103d5565b60405180910390f35b6100c061019a565b6040516100cd919061040d565b60405180910390f35b805f90816100e49190610623565b5050565b5f81805190602001205f6040516100ff919061078e565b6040518091039020149050919050565b5f805461011b90610453565b80601f016020809104026020016040519081016040528092919081815260200182805461014790610453565b80156101925780601f1061016957610100808354040283529160200191610192565b820191905f5260205f20905b81548152906001019060200180831161017557829003601f168201915b505050505081565b5f5f80546101a790610453565b9050905090565b5f604051905090565b5f5ffd5b5f5ffd5b5f5ffd5b5f5ffd5b5f601f19601f8301169050919050565b7f4e487b71000000000000000000000000000000000000000000000000000000005f52604160045260245ffd5b61020d826101c7565b810181811067ffffffffffffffff8211171561022c5761022b6101d7565b5b80604052505050565b5f61023e6101ae565b905061024a8282610204565b919050565b5f67ffffffffffffffff821115610269576102686101d7565b5b610272826101c7565b9050602081019050919050565b828183375f83830152505050565b5f61029f61029a8461024f565b610235565b9050828152602081018484840111156102bb576102ba6101c3565b5b6102c684828561027f565b509392505050565b5f82601f8301126102e2576102e16101bf565b5b81356102f284826020860161028d565b91505092915050565b5f602082840312156103105761030f6101b7565b5b5f82013567ffffffffffffffff81111561032d5761032c6101bb565b5b610339848285016102ce565b91505092915050565b5f8115159050919050565b61035681610342565b82525050565b5f60208201905061036f5f83018461034d565b92915050565b5f81519050919050565b5f82825260208201905092915050565b8281835e5f83830152505050565b5f6103a782610375565b6103b1818561037f565b93506103c181856020860161038f565b6103ca816101c7565b840191505092915050565b5f6020820190508181035f8301526103ed818461039d565b905092915050565b5f819050919050565b610407816103f5565b82525050565b5f6020820190506104205f8301846103fe565b92915050565b7f4e487b71000000000000000000000000000000000000000000000000000000005f52602260045260245ffd5b5f600282049050600182168061046a57607f821691505b60208210810361047d5761047c610426565b5b50919050565b5f819050815f5260205f209050919050565b5f6020601f8301049050919050565b5f82821b905092915050565b5f600883026104df7fffffffffffffffffffffffffffffffffffffffffffffffffffffffffffffffff826104a4565b6104e986836104a4565b95508019841693508086168417925050509392505050565b5f819050919050565b5f61052461051f61051a846103f5565b610501565b6103f5565b9050919050565b5f819050919050565b61053d8361050a565b6105516105498261052b565b8484546104b0565b825550505050565b5f5f905090565b610568610559565b610573818484610534565b505050565b5b818110156105965761058b5f82610560565b600181019050610579565b5050565b601f8211156105db576105ac81610483565b6105b584610495565b810160208510156105c4578190505b6105d86105d085610495565b830182610578565b50505b505050565b5f82821c905092915050565b5f6105fb5f19846008026105e0565b1980831691505092915050565b5f61061383836105ec565b9150826002028217905092915050565b61062c82610375565b67ffffffffffffffff811115610645576106446101d7565b5b61064f8254610453565b61065a82828561059a565b5f60209050601f83116001811461068b575f8415610679578287015190505b6106838582610608565b8655506106ea565b601f19841661069986610483565b5f5b828110156106c05784890151825560018201915060208501945060208101905061069b565b868310156106dd57848901516106d9601f8916826105ec565b8355505b6001600288020188555050505b505050505050565b5f81905092915050565b5f819050815f5260205f209050919050565b5f815461071a81610453565b61072481866106f2565b9450600182165f811461073e576001811461075357610785565b60ff1983168652811515820286019350610785565b61075c856106fc565b5f5b8381101561077d5781548189015260018201915060208101905061075e565b838801955050505b50505092915050565b5f610799828461070e565b91508190509291505056fea264697066735822122050ce002f25dc46f6bc21dfce3b6db493837380d6b641b4dbdf5aee5eb9d232d964736f6c634300081f0033",
			"opcodes": "PUSH1 0x80 PUSH1 0x40 MSTORE CALLVALUE DUP1 ISZERO PUSH1 0xE JUMPI PUSH0 PUSH0 REVERT JUMPDEST POP PUSH2 0x7DA DUP1 PUSH2 0x1C PUSH0 CODECOPY PUSH0 RETURN INVALID PUSH1 0x80 PUSH1 0x40 MSTORE CALLVALUE DUP1 ISZERO PUSH2 0xF JUMPI PUSH0 PUSH0 REVERT JUMPDEST POP PUSH1 0x4 CALLDATASIZE LT PUSH2 0x4A JUMPI PUSH0 CALLDATALOAD PUSH1 0xE0 SHR DUP1 PUSH4 0x295795E2 EQ PUSH2 0x4E JUMPI DUP1 PUSH4 0x3E116DE5 EQ PUSH2 0x6A JUMPI DUP1 PUSH4 0x65AC2320 EQ PUSH2 0x9A JUMPI DUP1 PUSH4 0xBE1C766B EQ PUSH2 0xB8 JUMPI JUMPDEST PUSH0 PUSH0 REVERT JUMPDEST PUSH2 0x68 PUSH1 0x4 DUP1 CALLDATASIZE SUB DUP2 ADD SWAP1 PUSH2 0x63 SWAP2 SWAP1 PUSH2 0x2FB JUMP JUMPDEST PUSH2 0xD6 JUMP JUMPDEST STOP JUMPDEST PUSH2 0x84 PUSH1 0x4 DUP1 CALLDATASIZE SUB DUP2 ADD SWAP1 PUSH2 0x7F SWAP2 SWAP1 PUSH2 0x2FB JUMP JUMPDEST PUSH2 0xE8 JUMP JUMPDEST PUSH1 0x40 MLOAD PUSH2 0x91 SWAP2 SWAP1 PUSH2 0x35C JUMP JUMPDEST PUSH1 0x40 MLOAD DUP1 SWAP2 SUB SWAP1 RETURN JUMPDEST PUSH2 0xA2 PUSH2 0x10F JUMP JUMPDEST PUSH1 0x40 MLOAD PUSH2 0xAF SWAP2 SWAP1 PUSH2 0x3D5 JUMP JUMPDEST PUSH1 0x40 MLOAD DUP1 SWAP2 SUB SWAP1 RETURN JUMPDEST PUSH2 0xC0 PUSH2 0x19A JUMP JUMPDEST PUSH1 0x40 MLOAD PUSH2 0xCD SWAP2 SWAP1 PUSH2 0x40D JUMP JUMPDEST PUSH1 0x40 MLOAD DUP1 SWAP2 SUB SWAP1 RETURN JUMPDEST DUP1 PUSH0 SWAP1 DUP2 PUSH2 0xE4 SWAP2 SWAP1 PUSH2 0x623 JUMP JUMPDEST POP POP JUMP JUMPDEST PUSH0 DUP2 DUP1 MLOAD SWAP1 PUSH1 0x20 ADD KECCAK256 PUSH0 PUSH1 0x40 MLOAD PUSH2 0xFF SWAP2 SWAP1 PUSH2 0x78E JUMP JUMPDEST PUSH1 0x40 MLOAD DUP1 SWAP2 SUB SWAP1 KECCAK256 EQ SWAP1 POP SWAP2 SWAP1 POP JUMP JUMPDEST PUSH0 DUP1 SLOAD PUSH2 0x11B SWAP1 PUSH2 0x453 JUMP JUMPDEST DUP1 PUSH1 0x1F ADD PUSH1 0x20 DUP1 SWAP2 DIV MUL PUSH1 0x20 ADD PUSH1 0x40 MLOAD SWAP1 DUP2 ADD PUSH1 0x40 MSTORE DUP1 SWAP3 SWAP2 SWAP1 DUP2 DUP2 MSTORE PUSH1 0x20 ADD DUP3 DUP1 SLOAD PUSH2 0x147 SWAP1 PUSH2 0x453 JUMP JUMPDEST DUP1 ISZERO PUSH2 0x192 JUMPI DUP1 PUSH1 0x1F LT PUSH2 0x169 JUMPI PUSH2 0x100 DUP1 DUP4 SLOAD DIV MUL DUP4 MSTORE SWAP2 PUSH1 0x20 ADD SWAP2 PUSH2 0x192 JUMP JUMPDEST DUP3 ADD SWAP2 SWAP1 PUSH0 MSTORE PUSH1 0x20 PUSH0 KECCAK256 SWAP1 JUMPDEST DUP2 SLOAD DUP2 MSTORE SWAP1 PUSH1 0x1 ADD SWAP1 PUSH1 0x20 ADD DUP1 DUP4 GT PUSH2 0x175 JUMPI DUP3 SWAP1 SUB PUSH1 0x1F AND DUP3 ADD SWAP2 JUMPDEST POP POP POP POP POP DUP2 JUMP JUMPDEST PUSH0 PUSH0 DUP1 SLOAD PUSH2 0x1A7 SWAP1 PUSH2 0x453 JUMP JUMPDEST SWAP1 POP SWAP1 POP SWAP1 JUMP JUMPDEST PUSH0 PUSH1 0x40 MLOAD SWAP1 POP SWAP1 JUMP JUMPDEST PUSH0 PUSH0 REVERT JUMPDEST PUSH0 PUSH0 REVERT JUMPDEST PUSH0 PUSH0 REVERT JUMPDEST PUSH0 PUSH0 REVERT JUMPDEST PUSH0 PUSH1 0x1F NOT PUSH1 0x1F DUP4 ADD AND SWAP1 POP SWAP2 SWAP1 POP JUMP JUMPDEST PUSH32 0x4E487B7100000000000000000000000000000000000000000000000000000000 PUSH0 MSTORE PUSH1 0x41 PUSH1 0x4 MSTORE PUSH1 0x24 PUSH0 REVERT JUMPDEST PUSH2 0x20D DUP3 PUSH2 0x1C7 JUMP JUMPDEST DUP2 ADD DUP2 DUP2 LT PUSH8 0xFFFFFFFFFFFFFFFF DUP3 GT OR ISZERO PUSH2 0x22C JUMPI PUSH2 0x22B PUSH2 0x1D7 JUMP JUMPDEST JUMPDEST DUP1 PUSH1 0x40 MSTORE POP POP POP JUMP JUMPDEST PUSH0 PUSH2 0x23E PUSH2 0x1AE JUMP JUMPDEST SWAP1 POP PUSH2 0x24A DUP3 DUP3 PUSH2 0x204 JUMP JUMPDEST SWAP2 SWAP1 POP JUMP JUMPDEST PUSH0 PUSH8 0xFFFFFFFFFFFFFFFF DUP3 GT ISZERO PUSH2 0x269 JUMPI PUSH2 0x268 PUSH2 0x1D7 JUMP JUMPDEST JUMPDEST PUSH2 0x272 DUP3 PUSH2 0x1C7 JUMP JUMPDEST SWAP1 POP PUSH1 0x20 DUP2 ADD SWAP1 POP SWAP2 SWAP1 POP JUMP JUMPDEST DUP3 DUP2 DUP4 CALLDATACOPY PUSH0 DUP4 DUP4 ADD MSTORE POP POP POP JUMP JUMPDEST PUSH0 PUSH2 0x29F PUSH2 0x29A DUP5 PUSH2 0x24F JUMP JUMPDEST PUSH2 0x235 JUMP JUMPDEST SWAP1 POP DUP3 DUP2 MSTORE PUSH1 0x20 DUP2 ADD DUP5 DUP5 DUP5 ADD GT ISZERO PUSH2 0x2BB JUMPI PUSH2 0x2BA PUSH2 0x1C3 JUMP JUMPDEST JUMPDEST PUSH2 0x2C6 DUP5 DUP3 DUP6 PUSH2 0x27F JUMP JUMPDEST POP SWAP4 SWAP3 POP POP POP JUMP JUMPDEST PUSH0 DUP3 PUSH1 0x1F DUP4 ADD SLT PUSH2 0x2E2 JUMPI PUSH2 0x2E1 PUSH2 0x1BF JUMP JUMPDEST JUMPDEST DUP2 CALLDATALOAD PUSH2 0x2F2 DUP5 DUP3 PUSH1 0x20 DUP7 ADD PUSH2 0x28D JUMP JUMPDEST SWAP2 POP POP SWAP3 SWAP2 POP POP JUMP JUMPDEST PUSH0 PUSH1 0x20 DUP3 DUP5 SUB SLT ISZERO PUSH2 0x310 JUMPI PUSH2 0x30F PUSH2 0x1B7 JUMP JUMPDEST JUMPDEST PUSH0 DUP3 ADD CALLDATALOAD PUSH8 0xFFFFFFFFFFFFFFFF DUP2 GT ISZERO PUSH2 0x32D JUMPI PUSH2 0x32C PUSH2 0x1BB JUMP JUMPDEST JUMPDEST PUSH2 0x339 DUP5 DUP3 DUP6 ADD PUSH2 0x2CE JUMP JUMPDEST SWAP2 POP POP SWAP3 SWAP2 POP POP JUMP JUMPDEST PUSH0 DUP2 ISZERO ISZERO SWAP1 POP SWAP2 SWAP1 POP JUMP JUMPDEST PUSH2 0x356 DUP2 PUSH2 0x342 JUMP JUMPDEST DUP3 MSTORE POP POP JUMP JUMPDEST PUSH0 PUSH1 0x20 DUP3 ADD SWAP1 POP PUSH2 0x36F PUSH0 DUP4 ADD DUP5 PUSH2 0x34D JUMP JUMPDEST SWAP3 SWAP2 POP POP JUMP JUMPDEST PUSH0 DUP2 MLOAD SWAP1 POP SWAP2 SWAP1 POP JUMP JUMPDEST PUSH0 DUP3 DUP3 MSTORE PUSH1 0x20 DUP3 ADD SWAP1 POP SWAP3 SWAP2 POP POP JUMP JUMPDEST DUP3 DUP2 DUP4 MCOPY PUSH0 DUP4 DUP4 ADD MSTORE POP POP POP JUMP JUMPDEST PUSH0 PUSH2 0x3A7 DUP3 PUSH2 0x375 JUMP JUMPDEST PUSH2 0x3B1 DUP2 DUP6 PUSH2 0x37F JUMP JUMPDEST SWAP4 POP PUSH2 0x3C1 DUP2 DUP6 PUSH1 0x20 DUP7 ADD PUSH2 0x38F JUMP JUMPDEST PUSH2 0x3CA DUP2 PUSH2 0x1C7 JUMP JUMPDEST DUP5 ADD SWAP2 POP POP SWAP3 SWAP2 POP POP JUMP JUMPDEST PUSH0 PUSH1 0x20 DUP3 ADD SWAP1 POP DUP2 DUP2 SUB PUSH0 DUP4 ADD MSTORE PUSH2 0x3ED DUP2 DUP5 PUSH2 0x39D JUMP JUMPDEST SWAP1 POP SWAP3 SWAP2 POP POP JUMP JUMPDEST PUSH0 DUP2 SWAP1 POP SWAP2 SWAP1 POP JUMP JUMPDEST PUSH2 0x407 DUP2 PUSH2 0x3F5 JUMP JUMPDEST DUP3 MSTORE POP POP JUMP JUMPDEST PUSH0 PUSH1 0x20 DUP3 ADD SWAP1 POP PUSH2 0x420 PUSH0 DUP4 ADD DUP5 PUSH2 0x3FE JUMP JUMPDEST SWAP3 SWAP2 POP POP JUMP JUMPDEST PUSH32 0x4E487B7100000000000000000000000000000000000000000000000000000000 PUSH0 MSTORE PUSH1 0x22 PUSH1 0x4 MSTORE PUSH1 0x24 PUSH0 REVERT JUMPDEST PUSH0 PUSH1 0x2 DUP3 DIV SWAP1 POP PUSH1 0x1 DUP3 AND DUP1 PUSH2 0x46A JUMPI PUSH1 0x7F DUP3 AND SWAP2 POP JUMPDEST PUSH1 0x20 DUP3 LT DUP2 SUB PUSH2 0x47D JUMPI PUSH2 0x47C PUSH2 0x426 JUMP JUMPDEST JUMPDEST POP SWAP2 SWAP1 POP JUMP JUMPDEST PUSH0 DUP2 SWAP1 POP DUP2 PUSH0 MSTORE PUSH1 0x20 PUSH0 KECCAK256 SWAP1 POP SWAP2 SWAP1 POP JUMP JUMPDEST PUSH0 PUSH1 0x20 PUSH1 0x1F DUP4 ADD DIV SWAP1 POP SWAP2 SWAP1 POP JUMP JUMPDEST PUSH0 DUP3 DUP3 SHL SWAP1 POP SWAP3 SWAP2 POP POP JUMP JUMPDEST PUSH0 PUSH1 0x8 DUP4 MUL PUSH2 0x4DF PUSH32 0xFFFFFFFFFFFFFFFFFFFFFFFFFFFFFFFFFFFFFFFFFFFFFFFFFFFFFFFFFFFFFFFF DUP3 PUSH2 0x4A4 JUMP JUMPDEST PUSH2 0x4E9 DUP7 DUP4 PUSH2 0x4A4 JUMP JUMPDEST SWAP6 POP DUP1 NOT DUP5 AND SWAP4 POP DUP1 DUP7 AND DUP5 OR SWAP3 POP POP POP SWAP4 SWAP3 POP POP POP JUMP JUMPDEST PUSH0 DUP2 SWAP1 POP SWAP2 SWAP1 POP JUMP JUMPDEST PUSH0 PUSH2 0x524 PUSH2 0x51F PUSH2 0x51A DUP5 PUSH2 0x3F5 JUMP JUMPDEST PUSH2 0x501 JUMP JUMPDEST PUSH2 0x3F5 JUMP JUMPDEST SWAP1 POP SWAP2 SWAP1 POP JUMP JUMPDEST PUSH0 DUP2 SWAP1 POP SWAP2 SWAP1 POP JUMP JUMPDEST PUSH2 0x53D DUP4 PUSH2 0x50A JUMP JUMPDEST PUSH2 0x551 PUSH2 0x549 DUP3 PUSH2 0x52B JUMP JUMPDEST DUP5 DUP5 SLOAD PUSH2 0x4B0 JUMP JUMPDEST DUP3 SSTORE POP POP POP POP JUMP JUMPDEST PUSH0 PUSH0 SWAP1 POP SWAP1 JUMP JUMPDEST PUSH2 0x568 PUSH2 0x559 JUMP JUMPDEST PUSH2 0x573 DUP2 DUP5 DUP5 PUSH2 0x534 JUMP JUMPDEST POP POP POP JUMP JUMPDEST JUMPDEST DUP2 DUP2 LT ISZERO PUSH2 0x596 JUMPI PUSH2 0x58B PUSH0 DUP3 PUSH2 0x560 JUMP JUMPDEST PUSH1 0x1 DUP2 ADD SWAP1 POP PUSH2 0x579 JUMP JUMPDEST POP POP JUMP JUMPDEST PUSH1 0x1F DUP3 GT ISZERO PUSH2 0x5DB JUMPI PUSH2 0x5AC DUP2 PUSH2 0x483 JUMP JUMPDEST PUSH2 0x5B5 DUP5 PUSH2 0x495 JUMP JUMPDEST DUP2 ADD PUSH1 0x20 DUP6 LT ISZERO PUSH2 0x5C4 JUMPI DUP2 SWAP1 POP JUMPDEST PUSH2 0x5D8 PUSH2 0x5D0 DUP6 PUSH2 0x495 JUMP JUMPDEST DUP4 ADD DUP3 PUSH2 0x578 JUMP JUMPDEST POP POP JUMPDEST POP POP POP JUMP JUMPDEST PUSH0 DUP3 DUP3 SHR SWAP1 POP SWAP3 SWAP2 POP POP JUMP JUMPDEST PUSH0 PUSH2 0x5FB PUSH0 NOT DUP5 PUSH1 0x8 MUL PUSH2 0x5E0 JUMP JUMPDEST NOT DUP1 DUP4 AND SWAP2 POP POP SWAP3 SWAP2 POP POP JUMP JUMPDEST PUSH0 PUSH2 0x613 DUP4 DUP4 PUSH2 0x5EC JUMP JUMPDEST SWAP2 POP DUP3 PUSH1 0x2 MUL DUP3 OR SWAP1 POP SWAP3 SWAP2 POP POP JUMP JUMPDEST PUSH2 0x62C DUP3 PUSH2 0x375 JUMP JUMPDEST PUSH8 0xFFFFFFFFFFFFFFFF DUP2 GT ISZERO PUSH2 0x645 JUMPI PUSH2 0x644 PUSH2 0x1D7 JUMP JUMPDEST JUMPDEST PUSH2 0x64F DUP3 SLOAD PUSH2 0x453 JUMP JUMPDEST PUSH2 0x65A DUP3 DUP3 DUP6 PUSH2 0x59A JUMP JUMPDEST PUSH0 PUSH1 0x20 SWAP1 POP PUSH1 0x1F DUP4 GT PUSH1 0x1 DUP2 EQ PUSH2 0x68B JUMPI PUSH0 DUP5 ISZERO PUSH2 0x679 JUMPI DUP3 DUP8 ADD MLOAD SWAP1 POP JUMPDEST PUSH2 0x683 DUP6 DUP3 PUSH2 0x608 JUMP JUMPDEST DUP7 SSTORE POP PUSH2 0x6EA JUMP JUMPDEST PUSH1 0x1F NOT DUP5 AND PUSH2 0x699 DUP7 PUSH2 0x483 JUMP JUMPDEST PUSH0 JUMPDEST DUP3 DUP2 LT ISZERO PUSH2 0x6C0 JUMPI DUP5 DUP10 ADD MLOAD DUP3 SSTORE PUSH1 0x1 DUP3 ADD SWAP2 POP PUSH1 0x20 DUP6 ADD SWAP5 POP PUSH1 0x20 DUP2 ADD SWAP1 POP PUSH2 0x69B JUMP JUMPDEST DUP7 DUP4 LT ISZERO PUSH2 0x6DD JUMPI DUP5 DUP10 ADD MLOAD PUSH2 0x6D9 PUSH1 0x1F DUP10 AND DUP3 PUSH2 0x5EC JUMP JUMPDEST DUP4 SSTORE POP JUMPDEST PUSH1 0x1 PUSH1 0x2 DUP9 MUL ADD DUP9 SSTORE POP POP POP JUMPDEST POP POP POP POP POP POP JUMP JUMPDEST PUSH0 DUP2 SWAP1 POP SWAP3 SWAP2 POP POP JUMP JUMPDEST PUSH0 DUP2 SWAP1 POP DUP2 PUSH0 MSTORE PUSH1 0x20 PUSH0 KECCAK256 SWAP1 POP SWAP2 SWAP1 POP JUMP JUMPDEST PUSH0 DUP2 SLOAD PUSH2 0x71A DUP2 PUSH2 0x453 JUMP JUMPDEST PUSH2 0x724 DUP2 DUP7 PUSH2 0x6F2 JUMP JUMPDEST SWAP5 POP PUSH1 0x1 DUP3 AND PUSH0 DUP2 EQ PUSH2 0x73E JUMPI PUSH1 0x1 DUP2 EQ PUSH2 0x753 JUMPI PUSH2 0x785 JUMP JUMPDEST PUSH1 0xFF NOT DUP4 AND DUP7 MSTORE DUP2 ISZERO ISZERO DUP3 MUL DUP7 ADD SWAP4 POP PUSH2 0x785 JUMP JUMPDEST PUSH2 0x75C DUP6 PUSH2 0x6FC JUMP JUMPDEST PUSH0 JUMPDEST DUP4 DUP2 LT ISZERO PUSH2 0x77D JUMPI DUP2 SLOAD DUP2 DUP10 ADD MSTORE PUSH1 0x1 DUP3 ADD SWAP2 POP PUSH1 0x20 DUP2 ADD SWAP1 POP PUSH2 0x75E JUMP JUMPDEST DUP4 DUP9 ADD SWAP6 POP POP POP JUMPDEST POP POP POP SWAP3 SWAP2 POP POP JUMP JUMPDEST PUSH0 PUSH2 0x799 DUP3 DUP5 PUSH2 0x70E JUMP JUMPDEST SWAP2 POP DUP2 SWAP1 POP SWAP3 SWAP2 POP POP JUMP INVALID LOG2 PUSH5 0x6970667358 0x22 SLT KECCAK256 POP 0xCE STOP 0x2F 0x25 0xDC CHAINID 0xF6 0xBC 0x21 0xDF 0xCE EXTCODESIZE PUSH14 0xB493837380D6B641B4DBDF5AEE5E 0xB9 0xD2 ORIGIN 0xD9 PUSH5 0x736F6C6343 STOP ADDMOD 0x1F STOP CALLER "
		},
		"gasEstimates": {
			"creation": {
				"codeDepositCost": "402000",
				"executionCost": "434",
				"totalCost": "402434"
			},
			"external": {
				"getLength()": "2607",
				"ownerName()": "infinite",
				"setOwnerName(string)": "infinite",
				"verifyOwner(string)": "infinite"
			}
		},
		"methodIdentifiers": {
			"getLength()": "be1c766b",
			"ownerName()": "65ac2320",
			"setOwnerName(string)": "295795e2",
			"verifyOwner(string)": "3e116de5"
		}
	},
	"abi": [
		{
			"inputs": [],
			"name": "getLength",
			"outputs": [
				{
					"internalType": "uint256",
					"name": "",
					"type": "uint256"
				}
			],
			"stateMutability": "view",
			"type": "function"
		},
		{
			"inputs": [],
			"name": "ownerName",
			"outputs": [
				{
					"internalType": "string",
					"name": "",
					"type": "string"
				}
			],
			"stateMutability": "view",
			"type": "function"
		},
		{
			"inputs": [
				{
					"internalType": "string",
					"name": "_name",
					"type": "string"
				}
			],
			"name": "setOwnerName",
			"outputs": [],
			"stateMutability": "nonpayable",
			"type": "function"
		},
		{
			"inputs": [
				{
					"internalType": "string",
					"name": "_name",
					"type": "string"
				}
			],
			"name": "verifyOwner",
			"outputs": [
				{
					"internalType": "bool",
					"name": "",
					"type": "bool"
				}
			],
			"stateMutability": "view",
			"type": "function"
		}
	]
}